:100000000C9434000C9451000C9451000C94510049
:100010000C9453000C9451000C9451000C9451001A
:100020000C9451000C9451000C9451000C9451000C
:100030000C9451000C9451000C9451000C945100FC
:100040000C9451000C9451000C9412020C94510029
:100050000C9451000C9451000C9451000C945100DC
:100060000C9451000C94510011241FBECFEFD8E026
:10007000DEBFCDBF11E0A0E0B1E0E4E1F4E102C0F9
:1000800005900D92A638B107D9F711E0A6E8B1E0C6
:1000900001C01D92A63EB107E1F70E94B5000C9485
:1000A000080A0C9400001F920F920FB60F921124B1
:1000B0002F933F934F935F936F937F938F939F9370
:1000C000AF93BF93EF93FF9330993EC089E691E0E1
:1000D0009093E5018093E4019093E3018093E20122
:1000E0009093E1018093E00180918B0180FF0EC02D
:1000F00080918B018E7F80938B0180918B01846036
:1001000080938B0100D080E091E008C080918B014A
:10011000816080938B0100D086E091E0EDB7FEB75F
:10012000928381830E940A070F900F9087E791E0E6
:100130009093E5018093E4019093E3018093E201C1
:100140009093E1018093E001FF91EF91BF91AF9116
:100150009F918F917F916F915F914F913F912F91DF
:100160000F900FBE0F901F9018956F927F928F92F5
:100170009F92AF92BF92CF92DF92EF92FF920F9336
:100180001F93CF93DF9380918B018E7F80938B01A0
:100190002091D501277028612093D5013091D70196
:1001A0003F7E3093D7018091C10080618093C10070
:1001B0009091D401892F80688093D4018091C100EF
:1001C00088608093C100906C9093D401306230932A
:1001D000D7018091C10080688093C1002260209384
:1001E000D5019C7F9093D40160E875E280E090E0B7
:1001F0000E9493030E94AF0587E791E09093E50189
:100200008093E4019093E3018093E2019093E101F4
:100210008093E0018DE091E00E941F0788E893E160
:1002200020E931E0F9013197F1F70197D9F7409AC8
:10023000389880916C00816080936C008091680098
:10024000826080936800D99A789434E6632E2AE01D
:10025000722E98EEA92E93E0B92E8DE2882E81E0C1
:10026000982E80918B0180FFFCCF69C080918A011C
:10027000C82FD0E00E941C05C457DE4F88839091A0
:100280008A01E92FF0E0E457FE4F80818D3009F0BC
:1002900053C0108210928A012091900130E0205DBD
:1002A000344180918E01869DC0011124280F391F91
:1002B00080918F01879DC0011124280F391F8091E3
:1002C0008D0190E0C097AC014A9DC0014B9D900DFF
:1002D0005A9D900D1124280F391F309389012093C6
:1002E00088012091950130E0205D34418091930197
:1002F000869DC0011124280F391F80919401879D8C
:10030000C0011124280F391F8091920190E0C097FD
:10031000FC01EA9DC001EB9D900DFA9D900D11240A
:10032000280F391F309387012093860180918B011C
:10033000826080938B0108C09F5F90938A010E9426
:100340004005882309F492CF80918B0181FF5EC024
:100350008D7F80938B01609186017091870180E091
:1003600090E024EF31E040E050E00E94B5066B01E0
:100370007C014DB75EB7485050400FB6F8945EBF51
:100380000FBE4DBF0DB71EB70F5F1F4FEDB7FEB7C6
:1003900092828182609188017091890180E090E071
:1003A0002EE630E040E050E00E94B5062FEF33E04B
:1003B00040E050E00E94E806F80133832283C70141
:1003C000B6012CE93FE841E050E00E94E806F80160
:1003D00035832483C701B6012FEF33E040E050E0BE
:1003E0000E94E806DA01C90164E670E00E94D406C2
:1003F000F801978386830E940A074DB75EB7485F6E
:100400005F4F0FB6F8945EBF0FBE4DBF80918B015A
:1004100082FF27CF8B7F80938B0187E491E00E943E
:100420001F071FCF1F920F920FB60F9211242F9309
:100430003F934F935F936F937F938F939F93AF936C
:10044000BF93EF93FF930E9499040E94ED04FF91E4
:10045000EF91BF91AF919F918F917F916F915F913C
:100460004F913F912F910F900FBE0F901F901895B5
:10047000F999FECF717072BD61BD80BDFA9AF99A8B
:100480000895F999FECF917092BD81BDF89A80B51B
:1004900008952FB7F89490938500809384002FBF20
:1004A00008958FB7F89420918400309185008FBF14
:1004B000C90108952FB7F89490938900809388001C
:1004C0002FBF08958FB7F89420918800309189004C
:1004D0008FBFC90108952FB7F89490938B00809334
:1004E0008A002FBF08958FB7F89420918A00309129
:1004F0008B008FBFC90108952FB7F89490938700A0
:10050000809386002FBF08958FB7F89420918600BE
:10051000309187008FBFC90108958091A00181FFAC
:1005200004C0239A259A249803C023982598249AD6
:100530008091A10181FF03C08DB5816002C08DB59E
:100540008E7F8DBD9091A001292F26952695279508
:1005500022272795892F81708295880F880F807CAC
:10056000822B292F2295269526952370822B292FC1
:10057000220F220F2072282B892F880F880F880FB7
:100580008071822B9695292F2870282B9695969509
:100590009470922B9CBD08958EBD0DB407FCFDCFC9
:1005A0008EB508950DB407FCFDCF8EB50895DF9389
:1005B000CF9300D00F92CDB7DEB7DE011196E8EDF4
:1005C000F1E083E001900D928150E1F769817A8139
:1005D0008B8190E00F900F900F90CF91DF91089555
:1005E000CF92DF92EF92FF920F931F93DF93CF93FF
:1005F00000D00F92CDB7DEB733E0D32ED622472FEF
:1006000046954170182F12951170562F5295569598
:100610005170082F029506950170A82FA295A695F6
:10062000A695A170962F9295969596959370FF2416
:10063000F394F722FF0CFF0CF92A972F92959695C9
:1006400096959370B82FBF70BB0FBB0FB92B8078F6
:100650009091DA019077EAEDF1E03B2F3295330F7C
:10066000330F307C22912B2F26952695982B922B99
:10067000EF2CE294EE0CEE0C20ECE222CF2CC69490
:10068000C694A295AA0FAA0FA07C9F79669566953D
:100690006770862F880F880F202F2295220F207ECB
:1006A0009A2B922B5295550F507E8E291295107FC2
:1006B0009F7E912B9093DA01769576957F70972F98
:1006C000990F990F3C29440F392B342B3083852BFC
:1006D0008D298093D801D294DD0CDD0C80ECD822DA
:1006E0004295407F4D29472B40937C00110F110FFD
:1006F000110F512B562B000F000F000F052B0093ED
:100700007A00AF29A0937B00BF73B0937E000F9057
:100710000F900F90CF91DF911F910F91FF90EF906D
:10072000DF90CF9008959B01AC018091C000837E43
:100730008093C0006091D401862F877C8093D40180
:10074000862F837090E08130910531F182309105E0
:100750001CF4892B41F080C082309105B1F10397E0
:1007600009F07AC04DC08091C0008D7F8093C00099
:100770008091C2008E7F8093C2008091C2008F77EB
:100780008093C2008091C2008F7B8093C20060E49E
:1007900072E48FE090E052C08091C000826080934C
:1007A000C0008091C2008E7F8093C2008091C20001
:1007B0008F778093C2008091C2008F7B8093C200AC
:1007C00060E874E88EE190E039C08091C0008D7FD0
:1007D0008093C00062FF04C08091C200816003C0AA
:1007E0008091C2008E7F8093C2008091C2008F777B
:1007F0008093C2008091C20080648093C2002CC0AC
:100800008091C0008D7F8093C00062FF04C0809102
:10081000C200816003C08091C2008E7F8093C200BD
:100820008091C20080688093C2008091C200806481
:100830008093C20060E072E18AE790E00E94E806DF
:10084000215030402093D601932F9F708091D70183
:10085000807F892B8093D7018091D6014091D70169
:10086000942F9F70292F332727FD3A952093C50099
:100870008093C40045FF0AC08091C10080688093C6
:10088000C1008091D50182608093D5010895E0EC8C
:10089000F0E0408142954170842F880F880F880FC7
:1008A0009091D401977F982B9093D4018081869565
:1008B000869586958170282F2295207F9F7E922B8A
:1008C0009093D4012081269526952170322F329560
:1008D000330F307E9F7D932B9093D401822B842BFA
:1008E0000895982F8091C00085FFFCCF9093C6009B
:1008F00008959C018091C00085FFFCCFC9018070E4
:100900009170992321F08091C100816003C0809192
:10091000C1008E7F8093C1002093C6000895982F58
:100920008091C00085FFFCCF9093C60080E090E0EE
:1009300008958091C00087FFFCCF9091C000292FBF
:10094000269528708091D401877E990F392F3071B8
:10095000822B832B990F990F90728F7D892B809317
:10096000D4018091C60008958091C00087FFFCCF1C
:100970009091C0002091C1006091C600492F46951A
:1009800048708091D401877E990F592F5071842B24
:10099000852B990F990F90728F7D892B8093D401AD
:1009A00030E0227030703695322F22273795279508
:1009B00070E0262B372BC90108958091C00087FF76
:1009C000FCCF8091C60090E0089502C08091C600DF
:1009D0008091C00087FDFACF08951F93CF93DF93D6
:1009E000182F8091DB01C82FD0E02196BE01882707
:1009F00077FD8095982F219722E330E040E050E08A
:100A00000E94E8069B01AC018091DD0190E0A0E02E
:100A1000B0E0281739074A075B0751F0CE55DE4F83
:100A200018832093DB018091DC018F5F8093DC01D0
:100A3000DF91CF911F9108950F931F938091DD0156
:100A4000282F30E0F901EE55FE4F00811091DC01B6
:100A5000112391F02F5F3F4FB901882777FD8095D3
:100A6000982F22E330E040E050E00E94E8066093D7
:100A7000DD0111501093DC01802F1F910F9108951B
:100A800090E08091DC01882309F491E0892F08959A
:100A90008091D401837090E081309105B9F082306B
:100AA000910509F1892B29F020E030E040E050E089
:100AB0002CC02091C4003091C5002F5F3F4F40E013
:100AC00050E060E472E48FE090E019C02091C4002F
:100AD0003091C5002F5F3F4F40E050E060E874E880
:100AE0008EE190E00CC02091C4003091C5002F5FD2
:100AF0003F4F40E050E060E072E18AE790E00E9402
:100B0000E806C901DA019C01AD01B901CA010895E5
:100B1000382F85B1932F92959F70807F982B95B930
:100B200022E055E0E0EF60E47FE1432F4F702D9825
:100B3000852F8A95F1F72C9A852F8A95F1F72C98B5
:100B40008E2F8A95F1F7343018F4CB010197F1F725
:100B500085B1807F842B85B9215049F7089585B1EF
:100B6000807F85B984B18F6084B985B18F7C85B968
:100B700084B1806384B985B1807F836085B995E055
:100B8000892F8A95F1F72C9A892F8A95F1F72C985D
:100B900020EF822F8A95F1F7E0E2FEE43197F1F73A
:100BA000892F8A95F1F72C9A892F8A95F1F72C983D
:100BB000822F8A95F1F7E0E2F3E03197F1F7892F80
:100BC0008A95F1F72C9A892F8A95F1F72C98822F24
:100BD0008A95F1F785B1807F826085B9892F8A95E2
:100BE000F1F72C9A9A95F1F72C982A95F1F788E26B
:100BF0000E94880588E00E9488051092DE0181E04D
:100C00000E9488058091DF0181608093DF01982F29
:100C10009695969591709C608270892B0E948805AC
:100C200084E08093DE0180E80E9488050895482FC3
:100C30008A30B1F48091DE01982F9C7F837029F473
:100C400091609093DE0180EC03C09093DE0180E818
:100C50000E9488058091DE0183708093DE010895F3
:100C600085B1942F92959F70807F982B95B92D9A7E
:100C700025E0822F8A95F1F72C9A822F8A95F1F739
:100C80002C9830EF832F8A95F1F785B1942F9F70C0
:100C9000807F892B85B92D9A822F8A95F1F72C9A1E
:100CA0002A95F1F72C983A95F1F785B1807F982B2A
:100CB00095B908951F93482F8A3009F51091DE01E8
:100CC0001695169504C080E20E9417061F5F10312A
:100CD000D0F38091DE01982F9C7F837029F491607E
:100CE0009093DE0180EC03C09093DE0180E80E94C7
:100CF00088058091DE0183708093DE0132C080918F
:100D0000DE01982F9C7F9C5F8370892B8093DE018E
:100D100085B1942F92959F70807F982B95B92D9ACD
:100D200025E0822F8A95F1F72C9A822F8A95F1F788
:100D30002C9830EF832F8A95F1F785B1942F9F700F
:100D4000807F892B85B92D9A822F8A95F1F72C9A6D
:100D50002A95F1F72C983A95F1F785B1807F982B79
:100D600095B980E090E01F910895629FD001739F34
:100D7000F001829FE00DF11D649FE00DF11D929F37
:100D8000F00D839FF00D749FF00D659FF00D992776
:100D9000729FB00DE11DF91F639FB00DE11DF91F9A
:100DA000BD01CF0111240895AA1BBB1B51E107C04F
:100DB000AA1FBB1FA617B70710F0A61BB70B881FEB
:100DC000991F5A95A9F780959095BC01CD0108957A
:100DD000A1E21A2EAA1BBB1BFD010DC0AA1FBB1F3F
:100DE000EE1FFF1FA217B307E407F50720F0A21BB1
:100DF000B30BE40BF50B661F771F881F991F1A941E
:100E000069F760957095809590959B01AC01BD0147
:100E1000CF010895A0E0B0E0E0E1F7E00C94E10933
:100E2000FE013596619171918091E2019091E3010B
:100E3000AF010E9454072096E2E00C94FD090F9345
:100E40001F93CF93DF938C01E091E201F091E301D6
:100E5000838181FF21C0C0E0D0E00DC0E091E201BC
:100E6000F091E30120853185BF01F9010995892BB6
:100E700011F0CFEFDFEFF80181918F01882371F737
:100E8000E091E201F091E301208531858AE0BF0124
:100E9000F9010995892B11F0CFEFDFEFCE01DF913A
:100EA000CF911F910F910895ABE0B0E0EAE5F7E034
:100EB0000C94D1093C012B015A01FC0117821682C6
:100EC000838181FD03C06FEF7FEFC6C19AE0892E59
:100ED0001E010894211C311CF3012381F20123FD22
:100EE000859123FF81912F01882309F4B2C18532B6
:100EF00039F423FD859123FF81912F01853229F457
:100F000090E0B3010E944709E7CF982FFF24EE2419
:100F10009924FFE1FF15D0F09B3269F09C3228F450
:100F2000903259F0933291F40EC09D3249F09033D3
:100F300069F441E024C052E0F52A84E0F82A28C090
:100F400098E0F92A25C0E0E1FE2A22C0F7FC29C07A
:100F5000892F80538A3070F4F6FE05C0989C902C3F
:100F60001124980E15C0E89CE02C1124E80EF0E244
:100F7000FF2A0EC09E3229F4F6FC6BC140E4F42A2D
:100F800007C09C3619F450E8F52A02C0983649F497
:100F9000F20123FD959123FF91912F01992309F0EF
:100FA000B8CF892F8554833018F08052833038F4BD
:100FB00044E050E0A40EB51E5FE359830FC09336A2
:100FC00031F0933779F0933509F056C020C0F50120
:100FD0008081898342E050E0A40EB51E610101E0EA
:100FE00010E012C0F501C080D180F6FC03C06FEFA5
:100FF0007FEF02C0692D70E042E050E0A40EB51E04
:10100000C6010E943C098C015FE7F52214C0F5017E
:10101000C080D180F6FC03C06FEF7FEF02C0692D66
:1010200070E042E050E0A40EB51EC6010E943109F6
:101030008C0150E8F52AF3FE07C01AC080E290E068
:10104000B3010E944709EA948E2D90E00817190712
:10105000A8F30EC0F601F7FC8591F7FE81916F01B0
:1010600090E0B3010E944709E110EA94015010405A
:101070000115110579F7EAC0943611F0993669F532
:10108000F7FE08C0F501208131814281538184E05F
:1010900090E00AC0F501808191819C01442737FDD1
:1010A0004095542F82E090E0A80EB91E9FE6F922E9
:1010B00057FF09C050954095309521953F4F4F4FB0
:1010C0005F4FE0E8FE2ACA01B901A1012AE030E041
:1010D0000E947309D82ED21840C0953729F41F2DCD
:1010E0001F7E2AE030E01DC01F2D197F9F3661F062
:1010F000903720F4983509F0ACC00FC0903739F024
:10110000983709F0A6C004C028E030E00AC010619A
:1011100014FD146020E130E004C014FD166020E1ED
:1011200032E017FF08C0F5016081718182819381EF
:1011300044E050E008C0F50180819181BC0180E06D
:1011400090E042E050E0A40EB51EA1010E94730998
:10115000D82ED2188FE7F82EF122F6FE0BC05EEFE4
:10116000F522D91438F4F4FE07C0F2FC05C08FEE66
:10117000F82202C01D2D01C0192DF4FE0DC0FE0184
:10118000ED0DF11D8081803319F499EEF92208C02C
:101190001F5FF2FE05C003C08F2D867809F01F5F28
:1011A0000F2DF3FC14C0F0FE0FC01E1510F09D2C87
:1011B0000BC09D2C9E0C911A1E2D06C080E290E063
:1011C000B3010E9447091F5F1E15C0F304C01E151E
:1011D00010F4E11A01C0EE2404FF0FC080E390E098
:1011E000B3010E94470902FF1DC001FD03C088E74B
:1011F00090E00EC088E590E00BC0802F867891F0DB
:1012000001FF02C08BE201C080E2F7FC8DE290E0BA
:10121000B3010E94470906C080E390E0B3010E9439
:1012200047099A94D914C0F3DA94F101ED0DF11D38
:10123000808190E0B3010E944709DD20A9F706C034
:1012400080E290E0B3010E944709EA94EE20C1F7E2
:1012500043CEF30166817781CB012B96E2E10C94BA
:10126000ED09FC010590615070400110D8F78095A0
:1012700090958E0F9F1F0895FC0161507040019062
:101280000110D8F7809590958E0F9F1F08950F93AA
:101290001F93CF93DF938C01EB018B8181FF1BC0E8
:1012A00082FF0DC02E813F818C819D8128173907D7
:1012B00064F4E881F9810193F983E88306C0E88545
:1012C000F985802F0995892B31F48E819F810196B4
:1012D0009F838E8302C00FEF1FEFC801DF91CF9174
:1012E0001F910F910895FA01AA27283051F120315A
:1012F00081F1E8946F936E7F6E5F7F4F8F4F9F4FAA
:10130000AF4FB1E03ED0B4E03CD0670F781F891FEB
:101310009A1FA11D680F791F8A1F911DA11D6A0FB9
:10132000711D811D911DA11D20D009F468943F916C
:101330002AE0269F11243019305D3193DEF6CF016B
:101340000895462F4770405D4193B3E00FD0C9F731
:10135000F6CF462F4F70405D4A3318F0495D31FD9E
:101360004052419302D0A9F7EACFB4E0A6959795F1
:10137000879577956795BA95C9F7009761057105C7
:1013800008959B01AC010A2E069457954795379511
:101390002795BA95C9F7620F731F841F951FA01D6B
:1013A00008952F923F924F925F926F927F928F9209
:1013B0009F92AF92BF92CF92DF92EF92FF920F93E4
:1013C0001F93CF93DF93CDB7DEB7CA1BDB0B0FB6EE
:1013D000F894DEBF0FBECDBF09942A8839884888AB
:1013E0005F846E847D848C849B84AA84B984C88441
:1013F000DF80EE80FD800C811B81AA81B981CE0F38
:10140000D11D0FB6F894DEBF0FBECDBFED0108951C
:04141000F894FFCF7E
:1014140053544F500D0053544152540D0020204159
:101424007469766964616465203520200A20204C43
:10143400656F6E6172646F20532E20200054656DB9
:10144400702E3A2025750A506F742E3A2025752E79
:1014540025303275200A002020202020204F4646C7
:10146400202020202020200A707265737320746865
:101474006520627574746F6E000000000300000044
:10148400008F04DD04000000000002000000005A88
:061494000600000000004C
:00000001FF
