
Atividade_06.elf:     file format elf32-avr

Sections:
Idx Name          Size      VMA       LMA       File off  Algn
  0 .data         0000011e  00800100  00005674  00005708  2**0
                  CONTENTS, ALLOC, LOAD, DATA
  1 .text         00005674  00000000  00000000  00000094  2**1
                  CONTENTS, ALLOC, LOAD, READONLY, CODE
  2 .bss          000004dc  0080021e  0080021e  00005826  2**0
                  ALLOC
  3 .debug_aranges 000000a0  00000000  00000000  00005826  2**0
                  CONTENTS, READONLY, DEBUGGING
  4 .debug_pubnames 0000060e  00000000  00000000  000058c6  2**0
                  CONTENTS, READONLY, DEBUGGING
  5 .debug_info   00003ac7  00000000  00000000  00005ed4  2**0
                  CONTENTS, READONLY, DEBUGGING
  6 .debug_abbrev 00000a6e  00000000  00000000  0000999b  2**0
                  CONTENTS, READONLY, DEBUGGING
  7 .debug_line   00002fbe  00000000  00000000  0000a409  2**0
                  CONTENTS, READONLY, DEBUGGING
  8 .debug_frame  000005d0  00000000  00000000  0000d3c8  2**2
                  CONTENTS, READONLY, DEBUGGING
  9 .debug_str    00000c51  00000000  00000000  0000d998  2**0
                  CONTENTS, READONLY, DEBUGGING
 10 .debug_loc    000046da  00000000  00000000  0000e5e9  2**0
                  CONTENTS, READONLY, DEBUGGING
 11 .debug_ranges 000002a8  00000000  00000000  00012cc3  2**0
                  CONTENTS, READONLY, DEBUGGING

Disassembly of section .text:

00000000 <__vectors>:
       0:	0c 94 34 00 	jmp	0x68	; 0x68 <__ctors_end>
       4:	0c 94 51 00 	jmp	0xa2	; 0xa2 <__bad_interrupt>
       8:	0c 94 51 00 	jmp	0xa2	; 0xa2 <__bad_interrupt>
       c:	0c 94 51 00 	jmp	0xa2	; 0xa2 <__bad_interrupt>
      10:	0c 94 51 00 	jmp	0xa2	; 0xa2 <__bad_interrupt>
      14:	0c 94 51 00 	jmp	0xa2	; 0xa2 <__bad_interrupt>
      18:	0c 94 51 00 	jmp	0xa2	; 0xa2 <__bad_interrupt>
      1c:	0c 94 51 00 	jmp	0xa2	; 0xa2 <__bad_interrupt>
      20:	0c 94 51 00 	jmp	0xa2	; 0xa2 <__bad_interrupt>
      24:	0c 94 51 00 	jmp	0xa2	; 0xa2 <__bad_interrupt>
      28:	0c 94 51 00 	jmp	0xa2	; 0xa2 <__bad_interrupt>
      2c:	0c 94 51 00 	jmp	0xa2	; 0xa2 <__bad_interrupt>
      30:	0c 94 51 00 	jmp	0xa2	; 0xa2 <__bad_interrupt>
      34:	0c 94 51 00 	jmp	0xa2	; 0xa2 <__bad_interrupt>
      38:	0c 94 51 00 	jmp	0xa2	; 0xa2 <__bad_interrupt>
      3c:	0c 94 51 00 	jmp	0xa2	; 0xa2 <__bad_interrupt>
      40:	0c 94 51 00 	jmp	0xa2	; 0xa2 <__bad_interrupt>
      44:	0c 94 51 00 	jmp	0xa2	; 0xa2 <__bad_interrupt>
      48:	0c 94 ed 02 	jmp	0x5da	; 0x5da <__vector_18>
      4c:	0c 94 51 00 	jmp	0xa2	; 0xa2 <__bad_interrupt>
      50:	0c 94 51 00 	jmp	0xa2	; 0xa2 <__bad_interrupt>
      54:	0c 94 51 00 	jmp	0xa2	; 0xa2 <__bad_interrupt>
      58:	0c 94 51 00 	jmp	0xa2	; 0xa2 <__bad_interrupt>
      5c:	0c 94 51 00 	jmp	0xa2	; 0xa2 <__bad_interrupt>
      60:	0c 94 51 00 	jmp	0xa2	; 0xa2 <__bad_interrupt>
      64:	0c 94 51 00 	jmp	0xa2	; 0xa2 <__bad_interrupt>

00000068 <__ctors_end>:
      68:	11 24       	eor	r1, r1
      6a:	1f be       	out	0x3f, r1	; 63
      6c:	cf ef       	ldi	r28, 0xFF	; 255
      6e:	d8 e0       	ldi	r29, 0x08	; 8
      70:	de bf       	out	0x3e, r29	; 62
      72:	cd bf       	out	0x3d, r28	; 61

00000074 <__do_copy_data>:
      74:	12 e0       	ldi	r17, 0x02	; 2
      76:	a0 e0       	ldi	r26, 0x00	; 0
      78:	b1 e0       	ldi	r27, 0x01	; 1
      7a:	e4 e7       	ldi	r30, 0x74	; 116
      7c:	f6 e5       	ldi	r31, 0x56	; 86
      7e:	02 c0       	rjmp	.+4      	; 0x84 <.do_copy_data_start>

00000080 <.do_copy_data_loop>:
      80:	05 90       	lpm	r0, Z+
      82:	0d 92       	st	X+, r0

00000084 <.do_copy_data_start>:
      84:	ae 31       	cpi	r26, 0x1E	; 30
      86:	b1 07       	cpc	r27, r17
      88:	d9 f7       	brne	.-10     	; 0x80 <.do_copy_data_loop>

0000008a <__do_clear_bss>:
      8a:	16 e0       	ldi	r17, 0x06	; 6
      8c:	ae e1       	ldi	r26, 0x1E	; 30
      8e:	b2 e0       	ldi	r27, 0x02	; 2
      90:	01 c0       	rjmp	.+2      	; 0x94 <.do_clear_bss_start>

00000092 <.do_clear_bss_loop>:
      92:	1d 92       	st	X+, r1

00000094 <.do_clear_bss_start>:
      94:	aa 3f       	cpi	r26, 0xFA	; 250
      96:	b1 07       	cpc	r27, r17
      98:	e1 f7       	brne	.-8      	; 0x92 <.do_clear_bss_loop>
      9a:	0e 94 36 01 	call	0x26c	; 0x26c <main>
      9e:	0c 94 38 2b 	jmp	0x5670	; 0x5670 <_exit>

000000a2 <__bad_interrupt>:
      a2:	0c 94 00 00 	jmp	0	; 0x0 <__vectors>

000000a6 <fuck>:
	return 0;
}


void fuck (FRESULT rc){
	printf("Failed with error %u.\r\n", rc);
      a6:	00 d0       	rcall	.+0      	; 0xa8 <fuck+0x2>
      a8:	00 d0       	rcall	.+0      	; 0xaa <fuck+0x4>
      aa:	ed b7       	in	r30, 0x3d	; 61
      ac:	fe b7       	in	r31, 0x3e	; 62
      ae:	31 96       	adiw	r30, 0x01	; 1
      b0:	20 e0       	ldi	r18, 0x00	; 0
      b2:	31 e0       	ldi	r19, 0x01	; 1
      b4:	ad b7       	in	r26, 0x3d	; 61
      b6:	be b7       	in	r27, 0x3e	; 62
      b8:	12 96       	adiw	r26, 0x02	; 2
      ba:	3c 93       	st	X, r19
      bc:	2e 93       	st	-X, r18
      be:	11 97       	sbiw	r26, 0x01	; 1
      c0:	82 83       	std	Z+2, r24	; 0x02
      c2:	13 82       	std	Z+3, r1	; 0x03
      c4:	0e 94 16 28 	call	0x502c	; 0x502c <printf>
      c8:	0f 90       	pop	r0
      ca:	0f 90       	pop	r0
      cc:	0f 90       	pop	r0
      ce:	0f 90       	pop	r0
      d0:	ff cf       	rjmp	.-2      	; 0xd0 <fuck+0x2a>

000000d2 <scan_files>:
	while(1);
}	


FRESULT scan_files (char* path, char range){		// Start node to be scanned (also used as work area) 
      d2:	5f 92       	push	r5
      d4:	6f 92       	push	r6
      d6:	7f 92       	push	r7
      d8:	8f 92       	push	r8
      da:	9f 92       	push	r9
      dc:	af 92       	push	r10
      de:	bf 92       	push	r11
      e0:	cf 92       	push	r12
      e2:	df 92       	push	r13
      e4:	ef 92       	push	r14
      e6:	ff 92       	push	r15
      e8:	0f 93       	push	r16
      ea:	1f 93       	push	r17
      ec:	df 93       	push	r29
      ee:	cf 93       	push	r28
      f0:	cd b7       	in	r28, 0x3d	; 61
      f2:	de b7       	in	r29, 0x3e	; 62
      f4:	66 97       	sbiw	r28, 0x16	; 22
      f6:	0f b6       	in	r0, 0x3f	; 63
      f8:	f8 94       	cli
      fa:	de bf       	out	0x3e, r29	; 62
      fc:	0f be       	out	0x3f, r0	; 63
      fe:	cd bf       	out	0x3d, r28	; 61
     100:	7c 01       	movw	r14, r24
     102:	56 2e       	mov	r5, r22
    static char lfn[_MAX_LFN + 1];   // Buffer to store the LFN 
    fno.lfname = lfn;
    fno.lfsize = sizeof lfn;
#endif

    rc = f_opendir(&dir, path);								// Open the directory
     104:	6e 01       	movw	r12, r28
     106:	08 94       	sec
     108:	c1 1c       	adc	r12, r1
     10a:	d1 1c       	adc	r13, r1
     10c:	c6 01       	movw	r24, r12
     10e:	b7 01       	movw	r22, r14
     110:	0e 94 16 12 	call	0x242c	; 0x242c <f_opendir>
     114:	80 93 24 02 	sts	0x0224, r24
    if (rc == FR_OK) {
     118:	88 23       	and	r24, r24
     11a:	09 f0       	breq	.+2      	; 0x11e <scan_files+0x4c>
     11c:	8f c0       	rjmp	.+286    	; 0x23c <scan_files+0x16a>
        i = strlen(path);
     11e:	d7 01       	movw	r26, r14
     120:	0d 90       	ld	r0, X+
     122:	00 20       	and	r0, r0
     124:	e9 f7       	brne	.-6      	; 0x120 <scan_files+0x4e>
     126:	8d 01       	movw	r16, r26
     128:	01 50       	subi	r16, 0x01	; 1
     12a:	10 40       	sbci	r17, 0x00	; 0
     12c:	0e 19       	sub	r16, r14
     12e:	1f 09       	sbc	r17, r15
        for (;;) {
            rc = f_readdir(&dir, &fno);						// Read a directory item
     130:	36 01       	movw	r6, r12
            if (rc != FR_OK || fno.fname[0] == 0) break;	// Break on error or end of dir
     132:	2e e2       	ldi	r18, 0x2E	; 46
     134:	c2 2e       	mov	r12, r18
     136:	22 e0       	ldi	r18, 0x02	; 2
     138:	d2 2e       	mov	r13, r18
     13a:	98 e1       	ldi	r25, 0x18	; 24
     13c:	a9 2e       	mov	r10, r25
     13e:	91 e0       	ldi	r25, 0x01	; 1
     140:	b9 2e       	mov	r11, r25
				if(range){
					sprintf(&path[i], "/%s", fn);
					rc = scan_files(path, 1);
				}
                if (rc != FR_OK) break;
                path[i] = 0;
     142:	0e 0d       	add	r16, r14
     144:	1f 1d       	adc	r17, r15
            fn = fno.fname;
#endif
            if (fno.fattrib & AM_DIR) {						// It is a directory
                printf("%s/%s\r\n", path, fn);
				if(range){
					sprintf(&path[i], "/%s", fn);
     146:	80 e2       	ldi	r24, 0x20	; 32
     148:	88 2e       	mov	r8, r24
     14a:	81 e0       	ldi	r24, 0x01	; 1
     14c:	98 2e       	mov	r9, r24

    rc = f_opendir(&dir, path);								// Open the directory
    if (rc == FR_OK) {
        i = strlen(path);
        for (;;) {
            rc = f_readdir(&dir, &fno);						// Read a directory item
     14e:	c3 01       	movw	r24, r6
     150:	65 e2       	ldi	r22, 0x25	; 37
     152:	72 e0       	ldi	r23, 0x02	; 2
     154:	0e 94 14 13 	call	0x2628	; 0x2628 <f_readdir>
     158:	80 93 24 02 	sts	0x0224, r24
            if (rc != FR_OK || fno.fname[0] == 0) break;	// Break on error or end of dir
     15c:	88 23       	and	r24, r24
     15e:	09 f0       	breq	.+2      	; 0x162 <scan_files+0x90>
     160:	69 c0       	rjmp	.+210    	; 0x234 <scan_files+0x162>
     162:	80 91 2e 02 	lds	r24, 0x022E
     166:	88 23       	and	r24, r24
     168:	09 f4       	brne	.+2      	; 0x16c <scan_files+0x9a>
     16a:	64 c0       	rjmp	.+200    	; 0x234 <scan_files+0x162>
            if (fno.fname[0] == '.') continue;				// Ignore dot entry
     16c:	8e 32       	cpi	r24, 0x2E	; 46
     16e:	79 f3       	breq	.-34     	; 0x14e <scan_files+0x7c>
#if _USE_LFN
            fn = *fno.lfname ? fno.lfname : fno.fname;
#else
            fn = fno.fname;
#endif
            if (fno.fattrib & AM_DIR) {						// It is a directory
     170:	80 91 2d 02 	lds	r24, 0x022D
     174:	84 ff       	sbrs	r24, 4
     176:	43 c0       	rjmp	.+134    	; 0x1fe <scan_files+0x12c>
                printf("%s/%s\r\n", path, fn);
     178:	00 d0       	rcall	.+0      	; 0x17a <scan_files+0xa8>
     17a:	00 d0       	rcall	.+0      	; 0x17c <scan_files+0xaa>
     17c:	00 d0       	rcall	.+0      	; 0x17e <scan_files+0xac>
     17e:	ed b7       	in	r30, 0x3d	; 61
     180:	fe b7       	in	r31, 0x3e	; 62
     182:	31 96       	adiw	r30, 0x01	; 1
     184:	ad b7       	in	r26, 0x3d	; 61
     186:	be b7       	in	r27, 0x3e	; 62
     188:	12 96       	adiw	r26, 0x02	; 2
     18a:	bc 92       	st	X, r11
     18c:	ae 92       	st	-X, r10
     18e:	11 97       	sbiw	r26, 0x01	; 1
     190:	f3 82       	std	Z+3, r15	; 0x03
     192:	e2 82       	std	Z+2, r14	; 0x02
     194:	d5 82       	std	Z+5, r13	; 0x05
     196:	c4 82       	std	Z+4, r12	; 0x04
     198:	0e 94 16 28 	call	0x502c	; 0x502c <printf>
				if(range){
     19c:	ed b7       	in	r30, 0x3d	; 61
     19e:	fe b7       	in	r31, 0x3e	; 62
     1a0:	36 96       	adiw	r30, 0x06	; 6
     1a2:	0f b6       	in	r0, 0x3f	; 63
     1a4:	f8 94       	cli
     1a6:	fe bf       	out	0x3e, r31	; 62
     1a8:	0f be       	out	0x3f, r0	; 63
     1aa:	ed bf       	out	0x3d, r30	; 61
     1ac:	55 20       	and	r5, r5
     1ae:	01 f1       	breq	.+64     	; 0x1f0 <scan_files+0x11e>
					sprintf(&path[i], "/%s", fn);
     1b0:	00 d0       	rcall	.+0      	; 0x1b2 <scan_files+0xe0>
     1b2:	00 d0       	rcall	.+0      	; 0x1b4 <scan_files+0xe2>
     1b4:	00 d0       	rcall	.+0      	; 0x1b6 <scan_files+0xe4>
     1b6:	ed b7       	in	r30, 0x3d	; 61
     1b8:	fe b7       	in	r31, 0x3e	; 62
     1ba:	31 96       	adiw	r30, 0x01	; 1
     1bc:	ad b7       	in	r26, 0x3d	; 61
     1be:	be b7       	in	r27, 0x3e	; 62
     1c0:	12 96       	adiw	r26, 0x02	; 2
     1c2:	1c 93       	st	X, r17
     1c4:	0e 93       	st	-X, r16
     1c6:	11 97       	sbiw	r26, 0x01	; 1
     1c8:	93 82       	std	Z+3, r9	; 0x03
     1ca:	82 82       	std	Z+2, r8	; 0x02
     1cc:	d5 82       	std	Z+5, r13	; 0x05
     1ce:	c4 82       	std	Z+4, r12	; 0x04
     1d0:	0e 94 60 28 	call	0x50c0	; 0x50c0 <sprintf>
					rc = scan_files(path, 1);
     1d4:	ed b7       	in	r30, 0x3d	; 61
     1d6:	fe b7       	in	r31, 0x3e	; 62
     1d8:	36 96       	adiw	r30, 0x06	; 6
     1da:	0f b6       	in	r0, 0x3f	; 63
     1dc:	f8 94       	cli
     1de:	fe bf       	out	0x3e, r31	; 62
     1e0:	0f be       	out	0x3f, r0	; 63
     1e2:	ed bf       	out	0x3d, r30	; 61
     1e4:	c7 01       	movw	r24, r14
     1e6:	61 e0       	ldi	r22, 0x01	; 1
     1e8:	0e 94 69 00 	call	0xd2	; 0xd2 <scan_files>
     1ec:	80 93 24 02 	sts	0x0224, r24
				}
                if (rc != FR_OK) break;
     1f0:	80 91 24 02 	lds	r24, 0x0224
     1f4:	88 23       	and	r24, r24
     1f6:	f1 f4       	brne	.+60     	; 0x234 <scan_files+0x162>
                path[i] = 0;
     1f8:	d8 01       	movw	r26, r16
     1fa:	1c 92       	st	X, r1
     1fc:	a8 cf       	rjmp	.-176    	; 0x14e <scan_files+0x7c>
            } else {										// It is a file
                printf("%s/%s\r\n", path, fn);
     1fe:	00 d0       	rcall	.+0      	; 0x200 <scan_files+0x12e>
     200:	00 d0       	rcall	.+0      	; 0x202 <scan_files+0x130>
     202:	00 d0       	rcall	.+0      	; 0x204 <scan_files+0x132>
     204:	ed b7       	in	r30, 0x3d	; 61
     206:	fe b7       	in	r31, 0x3e	; 62
     208:	31 96       	adiw	r30, 0x01	; 1
     20a:	ad b7       	in	r26, 0x3d	; 61
     20c:	be b7       	in	r27, 0x3e	; 62
     20e:	12 96       	adiw	r26, 0x02	; 2
     210:	bc 92       	st	X, r11
     212:	ae 92       	st	-X, r10
     214:	11 97       	sbiw	r26, 0x01	; 1
     216:	f3 82       	std	Z+3, r15	; 0x03
     218:	e2 82       	std	Z+2, r14	; 0x02
     21a:	d5 82       	std	Z+5, r13	; 0x05
     21c:	c4 82       	std	Z+4, r12	; 0x04
     21e:	0e 94 16 28 	call	0x502c	; 0x502c <printf>
     222:	ed b7       	in	r30, 0x3d	; 61
     224:	fe b7       	in	r31, 0x3e	; 62
     226:	36 96       	adiw	r30, 0x06	; 6
     228:	0f b6       	in	r0, 0x3f	; 63
     22a:	f8 94       	cli
     22c:	fe bf       	out	0x3e, r31	; 62
     22e:	0f be       	out	0x3f, r0	; 63
     230:	ed bf       	out	0x3d, r30	; 61
     232:	8d cf       	rjmp	.-230    	; 0x14e <scan_files+0x7c>
            }
        }
        f_closedir(&dir);
     234:	ce 01       	movw	r24, r28
     236:	01 96       	adiw	r24, 0x01	; 1
     238:	0e 94 4e 04 	call	0x89c	; 0x89c <f_closedir>
    }
    return rc;
}
     23c:	80 91 24 02 	lds	r24, 0x0224
     240:	66 96       	adiw	r28, 0x16	; 22
     242:	0f b6       	in	r0, 0x3f	; 63
     244:	f8 94       	cli
     246:	de bf       	out	0x3e, r29	; 62
     248:	0f be       	out	0x3f, r0	; 63
     24a:	cd bf       	out	0x3d, r28	; 61
     24c:	cf 91       	pop	r28
     24e:	df 91       	pop	r29
     250:	1f 91       	pop	r17
     252:	0f 91       	pop	r16
     254:	ff 90       	pop	r15
     256:	ef 90       	pop	r14
     258:	df 90       	pop	r13
     25a:	cf 90       	pop	r12
     25c:	bf 90       	pop	r11
     25e:	af 90       	pop	r10
     260:	9f 90       	pop	r9
     262:	8f 90       	pop	r8
     264:	7f 90       	pop	r7
     266:	6f 90       	pop	r6
     268:	5f 90       	pop	r5
     26a:	08 95       	ret

0000026c <main>:
DIR dir;				// Directory object
FILINFO fno;			// File information object
UINT bw;


int main(){
     26c:	cf 92       	push	r12
     26e:	df 92       	push	r13
     270:	ef 92       	push	r14
     272:	ff 92       	push	r15
     274:	0f 93       	push	r16
     276:	1f 93       	push	r17
     278:	cf 93       	push	r28
     27a:	df 93       	push	r29
	// USART configuration
	usart8DataBits();
     27c:	20 91 eb 06 	lds	r18, 0x06EB
     280:	27 70       	andi	r18, 0x07	; 7
	usartSingleStopBit();
     282:	30 91 ed 06 	lds	r19, 0x06ED
     286:	3f 7e       	andi	r19, 0xEF	; 239
     288:	30 93 ed 06 	sts	0x06ED, r19
	usartParityNone();
     28c:	28 61       	ori	r18, 0x18	; 24
     28e:	20 93 eb 06 	sts	0x06EB, r18
	usartEnableReceiver();
     292:	80 91 c1 00 	lds	r24, 0x00C1
     296:	80 61       	ori	r24, 0x10	; 16
     298:	80 93 c1 00 	sts	0x00C1, r24
     29c:	90 91 ea 06 	lds	r25, 0x06EA
     2a0:	89 2f       	mov	r24, r25
     2a2:	80 68       	ori	r24, 0x80	; 128
     2a4:	80 93 ea 06 	sts	0x06EA, r24
	usartEnableTransmitter();
     2a8:	80 91 c1 00 	lds	r24, 0x00C1
     2ac:	88 60       	ori	r24, 0x08	; 8
     2ae:	80 93 c1 00 	sts	0x00C1, r24
     2b2:	90 6c       	ori	r25, 0xC0	; 192
	usartAsynchronousMode();
     2b4:	9c 7f       	andi	r25, 0xFC	; 252
     2b6:	90 93 ea 06 	sts	0x06EA, r25
	usartEnableReceiverBuffer();
     2ba:	30 62       	ori	r19, 0x20	; 32
     2bc:	30 93 ed 06 	sts	0x06ED, r19
	usartIsReceptionComplete();
     2c0:	80 91 c0 00 	lds	r24, 0x00C0
	usartActivateReceptionCompleteInterrupt();
     2c4:	80 91 c1 00 	lds	r24, 0x00C1
     2c8:	80 68       	ori	r24, 0x80	; 128
     2ca:	80 93 c1 00 	sts	0x00C1, r24
     2ce:	22 60       	ori	r18, 0x02	; 2
     2d0:	20 93 eb 06 	sts	0x06EB, r18
	usartStdio();
     2d4:	8f e0       	ldi	r24, 0x0F	; 15
     2d6:	92 e0       	ldi	r25, 0x02	; 2
     2d8:	90 93 f9 06 	sts	0x06F9, r25
     2dc:	80 93 f8 06 	sts	0x06F8, r24
     2e0:	90 93 f7 06 	sts	0x06F7, r25
     2e4:	80 93 f6 06 	sts	0x06F6, r24
     2e8:	90 93 f5 06 	sts	0x06F5, r25
     2ec:	80 93 f4 06 	sts	0x06F4, r24
	usartInit(9600);
     2f0:	60 e8       	ldi	r22, 0x80	; 128
     2f2:	75 e2       	ldi	r23, 0x25	; 37
     2f4:	80 e0       	ldi	r24, 0x00	; 0
     2f6:	90 e0       	ldi	r25, 0x00	; 0
     2f8:	0e 94 fd 21 	call	0x43fa	; 0x43fa <usartInit>

	sei();
     2fc:	78 94       	sei

	// Mount SD card
	rc = f_mount(&fatfs, "1", 1);
     2fe:	88 e8       	ldi	r24, 0x88	; 136
     300:	94 e0       	ldi	r25, 0x04	; 4
     302:	64 e2       	ldi	r22, 0x24	; 36
     304:	71 e0       	ldi	r23, 0x01	; 1
     306:	41 e0       	ldi	r20, 0x01	; 1
     308:	0e 94 86 09 	call	0x130c	; 0x130c <f_mount>
     30c:	28 2f       	mov	r18, r24
     30e:	80 93 24 02 	sts	0x0224, r24
	if(rc)
     312:	88 23       	and	r24, r24
     314:	b1 f0       	breq	.+44     	; 0x342 <main+0xd6>
	return 0;
}


void fuck (FRESULT rc){
	printf("Failed with error %u.\r\n", rc);
     316:	00 d0       	rcall	.+0      	; 0x318 <main+0xac>
     318:	00 d0       	rcall	.+0      	; 0x31a <main+0xae>
     31a:	ed b7       	in	r30, 0x3d	; 61
     31c:	fe b7       	in	r31, 0x3e	; 62
     31e:	31 96       	adiw	r30, 0x01	; 1
     320:	80 e0       	ldi	r24, 0x00	; 0
     322:	91 e0       	ldi	r25, 0x01	; 1
     324:	ad b7       	in	r26, 0x3d	; 61
     326:	be b7       	in	r27, 0x3e	; 62
     328:	12 96       	adiw	r26, 0x02	; 2
     32a:	9c 93       	st	X, r25
     32c:	8e 93       	st	-X, r24
     32e:	11 97       	sbiw	r26, 0x01	; 1
     330:	22 83       	std	Z+2, r18	; 0x02
     332:	13 82       	std	Z+3, r1	; 0x03
     334:	0e 94 16 28 	call	0x502c	; 0x502c <printf>
     338:	0f 90       	pop	r0
     33a:	0f 90       	pop	r0
     33c:	0f 90       	pop	r0
     33e:	0f 90       	pop	r0
     340:	ff cf       	rjmp	.-2      	; 0x340 <main+0xd4>
	rc = f_mount(&fatfs, "1", 1);
	if(rc)
		fuck(rc);

	// Open the root directory
	rc = f_opendir(&dir, "");
     342:	82 e5       	ldi	r24, 0x52	; 82
     344:	92 e0       	ldi	r25, 0x02	; 2
     346:	66 e2       	ldi	r22, 0x26	; 38
     348:	71 e0       	ldi	r23, 0x01	; 1
     34a:	0e 94 16 12 	call	0x242c	; 0x242c <f_opendir>
     34e:	28 2f       	mov	r18, r24
     350:	80 93 24 02 	sts	0x0224, r24
	if(rc)
     354:	88 23       	and	r24, r24
     356:	b1 f0       	breq	.+44     	; 0x384 <main+0x118>
	return 0;
}


void fuck (FRESULT rc){
	printf("Failed with error %u.\r\n", rc);
     358:	00 d0       	rcall	.+0      	; 0x35a <main+0xee>
     35a:	00 d0       	rcall	.+0      	; 0x35c <main+0xf0>
     35c:	ed b7       	in	r30, 0x3d	; 61
     35e:	fe b7       	in	r31, 0x3e	; 62
     360:	31 96       	adiw	r30, 0x01	; 1
     362:	80 e0       	ldi	r24, 0x00	; 0
     364:	91 e0       	ldi	r25, 0x01	; 1
     366:	ad b7       	in	r26, 0x3d	; 61
     368:	be b7       	in	r27, 0x3e	; 62
     36a:	12 96       	adiw	r26, 0x02	; 2
     36c:	9c 93       	st	X, r25
     36e:	8e 93       	st	-X, r24
     370:	11 97       	sbiw	r26, 0x01	; 1
     372:	22 83       	std	Z+2, r18	; 0x02
     374:	13 82       	std	Z+3, r1	; 0x03
     376:	0e 94 16 28 	call	0x502c	; 0x502c <printf>
     37a:	0f 90       	pop	r0
     37c:	0f 90       	pop	r0
     37e:	0f 90       	pop	r0
     380:	0f 90       	pop	r0
     382:	ff cf       	rjmp	.-2      	; 0x382 <main+0x116>
	rc = f_opendir(&dir, "");
	if(rc)
		fuck(rc);

	// Ceate read-me
	rc = f_open(&fil,"read-me.txt", FA_WRITE | FA_CREATE_ALWAYS);
     384:	88 e6       	ldi	r24, 0x68	; 104
     386:	92 e0       	ldi	r25, 0x02	; 2
     388:	67 e2       	ldi	r22, 0x27	; 39
     38a:	71 e0       	ldi	r23, 0x01	; 1
     38c:	4a e0       	ldi	r20, 0x0A	; 10
     38e:	0e 94 63 13 	call	0x26c6	; 0x26c6 <f_open>
     392:	80 93 24 02 	sts	0x0224, r24
	//Write in read-me
	rc = f_write(&fil,temp_string,sizeof(temp_string), &bw);	
     396:	88 e6       	ldi	r24, 0x68	; 104
     398:	92 e0       	ldi	r25, 0x02	; 2
     39a:	68 e8       	ldi	r22, 0x88	; 136
     39c:	71 e0       	ldi	r23, 0x01	; 1
     39e:	48 e2       	ldi	r20, 0x28	; 40
     3a0:	50 e0       	ldi	r21, 0x00	; 0
     3a2:	20 e5       	ldi	r18, 0x50	; 80
     3a4:	32 e0       	ldi	r19, 0x02	; 2
     3a6:	0e 94 c0 17 	call	0x2f80	; 0x2f80 <f_write>
     3aa:	80 93 24 02 	sts	0x0224, r24
	//Close read-me
	rc = f_close(&fil);
     3ae:	88 e6       	ldi	r24, 0x68	; 104
     3b0:	92 e0       	ldi	r25, 0x02	; 2
     3b2:	0e 94 91 20 	call	0x4122	; 0x4122 <f_close>
     3b6:	80 93 24 02 	sts	0x0224, r24
			n = 0;
		}

		if(state.cdout){
			state.cdout = 0;
			if(strcmp(current_dir, "")){
     3ba:	00 eb       	ldi	r16, 0xB0	; 176
     3bc:	11 e0       	ldi	r17, 0x01	; 1
				current_dir[n] = '\0';
				rc = f_closedir(&dir);
				n = 0;
			}
			
			printf("current dir = %s \r\n", current_dir); 
     3be:	44 e7       	ldi	r20, 0x74	; 116
     3c0:	c4 2e       	mov	r12, r20
     3c2:	41 e0       	ldi	r20, 0x01	; 1
     3c4:	d4 2e       	mov	r13, r20
				for (n = strlen(current_dir); current_dir[n] != '/'; n--){}
				current_dir[n] = '\0';
				printf("the folder does not exist\r\n\n");
			}
			else
				printf("current dir = %s\r\n\n", current_dir);
     3c6:	30 e6       	ldi	r19, 0x60	; 96
     3c8:	e3 2e       	mov	r14, r19
     3ca:	31 e0       	ldi	r19, 0x01	; 1
     3cc:	f3 2e       	mov	r15, r19
     3ce:	4a c0       	rjmp	.+148    	; 0x464 <main+0x1f8>
	//Close read-me
	rc = f_close(&fil);
	
	while(1){
		while(!usartIsReceiverBufferEmpty()){			
			buffer[n] = usartGetDataFromReceiverBuffer();
     3d0:	80 91 1e 02 	lds	r24, 0x021E
     3d4:	c8 2f       	mov	r28, r24
     3d6:	d0 e0       	ldi	r29, 0x00	; 0
     3d8:	0e 94 86 23 	call	0x470c	; 0x470c <usartGetDataFromReceiverBuffer>
     3dc:	c4 5c       	subi	r28, 0xC4	; 196
     3de:	dd 4f       	sbci	r29, 0xFD	; 253
     3e0:	88 83       	st	Y, r24
			if(buffer[n] == '\r'){
     3e2:	90 91 1e 02 	lds	r25, 0x021E
     3e6:	e9 2f       	mov	r30, r25
     3e8:	f0 e0       	ldi	r31, 0x00	; 0
     3ea:	e4 5c       	subi	r30, 0xC4	; 196
     3ec:	fd 4f       	sbci	r31, 0xFD	; 253
     3ee:	80 81       	ld	r24, Z
     3f0:	8d 30       	cpi	r24, 0x0D	; 13
     3f2:	a9 f5       	brne	.+106    	; 0x45e <main+0x1f2>
				buffer[n] = '\0';
     3f4:	10 82       	st	Z, r1
				n = 0;
     3f6:	10 92 1e 02 	sts	0x021E, r1
				
				if(strcmp(buffer, "ls") == 0)
     3fa:	8c e3       	ldi	r24, 0x3C	; 60
     3fc:	92 e0       	ldi	r25, 0x02	; 2
     3fe:	63 e3       	ldi	r22, 0x33	; 51
     400:	71 e0       	ldi	r23, 0x01	; 1
     402:	0e 94 06 28 	call	0x500c	; 0x500c <strcmp>
     406:	00 97       	sbiw	r24, 0x00	; 0
     408:	21 f4       	brne	.+8      	; 0x412 <main+0x1a6>
					state.ls = 1;
     40a:	80 91 3b 02 	lds	r24, 0x023B
     40e:	81 60       	ori	r24, 0x01	; 1
     410:	0b c0       	rjmp	.+22     	; 0x428 <main+0x1bc>

				else if(strcmp(buffer, "tree") == 0)
     412:	8c e3       	ldi	r24, 0x3C	; 60
     414:	92 e0       	ldi	r25, 0x02	; 2
     416:	66 e3       	ldi	r22, 0x36	; 54
     418:	71 e0       	ldi	r23, 0x01	; 1
     41a:	0e 94 06 28 	call	0x500c	; 0x500c <strcmp>
     41e:	00 97       	sbiw	r24, 0x00	; 0
     420:	31 f4       	brne	.+12     	; 0x42e <main+0x1c2>
					state.tree = 1;
     422:	80 91 3b 02 	lds	r24, 0x023B
     426:	82 60       	ori	r24, 0x02	; 2
     428:	80 93 3b 02 	sts	0x023B, r24
     42c:	20 c0       	rjmp	.+64     	; 0x46e <main+0x202>

				else if(strcmp(buffer, "cd..") == 0)
     42e:	8c e3       	ldi	r24, 0x3C	; 60
     430:	92 e0       	ldi	r25, 0x02	; 2
     432:	6b e3       	ldi	r22, 0x3B	; 59
     434:	71 e0       	ldi	r23, 0x01	; 1
     436:	0e 94 06 28 	call	0x500c	; 0x500c <strcmp>
     43a:	00 97       	sbiw	r24, 0x00	; 0
     43c:	21 f4       	brne	.+8      	; 0x446 <main+0x1da>
					state.cdout = 1;
     43e:	80 91 3b 02 	lds	r24, 0x023B
     442:	84 60       	ori	r24, 0x04	; 4
     444:	f1 cf       	rjmp	.-30     	; 0x428 <main+0x1bc>
					
				else if(buffer[0] == 'c' && buffer[1] == 'd')
     446:	80 91 3c 02 	lds	r24, 0x023C
     44a:	83 36       	cpi	r24, 0x63	; 99
     44c:	81 f4       	brne	.+32     	; 0x46e <main+0x202>
     44e:	80 91 3d 02 	lds	r24, 0x023D
     452:	84 36       	cpi	r24, 0x64	; 100
     454:	61 f4       	brne	.+24     	; 0x46e <main+0x202>
					state.cd = 1;
     456:	80 91 3b 02 	lds	r24, 0x023B
     45a:	88 60       	ori	r24, 0x08	; 8
     45c:	e5 cf       	rjmp	.-54     	; 0x428 <main+0x1bc>
				
				break;
			}
			else
				n++;
     45e:	9f 5f       	subi	r25, 0xFF	; 255
     460:	90 93 1e 02 	sts	0x021E, r25
	rc = f_write(&fil,temp_string,sizeof(temp_string), &bw);	
	//Close read-me
	rc = f_close(&fil);
	
	while(1){
		while(!usartIsReceiverBufferEmpty()){			
     464:	0e 94 aa 23 	call	0x4754	; 0x4754 <usartIsReceiverBufferEmpty>
     468:	88 23       	and	r24, r24
     46a:	09 f4       	brne	.+2      	; 0x46e <main+0x202>
     46c:	b1 cf       	rjmp	.-158    	; 0x3d0 <main+0x164>
			}
			else
				n++;
		}

		if(state.ls){
     46e:	80 91 3b 02 	lds	r24, 0x023B
     472:	80 ff       	sbrs	r24, 0
     474:	0c c0       	rjmp	.+24     	; 0x48e <main+0x222>
			state.ls = 0;
     476:	8e 7f       	andi	r24, 0xFE	; 254
     478:	80 93 3b 02 	sts	0x023B, r24
			scan_files (current_dir, 0);
     47c:	80 eb       	ldi	r24, 0xB0	; 176
     47e:	91 e0       	ldi	r25, 0x01	; 1
     480:	60 e0       	ldi	r22, 0x00	; 0
     482:	0e 94 69 00 	call	0xd2	; 0xd2 <scan_files>
			printf("\r\n");
     486:	80 e4       	ldi	r24, 0x40	; 64
     488:	91 e0       	ldi	r25, 0x01	; 1
     48a:	0e 94 2b 28 	call	0x5056	; 0x5056 <puts>
		}
			
		if(state.tree){
     48e:	80 91 3b 02 	lds	r24, 0x023B
     492:	81 ff       	sbrs	r24, 1
     494:	12 c0       	rjmp	.+36     	; 0x4ba <main+0x24e>
			state.tree = 0;
     496:	8d 7f       	andi	r24, 0xFD	; 253
     498:	80 93 3b 02 	sts	0x023B, r24
			strcpy (&temp_string[0], ""); 
     49c:	88 e8       	ldi	r24, 0x88	; 136
     49e:	91 e0       	ldi	r25, 0x01	; 1
     4a0:	66 e2       	ldi	r22, 0x26	; 38
     4a2:	71 e0       	ldi	r23, 0x01	; 1
     4a4:	0e 94 0f 28 	call	0x501e	; 0x501e <strcpy>
			scan_files(temp_string, 1);
     4a8:	88 e8       	ldi	r24, 0x88	; 136
     4aa:	91 e0       	ldi	r25, 0x01	; 1
     4ac:	61 e0       	ldi	r22, 0x01	; 1
     4ae:	0e 94 69 00 	call	0xd2	; 0xd2 <scan_files>
			printf("\r\n");
     4b2:	80 e4       	ldi	r24, 0x40	; 64
     4b4:	91 e0       	ldi	r25, 0x01	; 1
     4b6:	0e 94 2b 28 	call	0x5056	; 0x5056 <puts>
		}
		
		if(state.cd){
     4ba:	80 91 3b 02 	lds	r24, 0x023B
     4be:	83 ff       	sbrs	r24, 3
     4c0:	53 c0       	rjmp	.+166    	; 0x568 <main+0x2fc>
			state.cd = 0;
     4c2:	87 7f       	andi	r24, 0xF7	; 247
     4c4:	80 93 3b 02 	sts	0x023B, r24
     4c8:	93 e0       	ldi	r25, 0x03	; 3
			n = 3;
			do{
				buffer [n-3] = buffer [n];
     4ca:	e9 2f       	mov	r30, r25
     4cc:	f0 e0       	ldi	r31, 0x00	; 0
     4ce:	e4 5c       	subi	r30, 0xC4	; 196
     4d0:	fd 4f       	sbci	r31, 0xFD	; 253
     4d2:	80 81       	ld	r24, Z
     4d4:	33 97       	sbiw	r30, 0x03	; 3
     4d6:	80 83       	st	Z, r24
     4d8:	9f 5f       	subi	r25, 0xFF	; 255
				n++;
			}while(buffer [n-1] != '\0');
     4da:	e9 2f       	mov	r30, r25
     4dc:	f0 e0       	ldi	r31, 0x00	; 0
     4de:	e5 5c       	subi	r30, 0xC5	; 197
     4e0:	fd 4f       	sbci	r31, 0xFD	; 253
     4e2:	80 81       	ld	r24, Z
     4e4:	88 23       	and	r24, r24
     4e6:	89 f7       	brne	.-30     	; 0x4ca <main+0x25e>
     4e8:	90 93 1e 02 	sts	0x021E, r25
			
			strcat (&current_dir[0], "/");
     4ec:	80 eb       	ldi	r24, 0xB0	; 176
     4ee:	91 e0       	ldi	r25, 0x01	; 1
     4f0:	62 e4       	ldi	r22, 0x42	; 66
     4f2:	71 e0       	ldi	r23, 0x01	; 1
     4f4:	0e 94 fb 27 	call	0x4ff6	; 0x4ff6 <strcat>
			strcat (&current_dir[0], &buffer [0]);	
     4f8:	80 eb       	ldi	r24, 0xB0	; 176
     4fa:	91 e0       	ldi	r25, 0x01	; 1
     4fc:	6c e3       	ldi	r22, 0x3C	; 60
     4fe:	72 e0       	ldi	r23, 0x02	; 2
     500:	0e 94 fb 27 	call	0x4ff6	; 0x4ff6 <strcat>
			
			rc = f_opendir(&dir, current_dir);
     504:	82 e5       	ldi	r24, 0x52	; 82
     506:	92 e0       	ldi	r25, 0x02	; 2
     508:	60 eb       	ldi	r22, 0xB0	; 176
     50a:	71 e0       	ldi	r23, 0x01	; 1
     50c:	0e 94 16 12 	call	0x242c	; 0x242c <f_opendir>
     510:	80 93 24 02 	sts	0x0224, r24
			if(rc){
     514:	88 23       	and	r24, r24
     516:	c1 f0       	breq	.+48     	; 0x548 <main+0x2dc>
				for (n = strlen(current_dir); current_dir[n] != '/'; n--){}
     518:	f8 01       	movw	r30, r16
     51a:	01 90       	ld	r0, Z+
     51c:	00 20       	and	r0, r0
     51e:	e9 f7       	brne	.-6      	; 0x51a <main+0x2ae>
     520:	31 97       	sbiw	r30, 0x01	; 1
     522:	e0 5b       	subi	r30, 0xB0	; 176
     524:	f1 40       	sbci	r31, 0x01	; 1
     526:	ae 2f       	mov	r26, r30
     528:	b0 e0       	ldi	r27, 0x00	; 0
     52a:	9e 2f       	mov	r25, r30
     52c:	e1 50       	subi	r30, 0x01	; 1
     52e:	a0 55       	subi	r26, 0x50	; 80
     530:	be 4f       	sbci	r27, 0xFE	; 254
     532:	8c 91       	ld	r24, X
     534:	8f 32       	cpi	r24, 0x2F	; 47
     536:	b9 f7       	brne	.-18     	; 0x526 <main+0x2ba>
     538:	90 93 1e 02 	sts	0x021E, r25
				current_dir[n] = '\0';
     53c:	1c 92       	st	X, r1
				printf("the folder does not exist\r\n\n");
     53e:	84 e4       	ldi	r24, 0x44	; 68
     540:	91 e0       	ldi	r25, 0x01	; 1
     542:	0e 94 2b 28 	call	0x5056	; 0x5056 <puts>
     546:	0e c0       	rjmp	.+28     	; 0x564 <main+0x2f8>
			}
			else
				printf("current dir = %s\r\n\n", current_dir);
     548:	00 d0       	rcall	.+0      	; 0x54a <main+0x2de>
     54a:	00 d0       	rcall	.+0      	; 0x54c <main+0x2e0>
     54c:	ed b7       	in	r30, 0x3d	; 61
     54e:	fe b7       	in	r31, 0x3e	; 62
     550:	f2 82       	std	Z+2, r15	; 0x02
     552:	e1 82       	std	Z+1, r14	; 0x01
     554:	14 83       	std	Z+4, r17	; 0x04
     556:	03 83       	std	Z+3, r16	; 0x03
     558:	0e 94 16 28 	call	0x502c	; 0x502c <printf>
     55c:	0f 90       	pop	r0
     55e:	0f 90       	pop	r0
     560:	0f 90       	pop	r0
     562:	0f 90       	pop	r0
				
			n = 0;
     564:	10 92 1e 02 	sts	0x021E, r1
		}

		if(state.cdout){
     568:	80 91 3b 02 	lds	r24, 0x023B
     56c:	82 ff       	sbrs	r24, 2
     56e:	7a cf       	rjmp	.-268    	; 0x464 <main+0x1f8>
			state.cdout = 0;
     570:	8b 7f       	andi	r24, 0xFB	; 251
     572:	80 93 3b 02 	sts	0x023B, r24
			if(strcmp(current_dir, "")){
     576:	80 91 b0 01 	lds	r24, 0x01B0
     57a:	88 23       	and	r24, r24
     57c:	d9 f0       	breq	.+54     	; 0x5b4 <main+0x348>
				for (n = strlen(current_dir); current_dir[n] != '/'; n--){}
     57e:	f8 01       	movw	r30, r16
     580:	01 90       	ld	r0, Z+
     582:	00 20       	and	r0, r0
     584:	e9 f7       	brne	.-6      	; 0x580 <main+0x314>
     586:	31 97       	sbiw	r30, 0x01	; 1
     588:	e0 5b       	subi	r30, 0xB0	; 176
     58a:	f1 40       	sbci	r31, 0x01	; 1
     58c:	ae 2f       	mov	r26, r30
     58e:	b0 e0       	ldi	r27, 0x00	; 0
     590:	9e 2f       	mov	r25, r30
     592:	e1 50       	subi	r30, 0x01	; 1
     594:	a0 55       	subi	r26, 0x50	; 80
     596:	be 4f       	sbci	r27, 0xFE	; 254
     598:	8c 91       	ld	r24, X
     59a:	8f 32       	cpi	r24, 0x2F	; 47
     59c:	b9 f7       	brne	.-18     	; 0x58c <main+0x320>
     59e:	90 93 1e 02 	sts	0x021E, r25
				current_dir[n] = '\0';
     5a2:	1c 92       	st	X, r1
				rc = f_closedir(&dir);
     5a4:	82 e5       	ldi	r24, 0x52	; 82
     5a6:	92 e0       	ldi	r25, 0x02	; 2
     5a8:	0e 94 4e 04 	call	0x89c	; 0x89c <f_closedir>
     5ac:	80 93 24 02 	sts	0x0224, r24
				n = 0;
     5b0:	10 92 1e 02 	sts	0x021E, r1
			}
			
			printf("current dir = %s \r\n", current_dir); 
     5b4:	00 d0       	rcall	.+0      	; 0x5b6 <main+0x34a>
     5b6:	00 d0       	rcall	.+0      	; 0x5b8 <main+0x34c>
     5b8:	ad b7       	in	r26, 0x3d	; 61
     5ba:	be b7       	in	r27, 0x3e	; 62
     5bc:	12 96       	adiw	r26, 0x02	; 2
     5be:	dc 92       	st	X, r13
     5c0:	ce 92       	st	-X, r12
     5c2:	11 97       	sbiw	r26, 0x01	; 1
     5c4:	14 96       	adiw	r26, 0x04	; 4
     5c6:	1c 93       	st	X, r17
     5c8:	0e 93       	st	-X, r16
     5ca:	13 97       	sbiw	r26, 0x03	; 3
     5cc:	0e 94 16 28 	call	0x502c	; 0x502c <printf>
     5d0:	0f 90       	pop	r0
     5d2:	0f 90       	pop	r0
     5d4:	0f 90       	pop	r0
     5d6:	0f 90       	pop	r0
     5d8:	45 cf       	rjmp	.-374    	; 0x464 <main+0x1f8>

000005da <__vector_18>:
#include "global.h"

#include <string.h>
#include <stdlib.h>

USART_RECEIVER_BUFFER_FUNCTION_HANDLER
     5da:	1f 92       	push	r1
     5dc:	0f 92       	push	r0
     5de:	0f b6       	in	r0, 0x3f	; 63
     5e0:	0f 92       	push	r0
     5e2:	11 24       	eor	r1, r1
     5e4:	2f 93       	push	r18
     5e6:	3f 93       	push	r19
     5e8:	4f 93       	push	r20
     5ea:	5f 93       	push	r21
     5ec:	6f 93       	push	r22
     5ee:	7f 93       	push	r23
     5f0:	8f 93       	push	r24
     5f2:	9f 93       	push	r25
     5f4:	af 93       	push	r26
     5f6:	bf 93       	push	r27
     5f8:	ef 93       	push	r30
     5fa:	ff 93       	push	r31
     5fc:	0e 94 03 23 	call	0x4606	; 0x4606 <usartReceive>
     600:	0e 94 57 23 	call	0x46ae	; 0x46ae <usartAddDataToReceiverBuffer>
     604:	ff 91       	pop	r31
     606:	ef 91       	pop	r30
     608:	bf 91       	pop	r27
     60a:	af 91       	pop	r26
     60c:	9f 91       	pop	r25
     60e:	8f 91       	pop	r24
     610:	7f 91       	pop	r23
     612:	6f 91       	pop	r22
     614:	5f 91       	pop	r21
     616:	4f 91       	pop	r20
     618:	3f 91       	pop	r19
     61a:	2f 91       	pop	r18
     61c:	0f 90       	pop	r0
     61e:	0f be       	out	0x3f, r0	; 63
     620:	0f 90       	pop	r0
     622:	1f 90       	pop	r1
     624:	18 95       	reti

00000626 <clust2sect>:

DWORD clust2sect (	/* !=0: Sector number, 0: Failed - invalid cluster# */
	FATFS* fs,		/* File system object */
	DWORD clst		/* Cluster# to be converted */
)
{
     626:	ef 92       	push	r14
     628:	ff 92       	push	r15
     62a:	0f 93       	push	r16
     62c:	1f 93       	push	r17
     62e:	cf 93       	push	r28
     630:	df 93       	push	r29
     632:	ec 01       	movw	r28, r24
     634:	7a 01       	movw	r14, r20
     636:	8b 01       	movw	r16, r22
	clst -= 2;
     638:	8e ef       	ldi	r24, 0xFE	; 254
     63a:	9f ef       	ldi	r25, 0xFF	; 255
     63c:	af ef       	ldi	r26, 0xFF	; 255
     63e:	bf ef       	ldi	r27, 0xFF	; 255
     640:	e8 0e       	add	r14, r24
     642:	f9 1e       	adc	r15, r25
     644:	0a 1f       	adc	r16, r26
     646:	1b 1f       	adc	r17, r27
	if (clst >= (fs->n_fatent - 2)) return 0;		/* Invalid cluster# */
     648:	8a 89       	ldd	r24, Y+18	; 0x12
     64a:	9b 89       	ldd	r25, Y+19	; 0x13
     64c:	ac 89       	ldd	r26, Y+20	; 0x14
     64e:	bd 89       	ldd	r27, Y+21	; 0x15
     650:	02 97       	sbiw	r24, 0x02	; 2
     652:	a1 09       	sbc	r26, r1
     654:	b1 09       	sbc	r27, r1
     656:	e8 16       	cp	r14, r24
     658:	f9 06       	cpc	r15, r25
     65a:	0a 07       	cpc	r16, r26
     65c:	1b 07       	cpc	r17, r27
     65e:	28 f0       	brcs	.+10     	; 0x66a <clust2sect+0x44>
     660:	20 e0       	ldi	r18, 0x00	; 0
     662:	30 e0       	ldi	r19, 0x00	; 0
     664:	40 e0       	ldi	r20, 0x00	; 0
     666:	50 e0       	ldi	r21, 0x00	; 0
     668:	12 c0       	rjmp	.+36     	; 0x68e <clust2sect+0x68>
	return clst * fs->csize + fs->database;
     66a:	2a 81       	ldd	r18, Y+2	; 0x02
     66c:	30 e0       	ldi	r19, 0x00	; 0
     66e:	40 e0       	ldi	r20, 0x00	; 0
     670:	50 e0       	ldi	r21, 0x00	; 0
     672:	c8 01       	movw	r24, r16
     674:	b7 01       	movw	r22, r14
     676:	0e 94 ba 27 	call	0x4f74	; 0x4f74 <__mulsi3>
     67a:	9b 01       	movw	r18, r22
     67c:	ac 01       	movw	r20, r24
     67e:	8e a1       	ldd	r24, Y+38	; 0x26
     680:	9f a1       	ldd	r25, Y+39	; 0x27
     682:	a8 a5       	ldd	r26, Y+40	; 0x28
     684:	b9 a5       	ldd	r27, Y+41	; 0x29
     686:	28 0f       	add	r18, r24
     688:	39 1f       	adc	r19, r25
     68a:	4a 1f       	adc	r20, r26
     68c:	5b 1f       	adc	r21, r27
}
     68e:	b9 01       	movw	r22, r18
     690:	ca 01       	movw	r24, r20
     692:	df 91       	pop	r29
     694:	cf 91       	pop	r28
     696:	1f 91       	pop	r17
     698:	0f 91       	pop	r16
     69a:	ff 90       	pop	r15
     69c:	ef 90       	pop	r14
     69e:	08 95       	ret

000006a0 <get_fattime>:
			| ((DWORD)1 << 21)
			| ((DWORD)1 << 16)
			| ((DWORD)0 << 11)
			| ((DWORD)0 << 5)
			| ((DWORD)0 >> 1);
}
     6a0:	60 e0       	ldi	r22, 0x00	; 0
     6a2:	70 e0       	ldi	r23, 0x00	; 0
     6a4:	81 e2       	ldi	r24, 0x21	; 33
     6a6:	9c e3       	ldi	r25, 0x3C	; 60
     6a8:	08 95       	ret

000006aa <ld_clust>:
static
DWORD ld_clust (
	FATFS* fs,	/* Pointer to the fs object */
	BYTE* dir	/* Pointer to the directory entry */
)
{
     6aa:	ef 92       	push	r14
     6ac:	ff 92       	push	r15
     6ae:	0f 93       	push	r16
     6b0:	1f 93       	push	r17
     6b2:	fc 01       	movw	r30, r24
     6b4:	db 01       	movw	r26, r22
	DWORD cl;

	cl = LD_WORD(dir+DIR_FstClusLO);
     6b6:	5b 96       	adiw	r26, 0x1b	; 27
     6b8:	9c 91       	ld	r25, X
     6ba:	5b 97       	sbiw	r26, 0x1b	; 27
     6bc:	80 e0       	ldi	r24, 0x00	; 0
     6be:	5a 96       	adiw	r26, 0x1a	; 26
     6c0:	2c 91       	ld	r18, X
     6c2:	5a 97       	sbiw	r26, 0x1a	; 26
     6c4:	30 e0       	ldi	r19, 0x00	; 0
     6c6:	82 2b       	or	r24, r18
     6c8:	93 2b       	or	r25, r19
     6ca:	7c 01       	movw	r14, r24
     6cc:	00 e0       	ldi	r16, 0x00	; 0
     6ce:	10 e0       	ldi	r17, 0x00	; 0
	if (fs->fs_type == FS_FAT32)
     6d0:	80 81       	ld	r24, Z
     6d2:	83 30       	cpi	r24, 0x03	; 3
     6d4:	91 f4       	brne	.+36     	; 0x6fa <ld_clust+0x50>
		cl |= (DWORD)LD_WORD(dir+DIR_FstClusHI) << 16;
     6d6:	55 96       	adiw	r26, 0x15	; 21
     6d8:	9c 91       	ld	r25, X
     6da:	55 97       	sbiw	r26, 0x15	; 21
     6dc:	80 e0       	ldi	r24, 0x00	; 0
     6de:	54 96       	adiw	r26, 0x14	; 20
     6e0:	2c 91       	ld	r18, X
     6e2:	30 e0       	ldi	r19, 0x00	; 0
     6e4:	82 2b       	or	r24, r18
     6e6:	93 2b       	or	r25, r19
     6e8:	a0 e0       	ldi	r26, 0x00	; 0
     6ea:	b0 e0       	ldi	r27, 0x00	; 0
     6ec:	dc 01       	movw	r26, r24
     6ee:	99 27       	eor	r25, r25
     6f0:	88 27       	eor	r24, r24
     6f2:	e8 2a       	or	r14, r24
     6f4:	f9 2a       	or	r15, r25
     6f6:	0a 2b       	or	r16, r26
     6f8:	1b 2b       	or	r17, r27

	return cl;
}
     6fa:	b7 01       	movw	r22, r14
     6fc:	c8 01       	movw	r24, r16
     6fe:	1f 91       	pop	r17
     700:	0f 91       	pop	r16
     702:	ff 90       	pop	r15
     704:	ef 90       	pop	r14
     706:	08 95       	ret

00000708 <st_clust>:
static
void st_clust (
	BYTE* dir,	/* Pointer to the directory entry */
	DWORD cl	/* Value to be set */
)
{
     708:	fc 01       	movw	r30, r24
	ST_WORD(dir+DIR_FstClusLO, cl);
     70a:	42 8f       	std	Z+26, r20	; 0x1a
     70c:	85 2f       	mov	r24, r21
     70e:	99 27       	eor	r25, r25
     710:	83 8f       	std	Z+27, r24	; 0x1b
	ST_WORD(dir+DIR_FstClusHI, cl >> 16);
     712:	ab 01       	movw	r20, r22
     714:	66 27       	eor	r22, r22
     716:	77 27       	eor	r23, r23
     718:	44 8b       	std	Z+20, r20	; 0x14
     71a:	45 2f       	mov	r20, r21
     71c:	55 27       	eor	r21, r21
     71e:	45 8b       	std	Z+21, r20	; 0x15
}
     720:	08 95       	ret

00000722 <get_fileinfo>:
static
void get_fileinfo (		/* No return code */
	DIR* dp,			/* Pointer to the directory object */
	FILINFO* fno	 	/* Pointer to the file information to be filled */
)
{
     722:	0f 93       	push	r16
     724:	1f 93       	push	r17
     726:	cf 93       	push	r28
     728:	df 93       	push	r29
     72a:	fc 01       	movw	r30, r24
	UINT i;
	TCHAR *p, c;


	p = fno->fname;
     72c:	8b 01       	movw	r16, r22
     72e:	07 5f       	subi	r16, 0xF7	; 247
     730:	1f 4f       	sbci	r17, 0xFF	; 255
	if (dp->sect) {		/* Get SFN */
     732:	86 85       	ldd	r24, Z+14	; 0x0e
     734:	97 85       	ldd	r25, Z+15	; 0x0f
     736:	a0 89       	ldd	r26, Z+16	; 0x10
     738:	b1 89       	ldd	r27, Z+17	; 0x11
     73a:	00 97       	sbiw	r24, 0x00	; 0
     73c:	a1 05       	cpc	r26, r1
     73e:	b1 05       	cpc	r27, r1
     740:	09 f4       	brne	.+2      	; 0x744 <get_fileinfo+0x22>
     742:	5b c0       	rjmp	.+182    	; 0x7fa <get_fileinfo+0xd8>
		BYTE *dir = dp->dir;
     744:	c2 89       	ldd	r28, Z+18	; 0x12
     746:	d3 89       	ldd	r29, Z+19	; 0x13
     748:	80 e0       	ldi	r24, 0x00	; 0
     74a:	90 e0       	ldi	r25, 0x00	; 0
		i = 0;
		while (i < 11) {		/* Copy name body and extension */
			c = (TCHAR)dir[i++];
			if (c == ' ') continue;			/* Skip padding spaces */
			if (c == NDDE) c = (TCHAR)DDE;	/* Restore replaced DDE character */
			if (i == 9) *p++ = '.';			/* Insert a . if extension is exist */
     74c:	2e e2       	ldi	r18, 0x2E	; 46
	if (dp->sect) {		/* Get SFN */
		BYTE *dir = dp->dir;

		i = 0;
		while (i < 11) {		/* Copy name body and extension */
			c = (TCHAR)dir[i++];
     74e:	fe 01       	movw	r30, r28
     750:	e8 0f       	add	r30, r24
     752:	f9 1f       	adc	r31, r25
     754:	e0 81       	ld	r30, Z
     756:	01 96       	adiw	r24, 0x01	; 1
			if (c == ' ') continue;			/* Skip padding spaces */
     758:	e0 32       	cpi	r30, 0x20	; 32
     75a:	61 f0       	breq	.+24     	; 0x774 <get_fileinfo+0x52>
			if (c == NDDE) c = (TCHAR)DDE;	/* Restore replaced DDE character */
     75c:	e5 30       	cpi	r30, 0x05	; 5
     75e:	09 f4       	brne	.+2      	; 0x762 <get_fileinfo+0x40>
     760:	e5 ee       	ldi	r30, 0xE5	; 229
			if (i == 9) *p++ = '.';			/* Insert a . if extension is exist */
     762:	89 30       	cpi	r24, 0x09	; 9
     764:	91 05       	cpc	r25, r1
     766:	19 f4       	brne	.+6      	; 0x76e <get_fileinfo+0x4c>
     768:	d8 01       	movw	r26, r16
     76a:	2d 93       	st	X+, r18
     76c:	8d 01       	movw	r16, r26
				c = c << 8 | dir[i++];
			c = ff_convert(c, 1);	/* OEM -> Unicode */
			if (!c) c = '?';
#endif
#endif
			*p++ = c;
     76e:	d8 01       	movw	r26, r16
     770:	ed 93       	st	X+, r30
     772:	8d 01       	movw	r16, r26
	p = fno->fname;
	if (dp->sect) {		/* Get SFN */
		BYTE *dir = dp->dir;

		i = 0;
		while (i < 11) {		/* Copy name body and extension */
     774:	8b 30       	cpi	r24, 0x0B	; 11
     776:	91 05       	cpc	r25, r1
     778:	51 f7       	brne	.-44     	; 0x74e <get_fileinfo+0x2c>
			if (!c) c = '?';
#endif
#endif
			*p++ = c;
		}
		fno->fattrib = dir[DIR_Attr];				/* Attribute */
     77a:	8b 85       	ldd	r24, Y+11	; 0x0b
     77c:	fb 01       	movw	r30, r22
     77e:	80 87       	std	Z+8, r24	; 0x08
		fno->fsize = LD_DWORD(dir+DIR_FileSize);	/* Size */
     780:	2f 8d       	ldd	r18, Y+31	; 0x1f
     782:	30 e0       	ldi	r19, 0x00	; 0
     784:	40 e0       	ldi	r20, 0x00	; 0
     786:	50 e0       	ldi	r21, 0x00	; 0
     788:	52 2f       	mov	r21, r18
     78a:	44 27       	eor	r20, r20
     78c:	33 27       	eor	r19, r19
     78e:	22 27       	eor	r18, r18
     790:	8e 8d       	ldd	r24, Y+30	; 0x1e
     792:	90 e0       	ldi	r25, 0x00	; 0
     794:	a0 e0       	ldi	r26, 0x00	; 0
     796:	b0 e0       	ldi	r27, 0x00	; 0
     798:	dc 01       	movw	r26, r24
     79a:	99 27       	eor	r25, r25
     79c:	88 27       	eor	r24, r24
     79e:	28 2b       	or	r18, r24
     7a0:	39 2b       	or	r19, r25
     7a2:	4a 2b       	or	r20, r26
     7a4:	5b 2b       	or	r21, r27
     7a6:	8c 8d       	ldd	r24, Y+28	; 0x1c
     7a8:	90 e0       	ldi	r25, 0x00	; 0
     7aa:	a0 e0       	ldi	r26, 0x00	; 0
     7ac:	b0 e0       	ldi	r27, 0x00	; 0
     7ae:	28 2b       	or	r18, r24
     7b0:	39 2b       	or	r19, r25
     7b2:	4a 2b       	or	r20, r26
     7b4:	5b 2b       	or	r21, r27
     7b6:	9d 8d       	ldd	r25, Y+29	; 0x1d
     7b8:	80 e0       	ldi	r24, 0x00	; 0
     7ba:	a0 e0       	ldi	r26, 0x00	; 0
     7bc:	b0 e0       	ldi	r27, 0x00	; 0
     7be:	28 2b       	or	r18, r24
     7c0:	39 2b       	or	r19, r25
     7c2:	4a 2b       	or	r20, r26
     7c4:	5b 2b       	or	r21, r27
     7c6:	db 01       	movw	r26, r22
     7c8:	2d 93       	st	X+, r18
     7ca:	3d 93       	st	X+, r19
     7cc:	4d 93       	st	X+, r20
     7ce:	5c 93       	st	X, r21
     7d0:	13 97       	sbiw	r26, 0x03	; 3
		fno->fdate = LD_WORD(dir+DIR_WrtDate);		/* Date */
     7d2:	99 8d       	ldd	r25, Y+25	; 0x19
     7d4:	80 e0       	ldi	r24, 0x00	; 0
     7d6:	28 8d       	ldd	r18, Y+24	; 0x18
     7d8:	30 e0       	ldi	r19, 0x00	; 0
     7da:	82 2b       	or	r24, r18
     7dc:	93 2b       	or	r25, r19
     7de:	15 96       	adiw	r26, 0x05	; 5
     7e0:	9c 93       	st	X, r25
     7e2:	8e 93       	st	-X, r24
     7e4:	14 97       	sbiw	r26, 0x04	; 4
		fno->ftime = LD_WORD(dir+DIR_WrtTime);		/* Time */
     7e6:	9f 89       	ldd	r25, Y+23	; 0x17
     7e8:	80 e0       	ldi	r24, 0x00	; 0
     7ea:	2e 89       	ldd	r18, Y+22	; 0x16
     7ec:	30 e0       	ldi	r19, 0x00	; 0
     7ee:	82 2b       	or	r24, r18
     7f0:	93 2b       	or	r25, r19
     7f2:	17 96       	adiw	r26, 0x07	; 7
     7f4:	9c 93       	st	X, r25
     7f6:	8e 93       	st	-X, r24
     7f8:	16 97       	sbiw	r26, 0x06	; 6
	}
	*p = 0;		/* Terminate SFN string by a \0 */
     7fa:	f8 01       	movw	r30, r16
     7fc:	10 82       	st	Z, r1
			}
		}
		p[i] = 0;	/* Terminate LFN string by a \0 */
	}
#endif
}
     7fe:	df 91       	pop	r29
     800:	cf 91       	pop	r28
     802:	1f 91       	pop	r17
     804:	0f 91       	pop	r16
     806:	08 95       	ret

00000808 <get_ldnumber>:

static
int get_ldnumber (		/* Returns logical drive number (-1:invalid drive) */
	const TCHAR** path	/* Pointer to pointer to the path name */
)
{
     808:	cf 93       	push	r28
     80a:	df 93       	push	r29
     80c:	ec 01       	movw	r28, r24
	const TCHAR *tp, *tt;
	UINT i;
	int vol = -1;


	if (*path) {	/* If the pointer is not a null */
     80e:	a8 81       	ld	r26, Y
     810:	b9 81       	ldd	r27, Y+1	; 0x01
     812:	10 97       	sbiw	r26, 0x00	; 0
     814:	f1 f0       	breq	.+60     	; 0x852 <get_ldnumber+0x4a>
     816:	fd 01       	movw	r30, r26
     818:	01 c0       	rjmp	.+2      	; 0x81c <get_ldnumber+0x14>
		for (tt = *path; (UINT)*tt >= (_USE_LFN ? ' ' : '!') && *tt != ':'; tt++) ;	/* Find ':' in the path */
     81a:	31 96       	adiw	r30, 0x01	; 1
     81c:	80 81       	ld	r24, Z
     81e:	81 32       	cpi	r24, 0x21	; 33
     820:	18 f4       	brcc	.+6      	; 0x828 <get_ldnumber+0x20>
     822:	20 e0       	ldi	r18, 0x00	; 0
     824:	30 e0       	ldi	r19, 0x00	; 0
     826:	17 c0       	rjmp	.+46     	; 0x856 <get_ldnumber+0x4e>
     828:	8a 33       	cpi	r24, 0x3A	; 58
     82a:	b9 f7       	brne	.-18     	; 0x81a <get_ldnumber+0x12>
		if (*tt == ':') {	/* If a ':' is exist in the path name */
			tp = *path;
			i = *tp++ - '0'; 
     82c:	8c 91       	ld	r24, X
     82e:	28 2f       	mov	r18, r24
     830:	30 e0       	ldi	r19, 0x00	; 0
     832:	20 53       	subi	r18, 0x30	; 48
     834:	30 40       	sbci	r19, 0x00	; 0
			if (i < 10 && tp == tt) {	/* Is there a numeric drive id? */
     836:	2a 30       	cpi	r18, 0x0A	; 10
     838:	31 05       	cpc	r19, r1
     83a:	58 f4       	brcc	.+22     	; 0x852 <get_ldnumber+0x4a>

	if (*path) {	/* If the pointer is not a null */
		for (tt = *path; (UINT)*tt >= (_USE_LFN ? ' ' : '!') && *tt != ':'; tt++) ;	/* Find ':' in the path */
		if (*tt == ':') {	/* If a ':' is exist in the path name */
			tp = *path;
			i = *tp++ - '0'; 
     83c:	11 96       	adiw	r26, 0x01	; 1
			if (i < 10 && tp == tt) {	/* Is there a numeric drive id? */
     83e:	ae 17       	cp	r26, r30
     840:	bf 07       	cpc	r27, r31
     842:	39 f4       	brne	.+14     	; 0x852 <get_ldnumber+0x4a>
				if (i < _VOLUMES) {	/* If a drive id is found, get the value and strip it */
     844:	21 15       	cp	r18, r1
     846:	31 05       	cpc	r19, r1
     848:	21 f4       	brne	.+8      	; 0x852 <get_ldnumber+0x4a>
					vol = (int)i;
					*path = ++tt;
     84a:	31 96       	adiw	r30, 0x01	; 1
     84c:	f9 83       	std	Y+1, r31	; 0x01
     84e:	e8 83       	st	Y, r30
     850:	02 c0       	rjmp	.+4      	; 0x856 <get_ldnumber+0x4e>
     852:	2f ef       	ldi	r18, 0xFF	; 255
     854:	3f ef       	ldi	r19, 0xFF	; 255
#else
		vol = 0;		/* Drive 0 */
#endif
	}
	return vol;
}
     856:	c9 01       	movw	r24, r18
     858:	df 91       	pop	r29
     85a:	cf 91       	pop	r28
     85c:	08 95       	ret

0000085e <validate>:
static
FRESULT validate (	/* FR_OK(0): The object is valid, !=0: Invalid */
	void* obj		/* Pointer to the object FIL/DIR to check validity */
)
{
	FIL *fil = (FIL*)obj;	/* Assuming offset of .fs and .id in the FIL/DIR structure is identical */
     85e:	fc 01       	movw	r30, r24


	if (!fil || !fil->fs || !fil->fs->fs_type || fil->fs->id != fil->id)
     860:	00 97       	sbiw	r24, 0x00	; 0
     862:	d1 f0       	breq	.+52     	; 0x898 <validate+0x3a>
     864:	a0 81       	ld	r26, Z
     866:	b1 81       	ldd	r27, Z+1	; 0x01
     868:	10 97       	sbiw	r26, 0x00	; 0
     86a:	b1 f0       	breq	.+44     	; 0x898 <validate+0x3a>
     86c:	8c 91       	ld	r24, X
     86e:	88 23       	and	r24, r24
     870:	99 f0       	breq	.+38     	; 0x898 <validate+0x3a>
     872:	16 96       	adiw	r26, 0x06	; 6
     874:	2d 91       	ld	r18, X+
     876:	3c 91       	ld	r19, X
     878:	17 97       	sbiw	r26, 0x07	; 7
     87a:	82 81       	ldd	r24, Z+2	; 0x02
     87c:	93 81       	ldd	r25, Z+3	; 0x03
     87e:	28 17       	cp	r18, r24
     880:	39 07       	cpc	r19, r25
     882:	51 f4       	brne	.+20     	; 0x898 <validate+0x3a>
		return FR_INVALID_OBJECT;

	ENTER_FF(fil->fs);		/* Lock file system */

	if (disk_status(fil->fs->drv) & STA_NOINIT)
     884:	11 96       	adiw	r26, 0x01	; 1
     886:	8c 91       	ld	r24, X
     888:	0e 94 f2 23 	call	0x47e4	; 0x47e4 <disk_status>
     88c:	80 fd       	sbrc	r24, 0
     88e:	02 c0       	rjmp	.+4      	; 0x894 <validate+0x36>
     890:	80 e0       	ldi	r24, 0x00	; 0
     892:	08 95       	ret
     894:	83 e0       	ldi	r24, 0x03	; 3
     896:	08 95       	ret
     898:	89 e0       	ldi	r24, 0x09	; 9
		return FR_NOT_READY;

	return FR_OK;
}
     89a:	08 95       	ret

0000089c <f_closedir>:
/*-----------------------------------------------------------------------*/

FRESULT f_closedir (
	DIR *dp		/* Pointer to the directory object to be closed */
)
{
     89c:	cf 93       	push	r28
     89e:	df 93       	push	r29
     8a0:	ec 01       	movw	r28, r24
	FRESULT res;


	res = validate(dp);
     8a2:	0e 94 2f 04 	call	0x85e	; 0x85e <validate>
	if (res == FR_OK) {
     8a6:	88 23       	and	r24, r24
     8a8:	11 f4       	brne	.+4      	; 0x8ae <f_closedir+0x12>
#if _FS_LOCK
		if (dp->lockid)				/* Decrement sub-directory open counter */
			res = dec_lock(dp->lockid);
		if (res == FR_OK)
#endif
			dp->fs = 0;				/* Invalidate directory object */
     8aa:	19 82       	std	Y+1, r1	; 0x01
     8ac:	18 82       	st	Y, r1
#if _FS_REENTRANT
		unlock_fs(fs, FR_OK);		/* Unlock volume */
#endif
	}
	return res;
}
     8ae:	df 91       	pop	r29
     8b0:	cf 91       	pop	r28
     8b2:	08 95       	ret

000008b4 <sync_window>:
#if !_FS_READONLY
static
FRESULT sync_window (
	FATFS* fs		/* File system object */
)
{
     8b4:	8f 92       	push	r8
     8b6:	9f 92       	push	r9
     8b8:	af 92       	push	r10
     8ba:	bf 92       	push	r11
     8bc:	cf 92       	push	r12
     8be:	df 92       	push	r13
     8c0:	ef 92       	push	r14
     8c2:	ff 92       	push	r15
     8c4:	0f 93       	push	r16
     8c6:	cf 93       	push	r28
     8c8:	df 93       	push	r29
     8ca:	ec 01       	movw	r28, r24
	DWORD wsect;
	UINT nf;


	if (fs->wflag) {	/* Write back the sector if it is dirty */
     8cc:	8c 81       	ldd	r24, Y+4	; 0x04
     8ce:	88 23       	and	r24, r24
     8d0:	09 f4       	brne	.+2      	; 0x8d4 <sync_window+0x20>
     8d2:	42 c0       	rjmp	.+132    	; 0x958 <__stack+0x59>
		wsect = fs->winsect;	/* Current sector number */
     8d4:	ca a4       	ldd	r12, Y+42	; 0x2a
     8d6:	db a4       	ldd	r13, Y+43	; 0x2b
     8d8:	ec a4       	ldd	r14, Y+44	; 0x2c
     8da:	fd a4       	ldd	r15, Y+45	; 0x2d
		if (disk_write(fs->drv, fs->win, wsect, 1))
     8dc:	ae e2       	ldi	r26, 0x2E	; 46
     8de:	8a 2e       	mov	r8, r26
     8e0:	91 2c       	mov	r9, r1
     8e2:	8c 0e       	add	r8, r28
     8e4:	9d 1e       	adc	r9, r29
     8e6:	89 81       	ldd	r24, Y+1	; 0x01
     8e8:	b4 01       	movw	r22, r8
     8ea:	a7 01       	movw	r20, r14
     8ec:	96 01       	movw	r18, r12
     8ee:	01 e0       	ldi	r16, 0x01	; 1
     8f0:	0e 94 6c 26 	call	0x4cd8	; 0x4cd8 <disk_write>
     8f4:	88 23       	and	r24, r24
     8f6:	11 f0       	breq	.+4      	; 0x8fc <sync_window+0x48>
     8f8:	81 e0       	ldi	r24, 0x01	; 1
     8fa:	2f c0       	rjmp	.+94     	; 0x95a <__stack+0x5b>
			return FR_DISK_ERR;
		fs->wflag = 0;
     8fc:	1c 82       	std	Y+4, r1	; 0x04
		if (wsect - fs->fatbase < fs->fsize) {		/* Is it in the FAT area? */
     8fe:	8e 8d       	ldd	r24, Y+30	; 0x1e
     900:	9f 8d       	ldd	r25, Y+31	; 0x1f
     902:	a8 a1       	ldd	r26, Y+32	; 0x20
     904:	b9 a1       	ldd	r27, Y+33	; 0x21
     906:	a7 01       	movw	r20, r14
     908:	96 01       	movw	r18, r12
     90a:	28 1b       	sub	r18, r24
     90c:	39 0b       	sbc	r19, r25
     90e:	4a 0b       	sbc	r20, r26
     910:	5b 0b       	sbc	r21, r27
     912:	8e 89       	ldd	r24, Y+22	; 0x16
     914:	9f 89       	ldd	r25, Y+23	; 0x17
     916:	a8 8d       	ldd	r26, Y+24	; 0x18
     918:	b9 8d       	ldd	r27, Y+25	; 0x19
     91a:	28 17       	cp	r18, r24
     91c:	39 07       	cpc	r19, r25
     91e:	4a 07       	cpc	r20, r26
     920:	5b 07       	cpc	r21, r27
     922:	d0 f4       	brcc	.+52     	; 0x958 <__stack+0x59>
			for (nf = fs->n_fats; nf >= 2; nf--) {	/* Reflect the change to all FAT copies */
     924:	8b 81       	ldd	r24, Y+3	; 0x03
     926:	a8 2e       	mov	r10, r24
     928:	bb 24       	eor	r11, r11
     92a:	12 c0       	rjmp	.+36     	; 0x950 <__stack+0x51>
				wsect += fs->fsize;
     92c:	8e 89       	ldd	r24, Y+22	; 0x16
     92e:	9f 89       	ldd	r25, Y+23	; 0x17
     930:	a8 8d       	ldd	r26, Y+24	; 0x18
     932:	b9 8d       	ldd	r27, Y+25	; 0x19
     934:	c8 0e       	add	r12, r24
     936:	d9 1e       	adc	r13, r25
     938:	ea 1e       	adc	r14, r26
     93a:	fb 1e       	adc	r15, r27
				disk_write(fs->drv, fs->win, wsect, 1);
     93c:	89 81       	ldd	r24, Y+1	; 0x01
     93e:	b4 01       	movw	r22, r8
     940:	a7 01       	movw	r20, r14
     942:	96 01       	movw	r18, r12
     944:	01 e0       	ldi	r16, 0x01	; 1
     946:	0e 94 6c 26 	call	0x4cd8	; 0x4cd8 <disk_write>
		wsect = fs->winsect;	/* Current sector number */
		if (disk_write(fs->drv, fs->win, wsect, 1))
			return FR_DISK_ERR;
		fs->wflag = 0;
		if (wsect - fs->fatbase < fs->fsize) {		/* Is it in the FAT area? */
			for (nf = fs->n_fats; nf >= 2; nf--) {	/* Reflect the change to all FAT copies */
     94a:	08 94       	sec
     94c:	a1 08       	sbc	r10, r1
     94e:	b1 08       	sbc	r11, r1
     950:	82 e0       	ldi	r24, 0x02	; 2
     952:	a8 16       	cp	r10, r24
     954:	b1 04       	cpc	r11, r1
     956:	50 f7       	brcc	.-44     	; 0x92c <__stack+0x2d>
     958:	80 e0       	ldi	r24, 0x00	; 0
				disk_write(fs->drv, fs->win, wsect, 1);
			}
		}
	}
	return FR_OK;
}
     95a:	df 91       	pop	r29
     95c:	cf 91       	pop	r28
     95e:	0f 91       	pop	r16
     960:	ff 90       	pop	r15
     962:	ef 90       	pop	r14
     964:	df 90       	pop	r13
     966:	cf 90       	pop	r12
     968:	bf 90       	pop	r11
     96a:	af 90       	pop	r10
     96c:	9f 90       	pop	r9
     96e:	8f 90       	pop	r8
     970:	08 95       	ret

00000972 <move_window>:
static
FRESULT move_window (
	FATFS* fs,		/* File system object */
	DWORD sector	/* Sector number to make appearance in the fs->win[] */
)
{
     972:	cf 92       	push	r12
     974:	df 92       	push	r13
     976:	ef 92       	push	r14
     978:	ff 92       	push	r15
     97a:	0f 93       	push	r16
     97c:	cf 93       	push	r28
     97e:	df 93       	push	r29
     980:	ec 01       	movw	r28, r24
     982:	6a 01       	movw	r12, r20
     984:	7b 01       	movw	r14, r22
	if (sector != fs->winsect) {	/* Changed current window */
     986:	8a a5       	ldd	r24, Y+42	; 0x2a
     988:	9b a5       	ldd	r25, Y+43	; 0x2b
     98a:	ac a5       	ldd	r26, Y+44	; 0x2c
     98c:	bd a5       	ldd	r27, Y+45	; 0x2d
     98e:	48 17       	cp	r20, r24
     990:	59 07       	cpc	r21, r25
     992:	6a 07       	cpc	r22, r26
     994:	7b 07       	cpc	r23, r27
     996:	11 f4       	brne	.+4      	; 0x99c <move_window+0x2a>
     998:	80 e0       	ldi	r24, 0x00	; 0
     99a:	16 c0       	rjmp	.+44     	; 0x9c8 <move_window+0x56>
#if !_FS_READONLY
		if (sync_window(fs) != FR_OK)
     99c:	ce 01       	movw	r24, r28
     99e:	0e 94 5a 04 	call	0x8b4	; 0x8b4 <sync_window>
     9a2:	88 23       	and	r24, r24
     9a4:	81 f4       	brne	.+32     	; 0x9c6 <move_window+0x54>
			return FR_DISK_ERR;
#endif
		if (disk_read(fs->drv, fs->win, sector, 1))
     9a6:	be 01       	movw	r22, r28
     9a8:	62 5d       	subi	r22, 0xD2	; 210
     9aa:	7f 4f       	sbci	r23, 0xFF	; 255
     9ac:	89 81       	ldd	r24, Y+1	; 0x01
     9ae:	a7 01       	movw	r20, r14
     9b0:	96 01       	movw	r18, r12
     9b2:	01 e0       	ldi	r16, 0x01	; 1
     9b4:	0e 94 d4 25 	call	0x4ba8	; 0x4ba8 <disk_read>
     9b8:	88 23       	and	r24, r24
     9ba:	29 f4       	brne	.+10     	; 0x9c6 <move_window+0x54>
			return FR_DISK_ERR;
		fs->winsect = sector;
     9bc:	ca a6       	std	Y+42, r12	; 0x2a
     9be:	db a6       	std	Y+43, r13	; 0x2b
     9c0:	ec a6       	std	Y+44, r14	; 0x2c
     9c2:	fd a6       	std	Y+45, r15	; 0x2d
     9c4:	01 c0       	rjmp	.+2      	; 0x9c8 <move_window+0x56>
     9c6:	81 e0       	ldi	r24, 0x01	; 1
	}

	return FR_OK;
}
     9c8:	df 91       	pop	r29
     9ca:	cf 91       	pop	r28
     9cc:	0f 91       	pop	r16
     9ce:	ff 90       	pop	r15
     9d0:	ef 90       	pop	r14
     9d2:	df 90       	pop	r13
     9d4:	cf 90       	pop	r12
     9d6:	08 95       	ret

000009d8 <check_fs>:
static
BYTE check_fs (	/* 0:FAT boor sector, 1:Valid boor sector but not FAT, 2:Not a boot sector, 3:Disk error */
	FATFS* fs,	/* File system object */
	DWORD sect	/* Sector# (lba) to check if it is an FAT boot record or not */
)
{
     9d8:	cf 93       	push	r28
     9da:	df 93       	push	r29
     9dc:	ec 01       	movw	r28, r24
	fs->wflag = 0; fs->winsect = 0xFFFFFFFF;	/* Invaidate window */
     9de:	1c 82       	std	Y+4, r1	; 0x04
     9e0:	8f ef       	ldi	r24, 0xFF	; 255
     9e2:	9f ef       	ldi	r25, 0xFF	; 255
     9e4:	af ef       	ldi	r26, 0xFF	; 255
     9e6:	bf ef       	ldi	r27, 0xFF	; 255
     9e8:	8a a7       	std	Y+42, r24	; 0x2a
     9ea:	9b a7       	std	Y+43, r25	; 0x2b
     9ec:	ac a7       	std	Y+44, r26	; 0x2c
     9ee:	bd a7       	std	Y+45, r27	; 0x2d
	if (move_window(fs, sect) != FR_OK)			/* Load boot record */
     9f0:	ce 01       	movw	r24, r28
     9f2:	0e 94 b9 04 	call	0x972	; 0x972 <move_window>
     9f6:	88 23       	and	r24, r24
     9f8:	11 f0       	breq	.+4      	; 0x9fe <check_fs+0x26>
     9fa:	63 e0       	ldi	r22, 0x03	; 3
     9fc:	6d c0       	rjmp	.+218    	; 0xad8 <check_fs+0x100>
		return 3;

	if (LD_WORD(&fs->win[BS_55AA]) != 0xAA55)	/* Check boot record signature (always placed at offset 510 even if the sector size is >512) */
     9fe:	c3 5d       	subi	r28, 0xD3	; 211
     a00:	dd 4f       	sbci	r29, 0xFD	; 253
     a02:	98 81       	ld	r25, Y
     a04:	80 e0       	ldi	r24, 0x00	; 0
     a06:	2a 91       	ld	r18, -Y
     a08:	cc 52       	subi	r28, 0x2C	; 44
     a0a:	d2 40       	sbci	r29, 0x02	; 2
     a0c:	30 e0       	ldi	r19, 0x00	; 0
     a0e:	82 2b       	or	r24, r18
     a10:	93 2b       	or	r25, r19
     a12:	85 55       	subi	r24, 0x55	; 85
     a14:	9a 4a       	sbci	r25, 0xAA	; 170
     a16:	11 f0       	breq	.+4      	; 0xa1c <check_fs+0x44>
     a18:	62 e0       	ldi	r22, 0x02	; 2
     a1a:	5e c0       	rjmp	.+188    	; 0xad8 <check_fs+0x100>
		return 2;

	if ((LD_DWORD(&fs->win[BS_FilSysType]) & 0xFFFFFF) == 0x544146)		/* Check "FAT" string */
     a1c:	c9 59       	subi	r28, 0x99	; 153
     a1e:	df 4f       	sbci	r29, 0xFF	; 255
     a20:	28 81       	ld	r18, Y
     a22:	30 e0       	ldi	r19, 0x00	; 0
     a24:	40 e0       	ldi	r20, 0x00	; 0
     a26:	50 e0       	ldi	r21, 0x00	; 0
     a28:	52 2f       	mov	r21, r18
     a2a:	44 27       	eor	r20, r20
     a2c:	33 27       	eor	r19, r19
     a2e:	22 27       	eor	r18, r18
     a30:	8a 91       	ld	r24, -Y
     a32:	90 e0       	ldi	r25, 0x00	; 0
     a34:	a0 e0       	ldi	r26, 0x00	; 0
     a36:	b0 e0       	ldi	r27, 0x00	; 0
     a38:	dc 01       	movw	r26, r24
     a3a:	99 27       	eor	r25, r25
     a3c:	88 27       	eor	r24, r24
     a3e:	28 2b       	or	r18, r24
     a40:	39 2b       	or	r19, r25
     a42:	4a 2b       	or	r20, r26
     a44:	5b 2b       	or	r21, r27
     a46:	22 97       	sbiw	r28, 0x02	; 2
     a48:	89 91       	ld	r24, Y+
     a4a:	90 e0       	ldi	r25, 0x00	; 0
     a4c:	a0 e0       	ldi	r26, 0x00	; 0
     a4e:	b0 e0       	ldi	r27, 0x00	; 0
     a50:	28 2b       	or	r18, r24
     a52:	39 2b       	or	r19, r25
     a54:	4a 2b       	or	r20, r26
     a56:	5b 2b       	or	r21, r27
     a58:	98 81       	ld	r25, Y
     a5a:	c5 56       	subi	r28, 0x65	; 101
     a5c:	d0 40       	sbci	r29, 0x00	; 0
     a5e:	80 e0       	ldi	r24, 0x00	; 0
     a60:	a0 e0       	ldi	r26, 0x00	; 0
     a62:	b0 e0       	ldi	r27, 0x00	; 0
     a64:	28 2b       	or	r18, r24
     a66:	39 2b       	or	r19, r25
     a68:	4a 2b       	or	r20, r26
     a6a:	5b 2b       	or	r21, r27
     a6c:	50 70       	andi	r21, 0x00	; 0
     a6e:	26 54       	subi	r18, 0x46	; 70
     a70:	31 44       	sbci	r19, 0x41	; 65
     a72:	44 45       	sbci	r20, 0x54	; 84
     a74:	50 40       	sbci	r21, 0x00	; 0
     a76:	11 f4       	brne	.+4      	; 0xa7c <check_fs+0xa4>
     a78:	60 e0       	ldi	r22, 0x00	; 0
     a7a:	2e c0       	rjmp	.+92     	; 0xad8 <check_fs+0x100>
     a7c:	60 e0       	ldi	r22, 0x00	; 0
     a7e:	cd 57       	subi	r28, 0x7D	; 125
     a80:	df 4f       	sbci	r29, 0xFF	; 255
     a82:	28 81       	ld	r18, Y
     a84:	30 e0       	ldi	r19, 0x00	; 0
     a86:	40 e0       	ldi	r20, 0x00	; 0
     a88:	50 e0       	ldi	r21, 0x00	; 0
     a8a:	52 2f       	mov	r21, r18
     a8c:	44 27       	eor	r20, r20
     a8e:	33 27       	eor	r19, r19
     a90:	22 27       	eor	r18, r18
     a92:	8a 91       	ld	r24, -Y
     a94:	90 e0       	ldi	r25, 0x00	; 0
     a96:	a0 e0       	ldi	r26, 0x00	; 0
     a98:	b0 e0       	ldi	r27, 0x00	; 0
     a9a:	dc 01       	movw	r26, r24
     a9c:	99 27       	eor	r25, r25
     a9e:	88 27       	eor	r24, r24
     aa0:	28 2b       	or	r18, r24
     aa2:	39 2b       	or	r19, r25
     aa4:	4a 2b       	or	r20, r26
     aa6:	5b 2b       	or	r21, r27
     aa8:	22 97       	sbiw	r28, 0x02	; 2
     aaa:	89 91       	ld	r24, Y+
     aac:	90 e0       	ldi	r25, 0x00	; 0
     aae:	a0 e0       	ldi	r26, 0x00	; 0
     ab0:	b0 e0       	ldi	r27, 0x00	; 0
     ab2:	28 2b       	or	r18, r24
     ab4:	39 2b       	or	r19, r25
     ab6:	4a 2b       	or	r20, r26
     ab8:	5b 2b       	or	r21, r27
     aba:	98 81       	ld	r25, Y
     abc:	80 e0       	ldi	r24, 0x00	; 0
     abe:	a0 e0       	ldi	r26, 0x00	; 0
     ac0:	b0 e0       	ldi	r27, 0x00	; 0
     ac2:	28 2b       	or	r18, r24
     ac4:	39 2b       	or	r19, r25
     ac6:	4a 2b       	or	r20, r26
     ac8:	5b 2b       	or	r21, r27
     aca:	50 70       	andi	r21, 0x00	; 0
     acc:	26 54       	subi	r18, 0x46	; 70
     ace:	31 44       	sbci	r19, 0x41	; 65
     ad0:	44 45       	sbci	r20, 0x54	; 84
     ad2:	50 40       	sbci	r21, 0x00	; 0
     ad4:	09 f0       	breq	.+2      	; 0xad8 <check_fs+0x100>
     ad6:	61 e0       	ldi	r22, 0x01	; 1
		return 0;
	if ((LD_DWORD(&fs->win[BS_FilSysType32]) & 0xFFFFFF) == 0x544146)	/* Check "FAT" string */
		return 0;

	return 1;
}
     ad8:	86 2f       	mov	r24, r22
     ada:	df 91       	pop	r29
     adc:	cf 91       	pop	r28
     ade:	08 95       	ret

00000ae0 <find_volume>:
FRESULT find_volume (	/* FR_OK(0): successful, !=0: any error occurred */
	FATFS** rfs,		/* Pointer to pointer to the found file system object */
	const TCHAR** path,	/* Pointer to pointer to the path name (drive number) */
	BYTE wmode			/* !=0: Check write protection for write access */
)
{
     ae0:	4f 92       	push	r4
     ae2:	5f 92       	push	r5
     ae4:	6f 92       	push	r6
     ae6:	7f 92       	push	r7
     ae8:	8f 92       	push	r8
     aea:	9f 92       	push	r9
     aec:	af 92       	push	r10
     aee:	bf 92       	push	r11
     af0:	cf 92       	push	r12
     af2:	df 92       	push	r13
     af4:	ef 92       	push	r14
     af6:	ff 92       	push	r15
     af8:	0f 93       	push	r16
     afa:	1f 93       	push	r17
     afc:	df 93       	push	r29
     afe:	cf 93       	push	r28
     b00:	cd b7       	in	r28, 0x3d	; 61
     b02:	de b7       	in	r29, 0x3e	; 62
     b04:	6c 97       	sbiw	r28, 0x1c	; 28
     b06:	0f b6       	in	r0, 0x3f	; 63
     b08:	f8 94       	cli
     b0a:	de bf       	out	0x3e, r29	; 62
     b0c:	0f be       	out	0x3f, r0	; 63
     b0e:	cd bf       	out	0x3d, r28	; 61
     b10:	6c 01       	movw	r12, r24
     b12:	cb 01       	movw	r24, r22
     b14:	b4 2e       	mov	r11, r20
	WORD nrsv;
	FATFS *fs;


	/* Get logical drive number from the path name */
	*rfs = 0;
     b16:	d6 01       	movw	r26, r12
     b18:	1d 92       	st	X+, r1
     b1a:	1c 92       	st	X, r1
	vol = get_ldnumber(path);
     b1c:	0e 94 04 04 	call	0x808	; 0x808 <get_ldnumber>
     b20:	7c 01       	movw	r14, r24
	if (vol < 0) return FR_INVALID_DRIVE;
     b22:	97 ff       	sbrs	r25, 7
     b24:	02 c0       	rjmp	.+4      	; 0xb2a <find_volume+0x4a>
     b26:	8b e0       	ldi	r24, 0x0B	; 11
     b28:	da c3       	rjmp	.+1972   	; 0x12de <find_volume+0x7fe>

	/* Check if the file system object is valid or not */
	fs = FatFs[vol];					/* Get pointer to the file system object */
     b2a:	fc 01       	movw	r30, r24
     b2c:	ee 0f       	add	r30, r30
     b2e:	ff 1f       	adc	r31, r31
     b30:	e1 5e       	subi	r30, 0xE1	; 225
     b32:	fd 4f       	sbci	r31, 0xFD	; 253
     b34:	00 81       	ld	r16, Z
     b36:	11 81       	ldd	r17, Z+1	; 0x01
	if (!fs) return FR_NOT_ENABLED;		/* Is the file system object available? */
     b38:	01 15       	cp	r16, r1
     b3a:	11 05       	cpc	r17, r1
     b3c:	11 f4       	brne	.+4      	; 0xb42 <find_volume+0x62>
     b3e:	8c e0       	ldi	r24, 0x0C	; 12
     b40:	ce c3       	rjmp	.+1948   	; 0x12de <find_volume+0x7fe>

	ENTER_FF(fs);						/* Lock the volume */
	*rfs = fs;							/* Return pointer to the file system object */
     b42:	f6 01       	movw	r30, r12
     b44:	11 83       	std	Z+1, r17	; 0x01
     b46:	00 83       	st	Z, r16

	if (fs->fs_type) {					/* If the volume has been mounted */
     b48:	d8 01       	movw	r26, r16
     b4a:	8c 91       	ld	r24, X
     b4c:	88 23       	and	r24, r24
     b4e:	61 f0       	breq	.+24     	; 0xb68 <find_volume+0x88>
		stat = disk_status(fs->drv);
     b50:	11 96       	adiw	r26, 0x01	; 1
     b52:	8c 91       	ld	r24, X
     b54:	0e 94 f2 23 	call	0x47e4	; 0x47e4 <disk_status>
		if (!(stat & STA_NOINIT)) {		/* and the physical drive is kept initialized */
     b58:	80 fd       	sbrc	r24, 0
     b5a:	06 c0       	rjmp	.+12     	; 0xb68 <find_volume+0x88>
			if (!_FS_READONLY && wmode && (stat & STA_PROTECT))	/* Check write protection if needed */
     b5c:	bb 20       	and	r11, r11
     b5e:	09 f4       	brne	.+2      	; 0xb62 <find_volume+0x82>
     b60:	bb c3       	rjmp	.+1910   	; 0x12d8 <find_volume+0x7f8>
     b62:	82 fd       	sbrc	r24, 2
     b64:	b7 c3       	rjmp	.+1902   	; 0x12d4 <find_volume+0x7f4>
     b66:	b8 c3       	rjmp	.+1904   	; 0x12d8 <find_volume+0x7f8>
	}

	/* The file system object is not valid. */
	/* Following code attempts to mount the volume. (analyze BPB and initialize the fs object) */

	fs->fs_type = 0;					/* Clear the file system object */
     b68:	f8 01       	movw	r30, r16
     b6a:	10 82       	st	Z, r1
	fs->drv = LD2PD(vol);				/* Bind the logical drive and a physical drive */
     b6c:	e1 82       	std	Z+1, r14	; 0x01
	stat = disk_initialize(fs->drv);	/* Initialize the physical drive */
     b6e:	8e 2d       	mov	r24, r14
     b70:	0e 94 d7 26 	call	0x4dae	; 0x4dae <disk_initialize>
	if (stat & STA_NOINIT)				/* Check if the initialization succeeded */
     b74:	80 ff       	sbrs	r24, 0
     b76:	02 c0       	rjmp	.+4      	; 0xb7c <find_volume+0x9c>
     b78:	83 e0       	ldi	r24, 0x03	; 3
     b7a:	b1 c3       	rjmp	.+1890   	; 0x12de <find_volume+0x7fe>
		return FR_NOT_READY;			/* Failed to initialize due to no medium or hard error */
	if (!_FS_READONLY && wmode && (stat & STA_PROTECT))	/* Check disk write protection if needed */
     b7c:	bb 20       	and	r11, r11
     b7e:	11 f0       	breq	.+4      	; 0xb84 <find_volume+0xa4>
     b80:	82 fd       	sbrc	r24, 2
     b82:	a8 c3       	rjmp	.+1872   	; 0x12d4 <find_volume+0x7f4>
	if (disk_ioctl(fs->drv, GET_SECTOR_SIZE, &SS(fs)) != RES_OK
		|| SS(fs) < _MIN_SS || SS(fs) > _MAX_SS) return FR_DISK_ERR;
#endif
	/* Find an FAT partition on the drive. Supports only generic partitioning, FDISK and SFD. */
	bsect = 0;
	fmt = check_fs(fs, bsect);					/* Load sector 0 and check if it is an FAT boot sector as SFD */
     b84:	c8 01       	movw	r24, r16
     b86:	40 e0       	ldi	r20, 0x00	; 0
     b88:	50 e0       	ldi	r21, 0x00	; 0
     b8a:	60 e0       	ldi	r22, 0x00	; 0
     b8c:	70 e0       	ldi	r23, 0x00	; 0
     b8e:	0e 94 ec 04 	call	0x9d8	; 0x9d8 <check_fs>
	if (fmt == 1 || (!fmt && (LD2PT(vol)))) {	/* Not an FAT boot sector or forced partition number */
     b92:	81 30       	cpi	r24, 0x01	; 1
     b94:	29 f0       	breq	.+10     	; 0xba0 <find_volume+0xc0>
     b96:	1d 8a       	std	Y+21, r1	; 0x15
     b98:	1e 8a       	std	Y+22, r1	; 0x16
     b9a:	1f 8a       	std	Y+23, r1	; 0x17
     b9c:	18 8e       	std	Y+24, r1	; 0x18
     b9e:	6b c0       	rjmp	.+214    	; 0xc76 <find_volume+0x196>
     ba0:	6e 01       	movw	r12, r28
     ba2:	08 94       	sec
     ba4:	c1 1c       	adc	r12, r1
     ba6:	d1 1c       	adc	r13, r1
     ba8:	56 01       	movw	r10, r12
     baa:	6e eb       	ldi	r22, 0xBE	; 190
     bac:	71 e0       	ldi	r23, 0x01	; 1
		UINT i;
		DWORD br[4];

		for (i = 0; i < 4; i++) {			/* Get partition offset */
			BYTE *pt = fs->win+MBR_Table + i * SZ_PTE;
     bae:	62 5d       	subi	r22, 0xD2	; 210
     bb0:	7f 4f       	sbci	r23, 0xFF	; 255
     bb2:	f8 01       	movw	r30, r16
     bb4:	e6 0f       	add	r30, r22
     bb6:	f7 1f       	adc	r31, r23
     bb8:	6e 52       	subi	r22, 0x2E	; 46
     bba:	70 40       	sbci	r23, 0x00	; 0
			br[i] = pt[4] ? LD_DWORD(&pt[8]) : 0;
     bbc:	84 81       	ldd	r24, Z+4	; 0x04
     bbe:	88 23       	and	r24, r24
     bc0:	29 f4       	brne	.+10     	; 0xbcc <find_volume+0xec>
     bc2:	20 e0       	ldi	r18, 0x00	; 0
     bc4:	30 e0       	ldi	r19, 0x00	; 0
     bc6:	40 e0       	ldi	r20, 0x00	; 0
     bc8:	50 e0       	ldi	r21, 0x00	; 0
     bca:	24 c0       	rjmp	.+72     	; 0xc14 <find_volume+0x134>
     bcc:	83 85       	ldd	r24, Z+11	; 0x0b
     bce:	90 e0       	ldi	r25, 0x00	; 0
     bd0:	a0 e0       	ldi	r26, 0x00	; 0
     bd2:	b0 e0       	ldi	r27, 0x00	; 0
     bd4:	58 2f       	mov	r21, r24
     bd6:	44 27       	eor	r20, r20
     bd8:	33 27       	eor	r19, r19
     bda:	22 27       	eor	r18, r18
     bdc:	82 85       	ldd	r24, Z+10	; 0x0a
     bde:	90 e0       	ldi	r25, 0x00	; 0
     be0:	a0 e0       	ldi	r26, 0x00	; 0
     be2:	b0 e0       	ldi	r27, 0x00	; 0
     be4:	dc 01       	movw	r26, r24
     be6:	99 27       	eor	r25, r25
     be8:	88 27       	eor	r24, r24
     bea:	28 2b       	or	r18, r24
     bec:	39 2b       	or	r19, r25
     bee:	4a 2b       	or	r20, r26
     bf0:	5b 2b       	or	r21, r27
     bf2:	80 85       	ldd	r24, Z+8	; 0x08
     bf4:	90 e0       	ldi	r25, 0x00	; 0
     bf6:	a0 e0       	ldi	r26, 0x00	; 0
     bf8:	b0 e0       	ldi	r27, 0x00	; 0
     bfa:	28 2b       	or	r18, r24
     bfc:	39 2b       	or	r19, r25
     bfe:	4a 2b       	or	r20, r26
     c00:	5b 2b       	or	r21, r27
     c02:	f1 84       	ldd	r15, Z+9	; 0x09
     c04:	ee 24       	eor	r14, r14
     c06:	c7 01       	movw	r24, r14
     c08:	a0 e0       	ldi	r26, 0x00	; 0
     c0a:	b0 e0       	ldi	r27, 0x00	; 0
     c0c:	28 2b       	or	r18, r24
     c0e:	39 2b       	or	r19, r25
     c10:	4a 2b       	or	r20, r26
     c12:	5b 2b       	or	r21, r27
     c14:	d5 01       	movw	r26, r10
     c16:	2d 93       	st	X+, r18
     c18:	3d 93       	st	X+, r19
     c1a:	4d 93       	st	X+, r20
     c1c:	5d 93       	st	X+, r21
     c1e:	5d 01       	movw	r10, r26
     c20:	60 5f       	subi	r22, 0xF0	; 240
     c22:	7f 4f       	sbci	r23, 0xFF	; 255
	fmt = check_fs(fs, bsect);					/* Load sector 0 and check if it is an FAT boot sector as SFD */
	if (fmt == 1 || (!fmt && (LD2PT(vol)))) {	/* Not an FAT boot sector or forced partition number */
		UINT i;
		DWORD br[4];

		for (i = 0; i < 4; i++) {			/* Get partition offset */
     c24:	b1 e0       	ldi	r27, 0x01	; 1
     c26:	6e 3f       	cpi	r22, 0xFE	; 254
     c28:	7b 07       	cpc	r23, r27
     c2a:	09 f6       	brne	.-126    	; 0xbae <find_volume+0xce>
		i = LD2PT(vol);						/* Partition number: 0:auto, 1-4:forced */
		if (i) i--;
		do {								/* Find an FAT volume */
			bsect = br[i];
			fmt = bsect ? check_fs(fs, bsect) : 2;	/* Check the partition */
		} while (!LD2PT(vol) && fmt && ++i < 4);
     c2c:	f1 e1       	ldi	r31, 0x11	; 17
     c2e:	ef 2e       	mov	r14, r31
     c30:	f1 2c       	mov	r15, r1
     c32:	ec 0e       	add	r14, r28
     c34:	fd 1e       	adc	r15, r29
			br[i] = pt[4] ? LD_DWORD(&pt[8]) : 0;
		}
		i = LD2PT(vol);						/* Partition number: 0:auto, 1-4:forced */
		if (i) i--;
		do {								/* Find an FAT volume */
			bsect = br[i];
     c36:	d6 01       	movw	r26, r12
     c38:	8d 91       	ld	r24, X+
     c3a:	9d 91       	ld	r25, X+
     c3c:	0d 90       	ld	r0, X+
     c3e:	bc 91       	ld	r27, X
     c40:	a0 2d       	mov	r26, r0
     c42:	8d 8b       	std	Y+21, r24	; 0x15
     c44:	9e 8b       	std	Y+22, r25	; 0x16
     c46:	af 8b       	std	Y+23, r26	; 0x17
     c48:	b8 8f       	std	Y+24, r27	; 0x18
			fmt = bsect ? check_fs(fs, bsect) : 2;	/* Check the partition */
     c4a:	00 97       	sbiw	r24, 0x00	; 0
     c4c:	a1 05       	cpc	r26, r1
     c4e:	b1 05       	cpc	r27, r1
     c50:	11 f4       	brne	.+4      	; 0xc56 <find_volume+0x176>
     c52:	82 e0       	ldi	r24, 0x02	; 2
     c54:	09 c0       	rjmp	.+18     	; 0xc68 <find_volume+0x188>
     c56:	c8 01       	movw	r24, r16
     c58:	4d 89       	ldd	r20, Y+21	; 0x15
     c5a:	5e 89       	ldd	r21, Y+22	; 0x16
     c5c:	6f 89       	ldd	r22, Y+23	; 0x17
     c5e:	78 8d       	ldd	r23, Y+24	; 0x18
     c60:	0e 94 ec 04 	call	0x9d8	; 0x9d8 <check_fs>
		} while (!LD2PT(vol) && fmt && ++i < 4);
     c64:	88 23       	and	r24, r24
     c66:	71 f0       	breq	.+28     	; 0xc84 <find_volume+0x1a4>
     c68:	e4 e0       	ldi	r30, 0x04	; 4
     c6a:	f0 e0       	ldi	r31, 0x00	; 0
     c6c:	ce 0e       	add	r12, r30
     c6e:	df 1e       	adc	r13, r31
     c70:	ce 14       	cp	r12, r14
     c72:	df 04       	cpc	r13, r15
     c74:	01 f7       	brne	.-64     	; 0xc36 <find_volume+0x156>
	}
	if (fmt == 3) return FR_DISK_ERR;		/* An error occured in the disk I/O layer */
     c76:	83 30       	cpi	r24, 0x03	; 3
     c78:	11 f4       	brne	.+4      	; 0xc7e <find_volume+0x19e>
     c7a:	81 e0       	ldi	r24, 0x01	; 1
     c7c:	30 c3       	rjmp	.+1632   	; 0x12de <find_volume+0x7fe>
	if (fmt) return FR_NO_FILESYSTEM;		/* No FAT volume is found */
     c7e:	88 23       	and	r24, r24
     c80:	09 f0       	breq	.+2      	; 0xc84 <find_volume+0x1a4>
     c82:	2c c3       	rjmp	.+1624   	; 0x12dc <find_volume+0x7fc>

	/* An FAT volume is found. Following code initializes the file system object */

	if (LD_WORD(fs->win+BPB_BytsPerSec) != SS(fs))		/* (BPB_BytsPerSec must be equal to the physical sector size) */
     c84:	d8 01       	movw	r26, r16
     c86:	da 96       	adiw	r26, 0x3a	; 58
     c88:	9c 91       	ld	r25, X
     c8a:	da 97       	sbiw	r26, 0x3a	; 58
     c8c:	80 e0       	ldi	r24, 0x00	; 0
     c8e:	d9 96       	adiw	r26, 0x39	; 57
     c90:	2c 91       	ld	r18, X
     c92:	30 e0       	ldi	r19, 0x00	; 0
     c94:	82 2b       	or	r24, r18
     c96:	93 2b       	or	r25, r19
     c98:	80 50       	subi	r24, 0x00	; 0
     c9a:	92 40       	sbci	r25, 0x02	; 2
     c9c:	09 f0       	breq	.+2      	; 0xca0 <find_volume+0x1c0>
     c9e:	1e c3       	rjmp	.+1596   	; 0x12dc <find_volume+0x7fc>
		return FR_NO_FILESYSTEM;

	fasize = LD_WORD(fs->win+BPB_FATSz16);				/* Number of sectors per FAT */
     ca0:	0b 5b       	subi	r16, 0xBB	; 187
     ca2:	1f 4f       	sbci	r17, 0xFF	; 255
     ca4:	f8 01       	movw	r30, r16
     ca6:	90 81       	ld	r25, Z
     ca8:	80 e0       	ldi	r24, 0x00	; 0
     caa:	d8 01       	movw	r26, r16
     cac:	2e 91       	ld	r18, -X
     cae:	8d 01       	movw	r16, r26
     cb0:	04 54       	subi	r16, 0x44	; 68
     cb2:	10 40       	sbci	r17, 0x00	; 0
     cb4:	30 e0       	ldi	r19, 0x00	; 0
     cb6:	82 2b       	or	r24, r18
     cb8:	93 2b       	or	r25, r19
     cba:	3c 01       	movw	r6, r24
     cbc:	88 24       	eor	r8, r8
     cbe:	99 24       	eor	r9, r9
	if (!fasize) fasize = LD_DWORD(fs->win+BPB_FATSz32);
     cc0:	61 14       	cp	r6, r1
     cc2:	71 04       	cpc	r7, r1
     cc4:	81 04       	cpc	r8, r1
     cc6:	91 04       	cpc	r9, r1
     cc8:	71 f5       	brne	.+92     	; 0xd26 <find_volume+0x246>
     cca:	0b 5a       	subi	r16, 0xAB	; 171
     ccc:	1f 4f       	sbci	r17, 0xFF	; 255
     cce:	f8 01       	movw	r30, r16
     cd0:	80 81       	ld	r24, Z
     cd2:	90 e0       	ldi	r25, 0x00	; 0
     cd4:	a0 e0       	ldi	r26, 0x00	; 0
     cd6:	b0 e0       	ldi	r27, 0x00	; 0
     cd8:	98 2e       	mov	r9, r24
     cda:	88 24       	eor	r8, r8
     cdc:	77 24       	eor	r7, r7
     cde:	66 24       	eor	r6, r6
     ce0:	d8 01       	movw	r26, r16
     ce2:	8e 91       	ld	r24, -X
     ce4:	8d 01       	movw	r16, r26
     ce6:	90 e0       	ldi	r25, 0x00	; 0
     ce8:	a0 e0       	ldi	r26, 0x00	; 0
     cea:	b0 e0       	ldi	r27, 0x00	; 0
     cec:	dc 01       	movw	r26, r24
     cee:	99 27       	eor	r25, r25
     cf0:	88 27       	eor	r24, r24
     cf2:	68 2a       	or	r6, r24
     cf4:	79 2a       	or	r7, r25
     cf6:	8a 2a       	or	r8, r26
     cf8:	9b 2a       	or	r9, r27
     cfa:	02 50       	subi	r16, 0x02	; 2
     cfc:	10 40       	sbci	r17, 0x00	; 0
     cfe:	f8 01       	movw	r30, r16
     d00:	81 91       	ld	r24, Z+
     d02:	8f 01       	movw	r16, r30
     d04:	90 e0       	ldi	r25, 0x00	; 0
     d06:	a0 e0       	ldi	r26, 0x00	; 0
     d08:	b0 e0       	ldi	r27, 0x00	; 0
     d0a:	68 2a       	or	r6, r24
     d0c:	79 2a       	or	r7, r25
     d0e:	8a 2a       	or	r8, r26
     d10:	9b 2a       	or	r9, r27
     d12:	90 81       	ld	r25, Z
     d14:	03 55       	subi	r16, 0x53	; 83
     d16:	10 40       	sbci	r17, 0x00	; 0
     d18:	80 e0       	ldi	r24, 0x00	; 0
     d1a:	a0 e0       	ldi	r26, 0x00	; 0
     d1c:	b0 e0       	ldi	r27, 0x00	; 0
     d1e:	68 2a       	or	r6, r24
     d20:	79 2a       	or	r7, r25
     d22:	8a 2a       	or	r8, r26
     d24:	9b 2a       	or	r9, r27
	fs->fsize = fasize;
     d26:	d8 01       	movw	r26, r16
     d28:	56 96       	adiw	r26, 0x16	; 22
     d2a:	6d 92       	st	X+, r6
     d2c:	7d 92       	st	X+, r7
     d2e:	8d 92       	st	X+, r8
     d30:	9c 92       	st	X, r9
     d32:	59 97       	sbiw	r26, 0x19	; 25

	fs->n_fats = fs->win[BPB_NumFATs];					/* Number of FAT copies */
     d34:	de 96       	adiw	r26, 0x3e	; 62
     d36:	4c 91       	ld	r20, X
     d38:	de 97       	sbiw	r26, 0x3e	; 62
     d3a:	13 96       	adiw	r26, 0x03	; 3
     d3c:	4c 93       	st	X, r20
     d3e:	13 97       	sbiw	r26, 0x03	; 3
	if (fs->n_fats != 1 && fs->n_fats != 2)				/* (Must be 1 or 2) */
     d40:	84 2f       	mov	r24, r20
     d42:	81 50       	subi	r24, 0x01	; 1
     d44:	82 30       	cpi	r24, 0x02	; 2
     d46:	08 f0       	brcs	.+2      	; 0xd4a <find_volume+0x26a>
     d48:	c9 c2       	rjmp	.+1426   	; 0x12dc <find_volume+0x7fc>
		return FR_NO_FILESYSTEM;
	fasize *= fs->n_fats;								/* Number of sectors for FAT area */

	fs->csize = fs->win[BPB_SecPerClus];				/* Number of sectors per cluster */
     d4a:	db 96       	adiw	r26, 0x3b	; 59
     d4c:	2c 91       	ld	r18, X
     d4e:	db 97       	sbiw	r26, 0x3b	; 59
     d50:	12 96       	adiw	r26, 0x02	; 2
     d52:	2c 93       	st	X, r18
	if (!fs->csize || (fs->csize & (fs->csize - 1)))	/* (Must be power of 2) */
     d54:	22 23       	and	r18, r18
     d56:	09 f4       	brne	.+2      	; 0xd5a <find_volume+0x27a>
     d58:	c1 c2       	rjmp	.+1410   	; 0x12dc <find_volume+0x7fc>
     d5a:	30 e0       	ldi	r19, 0x00	; 0
     d5c:	c9 01       	movw	r24, r18
     d5e:	01 97       	sbiw	r24, 0x01	; 1
     d60:	82 23       	and	r24, r18
     d62:	93 23       	and	r25, r19
     d64:	89 2b       	or	r24, r25
     d66:	09 f0       	breq	.+2      	; 0xd6a <find_volume+0x28a>
     d68:	b9 c2       	rjmp	.+1394   	; 0x12dc <find_volume+0x7fc>
		return FR_NO_FILESYSTEM;

	fs->n_rootdir = LD_WORD(fs->win+BPB_RootEntCnt);	/* Number of root directory entries */
     d6a:	00 5c       	subi	r16, 0xC0	; 192
     d6c:	1f 4f       	sbci	r17, 0xFF	; 255
     d6e:	f8 01       	movw	r30, r16
     d70:	90 81       	ld	r25, Z
     d72:	00 54       	subi	r16, 0x40	; 64
     d74:	10 40       	sbci	r17, 0x00	; 0
     d76:	80 e0       	ldi	r24, 0x00	; 0
     d78:	d8 01       	movw	r26, r16
     d7a:	df 96       	adiw	r26, 0x3f	; 63
     d7c:	2c 91       	ld	r18, X
     d7e:	df 97       	sbiw	r26, 0x3f	; 63
     d80:	42 2e       	mov	r4, r18
     d82:	55 24       	eor	r5, r5
     d84:	48 2a       	or	r4, r24
     d86:	59 2a       	or	r5, r25
     d88:	19 96       	adiw	r26, 0x09	; 9
     d8a:	5c 92       	st	X, r5
     d8c:	4e 92       	st	-X, r4
     d8e:	18 97       	sbiw	r26, 0x08	; 8
	if (fs->n_rootdir % (SS(fs) / SZ_DIR))				/* (Must be sector aligned) */
     d90:	c2 01       	movw	r24, r4
     d92:	8f 70       	andi	r24, 0x0F	; 15
     d94:	90 70       	andi	r25, 0x00	; 0
     d96:	89 2b       	or	r24, r25
     d98:	09 f0       	breq	.+2      	; 0xd9c <find_volume+0x2bc>
     d9a:	a0 c2       	rjmp	.+1344   	; 0x12dc <find_volume+0x7fc>
		return FR_NO_FILESYSTEM;

	tsect = LD_WORD(fs->win+BPB_TotSec16);				/* Number of sectors on the volume */
     d9c:	0e 5b       	subi	r16, 0xBE	; 190
     d9e:	1f 4f       	sbci	r17, 0xFF	; 255
     da0:	f8 01       	movw	r30, r16
     da2:	90 81       	ld	r25, Z
     da4:	80 e0       	ldi	r24, 0x00	; 0
     da6:	d8 01       	movw	r26, r16
     da8:	2e 91       	ld	r18, -X
     daa:	8d 01       	movw	r16, r26
     dac:	01 54       	subi	r16, 0x41	; 65
     dae:	10 40       	sbci	r17, 0x00	; 0
     db0:	30 e0       	ldi	r19, 0x00	; 0
     db2:	82 2b       	or	r24, r18
     db4:	93 2b       	or	r25, r19
     db6:	6c 01       	movw	r12, r24
     db8:	ee 24       	eor	r14, r14
     dba:	ff 24       	eor	r15, r15
	if (!tsect) tsect = LD_DWORD(fs->win+BPB_TotSec32);
     dbc:	c1 14       	cp	r12, r1
     dbe:	d1 04       	cpc	r13, r1
     dc0:	e1 04       	cpc	r14, r1
     dc2:	f1 04       	cpc	r15, r1
     dc4:	71 f5       	brne	.+92     	; 0xe22 <find_volume+0x342>
     dc6:	0f 5a       	subi	r16, 0xAF	; 175
     dc8:	1f 4f       	sbci	r17, 0xFF	; 255
     dca:	f8 01       	movw	r30, r16
     dcc:	80 81       	ld	r24, Z
     dce:	90 e0       	ldi	r25, 0x00	; 0
     dd0:	a0 e0       	ldi	r26, 0x00	; 0
     dd2:	b0 e0       	ldi	r27, 0x00	; 0
     dd4:	f8 2e       	mov	r15, r24
     dd6:	ee 24       	eor	r14, r14
     dd8:	dd 24       	eor	r13, r13
     dda:	cc 24       	eor	r12, r12
     ddc:	d8 01       	movw	r26, r16
     dde:	8e 91       	ld	r24, -X
     de0:	8d 01       	movw	r16, r26
     de2:	90 e0       	ldi	r25, 0x00	; 0
     de4:	a0 e0       	ldi	r26, 0x00	; 0
     de6:	b0 e0       	ldi	r27, 0x00	; 0
     de8:	dc 01       	movw	r26, r24
     dea:	99 27       	eor	r25, r25
     dec:	88 27       	eor	r24, r24
     dee:	c8 2a       	or	r12, r24
     df0:	d9 2a       	or	r13, r25
     df2:	ea 2a       	or	r14, r26
     df4:	fb 2a       	or	r15, r27
     df6:	02 50       	subi	r16, 0x02	; 2
     df8:	10 40       	sbci	r17, 0x00	; 0
     dfa:	f8 01       	movw	r30, r16
     dfc:	81 91       	ld	r24, Z+
     dfe:	8f 01       	movw	r16, r30
     e00:	90 e0       	ldi	r25, 0x00	; 0
     e02:	a0 e0       	ldi	r26, 0x00	; 0
     e04:	b0 e0       	ldi	r27, 0x00	; 0
     e06:	c8 2a       	or	r12, r24
     e08:	d9 2a       	or	r13, r25
     e0a:	ea 2a       	or	r14, r26
     e0c:	fb 2a       	or	r15, r27
     e0e:	90 81       	ld	r25, Z
     e10:	0f 54       	subi	r16, 0x4F	; 79
     e12:	10 40       	sbci	r17, 0x00	; 0
     e14:	80 e0       	ldi	r24, 0x00	; 0
     e16:	a0 e0       	ldi	r26, 0x00	; 0
     e18:	b0 e0       	ldi	r27, 0x00	; 0
     e1a:	c8 2a       	or	r12, r24
     e1c:	d9 2a       	or	r13, r25
     e1e:	ea 2a       	or	r14, r26
     e20:	fb 2a       	or	r15, r27

	nrsv = LD_WORD(fs->win+BPB_RsvdSecCnt);				/* Number of reserved sectors */
     e22:	d8 01       	movw	r26, r16
     e24:	dd 96       	adiw	r26, 0x3d	; 61
     e26:	9c 91       	ld	r25, X
     e28:	dd 97       	sbiw	r26, 0x3d	; 61
     e2a:	80 e0       	ldi	r24, 0x00	; 0
     e2c:	dc 96       	adiw	r26, 0x3c	; 60
     e2e:	2c 91       	ld	r18, X
     e30:	a2 2e       	mov	r10, r18
     e32:	bb 24       	eor	r11, r11
     e34:	a8 2a       	or	r10, r24
     e36:	b9 2a       	or	r11, r25
	if (!nrsv) return FR_NO_FILESYSTEM;					/* (Must not be 0) */
     e38:	a1 14       	cp	r10, r1
     e3a:	b1 04       	cpc	r11, r1
     e3c:	09 f4       	brne	.+2      	; 0xe40 <find_volume+0x360>
     e3e:	4e c2       	rjmp	.+1180   	; 0x12dc <find_volume+0x7fc>
	fs->fsize = fasize;

	fs->n_fats = fs->win[BPB_NumFATs];					/* Number of FAT copies */
	if (fs->n_fats != 1 && fs->n_fats != 2)				/* (Must be 1 or 2) */
		return FR_NO_FILESYSTEM;
	fasize *= fs->n_fats;								/* Number of sectors for FAT area */
     e40:	24 2f       	mov	r18, r20
     e42:	30 e0       	ldi	r19, 0x00	; 0
     e44:	40 e0       	ldi	r20, 0x00	; 0
     e46:	50 e0       	ldi	r21, 0x00	; 0
     e48:	c4 01       	movw	r24, r8
     e4a:	b3 01       	movw	r22, r6
     e4c:	0e 94 ba 27 	call	0x4f74	; 0x4f74 <__mulsi3>
     e50:	69 8b       	std	Y+17, r22	; 0x11
     e52:	7a 8b       	std	Y+18, r23	; 0x12
     e54:	8b 8b       	std	Y+19, r24	; 0x13
     e56:	9c 8b       	std	Y+20, r25	; 0x14

	nrsv = LD_WORD(fs->win+BPB_RsvdSecCnt);				/* Number of reserved sectors */
	if (!nrsv) return FR_NO_FILESYSTEM;					/* (Must not be 0) */

	/* Determine the FAT sub type */
	sysect = nrsv + fasize + fs->n_rootdir / (SS(fs) / SZ_DIR);	/* RSV+FAT+DIR */
     e58:	c5 01       	movw	r24, r10
     e5a:	a0 e0       	ldi	r26, 0x00	; 0
     e5c:	b0 e0       	ldi	r27, 0x00	; 0
     e5e:	89 8f       	std	Y+25, r24	; 0x19
     e60:	9a 8f       	std	Y+26, r25	; 0x1a
     e62:	ab 8f       	std	Y+27, r26	; 0x1b
     e64:	bc 8f       	std	Y+28, r27	; 0x1c
     e66:	44 e0       	ldi	r20, 0x04	; 4
     e68:	56 94       	lsr	r5
     e6a:	47 94       	ror	r4
     e6c:	4a 95       	dec	r20
     e6e:	e1 f7       	brne	.-8      	; 0xe68 <find_volume+0x388>
     e70:	42 01       	movw	r8, r4
     e72:	aa 24       	eor	r10, r10
     e74:	bb 24       	eor	r11, r11
     e76:	88 0e       	add	r8, r24
     e78:	99 1e       	adc	r9, r25
     e7a:	aa 1e       	adc	r10, r26
     e7c:	bb 1e       	adc	r11, r27
     e7e:	89 89       	ldd	r24, Y+17	; 0x11
     e80:	9a 89       	ldd	r25, Y+18	; 0x12
     e82:	ab 89       	ldd	r26, Y+19	; 0x13
     e84:	bc 89       	ldd	r27, Y+20	; 0x14
     e86:	88 0e       	add	r8, r24
     e88:	99 1e       	adc	r9, r25
     e8a:	aa 1e       	adc	r10, r26
     e8c:	bb 1e       	adc	r11, r27
	if (tsect < sysect) return FR_NO_FILESYSTEM;		/* (Invalid volume size) */
     e8e:	c8 14       	cp	r12, r8
     e90:	d9 04       	cpc	r13, r9
     e92:	ea 04       	cpc	r14, r10
     e94:	fb 04       	cpc	r15, r11
     e96:	08 f4       	brcc	.+2      	; 0xe9a <find_volume+0x3ba>
     e98:	21 c2       	rjmp	.+1090   	; 0x12dc <find_volume+0x7fc>
	nclst = (tsect - sysect) / fs->csize;				/* Number of clusters */
     e9a:	c8 18       	sub	r12, r8
     e9c:	d9 08       	sbc	r13, r9
     e9e:	ea 08       	sbc	r14, r10
     ea0:	fb 08       	sbc	r15, r11
     ea2:	d8 01       	movw	r26, r16
     ea4:	12 96       	adiw	r26, 0x02	; 2
     ea6:	2c 91       	ld	r18, X
     ea8:	30 e0       	ldi	r19, 0x00	; 0
     eaa:	40 e0       	ldi	r20, 0x00	; 0
     eac:	50 e0       	ldi	r21, 0x00	; 0
     eae:	c7 01       	movw	r24, r14
     eb0:	b6 01       	movw	r22, r12
     eb2:	0e 94 d9 27 	call	0x4fb2	; 0x4fb2 <__udivmodsi4>
     eb6:	c9 01       	movw	r24, r18
     eb8:	da 01       	movw	r26, r20
	if (!nclst) return FR_NO_FILESYSTEM;				/* (Invalid volume size) */
     eba:	00 97       	sbiw	r24, 0x00	; 0
     ebc:	a1 05       	cpc	r26, r1
     ebe:	b1 05       	cpc	r27, r1
     ec0:	09 f4       	brne	.+2      	; 0xec4 <find_volume+0x3e4>
     ec2:	0c c2       	rjmp	.+1048   	; 0x12dc <find_volume+0x7fc>
	fmt = FS_FAT12;
	if (nclst >= MIN_FAT16) fmt = FS_FAT16;
     ec4:	86 3f       	cpi	r24, 0xF6	; 246
     ec6:	ef e0       	ldi	r30, 0x0F	; 15
     ec8:	9e 07       	cpc	r25, r30
     eca:	e0 e0       	ldi	r30, 0x00	; 0
     ecc:	ae 07       	cpc	r26, r30
     ece:	e0 e0       	ldi	r30, 0x00	; 0
     ed0:	be 07       	cpc	r27, r30
     ed2:	18 f4       	brcc	.+6      	; 0xeda <find_volume+0x3fa>
     ed4:	77 24       	eor	r7, r7
     ed6:	73 94       	inc	r7
     ed8:	0d c0       	rjmp	.+26     	; 0xef4 <find_volume+0x414>
	if (nclst >= MIN_FAT32) fmt = FS_FAT32;
     eda:	86 3f       	cpi	r24, 0xF6	; 246
     edc:	ff ef       	ldi	r31, 0xFF	; 255
     ede:	9f 07       	cpc	r25, r31
     ee0:	f0 e0       	ldi	r31, 0x00	; 0
     ee2:	af 07       	cpc	r26, r31
     ee4:	f0 e0       	ldi	r31, 0x00	; 0
     ee6:	bf 07       	cpc	r27, r31
     ee8:	18 f0       	brcs	.+6      	; 0xef0 <find_volume+0x410>
     eea:	33 e0       	ldi	r19, 0x03	; 3
     eec:	73 2e       	mov	r7, r19
     eee:	02 c0       	rjmp	.+4      	; 0xef4 <find_volume+0x414>
     ef0:	22 e0       	ldi	r18, 0x02	; 2
     ef2:	72 2e       	mov	r7, r18

	/* Boundaries and Limits */
	fs->n_fatent = nclst + 2;							/* Number of FAT entries */
     ef4:	f2 e0       	ldi	r31, 0x02	; 2
     ef6:	cf 2e       	mov	r12, r31
     ef8:	d1 2c       	mov	r13, r1
     efa:	e1 2c       	mov	r14, r1
     efc:	f1 2c       	mov	r15, r1
     efe:	c8 0e       	add	r12, r24
     f00:	d9 1e       	adc	r13, r25
     f02:	ea 1e       	adc	r14, r26
     f04:	fb 1e       	adc	r15, r27
     f06:	d8 01       	movw	r26, r16
     f08:	52 96       	adiw	r26, 0x12	; 18
     f0a:	cd 92       	st	X+, r12
     f0c:	dd 92       	st	X+, r13
     f0e:	ed 92       	st	X+, r14
     f10:	fc 92       	st	X, r15
     f12:	55 97       	sbiw	r26, 0x15	; 21
	fs->volbase = bsect;								/* Volume start sector */
     f14:	8d 89       	ldd	r24, Y+21	; 0x15
     f16:	9e 89       	ldd	r25, Y+22	; 0x16
     f18:	af 89       	ldd	r26, Y+23	; 0x17
     f1a:	b8 8d       	ldd	r27, Y+24	; 0x18
     f1c:	f8 01       	movw	r30, r16
     f1e:	82 8f       	std	Z+26, r24	; 0x1a
     f20:	93 8f       	std	Z+27, r25	; 0x1b
     f22:	a4 8f       	std	Z+28, r26	; 0x1c
     f24:	b5 8f       	std	Z+29, r27	; 0x1d
	fs->fatbase = bsect + nrsv; 						/* FAT start sector */
     f26:	9c 01       	movw	r18, r24
     f28:	ad 01       	movw	r20, r26
     f2a:	89 8d       	ldd	r24, Y+25	; 0x19
     f2c:	9a 8d       	ldd	r25, Y+26	; 0x1a
     f2e:	ab 8d       	ldd	r26, Y+27	; 0x1b
     f30:	bc 8d       	ldd	r27, Y+28	; 0x1c
     f32:	28 0f       	add	r18, r24
     f34:	39 1f       	adc	r19, r25
     f36:	4a 1f       	adc	r20, r26
     f38:	5b 1f       	adc	r21, r27
     f3a:	d8 01       	movw	r26, r16
     f3c:	5e 96       	adiw	r26, 0x1e	; 30
     f3e:	2d 93       	st	X+, r18
     f40:	3d 93       	st	X+, r19
     f42:	4d 93       	st	X+, r20
     f44:	5c 93       	st	X, r21
     f46:	91 97       	sbiw	r26, 0x21	; 33
	fs->database = bsect + sysect;						/* Data start sector */
     f48:	8d 89       	ldd	r24, Y+21	; 0x15
     f4a:	9e 89       	ldd	r25, Y+22	; 0x16
     f4c:	af 89       	ldd	r26, Y+23	; 0x17
     f4e:	b8 8d       	ldd	r27, Y+24	; 0x18
     f50:	88 0e       	add	r8, r24
     f52:	99 1e       	adc	r9, r25
     f54:	aa 1e       	adc	r10, r26
     f56:	bb 1e       	adc	r11, r27
     f58:	d8 01       	movw	r26, r16
     f5a:	96 96       	adiw	r26, 0x26	; 38
     f5c:	8d 92       	st	X+, r8
     f5e:	9d 92       	st	X+, r9
     f60:	ad 92       	st	X+, r10
     f62:	bc 92       	st	X, r11
     f64:	99 97       	sbiw	r26, 0x29	; 41
     f66:	18 96       	adiw	r26, 0x08	; 8
     f68:	8d 91       	ld	r24, X+
     f6a:	9c 91       	ld	r25, X
     f6c:	19 97       	sbiw	r26, 0x09	; 9
	if (fmt == FS_FAT32) {
     f6e:	b3 e0       	ldi	r27, 0x03	; 3
     f70:	7b 16       	cp	r7, r27
     f72:	09 f0       	breq	.+2      	; 0xf76 <find_volume+0x496>
     f74:	42 c0       	rjmp	.+132    	; 0xffa <find_volume+0x51a>
		if (fs->n_rootdir) return FR_NO_FILESYSTEM;		/* (BPB_RootEntCnt must be 0) */
     f76:	89 2b       	or	r24, r25
     f78:	09 f0       	breq	.+2      	; 0xf7c <find_volume+0x49c>
     f7a:	b0 c1       	rjmp	.+864    	; 0x12dc <find_volume+0x7fc>
		fs->dirbase = LD_DWORD(fs->win+BPB_RootClus);	/* Root directory start cluster */
     f7c:	03 5a       	subi	r16, 0xA3	; 163
     f7e:	1f 4f       	sbci	r17, 0xFF	; 255
     f80:	f8 01       	movw	r30, r16
     f82:	20 81       	ld	r18, Z
     f84:	30 e0       	ldi	r19, 0x00	; 0
     f86:	40 e0       	ldi	r20, 0x00	; 0
     f88:	50 e0       	ldi	r21, 0x00	; 0
     f8a:	52 2f       	mov	r21, r18
     f8c:	44 27       	eor	r20, r20
     f8e:	33 27       	eor	r19, r19
     f90:	22 27       	eor	r18, r18
     f92:	d8 01       	movw	r26, r16
     f94:	8e 91       	ld	r24, -X
     f96:	8d 01       	movw	r16, r26
     f98:	90 e0       	ldi	r25, 0x00	; 0
     f9a:	a0 e0       	ldi	r26, 0x00	; 0
     f9c:	b0 e0       	ldi	r27, 0x00	; 0
     f9e:	dc 01       	movw	r26, r24
     fa0:	99 27       	eor	r25, r25
     fa2:	88 27       	eor	r24, r24
     fa4:	28 2b       	or	r18, r24
     fa6:	39 2b       	or	r19, r25
     fa8:	4a 2b       	or	r20, r26
     faa:	5b 2b       	or	r21, r27
     fac:	02 50       	subi	r16, 0x02	; 2
     fae:	10 40       	sbci	r17, 0x00	; 0
     fb0:	f8 01       	movw	r30, r16
     fb2:	81 91       	ld	r24, Z+
     fb4:	8f 01       	movw	r16, r30
     fb6:	90 e0       	ldi	r25, 0x00	; 0
     fb8:	a0 e0       	ldi	r26, 0x00	; 0
     fba:	b0 e0       	ldi	r27, 0x00	; 0
     fbc:	28 2b       	or	r18, r24
     fbe:	39 2b       	or	r19, r25
     fc0:	4a 2b       	or	r20, r26
     fc2:	5b 2b       	or	r21, r27
     fc4:	90 81       	ld	r25, Z
     fc6:	0b 55       	subi	r16, 0x5B	; 91
     fc8:	10 40       	sbci	r17, 0x00	; 0
     fca:	80 e0       	ldi	r24, 0x00	; 0
     fcc:	a0 e0       	ldi	r26, 0x00	; 0
     fce:	b0 e0       	ldi	r27, 0x00	; 0
     fd0:	28 2b       	or	r18, r24
     fd2:	39 2b       	or	r19, r25
     fd4:	4a 2b       	or	r20, r26
     fd6:	5b 2b       	or	r21, r27
     fd8:	d8 01       	movw	r26, r16
     fda:	92 96       	adiw	r26, 0x22	; 34
     fdc:	2d 93       	st	X+, r18
     fde:	3d 93       	st	X+, r19
     fe0:	4d 93       	st	X+, r20
     fe2:	5c 93       	st	X, r21
     fe4:	95 97       	sbiw	r26, 0x25	; 37
		szbfat = fs->n_fatent * 4;						/* (Needed FAT size) */
     fe6:	a7 01       	movw	r20, r14
     fe8:	96 01       	movw	r18, r12
     fea:	62 e0       	ldi	r22, 0x02	; 2
     fec:	22 0f       	add	r18, r18
     fee:	33 1f       	adc	r19, r19
     ff0:	44 1f       	adc	r20, r20
     ff2:	55 1f       	adc	r21, r21
     ff4:	6a 95       	dec	r22
     ff6:	d1 f7       	brne	.-12     	; 0xfec <find_volume+0x50c>
     ff8:	34 c0       	rjmp	.+104    	; 0x1062 <find_volume+0x582>
	} else {
		if (!fs->n_rootdir)	return FR_NO_FILESYSTEM;	/* (BPB_RootEntCnt must not be 0) */
     ffa:	89 2b       	or	r24, r25
     ffc:	09 f4       	brne	.+2      	; 0x1000 <find_volume+0x520>
     ffe:	6e c1       	rjmp	.+732    	; 0x12dc <find_volume+0x7fc>
		fs->dirbase = fs->fatbase + fasize;				/* Root directory start sector */
    1000:	89 89       	ldd	r24, Y+17	; 0x11
    1002:	9a 89       	ldd	r25, Y+18	; 0x12
    1004:	ab 89       	ldd	r26, Y+19	; 0x13
    1006:	bc 89       	ldd	r27, Y+20	; 0x14
    1008:	28 0f       	add	r18, r24
    100a:	39 1f       	adc	r19, r25
    100c:	4a 1f       	adc	r20, r26
    100e:	5b 1f       	adc	r21, r27
    1010:	d8 01       	movw	r26, r16
    1012:	92 96       	adiw	r26, 0x22	; 34
    1014:	2d 93       	st	X+, r18
    1016:	3d 93       	st	X+, r19
    1018:	4d 93       	st	X+, r20
    101a:	5c 93       	st	X, r21
    101c:	95 97       	sbiw	r26, 0x25	; 37
    101e:	d7 01       	movw	r26, r14
    1020:	c6 01       	movw	r24, r12
    1022:	88 0f       	add	r24, r24
    1024:	99 1f       	adc	r25, r25
    1026:	aa 1f       	adc	r26, r26
    1028:	bb 1f       	adc	r27, r27
		szbfat = (fmt == FS_FAT16) ?					/* (Needed FAT size) */
    102a:	e2 e0       	ldi	r30, 0x02	; 2
    102c:	7e 16       	cp	r7, r30
    102e:	19 f4       	brne	.+6      	; 0x1036 <find_volume+0x556>
    1030:	9c 01       	movw	r18, r24
    1032:	ad 01       	movw	r20, r26
    1034:	16 c0       	rjmp	.+44     	; 0x1062 <find_volume+0x582>
    1036:	9c 01       	movw	r18, r24
    1038:	ad 01       	movw	r20, r26
    103a:	2c 0d       	add	r18, r12
    103c:	3d 1d       	adc	r19, r13
    103e:	4e 1d       	adc	r20, r14
    1040:	5f 1d       	adc	r21, r15
    1042:	56 95       	lsr	r21
    1044:	47 95       	ror	r20
    1046:	37 95       	ror	r19
    1048:	27 95       	ror	r18
    104a:	81 e0       	ldi	r24, 0x01	; 1
    104c:	90 e0       	ldi	r25, 0x00	; 0
    104e:	a0 e0       	ldi	r26, 0x00	; 0
    1050:	b0 e0       	ldi	r27, 0x00	; 0
    1052:	c8 22       	and	r12, r24
    1054:	d9 22       	and	r13, r25
    1056:	ea 22       	and	r14, r26
    1058:	fb 22       	and	r15, r27
    105a:	2c 0d       	add	r18, r12
    105c:	3d 1d       	adc	r19, r13
    105e:	4e 1d       	adc	r20, r14
    1060:	5f 1d       	adc	r21, r15
			fs->n_fatent * 2 : fs->n_fatent * 3 / 2 + (fs->n_fatent & 1);
	}
	if (fs->fsize < (szbfat + (SS(fs) - 1)) / SS(fs))	/* (BPB_FATSz must not be less than needed) */
    1062:	21 50       	subi	r18, 0x01	; 1
    1064:	3e 4f       	sbci	r19, 0xFE	; 254
    1066:	4f 4f       	sbci	r20, 0xFF	; 255
    1068:	5f 4f       	sbci	r21, 0xFF	; 255
    106a:	e9 e0       	ldi	r30, 0x09	; 9
    106c:	56 95       	lsr	r21
    106e:	47 95       	ror	r20
    1070:	37 95       	ror	r19
    1072:	27 95       	ror	r18
    1074:	ea 95       	dec	r30
    1076:	d1 f7       	brne	.-12     	; 0x106c <find_volume+0x58c>
    1078:	f8 01       	movw	r30, r16
    107a:	86 89       	ldd	r24, Z+22	; 0x16
    107c:	97 89       	ldd	r25, Z+23	; 0x17
    107e:	a0 8d       	ldd	r26, Z+24	; 0x18
    1080:	b1 8d       	ldd	r27, Z+25	; 0x19
    1082:	82 17       	cp	r24, r18
    1084:	93 07       	cpc	r25, r19
    1086:	a4 07       	cpc	r26, r20
    1088:	b5 07       	cpc	r27, r21
    108a:	08 f4       	brcc	.+2      	; 0x108e <find_volume+0x5ae>
    108c:	27 c1       	rjmp	.+590    	; 0x12dc <find_volume+0x7fc>
		return FR_NO_FILESYSTEM;

#if !_FS_READONLY
	/* Initialize cluster allocation information */
	fs->last_clust = fs->free_clust = 0xFFFFFFFF;
    108e:	8f ef       	ldi	r24, 0xFF	; 255
    1090:	9f ef       	ldi	r25, 0xFF	; 255
    1092:	af ef       	ldi	r26, 0xFF	; 255
    1094:	bf ef       	ldi	r27, 0xFF	; 255
    1096:	86 87       	std	Z+14, r24	; 0x0e
    1098:	97 87       	std	Z+15, r25	; 0x0f
    109a:	a0 8b       	std	Z+16, r26	; 0x10
    109c:	b1 8b       	std	Z+17, r27	; 0x11
    109e:	82 87       	std	Z+10, r24	; 0x0a
    10a0:	93 87       	std	Z+11, r25	; 0x0b
    10a2:	a4 87       	std	Z+12, r26	; 0x0c
    10a4:	b5 87       	std	Z+13, r27	; 0x0d

	/* Get fsinfo if available */
	fs->fsi_flag = 0x80;
    10a6:	80 e8       	ldi	r24, 0x80	; 128
    10a8:	85 83       	std	Z+5, r24	; 0x05
#if (_FS_NOFSINFO & 3) != 3
	if (fmt == FS_FAT32				/* Enable FSINFO only if FAT32 and BPB_FSInfo is 1 */
    10aa:	f3 e0       	ldi	r31, 0x03	; 3
    10ac:	7f 16       	cp	r7, r31
    10ae:	09 f0       	breq	.+2      	; 0x10b2 <find_volume+0x5d2>
    10b0:	03 c1       	rjmp	.+518    	; 0x12b8 <find_volume+0x7d8>
    10b2:	01 5a       	subi	r16, 0xA1	; 161
    10b4:	1f 4f       	sbci	r17, 0xFF	; 255
    10b6:	d8 01       	movw	r26, r16
    10b8:	9c 91       	ld	r25, X
    10ba:	80 e0       	ldi	r24, 0x00	; 0
    10bc:	f8 01       	movw	r30, r16
    10be:	22 91       	ld	r18, -Z
    10c0:	8f 01       	movw	r16, r30
    10c2:	0e 55       	subi	r16, 0x5E	; 94
    10c4:	10 40       	sbci	r17, 0x00	; 0
    10c6:	30 e0       	ldi	r19, 0x00	; 0
    10c8:	82 2b       	or	r24, r18
    10ca:	93 2b       	or	r25, r19
    10cc:	01 97       	sbiw	r24, 0x01	; 1
    10ce:	09 f0       	breq	.+2      	; 0x10d2 <find_volume+0x5f2>
    10d0:	f3 c0       	rjmp	.+486    	; 0x12b8 <find_volume+0x7d8>
    10d2:	8d 89       	ldd	r24, Y+21	; 0x15
    10d4:	9e 89       	ldd	r25, Y+22	; 0x16
    10d6:	af 89       	ldd	r26, Y+23	; 0x17
    10d8:	b8 8d       	ldd	r27, Y+24	; 0x18
    10da:	01 96       	adiw	r24, 0x01	; 1
    10dc:	a1 1d       	adc	r26, r1
    10de:	b1 1d       	adc	r27, r1
    10e0:	8d 8b       	std	Y+21, r24	; 0x15
    10e2:	9e 8b       	std	Y+22, r25	; 0x16
    10e4:	af 8b       	std	Y+23, r26	; 0x17
    10e6:	b8 8f       	std	Y+24, r27	; 0x18
    10e8:	c8 01       	movw	r24, r16
    10ea:	4d 89       	ldd	r20, Y+21	; 0x15
    10ec:	5e 89       	ldd	r21, Y+22	; 0x16
    10ee:	6f 89       	ldd	r22, Y+23	; 0x17
    10f0:	78 8d       	ldd	r23, Y+24	; 0x18
    10f2:	0e 94 b9 04 	call	0x972	; 0x972 <move_window>
    10f6:	88 23       	and	r24, r24
    10f8:	09 f0       	breq	.+2      	; 0x10fc <find_volume+0x61c>
    10fa:	de c0       	rjmp	.+444    	; 0x12b8 <find_volume+0x7d8>
		&& LD_WORD(fs->win+BPB_FSInfo) == 1
		&& move_window(fs, bsect + 1) == FR_OK)
	{
		fs->fsi_flag = 0;
    10fc:	d8 01       	movw	r26, r16
    10fe:	15 96       	adiw	r26, 0x05	; 5
    1100:	1c 92       	st	X, r1
		if (LD_WORD(fs->win+BS_55AA) == 0xAA55	/* Load FSINFO data if available */
    1102:	03 5d       	subi	r16, 0xD3	; 211
    1104:	1d 4f       	sbci	r17, 0xFD	; 253
    1106:	f8 01       	movw	r30, r16
    1108:	90 81       	ld	r25, Z
    110a:	80 e0       	ldi	r24, 0x00	; 0
    110c:	d8 01       	movw	r26, r16
    110e:	2e 91       	ld	r18, -X
    1110:	8d 01       	movw	r16, r26
    1112:	0c 52       	subi	r16, 0x2C	; 44
    1114:	12 40       	sbci	r17, 0x02	; 2
    1116:	30 e0       	ldi	r19, 0x00	; 0
    1118:	82 2b       	or	r24, r18
    111a:	93 2b       	or	r25, r19
    111c:	85 55       	subi	r24, 0x55	; 85
    111e:	9a 4a       	sbci	r25, 0xAA	; 170
    1120:	09 f0       	breq	.+2      	; 0x1124 <find_volume+0x644>
    1122:	ca c0       	rjmp	.+404    	; 0x12b8 <find_volume+0x7d8>
    1124:	f8 01       	movw	r30, r16
    1126:	21 a9       	ldd	r18, Z+49	; 0x31
    1128:	30 e0       	ldi	r19, 0x00	; 0
    112a:	40 e0       	ldi	r20, 0x00	; 0
    112c:	50 e0       	ldi	r21, 0x00	; 0
    112e:	52 2f       	mov	r21, r18
    1130:	44 27       	eor	r20, r20
    1132:	33 27       	eor	r19, r19
    1134:	22 27       	eor	r18, r18
    1136:	80 a9       	ldd	r24, Z+48	; 0x30
    1138:	90 e0       	ldi	r25, 0x00	; 0
    113a:	a0 e0       	ldi	r26, 0x00	; 0
    113c:	b0 e0       	ldi	r27, 0x00	; 0
    113e:	dc 01       	movw	r26, r24
    1140:	99 27       	eor	r25, r25
    1142:	88 27       	eor	r24, r24
    1144:	28 2b       	or	r18, r24
    1146:	39 2b       	or	r19, r25
    1148:	4a 2b       	or	r20, r26
    114a:	5b 2b       	or	r21, r27
    114c:	86 a5       	ldd	r24, Z+46	; 0x2e
    114e:	90 e0       	ldi	r25, 0x00	; 0
    1150:	a0 e0       	ldi	r26, 0x00	; 0
    1152:	b0 e0       	ldi	r27, 0x00	; 0
    1154:	28 2b       	or	r18, r24
    1156:	39 2b       	or	r19, r25
    1158:	4a 2b       	or	r20, r26
    115a:	5b 2b       	or	r21, r27
    115c:	97 a5       	ldd	r25, Z+47	; 0x2f
    115e:	80 e0       	ldi	r24, 0x00	; 0
    1160:	a0 e0       	ldi	r26, 0x00	; 0
    1162:	b0 e0       	ldi	r27, 0x00	; 0
    1164:	28 2b       	or	r18, r24
    1166:	39 2b       	or	r19, r25
    1168:	4a 2b       	or	r20, r26
    116a:	5b 2b       	or	r21, r27
    116c:	22 55       	subi	r18, 0x52	; 82
    116e:	32 45       	sbci	r19, 0x52	; 82
    1170:	41 46       	sbci	r20, 0x61	; 97
    1172:	51 44       	sbci	r21, 0x41	; 65
    1174:	09 f0       	breq	.+2      	; 0x1178 <find_volume+0x698>
    1176:	a0 c0       	rjmp	.+320    	; 0x12b8 <find_volume+0x7d8>
    1178:	0b 5e       	subi	r16, 0xEB	; 235
    117a:	1d 4f       	sbci	r17, 0xFD	; 253
    117c:	d8 01       	movw	r26, r16
    117e:	2c 91       	ld	r18, X
    1180:	30 e0       	ldi	r19, 0x00	; 0
    1182:	40 e0       	ldi	r20, 0x00	; 0
    1184:	50 e0       	ldi	r21, 0x00	; 0
    1186:	52 2f       	mov	r21, r18
    1188:	44 27       	eor	r20, r20
    118a:	33 27       	eor	r19, r19
    118c:	22 27       	eor	r18, r18
    118e:	f8 01       	movw	r30, r16
    1190:	82 91       	ld	r24, -Z
    1192:	8f 01       	movw	r16, r30
    1194:	90 e0       	ldi	r25, 0x00	; 0
    1196:	a0 e0       	ldi	r26, 0x00	; 0
    1198:	b0 e0       	ldi	r27, 0x00	; 0
    119a:	dc 01       	movw	r26, r24
    119c:	99 27       	eor	r25, r25
    119e:	88 27       	eor	r24, r24
    11a0:	28 2b       	or	r18, r24
    11a2:	39 2b       	or	r19, r25
    11a4:	4a 2b       	or	r20, r26
    11a6:	5b 2b       	or	r21, r27
    11a8:	02 50       	subi	r16, 0x02	; 2
    11aa:	10 40       	sbci	r17, 0x00	; 0
    11ac:	d8 01       	movw	r26, r16
    11ae:	8d 91       	ld	r24, X+
    11b0:	8d 01       	movw	r16, r26
    11b2:	90 e0       	ldi	r25, 0x00	; 0
    11b4:	a0 e0       	ldi	r26, 0x00	; 0
    11b6:	b0 e0       	ldi	r27, 0x00	; 0
    11b8:	28 2b       	or	r18, r24
    11ba:	39 2b       	or	r19, r25
    11bc:	4a 2b       	or	r20, r26
    11be:	5b 2b       	or	r21, r27
    11c0:	f8 01       	movw	r30, r16
    11c2:	90 81       	ld	r25, Z
    11c4:	03 51       	subi	r16, 0x13	; 19
    11c6:	12 40       	sbci	r17, 0x02	; 2
    11c8:	80 e0       	ldi	r24, 0x00	; 0
    11ca:	a0 e0       	ldi	r26, 0x00	; 0
    11cc:	b0 e0       	ldi	r27, 0x00	; 0
    11ce:	28 2b       	or	r18, r24
    11d0:	39 2b       	or	r19, r25
    11d2:	4a 2b       	or	r20, r26
    11d4:	5b 2b       	or	r21, r27
    11d6:	22 57       	subi	r18, 0x72	; 114
    11d8:	32 47       	sbci	r19, 0x72	; 114
    11da:	41 44       	sbci	r20, 0x41	; 65
    11dc:	51 46       	sbci	r21, 0x61	; 97
    11de:	09 f0       	breq	.+2      	; 0x11e2 <find_volume+0x702>
    11e0:	6b c0       	rjmp	.+214    	; 0x12b8 <find_volume+0x7d8>
			&& LD_DWORD(fs->win+FSI_LeadSig) == 0x41615252
			&& LD_DWORD(fs->win+FSI_StrucSig) == 0x61417272)
		{
#if (_FS_NOFSINFO & 1) == 0
			fs->free_clust = LD_DWORD(fs->win+FSI_Free_Count);
    11e2:	07 5e       	subi	r16, 0xE7	; 231
    11e4:	1d 4f       	sbci	r17, 0xFD	; 253
    11e6:	d8 01       	movw	r26, r16
    11e8:	2c 91       	ld	r18, X
    11ea:	30 e0       	ldi	r19, 0x00	; 0
    11ec:	40 e0       	ldi	r20, 0x00	; 0
    11ee:	50 e0       	ldi	r21, 0x00	; 0
    11f0:	52 2f       	mov	r21, r18
    11f2:	44 27       	eor	r20, r20
    11f4:	33 27       	eor	r19, r19
    11f6:	22 27       	eor	r18, r18
    11f8:	f8 01       	movw	r30, r16
    11fa:	82 91       	ld	r24, -Z
    11fc:	8f 01       	movw	r16, r30
    11fe:	90 e0       	ldi	r25, 0x00	; 0
    1200:	a0 e0       	ldi	r26, 0x00	; 0
    1202:	b0 e0       	ldi	r27, 0x00	; 0
    1204:	dc 01       	movw	r26, r24
    1206:	99 27       	eor	r25, r25
    1208:	88 27       	eor	r24, r24
    120a:	28 2b       	or	r18, r24
    120c:	39 2b       	or	r19, r25
    120e:	4a 2b       	or	r20, r26
    1210:	5b 2b       	or	r21, r27
    1212:	02 50       	subi	r16, 0x02	; 2
    1214:	10 40       	sbci	r17, 0x00	; 0
    1216:	d8 01       	movw	r26, r16
    1218:	8d 91       	ld	r24, X+
    121a:	8d 01       	movw	r16, r26
    121c:	90 e0       	ldi	r25, 0x00	; 0
    121e:	a0 e0       	ldi	r26, 0x00	; 0
    1220:	b0 e0       	ldi	r27, 0x00	; 0
    1222:	28 2b       	or	r18, r24
    1224:	39 2b       	or	r19, r25
    1226:	4a 2b       	or	r20, r26
    1228:	5b 2b       	or	r21, r27
    122a:	f8 01       	movw	r30, r16
    122c:	90 81       	ld	r25, Z
    122e:	07 51       	subi	r16, 0x17	; 23
    1230:	12 40       	sbci	r17, 0x02	; 2
    1232:	80 e0       	ldi	r24, 0x00	; 0
    1234:	a0 e0       	ldi	r26, 0x00	; 0
    1236:	b0 e0       	ldi	r27, 0x00	; 0
    1238:	28 2b       	or	r18, r24
    123a:	39 2b       	or	r19, r25
    123c:	4a 2b       	or	r20, r26
    123e:	5b 2b       	or	r21, r27
    1240:	d8 01       	movw	r26, r16
    1242:	1e 96       	adiw	r26, 0x0e	; 14
    1244:	2d 93       	st	X+, r18
    1246:	3d 93       	st	X+, r19
    1248:	4d 93       	st	X+, r20
    124a:	5c 93       	st	X, r21
    124c:	51 97       	sbiw	r26, 0x11	; 17
#endif
#if (_FS_NOFSINFO & 2) == 0
			fs->last_clust = LD_DWORD(fs->win+FSI_Nxt_Free);
    124e:	03 5e       	subi	r16, 0xE3	; 227
    1250:	1d 4f       	sbci	r17, 0xFD	; 253
    1252:	f8 01       	movw	r30, r16
    1254:	20 81       	ld	r18, Z
    1256:	30 e0       	ldi	r19, 0x00	; 0
    1258:	40 e0       	ldi	r20, 0x00	; 0
    125a:	50 e0       	ldi	r21, 0x00	; 0
    125c:	52 2f       	mov	r21, r18
    125e:	44 27       	eor	r20, r20
    1260:	33 27       	eor	r19, r19
    1262:	22 27       	eor	r18, r18
    1264:	d8 01       	movw	r26, r16
    1266:	8e 91       	ld	r24, -X
    1268:	8d 01       	movw	r16, r26
    126a:	90 e0       	ldi	r25, 0x00	; 0
    126c:	a0 e0       	ldi	r26, 0x00	; 0
    126e:	b0 e0       	ldi	r27, 0x00	; 0
    1270:	dc 01       	movw	r26, r24
    1272:	99 27       	eor	r25, r25
    1274:	88 27       	eor	r24, r24
    1276:	28 2b       	or	r18, r24
    1278:	39 2b       	or	r19, r25
    127a:	4a 2b       	or	r20, r26
    127c:	5b 2b       	or	r21, r27
    127e:	02 50       	subi	r16, 0x02	; 2
    1280:	10 40       	sbci	r17, 0x00	; 0
    1282:	f8 01       	movw	r30, r16
    1284:	81 91       	ld	r24, Z+
    1286:	8f 01       	movw	r16, r30
    1288:	90 e0       	ldi	r25, 0x00	; 0
    128a:	a0 e0       	ldi	r26, 0x00	; 0
    128c:	b0 e0       	ldi	r27, 0x00	; 0
    128e:	28 2b       	or	r18, r24
    1290:	39 2b       	or	r19, r25
    1292:	4a 2b       	or	r20, r26
    1294:	5b 2b       	or	r21, r27
    1296:	90 81       	ld	r25, Z
    1298:	0b 51       	subi	r16, 0x1B	; 27
    129a:	12 40       	sbci	r17, 0x02	; 2
    129c:	80 e0       	ldi	r24, 0x00	; 0
    129e:	a0 e0       	ldi	r26, 0x00	; 0
    12a0:	b0 e0       	ldi	r27, 0x00	; 0
    12a2:	28 2b       	or	r18, r24
    12a4:	39 2b       	or	r19, r25
    12a6:	4a 2b       	or	r20, r26
    12a8:	5b 2b       	or	r21, r27
    12aa:	d8 01       	movw	r26, r16
    12ac:	1a 96       	adiw	r26, 0x0a	; 10
    12ae:	2d 93       	st	X+, r18
    12b0:	3d 93       	st	X+, r19
    12b2:	4d 93       	st	X+, r20
    12b4:	5c 93       	st	X, r21
    12b6:	1d 97       	sbiw	r26, 0x0d	; 13
#endif
		}
	}
#endif
#endif
	fs->fs_type = fmt;	/* FAT sub-type */
    12b8:	f8 01       	movw	r30, r16
    12ba:	70 82       	st	Z, r7
	fs->id = ++Fsid;	/* File system mount ID */
    12bc:	80 91 21 02 	lds	r24, 0x0221
    12c0:	90 91 22 02 	lds	r25, 0x0222
    12c4:	01 96       	adiw	r24, 0x01	; 1
    12c6:	90 93 22 02 	sts	0x0222, r25
    12ca:	80 93 21 02 	sts	0x0221, r24
    12ce:	97 83       	std	Z+7, r25	; 0x07
    12d0:	86 83       	std	Z+6, r24	; 0x06
    12d2:	02 c0       	rjmp	.+4      	; 0x12d8 <find_volume+0x7f8>
#endif
#if _FS_LOCK			/* Clear file lock semaphores */
	clear_lock(fs);
#endif

	return FR_OK;
    12d4:	8a e0       	ldi	r24, 0x0A	; 10
    12d6:	03 c0       	rjmp	.+6      	; 0x12de <find_volume+0x7fe>
    12d8:	80 e0       	ldi	r24, 0x00	; 0
    12da:	01 c0       	rjmp	.+2      	; 0x12de <find_volume+0x7fe>
    12dc:	8d e0       	ldi	r24, 0x0D	; 13
}
    12de:	6c 96       	adiw	r28, 0x1c	; 28
    12e0:	0f b6       	in	r0, 0x3f	; 63
    12e2:	f8 94       	cli
    12e4:	de bf       	out	0x3e, r29	; 62
    12e6:	0f be       	out	0x3f, r0	; 63
    12e8:	cd bf       	out	0x3d, r28	; 61
    12ea:	cf 91       	pop	r28
    12ec:	df 91       	pop	r29
    12ee:	1f 91       	pop	r17
    12f0:	0f 91       	pop	r16
    12f2:	ff 90       	pop	r15
    12f4:	ef 90       	pop	r14
    12f6:	df 90       	pop	r13
    12f8:	cf 90       	pop	r12
    12fa:	bf 90       	pop	r11
    12fc:	af 90       	pop	r10
    12fe:	9f 90       	pop	r9
    1300:	8f 90       	pop	r8
    1302:	7f 90       	pop	r7
    1304:	6f 90       	pop	r6
    1306:	5f 90       	pop	r5
    1308:	4f 90       	pop	r4
    130a:	08 95       	ret

0000130c <f_mount>:
FRESULT f_mount (
	FATFS* fs,			/* Pointer to the file system object (NULL:unmount)*/
	const TCHAR* path,	/* Logical drive number to be mounted/unmounted */
	BYTE opt			/* 0:Do not mount (delayed mount), 1:Mount immediately */
)
{
    130c:	1f 93       	push	r17
    130e:	df 93       	push	r29
    1310:	cf 93       	push	r28
    1312:	00 d0       	rcall	.+0      	; 0x1314 <f_mount+0x8>
    1314:	00 d0       	rcall	.+0      	; 0x1316 <f_mount+0xa>
    1316:	00 d0       	rcall	.+0      	; 0x1318 <f_mount+0xc>
    1318:	cd b7       	in	r28, 0x3d	; 61
    131a:	de b7       	in	r29, 0x3e	; 62
    131c:	9c 83       	std	Y+4, r25	; 0x04
    131e:	8b 83       	std	Y+3, r24	; 0x03
    1320:	7e 83       	std	Y+6, r23	; 0x06
    1322:	6d 83       	std	Y+5, r22	; 0x05
    1324:	14 2f       	mov	r17, r20
	FATFS *cfs;
	int vol;
	FRESULT res;
	const TCHAR *rp = path;
    1326:	7a 83       	std	Y+2, r23	; 0x02
    1328:	69 83       	std	Y+1, r22	; 0x01


	vol = get_ldnumber(&rp);
    132a:	ce 01       	movw	r24, r28
    132c:	01 96       	adiw	r24, 0x01	; 1
    132e:	0e 94 04 04 	call	0x808	; 0x808 <get_ldnumber>
    1332:	dc 01       	movw	r26, r24
	if (vol < 0) return FR_INVALID_DRIVE;
    1334:	97 ff       	sbrs	r25, 7
    1336:	02 c0       	rjmp	.+4      	; 0x133c <f_mount+0x30>
    1338:	8b e0       	ldi	r24, 0x0B	; 11
    133a:	24 c0       	rjmp	.+72     	; 0x1384 <f_mount+0x78>
	cfs = FatFs[vol];					/* Pointer to fs object */
    133c:	fc 01       	movw	r30, r24
    133e:	ee 0f       	add	r30, r30
    1340:	ff 1f       	adc	r31, r31
    1342:	e1 5e       	subi	r30, 0xE1	; 225
    1344:	fd 4f       	sbci	r31, 0xFD	; 253
    1346:	01 90       	ld	r0, Z+
    1348:	f0 81       	ld	r31, Z
    134a:	e0 2d       	mov	r30, r0

	if (cfs) {
    134c:	30 97       	sbiw	r30, 0x00	; 0
    134e:	09 f0       	breq	.+2      	; 0x1352 <f_mount+0x46>
		clear_lock(cfs);
#endif
#if _FS_REENTRANT						/* Discard sync object of the current volume */
		if (!ff_del_syncobj(cfs->sobj)) return FR_INT_ERR;
#endif
		cfs->fs_type = 0;				/* Clear old fs object */
    1350:	10 82       	st	Z, r1
	}

	if (fs) {
    1352:	eb 81       	ldd	r30, Y+3	; 0x03
    1354:	fc 81       	ldd	r31, Y+4	; 0x04
    1356:	30 97       	sbiw	r30, 0x00	; 0
    1358:	09 f0       	breq	.+2      	; 0x135c <f_mount+0x50>
		fs->fs_type = 0;				/* Clear new fs object */
    135a:	10 82       	st	Z, r1
#if _FS_REENTRANT						/* Create sync object for the new volume */
		if (!ff_cre_syncobj((BYTE)vol, &fs->sobj)) return FR_INT_ERR;
#endif
	}
	FatFs[vol] = fs;					/* Register new fs object */
    135c:	aa 0f       	add	r26, r26
    135e:	bb 1f       	adc	r27, r27
    1360:	a1 5e       	subi	r26, 0xE1	; 225
    1362:	bd 4f       	sbci	r27, 0xFD	; 253
    1364:	ed 93       	st	X+, r30
    1366:	fc 93       	st	X, r31

	if (!fs || opt != 1) return FR_OK;	/* Do not mount now, it will be mounted later */
    1368:	ef 2b       	or	r30, r31
    136a:	59 f0       	breq	.+22     	; 0x1382 <f_mount+0x76>
    136c:	11 30       	cpi	r17, 0x01	; 1
    136e:	49 f4       	brne	.+18     	; 0x1382 <f_mount+0x76>

	res = find_volume(&fs, &path, 0);	/* Force mounted the volume */
    1370:	ce 01       	movw	r24, r28
    1372:	03 96       	adiw	r24, 0x03	; 3
    1374:	be 01       	movw	r22, r28
    1376:	6b 5f       	subi	r22, 0xFB	; 251
    1378:	7f 4f       	sbci	r23, 0xFF	; 255
    137a:	40 e0       	ldi	r20, 0x00	; 0
    137c:	0e 94 70 05 	call	0xae0	; 0xae0 <find_volume>
    1380:	01 c0       	rjmp	.+2      	; 0x1384 <f_mount+0x78>
	LEAVE_FF(fs, res);
    1382:	80 e0       	ldi	r24, 0x00	; 0
}
    1384:	26 96       	adiw	r28, 0x06	; 6
    1386:	0f b6       	in	r0, 0x3f	; 63
    1388:	f8 94       	cli
    138a:	de bf       	out	0x3e, r29	; 62
    138c:	0f be       	out	0x3f, r0	; 63
    138e:	cd bf       	out	0x3d, r28	; 61
    1390:	cf 91       	pop	r28
    1392:	df 91       	pop	r29
    1394:	1f 91       	pop	r17
    1396:	08 95       	ret

00001398 <put_fat>:
FRESULT put_fat (
	FATFS* fs,	/* File system object */
	DWORD clst,	/* Cluster# to be changed in range of 2 to fs->n_fatent - 1 */
	DWORD val	/* New value to mark the cluster */
)
{
    1398:	7f 92       	push	r7
    139a:	8f 92       	push	r8
    139c:	9f 92       	push	r9
    139e:	af 92       	push	r10
    13a0:	bf 92       	push	r11
    13a2:	cf 92       	push	r12
    13a4:	df 92       	push	r13
    13a6:	ef 92       	push	r14
    13a8:	ff 92       	push	r15
    13aa:	0f 93       	push	r16
    13ac:	1f 93       	push	r17
    13ae:	cf 93       	push	r28
    13b0:	df 93       	push	r29
    13b2:	ec 01       	movw	r28, r24
    13b4:	6a 01       	movw	r12, r20
    13b6:	7b 01       	movw	r14, r22
    13b8:	48 01       	movw	r8, r16
    13ba:	59 01       	movw	r10, r18
	UINT bc;
	BYTE *p;
	FRESULT res;


	if (clst < 2 || clst >= fs->n_fatent) {	/* Check range */
    13bc:	42 30       	cpi	r20, 0x02	; 2
    13be:	51 05       	cpc	r21, r1
    13c0:	61 05       	cpc	r22, r1
    13c2:	71 05       	cpc	r23, r1
    13c4:	08 f4       	brcc	.+2      	; 0x13c8 <put_fat+0x30>
    13c6:	ec c0       	rjmp	.+472    	; 0x15a0 <put_fat+0x208>
    13c8:	8a 89       	ldd	r24, Y+18	; 0x12
    13ca:	9b 89       	ldd	r25, Y+19	; 0x13
    13cc:	ac 89       	ldd	r26, Y+20	; 0x14
    13ce:	bd 89       	ldd	r27, Y+21	; 0x15
    13d0:	48 17       	cp	r20, r24
    13d2:	59 07       	cpc	r21, r25
    13d4:	6a 07       	cpc	r22, r26
    13d6:	7b 07       	cpc	r23, r27
    13d8:	08 f0       	brcs	.+2      	; 0x13dc <put_fat+0x44>
    13da:	e2 c0       	rjmp	.+452    	; 0x15a0 <put_fat+0x208>
		res = FR_INT_ERR;

	} else {
		switch (fs->fs_type) {
    13dc:	88 81       	ld	r24, Y
    13de:	82 30       	cpi	r24, 0x02	; 2
    13e0:	09 f4       	brne	.+2      	; 0x13e4 <put_fat+0x4c>
    13e2:	72 c0       	rjmp	.+228    	; 0x14c8 <put_fat+0x130>
    13e4:	83 30       	cpi	r24, 0x03	; 3
    13e6:	09 f4       	brne	.+2      	; 0x13ea <put_fat+0x52>
    13e8:	93 c0       	rjmp	.+294    	; 0x1510 <put_fat+0x178>
    13ea:	81 30       	cpi	r24, 0x01	; 1
    13ec:	19 f0       	breq	.+6      	; 0x13f4 <put_fat+0x5c>
    13ee:	52 e0       	ldi	r21, 0x02	; 2
    13f0:	75 2e       	mov	r7, r21
    13f2:	d3 c0       	rjmp	.+422    	; 0x159a <put_fat+0x202>
		case FS_FAT12 :
			bc = (UINT)clst; bc += bc / 2;
    13f4:	8a 01       	movw	r16, r20
    13f6:	16 95       	lsr	r17
    13f8:	07 95       	ror	r16
    13fa:	0c 0d       	add	r16, r12
    13fc:	1d 1d       	adc	r17, r13
			res = move_window(fs, fs->fatbase + (bc / SS(fs)));
    13fe:	a8 01       	movw	r20, r16
    1400:	45 2f       	mov	r20, r21
    1402:	55 27       	eor	r21, r21
    1404:	46 95       	lsr	r20
    1406:	60 e0       	ldi	r22, 0x00	; 0
    1408:	70 e0       	ldi	r23, 0x00	; 0
    140a:	8e 8d       	ldd	r24, Y+30	; 0x1e
    140c:	9f 8d       	ldd	r25, Y+31	; 0x1f
    140e:	a8 a1       	ldd	r26, Y+32	; 0x20
    1410:	b9 a1       	ldd	r27, Y+33	; 0x21
    1412:	48 0f       	add	r20, r24
    1414:	59 1f       	adc	r21, r25
    1416:	6a 1f       	adc	r22, r26
    1418:	7b 1f       	adc	r23, r27
    141a:	ce 01       	movw	r24, r28
    141c:	0e 94 b9 04 	call	0x972	; 0x972 <move_window>
    1420:	78 2e       	mov	r7, r24
			if (res != FR_OK) break;
    1422:	88 23       	and	r24, r24
    1424:	09 f0       	breq	.+2      	; 0x1428 <put_fat+0x90>
    1426:	b9 c0       	rjmp	.+370    	; 0x159a <put_fat+0x202>
			p = &fs->win[bc % SS(fs)];
    1428:	d8 01       	movw	r26, r16
    142a:	b1 70       	andi	r27, 0x01	; 1
			*p = (clst & 1) ? ((*p & 0x0F) | ((BYTE)val << 4)) : (BYTE)val;
    142c:	21 e0       	ldi	r18, 0x01	; 1
    142e:	e2 2e       	mov	r14, r18
    1430:	f1 2c       	mov	r15, r1
    1432:	ec 20       	and	r14, r12
    1434:	fd 20       	and	r15, r13
    1436:	e1 14       	cp	r14, r1
    1438:	f1 04       	cpc	r15, r1
    143a:	51 f0       	breq	.+20     	; 0x1450 <put_fat+0xb8>
    143c:	fe 01       	movw	r30, r28
    143e:	ea 0f       	add	r30, r26
    1440:	fb 1f       	adc	r31, r27
    1442:	86 a5       	ldd	r24, Z+46	; 0x2e
    1444:	8f 70       	andi	r24, 0x0F	; 15
    1446:	98 2d       	mov	r25, r8
    1448:	92 95       	swap	r25
    144a:	90 7f       	andi	r25, 0xF0	; 240
    144c:	98 2b       	or	r25, r24
    144e:	01 c0       	rjmp	.+2      	; 0x1452 <put_fat+0xba>
    1450:	98 2d       	mov	r25, r8
    1452:	ac 0f       	add	r26, r28
    1454:	bd 1f       	adc	r27, r29
    1456:	9e 96       	adiw	r26, 0x2e	; 46
    1458:	9c 93       	st	X, r25
			bc++;
    145a:	0f 5f       	subi	r16, 0xFF	; 255
    145c:	1f 4f       	sbci	r17, 0xFF	; 255
			fs->wflag = 1;
    145e:	81 e0       	ldi	r24, 0x01	; 1
    1460:	8c 83       	std	Y+4, r24	; 0x04
			res = move_window(fs, fs->fatbase + (bc / SS(fs)));
    1462:	a8 01       	movw	r20, r16
    1464:	45 2f       	mov	r20, r21
    1466:	55 27       	eor	r21, r21
    1468:	46 95       	lsr	r20
    146a:	60 e0       	ldi	r22, 0x00	; 0
    146c:	70 e0       	ldi	r23, 0x00	; 0
    146e:	8e 8d       	ldd	r24, Y+30	; 0x1e
    1470:	9f 8d       	ldd	r25, Y+31	; 0x1f
    1472:	a8 a1       	ldd	r26, Y+32	; 0x20
    1474:	b9 a1       	ldd	r27, Y+33	; 0x21
    1476:	48 0f       	add	r20, r24
    1478:	59 1f       	adc	r21, r25
    147a:	6a 1f       	adc	r22, r26
    147c:	7b 1f       	adc	r23, r27
    147e:	ce 01       	movw	r24, r28
    1480:	0e 94 b9 04 	call	0x972	; 0x972 <move_window>
    1484:	78 2e       	mov	r7, r24
			if (res != FR_OK) break;
    1486:	88 23       	and	r24, r24
    1488:	09 f0       	breq	.+2      	; 0x148c <put_fat+0xf4>
    148a:	87 c0       	rjmp	.+270    	; 0x159a <put_fat+0x202>
			p = &fs->win[bc % SS(fs)];
    148c:	a8 01       	movw	r20, r16
    148e:	51 70       	andi	r21, 0x01	; 1
			*p = (clst & 1) ? (BYTE)(val >> 4) : ((*p & 0xF0) | ((BYTE)(val >> 8) & 0x0F));
    1490:	ef 28       	or	r14, r15
    1492:	49 f0       	breq	.+18     	; 0x14a6 <put_fat+0x10e>
    1494:	84 e0       	ldi	r24, 0x04	; 4
    1496:	b6 94       	lsr	r11
    1498:	a7 94       	ror	r10
    149a:	97 94       	ror	r9
    149c:	87 94       	ror	r8
    149e:	8a 95       	dec	r24
    14a0:	d1 f7       	brne	.-12     	; 0x1496 <put_fat+0xfe>
    14a2:	68 2d       	mov	r22, r8
    14a4:	0b c0       	rjmp	.+22     	; 0x14bc <put_fat+0x124>
    14a6:	fe 01       	movw	r30, r28
    14a8:	e4 0f       	add	r30, r20
    14aa:	f5 1f       	adc	r31, r21
    14ac:	66 a5       	ldd	r22, Z+46	; 0x2e
    14ae:	60 7f       	andi	r22, 0xF0	; 240
    14b0:	bb 27       	eor	r27, r27
    14b2:	ab 2d       	mov	r26, r11
    14b4:	9a 2d       	mov	r25, r10
    14b6:	89 2d       	mov	r24, r9
    14b8:	8f 70       	andi	r24, 0x0F	; 15
    14ba:	68 2b       	or	r22, r24
    14bc:	4c 0f       	add	r20, r28
    14be:	5d 1f       	adc	r21, r29
    14c0:	da 01       	movw	r26, r20
    14c2:	9e 96       	adiw	r26, 0x2e	; 46
    14c4:	6c 93       	st	X, r22
    14c6:	69 c0       	rjmp	.+210    	; 0x159a <put_fat+0x202>
			break;

		case FS_FAT16 :
			res = move_window(fs, fs->fatbase + (clst / (SS(fs) / 2)));
    14c8:	45 2f       	mov	r20, r21
    14ca:	56 2f       	mov	r21, r22
    14cc:	67 2f       	mov	r22, r23
    14ce:	77 27       	eor	r23, r23
    14d0:	8e 8d       	ldd	r24, Y+30	; 0x1e
    14d2:	9f 8d       	ldd	r25, Y+31	; 0x1f
    14d4:	a8 a1       	ldd	r26, Y+32	; 0x20
    14d6:	b9 a1       	ldd	r27, Y+33	; 0x21
    14d8:	48 0f       	add	r20, r24
    14da:	59 1f       	adc	r21, r25
    14dc:	6a 1f       	adc	r22, r26
    14de:	7b 1f       	adc	r23, r27
    14e0:	ce 01       	movw	r24, r28
    14e2:	0e 94 b9 04 	call	0x972	; 0x972 <move_window>
    14e6:	78 2e       	mov	r7, r24
			if (res != FR_OK) break;
    14e8:	88 23       	and	r24, r24
    14ea:	09 f0       	breq	.+2      	; 0x14ee <put_fat+0x156>
    14ec:	56 c0       	rjmp	.+172    	; 0x159a <put_fat+0x202>
			p = &fs->win[clst * 2 % SS(fs)];
    14ee:	cc 0c       	add	r12, r12
    14f0:	dd 1c       	adc	r13, r13
    14f2:	ee 1c       	adc	r14, r14
    14f4:	ff 1c       	adc	r15, r15
    14f6:	f6 01       	movw	r30, r12
    14f8:	f1 70       	andi	r31, 0x01	; 1
			ST_WORD(p, (WORD)val);
    14fa:	de 01       	movw	r26, r28
    14fc:	ae 0f       	add	r26, r30
    14fe:	bf 1f       	adc	r27, r31
    1500:	9e 96       	adiw	r26, 0x2e	; 46
    1502:	8c 92       	st	X, r8
    1504:	9e 97       	sbiw	r26, 0x2e	; 46
    1506:	fd 01       	movw	r30, r26
    1508:	89 2d       	mov	r24, r9
    150a:	99 27       	eor	r25, r25
    150c:	87 a7       	std	Z+47, r24	; 0x2f
    150e:	45 c0       	rjmp	.+138    	; 0x159a <put_fat+0x202>
			break;

		case FS_FAT32 :
			res = move_window(fs, fs->fatbase + (clst / (SS(fs) / 4)));
    1510:	e7 e0       	ldi	r30, 0x07	; 7
    1512:	76 95       	lsr	r23
    1514:	67 95       	ror	r22
    1516:	57 95       	ror	r21
    1518:	47 95       	ror	r20
    151a:	ea 95       	dec	r30
    151c:	d1 f7       	brne	.-12     	; 0x1512 <put_fat+0x17a>
    151e:	8e 8d       	ldd	r24, Y+30	; 0x1e
    1520:	9f 8d       	ldd	r25, Y+31	; 0x1f
    1522:	a8 a1       	ldd	r26, Y+32	; 0x20
    1524:	b9 a1       	ldd	r27, Y+33	; 0x21
    1526:	48 0f       	add	r20, r24
    1528:	59 1f       	adc	r21, r25
    152a:	6a 1f       	adc	r22, r26
    152c:	7b 1f       	adc	r23, r27
    152e:	ce 01       	movw	r24, r28
    1530:	0e 94 b9 04 	call	0x972	; 0x972 <move_window>
    1534:	78 2e       	mov	r7, r24
			if (res != FR_OK) break;
    1536:	88 23       	and	r24, r24
    1538:	81 f5       	brne	.+96     	; 0x159a <put_fat+0x202>
			p = &fs->win[clst * 4 % SS(fs)];
    153a:	32 e0       	ldi	r19, 0x02	; 2
    153c:	cc 0c       	add	r12, r12
    153e:	dd 1c       	adc	r13, r13
    1540:	ee 1c       	adc	r14, r14
    1542:	ff 1c       	adc	r15, r15
    1544:	3a 95       	dec	r19
    1546:	d1 f7       	brne	.-12     	; 0x153c <put_fat+0x1a4>
    1548:	f6 01       	movw	r30, r12
    154a:	f1 70       	andi	r31, 0x01	; 1
    154c:	be 96       	adiw	r30, 0x2e	; 46
    154e:	be 01       	movw	r22, r28
    1550:	6e 0f       	add	r22, r30
    1552:	7f 1f       	adc	r23, r31
    1554:	be 97       	sbiw	r30, 0x2e	; 46
			val |= LD_DWORD(p) & 0xF0000000;
    1556:	db 01       	movw	r26, r22
    1558:	13 96       	adiw	r26, 0x03	; 3
    155a:	8c 91       	ld	r24, X
    155c:	90 e0       	ldi	r25, 0x00	; 0
    155e:	a0 e0       	ldi	r26, 0x00	; 0
    1560:	b0 e0       	ldi	r27, 0x00	; 0
    1562:	b8 2f       	mov	r27, r24
    1564:	aa 27       	eor	r26, r26
    1566:	99 27       	eor	r25, r25
    1568:	88 27       	eor	r24, r24
    156a:	ec 0f       	add	r30, r28
    156c:	fd 1f       	adc	r31, r29
    156e:	80 70       	andi	r24, 0x00	; 0
    1570:	90 70       	andi	r25, 0x00	; 0
    1572:	a0 70       	andi	r26, 0x00	; 0
    1574:	b0 7f       	andi	r27, 0xF0	; 240
    1576:	88 29       	or	r24, r8
    1578:	99 29       	or	r25, r9
    157a:	aa 29       	or	r26, r10
    157c:	bb 29       	or	r27, r11
			ST_DWORD(p, val);
    157e:	86 a7       	std	Z+46, r24	; 0x2e
    1580:	29 2f       	mov	r18, r25
    1582:	33 27       	eor	r19, r19
    1584:	fb 01       	movw	r30, r22
    1586:	21 83       	std	Z+1, r18	; 0x01
    1588:	9d 01       	movw	r18, r26
    158a:	44 27       	eor	r20, r20
    158c:	55 27       	eor	r21, r21
    158e:	22 83       	std	Z+2, r18	; 0x02
    1590:	8b 2f       	mov	r24, r27
    1592:	99 27       	eor	r25, r25
    1594:	aa 27       	eor	r26, r26
    1596:	bb 27       	eor	r27, r27
    1598:	83 83       	std	Z+3, r24	; 0x03
			break;

		default :
			res = FR_INT_ERR;
		}
		fs->wflag = 1;
    159a:	81 e0       	ldi	r24, 0x01	; 1
    159c:	8c 83       	std	Y+4, r24	; 0x04
    159e:	02 c0       	rjmp	.+4      	; 0x15a4 <put_fat+0x20c>
    15a0:	62 e0       	ldi	r22, 0x02	; 2
    15a2:	76 2e       	mov	r7, r22
	}

	return res;
}
    15a4:	87 2d       	mov	r24, r7
    15a6:	df 91       	pop	r29
    15a8:	cf 91       	pop	r28
    15aa:	1f 91       	pop	r17
    15ac:	0f 91       	pop	r16
    15ae:	ff 90       	pop	r15
    15b0:	ef 90       	pop	r14
    15b2:	df 90       	pop	r13
    15b4:	cf 90       	pop	r12
    15b6:	bf 90       	pop	r11
    15b8:	af 90       	pop	r10
    15ba:	9f 90       	pop	r9
    15bc:	8f 90       	pop	r8
    15be:	7f 90       	pop	r7
    15c0:	08 95       	ret

000015c2 <get_fat>:

DWORD get_fat (	/* 0xFFFFFFFF:Disk error, 1:Internal error, Else:Cluster status */
	FATFS* fs,	/* File system object */
	DWORD clst	/* Cluster# to get the link information */
)
{
    15c2:	bf 92       	push	r11
    15c4:	cf 92       	push	r12
    15c6:	df 92       	push	r13
    15c8:	ef 92       	push	r14
    15ca:	ff 92       	push	r15
    15cc:	0f 93       	push	r16
    15ce:	1f 93       	push	r17
    15d0:	cf 93       	push	r28
    15d2:	df 93       	push	r29
    15d4:	ec 01       	movw	r28, r24
    15d6:	7a 01       	movw	r14, r20
    15d8:	8b 01       	movw	r16, r22
	UINT wc, bc;
	BYTE *p;


	if (clst < 2 || clst >= fs->n_fatent)	/* Check range */
    15da:	42 30       	cpi	r20, 0x02	; 2
    15dc:	51 05       	cpc	r21, r1
    15de:	61 05       	cpc	r22, r1
    15e0:	71 05       	cpc	r23, r1
    15e2:	08 f4       	brcc	.+2      	; 0x15e6 <get_fat+0x24>
    15e4:	e5 c0       	rjmp	.+458    	; 0x17b0 <get_fat+0x1ee>
    15e6:	8a 89       	ldd	r24, Y+18	; 0x12
    15e8:	9b 89       	ldd	r25, Y+19	; 0x13
    15ea:	ac 89       	ldd	r26, Y+20	; 0x14
    15ec:	bd 89       	ldd	r27, Y+21	; 0x15
    15ee:	48 17       	cp	r20, r24
    15f0:	59 07       	cpc	r21, r25
    15f2:	6a 07       	cpc	r22, r26
    15f4:	7b 07       	cpc	r23, r27
    15f6:	08 f0       	brcs	.+2      	; 0x15fa <get_fat+0x38>
    15f8:	db c0       	rjmp	.+438    	; 0x17b0 <get_fat+0x1ee>
		return 1;

	switch (fs->fs_type) {
    15fa:	88 81       	ld	r24, Y
    15fc:	82 30       	cpi	r24, 0x02	; 2
    15fe:	09 f4       	brne	.+2      	; 0x1602 <get_fat+0x40>
    1600:	5b c0       	rjmp	.+182    	; 0x16b8 <get_fat+0xf6>
    1602:	83 30       	cpi	r24, 0x03	; 3
    1604:	09 f4       	brne	.+2      	; 0x1608 <get_fat+0x46>
    1606:	7d c0       	rjmp	.+250    	; 0x1702 <get_fat+0x140>
    1608:	81 30       	cpi	r24, 0x01	; 1
    160a:	09 f0       	breq	.+2      	; 0x160e <get_fat+0x4c>
    160c:	d1 c0       	rjmp	.+418    	; 0x17b0 <get_fat+0x1ee>
	case FS_FAT12 :
		bc = (UINT)clst; bc += bc / 2;
    160e:	6a 01       	movw	r12, r20
    1610:	d6 94       	lsr	r13
    1612:	c7 94       	ror	r12
    1614:	c4 0e       	add	r12, r20
    1616:	d5 1e       	adc	r13, r21
		if (move_window(fs, fs->fatbase + (bc / SS(fs)))) break;
    1618:	a6 01       	movw	r20, r12
    161a:	45 2f       	mov	r20, r21
    161c:	55 27       	eor	r21, r21
    161e:	46 95       	lsr	r20
    1620:	60 e0       	ldi	r22, 0x00	; 0
    1622:	70 e0       	ldi	r23, 0x00	; 0
    1624:	8e 8d       	ldd	r24, Y+30	; 0x1e
    1626:	9f 8d       	ldd	r25, Y+31	; 0x1f
    1628:	a8 a1       	ldd	r26, Y+32	; 0x20
    162a:	b9 a1       	ldd	r27, Y+33	; 0x21
    162c:	48 0f       	add	r20, r24
    162e:	59 1f       	adc	r21, r25
    1630:	6a 1f       	adc	r22, r26
    1632:	7b 1f       	adc	r23, r27
    1634:	ce 01       	movw	r24, r28
    1636:	0e 94 b9 04 	call	0x972	; 0x972 <move_window>
    163a:	88 23       	and	r24, r24
    163c:	09 f0       	breq	.+2      	; 0x1640 <get_fat+0x7e>
    163e:	be c0       	rjmp	.+380    	; 0x17bc <get_fat+0x1fa>
		wc = fs->win[bc % SS(fs)]; bc++;
    1640:	f6 01       	movw	r30, r12
    1642:	f1 70       	andi	r31, 0x01	; 1
    1644:	ec 0f       	add	r30, r28
    1646:	fd 1f       	adc	r31, r29
    1648:	b6 a4       	ldd	r11, Z+46	; 0x2e
    164a:	08 94       	sec
    164c:	c1 1c       	adc	r12, r1
    164e:	d1 1c       	adc	r13, r1
		if (move_window(fs, fs->fatbase + (bc / SS(fs)))) break;
    1650:	a6 01       	movw	r20, r12
    1652:	45 2f       	mov	r20, r21
    1654:	55 27       	eor	r21, r21
    1656:	46 95       	lsr	r20
    1658:	60 e0       	ldi	r22, 0x00	; 0
    165a:	70 e0       	ldi	r23, 0x00	; 0
    165c:	8e 8d       	ldd	r24, Y+30	; 0x1e
    165e:	9f 8d       	ldd	r25, Y+31	; 0x1f
    1660:	a8 a1       	ldd	r26, Y+32	; 0x20
    1662:	b9 a1       	ldd	r27, Y+33	; 0x21
    1664:	48 0f       	add	r20, r24
    1666:	59 1f       	adc	r21, r25
    1668:	6a 1f       	adc	r22, r26
    166a:	7b 1f       	adc	r23, r27
    166c:	ce 01       	movw	r24, r28
    166e:	0e 94 b9 04 	call	0x972	; 0x972 <move_window>
    1672:	88 23       	and	r24, r24
    1674:	09 f0       	breq	.+2      	; 0x1678 <get_fat+0xb6>
    1676:	a2 c0       	rjmp	.+324    	; 0x17bc <get_fat+0x1fa>

	switch (fs->fs_type) {
	case FS_FAT12 :
		bc = (UINT)clst; bc += bc / 2;
		if (move_window(fs, fs->fatbase + (bc / SS(fs)))) break;
		wc = fs->win[bc % SS(fs)]; bc++;
    1678:	2b 2d       	mov	r18, r11
    167a:	30 e0       	ldi	r19, 0x00	; 0
		if (move_window(fs, fs->fatbase + (bc / SS(fs)))) break;
		wc |= fs->win[bc % SS(fs)] << 8;
    167c:	af ef       	ldi	r26, 0xFF	; 255
    167e:	b1 e0       	ldi	r27, 0x01	; 1
    1680:	ca 22       	and	r12, r26
    1682:	db 22       	and	r13, r27
    1684:	cc 0e       	add	r12, r28
    1686:	dd 1e       	adc	r13, r29
    1688:	f6 01       	movw	r30, r12
    168a:	96 a5       	ldd	r25, Z+46	; 0x2e
    168c:	80 e0       	ldi	r24, 0x00	; 0
    168e:	28 2b       	or	r18, r24
    1690:	39 2b       	or	r19, r25
		return clst & 1 ? wc >> 4 : (wc & 0xFFF);
    1692:	c7 01       	movw	r24, r14
    1694:	81 70       	andi	r24, 0x01	; 1
    1696:	90 70       	andi	r25, 0x00	; 0
    1698:	89 2b       	or	r24, r25
    169a:	31 f0       	breq	.+12     	; 0x16a8 <get_fat+0xe6>
    169c:	44 e0       	ldi	r20, 0x04	; 4
    169e:	36 95       	lsr	r19
    16a0:	27 95       	ror	r18
    16a2:	4a 95       	dec	r20
    16a4:	e1 f7       	brne	.-8      	; 0x169e <get_fat+0xdc>
    16a6:	29 c0       	rjmp	.+82     	; 0x16fa <get_fat+0x138>
    16a8:	79 01       	movw	r14, r18
    16aa:	00 e0       	ldi	r16, 0x00	; 0
    16ac:	10 e0       	ldi	r17, 0x00	; 0
    16ae:	8f ef       	ldi	r24, 0xFF	; 255
    16b0:	9f e0       	ldi	r25, 0x0F	; 15
    16b2:	a0 e0       	ldi	r26, 0x00	; 0
    16b4:	b0 e0       	ldi	r27, 0x00	; 0
    16b6:	77 c0       	rjmp	.+238    	; 0x17a6 <get_fat+0x1e4>

	case FS_FAT16 :
		if (move_window(fs, fs->fatbase + (clst / (SS(fs) / 2)))) break;
    16b8:	45 2f       	mov	r20, r21
    16ba:	56 2f       	mov	r21, r22
    16bc:	67 2f       	mov	r22, r23
    16be:	77 27       	eor	r23, r23
    16c0:	8e 8d       	ldd	r24, Y+30	; 0x1e
    16c2:	9f 8d       	ldd	r25, Y+31	; 0x1f
    16c4:	a8 a1       	ldd	r26, Y+32	; 0x20
    16c6:	b9 a1       	ldd	r27, Y+33	; 0x21
    16c8:	48 0f       	add	r20, r24
    16ca:	59 1f       	adc	r21, r25
    16cc:	6a 1f       	adc	r22, r26
    16ce:	7b 1f       	adc	r23, r27
    16d0:	ce 01       	movw	r24, r28
    16d2:	0e 94 b9 04 	call	0x972	; 0x972 <move_window>
    16d6:	88 23       	and	r24, r24
    16d8:	09 f0       	breq	.+2      	; 0x16dc <get_fat+0x11a>
    16da:	70 c0       	rjmp	.+224    	; 0x17bc <get_fat+0x1fa>
		p = &fs->win[clst * 2 % SS(fs)];
    16dc:	ee 0c       	add	r14, r14
    16de:	ff 1c       	adc	r15, r15
    16e0:	00 1f       	adc	r16, r16
    16e2:	11 1f       	adc	r17, r17
    16e4:	d7 01       	movw	r26, r14
    16e6:	b1 70       	andi	r27, 0x01	; 1
		return LD_WORD(p);
    16e8:	fe 01       	movw	r30, r28
    16ea:	ea 0f       	add	r30, r26
    16ec:	fb 1f       	adc	r31, r27
    16ee:	26 a5       	ldd	r18, Z+46	; 0x2e
    16f0:	30 e0       	ldi	r19, 0x00	; 0
    16f2:	97 a5       	ldd	r25, Z+47	; 0x2f
    16f4:	80 e0       	ldi	r24, 0x00	; 0
    16f6:	28 2b       	or	r18, r24
    16f8:	39 2b       	or	r19, r25
    16fa:	79 01       	movw	r14, r18
    16fc:	00 e0       	ldi	r16, 0x00	; 0
    16fe:	10 e0       	ldi	r17, 0x00	; 0
    1700:	61 c0       	rjmp	.+194    	; 0x17c4 <get_fat+0x202>

	case FS_FAT32 :
		if (move_window(fs, fs->fatbase + (clst / (SS(fs) / 4)))) break;
    1702:	97 e0       	ldi	r25, 0x07	; 7
    1704:	76 95       	lsr	r23
    1706:	67 95       	ror	r22
    1708:	57 95       	ror	r21
    170a:	47 95       	ror	r20
    170c:	9a 95       	dec	r25
    170e:	d1 f7       	brne	.-12     	; 0x1704 <get_fat+0x142>
    1710:	8e 8d       	ldd	r24, Y+30	; 0x1e
    1712:	9f 8d       	ldd	r25, Y+31	; 0x1f
    1714:	a8 a1       	ldd	r26, Y+32	; 0x20
    1716:	b9 a1       	ldd	r27, Y+33	; 0x21
    1718:	48 0f       	add	r20, r24
    171a:	59 1f       	adc	r21, r25
    171c:	6a 1f       	adc	r22, r26
    171e:	7b 1f       	adc	r23, r27
    1720:	ce 01       	movw	r24, r28
    1722:	0e 94 b9 04 	call	0x972	; 0x972 <move_window>
    1726:	88 23       	and	r24, r24
    1728:	09 f0       	breq	.+2      	; 0x172c <get_fat+0x16a>
    172a:	48 c0       	rjmp	.+144    	; 0x17bc <get_fat+0x1fa>
		p = &fs->win[clst * 4 % SS(fs)];
    172c:	82 e0       	ldi	r24, 0x02	; 2
    172e:	ee 0c       	add	r14, r14
    1730:	ff 1c       	adc	r15, r15
    1732:	00 1f       	adc	r16, r16
    1734:	11 1f       	adc	r17, r17
    1736:	8a 95       	dec	r24
    1738:	d1 f7       	brne	.-12     	; 0x172e <get_fat+0x16c>
    173a:	f7 01       	movw	r30, r14
    173c:	f1 70       	andi	r31, 0x01	; 1
    173e:	be 96       	adiw	r30, 0x2e	; 46
    1740:	9e 01       	movw	r18, r28
    1742:	2e 0f       	add	r18, r30
    1744:	3f 1f       	adc	r19, r31
    1746:	be 97       	sbiw	r30, 0x2e	; 46
		return LD_DWORD(p) & 0x0FFFFFFF;
    1748:	d9 01       	movw	r26, r18
    174a:	12 96       	adiw	r26, 0x02	; 2
    174c:	8c 91       	ld	r24, X
    174e:	90 e0       	ldi	r25, 0x00	; 0
    1750:	a0 e0       	ldi	r26, 0x00	; 0
    1752:	b0 e0       	ldi	r27, 0x00	; 0
    1754:	8c 01       	movw	r16, r24
    1756:	ff 24       	eor	r15, r15
    1758:	ee 24       	eor	r14, r14
    175a:	d9 01       	movw	r26, r18
    175c:	13 96       	adiw	r26, 0x03	; 3
    175e:	8c 91       	ld	r24, X
    1760:	90 e0       	ldi	r25, 0x00	; 0
    1762:	a0 e0       	ldi	r26, 0x00	; 0
    1764:	b0 e0       	ldi	r27, 0x00	; 0
    1766:	b8 2f       	mov	r27, r24
    1768:	aa 27       	eor	r26, r26
    176a:	99 27       	eor	r25, r25
    176c:	88 27       	eor	r24, r24
    176e:	e8 2a       	or	r14, r24
    1770:	f9 2a       	or	r15, r25
    1772:	0a 2b       	or	r16, r26
    1774:	1b 2b       	or	r17, r27
    1776:	d9 01       	movw	r26, r18
    1778:	11 96       	adiw	r26, 0x01	; 1
    177a:	9c 91       	ld	r25, X
    177c:	80 e0       	ldi	r24, 0x00	; 0
    177e:	a0 e0       	ldi	r26, 0x00	; 0
    1780:	b0 e0       	ldi	r27, 0x00	; 0
    1782:	e8 2a       	or	r14, r24
    1784:	f9 2a       	or	r15, r25
    1786:	0a 2b       	or	r16, r26
    1788:	1b 2b       	or	r17, r27
    178a:	ec 0f       	add	r30, r28
    178c:	fd 1f       	adc	r31, r29
    178e:	86 a5       	ldd	r24, Z+46	; 0x2e
    1790:	90 e0       	ldi	r25, 0x00	; 0
    1792:	a0 e0       	ldi	r26, 0x00	; 0
    1794:	b0 e0       	ldi	r27, 0x00	; 0
    1796:	e8 2a       	or	r14, r24
    1798:	f9 2a       	or	r15, r25
    179a:	0a 2b       	or	r16, r26
    179c:	1b 2b       	or	r17, r27
    179e:	8f ef       	ldi	r24, 0xFF	; 255
    17a0:	9f ef       	ldi	r25, 0xFF	; 255
    17a2:	af ef       	ldi	r26, 0xFF	; 255
    17a4:	bf e0       	ldi	r27, 0x0F	; 15
    17a6:	e8 22       	and	r14, r24
    17a8:	f9 22       	and	r15, r25
    17aa:	0a 23       	and	r16, r26
    17ac:	1b 23       	and	r17, r27
    17ae:	0a c0       	rjmp	.+20     	; 0x17c4 <get_fat+0x202>
    17b0:	61 e0       	ldi	r22, 0x01	; 1
    17b2:	e6 2e       	mov	r14, r22
    17b4:	f1 2c       	mov	r15, r1
    17b6:	01 2d       	mov	r16, r1
    17b8:	11 2d       	mov	r17, r1
    17ba:	04 c0       	rjmp	.+8      	; 0x17c4 <get_fat+0x202>
    17bc:	ee 24       	eor	r14, r14
    17be:	ea 94       	dec	r14
    17c0:	fe 2c       	mov	r15, r14
    17c2:	87 01       	movw	r16, r14
	default:
		return 1;
	}

	return 0xFFFFFFFF;	/* An error occurred at the disk I/O layer */
}
    17c4:	b7 01       	movw	r22, r14
    17c6:	c8 01       	movw	r24, r16
    17c8:	df 91       	pop	r29
    17ca:	cf 91       	pop	r28
    17cc:	1f 91       	pop	r17
    17ce:	0f 91       	pop	r16
    17d0:	ff 90       	pop	r15
    17d2:	ef 90       	pop	r14
    17d4:	df 90       	pop	r13
    17d6:	cf 90       	pop	r12
    17d8:	bf 90       	pop	r11
    17da:	08 95       	ret

000017dc <dir_sdi>:
static
FRESULT dir_sdi (
	DIR* dp,		/* Pointer to directory object */
	UINT idx		/* Index of directory table */
)
{
    17dc:	6f 92       	push	r6
    17de:	7f 92       	push	r7
    17e0:	8f 92       	push	r8
    17e2:	9f 92       	push	r9
    17e4:	af 92       	push	r10
    17e6:	bf 92       	push	r11
    17e8:	cf 92       	push	r12
    17ea:	df 92       	push	r13
    17ec:	ef 92       	push	r14
    17ee:	ff 92       	push	r15
    17f0:	0f 93       	push	r16
    17f2:	1f 93       	push	r17
    17f4:	cf 93       	push	r28
    17f6:	df 93       	push	r29
    17f8:	3c 01       	movw	r6, r24
    17fa:	4b 01       	movw	r8, r22
	DWORD clst, sect;
	UINT ic;


	dp->index = (WORD)idx;	/* Current index */
    17fc:	dc 01       	movw	r26, r24
    17fe:	15 96       	adiw	r26, 0x05	; 5
    1800:	7c 93       	st	X, r23
    1802:	6e 93       	st	-X, r22
    1804:	14 97       	sbiw	r26, 0x04	; 4
	clst = dp->sclust;		/* Table start cluster (0:root) */
    1806:	16 96       	adiw	r26, 0x06	; 6
    1808:	ed 90       	ld	r14, X+
    180a:	fd 90       	ld	r15, X+
    180c:	0d 91       	ld	r16, X+
    180e:	1c 91       	ld	r17, X
    1810:	19 97       	sbiw	r26, 0x09	; 9
	if (clst == 1 || clst >= dp->fs->n_fatent)	/* Check start cluster range */
    1812:	b1 e0       	ldi	r27, 0x01	; 1
    1814:	eb 16       	cp	r14, r27
    1816:	f1 04       	cpc	r15, r1
    1818:	01 05       	cpc	r16, r1
    181a:	11 05       	cpc	r17, r1
    181c:	09 f4       	brne	.+2      	; 0x1820 <dir_sdi+0x44>
    181e:	c3 c0       	rjmp	.+390    	; 0x19a6 <dir_sdi+0x1ca>
    1820:	dc 01       	movw	r26, r24
    1822:	ed 91       	ld	r30, X+
    1824:	fc 91       	ld	r31, X
    1826:	82 89       	ldd	r24, Z+18	; 0x12
    1828:	93 89       	ldd	r25, Z+19	; 0x13
    182a:	a4 89       	ldd	r26, Z+20	; 0x14
    182c:	b5 89       	ldd	r27, Z+21	; 0x15
    182e:	e8 16       	cp	r14, r24
    1830:	f9 06       	cpc	r15, r25
    1832:	0a 07       	cpc	r16, r26
    1834:	1b 07       	cpc	r17, r27
    1836:	08 f0       	brcs	.+2      	; 0x183a <dir_sdi+0x5e>
    1838:	b6 c0       	rjmp	.+364    	; 0x19a6 <dir_sdi+0x1ca>
		return FR_INT_ERR;
	if (!clst && dp->fs->fs_type == FS_FAT32)	/* Replace cluster# 0 with root cluster# if in FAT32 */
    183a:	e1 14       	cp	r14, r1
    183c:	f1 04       	cpc	r15, r1
    183e:	01 05       	cpc	r16, r1
    1840:	11 05       	cpc	r17, r1
    1842:	c1 f4       	brne	.+48     	; 0x1874 <dir_sdi+0x98>
    1844:	80 81       	ld	r24, Z
    1846:	83 30       	cpi	r24, 0x03	; 3
    1848:	41 f4       	brne	.+16     	; 0x185a <dir_sdi+0x7e>
		clst = dp->fs->dirbase;
    184a:	82 a1       	ldd	r24, Z+34	; 0x22
    184c:	93 a1       	ldd	r25, Z+35	; 0x23
    184e:	a4 a1       	ldd	r26, Z+36	; 0x24
    1850:	b5 a1       	ldd	r27, Z+37	; 0x25

	if (clst == 0) {	/* Static table (root-directory in FAT12/16) */
    1852:	00 97       	sbiw	r24, 0x00	; 0
    1854:	a1 05       	cpc	r26, r1
    1856:	b1 05       	cpc	r27, r1
    1858:	59 f4       	brne	.+22     	; 0x1870 <dir_sdi+0x94>
		if (idx >= dp->fs->n_rootdir)	/* Is index out of range? */
    185a:	80 85       	ldd	r24, Z+8	; 0x08
    185c:	91 85       	ldd	r25, Z+9	; 0x09
    185e:	88 16       	cp	r8, r24
    1860:	99 06       	cpc	r9, r25
    1862:	08 f0       	brcs	.+2      	; 0x1866 <dir_sdi+0x8a>
    1864:	a0 c0       	rjmp	.+320    	; 0x19a6 <dir_sdi+0x1ca>
			return FR_INT_ERR;
		sect = dp->fs->dirbase;
    1866:	22 a1       	ldd	r18, Z+34	; 0x22
    1868:	33 a1       	ldd	r19, Z+35	; 0x23
    186a:	44 a1       	ldd	r20, Z+36	; 0x24
    186c:	55 a1       	ldd	r21, Z+37	; 0x25
    186e:	66 c0       	rjmp	.+204    	; 0x193c <dir_sdi+0x160>
    1870:	7c 01       	movw	r14, r24
    1872:	8d 01       	movw	r16, r26
	}
	else {				/* Dynamic table (root-directory in FAT32 or sub-directory) */
		ic = SS(dp->fs) / SZ_DIR * dp->fs->csize;	/* Entries per cluster */
    1874:	82 81       	ldd	r24, Z+2	; 0x02
    1876:	c8 2e       	mov	r12, r24
    1878:	dd 24       	eor	r13, r13
    187a:	84 e0       	ldi	r24, 0x04	; 4
    187c:	cc 0c       	add	r12, r12
    187e:	dd 1c       	adc	r13, r13
    1880:	8a 95       	dec	r24
    1882:	e1 f7       	brne	.-8      	; 0x187c <dir_sdi+0xa0>
    1884:	26 c0       	rjmp	.+76     	; 0x18d2 <dir_sdi+0xf6>
		while (idx >= ic) {	/* Follow cluster chain */
			clst = get_fat(dp->fs, clst);				/* Get next cluster */
    1886:	ce 01       	movw	r24, r28
    1888:	b8 01       	movw	r22, r16
    188a:	a7 01       	movw	r20, r14
    188c:	0e 94 e1 0a 	call	0x15c2	; 0x15c2 <get_fat>
    1890:	7b 01       	movw	r14, r22
    1892:	8c 01       	movw	r16, r24
			if (clst == 0xFFFFFFFF) return FR_DISK_ERR;	/* Disk error */
    1894:	6f 3f       	cpi	r22, 0xFF	; 255
    1896:	bf ef       	ldi	r27, 0xFF	; 255
    1898:	7b 07       	cpc	r23, r27
    189a:	bf ef       	ldi	r27, 0xFF	; 255
    189c:	8b 07       	cpc	r24, r27
    189e:	bf ef       	ldi	r27, 0xFF	; 255
    18a0:	9b 07       	cpc	r25, r27
    18a2:	11 f4       	brne	.+4      	; 0x18a8 <dir_sdi+0xcc>
    18a4:	81 e0       	ldi	r24, 0x01	; 1
    18a6:	80 c0       	rjmp	.+256    	; 0x19a8 <dir_sdi+0x1cc>
			if (clst < 2 || clst >= dp->fs->n_fatent)	/* Reached to end of table or internal error */
    18a8:	62 30       	cpi	r22, 0x02	; 2
    18aa:	71 05       	cpc	r23, r1
    18ac:	81 05       	cpc	r24, r1
    18ae:	91 05       	cpc	r25, r1
    18b0:	08 f4       	brcc	.+2      	; 0x18b4 <dir_sdi+0xd8>
    18b2:	79 c0       	rjmp	.+242    	; 0x19a6 <dir_sdi+0x1ca>
    18b4:	d3 01       	movw	r26, r6
    18b6:	ed 91       	ld	r30, X+
    18b8:	fc 91       	ld	r31, X
    18ba:	82 89       	ldd	r24, Z+18	; 0x12
    18bc:	93 89       	ldd	r25, Z+19	; 0x13
    18be:	a4 89       	ldd	r26, Z+20	; 0x14
    18c0:	b5 89       	ldd	r27, Z+21	; 0x15
    18c2:	e8 16       	cp	r14, r24
    18c4:	f9 06       	cpc	r15, r25
    18c6:	0a 07       	cpc	r16, r26
    18c8:	1b 07       	cpc	r17, r27
    18ca:	08 f0       	brcs	.+2      	; 0x18ce <dir_sdi+0xf2>
    18cc:	6c c0       	rjmp	.+216    	; 0x19a6 <dir_sdi+0x1ca>
				return FR_INT_ERR;
			idx -= ic;
    18ce:	8c 18       	sub	r8, r12
    18d0:	9d 08       	sbc	r9, r13
    18d2:	f3 01       	movw	r30, r6
    18d4:	c0 81       	ld	r28, Z
    18d6:	d1 81       	ldd	r29, Z+1	; 0x01
			return FR_INT_ERR;
		sect = dp->fs->dirbase;
	}
	else {				/* Dynamic table (root-directory in FAT32 or sub-directory) */
		ic = SS(dp->fs) / SZ_DIR * dp->fs->csize;	/* Entries per cluster */
		while (idx >= ic) {	/* Follow cluster chain */
    18d8:	8c 14       	cp	r8, r12
    18da:	9d 04       	cpc	r9, r13
    18dc:	a0 f6       	brcc	.-88     	; 0x1886 <dir_sdi+0xaa>
DWORD clust2sect (	/* !=0: Sector number, 0: Failed - invalid cluster# */
	FATFS* fs,		/* File system object */
	DWORD clst		/* Cluster# to be converted */
)
{
	clst -= 2;
    18de:	be ef       	ldi	r27, 0xFE	; 254
    18e0:	ab 2e       	mov	r10, r27
    18e2:	bf ef       	ldi	r27, 0xFF	; 255
    18e4:	bb 2e       	mov	r11, r27
    18e6:	bf ef       	ldi	r27, 0xFF	; 255
    18e8:	cb 2e       	mov	r12, r27
    18ea:	bf ef       	ldi	r27, 0xFF	; 255
    18ec:	db 2e       	mov	r13, r27
    18ee:	ae 0c       	add	r10, r14
    18f0:	bf 1c       	adc	r11, r15
    18f2:	c0 1e       	adc	r12, r16
    18f4:	d1 1e       	adc	r13, r17
	if (clst >= (fs->n_fatent - 2)) return 0;		/* Invalid cluster# */
    18f6:	8a 89       	ldd	r24, Y+18	; 0x12
    18f8:	9b 89       	ldd	r25, Y+19	; 0x13
    18fa:	ac 89       	ldd	r26, Y+20	; 0x14
    18fc:	bd 89       	ldd	r27, Y+21	; 0x15
    18fe:	02 97       	sbiw	r24, 0x02	; 2
    1900:	a1 09       	sbc	r26, r1
    1902:	b1 09       	sbc	r27, r1
    1904:	a8 16       	cp	r10, r24
    1906:	b9 06       	cpc	r11, r25
    1908:	ca 06       	cpc	r12, r26
    190a:	db 06       	cpc	r13, r27
    190c:	28 f0       	brcs	.+10     	; 0x1918 <dir_sdi+0x13c>
    190e:	20 e0       	ldi	r18, 0x00	; 0
    1910:	30 e0       	ldi	r19, 0x00	; 0
    1912:	40 e0       	ldi	r20, 0x00	; 0
    1914:	50 e0       	ldi	r21, 0x00	; 0
    1916:	12 c0       	rjmp	.+36     	; 0x193c <dir_sdi+0x160>
	return clst * fs->csize + fs->database;
    1918:	2a 81       	ldd	r18, Y+2	; 0x02
    191a:	30 e0       	ldi	r19, 0x00	; 0
    191c:	40 e0       	ldi	r20, 0x00	; 0
    191e:	50 e0       	ldi	r21, 0x00	; 0
    1920:	c6 01       	movw	r24, r12
    1922:	b5 01       	movw	r22, r10
    1924:	0e 94 ba 27 	call	0x4f74	; 0x4f74 <__mulsi3>
    1928:	9b 01       	movw	r18, r22
    192a:	ac 01       	movw	r20, r24
    192c:	8e a1       	ldd	r24, Y+38	; 0x26
    192e:	9f a1       	ldd	r25, Y+39	; 0x27
    1930:	a8 a5       	ldd	r26, Y+40	; 0x28
    1932:	b9 a5       	ldd	r27, Y+41	; 0x29
    1934:	28 0f       	add	r18, r24
    1936:	39 1f       	adc	r19, r25
    1938:	4a 1f       	adc	r20, r26
    193a:	5b 1f       	adc	r21, r27
				return FR_INT_ERR;
			idx -= ic;
		}
		sect = clust2sect(dp->fs, clst);
	}
	dp->clust = clst;	/* Current cluster# */
    193c:	d3 01       	movw	r26, r6
    193e:	1a 96       	adiw	r26, 0x0a	; 10
    1940:	ed 92       	st	X+, r14
    1942:	fd 92       	st	X+, r15
    1944:	0d 93       	st	X+, r16
    1946:	1c 93       	st	X, r17
    1948:	1d 97       	sbiw	r26, 0x0d	; 13
	if (!sect) return FR_INT_ERR;
    194a:	21 15       	cp	r18, r1
    194c:	31 05       	cpc	r19, r1
    194e:	41 05       	cpc	r20, r1
    1950:	51 05       	cpc	r21, r1
    1952:	49 f1       	breq	.+82     	; 0x19a6 <dir_sdi+0x1ca>
	dp->sect = sect + idx / (SS(dp->fs) / SZ_DIR);					/* Sector# of the directory entry */
    1954:	c4 01       	movw	r24, r8
    1956:	a4 e0       	ldi	r26, 0x04	; 4
    1958:	96 95       	lsr	r25
    195a:	87 95       	ror	r24
    195c:	aa 95       	dec	r26
    195e:	e1 f7       	brne	.-8      	; 0x1958 <dir_sdi+0x17c>
    1960:	a0 e0       	ldi	r26, 0x00	; 0
    1962:	b0 e0       	ldi	r27, 0x00	; 0
    1964:	82 0f       	add	r24, r18
    1966:	93 1f       	adc	r25, r19
    1968:	a4 1f       	adc	r26, r20
    196a:	b5 1f       	adc	r27, r21
    196c:	f3 01       	movw	r30, r6
    196e:	86 87       	std	Z+14, r24	; 0x0e
    1970:	97 87       	std	Z+15, r25	; 0x0f
    1972:	a0 8b       	std	Z+16, r26	; 0x10
    1974:	b1 8b       	std	Z+17, r27	; 0x11
	dp->dir = dp->fs->win + (idx % (SS(dp->fs) / SZ_DIR)) * SZ_DIR;	/* Ptr to the entry in the sector */
    1976:	ff e0       	ldi	r31, 0x0F	; 15
    1978:	8f 22       	and	r8, r31
    197a:	99 24       	eor	r9, r9
    197c:	f5 e0       	ldi	r31, 0x05	; 5
    197e:	88 0c       	add	r8, r8
    1980:	99 1c       	adc	r9, r9
    1982:	fa 95       	dec	r31
    1984:	e1 f7       	brne	.-8      	; 0x197e <dir_sdi+0x1a2>
    1986:	8e e2       	ldi	r24, 0x2E	; 46
    1988:	90 e0       	ldi	r25, 0x00	; 0
    198a:	88 0e       	add	r8, r24
    198c:	99 1e       	adc	r9, r25
    198e:	d3 01       	movw	r26, r6
    1990:	8d 91       	ld	r24, X+
    1992:	9c 91       	ld	r25, X
    1994:	11 97       	sbiw	r26, 0x01	; 1
    1996:	88 0d       	add	r24, r8
    1998:	99 1d       	adc	r25, r9
    199a:	53 96       	adiw	r26, 0x13	; 19
    199c:	9c 93       	st	X, r25
    199e:	8e 93       	st	-X, r24
    19a0:	52 97       	sbiw	r26, 0x12	; 18
    19a2:	80 e0       	ldi	r24, 0x00	; 0
    19a4:	01 c0       	rjmp	.+2      	; 0x19a8 <dir_sdi+0x1cc>

	return FR_OK;
    19a6:	82 e0       	ldi	r24, 0x02	; 2
}
    19a8:	df 91       	pop	r29
    19aa:	cf 91       	pop	r28
    19ac:	1f 91       	pop	r17
    19ae:	0f 91       	pop	r16
    19b0:	ff 90       	pop	r15
    19b2:	ef 90       	pop	r14
    19b4:	df 90       	pop	r13
    19b6:	cf 90       	pop	r12
    19b8:	bf 90       	pop	r11
    19ba:	af 90       	pop	r10
    19bc:	9f 90       	pop	r9
    19be:	8f 90       	pop	r8
    19c0:	7f 90       	pop	r7
    19c2:	6f 90       	pop	r6
    19c4:	08 95       	ret

000019c6 <create_chain>:
static
DWORD create_chain (	/* 0:No free cluster, 1:Internal error, 0xFFFFFFFF:Disk error, >=2:New cluster# */
	FATFS* fs,			/* File system object */
	DWORD clst			/* Cluster# to stretch. 0 means create a new chain. */
)
{
    19c6:	4f 92       	push	r4
    19c8:	5f 92       	push	r5
    19ca:	6f 92       	push	r6
    19cc:	7f 92       	push	r7
    19ce:	8f 92       	push	r8
    19d0:	9f 92       	push	r9
    19d2:	af 92       	push	r10
    19d4:	bf 92       	push	r11
    19d6:	cf 92       	push	r12
    19d8:	df 92       	push	r13
    19da:	ef 92       	push	r14
    19dc:	ff 92       	push	r15
    19de:	0f 93       	push	r16
    19e0:	1f 93       	push	r17
    19e2:	cf 93       	push	r28
    19e4:	df 93       	push	r29
    19e6:	ec 01       	movw	r28, r24
    19e8:	2a 01       	movw	r4, r20
    19ea:	3b 01       	movw	r6, r22
	DWORD cs, ncl, scl;
	FRESULT res;


	if (clst == 0) {		/* Create a new chain */
    19ec:	41 15       	cp	r20, r1
    19ee:	51 05       	cpc	r21, r1
    19f0:	61 05       	cpc	r22, r1
    19f2:	71 05       	cpc	r23, r1
    19f4:	99 f4       	brne	.+38     	; 0x1a1c <create_chain+0x56>
		scl = fs->last_clust;			/* Get suggested start point */
    19f6:	8a 84       	ldd	r8, Y+10	; 0x0a
    19f8:	9b 84       	ldd	r9, Y+11	; 0x0b
    19fa:	ac 84       	ldd	r10, Y+12	; 0x0c
    19fc:	bd 84       	ldd	r11, Y+13	; 0x0d
		if (!scl || scl >= fs->n_fatent) scl = 1;
    19fe:	81 14       	cp	r8, r1
    1a00:	91 04       	cpc	r9, r1
    1a02:	a1 04       	cpc	r10, r1
    1a04:	b1 04       	cpc	r11, r1
    1a06:	51 f1       	breq	.+84     	; 0x1a5c <create_chain+0x96>
    1a08:	8a 89       	ldd	r24, Y+18	; 0x12
    1a0a:	9b 89       	ldd	r25, Y+19	; 0x13
    1a0c:	ac 89       	ldd	r26, Y+20	; 0x14
    1a0e:	bd 89       	ldd	r27, Y+21	; 0x15
    1a10:	88 16       	cp	r8, r24
    1a12:	99 06       	cpc	r9, r25
    1a14:	aa 06       	cpc	r10, r26
    1a16:	bb 06       	cpc	r11, r27
    1a18:	08 f5       	brcc	.+66     	; 0x1a5c <create_chain+0x96>
    1a1a:	25 c0       	rjmp	.+74     	; 0x1a66 <create_chain+0xa0>
	}
	else {					/* Stretch the current chain */
		cs = get_fat(fs, clst);			/* Check the cluster status */
    1a1c:	0e 94 e1 0a 	call	0x15c2	; 0x15c2 <get_fat>
    1a20:	9b 01       	movw	r18, r22
    1a22:	ac 01       	movw	r20, r24
		if (cs < 2) return 1;			/* Invalid value */
    1a24:	62 30       	cpi	r22, 0x02	; 2
    1a26:	71 05       	cpc	r23, r1
    1a28:	81 05       	cpc	r24, r1
    1a2a:	91 05       	cpc	r25, r1
    1a2c:	08 f4       	brcc	.+2      	; 0x1a30 <create_chain+0x6a>
    1a2e:	94 c0       	rjmp	.+296    	; 0x1b58 <create_chain+0x192>
		if (cs == 0xFFFFFFFF) return cs;	/* A disk error occurred */
    1a30:	2f 3f       	cpi	r18, 0xFF	; 255
    1a32:	8f ef       	ldi	r24, 0xFF	; 255
    1a34:	38 07       	cpc	r19, r24
    1a36:	8f ef       	ldi	r24, 0xFF	; 255
    1a38:	48 07       	cpc	r20, r24
    1a3a:	8f ef       	ldi	r24, 0xFF	; 255
    1a3c:	58 07       	cpc	r21, r24
    1a3e:	09 f4       	brne	.+2      	; 0x1a42 <create_chain+0x7c>
    1a40:	99 c0       	rjmp	.+306    	; 0x1b74 <create_chain+0x1ae>
		if (cs < fs->n_fatent) return cs;	/* It is already followed by next cluster */
    1a42:	8a 89       	ldd	r24, Y+18	; 0x12
    1a44:	9b 89       	ldd	r25, Y+19	; 0x13
    1a46:	ac 89       	ldd	r26, Y+20	; 0x14
    1a48:	bd 89       	ldd	r27, Y+21	; 0x15
    1a4a:	28 17       	cp	r18, r24
    1a4c:	39 07       	cpc	r19, r25
    1a4e:	4a 07       	cpc	r20, r26
    1a50:	5b 07       	cpc	r21, r27
    1a52:	08 f4       	brcc	.+2      	; 0x1a56 <create_chain+0x90>
    1a54:	8f c0       	rjmp	.+286    	; 0x1b74 <create_chain+0x1ae>
    1a56:	53 01       	movw	r10, r6
    1a58:	42 01       	movw	r8, r4
    1a5a:	05 c0       	rjmp	.+10     	; 0x1a66 <create_chain+0xa0>
    1a5c:	21 e0       	ldi	r18, 0x01	; 1
    1a5e:	82 2e       	mov	r8, r18
    1a60:	91 2c       	mov	r9, r1
    1a62:	a1 2c       	mov	r10, r1
    1a64:	b1 2c       	mov	r11, r1
    1a66:	75 01       	movw	r14, r10
    1a68:	64 01       	movw	r12, r8
		scl = clst;
	}

	ncl = scl;				/* Start cluster */
	for (;;) {
		ncl++;							/* Next cluster */
    1a6a:	08 94       	sec
    1a6c:	c1 1c       	adc	r12, r1
    1a6e:	d1 1c       	adc	r13, r1
    1a70:	e1 1c       	adc	r14, r1
    1a72:	f1 1c       	adc	r15, r1
		if (ncl >= fs->n_fatent) {		/* Check wrap around */
    1a74:	8a 89       	ldd	r24, Y+18	; 0x12
    1a76:	9b 89       	ldd	r25, Y+19	; 0x13
    1a78:	ac 89       	ldd	r26, Y+20	; 0x14
    1a7a:	bd 89       	ldd	r27, Y+21	; 0x15
    1a7c:	c8 16       	cp	r12, r24
    1a7e:	d9 06       	cpc	r13, r25
    1a80:	ea 06       	cpc	r14, r26
    1a82:	fb 06       	cpc	r15, r27
    1a84:	60 f0       	brcs	.+24     	; 0x1a9e <create_chain+0xd8>
			ncl = 2;
			if (ncl > scl) return 0;	/* No free cluster */
    1a86:	22 e0       	ldi	r18, 0x02	; 2
    1a88:	82 16       	cp	r8, r18
    1a8a:	91 04       	cpc	r9, r1
    1a8c:	a1 04       	cpc	r10, r1
    1a8e:	b1 04       	cpc	r11, r1
    1a90:	08 f4       	brcc	.+2      	; 0x1a94 <create_chain+0xce>
    1a92:	6c c0       	rjmp	.+216    	; 0x1b6c <create_chain+0x1a6>
    1a94:	92 e0       	ldi	r25, 0x02	; 2
    1a96:	c9 2e       	mov	r12, r25
    1a98:	d1 2c       	mov	r13, r1
    1a9a:	e1 2c       	mov	r14, r1
    1a9c:	f1 2c       	mov	r15, r1
		}
		cs = get_fat(fs, ncl);			/* Get the cluster status */
    1a9e:	ce 01       	movw	r24, r28
    1aa0:	b7 01       	movw	r22, r14
    1aa2:	a6 01       	movw	r20, r12
    1aa4:	0e 94 e1 0a 	call	0x15c2	; 0x15c2 <get_fat>
    1aa8:	9b 01       	movw	r18, r22
    1aaa:	ac 01       	movw	r20, r24
		if (cs == 0) break;				/* Found a free cluster */
    1aac:	61 15       	cp	r22, r1
    1aae:	71 05       	cpc	r23, r1
    1ab0:	81 05       	cpc	r24, r1
    1ab2:	91 05       	cpc	r25, r1
    1ab4:	a9 f0       	breq	.+42     	; 0x1ae0 <create_chain+0x11a>
		if (cs == 0xFFFFFFFF || cs == 1)/* An error occurred */
    1ab6:	2f 3f       	cpi	r18, 0xFF	; 255
    1ab8:	8f ef       	ldi	r24, 0xFF	; 255
    1aba:	38 07       	cpc	r19, r24
    1abc:	8f ef       	ldi	r24, 0xFF	; 255
    1abe:	48 07       	cpc	r20, r24
    1ac0:	8f ef       	ldi	r24, 0xFF	; 255
    1ac2:	58 07       	cpc	r21, r24
    1ac4:	09 f4       	brne	.+2      	; 0x1ac8 <create_chain+0x102>
    1ac6:	56 c0       	rjmp	.+172    	; 0x1b74 <create_chain+0x1ae>
    1ac8:	21 30       	cpi	r18, 0x01	; 1
    1aca:	31 05       	cpc	r19, r1
    1acc:	41 05       	cpc	r20, r1
    1ace:	51 05       	cpc	r21, r1
    1ad0:	09 f4       	brne	.+2      	; 0x1ad4 <create_chain+0x10e>
    1ad2:	50 c0       	rjmp	.+160    	; 0x1b74 <create_chain+0x1ae>
			return cs;
		if (ncl == scl) return 0;		/* No free cluster */
    1ad4:	c8 14       	cp	r12, r8
    1ad6:	d9 04       	cpc	r13, r9
    1ad8:	ea 04       	cpc	r14, r10
    1ada:	fb 04       	cpc	r15, r11
    1adc:	31 f6       	brne	.-116    	; 0x1a6a <create_chain+0xa4>
    1ade:	46 c0       	rjmp	.+140    	; 0x1b6c <create_chain+0x1a6>
    1ae0:	bc 2c       	mov	r11, r12
    1ae2:	ad 2c       	mov	r10, r13
    1ae4:	9e 2c       	mov	r9, r14
    1ae6:	8f 2c       	mov	r8, r15
	}

	res = put_fat(fs, ncl, 0x0FFFFFFF);	/* Mark the new cluster "last link" */
    1ae8:	ce 01       	movw	r24, r28
    1aea:	a6 01       	movw	r20, r12
    1aec:	b7 01       	movw	r22, r14
    1aee:	0f ef       	ldi	r16, 0xFF	; 255
    1af0:	1f ef       	ldi	r17, 0xFF	; 255
    1af2:	2f ef       	ldi	r18, 0xFF	; 255
    1af4:	3f e0       	ldi	r19, 0x0F	; 15
    1af6:	0e 94 cc 09 	call	0x1398	; 0x1398 <put_fat>
	if (res == FR_OK && clst != 0) {
    1afa:	88 23       	and	r24, r24
    1afc:	59 f5       	brne	.+86     	; 0x1b54 <create_chain+0x18e>
    1afe:	41 14       	cp	r4, r1
    1b00:	51 04       	cpc	r5, r1
    1b02:	61 04       	cpc	r6, r1
    1b04:	71 04       	cpc	r7, r1
    1b06:	49 f0       	breq	.+18     	; 0x1b1a <create_chain+0x154>
		res = put_fat(fs, clst, ncl);	/* Link it to the previous one if needed */
    1b08:	ce 01       	movw	r24, r28
    1b0a:	b3 01       	movw	r22, r6
    1b0c:	a2 01       	movw	r20, r4
    1b0e:	86 01       	movw	r16, r12
    1b10:	97 01       	movw	r18, r14
    1b12:	0e 94 cc 09 	call	0x1398	; 0x1398 <put_fat>
	}
	if (res == FR_OK) {
    1b16:	88 23       	and	r24, r24
    1b18:	e9 f4       	brne	.+58     	; 0x1b54 <create_chain+0x18e>
		fs->last_clust = ncl;			/* Update FSINFO */
    1b1a:	ba 86       	std	Y+10, r11	; 0x0a
    1b1c:	ab 86       	std	Y+11, r10	; 0x0b
    1b1e:	9c 86       	std	Y+12, r9	; 0x0c
    1b20:	8d 86       	std	Y+13, r8	; 0x0d
		if (fs->free_clust != 0xFFFFFFFF) {
    1b22:	8e 85       	ldd	r24, Y+14	; 0x0e
    1b24:	9f 85       	ldd	r25, Y+15	; 0x0f
    1b26:	a8 89       	ldd	r26, Y+16	; 0x10
    1b28:	b9 89       	ldd	r27, Y+17	; 0x11
    1b2a:	8f 3f       	cpi	r24, 0xFF	; 255
    1b2c:	2f ef       	ldi	r18, 0xFF	; 255
    1b2e:	92 07       	cpc	r25, r18
    1b30:	2f ef       	ldi	r18, 0xFF	; 255
    1b32:	a2 07       	cpc	r26, r18
    1b34:	2f ef       	ldi	r18, 0xFF	; 255
    1b36:	b2 07       	cpc	r27, r18
    1b38:	51 f0       	breq	.+20     	; 0x1b4e <create_chain+0x188>
			fs->free_clust--;
    1b3a:	01 97       	sbiw	r24, 0x01	; 1
    1b3c:	a1 09       	sbc	r26, r1
    1b3e:	b1 09       	sbc	r27, r1
    1b40:	8e 87       	std	Y+14, r24	; 0x0e
    1b42:	9f 87       	std	Y+15, r25	; 0x0f
    1b44:	a8 8b       	std	Y+16, r26	; 0x10
    1b46:	b9 8b       	std	Y+17, r27	; 0x11
			fs->fsi_flag |= 1;
    1b48:	8d 81       	ldd	r24, Y+5	; 0x05
    1b4a:	81 60       	ori	r24, 0x01	; 1
    1b4c:	8d 83       	std	Y+5, r24	; 0x05
    1b4e:	a7 01       	movw	r20, r14
    1b50:	96 01       	movw	r18, r12
    1b52:	10 c0       	rjmp	.+32     	; 0x1b74 <create_chain+0x1ae>
		}
	} else {
		ncl = (res == FR_DISK_ERR) ? 0xFFFFFFFF : 1;
    1b54:	81 30       	cpi	r24, 0x01	; 1
    1b56:	29 f0       	breq	.+10     	; 0x1b62 <create_chain+0x19c>
    1b58:	21 e0       	ldi	r18, 0x01	; 1
    1b5a:	30 e0       	ldi	r19, 0x00	; 0
    1b5c:	40 e0       	ldi	r20, 0x00	; 0
    1b5e:	50 e0       	ldi	r21, 0x00	; 0
    1b60:	09 c0       	rjmp	.+18     	; 0x1b74 <create_chain+0x1ae>
    1b62:	2f ef       	ldi	r18, 0xFF	; 255
    1b64:	3f ef       	ldi	r19, 0xFF	; 255
    1b66:	4f ef       	ldi	r20, 0xFF	; 255
    1b68:	5f ef       	ldi	r21, 0xFF	; 255
    1b6a:	04 c0       	rjmp	.+8      	; 0x1b74 <create_chain+0x1ae>
    1b6c:	20 e0       	ldi	r18, 0x00	; 0
    1b6e:	30 e0       	ldi	r19, 0x00	; 0
    1b70:	40 e0       	ldi	r20, 0x00	; 0
    1b72:	50 e0       	ldi	r21, 0x00	; 0
	}

	return ncl;		/* Return new cluster number or error code */
}
    1b74:	b9 01       	movw	r22, r18
    1b76:	ca 01       	movw	r24, r20
    1b78:	df 91       	pop	r29
    1b7a:	cf 91       	pop	r28
    1b7c:	1f 91       	pop	r17
    1b7e:	0f 91       	pop	r16
    1b80:	ff 90       	pop	r15
    1b82:	ef 90       	pop	r14
    1b84:	df 90       	pop	r13
    1b86:	cf 90       	pop	r12
    1b88:	bf 90       	pop	r11
    1b8a:	af 90       	pop	r10
    1b8c:	9f 90       	pop	r9
    1b8e:	8f 90       	pop	r8
    1b90:	7f 90       	pop	r7
    1b92:	6f 90       	pop	r6
    1b94:	5f 90       	pop	r5
    1b96:	4f 90       	pop	r4
    1b98:	08 95       	ret

00001b9a <dir_next>:
static
FRESULT dir_next (	/* FR_OK:Succeeded, FR_NO_FILE:End of table, FR_DENIED:Could not stretch */
	DIR* dp,		/* Pointer to the directory object */
	int stretch		/* 0: Do not stretch table, 1: Stretch table if needed */
)
{
    1b9a:	4f 92       	push	r4
    1b9c:	5f 92       	push	r5
    1b9e:	6f 92       	push	r6
    1ba0:	7f 92       	push	r7
    1ba2:	8f 92       	push	r8
    1ba4:	9f 92       	push	r9
    1ba6:	af 92       	push	r10
    1ba8:	bf 92       	push	r11
    1baa:	cf 92       	push	r12
    1bac:	df 92       	push	r13
    1bae:	ef 92       	push	r14
    1bb0:	ff 92       	push	r15
    1bb2:	0f 93       	push	r16
    1bb4:	1f 93       	push	r17
    1bb6:	cf 93       	push	r28
    1bb8:	df 93       	push	r29
    1bba:	ec 01       	movw	r28, r24
    1bbc:	6b 01       	movw	r12, r22
	DWORD clst;
	UINT i;


	i = dp->index + 1;
    1bbe:	6c 80       	ldd	r6, Y+4	; 0x04
    1bc0:	7d 80       	ldd	r7, Y+5	; 0x05
    1bc2:	08 94       	sec
    1bc4:	61 1c       	adc	r6, r1
    1bc6:	71 1c       	adc	r7, r1
	if (!(i & 0xFFFF) || !dp->sect)	/* Report EOT when index has reached 65535 */
    1bc8:	61 14       	cp	r6, r1
    1bca:	71 04       	cpc	r7, r1
    1bcc:	09 f4       	brne	.+2      	; 0x1bd0 <dir_next+0x36>
    1bce:	4c c1       	rjmp	.+664    	; 0x1e68 <dir_next+0x2ce>
    1bd0:	8e 85       	ldd	r24, Y+14	; 0x0e
    1bd2:	9f 85       	ldd	r25, Y+15	; 0x0f
    1bd4:	a8 89       	ldd	r26, Y+16	; 0x10
    1bd6:	b9 89       	ldd	r27, Y+17	; 0x11
    1bd8:	00 97       	sbiw	r24, 0x00	; 0
    1bda:	a1 05       	cpc	r26, r1
    1bdc:	b1 05       	cpc	r27, r1
    1bde:	09 f4       	brne	.+2      	; 0x1be2 <dir_next+0x48>
    1be0:	43 c1       	rjmp	.+646    	; 0x1e68 <dir_next+0x2ce>
		return FR_NO_FILE;

	if (!(i % (SS(dp->fs) / SZ_DIR))) {	/* Sector changed? */
    1be2:	1f e0       	ldi	r17, 0x0F	; 15
    1be4:	41 2e       	mov	r4, r17
    1be6:	51 2c       	mov	r5, r1
    1be8:	46 20       	and	r4, r6
    1bea:	57 20       	and	r5, r7
    1bec:	41 14       	cp	r4, r1
    1bee:	51 04       	cpc	r5, r1
    1bf0:	09 f0       	breq	.+2      	; 0x1bf4 <dir_next+0x5a>
    1bf2:	27 c1       	rjmp	.+590    	; 0x1e42 <dir_next+0x2a8>
		dp->sect++;					/* Next sector */
    1bf4:	01 96       	adiw	r24, 0x01	; 1
    1bf6:	a1 1d       	adc	r26, r1
    1bf8:	b1 1d       	adc	r27, r1
    1bfa:	8e 87       	std	Y+14, r24	; 0x0e
    1bfc:	9f 87       	std	Y+15, r25	; 0x0f
    1bfe:	a8 8b       	std	Y+16, r26	; 0x10
    1c00:	b9 8b       	std	Y+17, r27	; 0x11

		if (!dp->clust) {		/* Static table */
    1c02:	4a 85       	ldd	r20, Y+10	; 0x0a
    1c04:	5b 85       	ldd	r21, Y+11	; 0x0b
    1c06:	6c 85       	ldd	r22, Y+12	; 0x0c
    1c08:	7d 85       	ldd	r23, Y+13	; 0x0d
    1c0a:	e8 81       	ld	r30, Y
    1c0c:	f9 81       	ldd	r31, Y+1	; 0x01
    1c0e:	41 15       	cp	r20, r1
    1c10:	51 05       	cpc	r21, r1
    1c12:	61 05       	cpc	r22, r1
    1c14:	71 05       	cpc	r23, r1
    1c16:	39 f4       	brne	.+14     	; 0x1c26 <dir_next+0x8c>
			if (i >= dp->fs->n_rootdir)	/* Report EOT if it reached end of static table */
    1c18:	80 85       	ldd	r24, Z+8	; 0x08
    1c1a:	91 85       	ldd	r25, Z+9	; 0x09
    1c1c:	68 16       	cp	r6, r24
    1c1e:	79 06       	cpc	r7, r25
    1c20:	08 f4       	brcc	.+2      	; 0x1c24 <dir_next+0x8a>
    1c22:	0f c1       	rjmp	.+542    	; 0x1e42 <dir_next+0x2a8>
    1c24:	21 c1       	rjmp	.+578    	; 0x1e68 <dir_next+0x2ce>
				return FR_NO_FILE;
		}
		else {					/* Dynamic table */
			if (((i / (SS(dp->fs) / SZ_DIR)) & (dp->fs->csize - 1)) == 0) {	/* Cluster changed? */
    1c26:	82 81       	ldd	r24, Z+2	; 0x02
    1c28:	90 e0       	ldi	r25, 0x00	; 0
    1c2a:	01 97       	sbiw	r24, 0x01	; 1
    1c2c:	93 01       	movw	r18, r6
    1c2e:	a4 e0       	ldi	r26, 0x04	; 4
    1c30:	36 95       	lsr	r19
    1c32:	27 95       	ror	r18
    1c34:	aa 95       	dec	r26
    1c36:	e1 f7       	brne	.-8      	; 0x1c30 <dir_next+0x96>
    1c38:	82 23       	and	r24, r18
    1c3a:	93 23       	and	r25, r19
    1c3c:	89 2b       	or	r24, r25
    1c3e:	09 f0       	breq	.+2      	; 0x1c42 <dir_next+0xa8>
    1c40:	00 c1       	rjmp	.+512    	; 0x1e42 <dir_next+0x2a8>
				clst = get_fat(dp->fs, dp->clust);				/* Get next cluster */
    1c42:	cf 01       	movw	r24, r30
    1c44:	0e 94 e1 0a 	call	0x15c2	; 0x15c2 <get_fat>
    1c48:	7b 01       	movw	r14, r22
    1c4a:	8c 01       	movw	r16, r24
				if (clst <= 1) return FR_INT_ERR;
    1c4c:	62 30       	cpi	r22, 0x02	; 2
    1c4e:	71 05       	cpc	r23, r1
    1c50:	81 05       	cpc	r24, r1
    1c52:	91 05       	cpc	r25, r1
    1c54:	08 f4       	brcc	.+2      	; 0x1c58 <dir_next+0xbe>
    1c56:	0a c1       	rjmp	.+532    	; 0x1e6c <dir_next+0x2d2>
				if (clst == 0xFFFFFFFF) return FR_DISK_ERR;
    1c58:	8f ef       	ldi	r24, 0xFF	; 255
    1c5a:	e8 16       	cp	r14, r24
    1c5c:	8f ef       	ldi	r24, 0xFF	; 255
    1c5e:	f8 06       	cpc	r15, r24
    1c60:	8f ef       	ldi	r24, 0xFF	; 255
    1c62:	08 07       	cpc	r16, r24
    1c64:	8f ef       	ldi	r24, 0xFF	; 255
    1c66:	18 07       	cpc	r17, r24
    1c68:	09 f4       	brne	.+2      	; 0x1c6c <dir_next+0xd2>
    1c6a:	02 c1       	rjmp	.+516    	; 0x1e70 <dir_next+0x2d6>
				if (clst >= dp->fs->n_fatent) {					/* If it reached end of dynamic table, */
    1c6c:	e8 81       	ld	r30, Y
    1c6e:	f9 81       	ldd	r31, Y+1	; 0x01
    1c70:	82 89       	ldd	r24, Z+18	; 0x12
    1c72:	93 89       	ldd	r25, Z+19	; 0x13
    1c74:	a4 89       	ldd	r26, Z+20	; 0x14
    1c76:	b5 89       	ldd	r27, Z+21	; 0x15
    1c78:	e8 16       	cp	r14, r24
    1c7a:	f9 06       	cpc	r15, r25
    1c7c:	0a 07       	cpc	r16, r26
    1c7e:	1b 07       	cpc	r17, r27
    1c80:	08 f4       	brcc	.+2      	; 0x1c84 <dir_next+0xea>
    1c82:	a6 c0       	rjmp	.+332    	; 0x1dd0 <dir_next+0x236>
#if !_FS_READONLY
					UINT c;
					if (!stretch) return FR_NO_FILE;			/* If do not stretch, report EOT */
    1c84:	cd 28       	or	r12, r13
    1c86:	09 f4       	brne	.+2      	; 0x1c8a <dir_next+0xf0>
    1c88:	ef c0       	rjmp	.+478    	; 0x1e68 <dir_next+0x2ce>
					clst = create_chain(dp->fs, dp->clust);		/* Stretch cluster chain */
    1c8a:	4a 85       	ldd	r20, Y+10	; 0x0a
    1c8c:	5b 85       	ldd	r21, Y+11	; 0x0b
    1c8e:	6c 85       	ldd	r22, Y+12	; 0x0c
    1c90:	7d 85       	ldd	r23, Y+13	; 0x0d
    1c92:	cf 01       	movw	r24, r30
    1c94:	0e 94 e3 0c 	call	0x19c6	; 0x19c6 <create_chain>
    1c98:	7b 01       	movw	r14, r22
    1c9a:	8c 01       	movw	r16, r24
					if (clst == 0) return FR_DENIED;			/* No free cluster */
    1c9c:	61 15       	cp	r22, r1
    1c9e:	71 05       	cpc	r23, r1
    1ca0:	81 05       	cpc	r24, r1
    1ca2:	91 05       	cpc	r25, r1
    1ca4:	11 f4       	brne	.+4      	; 0x1caa <dir_next+0x110>
    1ca6:	87 e0       	ldi	r24, 0x07	; 7
    1ca8:	e4 c0       	rjmp	.+456    	; 0x1e72 <dir_next+0x2d8>
					if (clst == 1) return FR_INT_ERR;
    1caa:	91 e0       	ldi	r25, 0x01	; 1
    1cac:	e9 16       	cp	r14, r25
    1cae:	f1 04       	cpc	r15, r1
    1cb0:	01 05       	cpc	r16, r1
    1cb2:	11 05       	cpc	r17, r1
    1cb4:	09 f4       	brne	.+2      	; 0x1cb8 <dir_next+0x11e>
    1cb6:	da c0       	rjmp	.+436    	; 0x1e6c <dir_next+0x2d2>
					if (clst == 0xFFFFFFFF) return FR_DISK_ERR;
    1cb8:	af ef       	ldi	r26, 0xFF	; 255
    1cba:	ea 16       	cp	r14, r26
    1cbc:	af ef       	ldi	r26, 0xFF	; 255
    1cbe:	fa 06       	cpc	r15, r26
    1cc0:	af ef       	ldi	r26, 0xFF	; 255
    1cc2:	0a 07       	cpc	r16, r26
    1cc4:	af ef       	ldi	r26, 0xFF	; 255
    1cc6:	1a 07       	cpc	r17, r26
    1cc8:	09 f4       	brne	.+2      	; 0x1ccc <dir_next+0x132>
    1cca:	d2 c0       	rjmp	.+420    	; 0x1e70 <dir_next+0x2d6>
					/* Clean-up stretched table */
					if (sync_window(dp->fs)) return FR_DISK_ERR;/* Flush disk access window */
    1ccc:	88 81       	ld	r24, Y
    1cce:	99 81       	ldd	r25, Y+1	; 0x01
    1cd0:	0e 94 5a 04 	call	0x8b4	; 0x8b4 <sync_window>
    1cd4:	88 23       	and	r24, r24
    1cd6:	09 f0       	breq	.+2      	; 0x1cda <dir_next+0x140>
    1cd8:	cb c0       	rjmp	.+406    	; 0x1e70 <dir_next+0x2d6>
}

/* Fill memory */
static
void mem_set (void* dst, int val, UINT cnt) {
	BYTE *d = (BYTE*)dst;
    1cda:	e8 81       	ld	r30, Y
    1cdc:	f9 81       	ldd	r31, Y+1	; 0x01
    1cde:	be 96       	adiw	r30, 0x2e	; 46
    1ce0:	80 e0       	ldi	r24, 0x00	; 0
    1ce2:	92 e0       	ldi	r25, 0x02	; 2
    1ce4:	01 c0       	rjmp	.+2      	; 0x1ce8 <dir_next+0x14e>

	while (cnt--)
		*d++ = (BYTE)val;
    1ce6:	11 92       	st	Z+, r1
/* Fill memory */
static
void mem_set (void* dst, int val, UINT cnt) {
	BYTE *d = (BYTE*)dst;

	while (cnt--)
    1ce8:	01 97       	sbiw	r24, 0x01	; 1
    1cea:	bf ef       	ldi	r27, 0xFF	; 255
    1cec:	8f 3f       	cpi	r24, 0xFF	; 255
    1cee:	9b 07       	cpc	r25, r27
    1cf0:	d1 f7       	brne	.-12     	; 0x1ce6 <dir_next+0x14c>
					if (clst == 1) return FR_INT_ERR;
					if (clst == 0xFFFFFFFF) return FR_DISK_ERR;
					/* Clean-up stretched table */
					if (sync_window(dp->fs)) return FR_DISK_ERR;/* Flush disk access window */
					mem_set(dp->fs->win, 0, SS(dp->fs));		/* Clear window buffer */
					dp->fs->winsect = clust2sect(dp->fs, clst);	/* Cluster start sector */
    1cf2:	88 80       	ld	r8, Y
    1cf4:	99 80       	ldd	r9, Y+1	; 0x01
DWORD clust2sect (	/* !=0: Sector number, 0: Failed - invalid cluster# */
	FATFS* fs,		/* File system object */
	DWORD clst		/* Cluster# to be converted */
)
{
	clst -= 2;
    1cf6:	4e ef       	ldi	r20, 0xFE	; 254
    1cf8:	a4 2e       	mov	r10, r20
    1cfa:	4f ef       	ldi	r20, 0xFF	; 255
    1cfc:	b4 2e       	mov	r11, r20
    1cfe:	4f ef       	ldi	r20, 0xFF	; 255
    1d00:	c4 2e       	mov	r12, r20
    1d02:	4f ef       	ldi	r20, 0xFF	; 255
    1d04:	d4 2e       	mov	r13, r20
    1d06:	ae 0c       	add	r10, r14
    1d08:	bf 1c       	adc	r11, r15
    1d0a:	c0 1e       	adc	r12, r16
    1d0c:	d1 1e       	adc	r13, r17
	if (clst >= (fs->n_fatent - 2)) return 0;		/* Invalid cluster# */
    1d0e:	f4 01       	movw	r30, r8
    1d10:	82 89       	ldd	r24, Z+18	; 0x12
    1d12:	93 89       	ldd	r25, Z+19	; 0x13
    1d14:	a4 89       	ldd	r26, Z+20	; 0x14
    1d16:	b5 89       	ldd	r27, Z+21	; 0x15
    1d18:	02 97       	sbiw	r24, 0x02	; 2
    1d1a:	a1 09       	sbc	r26, r1
    1d1c:	b1 09       	sbc	r27, r1
    1d1e:	a8 16       	cp	r10, r24
    1d20:	b9 06       	cpc	r11, r25
    1d22:	ca 06       	cpc	r12, r26
    1d24:	db 06       	cpc	r13, r27
    1d26:	28 f0       	brcs	.+10     	; 0x1d32 <dir_next+0x198>
    1d28:	20 e0       	ldi	r18, 0x00	; 0
    1d2a:	30 e0       	ldi	r19, 0x00	; 0
    1d2c:	40 e0       	ldi	r20, 0x00	; 0
    1d2e:	50 e0       	ldi	r21, 0x00	; 0
    1d30:	15 c0       	rjmp	.+42     	; 0x1d5c <dir_next+0x1c2>
	return clst * fs->csize + fs->database;
    1d32:	d4 01       	movw	r26, r8
    1d34:	12 96       	adiw	r26, 0x02	; 2
    1d36:	2c 91       	ld	r18, X
    1d38:	30 e0       	ldi	r19, 0x00	; 0
    1d3a:	40 e0       	ldi	r20, 0x00	; 0
    1d3c:	50 e0       	ldi	r21, 0x00	; 0
    1d3e:	c6 01       	movw	r24, r12
    1d40:	b5 01       	movw	r22, r10
    1d42:	0e 94 ba 27 	call	0x4f74	; 0x4f74 <__mulsi3>
    1d46:	9b 01       	movw	r18, r22
    1d48:	ac 01       	movw	r20, r24
    1d4a:	f4 01       	movw	r30, r8
    1d4c:	86 a1       	ldd	r24, Z+38	; 0x26
    1d4e:	97 a1       	ldd	r25, Z+39	; 0x27
    1d50:	a0 a5       	ldd	r26, Z+40	; 0x28
    1d52:	b1 a5       	ldd	r27, Z+41	; 0x29
    1d54:	28 0f       	add	r18, r24
    1d56:	39 1f       	adc	r19, r25
    1d58:	4a 1f       	adc	r20, r26
    1d5a:	5b 1f       	adc	r21, r27
					if (clst == 1) return FR_INT_ERR;
					if (clst == 0xFFFFFFFF) return FR_DISK_ERR;
					/* Clean-up stretched table */
					if (sync_window(dp->fs)) return FR_DISK_ERR;/* Flush disk access window */
					mem_set(dp->fs->win, 0, SS(dp->fs));		/* Clear window buffer */
					dp->fs->winsect = clust2sect(dp->fs, clst);	/* Cluster start sector */
    1d5c:	d4 01       	movw	r26, r8
    1d5e:	9a 96       	adiw	r26, 0x2a	; 42
    1d60:	2d 93       	st	X+, r18
    1d62:	3d 93       	st	X+, r19
    1d64:	4d 93       	st	X+, r20
    1d66:	5c 93       	st	X, r21
    1d68:	9d 97       	sbiw	r26, 0x2d	; 45
    1d6a:	cc 24       	eor	r12, r12
    1d6c:	dd 24       	eor	r13, r13
					for (c = 0; c < dp->fs->csize; c++) {		/* Fill the new cluster with 0 */
						dp->fs->wflag = 1;
    1d6e:	bb 24       	eor	r11, r11
    1d70:	b3 94       	inc	r11
    1d72:	18 c0       	rjmp	.+48     	; 0x1da4 <dir_next+0x20a>
    1d74:	b4 82       	std	Z+4, r11	; 0x04
						if (sync_window(dp->fs)) return FR_DISK_ERR;
    1d76:	88 81       	ld	r24, Y
    1d78:	99 81       	ldd	r25, Y+1	; 0x01
    1d7a:	0e 94 5a 04 	call	0x8b4	; 0x8b4 <sync_window>
    1d7e:	88 23       	and	r24, r24
    1d80:	09 f0       	breq	.+2      	; 0x1d84 <dir_next+0x1ea>
    1d82:	76 c0       	rjmp	.+236    	; 0x1e70 <dir_next+0x2d6>
						dp->fs->winsect++;
    1d84:	e8 81       	ld	r30, Y
    1d86:	f9 81       	ldd	r31, Y+1	; 0x01
    1d88:	82 a5       	ldd	r24, Z+42	; 0x2a
    1d8a:	93 a5       	ldd	r25, Z+43	; 0x2b
    1d8c:	a4 a5       	ldd	r26, Z+44	; 0x2c
    1d8e:	b5 a5       	ldd	r27, Z+45	; 0x2d
    1d90:	01 96       	adiw	r24, 0x01	; 1
    1d92:	a1 1d       	adc	r26, r1
    1d94:	b1 1d       	adc	r27, r1
    1d96:	82 a7       	std	Z+42, r24	; 0x2a
    1d98:	93 a7       	std	Z+43, r25	; 0x2b
    1d9a:	a4 a7       	std	Z+44, r26	; 0x2c
    1d9c:	b5 a7       	std	Z+45, r27	; 0x2d
					if (clst == 0xFFFFFFFF) return FR_DISK_ERR;
					/* Clean-up stretched table */
					if (sync_window(dp->fs)) return FR_DISK_ERR;/* Flush disk access window */
					mem_set(dp->fs->win, 0, SS(dp->fs));		/* Clear window buffer */
					dp->fs->winsect = clust2sect(dp->fs, clst);	/* Cluster start sector */
					for (c = 0; c < dp->fs->csize; c++) {		/* Fill the new cluster with 0 */
    1d9e:	08 94       	sec
    1da0:	c1 1c       	adc	r12, r1
    1da2:	d1 1c       	adc	r13, r1
    1da4:	e8 81       	ld	r30, Y
    1da6:	f9 81       	ldd	r31, Y+1	; 0x01
    1da8:	82 81       	ldd	r24, Z+2	; 0x02
    1daa:	90 e0       	ldi	r25, 0x00	; 0
    1dac:	c8 16       	cp	r12, r24
    1dae:	d9 06       	cpc	r13, r25
    1db0:	08 f3       	brcs	.-62     	; 0x1d74 <dir_next+0x1da>
						dp->fs->wflag = 1;
						if (sync_window(dp->fs)) return FR_DISK_ERR;
						dp->fs->winsect++;
					}
					dp->fs->winsect -= c;						/* Rewind window offset */
    1db2:	96 01       	movw	r18, r12
    1db4:	40 e0       	ldi	r20, 0x00	; 0
    1db6:	50 e0       	ldi	r21, 0x00	; 0
    1db8:	82 a5       	ldd	r24, Z+42	; 0x2a
    1dba:	93 a5       	ldd	r25, Z+43	; 0x2b
    1dbc:	a4 a5       	ldd	r26, Z+44	; 0x2c
    1dbe:	b5 a5       	ldd	r27, Z+45	; 0x2d
    1dc0:	82 1b       	sub	r24, r18
    1dc2:	93 0b       	sbc	r25, r19
    1dc4:	a4 0b       	sbc	r26, r20
    1dc6:	b5 0b       	sbc	r27, r21
    1dc8:	82 a7       	std	Z+42, r24	; 0x2a
    1dca:	93 a7       	std	Z+43, r25	; 0x2b
    1dcc:	a4 a7       	std	Z+44, r26	; 0x2c
    1dce:	b5 a7       	std	Z+45, r27	; 0x2d
#else
					if (!stretch) return FR_NO_FILE;			/* If do not stretch, report EOT (this is to suppress warning) */
					return FR_NO_FILE;							/* Report EOT */
#endif
				}
				dp->clust = clst;				/* Initialize data for new cluster */
    1dd0:	ea 86       	std	Y+10, r14	; 0x0a
    1dd2:	fb 86       	std	Y+11, r15	; 0x0b
    1dd4:	0c 87       	std	Y+12, r16	; 0x0c
    1dd6:	1d 87       	std	Y+13, r17	; 0x0d
				dp->sect = clust2sect(dp->fs, clst);
    1dd8:	c8 80       	ld	r12, Y
    1dda:	d9 80       	ldd	r13, Y+1	; 0x01
DWORD clust2sect (	/* !=0: Sector number, 0: Failed - invalid cluster# */
	FATFS* fs,		/* File system object */
	DWORD clst		/* Cluster# to be converted */
)
{
	clst -= 2;
    1ddc:	8e ef       	ldi	r24, 0xFE	; 254
    1dde:	9f ef       	ldi	r25, 0xFF	; 255
    1de0:	af ef       	ldi	r26, 0xFF	; 255
    1de2:	bf ef       	ldi	r27, 0xFF	; 255
    1de4:	e8 0e       	add	r14, r24
    1de6:	f9 1e       	adc	r15, r25
    1de8:	0a 1f       	adc	r16, r26
    1dea:	1b 1f       	adc	r17, r27
	if (clst >= (fs->n_fatent - 2)) return 0;		/* Invalid cluster# */
    1dec:	f6 01       	movw	r30, r12
    1dee:	82 89       	ldd	r24, Z+18	; 0x12
    1df0:	93 89       	ldd	r25, Z+19	; 0x13
    1df2:	a4 89       	ldd	r26, Z+20	; 0x14
    1df4:	b5 89       	ldd	r27, Z+21	; 0x15
    1df6:	02 97       	sbiw	r24, 0x02	; 2
    1df8:	a1 09       	sbc	r26, r1
    1dfa:	b1 09       	sbc	r27, r1
    1dfc:	e8 16       	cp	r14, r24
    1dfe:	f9 06       	cpc	r15, r25
    1e00:	0a 07       	cpc	r16, r26
    1e02:	1b 07       	cpc	r17, r27
    1e04:	28 f0       	brcs	.+10     	; 0x1e10 <dir_next+0x276>
    1e06:	20 e0       	ldi	r18, 0x00	; 0
    1e08:	30 e0       	ldi	r19, 0x00	; 0
    1e0a:	40 e0       	ldi	r20, 0x00	; 0
    1e0c:	50 e0       	ldi	r21, 0x00	; 0
    1e0e:	15 c0       	rjmp	.+42     	; 0x1e3a <dir_next+0x2a0>
	return clst * fs->csize + fs->database;
    1e10:	d6 01       	movw	r26, r12
    1e12:	12 96       	adiw	r26, 0x02	; 2
    1e14:	2c 91       	ld	r18, X
    1e16:	30 e0       	ldi	r19, 0x00	; 0
    1e18:	40 e0       	ldi	r20, 0x00	; 0
    1e1a:	50 e0       	ldi	r21, 0x00	; 0
    1e1c:	c8 01       	movw	r24, r16
    1e1e:	b7 01       	movw	r22, r14
    1e20:	0e 94 ba 27 	call	0x4f74	; 0x4f74 <__mulsi3>
    1e24:	9b 01       	movw	r18, r22
    1e26:	ac 01       	movw	r20, r24
    1e28:	f6 01       	movw	r30, r12
    1e2a:	86 a1       	ldd	r24, Z+38	; 0x26
    1e2c:	97 a1       	ldd	r25, Z+39	; 0x27
    1e2e:	a0 a5       	ldd	r26, Z+40	; 0x28
    1e30:	b1 a5       	ldd	r27, Z+41	; 0x29
    1e32:	28 0f       	add	r18, r24
    1e34:	39 1f       	adc	r19, r25
    1e36:	4a 1f       	adc	r20, r26
    1e38:	5b 1f       	adc	r21, r27
					if (!stretch) return FR_NO_FILE;			/* If do not stretch, report EOT (this is to suppress warning) */
					return FR_NO_FILE;							/* Report EOT */
#endif
				}
				dp->clust = clst;				/* Initialize data for new cluster */
				dp->sect = clust2sect(dp->fs, clst);
    1e3a:	2e 87       	std	Y+14, r18	; 0x0e
    1e3c:	3f 87       	std	Y+15, r19	; 0x0f
    1e3e:	48 8b       	std	Y+16, r20	; 0x10
    1e40:	59 8b       	std	Y+17, r21	; 0x11
			}
		}
	}

	dp->index = (WORD)i;	/* Current index */
    1e42:	7d 82       	std	Y+5, r7	; 0x05
    1e44:	6c 82       	std	Y+4, r6	; 0x04
	dp->dir = dp->fs->win + (i % (SS(dp->fs) / SZ_DIR)) * SZ_DIR;	/* Current entry in the window */
    1e46:	35 e0       	ldi	r19, 0x05	; 5
    1e48:	44 0c       	add	r4, r4
    1e4a:	55 1c       	adc	r5, r5
    1e4c:	3a 95       	dec	r19
    1e4e:	e1 f7       	brne	.-8      	; 0x1e48 <dir_next+0x2ae>
    1e50:	8e e2       	ldi	r24, 0x2E	; 46
    1e52:	90 e0       	ldi	r25, 0x00	; 0
    1e54:	48 0e       	add	r4, r24
    1e56:	59 1e       	adc	r5, r25
    1e58:	88 81       	ld	r24, Y
    1e5a:	99 81       	ldd	r25, Y+1	; 0x01
    1e5c:	84 0d       	add	r24, r4
    1e5e:	95 1d       	adc	r25, r5
    1e60:	9b 8b       	std	Y+19, r25	; 0x13
    1e62:	8a 8b       	std	Y+18, r24	; 0x12
    1e64:	80 e0       	ldi	r24, 0x00	; 0
    1e66:	05 c0       	rjmp	.+10     	; 0x1e72 <dir_next+0x2d8>

	return FR_OK;
    1e68:	84 e0       	ldi	r24, 0x04	; 4
    1e6a:	03 c0       	rjmp	.+6      	; 0x1e72 <dir_next+0x2d8>
    1e6c:	82 e0       	ldi	r24, 0x02	; 2
    1e6e:	01 c0       	rjmp	.+2      	; 0x1e72 <dir_next+0x2d8>
    1e70:	81 e0       	ldi	r24, 0x01	; 1
}
    1e72:	df 91       	pop	r29
    1e74:	cf 91       	pop	r28
    1e76:	1f 91       	pop	r17
    1e78:	0f 91       	pop	r16
    1e7a:	ff 90       	pop	r15
    1e7c:	ef 90       	pop	r14
    1e7e:	df 90       	pop	r13
    1e80:	cf 90       	pop	r12
    1e82:	bf 90       	pop	r11
    1e84:	af 90       	pop	r10
    1e86:	9f 90       	pop	r9
    1e88:	8f 90       	pop	r8
    1e8a:	7f 90       	pop	r7
    1e8c:	6f 90       	pop	r6
    1e8e:	5f 90       	pop	r5
    1e90:	4f 90       	pop	r4
    1e92:	08 95       	ret

00001e94 <remove_chain>:
static
FRESULT remove_chain (
	FATFS* fs,			/* File system object */
	DWORD clst			/* Cluster# to remove a chain from */
)
{
    1e94:	af 92       	push	r10
    1e96:	bf 92       	push	r11
    1e98:	cf 92       	push	r12
    1e9a:	df 92       	push	r13
    1e9c:	ef 92       	push	r14
    1e9e:	ff 92       	push	r15
    1ea0:	0f 93       	push	r16
    1ea2:	1f 93       	push	r17
    1ea4:	cf 93       	push	r28
    1ea6:	df 93       	push	r29
    1ea8:	ec 01       	movw	r28, r24
    1eaa:	7a 01       	movw	r14, r20
    1eac:	8b 01       	movw	r16, r22
	DWORD nxt;
#if _USE_ERASE
	DWORD scl = clst, ecl = clst, rt[2];
#endif

	if (clst < 2 || clst >= fs->n_fatent) {	/* Check range */
    1eae:	42 30       	cpi	r20, 0x02	; 2
    1eb0:	51 05       	cpc	r21, r1
    1eb2:	61 05       	cpc	r22, r1
    1eb4:	71 05       	cpc	r23, r1
    1eb6:	08 f4       	brcc	.+2      	; 0x1eba <remove_chain+0x26>
    1eb8:	57 c0       	rjmp	.+174    	; 0x1f68 <remove_chain+0xd4>
    1eba:	8a 89       	ldd	r24, Y+18	; 0x12
    1ebc:	9b 89       	ldd	r25, Y+19	; 0x13
    1ebe:	ac 89       	ldd	r26, Y+20	; 0x14
    1ec0:	bd 89       	ldd	r27, Y+21	; 0x15
    1ec2:	48 17       	cp	r20, r24
    1ec4:	59 07       	cpc	r21, r25
    1ec6:	6a 07       	cpc	r22, r26
    1ec8:	7b 07       	cpc	r23, r27
    1eca:	08 f4       	brcc	.+2      	; 0x1ece <remove_chain+0x3a>
    1ecc:	42 c0       	rjmp	.+132    	; 0x1f52 <remove_chain+0xbe>
    1ece:	4c c0       	rjmp	.+152    	; 0x1f68 <remove_chain+0xd4>
		res = FR_INT_ERR;

	} else {
		res = FR_OK;
		while (clst < fs->n_fatent) {			/* Not a last link? */
			nxt = get_fat(fs, clst);			/* Get cluster status */
    1ed0:	ce 01       	movw	r24, r28
    1ed2:	b8 01       	movw	r22, r16
    1ed4:	a7 01       	movw	r20, r14
    1ed6:	0e 94 e1 0a 	call	0x15c2	; 0x15c2 <get_fat>
    1eda:	5b 01       	movw	r10, r22
    1edc:	6c 01       	movw	r12, r24
			if (nxt == 0) break;				/* Empty cluster? */
    1ede:	61 15       	cp	r22, r1
    1ee0:	71 05       	cpc	r23, r1
    1ee2:	81 05       	cpc	r24, r1
    1ee4:	91 05       	cpc	r25, r1
    1ee6:	09 f4       	brne	.+2      	; 0x1eea <remove_chain+0x56>
    1ee8:	41 c0       	rjmp	.+130    	; 0x1f6c <remove_chain+0xd8>
			if (nxt == 1) { res = FR_INT_ERR; break; }	/* Internal error? */
    1eea:	81 e0       	ldi	r24, 0x01	; 1
    1eec:	a8 16       	cp	r10, r24
    1eee:	b1 04       	cpc	r11, r1
    1ef0:	c1 04       	cpc	r12, r1
    1ef2:	d1 04       	cpc	r13, r1
    1ef4:	c9 f1       	breq	.+114    	; 0x1f68 <remove_chain+0xd4>
			if (nxt == 0xFFFFFFFF) { res = FR_DISK_ERR; break; }	/* Disk error? */
    1ef6:	2f ef       	ldi	r18, 0xFF	; 255
    1ef8:	a2 16       	cp	r10, r18
    1efa:	2f ef       	ldi	r18, 0xFF	; 255
    1efc:	b2 06       	cpc	r11, r18
    1efe:	2f ef       	ldi	r18, 0xFF	; 255
    1f00:	c2 06       	cpc	r12, r18
    1f02:	2f ef       	ldi	r18, 0xFF	; 255
    1f04:	d2 06       	cpc	r13, r18
    1f06:	11 f4       	brne	.+4      	; 0x1f0c <remove_chain+0x78>
    1f08:	81 e0       	ldi	r24, 0x01	; 1
    1f0a:	31 c0       	rjmp	.+98     	; 0x1f6e <remove_chain+0xda>
			res = put_fat(fs, clst, 0);			/* Mark the cluster "empty" */
    1f0c:	ce 01       	movw	r24, r28
    1f0e:	b8 01       	movw	r22, r16
    1f10:	a7 01       	movw	r20, r14
    1f12:	00 e0       	ldi	r16, 0x00	; 0
    1f14:	10 e0       	ldi	r17, 0x00	; 0
    1f16:	20 e0       	ldi	r18, 0x00	; 0
    1f18:	30 e0       	ldi	r19, 0x00	; 0
    1f1a:	0e 94 cc 09 	call	0x1398	; 0x1398 <put_fat>
			if (res != FR_OK) break;
    1f1e:	88 23       	and	r24, r24
    1f20:	31 f5       	brne	.+76     	; 0x1f6e <remove_chain+0xda>
			if (fs->free_clust != 0xFFFFFFFF) {	/* Update FSINFO */
    1f22:	8e 85       	ldd	r24, Y+14	; 0x0e
    1f24:	9f 85       	ldd	r25, Y+15	; 0x0f
    1f26:	a8 89       	ldd	r26, Y+16	; 0x10
    1f28:	b9 89       	ldd	r27, Y+17	; 0x11
    1f2a:	8f 3f       	cpi	r24, 0xFF	; 255
    1f2c:	2f ef       	ldi	r18, 0xFF	; 255
    1f2e:	92 07       	cpc	r25, r18
    1f30:	2f ef       	ldi	r18, 0xFF	; 255
    1f32:	a2 07       	cpc	r26, r18
    1f34:	2f ef       	ldi	r18, 0xFF	; 255
    1f36:	b2 07       	cpc	r27, r18
    1f38:	51 f0       	breq	.+20     	; 0x1f4e <remove_chain+0xba>
				fs->free_clust++;
    1f3a:	01 96       	adiw	r24, 0x01	; 1
    1f3c:	a1 1d       	adc	r26, r1
    1f3e:	b1 1d       	adc	r27, r1
    1f40:	8e 87       	std	Y+14, r24	; 0x0e
    1f42:	9f 87       	std	Y+15, r25	; 0x0f
    1f44:	a8 8b       	std	Y+16, r26	; 0x10
    1f46:	b9 8b       	std	Y+17, r27	; 0x11
				fs->fsi_flag |= 1;
    1f48:	8d 81       	ldd	r24, Y+5	; 0x05
    1f4a:	81 60       	ori	r24, 0x01	; 1
    1f4c:	8d 83       	std	Y+5, r24	; 0x05
    1f4e:	86 01       	movw	r16, r12
    1f50:	75 01       	movw	r14, r10
	if (clst < 2 || clst >= fs->n_fatent) {	/* Check range */
		res = FR_INT_ERR;

	} else {
		res = FR_OK;
		while (clst < fs->n_fatent) {			/* Not a last link? */
    1f52:	8a 89       	ldd	r24, Y+18	; 0x12
    1f54:	9b 89       	ldd	r25, Y+19	; 0x13
    1f56:	ac 89       	ldd	r26, Y+20	; 0x14
    1f58:	bd 89       	ldd	r27, Y+21	; 0x15
    1f5a:	e8 16       	cp	r14, r24
    1f5c:	f9 06       	cpc	r15, r25
    1f5e:	0a 07       	cpc	r16, r26
    1f60:	1b 07       	cpc	r17, r27
    1f62:	08 f4       	brcc	.+2      	; 0x1f66 <remove_chain+0xd2>
    1f64:	b5 cf       	rjmp	.-150    	; 0x1ed0 <remove_chain+0x3c>
    1f66:	02 c0       	rjmp	.+4      	; 0x1f6c <remove_chain+0xd8>
    1f68:	82 e0       	ldi	r24, 0x02	; 2
    1f6a:	01 c0       	rjmp	.+2      	; 0x1f6e <remove_chain+0xda>
    1f6c:	80 e0       	ldi	r24, 0x00	; 0
			clst = nxt;	/* Next cluster */
		}
	}

	return res;
}
    1f6e:	df 91       	pop	r29
    1f70:	cf 91       	pop	r28
    1f72:	1f 91       	pop	r17
    1f74:	0f 91       	pop	r16
    1f76:	ff 90       	pop	r15
    1f78:	ef 90       	pop	r14
    1f7a:	df 90       	pop	r13
    1f7c:	cf 90       	pop	r12
    1f7e:	bf 90       	pop	r11
    1f80:	af 90       	pop	r10
    1f82:	08 95       	ret

00001f84 <f_truncate>:
/*-----------------------------------------------------------------------*/

FRESULT f_truncate (
	FIL* fp		/* Pointer to the file object */
)
{
    1f84:	bf 92       	push	r11
    1f86:	cf 92       	push	r12
    1f88:	df 92       	push	r13
    1f8a:	ef 92       	push	r14
    1f8c:	ff 92       	push	r15
    1f8e:	0f 93       	push	r16
    1f90:	1f 93       	push	r17
    1f92:	cf 93       	push	r28
    1f94:	df 93       	push	r29
    1f96:	ec 01       	movw	r28, r24
	FRESULT res;
	DWORD ncl;


	res = validate(fp);						/* Check validity of the object */
    1f98:	0e 94 2f 04 	call	0x85e	; 0x85e <validate>
    1f9c:	b8 2e       	mov	r11, r24
	if (res == FR_OK) {
    1f9e:	88 23       	and	r24, r24
    1fa0:	09 f0       	breq	.+2      	; 0x1fa4 <f_truncate+0x20>
    1fa2:	82 c0       	rjmp	.+260    	; 0x20a8 <f_truncate+0x124>
		if (fp->err) {						/* Check error */
    1fa4:	bd 80       	ldd	r11, Y+5	; 0x05
    1fa6:	bb 20       	and	r11, r11
    1fa8:	09 f0       	breq	.+2      	; 0x1fac <f_truncate+0x28>
    1faa:	7e c0       	rjmp	.+252    	; 0x20a8 <f_truncate+0x124>
			res = (FRESULT)fp->err;
		} else {
			if (!(fp->flag & FA_WRITE))		/* Check access mode */
    1fac:	6c 81       	ldd	r22, Y+4	; 0x04
    1fae:	61 ff       	sbrs	r22, 1
    1fb0:	86 c0       	rjmp	.+268    	; 0x20be <f_truncate+0x13a>
				res = FR_DENIED;
		}
	}
	if (res == FR_OK) {
		if (fp->fsize > fp->fptr) {
    1fb2:	2e 81       	ldd	r18, Y+6	; 0x06
    1fb4:	3f 81       	ldd	r19, Y+7	; 0x07
    1fb6:	48 85       	ldd	r20, Y+8	; 0x08
    1fb8:	59 85       	ldd	r21, Y+9	; 0x09
    1fba:	8a 85       	ldd	r24, Y+10	; 0x0a
    1fbc:	9b 85       	ldd	r25, Y+11	; 0x0b
    1fbe:	ac 85       	ldd	r26, Y+12	; 0x0c
    1fc0:	bd 85       	ldd	r27, Y+13	; 0x0d
    1fc2:	28 17       	cp	r18, r24
    1fc4:	39 07       	cpc	r19, r25
    1fc6:	4a 07       	cpc	r20, r26
    1fc8:	5b 07       	cpc	r21, r27
    1fca:	08 f0       	brcs	.+2      	; 0x1fce <f_truncate+0x4a>
    1fcc:	6d c0       	rjmp	.+218    	; 0x20a8 <f_truncate+0x124>
			fp->fsize = fp->fptr;	/* Set file size to current R/W point */
    1fce:	2a 87       	std	Y+10, r18	; 0x0a
    1fd0:	3b 87       	std	Y+11, r19	; 0x0b
    1fd2:	4c 87       	std	Y+12, r20	; 0x0c
    1fd4:	5d 87       	std	Y+13, r21	; 0x0d
			fp->flag |= FA__WRITTEN;
    1fd6:	60 62       	ori	r22, 0x20	; 32
    1fd8:	6c 83       	std	Y+4, r22	; 0x04
    1fda:	88 81       	ld	r24, Y
    1fdc:	99 81       	ldd	r25, Y+1	; 0x01
			if (fp->fptr == 0) {	/* When set file size to zero, remove entire cluster chain */
    1fde:	21 15       	cp	r18, r1
    1fe0:	31 05       	cpc	r19, r1
    1fe2:	41 05       	cpc	r20, r1
    1fe4:	51 05       	cpc	r21, r1
    1fe6:	59 f4       	brne	.+22     	; 0x1ffe <f_truncate+0x7a>
				res = remove_chain(fp->fs, fp->sclust);
    1fe8:	4e 85       	ldd	r20, Y+14	; 0x0e
    1fea:	5f 85       	ldd	r21, Y+15	; 0x0f
    1fec:	68 89       	ldd	r22, Y+16	; 0x10
    1fee:	79 89       	ldd	r23, Y+17	; 0x11
    1ff0:	0e 94 4a 0f 	call	0x1e94	; 0x1e94 <remove_chain>
				fp->sclust = 0;
    1ff4:	1e 86       	std	Y+14, r1	; 0x0e
    1ff6:	1f 86       	std	Y+15, r1	; 0x0f
    1ff8:	18 8a       	std	Y+16, r1	; 0x10
    1ffa:	19 8a       	std	Y+17, r1	; 0x11
    1ffc:	38 c0       	rjmp	.+112    	; 0x206e <f_truncate+0xea>
			} else {				/* When truncate a part of the file, remove remaining clusters */
				ncl = get_fat(fp->fs, fp->clust);
    1ffe:	4a 89       	ldd	r20, Y+18	; 0x12
    2000:	5b 89       	ldd	r21, Y+19	; 0x13
    2002:	6c 89       	ldd	r22, Y+20	; 0x14
    2004:	7d 89       	ldd	r23, Y+21	; 0x15
    2006:	0e 94 e1 0a 	call	0x15c2	; 0x15c2 <get_fat>
    200a:	6b 01       	movw	r12, r22
    200c:	7c 01       	movw	r14, r24
				res = FR_OK;
				if (ncl == 0xFFFFFFFF) res = FR_DISK_ERR;
    200e:	8f ef       	ldi	r24, 0xFF	; 255
    2010:	c8 16       	cp	r12, r24
    2012:	8f ef       	ldi	r24, 0xFF	; 255
    2014:	d8 06       	cpc	r13, r24
    2016:	8f ef       	ldi	r24, 0xFF	; 255
    2018:	e8 06       	cpc	r14, r24
    201a:	8f ef       	ldi	r24, 0xFF	; 255
    201c:	f8 06       	cpc	r15, r24
    201e:	11 f4       	brne	.+4      	; 0x2024 <f_truncate+0xa0>
    2020:	81 e0       	ldi	r24, 0x01	; 1
    2022:	40 c0       	rjmp	.+128    	; 0x20a4 <f_truncate+0x120>
				if (ncl == 1) res = FR_INT_ERR;
