:020000040800F2
:1000000000000220B9020008251700082717000881
:10001000291700082B1700082D1700080000000002
:100020000000000000000000000000002F17000882
:1000300031170008000000003317000835170008CA
:10004000E5030008E5030008E5030008E5030008F0
:10005000E5030008E5030008FB160008E5030008B7
:10006000E5030008E5030008E5030008051700089C
:10007000E5030008E5030008E5030008E5030008C0
:1000800015170008E5030008E5030008E50300086C
:10009000E5030008E5030008E5030008E5030008A0
:1000A000E5030008E5030008E5030008E503000890
:1000B000E5030008E5030008E5030008E503000880
:1000C000E5030008E5030008E5030008E503000870
:1000D000E5030008E5030008E5030008E503000860
:1000E000E5030008E5030008E5030008E503000850
:1000F000E5030008E5030008E5030008E503000840
:10010000E5030008E5030008E5030008E50300082F
:10011000E5030008E5030008E5030008E50300081F
:10012000E5030008E5030008E5030008E50300080F
:10013000E5030008E5030008E5030008E5030008FF
:10014000E5030008E5030008E5030008E5030008EF
:10015000E5030008E5030008E5030008E5030008DF
:10016000E5030008E5030008E5030008E5030008CF
:10017000E5030008E5030008E503000800000000AF
:10018000E5030008E503000800B583B001F046F878
:10019000384B394A1360394A1360394906E052F83E
:1001A000041B43F8041B9842F9D86146354B994229
:1001B00005D20A684B6801F10C0C8868F3E72E4BF6
:1001C0001A68314B9A4200D0FEE72C4B1A682F4B2D
:1001D0009A42F9D1274B2E4A13602E4A13602E4AB9
:1001E00000E002462D4B9A4209D2104650F8083BD7
:1001F00051689942F5D9002243F8042BF9E7244BC2
:100200001B6813B9234B1B6803B1FEE701F0D6F955
:10021000694601A800F01EFF214C224BE41AA410ED
:10022000002504E01F4B53F8253098470135AC42B8
:10023000F8DC1D4C1D4BE41AA410002504E01B4BF8
:1002400053F8253098470135AC42F8DC0099019805
:1002500001F0DAF90546164C164BE41AA41004E036
:10026000013C144B53F824309847002CF8DC284606
:1002700000F08CFEBABADECA00000020DC010020CB
:10028000E8030008000400087856341232547698C7
:10029000E0010020E403002000040008100400082E
:1002A00010040008100400081004000810040008DE
:1002B000100400081004000808B5FFF765FF00BE31
:1002C000FEE71EF0040F0CBFEFF30880EFF3098088
:1002D0007146414A10472DE9F04182B004460D466F
:1002E000124B5F6BD3F838809E6A1B6B13F0020FC2
:1002F00003D00E4BDB6A002B0BDB0D4800F030FF08
:10030000009543463A463146204600F099FF00BE2C
:10031000FEE74BF6AB6101F00DF80028EDD0034B82
:100320004FF00042DA6202B0BDE8F08100ED00E07B
:100330000871000800BEFEE71EF0040F0CBFEFF3CB
:100340000880EFF309807146244A10472DE9F041F7
:1003500082B004460D46084B5F6BD3F838809E6A26
:10036000064800F0FDFE009543463A4631462046D9
:1003700000F066FF00BEFEE700ED00E01871000827
:100380001EF0040F0CBFEFF30880EFF309807146F5
:10039000134A10472DE9F04182B004460D46084B40
:1003A0005F6BD3F838809E6A064800F0D9FE00954E
:1003B00043463A463146204600F042FF00BEFEE783
:1003C00000ED00E02471000800BEFEE700BEFEE77D
:1003D00000BEFEE770470000D70200084D0300088A
:0803E0009503000800BEFEE7D2
:1003E800A876000800000020E0010020A876000898
:1003F8000000001000000010E0010020E8030020C9
:080408000000001000000010CC
:1004100010B50446074B1868074BA3FB0030800952
:1004200000F098F8002221464FF0FF3000F04CF821
:10043000002010BD04000020D34D621008B50B4B06
:100440001A6842F400721A601A6842F480621A60F4
:100450001A6842F480721A60032000F017F80F2027
:10046000FFF7D6FF01F048F9002008BD003C02402C
:10047000024A136801331360704700BFE401002093
:10048000014B1868704700BFE401002010B5044616
:10049000C31E042B0FD80A4AD36823F4E0631B045D
:1004A0001B0C240204F4E064234343F0BF6343F4D1
:1004B0000033D36010BDA421024800F047FEEAE7F4
:1004C00000ED00E0F46E000870B505460C461646D7
:1004D0000F2A25D80F2C28D81B4BDB68C3F3022327
:1004E000C3F10701042928BF04211A1D062A21D9B6
:1004F000033B4FF0FF3202FA01F124EA01049C4071
:1005000002FA03F326EA03063443002D14DB240128
:10051000E4B205F1604505F5614585F8004370BD1D
:10052000BC210A4800F012FED4E7BD21074800F0C4
:100530000DFED1E70023DCE705F00F052401E4B24E
:10054000034B5C55EBE700BF00ED00E0F46E0008E4
:1005500014ED00E00138B0F1807F0BD24FF0E023C2
:100560005861054AF02182F8231000209861072283
:100570001A6170470120704700ED00E010B5044695
:10058000042800D040B9042C0CD04FF0E0221369AD
:1005900023F00403136110BD40F2B311054800F0CD
:1005A000D5FDF0E74FF0E022136943F00403136137
:1005B000F1E700BFF46E0008704708B5FFF7FCFFD5
:1005C00008BD0000F0B583B0044600230193724BD0
:1005D0001D68724BA3FB0535AD0A876D3E68C26D81
:1005E00008239340334210D003681A6812F0040FB6
:1005F0000BD01A6822F004021A60C26D08239340DF
:10060000BB60436D43F001034365E26D644B93406F
:10061000334209D02268526912F0800F04D0BB60C7
:10062000636D43F002036365E26D5E4B93403342BA
:1006300009D02268126812F0020F04D0BB60636D0B
:1006400043F004036365E26D10239340334224D0EA
:100650002268126812F0080F1FD0BB6023681A6866
:1006600012F4802F0DD01B6813F4002F04D1236CDB
:100670009BB12046984710E0A36C73B12046984781
:100680000BE01A6812F4807F03D11A6822F0080286
:100690001A60236C0BB120469847E26D20239340EB
:1006A000334255D02268126812F0100F50D0BB6050
:1006B00094F83530DBB2052B0ED023681A6812F49B
:1006C000802F33D01B6813F4002F2AD1636C002BCA
:1006D0003ED0204698473BE02268136823F016037B
:1006E00013602268536923F080035361236CA3B124
:1006F0002268136823F008031360E26D3F239340E0
:10070000BB60002384F83430012384F83530236D36
:10071000002B3FD0204698473CE0A36C002BE7D14C
:10072000EBE7E36BA3B12046984711E01A6812F497
:10073000807F09D11A6822F010021A60002384F821
:100740003430012384F83530E36B0BB120469847F1
:10075000636DFBB1636D13F0010F17D0052384F8AF
:1007600035302268136823F001031360019B0133C5
:100770000193AB4204D823681B6813F0010FF5D135
:10078000002384F83430012384F83530E36C0BB156
:100790002046984703B0F0BD04000020B5814E1BF1
:1007A00001008000040080007047000008B5054B80
:1007B0005B69034200D108BD024B5861FFF7F4FFAB
:1007C000F9E700BF003C014030B583B00446036840
:1007D0000F2B29D8236813F0010F3DD06368012B3C
:1007E00001D9052B25D19F4B9B6803F00C03042BEB
:1007F00029D09C4B9B6803F00C03082B1ED0227958
:10080000984B9A706368002B50D0FFF739FE05466D
:10081000944B1B6813F4003F1ED1FFF731FE401BC1
:100820006428F5D90320F1E1F5218F4800F08EFC12
:10083000D0E7FA218C4800F089FCD4E7894B5B684B
:1008400013F4800FDBD0874B1B6813F4003F03D0F9
:100850006368002B00F0D581236813F0020F5ED08F
:10086000E368012B31D823691F2B34D87D4B9B685B
:1008700013F00C0F3AD07B4B9B6803F00C03082B52
:100880002FD0E368002B7CD0784B01221A60FFF751
:10089000F7FD0546734B1B6813F0020F5ED1FFF79F
:1008A000EFFD401B0228F5D90320AFE1FFF7E8FD7B
:1008B00005466C4B1B6813F4003FCDD0FFF7E0FDFD
:1008C000401B6428F5D90320A0E14FF496716648D7
:1008D00000F03CFCC7E740F22D11634800F036FC05
:1008E000C4E7604B5B6813F4800FCAD15D4B1B6893
:1008F00013F0020F03D0E368012B40F08481594BC1
:100900001A6822F0F8022169F82393FAA3F31BB3C3
:10091000B3FA83F301FA03F31343524A13602368D3
:1009200013F0080F58D06369012B3CD86369002B82
:100930003FD04E4B0122C3F8802EFFF7A1FD0546A4
:10094000484B5B6F13F0020F46D1FFF799FD401B38
:100950000228F5D9032059E12023DBE7414B1A682F
:1009600022F0F8022169F82393FAA3F33BB1B3FA1A
:1009700083F301FA03F313433A4A1360CFE72023CA
:10098000F7E73A4B00221A60FFF77AFD0546354B30
:100990001B6813F0020FC2D0FFF772FD401B022844
:1009A000F5D9032032E140F26D112F4800F0CEFB63
:1009B000BCE72E4B0022C3F8802EFFF761FD0546F1
:1009C000284B5B6F13F0020F06D0FFF759FD401B59
:1009D0000228F5D9032019E1236813F0040F5AD037
:1009E000A368012B01D9052B1FD1002301931D4BB7
:1009F0001A6C42F080521A641B6C03F0805301930E
:100A0000019B1B4A136843F480731360FFF738FDA2
:100A10000546174B1B6813F4807F0CD1FFF730FDA0
:100A2000401B0228F5D90320F0E040F297110E4850
:100A300000F08CFBD9E7227A0A4B83F87020A36878
:100A4000C3B1FFF71DFD0546064B1B6F13F0020FE8
:100A500021D1FFF715FD401B41F288339842F3D9AD
:100A60000320D3E000380240286F0008000047420E
:100A700000700040FFF704FD0546664B1B6F13F046
:100A8000020F08D0FFF7FCFC401B41F2883398426C
:100A9000F3D90320BAE0A369022B39D8A369002B4C
:100AA00000F0B3805B4A926802F00C02082A00F062
:100AB000AF80022B40F09180E36913B1B3F5800F52
:100AC0002CD1236A3F2B2FD8636A323BB3F5BF7F0B
:100AD00030D8A36A022B05D0042B03D0062B01D0FB
:100AE000082B2DD1E36A043B0B2B2FD84A4B002255
:100AF0001A66FFF7C5FC0546464B1B6813F0007FDE
:100B00002AD0FFF7BDFC401B0228F5D903207DE069
:100B10004FF4E671414800F019FBBFE740F2D511F0
:100B20003E4800F013FBCCE74FF4EB713B4800F07C
:100B30000DFBC9E740F2D711384800F007FBC8E7C2
:100B40004FF4EC71354800F001FBCBE740F2D911CE
:100B5000324800F0FBFAC9E7E369226A1343616A8D
:100B600047F6C07292FAA2F27AB3B2FA82F201FAAE
:100B700002F21343A26A5208013A4FF4403191FA4B
:100B8000A1F121B3B1FA81F18A401343E16A4FF038
:100B9000706292FAA2F2E2B1B2FA82F201FA02F2C1
:100BA00013431C4A53601C4B01221A66FFF768FC72
:100BB0000446184B1B6813F0007F0CD1FFF760FC54
:100BC000001B0228F5D9032020E02022CFE72021B6
:100BD000DAE72022E2E7002018E00F4B00221A6635
:100BE000FFF74EFC04460B4B1B6813F0007F06D04A
:100BF000FFF746FC001B0228F5D9032006E0002081
:100C000004E0012002E0012000E0002003B030BD3C
:100C10000120FBE70038024000004742286F00082F
:100C2000264B9B6803F00C03042B43D0082B43D1C5
:100C3000224A536803F03F03526812F4800F23D016
:100C40001F48B0FBF3F01D4B5A6847F6C0731A40BB
:100C500093FAA3F3B3B1B3FA83F322FA03F303FBDA
:100C600000F0164B5B6803F440334FF4403292FAC5
:100C7000A2F2EAB1B2FA82F2D34001335B00B0FBD8
:100C8000F3F070472023E8E70E48B0FBF3F00B4B7E
:100C90005A6847F6C0731A4093FAA3F333B1B3FA14
:100CA00083F322FA03F303FB00F0DAE72023F8E7EB
:100CB0002022E1E7024870470248704700380240AE
:100CC00000127A000024F40070B504460D46036853
:100CD000013B0E2B5ED8072D62D88E4B1B6803F0AC
:100CE0000F03AB4208D2EBB28A4A1370136803F0C9
:100CF0000F03AB4240F00881236813F0020F18D0B5
:100D0000A3687BB1802B0DD0902B0BD0A02B09D0EA
:100D1000B02B07D0C02B05D0D02B03D0E02B01D0B7
:100D2000F02B43D17C4A936823F0F003A1680B4376
:100D30009360236813F0010F7FD06368032B3BD8C7
:100D40006368012B3ED09A1E012A42D9724A12686A
:100D500012F0020F00F0DA806F498A6822F0030275
:100D600013438B60FFF78CFB06466368012B37D07B
:100D7000022B44D0032B51D0674B9B6813F00C0F10
:100D80005BD0FFF77DFB801B41F288339842F3D99B
:100D90000320AAE040F23721604800F0D7F99AE733
:100DA0004FF40E715D4800F0D1F996E740F24F2103
:100DB0005A4800F0CBF9B5E740F25621574800F009
:100DC000C5F9BDE7544A126812F4003FC4D10120AE
:100DD0008BE0514A126812F0007FBDD1012084E0FF
:100DE0004D4B9B6803F00C03042B26D0FFF748FB08
:100DF000831B41F288329342F2D9032075E0464BBF
:100E00009B6803F00C03082B17D0FFF739FB801BFE
:100E100041F288339842F2D9032066E03E4B9B684A
:100E200003F00C030C2B08D0FFF72AFB801B41F2C8
:100E300088339842F2D9032057E0364B1B6803F001
:100E40000F03AB4207D9EAB2324B1A701B6803F0AA
:100E50000F03AB425CD1236813F0040F14D0E36896
:100E60005BB1B3F5805F08D0B3F5A05F05D0B3F5F3
:100E7000C05F02D0B3F5E05F38D1274A936823F40E
:100E8000E053E1680B439360236813F0080F15D01B
:100E900023695BB1B3F5805F08D0B3F5A05F05D0DF
:100EA000B3F5C05F02D0B3F5E05F25D11A4A93686D
:100EB00023F46043216943EAC1039360FFF7B0FE66
:100EC000154B9A6802F0F002F02393FAA3F3CBB12A
:100ED000B3FA83F322FA03F3114AD35CD840114BDF
:100EE00018600F20FFF794FA002070BD4FF42D71A9
:100EF0000A4800F02BF9C0E740F2BB21074800F098
:100F000025F9D3E72023E5E70120EEE70120ECE710
:100F10000120EAE7003C024000380240286F000848
:100F2000586F000804000020014B1868704700BF8C
:100F30000400002008B5034800F02CF9012000F05F
:100F400025F800BF686F000808B503460C4A126810
:100F50005AB10B4A1068033323F003030344094AD0
:100F6000934206D8064A136008BD054A0649116037
:100F7000EFE700F0A1FD0C2303604FF0FF30F3E733
:100F8000E801002000FC0120E803002000B530B992
:100F9000044D182420462946ABBE0446FEE7024D08
:100FA000F7E700BF26000200230002002DE9F04110
:100FB00084B0234F01970326039600230293012454
:100FC00001AD20462946ABBE80461E4BC3F80080CB
:100FD000019703960423029320462946ABBE804620
:100FE000194BC3F80080019703960823029320460B
:100FF0002946ABBE0446154B1C60B4F1FF3F01D03F
:1010000000230AE0104B1A68104B1A60F8E7104AE8
:101010004FF0FF3142F833100133132BF7DD0C4B47
:10102000084A12681A6000225A60074909689960E4
:10103000DA600649096819615A6104B0BDE8F081B7
:101040007C6F00086C020020700200206802002003
:10105000740200202DE9F04383B0814688462A4B74
:1010600000934F23019315276C4638462146ABBEAB
:101070000746AFBB244B002283F84F20009A3E4620
:101080003C463D4607E001321E46204B43F82520F2
:1010900001350124013292F90030FBB164B91C49D9
:1010A00059560029F6DB092BF4D0082D16DC222B2B
:1010B000E9D0272BE9D1E6E736B19E42EAD10023F9
:1010C00013703E463C46E5E711495956002901DBBD
:1010D000092BDFD1002313703446DBE73DB900E074
:1010E0000025094B00221A70084A13600135074B8E
:1010F000002243F82520C9F80050C8F80030FFF757
:1011000055FF03B0BDE8F083EC0100203C02002055
:10111000B471000800B583B08C461946134652B12D
:10112000074A53B10193009263460246054800F016
:1011300017F8FFF7FFFE044AF3E7034BF2E700BF9F
:10114000806F0008906F00084C71000808B50A46CF
:101150000146024800F004F8FFF7ECFEC06F0008FB
:101160000FB400B583B004AB53F8042B0193802176
:10117000074802F0A5FA002804DC03B05DF804EB90
:1011800004B070470146024800F044F8F5E700BF9C
:101190001403002010B5044601F0B2FB01462046BE
:1011A00000F038F80121024800F034F810BD00BF0B
:1011B000847000082DE9F04385B004460F4643567D
:1011C00033BB042528462146ABBE0446384605B04D
:1011D000BDE8F08314F901CB04AA1A4402F810CC3C
:1011E0000133AB42F6D304AA1344002203F8102CB7
:1011F0004FF00408E94640464946ABBE8046761BA0
:10120000002EE3D03546102E28BF10250023E8E736
:101210000E46F5E708B5FFF7CDFF08BD08B500F0AD
:1012200009F9054B054A9A60D3F8882042F4700208
:10123000C3F8882008BD00BF00ED00E000000008F2
:10124000F8B504460D4617461E462748FFF788FFA7
:1012500021682648FFF784FF61682548FFF780FF73
:10126000A1682448FFF77CFFE1682348FFF778FF77
:1012700021692248FFF774FF61692148FFF770FF79
:10128000A1692048FFF76CFFE1691F48FFF768FF7D
:101290001E48FFF765FF29461D48FFF761FF1D4CFB
:1012A000E16A1D48FFF75CFF216B1C48FFF758FF00
:1012B000E16B1B48FFF754FF15F0800F0AD115F4BE
:1012C000004F0CD11748FFF74BFF06991648FFF760
:1012D00047FFF8BD39461548FFF742FFEFE73146B3
:1012E0001348FFF73DFFEDE7EC6F0008FC6F0008C7
:1012F0000C7000081C7000082C7000083C7000087E
:101300004C7000085C7000086C7000087C7000086D
:101310008870000800ED00E098700008A8700008D0
:10132000B8700008E8700008F0700008C870000885
:10133000D870000838B583691B888B4201D0002023
:1013400038BD044603684568013B302B69D8DFE8A7
:1013500003F046211C1C5E30332D19196819191928
:10136000191936192468192768396868686868681F
:1013700068686868686868686868686868686868ED
:10138000681919004FF0FF330360A3690233A361AA
:101390000120D5E700230360F7E700230360F4E7AB
:1013A00000232B606B60AB60EB60EEE70023036013
:1013B000EBE7AB680360E8E700230360E5E70023A1
:1013C0000360E2E7BFF34F8F1749CA6802F4E06297
:1013D000164B1343CB60BFF34F8F00BFFDE714499B
:1013E000286801F083FA40B96B6813B901232360C0
:1013F000CBE7042B05D0082B06D04FF0FF3323603A
:10140000C3E702232360C0E703232360BDE72B6803
:10141000023B012B02D9AB680360B6E700230360EF
:10142000B3E700208CE700BF00ED00E00400FA0500
:101430007C6F00080F49D1F8883043F47003C1F87D
:1014400088300D4B1A6842F001021A600020986043
:101450001A6822F0847222F480321A60074A5A60B5
:101460001A6822F480221A60D8604FF000638B6003
:10147000704700BF00ED00E000380240103000244B
:10148000224B9B6803F00C03042B14D0082B16D0BE
:101490001BB11F4B1F4A1A6002E01D4B1D4A1A6008
:1014A0001A4B9B68C3F303131B4AD15C184A136899
:1014B000CB4013607047164B184A1A60F0E7134B85
:1014C00059685A6802F03F0211F4800F13D0134B91
:1014D000B3FBF2F30D4A5268C2F3881202FB03F326
:1014E0000A4A5268C2F3014201325200B3FBF2F3DE
:1014F000074A1360D4E7074BB3FBF2F3034A526881
:10150000C2F3881202FB03F3EAE700BF003802408F
:10151000040000200024F4003471000800127A0056
:1015200030B595B000240194214B1A6C42F08052E2
:101530001A641B6C03F080530193019B02941D4BB2
:101540001A6842F480421A601B6803F480430293D5
:10155000029B0123089309934FF480030F93082300
:1015600010934FF4A8731193022512950723139338
:101570000E9508A8FFF728F90F2303930495059407
:101580004FF4A05306934FF480530793052103A80B
:10159000FFF79AFBFFF7C8FC074BA3FB003080095D
:1015A000FEF7D8FF0420FEF7E9FF15B030BD00BFFD
:1015B0000038024000700040D34D621008B5FEF7BD
:1015C0003DFFFFF7ADFFFFF75BFF08BD0C4AD2F808
:1015D000FC3043F08073C2F8FC300A4B00225A60A2
:1015E0001A6802F001021A601A6842F001021A60D9
:1015F0005A6800BF00BF00BF5868801A704700BF1C
:1016000000ED00E0001000E0F0B52DED028B89B098
:10161000FEF714FFFFF7DAFF2B48FFF7A1FD0523C4
:10162000ADF81E306923ADF81C30284B0693284BCB
:1016300005930022274BCDE902230022264BCDE95A
:101640000023264C0023636063686168244EC91A36
:101650003046FFF785FD6368BDF81E50BDF81C20BD
:1016600015442DB26168C91A3046FFF779FD294645
:101670001C48FFF775FD63689DED068ADDED057A70
:1016800038EE278A6168C91A1748FFF769FD18EE16
:10169000100A00F0B9F902460B461448FFF760FD46
:1016A0006568DDE90201DDE9002300F04FF8064638
:1016B0000F466168491B0E48FFF752FD32463B4614
:1016C0000C48FFF74DFDBCE7447100080000A04046
:1016D0000000D2420000144000405A40001000E0D8
:1016E00050710008607100086C710008807100087A
:1016F00090710008A4710008704708B50120FFF739
:1017000055F808BD08B5024B986BFEF75BFF08BDA6
:101710009403002008B5024B586BFEF753FF08BD39
:10172000940300207047FEE7FEE7FEE7FEE7704700
:101730007047704708B5FEF79BFEFEF73EFF08BDF9
:1017400081F0004102E000BF83F0004330B54FEA72
:1017500041044FEA430594EA050F08BF90EA020FDF
:101760001FBF54EA000C55EA020C7FEA645C7FEA72
:10177000655C00F0E2804FEA5454D4EB5555B8BF95
:101780006D420CDD2C4480EA020281EA030382EA06
:10179000000083EA010180EA020281EA0303362D98
:1017A00088BF30BD11F0004F4FEA01314FF4801C6B
:1017B0004CEA113102D0404261EB410113F0004F7D
:1017C0004FEA03334CEA133302D0524263EB430334
:1017D00094EA050F00F0A780A4F10104D5F1200ED2
:1017E0000DDB02FA0EFC22FA05F2801841F100012D
:1017F00003FA0EF2801843FA05F359410EE0A5F101
:1018000020050EF1200E012A03FA0EFC28BF4CF031
:10181000020C43FA05F3C01851EBE37101F00045E7
:1018200007D54FF0000EDCF1000C7EEB00006EEBF4
:101830000101B1F5801F1BD3B1F5001F0CD349087E
:101840005FEA30004FEA3C0C04F101044FEA4452D5
:1018500012F5800F80F09A80BCF1004F08BF5FEA5C
:10186000500C50F1000041EB045141EA050130BD3C
:101870005FEA4C0C404141EB0101013C28BFB1F54E
:10188000801FE9D291F0000F04BF01460020B1FA99
:1018900081F308BF2033A3F10B03B3F120020CDA6C
:1018A0000C3208DD02F1140CC2F10C0201FA0CF04A
:1018B00021FA02F10CE002F11402D8BFC2F1200CAF
:1018C00001FA02F120FA0CFCDCBF41EA0C01904065
:1018D000E41AA2BF01EB0451294330BD6FEA0404AE
:1018E0001F3C1CDA0C340EDC04F11404C4F1200299
:1018F00020FA04F001FA02F340EA030021FA04F3AB
:1019000045EA030130BDC4F10C04C4F1200220FA01
:1019100002F001FA04F340EA0300294630BD21FA3F
:1019200004F0294630BD94F0000F83F4801306BF05
:1019300081F480110134013D4EE77FEA645C18BFF9
:101940007FEA655C29D094EA050F08BF90EA020F90
:1019500005D054EA000C04BF1946104630BD91EA88
:10196000030F1EBF0021002030BD5FEA545C05D18B
:101970004000494128BF41F0004130BD14F58004CA
:101980003CBF01F5801130BD01F0004545F0FE413E
:1019900041F470014FF0000030BD7FEA645C1ABF73
:1019A000194610467FEA655C1CBF0B46024650EAAA
:1019B000013406BF52EA033591EA030F41F40021D6
:1019C00030BD00BF90F0000F04BF0021704730B55C
:1019D0004FF4806404F132044FF000054FF0000131
:1019E00050E700BF90F0000F04BF0021704730B5F2
:1019F0004FF4806404F1320410F0004548BF4042C7
:101A00004FF000013EE700BF42004FEAE2014FEA1B
:101A100031014FEA02701FBF12F07F4393F07F4FF6
:101A200081F06051704732F07F4208BF704793F0F9
:101A30007F4F04BF41F40021704730B54FF460740C
:101A400001F0004521F000411CE700BF50EA01020F
:101A500008BF704730B54FF000050AE050EA0102B8
:101A600008BF704730B511F0004502D5404261EB28
:101A700041014FF4806404F132045FEA915C3FF469
:101A8000D8AE4FF003025FEADC0C18BF03325FEA06
:101A9000DC0C18BF033202EBDC02C2F1200300FAB7
:101AA00003FC20FA02F001FA03FE40EA0E0021FADC
:101AB00002F11444BDE600BF014B1868704700BF37
:101AC000080000207047704702440346934200D14B
:101AD000704703F8011BF9E7F8B5CD1C25F00305A5
:101AE00008350C2D38BF0C25002D064601DBA94218
:101AF00003D90C2333600020F8BD03F057F82149C7
:101B00000A6814469CB9204F3B6823B921463046E9
:101B100000F0B6FE38602946304600F0B1FE431CA6
:101B200023D10C233360304603F046F8E3E7236803
:101B30005B1B17D40B2B03D923601C44256004E0E6
:101B40006368A2420CBF0B605360304603F034F868
:101B500004F10B00231D20F00700C21ACCD01B1A81
:101B6000A350C9E722466468CCE7C41C24F00304F0
:101B7000A042E3D0211A304600F082FE0130DDD1D0
:101B8000CFE700BFDC030020E00300202DE9FF4782
:101B900055EC104B002D0E4619462B46BBBF05F1E8
:101BA00000431D4600232D230B700D9BDDF830A054
:101BB000914623F02008BCBF22461446B8F1460FD8
:101BC00005D0B8F1450F00D10136022100E0032114
:101BD00003AB019302AB009345EC104B53463246E6
:101BE00001F00AFEB8F1470F074602D119F0010FC4
:101BF00022D0B8F1460F07EB060910D13B78302B05
:101C00000AD1002200232046294604F02DF918B9F4
:101C1000C6F10106CAF80060DAF8003099440022E3
:101C200000232046294604F01FF908B1CDF80C9096
:101C30003022039B4B4507D3039B0E9ADB1B384690
:101C4000136004B0BDE8F087591C03911A70F0E7E7
:101C5000F7B503460029B8BF494203F8022BB4BFC9
:101C60002D222B22092942702ADD0DF10704A446FA
:101C70000A27A6460A4691FBF7F607FB16153035EC
:101C8000632A04F1FF340EF8015C3146F1DC303197
:101C9000AEF1020504F8011C441C294661450AD333
:101CA0000DF10902A2EB0E02654588BF0022134424
:101CB000181A03B0F0BD11F8012B04F8012FEDE75D
:101CC000302330318370C170031DF1E72DE9F04FEF
:101CD0002DED028B8DB00C46DDF8608016461F4658
:101CE000054602F0E7FED0F800A0504600F008FEDE
:101CF00000230A9323680593D8F8003094F818B0AD
:101D0000073323F0070303F10802C8F80020D3E9E2
:101D10000023C4E91223D4E9128929F00043079370
:101D2000CDF8188008EE100A9F4BDDE906014FF050
:101D3000FF3204F0CBF888BBDDE906019A4B4FF087
:101D4000FF3204F0A5F848BB002200234046494674
:101D500004F094F810B12D2384F84330934B944849
:101D6000BBF1470F94BF9846804603232361059B30
:101D700023F0040222604FF00009009733460BAABB
:101D80002146284600F0D8F9013040F090804FF00D
:101D9000FF300DB0BDEC028BBDE8F08F42464B46E4
:101DA0004046494604F092F840B14B46002BBCBF78
:101DB0002D2384F843307F487F4BD1E763680BF0D5
:101DC000DF0206925A1C3FD106236360059B6168BF
:101DD00043F48062002303930AABCDE901B309AB5E
:101DE00049EC108B009322600DF123032846FFF786
:101DF000CDFE069B0999472B804608D1C81C02DB03
:101E00006368994241DDABF1020B5FFA8BFBBBF1DA
:101E1000650F20D801395A4604F150000991FFF7A7
:101E200017FF0A9A1318012A8146236102DC2268EF
:101E3000D20701D5013323619DF82330002B9CD0BC
:101E40002D2384F8433098E7069A472ABED1002B09
:101E5000BCD10123B9E7BBF1660F18D10029636833
:101E60000BDD216113B92268D00702D501330B4481
:101E70002361A1654FF00009DEE713B92268D2079C
:101E800001D50233F4E70123F2E74FF0670B0A9B19
:101E9000994205DB23682161D807EAD54B1CE7E7A7
:101EA0000029D4BFC1F1020201221344E0E72368F4
:101EB0005A0507D42369424631462846B8470130BF
:101EC0002CD164E7BBF1650F40F2E080D4E9120148
:101ED0000022002303F0C8FF002834D0374A012332
:101EE00031462846B84701303FF451AFDDE90923B8
:101EF0009A4202DB2368D80710D518EE103A5246F2
:101F000031462846B84701303FF441AF4FF0000852
:101F100004F11A090A9B013B434509DC23689B072E
:101F200000F10581E0680B9B9842B8BF184630E786
:101F300001234A4631462846B84701303FF427AFCF
:101F400008F10108E6E7099B002B39DC1B4A012355
:101F500031462846B84701303FF419AFDDE909237F
:101F6000134302D12368D907D8D518EE103A524648
:101F700031462846B84701303FF409AF4FF0000919
:101F800004F11A0A099B5B424B4501DC0A9B92E76C
:101F90000123524631462846B84701303FF4F7AE98
:101FA00009F10109EEE700BFFFFFEF7F147300089E
:101FB00018730008207300081C73000824730008BD
:101FC0000A9AA36D9A42A8BF1A46002A914637DCA6
:101FD0004FF0000B29EAE97904F11A02A36D059389
:101FE000A3EB09035B4533DCDDE909239A423BDBC4
:101FF0002368DA0738D40A9B059A09999A1AA3EB41
:1020000001099145A8BF9146B9F1000F35DC4FF0A9
:10201000000829EAE97904F11A0ADDE909239B1A83
:10202000A3EB090343457FF779AF012352463146BD
:102030002846B84701303FF4AAAE08F10108ECE7A2
:102040001346314642462846B8470130C0D19EE685
:102050000123314628460592B84701303FF497AE38
:10206000059A0BF1010BB9E718EE103A52463146CA
:102070002846B8470130BED189E6059A4B4642440E
:1020800031462846B8470130C1D180E60A9A012A74
:1020900001DCDB0738D50123424631462846B847E4
:1020A00001303FF474AE18EE103A524631462846DD
:1020B000B84701303FF46BAED4E91201002200238F
:1020C00003F0D2FED8B90A9B08F10102013B314668
:1020D0002846B84701300ED159E601235246314611
:1020E0002846B84701303FF452AE08F101080A9B78
:1020F000013B4345F1DC4B4604F15002DCE64FF076
:10210000000804F11A0AF2E701234246DFE701233F
:102110004A4631462846B84701303FF438AE08F108
:102120000108E3680B995B1A4345F0DCFAE64FF0CF
:10213000000804F11909F4E72DE9F047164699461D
:102140008A680B69DDF820809342B8BF134633607C
:1021500091F8432007460C460AB1013333602368E7
:10216000990642BF336802333360256815F00605CF
:1021700006D104F1190AE36832689B1AAB4226DCE7
:1021800094F84320131E226818BF012392062BD413
:1021900004F1430249463846C04701301ED0236847
:1021A000E568326803F00603042B08BFAD1AA36884
:1021B00022690CBF25EAE57500259342C4BF9B1A2E
:1021C000ED1800261A34B5421AD1002008E0012388
:1021D000524649463846C047013003D14FF0FF30E0
:1021E000BDE8F0870135C6E7E1185A1C302081F8B8
:1021F0004300224494F8451082F843100233C7E7A5
:102200000123224649463846C0470130E6D0013610
:10221000D9E700002DE9FF470F7E0C9D782F9146EE
:1022200080460C469A4601F1430207D8622F0AD82D
:10223000002F00F0D880582F00F0A38004F1420551
:1022400084F842703AE0A7F16303152BF6D801A198
:1022500051F823F0AD220008C12200083D220008F9
:102260003D2200083D2200083D220008C12200084E
:102270003D2200083D2200083D2200083D220008C2
:10228000CD230008F1220008AF2300083D220008FA
:102290003D220008EF2300083D220008F12200083B
:1022A0003D2200083D220008B72300082B681A1DB4
:1022B0001B682A6004F1420584F842300123A3E040
:1022C00020682968060601F104030AD50E682B6010
:1022D000002E03DA2D23764284F843305E480A2329
:1022E00019E00E682B6010F0400F18BF36B2EFE710
:1022F0002B682068191D2960010601D51E6802E0BF
:102300004606FBD51E8854486F2F0CBF08230A23AE
:10231000002184F843106568A560002DA2BF2168E4
:1023200021F0040121600EB9002D4DD01546B6FBF9
:10233000F3F103FB1167C75D05F8017D3746BB422A
:102340000E46F4D9082B0BD12368DE0708D5236984
:1023500061689942DEBF302305F8013C05F1FF3585
:10236000521B2261CDF800A04B4603AA21464046ED
:10237000FFF7E2FE01304CD14FF0FF3004B0BDE872
:10238000F087354881F845702968236851F8046B57
:1023900029601D0614D5DF0744BF43F020032360E6
:1023A0001EB9236823F0200323601023B0E72368BD
:1023B00043F0200323607823284884F84530E3E77E
:1023C000590648BFB6B2E6E71546BBE72B68266854
:1023D0006169181D286035061B6801D5196002E087
:1023E0007006FBD51980002323611546BAE72B68D8
:1023F0001A1D2A601D6862680021284602F078FBD9
:1024000008B1401B606063682361002384F8433097
:10241000A8E723692A4649464046D0470130ABD059
:1024200023689B0713D4E068039B9842B8BF184603
:10243000A4E70123324649464046D04701309BD0AD
:102440000135E36803995B1AAB42F2DCEBE7002548
:1024500004F11906F5E700BF26730008377300087A
:102460002DE9F04F87B0174603938B685A1EB2F5DB
:10247000AE7F83BF6FF4AE755B190293002386BFF6
:1024800040F25D138B6002930B688B46002543F48A
:10249000F0634BF81C3BCDE9045580460C465E4684
:1024A000AA46A9460195A26852B13B681B784E2BFB
:1024B00064D8402B3CD8A3F12B01C8B20E283AD9DE
:1024C000B9F1000F03D0236823F4807323600AF16D
:1024D000FF3ABAF1010F00F213815E4500F2058167
:1024E0000125284607B0BDE8F08FA3F161020D2A4F
:1024F000E6D801A151F822F037260008C1240008CF
:10250000C1240008C1240008972600086F2600088F
:10251000C1240008C124000845260008C124000881
:10252000C1240008C1240008C1240008FD250008BA
:10253000A3F14102DBE70E29C2D801A050F821F037
:10254000EF250008C1240008EF25000883260008B5
:10255000C12400089D250008D9250008D9250008B8
:10256000D9250008D9250008D9250008D925000853
:10257000D9250008D9250008D92500086E2B09D8CF
:10258000602BB2D8542B77D0592B99D1072D97D1E6
:10259000082529E0742B6FD0792BF6E72168C80550
:1025A0001AD5029B21F08001216009F101091BB1BC
:1025B000013B01320293A260A368013BA36023693F
:1025C000013323617B68013B002B7B6040F38480F7
:1025D0003B6801333B6066E71AEB050F7FF470AF91
:1025E000226822F4C072226006F8013BE4E7226808
:1025F00010067FF565AF22F08002F4E7BAF1000F14
:102600000ED1B9F1000F0ED1226802F4E061B1F5EC
:10261000E06F08D122F4F06222604FF0010AE3E794
:10262000BAF1020F55D0012D02D0042D7FF448AF2E
:102630000135EDB2D8E7BAF1010F7FF441AF4FF0A9
:10264000020AD1E77DB9B9F1000F7FF43CAF2268EF
:1026500002F4E061B1F5E06F7FF439AF22F4F0628B
:1026600022600125C0E7032DE2D0052DDEE7022D13
:102670007FF426AF0325B7E7062D7FF421AF0725AA
:10268000B2E7226891057FF51BAF22F42072226029
:10269000CDF80490A8E7226802F4A061B1F5806F3C
:1026A00006D050057FF50CAFB9F1000F3FF40FAF26
:1026B000910558BF019922F4F06258BFA9EB0101BE
:1026C00042F4C07258BFCDE9041622604FF00009F1
:1026D0008AE74FF0030A87E7D4F88031394640464D
:1026E000984700283FF4DFAEEAE6D4F87C3116F8CC
:1026F000011D3A46404698472369013B2361ECE6B9
:102700006B1E062B25D8022D36D85E457FF6E8AE27
:10271000D4F87C3116F8011D3A46404698472369A3
:10272000013B2361F1E70298D4F87C3110F8011DD8
:1027300002903A46404698472369013B23610AF1DB
:10274000FF3A5FFA8AFABAF1020FECD1033DEDB21B
:10275000761B2368DA052FD55B0510D55E457FF61D
:10276000BFAED4F87C3116F8011D3A464046984772
:102770002369013B2361F1E7AA460296DFE716F8D9
:10278000011C2369652903F1FF3306F1FF3523613D
:102790000CD045290AD0D4F87C313A4640469847B7
:1027A000236916F8021C013BB51E2361D4F87C3165
:1027B0003A46404698472E46256815F0100558D1F0
:1027C0003570236803F4C063B3F5806F1CD1019B9F
:1027D0004B45A3EB090224D100225946404600F0A4
:1027E000B9FE039B21681B6811F0020F57EC106BB8
:1027F00003F1040220D003990A601B68C3E9006753
:10280000E3680133E3606CE6049B002BE4D0059998
:102810000A232A460131404600F024FF049B059E0E
:10282000C21A04F26F139E4228BF04F5B77612490C
:10283000304600F03BF8CFE711F0040F03990A602F
:10284000DBD1D3F8008010EE102A10EE100A3B46C0
:10285000394603F03BFB28B1084800F021F888ED29
:10286000000ACDE73046394603F08EFBC8F8000079
:10287000C6E7002535E600BF487300080976000862
:1028800038B5064D0023044608462B60FEF75CFB76
:10289000431C02D12B6803B1236038BD64020020C1
:1028A0009FED010A704700BF0000C07F0EB400B565
:1028B0009CB01DAB029006906FF000410948079153
:1028C0000491094953F8042B05910068019302A96A
:1028D00002F016FF029B00221A701CB05DF804EB98
:1028E00003B07047080000200802FFFF10F8012B1A
:1028F00011F8013B012A28BF9A42F7D0D01A70473D
:10290000034613F8012B002AFBD1181A013870472F
:1029100070B504460D4645EC104B164602F0C4FC5B
:1029200051EC100B7EB1C5F30A53C3F16B03002BBE
:1029300009DD1B0503F17F55002405F540152246EE
:102940002B4603F029F870BD2DE9F04F2DED028BD9
:102950009DB01F4600231893A24B13921B6805934A
:10296000044618468846FFF7CBFF4FF0000A05469D
:102970004FF0000BCDF85C80179B1A782B2A4ED0B5
:102980003BD80D2A34D8082A34D8002A3ED0002358
:102990000A93179E3378302B40F0B080737803F0A1
:1029A000DF03582B68D10A9B019318AB0297009361
:1029B0008D4A19AB17A9204601F074FD10F00707E6
:1029C000054605D0062F2CD10136002317960A9311
:1029D000139B002B40F090850A9BEBB152460BF104
:1029E000004343EC102B1DB0BDEC028BBDE8F08F13
:1029F000202ACCD101331793BEE72D2AC7D101225B
:102A00000A925A1C17925B78002BC2D1139BCDF807
:102A10005C80002B40F06E8552465B46E1E7002269
:102A2000EEE7189A3AB135211AA802F048FD189934
:102A3000204602F007F9013F042F06D8DFE807F02F
:102A40000A0314170A00DDE91AAB2807C0D54BF0BA
:102A5000004BBDE7DDE91AA3199A23F4801302F2B3
:102A6000334243EA025BF0E7DFF880B1EDE76FF055
:102A7000004B4FF0FF3AE8E7179B5A1C17925B7820
:102A8000302BF9D0002BA3D001234FF00009049381
:102A9000179B0893CDF81C904F460A22179806788A
:102AA000A6F13003D9B209292AD905992A4602F09C
:102AB0002FFF98B3002032463D4605900346652A15
:102AC00001D0452A18D11DB9049A02439ED0002591
:102AD000DDF85C8008F10102179298F801202B2A9A
:102AE00075D02D2A7BD04FF0000CA2F130010929BE
:102AF00040F28280CDF85C8000269DE00023C4E790
:102B0000082FD8BF079900F10100DABF02FB01339B
:102B1000079302FB093901371790BFE7179B5A1932
:102B200017925A5D002F37D005903D46A2F1300331
:102B3000092B12D90123C2E7179B5A1C17925A7806
:102B40000130302AF8D0A2F13103082B00F2D984E9
:102B5000179B0590002008930546303A00F10103C9
:102B600014D00599194405912B4600EB050E0A2156
:102B7000734513D12B18082B05F1010505441CDC06
:102B800007990A2303FB012307930023179A511C7B
:102B9000179152781846C9E73846D2E7082B04DC6B
:102BA000079E4E4307960133E2E703F1010CBCF1A7
:102BB000100FD8BF01FB09F9F5E7102DDCBF0A2380
:102BC00003FB0929E1E70023059301237CE74FF08C
:102BD000000C08F10202179298F8022085E74FF0E6
:102BE000010CF6E794740008507300080000F07FB1
:102BF000179A511C17915278302AF9D0A2F131015D
:102C000008293FF679AFA2F1300E179A0692179A6B
:102C1000511C17915278A2F13006092E37D9069E21
:102C2000891B082944F61F6602DC7645A8BF764654
:102C3000BCF1000F00D07642002D4DD10499014324
:102C40007FF4C6AE002B7FF4E1AE692A27D024DCE6
:102C5000492A24D04E2A7FF4D9AE9F4917A801F003
:102C600079FE00283FF4D2AE179B1B78282B2DD17C
:102C70009A491AAA17A801F081FE052826D11B9BA4
:102C8000DDF868A043F0FF4B4BF4E00BA0E60A210F
:102C900001FB0E2EAEF1300EB9E76E2ADBE790494C
:102CA00017A801F057FE00283FF4B0AE179B8D49DE
:102CB000013B17A8179301F04DFE10B9179B013384
:102CC0001793DFF830B24FF0000A81E6864802F031
:102CD00017FE5BEC10AB7BE6059B0798F31A002F01
:102CE00008BF2F46102D0693A846A8BF4FF0100826
:102CF000FEF768FE092D82468B4613DD7B4B03EB06
:102D0000C80353E9122302F047FE824648468B4629
:102D1000FEF758FE02460B4650465946FEF716FD92
:102D200082468B460F2D38DC069B002B3FF450AEBD
:102D300024DD162B0BDC6D4901EBC301D1E9000149
:102D400052465B4602F028FE82468B4640E6069AD3
:102D5000C5F12503934220DB644CC5F10F0504EB5C
:102D6000C50152465B46D1E9000102F015FE069B03
:102D70005D1B04EBC504D4E90023E3E7069B16338F
:102D80000BDB059B9E1B594B03EBC606D6E90023C4
:102D90005046594602F02AFFD6E7069BA5EB0808E5
:102DA0009844B8F1000F74DD18F00F030AD04F49B2
:102DB00001EBC30152465B46D1E9000102F0ECFD94
:102DC00082468B4638F00F084FD0B8F59A7F22DD47
:102DD00000252E46079505952223DFF818B12360BC
:102DE0004FF0000A079B002B3FF4F2AD18992046E4
:102DF00001F028FF0599204601F024FF31462046C6
:102E000001F020FF0799204601F01CFF29462046CB
:102E100001F018FFDCE5364B049300234FEA281835
:102E2000504659469946B8F1010F21DC0BB1824654
:102E30008B462F4BABF1547B03EBC90952465B46E3
:102E4000D9E9000102F0A8FD2A4B0A460B402A49A5
:102E50008B428246BCD8A1F580118B4286BFDFF839
:102E60009CB04FF0FF3A02F1547B0023049384E0BE
:102E700018F0010F05D0049BD3E9002302F08CFD6C
:102E80000123049A083209F101094FEA6808049203
:102E9000C9E7EAD0C8F1000818F00F020AD0134BB6
:102EA00003EBC20350465946D3E9002302F09EFECD
:102EB00082468B465FEA2818D7D0B8F11F0F1FDD76
:102EC00000252E460795059522234FF0000A4FF066
:102ED000000B236086E700BF2173000864730008BD
:102EE00019730008A37300080976000830750008FC
:102EF000087500080000F07F0000A07CFFFFEF7F56
:102F000018F0100318BF6A23DFF8AC9304935046FF
:102F10005946002318F0010F04D0D9E9002302F02C
:102F20003BFD01235FEA680809F10809F2D10BB102
:102F300082468B46049BC3B1CBF30A52C2F16B03AA
:102F4000002B594611DD1F2B40F32481342BDEBFAB
:102F5000C2F14B024FF0FF3303FA02F24FF0000AC6
:102F6000CCBF4FF05C7B02EA010B002200235046ED
:102F7000594602F079FF0028A2D1079B00930899D7
:102F80002B463A46204601F0C5FE079000283FF444
:102F90001FAF059B9E1B069B002BB4BF334600232F
:102FA0000C93069B002523EAE37312932E46079B9E
:102FB0002046596801F006FE059000283FF40CAF4A
:102FC000079B1A69023203F10C0192000C3001F0E8
:102FD000DFFD4BEC10AB1AAA19A9204602F0E0F96C
:102FE0004BEC18AB189000283FF4F6AE01212046B8
:102FF00001F02AFF064600283FF4EEAE199B049923
:10300000002BABBF0C9A129A129FDDF83090ACBF28
:1030100003EB0209D71A1A9AA3EB01089044A14BBB
:1030200008F1FF389845C2F1360280F2C780A3EB61
:1030300008031F2BA2EB03024FF0010100F3B18044
:1030400001FA03F30D930023089309EB0208049B94
:10305000C14517441F444B46A8BF4346BB42A8BFC7
:103060003B46002BC2BFA8EB0308FF1AA9EB0309DC
:103070000C9B002B17DD31461A46204601F0A4FFB9
:10308000064600283FF4A8AE0146189A204601F0F3
:10309000F1FE0B9000283FF49FAE1899204601F0F6
:1030A000D1FD0B9B1893B8F1000F00F38C80069BA9
:1030B000002B08DD129A0599204601F085FF059046
:1030C00000283FF489AE002F08DD05993A462046D6
:1030D00001F0D4FF059000283FF47EAEB9F1000F57
:1030E00008DD31464A46204601F0C8FF0646002862
:1030F0003FF472AE059A1899204602F04BF8054647
:1031000000283FF469AEC3680B930023C3603146C7
:1031100002F024F8002860DA0B9B53EA0A0340F01F
:103120008280CBF31303002B7DD12BF000431B0DCA
:103130001B05B3F1D66F76D96B6913B92B69012BD7
:1031400071DD29460122204601F098FF31460546EF
:1031500002F004F8002866DD0499534A5B46002912
:1031600000F0818002EA0B01B1F1D66F7BDCB1F196
:103170005C7F7FF7A9AE4D4B50465946002202F0C6
:103180000BFC0B46034308BF222382468B4608BF35
:1031900023602BE64FF0FF3202FA03F303EA0A0A38
:1031A000E3E6C8F17F4808F57F0808F57B4808F199
:1031B000E20801FA08F308930D9146E7002308930B
:1031C00001230D9341E718994246204601F056FF2E
:1031D000189000287FF46BAFFEE55F466ED10B9A26
:1031E000CBF3130342B3324A934228D1049B514696
:1031F000EBB12D4B3B40B3F1D46F4FF0FF3219D8F8
:103200001B0DC3F16B0302FA03F3994217D1294B4B
:103210009F4202D101313FF4DFAD234B3B4003F528
:10322000801B4FF0000A049B002BA4D1DEE54FF079
:10323000FF33EAE71346E8E753EA0A038CD0089B1A
:10324000DBB13B42EFD00B9B049A50465946C3B1C9
:10325000FFF75EFB02460B4651EC180BFEF776FAC1
:1032600082468B46DFE71340A3F580136FEA135BBA
:103270006FEA0B5B4FF0FF3AD5E70D9B13EA0A0F9D
:10328000E0E7FFF745FB02460B4651EC180BFEF753
:103290005BFA0022002382468B4602F0E5FD0028FF
:1032A000C1D011E602FCFFFF0000F07F00005039A2
:1032B000FFFF0F00FFFFEF7F7873000831462846BD
:1032C00002F0CAF859EC108B10EE100A00224FF0F1
:1032D0008043494602F0DCFD00287AD00B9B002B8E
:1032E0004AD0954B0022CDE90823DFF84C924FF0ED
:1032F0000008924B3B400D930D9A914B9A4240F03F
:10330000B080DDE90801A7F1547B4BEC10ABCDE9AF
:10331000080101F0C9FFDDE9080153EC102B02F0B0
:103320003BFB52465B46FEF711FA0B468349854A42
:1033300019409142824660D918EE903A02F15472D7
:10334000934204D118EE103A01333FF445ADDFF853
:1033500000B24FF0FF3A1899204601F073FC05992E
:10336000204601F06FFC3146204601F06BFC2946F7
:10337000204601F067FC1AE6BAF1000F1BD1CBF32F
:103380001303F3B96C4B00224046494602F076FD28
:10339000D0B9404649466C4B002202F0FDFA804607
:1033A000894609F10043CDF850801593DDE91423D7
:1033B000CDE908239DE7BAF1010F02D1002F3FF4B8
:1033C00083AD624B00228EE7DFF87C914FF000085E
:1033D000E7E75D4B40464946002202F0DDFA0B9BD1
:1033E0008046894633B901F100430E900F93DDE921
:1033F0000E23DDE7CDE90E89F9E703F1547B049B49
:10340000002BA8D12BF000430D9A1B0D1B059A42EF
:10341000A1D14046494602F007FEFEF71FFB0246D7
:103420000B4640464946FEF78FF90B9ACBF3130340
:1034300043EA0A0313438046894655D036A3D3E9AD
:10344000002302F01BFD00287FF4D0AC34A3D3E9A5
:1034500000234046494602F02FFD00283FF47BAF91
:10346000C4E4049B33B30D9BB3F1D46F22D82EA3D5
:10347000D3E900234046494602F00AFDA0B149467F
:10348000404602F061FD012838BF0120FEF79AFA9C
:103490000B9B8046894623BB01F10043109011939A
:1034A000DDE91023CDE90823099B0D9A03F1D663CA
:1034B0009B1A0993DDE90801B0EE480AF0EE680AAC
:1034C000CDE9080101F0F0FEDDE9080153EC102B15
:1034D00002F062FA53EC182BFEF738F982468B465D
:1034E0008DE7CDE91089DBE711A3D3E9002302F0D2
:1034F000C5FCB2E700230A93139A179B1360FFF7EA
:103500006BBA652A3FF45FAB452A3FF45CAB0123FD
:10351000FFF794BBAFF300809535A094FFFFDF3F2A
:1035200035E5AF350000E03F0000C0FFFFFFDF41A1
:103530009535A094FFFFCF3F0000F03F0000F07FE3
:103540000000E07FFFFF9F7C0000E03F0000F0BF35
:10355000FFFFEF7F014BFFF7F7B900BF70000020BE
:10356000012B2DE9F04701D0242B06D9FEF7A4FA50
:10357000162303600020BDE8F087DFF8E4C00D46A5
:103580002E4615F8014B14F80C7017F00807F7D108
:103590002D2C32D12C780127B51C002B5BD0102BA1
:1035A00009D1302C07D12C7804F0DF04582C4DD1F0
:1035B0006C781023023507F1004808F1FF384FF00E
:1035C000000CB8FBF3F9664603FB198AA4F1300E30
:1035D000BEF1090F16D87446A34224DDBCF1000FDA
:1035E0001EDBB1451CD301D1A24519DB06FB034606
:1035F0004FF0010C15F8014BE8E72B2C04BF2C7899
:10360000B51CCAE7A4F1410EBEF1190F01D8373C31
:10361000E2E7A4F1610EBEF1190F04D8573CDBE7D5
:103620004FF0FF3CE6E7BCF1000F05DA2223036010
:10363000464642B930469EE707B17642002AF9D0A5
:10364000BCF1000F00D0691E1160F3E73024002B9D
:10365000B1D10823AFE7302CA5D00A23ABE700BFD8
:10366000B4710008FFF77CBF30B51446002C9BB046
:1036700005461A4605DA8B2303604FF0FF301BB076
:1036800030BD4FF40273ADF80C3014BF04F1FF33BA
:103690002346029305934FF6FF7300910491ADF812
:1036A0000E3069461E9B02F02BF8431CBCBF8B23D7
:1036B0002B60002CE3D0009B00221A70DFE7000093
:1036C00007B5009313460A46014603480068FFF712
:1036D000CBFF03B05DF804FB080000202DE9F74F95
:1036E00003690C69A3420746C0F28180013C01F1E5
:1036F000140800F1140505EB8403019358F82430F5
:1037000055F8242001339A424FEA840B08EB8409D0
:10371000B2FBF3F631D34FF0000E4046AC46F24612
:1037200050F8042B93B206FB03E34FEA134E9BB20F
:10373000AAEB0303120CDCF800A006FB02E213FA6A
:103740008AF34FEA124E1FFA82FADCF80020CAEB25
:10375000124202EB23429BB243EA024381454CF8FA
:10376000043B4FEA224ADBD255F80B302BB9019BC0
:10377000043B9D421A462ED33C61384601F0EEFCD4
:10378000002824DB013628464FF0000C58F8042BA3
:10379000D0F800E093B2ACEB0303120C13FA8EF3F3
:1037A000C2EB1E4202EB23429BB243EA0243C145F5
:1037B00040F8043B4FEA224CE8D255F8242005EBB0
:1037C000840322B9043B9D421A460AD33C61304629
:1037D00003B0BDE8F08F1268043B002ACCD1013C55
:1037E000C7E71268043B002AF0D1013CEBE7002058
:1037F000EEE70000000000002DE9F04F2DED048BF6
:1038000057EC106B93B0456ADDF88080069110EE9E
:1038100010AA044609920C93BB4675B9102001F01A
:103820004DF90246606220B9A74BEA21A748FDF78F
:1038300071FCC0E901550560C560636A196851B142
:103840005A684A60012393408B60204601F0FAF9E0
:10385000636A00221A603B1EAABF002323F0004BBC
:10386000C8F800309A4BBCBF0122C8F8002033EAE8
:103870000B031BD10C9A42F20F731360CBF31303AB
:10388000334300F09285219B63B9924B22E0924B27
:1038900001930833219A1360019813B0BDEC048B97
:1038A000BDE8F08F8B4B01930333F3E70022002335
:1038B0005046594602F0D8FA4BEC19AB804658B145
:1038C0000C9A01231360219B002B00F06B85834829
:1038D0001860431E0193DFE74BEC10AB10AA11A94F
:1038E000204601F05DFDCBF30A5508EE100A002DCD
:1038F00000F0848019EE903AC3F3130343F07F572E
:10390000564647F44017A5F2FF35CDF83880744B82
:10391000002230463946FDF717FF65A3D3E900239F
:1039200002F03AF864A3D3E90023FDF70FFF06463F
:1039300028460F46FEF756F861A3D3E9002302F0AC
:103940002BF802460B4630463946FDF7FFFE064689
:103950000F4602F0D1FA002200900023304639468B
:1039600002F08CFA50B10098FEF73CF832463B4624
:1039700002F07AFA10B9009B013B0093009B162BD2
:103980005AD8009A574B03EBC203D3E9002351ECFA
:10399000190B02F073FA002850D0009B013B0093F2
:1039A00000230B93109B5D1B6B1E059345BFC5F158
:1039B00001030493002300234CBF05930493009B51
:1039C000002B3DDB059B009A0A92134405930023CC
:1039D0000793069B092B00F28980052BC4BF043B8B
:1039E0000693069BA3F10203CCBF00250125032B00
:1039F00000F28780DFE803F02D3A3859DDE91053F3
:103A00001D4405F23243202BC1BFC3F1400305F230
:103A100012400BFA03F326FA00F0DABFC3F12003D9
:103A200006FA03F01843FDF7CDFF01230646A1F186
:103A3000F877013D0E936AE70123B2E70B90B1E7F7
:103A4000049B009A9B1A04935342079300230A9302
:103A5000BFE700230893099B002B55DC0123CDE928
:103A600002331A4609920CE00123F3E70023099A76
:103A70000893009B134402930133012B0393B8BFB7
:103A80000123606A00224260042202F114069E4271
:103A900041683DD9204601F095F8019000283BD1BE
:103AA000114B02464FF4D571C0E60123DFE700BF9A
:103AB00061436F63A787D23FB3C8608B288AC63F34
:103AC000FB799F501344D33FAD730008C4730008C3
:103AD0000000F07FA9730008A07300082573000898
:103AE0000000F83F307500081E740008012500230F
:103AF000069308954FF0FF33CDE9023300221223DD
:103B0000B0E701230893F5E7099BCDE90233B8E755
:103B1000013141605200B8E7636A019A1A60039B61
:103B20000E2B00F29D80002D00F09A80009B002B50
:103B300032DDB74A03F00F0302EBC303D3E9008978
:103B4000009BD8054FEA231716D5B24B51EC190B41
:103B5000D3E9082302F04AF807F00F0782468B46A4
:103B60000325AC4E57B942464B465046594602F0E3
:103B70003DF882468B4628E00225F2E7F90708D592
:103B800040464946D6E9002301F006FF013580464C
:103B900089467F100836E5E700F09B80009B9D4F2B
:103BA0005E429B4B06F00F0203EBC203D3E90023F6
:103BB00051EC190B01F0F0FE361182468B460023C2
:103BC0000225002E7AD1002BD3D10B9B002B00F0C5
:103BD0008280914B00225046594602F04FF900284E
:103BE00079D0039B002B76D0029B002B36DD009B07
:103BF000504659465F1E0022884B01F0CDFE029EC2
:103C000082468B4601352846FDF7ECFE52465B4660
:103C100001F0C2FE824B0022FDF798FDD046D94646
:103C20008246A1F1507B002E58D17E4B00224046A7
:103C30004946FDF789FD52465B468046894602F0BB
:103C40003BF9002840F0958252460BF10043404674
:103C5000494602F013F9002840F089825BEC19AB69
:103C6000119B002BC0F24881009A0E2A00F3448178
:103C7000674B03EBC203D3E90089099B002B80F259
:103C8000D580039B002B00F3D18040F06F82654B01
:103C900000224046494601F07FFE52465B4602F054
:103CA00001F9039E3746002840F04582019D3123EB
:103CB00005F8013B009B0133009340E2F20705D574
:103CC000D7E9002301F068FE01350123761008379B
:103CD00077E7022579E7009F039E94E701994C4B13
:103CE00031440D91089903EBC60353E902230029DF
:103CF00043D04D49002001F079FF52465B46FDF765
:103D000023FD019D82468B464946404602F0F4F869
:103D10000646FDF767FE02460B4640464946FDF75C
:103D200013FD303605F8016B52465B4680468946E6
:103D300002F0A4F8002863D142464B4636490020E1
:103D4000FDF702FD52465B4602F098F8002840F06D
:103D5000B5800D9B9D4281D0304B00225046594684
:103D600001F01AFE2D4B82468B4640464946002202
:103D700001F012FE80468946C6E75046594601F0DA
:103D80000BFE0D9B019D0F9382468B464946404694
:103D900002F0B2F80646FDF725FE303602460B4625
:103DA00040464946FDF7D0FC05F8016B0D9B9D424E
:103DB000804689464FF0000224D11B4B504659469D
:103DC000FDF7C4FC02460B464046494602F074F833
:103DD000002873D152465B4613490020FDF7B4FC1E
:103DE00002460B464046494602F048F800283FF498
:103DF00035AF0F9D6B1E0F9315F8013C302BF8D09B
:103E0000009749E0054B01F0C7FD80468946BDE7B4
:103E100030750008087500080000F03F00002440DD
:103E200000001C40000014400000E03F019D564689
:103E30005F4642464B463046394601F0D7FE02F017
:103E40005BF88246FDF7CEFD42464B4601F0A4FDED
:103E500002460B46304639460AF13006FDF774FC3F
:103E600005F8016B019E039FAE1BB74202460B464D
:103E700035D1FDF76BFC42464B4606460F4602F035
:103E80001BF8D0B942464B463046394601F0ECFFAC
:103E900010B11AF0010F10D1204618EE101A00F0E0
:103EA000D1FE002300982B700C9B01301860219BE1
:103EB000002B3FF4F1AC1D60EEE4009F2B461D4645
:103EC00013F8012D392A06D1019A9A42F7D10199A6
:103ED000302201370A701A7801321A7090E7A64B27
:103EE000002201F059FD0022002306460F4601F092
:103EF000BBFF00289DD0CFE7089A002A00F0D780AA
:103F0000069A012A00F3BA800E9A002A00F0B280C5
:103F100003F23343079E049D049A1A440492059ABF
:103F200001211A442046059200F08EFF0746002D1D
:103F30000CDD059B002B09DDAB42049AA8BF2B4684
:103F4000D21A0492059AED1AD31A0593079B1BB354
:103F5000089B002B00F0AF80002E13DD394632465F
:103F6000204601F031F818EE102A01460746204697
:103F700000F080FF18EE101A8046204600F062FE26
:103F800008EE108A079B9A1B06D018EE101A2046DE
:103F900001F01AF808EE100A0121204600F054FF43
:103FA0000A9B002B064640F388801A4601462046AD
:103FB00001F00AF8069B012B064640F381804FF082
:103FC0000008336906EB8303186900F0EDFEC0F1C9
:103FD0002000059B184410F01F0000F09280C0F1F3
:103FE0002003042B40F38A80C0F11C00049B03448F
:103FF0000493059B034405440593049B002B07DDB4
:1040000018EE101A1A46204601F038F808EE100A89
:10401000059B002B05DD31461A46204601F02EF89F
:1040200006460B9B002B6ED018EE100A314601F0AD
:1040300095F8002867DA009B013B18EE101A0093F0
:104040000A220023204600F01FFE089B08EE100AFB
:10405000002B00F0B181002339460A22204600F0EF
:1040600013FE029B002B074600F38E80069B022B5B
:1040700051DC89E0109BC3F136034BE7039B5E1EC6
:10408000079BB342BFBF079B0796F21A0A9BB6BFB6
:104090009B189E1B0A93039BB8BF0026002BB7BF3B
:1040A000DDE90323DDE903359D1A002334E7079E8C
:1040B000049D089F3BE7079A67E7069B012B18DCE6
:1040C000BAF1000F15D1CBF3130393B92BF00043D2
:1040D0001B0D1B0583B1049B01330493059B013326
:1040E00005934FF001080A9B002B7FF46AAF012073
:1040F0006FE74FF00008F6E79846F4E73FF47DAF2E
:1041000018461C3072E7039B002B37DC069B022B02
:1041100034DD039B0293029B6BB931460522204696
:1041200000F0B2FD0146064618EE100A01F016F83E
:1041300000283FF7BBAD099B019DDB4300934FF087
:1041400000083146204600F07DFD002F3FF4A4AE6C
:10415000B8F1000F05D0B84503D04146204600F025
:1041600071FD3946204600F06DFD95E60026374684
:10417000E1E70097374699E500002440089B002BB3
:1041800000F0CA80039B0293002D05DD39462A46C4
:10419000204600F073FF0746B8F1000F5BD0796846
:1041A000204600F00FFD054628B9874B024640F235
:1041B000EA21FFF73BBB3A690232920007F10C019A
:1041C0000C3000F0E5FC01222946204600F056FFA5
:1041D000019B03F10109DDE90123134405930AF072
:1041E0000103B84604930746314618EE100AFFF75C
:1041F00075FA4146029000F1300A18EE100A00F0FC
:10420000ADFF3A4603903146204600F0C3FFC26836
:1042100009F1FF3B054602BB014618EE100A00F00B
:104220009DFF024629462046079200F00BFDDDE97E
:10423000063243EA0201049B0B434D460FD1BAF10B
:10424000390F2AD0039B002B02DD029B03F1310AB8
:104250008BF800A075E73846BAE70122E2E7039B36
:10426000002B04DB06990B4304990B4322D1002A4F
:10427000EEDD18EE101A0122204600F0FFFE314656
:1042800008EE100A00F06AFF002803DCE0D11AF003
:10429000010FDDD0BAF1390FD7D139238BF80030B7
:1042A0002B461D46013B15F8012C392A71D00132ED
:1042B0001A7046E7002A07DDBAF1390FEDD00AF18E
:1042C00001038BF800303CE7059B09F801AC9945E8
:1042D00047D018EE101A00230A22204600F0D4FC22
:1042E000B84508EE100A4FF000034FF00A024146AD
:1042F000204606D100F0C8FC8046074609F10109B6
:1043000072E700F0C1FC3946804600230A222046AD
:1043100000F0BAFC0746F1E7039B0293019D18EEFB
:10432000100A3146FFF7DAF900F1300A019B05F86F
:1043300001ABEA1A029B934209DD18EE101A002322
:104340000A22204600F0A0FC08EE100AE7E7029BD4
:10435000002BC8BF1D46019BD8BF01251D444FF04F
:10436000000818EE101A0122204600F087FE3146A0
:1043700008EE100A00F0F2FE002891DC02D11AF0DB
:10438000010F8DD12B461D4613F8012D302AFAD08E
:10439000D7E6019A9A4284D1009B013300933123DE
:1043A0001370CEE6094BFFF795BA219B002B7FF4E3
:1043B0006EAA074BFFF78EBA029B002BAEDC069B62
:1043C000022B3FF7A8AEA9E71E740008247300086B
:1043D000A07300080369B3EB611F2DE9F0434FEAB6
:1043E000611200F1140445DD11F01F0104EB830696
:1043F00004EB82050CD100F110072946B14234D3F9
:104400009B1A9B00EA1E964238BF0023234415E006
:1044100054F82270C1F12008CF4005F1040EA146E6
:104420007645F44615D89A1A9200043A0135AE4200
:1044300038BF0022A318A75007B104331A1BA342A8
:104440004FEAA20208BF0023026108BF4361BDE832
:10445000F083DCF800C00CFA08FC4CEA070749F8C6
:10446000047B5EF8047BCF40DAE751F804CB47F8D1
:1044700004CFC3E72346E1E7A0F13003092B02D8BC
:104480002038C0B27047A0F16103052B01D847382E
:10449000F7E7A0F14103052B01D82738F1E7002009
:1044A000704700002DE9F04F2DED028B89B008EE2A
:1044B000100A0493B44B1B68019318468B46904630
:1044C000FEF71EFA019BDBF800200344824613F836
:1044D000013C0593931CC2F1FF2202F57F02FE32DC
:1044E000D1181F4613F8010B00913028F8D0FFF7C0
:1044F000C3FF044600283AD101995246384601F0DC
:1045000007FA0546002868D117F80A0007EB0A06E3
:10451000FFF7B2FF002862D03346187830281F46D4
:1045200003F10103F9D0FFF7A7FF0123B0FA80F4EC
:104530006409354600933A46164601323078FFF753
:104540009BFF0028F8D101995246304601F0E0F96E
:1045500080B94DB906EB0A052A4616460132307875
:10456000FFF78AFF0028F8D1AD1BAD0004E000245E
:104570002546E0E7002DF7D1337803F0DF03502B19
:104580003BD173782B2B2CD02D2B2ED0711C4FF0C0
:1045900000090878FFF770FF431EDBB2182B2CD8F8
:1045A000A0F1100211F8010FFFF766FF431EDBB206
:1045B000182B1DD9B9F1000F00D052421544CBF889
:1045C0000010E4B1009B002B14BF002706273846DB
:1045D00009B0BDEC028BBDE8F08F3E4625460124B4
:1045E000CAE74FF00009B11CD3E74FF00109FAE721
:1045F0000A2303FB0202103AD4E73146DFE7F31B3C
:10460000013B2146072B0BDC18EE100A00F0DAFA0A
:10461000044640B95D4B0246DE215D48FCF77AFD59
:1046200001315B10EEE700F114094FF0000BCAF105
:104630000103CDF80890CDF800B00693B74240D3FF
:104640000298009B40F8043BA0EB09008010460153
:104650002061184600F0A8FB301AD8F80060B0427C
:1046600063DD871B3946204600F04CFF8246A8B127
:104670007B1E591103F01F0259F821104FF0010A57
:104680000AFA02F20A4209D0534505DDB91E204656
:1046900000F038FF002845D14FF0020A3946204685
:1046A000FFF798FE3D44D8F80830AB424CDA18EEDC
:1046B000100A214600F0C6FA149A00231360A327BB
:1046C00085E7731E059A039316F8013C934219D0AF
:1046D000BBF1200F07D1029B009A43F8042B0293F1
:1046E000002300939B4616F8010CFFF7C5FE009BC4
:1046F00000F00F0000FA0BF0034300930BF1040BE2
:10470000039B0DE0039B069A1344BB42E0D318467B
:1047100001990793524601F0FBF8079B0028D7D177
:104720001E468BE74FF0030AB8E70ADA371A21462C
:1047300018EE100A3A4600F0A1FCED1B044600F109
:1047400014094FF0000AAEE7D8F80400A84272DD61
:10475000451BAE4236DCD8F80C30022B2AD0032B96
:104760002CD0012B1CD1AE421AD1012E12D1049AA9
:10477000D8F80430136001232361C9F80030149B7A
:1047800062271C6023E700BF947400081E740008B1
:104790002F740008711E204600F0B4FE0028E6D1F8
:1047A00018EE100A214600F04DFA149A0023136007
:1047B00050270CE7159B002BF2D1D8E7159B002B57
:1047C000D5D1EDE76F1EBAF1000F31D127B13946CF
:1047D000204600F097FE82467B11012159F82330D4
:1047E00007F01F0701FA07F71F422946204618BFA6
:1047F0004AF0020A761BFFF7EDFDD8F804500227B5
:10480000BAF1000F48D0D8F80C30022B15D0032B8A
:1048100017D0012B09D11AF0020F06D0D9F80000E9
:104820004AEA000A1AF0010F0ED147F0100733E0F0
:104830004FF0010AD0E70127E2E7159BC3F101031E
:104840001593159B002BF0D0D4F810B004F114038D
:104850004FEA8B0A03EB8B014FF0000C184653F81C
:10486000042BB2F1FF3F1CD001320260022F04F191
:1048700014033FD1D8F80020013AB2420AD1711195
:10488000012253F8213006F01F0602FA06F61E42F6
:1048900018BF174647F02007149B1C60049B1D603F
:1048A00095E6994243F804CCD8D8A3689B4519DB18
:1048B000616818EE100A013100F084F9814618B9D8
:1048C0001A4B02468421A8E62269023204F10C0147
:1048D00092000C3000F05CF9214618EE100A00F04E
:1048E000B1F94C4623695A1C04EB8303226101226F
:1048F0005A61BBE722695A450BDD01212046FFF7CB
:1049000069FDD8F808300135AB42FFF6D0AE01277B
:10491000C0E716F01F06FAD05344C6F1200653F83C
:10492000040C00F041FAB042E7DBF0E71E74000827
:10493000C2F10802920070B5C2F120064368046813
:1049400003FA06F52C43D340046040F8043F884244
:10495000F4D370BD30B50368013311F8014B14B9BD
:104960000360012030BD13F8012BA2F14105192D80
:1049700098BF2032A242F0D00020F3E72DE9F04F9B
:104980000B685E1102EB860613F01F0387B018BF99
:1049900004360025371F904602680193824646F888
:1049A000045CB9463C460295AB465178531C0393D0
:1049B00041B3084605920491FFF75EFD00284FD1F0
:1049C0000499059A202918D8029B9B4513DD4C4574
:1049D00006D2072D04DC2A4649462046FFF7A8FFE9
:1049E000444550D90023A4F1040944F8043CCDF80F
:1049F00008B04C461D46039AD7E7292956D1023202
:104A0000CAF80020BBF1000F50D04C4506D2072D4C
:104A100004DC2A4649462046FFF78AFF444534D93C
:104A2000A8F10402234653F8041B42F8041F9F42D6
:104A3000F9D23B1B23F0030304330134033EB44299
:104A400088BF04234344002243F8042B9F42FBD237
:104A50003B681BB9474527D101233B60052026E071
:104A60000135082D0BF1010B06DD4445C3D90023A8
:104A700044F8043C0125043C226800F00F0040EAA1
:104A800002122260B7E70825B5E7019B002BDFD0B3
:104A90004FF0FF32C3F1200322FA03F356F8042C3F
:104AA0001A4046F8042CD3E7043FD1E7042007B0AE
:104AB000BDE8F08F0048704760010020024B0146BE
:104AC0001868FDF709B800BF0800002082B001B9DE
:104AD00001A942B14BB113780B601278101E18BFB8
:104AE000012002B070471046FBE76FF00100F8E7C5
:104AF00001F0FF01102A2BDB10F0070F08D010F88F
:104B0000013B013A8B422DD010F0070F42B3F6D192
:104B1000F0B441EA012141EA014122F007047FF0AB
:104B200000070023F0E80256083C85EA010586EA02
:104B3000010685FA47F5A3FA87F586FA47F6A5FA3E
:104B400087F68EB9EED1F0BC01F0FF0102F007024A
:104B500032B110F8013B013A83EA010313B1F8D1F5
:104B60000020704701387047002D06BF35460338D6
:104B7000073815F0010F07D1013015F4807F02BF0F
:104B8000013015F4C03F0130F0BC0138704700BF60
:104B90000A44914200F1FF3300D1704710B511F87B
:104BA000014B03F8014F9142F9D110BD0148FCF7C8
:104BB00089BF00BFD80300200148FCF784BF00BFB5
:104BC000D803002070B5466A04460D4676B9102019
:104BD000FFF774FF0246606220B9184B184866213F
:104BE000FCF798FAC0E901660660C660666AF36879
:104BF00083B1636ADB6853F82500B8B9012101FA73
:104C000005F6721D9200204600F09DFC60B1C0E9DF
:104C100001560EE021220421204600F094FC636A34
:104C2000F060DB68002BE4D1002070BD026843F81F
:104C300025200023C0E90333F7E700BFAD73000868
:104C4000A874000870B5466A05460C4676B910206F
:104C5000FFF734FF0246686220B9094B09488A21F0
:104C6000FCF758FAC0E901660660C6603CB16B6AA1
:104C70006268DB6853F82210216043F8224070BD5F
:104C8000AD730008A87400082DE9F0410D690746CE
:104C90000C461E4601F1140C0020DCF8003099B2DD
:104CA00002FB01611E0C0B0C02FB063389B20130C2
:104CB00001EB034185424CF8041B4FEA1346ECDC40
:104CC0000EB3A368AB4219DC616838460131FFF7C7
:104CD00079FF804628B902460C4B0D48B521FCF7F8
:104CE00019FA2269023204F10C0192000C30FFF72C
:104CF0004FFF21463846FFF7A5FF444604EB8503E6
:104D000001355E6125612046BDE8F0811E74000812
:104D1000A87400082DE9F8430C4615461F460922E1
:104D20000833064693FBF2F3002101229A4209DB85
:104D30003046FFF747FF40B90246194B1948CE21CC
:104D4000FCF7E8F952000131F0E7089B4361092DB7
:104D50004FF00103036116DD04F10909C8462C4434
:104D600018F8013B0146303B0A223046FFF78CFF22
:104D7000A045F5D1A5F108044C442D1B6319BB4295
:104D800004DBBDE8F8830A340925F6E714F8013B93
:104D90000146303B0A223046FFF776FFEEE700BFC0
:104DA0001E740008A8740008030C1B04D3B9000487
:104DB000102310F07F4F04BF0002083310F0704F33
:104DC00004BF0001043310F0404F04BF80000233E1
:104DD000002805DB10F0804F03F1010308BF2023FA
:104DE000184670470023E4E7036813F00702014602
:104DF0000BD0DA0723D4980749BF5B089B08012032
:104E00000B605CBF0B600220704798B2A8B91B0C06
:104E10001020DAB20AB908301B0A1A0704BF1B09AE
:104E200004309A0704BF9B080230DA0703D45B08FA
:104E300000F1010005D00B6070471046E9E7002043
:104E4000704720207047000010B50C460121FFF785
:104E5000B9FE024628B9054B05484FF4A071FCF78E
:104E600059F901234461036110BD00BF1E7400089D
:104E7000A87400082DE9F04F91460A69D9F810305E
:104E80009A42B8BF0B460C46BCBF4C4699462769B0
:104E9000D9F810A0A368616807EB0A06B34285B091
:104EA000B8BF0131FFF78EFE30B90246444B45488A
:104EB00040F25D11FCF72EF900F1140505EB8608B0
:104EC0002B460022434521D304F1140303EB87074B
:104ED00009F1140303EB8A0202923A1B153A22F0FD
:104EE0000302043204F115018F4238BF04220192FB
:104EF000029A03939A420CD8002E03DD58F8043D21
:104F0000002B5AD0066105B0BDE8F08F43F8042BA2
:104F1000D8E7B3F800A0BAF1000F24D004F1140EC2
:104F2000A9464FF0000C5EF8042BD9F800101FFAC8
:104F300082FB89B20AFB0B114FEA124BD9F8002011
:104F400061444FEA124C0AFB0BC202EB114289B2D8
:104F500041EA0241774549F8041B4FEA124CE2D876
:104F6000019A45F802C0039AB2F802900433B9F1ED
:104F7000000F20D0296804F1140CAE464FF0000A4F
:104F8000BCF800B0BEF8022009FB0B22924489B2A3
:104F900041EA0A414EF8041B5CF8042BBEF80010ED
:104FA000120C09FB021101EB1A4167454FEA114A45
:104FB000E6D8019AA95004359AE7013E9CE700BF64
:104FC0001E740008A87400082DE9F843154612F075
:104FD000030206460F4607D0254C013A002354F839
:104FE0002220FFF751FE0746AD103DD0746A7CB910
:104FF0001020FFF763FD0246706228B91D4B1E4862
:105000004FF4D771FCF786F8C0E901440460C4602E
:10501000D6F82480D8F808404CB940F271213046C7
:10502000FFF712FF0023C8F80800044603604FF0A2
:105030000009EB070AD5394622463046FFF71AFF2A
:10504000394680463046FFF7FDFD47466D100BD0D0
:10505000206838B9224621463046FFF70BFF206012
:10506000C0F800900446E4E73846BDE8F88300BF86
:10507000F8750008AD730008A87400082DE9F04722
:105080000C464968236903EB6218A36807469146FA
:105090004FEA621A08F10106B3420BDB3846FFF70C
:1050A00091FD054648B902462A4B2B4840F2D911DA
:1050B000FCF730F801315B00EEE7002300F114014A
:1050C00000F110021846534537DB20692AEAEA7AD4
:1050D00004F1140319F01F0901EB8A0103EB8000AE
:1050E0002FD0C9F1200E8A464FF0000C1A6802FA40
:1050F00009F242EA0C024AF8042B53F8042B9842B6
:1051000022FA0EFCF2D8031B153B23F003030433F1
:1051100004F11502904238BF042341F803C0BCF1EA
:10512000000F01D008F10206013E38462E612146EB
:10513000FFF788FD2846BDE8F08742F8040F0133E9
:10514000C1E7043953F8042B41F8042F9842F9D8E9
:10515000EAE700BF1E740008A874000830B50269B1
:105160000C69121B0ED100F11403143103EB8400FF
:1051700001EB840150F8045D51F8044DA54203D0C1
:1051800005D30122104630BD8342F3D3FAE74FF036
:10519000FF32F7E72DE9F84F0C4606461146204648
:1051A0009046FFF7DBFF051E10D129463046FFF77A
:1051B00009FD30B93A4B024640F232213948FBF73B
:1051C000A9FF0123C0E90435BDE8F88FA4BF434619
:1051D000A0463046D8F80410A6BF1C46002501257D
:1051E000FFF7F0FC20B92E4B02464FF41071E5E7B3
:1051F000D8F810702669C56004F1140908F1140587
:1052000000F1140E05EB870C09EB860608F110027D
:10521000F246002159F8043B52F804BF1FFA83F804
:1052200011FA8BF11B0CA1EB0808C3EB1B4303EB3A
:1052300028431FFA88F819144E4548EA03434AF8F0
:10524000043BE7D8331B153B23F003030433153429
:10525000A64238BF04231D4473449E462E4666452D
:105260000ED30CF10302521B22F00302033DAC45A6
:1052700038BF00221A4452F8043D7BB10761A3E70E
:1052800056F8048B11FA88F2141404EB184492B205
:1052900042EA04424EF8042B2114E0E7013FEAE71A
:1052A0001E740008A874000882B08DED000B019BED
:1052B00012491940A1F15071002905DD00220B4669
:1052C00043EC102B02B070474942B1F1A07F4FEA86
:1052D00021504FF000024FF0000304DA4FF4002198
:1052E00041FA00F3ECE7A0F114011E29DABF4FF0F8
:1052F000004020FA01F101210A46E1E70000F07FB9
:10530000F8B5056900F1140707EB85052E1F55F860
:10531000044C2046FFF748FDC0F120030A28DFF8BF
:105320007CC00B6014DCC0F10B0E24FA0EF1B74206
:1053300041EA0C0334BF55F8081C0021153004FA6B
:1053400000F021FA0EF140EA010243EC102BF8BD07
:10535000B7423ABF55F8081CA5F1080600210B38E2
:1053600017D0C0F1200C04FA00F5BE4221FA0CF46B
:1053700045EA04058CBF56F8044C002445F07F53E1
:1053800001FA00F024FA0CF443F4401340EA04025A
:10539000DBE744EA0C030A46D7E700BF0000F03F12
:1053A0002DE9F7438946012157EC106B9046FFF732
:1053B00009FC044630B90246254B264840F20A3122
:1053C000FBF7A8FEC7F30A55C7F3130335BB002E3E
:1053D000019328D068460096FFF706FD009900B3B8
:1053E000019AC0F1200302FA03F30B43C240636148
:1053F0000192019BA361002B14BF022201222261B2
:10540000D5B1A5F233450544C9F80050C0F13500C7
:10541000C8F80000204603B0BDE8F08343F48013D1
:10542000D5E76161E5E701A8FFF7DEFC019B636159
:10543000012222612030E3E704EB8203A0F2324034
:10544000C9F800001869FFF7AFFCC0EB4210DFE7B6
:105450001E740008A87400082DE9F74F88466946B5
:105460008146FFF74DFF01A9404655EC104BFFF771
:1054700047FFD9F81030D8F81020A3EB020CDDE973
:1054800000329B1A03EB4C1351EC100B002BD6BFD0
:105490000A462A46C3EB03338B462F46D4BF02EBA2
:1054A000035B02EB0357204610EE102A5B46394699
:1054B00000F09CFB41EC100B03B0BDE8F08F01390C
:1054C00070B549111469013102F1140300EB810137
:1054D00003EB8404051FA3420CD3A31A113B23F052
:1054E00003031132A24288BF0023184400238842DC
:1054F00005D370BD53F8046B45F8046FEBE740F833
:10550000043BF4E700F1140200694B11984210B516
:1055100011DB0ADD11F01F0107D052F8234024FAF5
:1055200001F000FA01F18C420BD102EB83039342AC
:1055300003D8002010BD0346F7E753F8041D0029E7
:10554000F5D00120F6E713B54A4311460192FCF766
:10555000C3FA044618B1019A0021FCF7B5FA2046B7
:1055600002B010BD37B5002944D051F8043C019079
:10557000002BA1F10404B8BFE418FFF717FB1E4A83
:105580000198136833B96360146003B0BDE830401C
:10559000FFF712BBA34208D9256861198B4201BFEE
:1055A00019685B6849192160EDE71A465B680BB121
:1055B000A342FAD911685518A5420BD12468214499
:1055C0005418A3421160E0D11C685B685360214409
:1055D0001160DAE702D90C230360D6E72568611968
:1055E0008B4204BF19685B68636004BF491921607E
:1055F0005460CAE703B030BDDC030020F8B50746AD
:1056000014460E4621B9BDE8F8401146FCF764BACD
:1056100022B9FFF7A7FF25462846F8BD00F0B3F9E9
:10562000A0420FD221463846FCF756FA054600281C
:10563000F2D031462246FFF7ABFA31463846FFF743
:1056400091FFE9E73546E7E72DE9F0478E689E428E
:1056500082460C4690461F4638D88A8912F4906FCD
:1056600032D025680969A5EB0109656905EB450597
:1056700005EBD57501334B446D109D4238BF1D4677
:10568000530531D52946FCF727FA064650B90C23B5
:10569000CAF80030A38943F04003A3814FF0FF30E4
:1056A000BDE8F08721694A46FFF772FAA38923F41F
:1056B000906343F08003A381266165614E44A5EBAE
:1056C00009052660A5603E46BE4200D93E462068D8
:1056D0003246414600F03DF9A3689B1BA360236856
:1056E000334423600020DBE72A46FFF787FF0646A6
:1056F0000028E1D121695046FFF734FFC7E70000D9
:105700002DE9F04F98468B891B069DB007460D4644
:1057100014460ED50B6963B94021FCF7DDF928600A
:10572000286120B90C233B604FF0FF30D1E04023CB
:105730006B610023099320238DF82930CDF80C806C
:105740003023DFF8A8818DF82A304FF00109234675
:105750009A4613F8012B0AB1252AF9D1BAEB040BAA
:105760000BD05B46224629463846FFF76DFF0130D5
:1057700000F0AA80099A5A4409929AF80030002B46
:1057800000F0A28000234FF0FF32CDE905230AF19B
:10579000010A049307938DF853301A935446052257
:1057A00014F8011B5148FFF7A3F9049AD8B9D006A1
:1057B00044BF20238DF85330110744BF2B238DF8AD
:1057C00053309AF800302A2B15D0079A54460020FF
:1057D0004FF00A0C214611F8013B303B092B4ED902
:1057E000B0B1079214E0A0EB080309FA03F31343E6
:1057F0000493A246D2E7039B191D1B680391002B5B
:10580000BBBF5B4242F0020207930793B8BF04920A
:1058100023782E2B0CD163782A2B35D1039B1A1DAC
:105820001B680392002BB8BF4FF0FF33023405937F
:10583000DFF8C8A0217803225046FFF759F940B19C
:105840004023A0EB0A0003FA00F0049B0343013459
:10585000049314F8011B26488DF828100622FFF740
:1058600047F9002838D0234B1BBB039B073323F099
:10587000070308330393099B3344099367E70CFB41
:1058800002320C460120A5E7002301340593194696
:105890004FF00A0C204610F8012B303A092A03D9A0
:1058A000002BC5D00591C3E70CFB01210446012361
:1058B000F0E703AB00932A460F4B04A93846FCF7E8
:1058C00005FA421C0646D6D1AB895B063FF52CAFE4
:1058D00009981DB0BDE8F08F03AB00932A46064B34
:1058E00004A93846FCF796FCEBE700BF04760008F5
:1058F0000E760008CD1C0008495600080A760008FC
:105900009FED010B704700BF000000000000F87F12
:1059100010B57AB103460139841813F8010B11F858
:10592000012F904201D1A34201D1801A10BD00285D
:10593000F3D1FAE71046F9E749B1FF2A85BF8A2378
:1059400003600A704FF0FF3098BF0120704708468F
:105950007047884210B501EB020402D98442234605
:1059600007D8431EA14208D011F8012B03F8012FDC
:10597000F8E7024401468A4200D110BD13F8014DF8
:1059800002F8014DF7E751F8043C181F002BBCBF8B
:105990000B58C0187047000070B54FF0FF0C4CF466
:1059A000E06C1CEA11541DBF1CEA135594EA0C0F5D
:1059B00095EA0C0F00F0DEF82C4481EA030621EA98
:1059C0004C5123EA4C5350EA013518BF52EA0335D3
:1059D00041F4801143F4801338D0A0FB02CE4FF085
:1059E0000005E1FB02E506F00042E0FB03E54FF0B5
:1059F0000006E1FB03569CF0000F18BF4EF0010EAD
:105A0000A4F1FF04B6F5007F64F5407404D25FEAA8
:105A10004E0E6D4146EB060642EAC62141EA55515B
:105A20004FEAC52040EA5E504FEACE2EB4F1FD0C9D
:105A300088BFBCF5E06F1ED8BEF1004F08BF5FEA1B
:105A4000500E50F1000041EB045170BD06F00046CD
:105A500046EA010140EA020081EA0301B4EB5C047A
:105A6000C2BFD4EB0C0541EA045170BD41F4801172
:105A70004FF0000E013C00F3AB8014F1360FDEBF97
:105A8000002001F0004170BDC4F10004203C35DA73
:105A90000C341BDC04F11404C4F1200500FA05F3F6
:105AA00020FA04F001FA05F240EA020001F0004297
:105AB00021F0004110EBD37021FA04F642EB06010D
:105AC0005EEA430E08BF20EAD37070BDC4F10C0437
:105AD000C4F1200500FA04F320FA05F001FA04F2FB
:105AE00040EA020001F0004110EBD37041F10001E7
:105AF0005EEA430E08BF20EAD37070BDC4F12005F2
:105B000000FA05F24EEA020E20FA04F301FA05F259
:105B100043EA020321FA04F001F0004121FA04F201
:105B200020EA020000EBD3705EEA430E08BF20EAD1
:105B3000D37070BD94F0000F0FD101F0004640000B
:105B400041EB010111F4801F08BF013CF7D041EA8D
:105B5000060195F0000F18BF704703F00046520091
:105B600043EB030313F4801F08BF013DF7D043EA62
:105B70000603704794EA0C0F0CEA135518BF95EA18
:105B80000C0F0CD050EA410618BF52EA4306D1D19F
:105B900081EA030101F000414FF0000070BD50EABE
:105BA000410606BF1046194652EA430619D094EA48
:105BB0000C0F02D150EA013613D195EA0C0F05D132
:105BC00052EA03361CBF104619460AD181EA030186
:105BD00001F0004141F0FE4141F470014FF000003E
:105BE00070BD41F0FE4141F4780170BD70B54FF0D9
:105BF000FF0C4CF4E06C1CEA11541DBF1CEA135559
:105C000094EA0C0F95EA0C0F00F0A7F8A4EB05043A
:105C100081EA030E52EA03354FEA013100F0888031
:105C20004FEA03334FF0805545EA131343EA1263FA
:105C30004FEA022245EA111545EA10654FEA0026AF
:105C40000EF000419D4208BF964244F1FD0404F568
:105C5000407402D25B084FEA3202B61A65EB0305C4
:105C60005B084FEA32024FF480104FF4002CB6EB81
:105C7000020E75EB030E22BFB61A754640EA0C0001
:105C80005B084FEA3202B6EB020E75EB030E22BF41
:105C9000B61A754640EA5C005B084FEA3202B6EB82
:105CA000020E75EB030E22BFB61A754640EA9C0041
:105CB0005B084FEA3202B6EB020E75EB030E22BF11
:105CC000B61A754640EADC0055EA060E18D04FEACF
:105CD000051545EA16754FEA06164FEAC30343EA6F
:105CE00052734FEAC2025FEA1C1CC0D111F4801F3C
:105CF0000BD141EA00014FF000004FF0004CB6E735
:105D000011F4801F04BF01430020B4F1FD0C88BFD3
:105D1000BCF5E06F3FF6AFAEB5EB030C04BFB6EBDE
:105D2000020C5FEA500C50F1000041EB045170BDD1
:105D30000EF0004E4EEA113114EB5C04C2BFD4EBFE
:105D40000C0541EA045170BD41F480114FF0000E82
:105D5000013C90E645EA060E8DE60CEA135594EAFE
:105D60000C0F08BF95EA0C0F3FF43BAF94EA0C0F01
:105D70000AD150EA01347FF434AF95EA0C0F7FF476
:105D800025AF104619462CE795EA0C0F06D152EACA
:105D900003353FF4FDAE1046194622E750EA4106AE
:105DA00018BF52EA43067FF4C5AE50EA41047FF4BF
:105DB0000DAF52EA43057FF4EBAE12E74FF0FF3C24
:105DC00006E000BF4FF0010C02E000BF4FF0010CF5
:105DD0004DF804CD4FEA410C7FEA6C5C4FEA430C6E
:105DE00018BF7FEA6C5C1BD001B050EA410C0CBFBD
:105DF00052EA430C91EA030F02BF90EA020F00201F
:105E0000704710F1000F91EA030F58BF994208BF85
:105E100090422CBFD8176FEAE37040F00100704742
:105E20004FEA410C7FEA6C5C02D150EA013C07D199
:105E30004FEA430C7FEA6C5CD6D152EA033CD3D0E4
:105E40005DF8040B704700BF8446104662468C46DE
:105E50001946634600E000BF01B5FFF7B7FF002811
:105E600048BF10F1000F01BD4DF808EDFFF7F4FF3A
:105E70000CBF012000205DF808FB00BF4DF808EDC5
:105E8000FFF7EAFF34BF012000205DF808FB00BFE8
:105E90004DF808EDFFF7E0FF94BF012000205DF80A
:105EA00008FB00BF4DF808EDFFF7CEFF94BF0120BF
:105EB00000205DF808FB00BF4DF808EDFFF7C4FFB8
:105EC00034BF012000205DF808FB00BF4FEA410C01
:105ED0007FEA6C5C02D150EA013C0AD14FEA430CE4
:105EE0007FEA6C5C02D152EA033C02D14FF0000021
:105EF00070474FF0010070474FEA410212F500125F
:105F000015D211D56FF47873B3EB625212D94FEA00
:105F1000C12343F0004343EA505311F0004F23FAEA
:105F200002F018BF404270474FF00000704750EA3F
:105F3000013005D111F0004008BF6FF000407047FC
:105F40004FF00000704700BF4A0011D212F5001256
:105F500011D20DD56FF47873B3EB62520ED44FEAC1
:105F6000C12343F0004343EA505323FA02F0704741
:105F70004FF00000704750EA013002D14FF0FF307F
:105F800070474FF0000070474FEA4102B2F1E04322
:105F900024BFB3F5001CDCF1FE5C0DD901F0004C10
:105FA0004FEAC0024CEA5070B2F1004F40EB830060
:105FB00008BF20F00100704711F0804F21D113F18C
:105FC0003872BCBF01F00040704741F480114FEAC5
:105FD0005252C2F11802C2F1200C10FA0CF320FA4E
:105FE00002F018BF40F001004FEAC1234FEAD3236B
:105FF00003FA0CFC40EA0C0023FA02F34FEA4303D5
:10600000CCE77FEA625307D150EA01331EBF4FF05D
:10601000FE4040F44000704701F0004040F0FE4078
:1060200040F40000704700BF38B50022002304464A
:106030000D46FFF723FF28B920462946BDE8384022
:1060400000F00AB8204605F1004100F005F8404292
:1060500061EB410138BD00BFD0B50C4B00220646B4
:106060000F46FFF799FCFFF76FFF0446FBF7AAFC0A
:10607000074B0022FFF790FC02460B46304639469C
:10608000FBF762FBFFF760FF2146D0BD0000F03D4B
:106090000000F04103685A004CBF43F0004323F076
:1060A00000431844704700BF2DE9F84329B34F1E41
:1060B000044615463E464FF0000808EB060101EB8A
:1060C000D171491004EBC1094846FFF7E3FF0346CD
:1060D000C80008308F42204409D0AB4209D8FFF7EE
:1060E000D9FF0138A8420AD201F10108E5E7AB4225
:1060F00005D9884501D04E1EDFE74FF0000948461C
:10610000BDE8F883012807D0022807D0044B0028F7
:106110000CBF18460020704702487047024870477D
:10612000C9670008D1670008D967000830B5234B5C
:1061300083B004468D1E3BB301A92846AFF300800F
:10614000E8B101992A46FFF7AFFF0146B8B1FFF762
:10615000A1FF4B68A064012B2CD0002B01F104009F
:1061600024DBFFF797FF0023C4E913030368002B28
:1061700011DBFFF78FFF2061002003B030BD00234B
:106180000920236103B030BD0D4B0E49C91AC91057
:1061900018460191D6E7C3F30360FFF7B3FF002869
:1061A000206114BF0020092003B030BD0123C4E9E1
:1061B0001303DBE7002323610520DEE70000000076
:1061C00018760008A87600080368DA0710B50446B8
:1061D00006D49B0700F1480009D500F057FC23685E
:1061E000590709D51A070ED5DB0613D510BD00F0E7
:1061F00045FC23685907F5D404F1D00000F04EFCAB
:1062000023681A07F0D404F5A87000F04FFC236847
:10621000DB06EBD404F5E870BDE8104000F08ABC62
:106220000346006800B11844704700BF704700BFC4
:1062300070B504460E46316C2046FFF777FF0546E1
:1062400088B9326C62612369324621460120984741
:106250000828F0D0072806D12846316CFFF7E6FF62
:10626000301D00F0FFFBFAF765FE00BF2DE9F04797
:106270000D1DD0F80C80D0F81890074614460FCDAD
:10628000ADF5727D0DF10C0CACE80F000FCDACE854
:106290000F000FCDACE80F0095E80F0002AE4FF0F5
:1062A000000E8CE80F00C6F800E020E0336C7B6144
:1062B0004FF4F07231467AA8FEF76AFC3B697AAA7D
:1062C000394650469847889B73642146CDE900695A
:1062D00005463B463A460120C0470446E0B94FF424
:1062E000F0727AA93046FEF753FC082D1AD1316CB2
:1062F0003846FFF71BFF09345FFA84FA0546002889
:10630000D4D0B36B73643A46CDE900693B464AF09A
:1063100010010120C04700B1092528460DF5727D06
:10632000BDE8F087072DF7D12046316CFFF77EFFDF
:1063300003A800F097FB00BFF0B5CB6B0B6401F135
:10634000040C0E460546BCE80F00F9B001AC0FC4C2
:10635000BCE80F000FC4BCE80F000FC49CE80F009E
:106360004FF0FF3784E80F00009706E02B696A467C
:10637000294698470828044608D110992846FFF76F
:10638000D5FE0028F2D0092079B0F0BD6846FFF7AD
:106390001BFF062CF7D131462846FFF749FF00BF07
:1063A000C160D96B8261196400221946FFF75EBF94
:1063B00070B5C66843690B64AEB903690A46044602
:1063C0000D46014602209847072805D008280FD11E
:1063D00029462046FFF72CFF3046296CFFF726FFA1
:1063E000281D00F03FFB0122FFF740FFFAF7A2FD56
:1063F000FAF7A0FDC26822B1CA6B0A640022FFF757
:1064000035BFFFF799BF00BF012912D009D873B972
:106410000F2A0CD800EB820218465368009A1360CA
:1064200070470339012994BF0120022070470220E0
:1064300070470846704700BF00B585B00A46002384
:1064400003A900911946FFF7DFFF039805B05DF837
:1064500004FB00BF012912D009D873B90F2A0CD848
:1064600000EB8200009A12684260184670470339B8
:10647000012994BF0120022070470220704708467E
:10648000704700BF10B584B0002303AC03920094A2
:106490000A461946FFF7DEFF04B010BD70B5D36B96
:1064A000136402F1040C05460C46BCE80F00ADF580
:1064B0000E7D0DF15C0EAEE80F00BCE80F00AEE8FB
:1064C0000F00BCE80F00AEE80F009CE80F004FF093
:1064D000FF368EE80F00169610E0FFF7D3FF214637
:1064E00016A8A847034616AA6946082083B9049B44
:1064F0009847052806460CD0092809D026996846F1
:10650000FFF714FE03466A460C2116A8002BE4D0C0
:10651000092616A8FFF758FE30460DF50E7D70BD12
:106520002DE9F04FCC6C89B01E4654F8043B06941C
:106530000D46174600F00308002E79D01A0C1B04F4
:1065400005938DF81D200223D2B204EB82048DF84E
:106550001C302B6DB8F1020F08BFAC6B13F00103B8
:106560000CD005A9384600F06FFB18B9082009B017
:10657000BDE8F08F092009B0BDE8F08FD4F800A085
:10658000BAF1000FEDD0019300F008030293022E40
:106590004AD0B4F800A0B4F802900434AB6C29F0EF
:1065A000010B0F2138469B44FFF746FF834539D83E
:1065B0002AF001039B44834594BF002001204FEA49
:1065C000490303F002030AF0010A43EA0A03012B1C
:1065D00049D0022B32D0002BCCD1B8F1000F02D021
:1065E000002840F0CD800434D4F800A0BAF1000FA8
:1065F000CDD105A9384600F027FB0028BAD1019B70
:10660000002BB3D00F213846FFF716FF0E210246AC
:106610003846FFF737FF38466A4A0F21FFF732FF47
:106620000720A8E70020CAE7D4F804900834B5E7AB
:106630001B0205930323ADF81C308AE7236823F07F
:10664000004BB8F1000F45D128B1029A002A5CD066
:10665000BBF1000F74D0002B00DA04340BF1010BF6
:1066600004EB8B04C0E7B8F1000F19D1B0B1636837
:106670002268991C4FEAD2723FF47CAF05F15801B1
:106680000133049100F09080201DFFF7C9FD04AB99
:1066900001462846AFF3008000285BD10834A3E709
:1066A0000D213846D5F82090FFF7C6FE8145F5D17B
:1066B000AB6A9C42F2D12046FFF7ECFC0F21024668
:1066C0003846FFF7DFFE38462A460021FFF7DAFE9C
:1066D000072050E70D213846D5F82090FFF7ACFE93
:1066E000814501D02368B6E7AB6A9C42FAD1042306
:1066F0000022C5E90B23E318C5F828B06B632368B3
:10670000002B59DB01230193A8E705F15803CDF8CD
:106710000C8004F1040AB04691461E460EE0504635
:106720000496FFF77DFD0022014604AB284609F1DF
:1067300001090AF1040AAFF30080E0B9D945EED1AE
:106740000D213846FFF778FE049BAC62C5E90803CB
:10675000062010E781460D213846FFF76DFEB9F19E
:10676000020F286225D12B46049A43F82C2F6B6226
:10677000AC620620FFE646462368DDF80C806AE737
:106780002046FFF787FC04340246AC6328461446D3
:10679000AFF3008000283FF4EDAE384622460F21CB
:1067A000FFF770FE0720E6E60D213846FFF744FEAE
:1067B0002862049B6B62DBE70BF1010004EB8000B5
:1067C0007AE700BF000000000023FFF7A9BE00BF6A
:1067D0000123FFF7A5BE00BF0223FFF7A1BE00BF44
:1067E0002DE9F0430646C3B015461C46042900F2C5
:1067F000BF80DFE801F09E57BD2D0300002C40F064
:10680000B780102A00F2B4800368D80600F1F9803E
:1068100020AF384600F098F9B46B394600234FF0AA
:10682000010C0CFA03F22A42204603F1010303D0C3
:1068300050F8042B0A600446042B01F10401F0D146
:106840003846B46300F076F9002043B0BDE8F08329
:10685000032C40F08D8094B204EB1243102B4FEACE
:10686000124500F2858003681F0700F1D28020AF37
:10687000384600F03DF9B26B07EBC50154B10B4649
:10688000D01A01EBC401E4001D5843F8045B8B42AD
:10689000FAD122443846B26300F008F9002043B030
:1068A000BDE8F083012C4FEA124895B25CD0052C6C
:1068B0005ED108EB0509B9F1200F59D8B8F10F0FD7
:1068C00079D9A946002D40F08A80B36B6DB320AF13
:1068D0004FF0000907EBC807043F03EBC50553F869
:1068E000041B47F8041FAB42F9D1B9F1000F0FD0D8
:1068F0006F464146102938BF102107EBC10184398A
:1069000003EBC90553F8040B41F8040FAB42F9D16E
:10691000012C00F08680B8F10F0FB56347D9B9F1AB
:10692000000F02D0684600F0B9F8002043B0BDE87F
:10693000F083ECB9806B23461FFA82FC0124371DDB
:1069400004FA03F212EA0C0F014604D051F8042BAA
:1069500047F8232008460133102BF1D115F40055D8
:10696000E3D1B063284604E008EB0503102B03D9FC
:10697000022043B0BDE8F083B8F10F0FF8D83368B8
:10698000DA0706D5304623F0030340F8483B00F011
:1069900079F820AF384600F075F8B36B002D97D129
:1069A0001D460435B563384600F068F8BDE720A8F9
:1069B00000F06CF8B3E7B9F1100F40D9A9F1100954
:1069C0003368D90708D523F00103304643F00203AA
:1069D00040F8483B00F05EF8B9F1000F32D0336860
:1069E0005A0720D4B8F10F0F25D96F463846C8F1A1
:1069F000100500F057F8002DB36B7FF77AAF20AF8A
:106A000068E723F01003336006F5E87000F09CF8A7
:106A1000FEE623F00803036000F5A87000F068F8B4
:106A200025E720AFBDE7304623F0040340F8D03B14
:106A300000F038F8D6E720A800F02CF8D5E74FF0A2
:106A40000009BDE7B8F10F0F3FF63FAF20AF384662
:106A500000F020F8B36B002D7FF43AAF384600F019
:106A600015F862E700F1340191E838009C46A6462B
:106A70004CF8045D90E8FF0FE54600BD90EC210B5B
:106A8000704700BF80EC210B704700BF90EC200BDB
:106A9000704700BF80EC200B704700BFD0EC200B8C
:106AA000704700BFC0EC200B704700BFF0EC020144
:106AB000F0EC0211F0EC0221F0EC0231F0EC0241BA
:106AC000F0EC0251F0EC0261F0EC0271F0EC0281AA
:106AD000F0EC0291F0EC02A1F0EC02B1F0EC02C19A
:106AE000F0EC02D1F0EC02E1F0EC02F1704700BFF3
:106AF000E0EC0201E0EC0211E0EC0221E0EC0231FA
:106B0000E0EC0241E0EC0251E0EC0261E0EC0271E9
:106B1000E0EC0281E0EC0291E0EC02A1E0EC02B1D9
:106B2000E0EC02C1E0EC02D1E0EC02E1E0EC02F1C9
:106B3000704700BFB0FC0181B0FC0191B0FC01A125
:106B4000B0FC01B1704700BFA0FC0181A0FC019125
:106B5000A0FC01A1A0FC01B1704700BFEC4600B54C
:106B60002DE900502DE9FF1F4FF000032DE90C0027
:106B700001A9FFF7E1FBDDF840E012B0704700BF6C
:106B8000EC4600B52DE900502DE9FF1F4FF0000342
:106B90002DE90C0001A9FFF70BFCDDF840E012B075
:106BA000704700BFEC4600B52DE900502DE9FF1FEE
:106BB0004FF000032DE90C0001A9FFF71BFCDDF8E5
:106BC00040E012B0704700BFEC4600B52DE9005020
:106BD0002DE9FF1F4FF000032DE90C0001ABFFF77B
:106BE000DFFBDDF840E012B0704700BFEC4600B5B7
:106BF0002DE900502DE9FF1F4FF000032DE90C0097
:106C000001AAFFF74BFCDDF840E012B0704700BF6F
:106C1000027A03467AB9427AA2B14168013A10B4C5
:106C20004272086803220C1D1A7202025C60000E98
:106C300010BC1A6070470068013A1A7202021A60AA
:106C4000000E7047B02070472DE9F043054685B02F
:106C50000E464FF000083046FFF7DAFFB028044632
:106C600000F0BA80070620D500F0F003802B4DD04D
:106C7000902B36D0A02B60D0B02B74D0C02B00F05E
:106C80008B8000F0F803D02B0BD100F0070201320B
:106C9000052342F4002201212846FFF7A1FD002828
:106CA000D9D0092005B0BDE8F0838300DBB21F1DF9
:106CB0000DF10C0900231946CDF800900D2228464D
:106CC000FFF7A2FB039BCDF8009060064CBFDF1BD3
:106CD000FF1800230D22194628460397FFF7BAFB39
:106CE000B9E700F00D030D2BDBD003AF002300F05C
:106CF0000F02194600972846FFF786FB00230097EE
:106D00000D2219462846FFF7A5FBA4E73046FFF7FA
:106D10007FFF24022043B0F5004FC2D004010023BE
:106D2000A2B219462846FFF75BFD0028B9D114F43A
:106D3000004F18BF4FF001088DE7C24302F0070370
:106D40004FF47F621A41010702F47F624FF00003A3
:106D500048BF42F4804219462846FFF741FD00280B
:106D60003FF479AF9DE7B1283BD0B22800F0938083
:106D7000B32841D000F0FC03B42B92D000F00702FE
:106D80000132012342F4002219462846FFF728FD6C
:106D900000283FF460AF84E7C6284AD0C72854D003
:106DA00000F0F803C02B63D0C82868D0C9287FF44E
:106DB00078AF3046FFF72CFF020300F00F0002F41B
:106DC000702201300243012105232846FFF708FD08
:106DD00000283FF440AF64E7B8F1000F18D000205E
:106DE00060E73046FFF714FF024600283FF459AF32
:106DF00010F0F003C8D054E73046FFF709FF020354
:106E000000F00F03013302F470221A430123BBE7A1
:106E100003AC43460E22414600942846FFF7F4FA9D
:106E2000009443460F2241462846FFF713FB404695
:106E300038E73046FFF7ECFE020300F00F030133A2
:106E400002F470221A4303239EE73046FFF7E0FE68
:106E5000024600283FF425AF10F0F0037FF421AF85
:106E600004212846FFF7BCFC00283FF4F4AE18E7E5
:106E700000F00F020132032342F4202284E730465F
:106E8000FFF7C6FE00F0F00200F00F0310320133EE
:106E900043EA023297E700230DF10C090D2219464F
:106EA000CDF800902846FFF7AFFA3046FFF7B0FE66
:106EB00002064FF002040CD5039B00F07F00A040B7
:106EC000184403903046FFF7A3FE030604F10704BD
:106ED000F2D4039BCDF8009000F07F02A24003F5AE
:106EE00001731A440023039219460D222846FFF726
:106EF000B1FAB0E62E2E2F73797374656D2F73720D
:106F0000632F73746D333266342D68616C2F737424
:106F10006D3332663478785F68616C5F636F72746A
:106F200065782E63000000002E2E2F737973746530
:106F30006D2F7372632F73746D333266342D6861F5
:106F40006C2F73746D3332663478785F68616C5F70
:106F50007263632E6300000000000000010203045E
:106F6000010203040607080961626F727428292C64
:106F70002065786974696E672E2E2E003A7474004D
:106F80002C2066756E6374696F6E3A2000000000F5
:106F9000617373657274696F6E2022257322206697
:106FA00061696C65643A2066696C652022257322EC
:106FB0002C206C696E65202564257325730A0000FA
:106FC0006173736572745F706172616D28292066E8
:106FD00061696C65643A2066696C652022257322BC
:106FE0002C206C696E652025640A0000537461636F
:106FF0006B206672616D653A0A00000020523020F5
:107000003D2020253038580A000000002052312051
:107010003D2020253038580A000000002052322040
:107020003D2020253038580A00000000205233202F
:107030003D2020253038580A00000000205231320F
:10704000203D20253038580A00000000204C5220F6
:107050003D2020253038580A0000000020504320F1
:107060003D2020253038580A00000000205053529F
:10707000203D20253038580A000000004653522F8A
:107080004641523A0A0000002043465352203D2018
:1070900020253038580A00002048465352203D2011
:1070A00020253038580A00002044465352203D2005
:1070B00020253038580A00002041465352203D20F8
:1070C00020253038580A0000204D4D464152203DC1
:1070D00020253038580A00002042464152203D20E9
:1070E00020253038580A00004D6973630A000000FB
:1070F000204C522F4558435F52455455524E3D2027
:10710000253038580A0000005B486172644661759A
:107110006C745D0A000000005B4275734661756C1B
:10712000745D0A005B55736167654661756C745DDB
:107130000A0000000000000000000000010203043B
:1071400006070809496E6974204F4B0A00000000C9
:10715000696E74206379636C653A2025640A0000C7
:10716000696E74313620633D25640A00666C6F6178
:1071700074203332206379636C653A2025640A00F9
:10718000666C6F617420333220633D25660A00000F
:10719000666C6F6174203634206379636C653A20C5
:1071A00025640A00666C6F617420363420633D25C7
:1071B000660A0000202020202020202020282828C7
:1071C00028282020202020202020202020202020AF
:1071D00020202020881010101010101010101010F7
:1071E0001010101004040404040404040404101017
:1071F00010101010104141414141410101010101B4
:10720000010101010101010101010101010101105F
:107210001010101010424242424242020202020288
:107220000202020202020202020202020202021030
:1072300010101020000000000000000000000000FE
:10724000000000000000000000000000000000003E
:10725000000000000000000000000000000000002E
:10726000000000000000000000000000000000001E
:10727000000000000000000000000000000000000E
:1072800000000000000000000000000000000000FE
:1072900000000000000000000000000000000000EE
:1072A00000000000000000000000000000000000DE
:1072B00000000000000000000000000000000000CE
:1072C00000000000000000000000000000000000BE
:1072D00000000000000000000000000000000000AE
:1072E000000000000000000000000000000000009E
:1072F000000000000000000000000000000000008E
:10730000000000000000000000000000000000007D
:1073100000000000494E4600696E66004E414E0076
:107320006E616E00300030313233343536373839E3
:1073300041424344454600303132333435363738E4
:10734000396162636465660065256C640000000055
:1073500035000000CEFBFFFFCB0300000100000062
:107360000000000034000000CEFBFFFFCB03000054
:107370000100000000000000BC89D897B2D29C3CFC
:1073800033A7A8D523F649393DA7F444FD0FA5320C
:107390009D978CCF08BA5B25436FAC6428066811B3
:1073A000496E66696E697479004E614E00524545BA
:1073B0004E54206D616C6C6F6320737563636565FB
:1073C000646564002F486F73742F686F6D652F6953
:1073D0006C672F576F726B2F61726D2D6E6F6E65BC
:1073E0002D656162692D6763632D31302E322E3138
:1073F0002D312E312F736F75726365732F6E657724
:107400006C69622F6E65776C69622F6C6962632F9D
:107410007374646C69622F64746F612E63004261DF
:107420006C6C6F6320737563636565646564002FBE
:10743000486F73742F686F6D652F696C672F576F76
:10744000726B2F61726D2D6E6F6E652D6561626955
:107450002D6763632D31302E322E312D312E312F99
:10746000736F75726365732F6E65776C69622F6ECB
:1074700065776C69622F6C6962632F7374646C69E1
:10748000622F6764746F612D6765746865782E6319
:10749000002E000091740008097600086C0000209E
:1074A0004300504F534958002F486F73742F686F33
:1074B0006D652F696C672F576F726B2F61726D2D21
:1074C0006E6F6E652D656162692D6763632D313066
:1074D0002E322E312D312E312F736F7572636573FD
:1074E0002F6E65776C69622F6E65776C69622F6CA1
:1074F0006962632F7374646C69622F6D7072656367
:107500002E630000000000000080E03779C3414393
:10751000176E05B5B5B89346F5F93FE9034F384DF9
:10752000321D30F94877825A3CBF737FDD4F1575A5
:10753000000000000000F03F0000000000002440B8
:1075400000000000000059400000000000408F4093
:10755000000000000088C34000000000006AF840FE
:107560000000000080842E4100000000D012634122
:107570000000000084D797410000000065CDCD4198
:10758000000000205FA00242000000E87648374279
:10759000000000A2941A6D42000040E59C30A24217
:1075A0000000901EC4BCD64200003426F56B0C438C
:1075B0000080E03779C3414300A0D8855734764333
:1075C00000C84E676DC1AB43003D9160E458E14394
:1075D000408CB5781DAF154450EFE2D6E41A4B4409
:1075E00092D54D06CFF08044F64AE1C7022DB5444E
:1075F000B49DD9794378EA440500000019000000E1
:107600007D000000232D302B2000686C4C00656647
:0576100067454647003C
:1076180010EAFF7FA908B18038EAFF7F0100000067
:1076280004EBFF7FB0A9028098EBFF7FB0B0A88081
:10763800E8EBFF7F01000000F0EBFF7FB0B0AA800D
:1076480024ECFF7FAE71B280E8ECFF7FAB3F38805F
:1076580048EDFF7F0100000050EDFF7FB0B0AA8029
:107668008CEDFF7F010000002CEEFF7FAA0DB28099
:10767800A8EEFF7FB0AF088048F1FF7F010000004F
:1076880058F1FF7FAD3F0280D4F3FF7F0100000077
:10769800B0F5FF7FB0AD048054F8FF7F0100000013
:1076A800785634120024F4000C000020000000007A
:1076B800D4720008F4720008B472000800000000D8
:1076C80000000000000000000000000000000000B2
:1076D80000000000000000000000000000000000A2
:1076E8000000000000000000000000000000000092
:1076F8000000000000000000000000000000000082
:10770800000000000000000000000000FF00FFFF74
:10771800430000000000000000000000000000001E
:107728000000000000000000000000000000000051
:1077380043000000000000000000000000000000FE
:107748000000000000000000000000000000000031
:1077580043000000000000000000000000000000DE
:107768000000000000000000000000000000000011
:1077780043000000000000000000000000000000BE
:1077880000000000000000000000000000000000F1
:10779800430000000000000000000000000000009E
:1077A80000000000000000000000000000000000D1
:1077B800430000000000000000000000000000007E
:1077C80000000000000000000000000000000000B1
:1077D800430000000000000000000000000000005E
:1077E8000000000000000000000000000000000091
:1077F80039590008CD4A000800000000B37100089C
:1078080091740008097600080976000809760008CE
:107818000976000809760008097600080976000844
:107828000976000809760008FFFFFFFFFFFFFFFF4A
:10783800FFFFFFFFFFFF00000100415343494900DC
:107848000000000000000000000000000000000030
:1078580000000000000000000000415343494900B7
:107868000000000000000000000000000000000010
:10787800000000000000000000000000325476986C
:040000050800018965
:00000001FF
