
Atividade_2.elf:     file format elf32-avr

Sections:
Idx Name          Size      VMA       LMA       File off  Algn
  0 .data         00000160  00800100  00001582  00001616  2**0
                  CONTENTS, ALLOC, LOAD, DATA
  1 .text         00001582  00000000  00000000  00000094  2**1
                  CONTENTS, ALLOC, LOAD, READONLY, CODE
  2 .bss          00000048  00800260  00800260  00001776  2**0
                  ALLOC
  3 .debug_aranges 00000060  00000000  00000000  00001776  2**0
                  CONTENTS, READONLY, DEBUGGING
  4 .debug_pubnames 00000444  00000000  00000000  000017d6  2**0
                  CONTENTS, READONLY, DEBUGGING
  5 .debug_info   000015ce  00000000  00000000  00001c1a  2**0
                  CONTENTS, READONLY, DEBUGGING
  6 .debug_abbrev 000005b5  00000000  00000000  000031e8  2**0
                  CONTENTS, READONLY, DEBUGGING
  7 .debug_line   00000f30  00000000  00000000  0000379d  2**0
                  CONTENTS, READONLY, DEBUGGING
  8 .debug_frame  00000250  00000000  00000000  000046d0  2**2
                  CONTENTS, READONLY, DEBUGGING
  9 .debug_str    00000742  00000000  00000000  00004920  2**0
                  CONTENTS, READONLY, DEBUGGING
 10 .debug_loc    000005a7  00000000  00000000  00005062  2**0
                  CONTENTS, READONLY, DEBUGGING
 11 .debug_ranges 00000288  00000000  00000000  00005609  2**0
                  CONTENTS, READONLY, DEBUGGING

Disassembly of section .text:

00000000 <__vectors>:
       0:	0c 94 34 00 	jmp	0x68	; 0x68 <__ctors_end>
       4:	0c 94 72 00 	jmp	0xe4	; 0xe4 <__vector_1>
       8:	0c 94 51 00 	jmp	0xa2	; 0xa2 <__bad_interrupt>
       c:	0c 94 51 00 	jmp	0xa2	; 0xa2 <__bad_interrupt>
      10:	0c 94 51 00 	jmp	0xa2	; 0xa2 <__bad_interrupt>
      14:	0c 94 51 00 	jmp	0xa2	; 0xa2 <__bad_interrupt>
      18:	0c 94 51 00 	jmp	0xa2	; 0xa2 <__bad_interrupt>
      1c:	0c 94 51 00 	jmp	0xa2	; 0xa2 <__bad_interrupt>
      20:	0c 94 51 00 	jmp	0xa2	; 0xa2 <__bad_interrupt>
      24:	0c 94 51 00 	jmp	0xa2	; 0xa2 <__bad_interrupt>
      28:	0c 94 51 00 	jmp	0xa2	; 0xa2 <__bad_interrupt>
      2c:	0c 94 51 00 	jmp	0xa2	; 0xa2 <__bad_interrupt>
      30:	0c 94 51 00 	jmp	0xa2	; 0xa2 <__bad_interrupt>
      34:	0c 94 51 00 	jmp	0xa2	; 0xa2 <__bad_interrupt>
      38:	0c 94 53 00 	jmp	0xa6	; 0xa6 <__vector_14>
      3c:	0c 94 51 00 	jmp	0xa2	; 0xa2 <__bad_interrupt>
      40:	0c 94 51 00 	jmp	0xa2	; 0xa2 <__bad_interrupt>
      44:	0c 94 51 00 	jmp	0xa2	; 0xa2 <__bad_interrupt>
      48:	0c 94 51 00 	jmp	0xa2	; 0xa2 <__bad_interrupt>
      4c:	0c 94 51 00 	jmp	0xa2	; 0xa2 <__bad_interrupt>
      50:	0c 94 51 00 	jmp	0xa2	; 0xa2 <__bad_interrupt>
      54:	0c 94 51 00 	jmp	0xa2	; 0xa2 <__bad_interrupt>
      58:	0c 94 51 00 	jmp	0xa2	; 0xa2 <__bad_interrupt>
      5c:	0c 94 51 00 	jmp	0xa2	; 0xa2 <__bad_interrupt>
      60:	0c 94 51 00 	jmp	0xa2	; 0xa2 <__bad_interrupt>
      64:	0c 94 51 00 	jmp	0xa2	; 0xa2 <__bad_interrupt>

00000068 <__ctors_end>:
      68:	11 24       	eor	r1, r1
      6a:	1f be       	out	0x3f, r1	; 63
      6c:	cf ef       	ldi	r28, 0xFF	; 255
      6e:	d8 e0       	ldi	r29, 0x08	; 8
      70:	de bf       	out	0x3e, r29	; 62
      72:	cd bf       	out	0x3d, r28	; 61

00000074 <__do_copy_data>:
      74:	12 e0       	ldi	r17, 0x02	; 2
      76:	a0 e0       	ldi	r26, 0x00	; 0
      78:	b1 e0       	ldi	r27, 0x01	; 1
      7a:	e2 e8       	ldi	r30, 0x82	; 130
      7c:	f5 e1       	ldi	r31, 0x15	; 21
      7e:	02 c0       	rjmp	.+4      	; 0x84 <.do_copy_data_start>

00000080 <.do_copy_data_loop>:
      80:	05 90       	lpm	r0, Z+
      82:	0d 92       	st	X+, r0

00000084 <.do_copy_data_start>:
      84:	a0 36       	cpi	r26, 0x60	; 96
      86:	b1 07       	cpc	r27, r17
      88:	d9 f7       	brne	.-10     	; 0x80 <.do_copy_data_loop>

0000008a <__do_clear_bss>:
      8a:	12 e0       	ldi	r17, 0x02	; 2
      8c:	a0 e6       	ldi	r26, 0x60	; 96
      8e:	b2 e0       	ldi	r27, 0x02	; 2
      90:	01 c0       	rjmp	.+2      	; 0x94 <.do_clear_bss_start>

00000092 <.do_clear_bss_loop>:
      92:	1d 92       	st	X+, r1

00000094 <.do_clear_bss_start>:
      94:	a8 3a       	cpi	r26, 0xA8	; 168
      96:	b1 07       	cpc	r27, r17
      98:	e1 f7       	brne	.-8      	; 0x92 <.do_clear_bss_loop>
      9a:	0e 94 77 01 	call	0x2ee	; 0x2ee <main>
      9e:	0c 94 bf 0a 	jmp	0x157e	; 0x157e <_exit>

000000a2 <__bad_interrupt>:
      a2:	0c 94 00 00 	jmp	0	; 0x0 <__vectors>

000000a6 <__vector_14>:
	
	return 0;
}	//main

ISR(TIMER0_COMPA_vect)
{
      a6:	1f 92       	push	r1
      a8:	0f 92       	push	r0
      aa:	0f b6       	in	r0, 0x3f	; 63
      ac:	0f 92       	push	r0
      ae:	11 24       	eor	r1, r1
      b0:	8f 93       	push	r24
	count_10m++;
      b2:	80 91 60 02 	lds	r24, 0x0260
      b6:	8f 5f       	subi	r24, 0xFF	; 255
      b8:	80 93 60 02 	sts	0x0260, r24
	if(count_10m == 100){
      bc:	80 91 60 02 	lds	r24, 0x0260
      c0:	84 36       	cpi	r24, 0x64	; 100
      c2:	51 f4       	brne	.+20     	; 0xd8 <__vector_14+0x32>
		seconds++;
      c4:	80 91 3f 02 	lds	r24, 0x023F
      c8:	8f 5f       	subi	r24, 0xFF	; 255
      ca:	80 93 3f 02 	sts	0x023F, r24
		update = 1;
      ce:	81 e0       	ldi	r24, 0x01	; 1
      d0:	80 93 42 02 	sts	0x0242, r24
		count_10m = 0;
      d4:	10 92 60 02 	sts	0x0260, r1
	}

	return;
}
      d8:	8f 91       	pop	r24
      da:	0f 90       	pop	r0
      dc:	0f be       	out	0x3f, r0	; 63
      de:	0f 90       	pop	r0
      e0:	1f 90       	pop	r1
      e2:	18 95       	reti

000000e4 <__vector_1>:

ISR(INT0_vect)
{
      e4:	1f 92       	push	r1
      e6:	0f 92       	push	r0
      e8:	0f b6       	in	r0, 0x3f	; 63
      ea:	0f 92       	push	r0
      ec:	11 24       	eor	r1, r1
      ee:	2f 93       	push	r18
      f0:	3f 93       	push	r19
      f2:	4f 93       	push	r20
      f4:	5f 93       	push	r21
      f6:	6f 93       	push	r22
      f8:	7f 93       	push	r23
      fa:	8f 93       	push	r24
      fc:	9f 93       	push	r25
      fe:	af 93       	push	r26
     100:	bf 93       	push	r27
     102:	ef 93       	push	r30
     104:	ff 93       	push	r31
	if(isBitClr(BUTTON_PIN, BUTTON_BIT)) {				//PRESSED
     106:	89 b1       	in	r24, 0x09	; 9
     108:	86 95       	lsr	r24
     10a:	86 95       	lsr	r24
     10c:	80 fd       	sbrc	r24, 0
     10e:	15 c0       	rjmp	.+42     	; 0x13a <__vector_1+0x56>
		timer1SetCounterValue(0);
     110:	80 e0       	ldi	r24, 0x00	; 0
     112:	90 e0       	ldi	r25, 0x00	; 0
     114:	0e 94 64 03 	call	0x6c8	; 0x6c8 <timer1SetCounterValue>
		timer1ClearCompareAInterruptRequest();
     118:	b1 9a       	sbi	0x16, 1	; 22
		timer1ClockPrescaller1024();
     11a:	80 91 81 00 	lds	r24, 0x0081
     11e:	84 60       	ori	r24, 0x04	; 4
     120:	80 93 81 00 	sts	0x0081, r24
     124:	80 91 81 00 	lds	r24, 0x0081
     128:	8d 7f       	andi	r24, 0xFD	; 253
     12a:	80 93 81 00 	sts	0x0081, r24
     12e:	80 91 81 00 	lds	r24, 0x0081
     132:	81 60       	ori	r24, 0x01	; 1
     134:	80 93 81 00 	sts	0x0081, r24
     138:	c9 c0       	rjmp	.+402    	; 0x2cc <__vector_1+0x1e8>
	}
	
	else { 												//RELEASED    
		timer1ClockDisable();
     13a:	80 91 81 00 	lds	r24, 0x0081
     13e:	8b 7f       	andi	r24, 0xFB	; 251
     140:	80 93 81 00 	sts	0x0081, r24
     144:	80 91 81 00 	lds	r24, 0x0081
     148:	8d 7f       	andi	r24, 0xFD	; 253
     14a:	80 93 81 00 	sts	0x0081, r24
     14e:	80 91 81 00 	lds	r24, 0x0081
     152:	8e 7f       	andi	r24, 0xFE	; 254
     154:	80 93 81 00 	sts	0x0081, r24
		if(isBitSet(TIFR1, OCF1A)){						//long Pulse
     158:	86 b3       	in	r24, 0x16	; 22
     15a:	86 95       	lsr	r24
     15c:	80 ff       	sbrs	r24, 0
     15e:	3a c0       	rjmp	.+116    	; 0x1d4 <__vector_1+0xf0>
			state++;
     160:	80 91 61 02 	lds	r24, 0x0261
     164:	8f 5f       	subi	r24, 0xFF	; 255
     166:	80 93 61 02 	sts	0x0261, r24
			switch(state){
     16a:	80 91 61 02 	lds	r24, 0x0261
     16e:	81 30       	cpi	r24, 0x01	; 1
     170:	99 f0       	breq	.+38     	; 0x198 <__vector_1+0xb4>
     172:	81 30       	cpi	r24, 0x01	; 1
     174:	20 f0       	brcs	.+8      	; 0x17e <__vector_1+0x9a>
     176:	88 30       	cpi	r24, 0x08	; 8
     178:	09 f0       	breq	.+2      	; 0x17c <__vector_1+0x98>
     17a:	a5 c0       	rjmp	.+330    	; 0x2c6 <__vector_1+0x1e2>
     17c:	1c c0       	rjmp	.+56     	; 0x1b6 <__vector_1+0xd2>
			case NORMAL_COUNT:
				count_10m = 0;
     17e:	10 92 60 02 	sts	0x0260, r1
				timer0SetCounterValue(0);
     182:	16 bc       	out	0x26, r1	; 38
				timer0ClockPrescaller1024();
     184:	85 b5       	in	r24, 0x25	; 37
     186:	84 60       	ori	r24, 0x04	; 4
     188:	85 bd       	out	0x25, r24	; 37
     18a:	85 b5       	in	r24, 0x25	; 37
     18c:	8d 7f       	andi	r24, 0xFD	; 253
     18e:	85 bd       	out	0x25, r24	; 37
     190:	85 b5       	in	r24, 0x25	; 37
     192:	81 60       	ori	r24, 0x01	; 1
     194:	85 bd       	out	0x25, r24	; 37
     196:	97 c0       	rjmp	.+302    	; 0x2c6 <__vector_1+0x1e2>
				break;

			case CHANGE_CONFIG:
				timer0ClockDisable();
     198:	85 b5       	in	r24, 0x25	; 37
     19a:	8b 7f       	andi	r24, 0xFB	; 251
     19c:	85 bd       	out	0x25, r24	; 37
     19e:	85 b5       	in	r24, 0x25	; 37
     1a0:	8d 7f       	andi	r24, 0xFD	; 253
     1a2:	85 bd       	out	0x25, r24	; 37
     1a4:	85 b5       	in	r24, 0x25	; 37
     1a6:	8e 7f       	andi	r24, 0xFE	; 254
     1a8:	85 bd       	out	0x25, r24	; 37
				state++;
     1aa:	80 91 61 02 	lds	r24, 0x0261
     1ae:	8f 5f       	subi	r24, 0xFF	; 255
     1b0:	80 93 61 02 	sts	0x0261, r24
     1b4:	88 c0       	rjmp	.+272    	; 0x2c6 <__vector_1+0x1e2>
				break;

			case 8:
				count_10m = 0;
     1b6:	10 92 60 02 	sts	0x0260, r1
				timer0SetCounterValue(0);
     1ba:	16 bc       	out	0x26, r1	; 38
				timer0ClockPrescaller1024();
     1bc:	85 b5       	in	r24, 0x25	; 37
     1be:	84 60       	ori	r24, 0x04	; 4
     1c0:	85 bd       	out	0x25, r24	; 37
     1c2:	85 b5       	in	r24, 0x25	; 37
     1c4:	8d 7f       	andi	r24, 0xFD	; 253
     1c6:	85 bd       	out	0x25, r24	; 37
     1c8:	85 b5       	in	r24, 0x25	; 37
     1ca:	81 60       	ori	r24, 0x01	; 1
     1cc:	85 bd       	out	0x25, r24	; 37
				state = NORMAL_COUNT;
     1ce:	10 92 61 02 	sts	0x0261, r1
     1d2:	79 c0       	rjmp	.+242    	; 0x2c6 <__vector_1+0x1e2>
			
			}
			
		} 
		else {										//short pulse
			switch(state){
     1d4:	80 91 61 02 	lds	r24, 0x0261
     1d8:	84 30       	cpi	r24, 0x04	; 4
     1da:	c1 f1       	breq	.+112    	; 0x24c <__vector_1+0x168>
     1dc:	85 30       	cpi	r24, 0x05	; 5
     1de:	30 f4       	brcc	.+12     	; 0x1ec <__vector_1+0x108>
     1e0:	82 30       	cpi	r24, 0x02	; 2
     1e2:	69 f0       	breq	.+26     	; 0x1fe <__vector_1+0x11a>
     1e4:	83 30       	cpi	r24, 0x03	; 3
     1e6:	09 f0       	breq	.+2      	; 0x1ea <__vector_1+0x106>
     1e8:	6e c0       	rjmp	.+220    	; 0x2c6 <__vector_1+0x1e2>
     1ea:	17 c0       	rjmp	.+46     	; 0x21a <__vector_1+0x136>
     1ec:	86 30       	cpi	r24, 0x06	; 6
     1ee:	09 f4       	brne	.+2      	; 0x1f2 <__vector_1+0x10e>
     1f0:	4c c0       	rjmp	.+152    	; 0x28a <__vector_1+0x1a6>
     1f2:	86 30       	cpi	r24, 0x06	; 6
     1f4:	c0 f1       	brcs	.+112    	; 0x266 <__vector_1+0x182>
     1f6:	87 30       	cpi	r24, 0x07	; 7
     1f8:	09 f0       	breq	.+2      	; 0x1fc <__vector_1+0x118>
     1fa:	65 c0       	rjmp	.+202    	; 0x2c6 <__vector_1+0x1e2>
     1fc:	53 c0       	rjmp	.+166    	; 0x2a4 <__vector_1+0x1c0>
			case DEC_HOURS:
				hours+=10;
     1fe:	80 91 41 02 	lds	r24, 0x0241
     202:	86 5f       	subi	r24, 0xF6	; 246
     204:	80 93 41 02 	sts	0x0241, r24
					if(hours > 23)
     208:	80 91 41 02 	lds	r24, 0x0241
     20c:	88 31       	cpi	r24, 0x18	; 24
     20e:	08 f4       	brcc	.+2      	; 0x212 <__vector_1+0x12e>
     210:	5a c0       	rjmp	.+180    	; 0x2c6 <__vector_1+0x1e2>
						hours-=30;
     212:	80 91 41 02 	lds	r24, 0x0241
     216:	8e 51       	subi	r24, 0x1E	; 30
     218:	16 c0       	rjmp	.+44     	; 0x246 <__vector_1+0x162>
				break;
			case UNI_HOURS:
				hours++;
     21a:	80 91 41 02 	lds	r24, 0x0241
     21e:	8f 5f       	subi	r24, 0xFF	; 255
     220:	80 93 41 02 	sts	0x0241, r24
				if((hours) % 10 == 0)
     224:	80 91 41 02 	lds	r24, 0x0241
     228:	6a e0       	ldi	r22, 0x0A	; 10
     22a:	0e 94 c8 07 	call	0xf90	; 0xf90 <__udivmodqi4>
     22e:	99 23       	and	r25, r25
     230:	21 f4       	brne	.+8      	; 0x23a <__vector_1+0x156>
					hours -= 10;
     232:	80 91 41 02 	lds	r24, 0x0241
     236:	8a 50       	subi	r24, 0x0A	; 10
     238:	06 c0       	rjmp	.+12     	; 0x246 <__vector_1+0x162>
				else if (hours == 24)
     23a:	80 91 41 02 	lds	r24, 0x0241
     23e:	88 31       	cpi	r24, 0x18	; 24
     240:	09 f0       	breq	.+2      	; 0x244 <__vector_1+0x160>
     242:	41 c0       	rjmp	.+130    	; 0x2c6 <__vector_1+0x1e2>
					hours = 20;
     244:	84 e1       	ldi	r24, 0x14	; 20
     246:	80 93 41 02 	sts	0x0241, r24
     24a:	3d c0       	rjmp	.+122    	; 0x2c6 <__vector_1+0x1e2>
				break;

			case DEC_MINUTES:
				minutes+=10;
     24c:	80 91 40 02 	lds	r24, 0x0240
     250:	86 5f       	subi	r24, 0xF6	; 246
     252:	80 93 40 02 	sts	0x0240, r24
				if(minutes > 59)
     256:	80 91 40 02 	lds	r24, 0x0240
     25a:	8c 33       	cpi	r24, 0x3C	; 60
     25c:	a0 f1       	brcs	.+104    	; 0x2c6 <__vector_1+0x1e2>
					minutes-=60;
     25e:	80 91 40 02 	lds	r24, 0x0240
     262:	8c 53       	subi	r24, 0x3C	; 60
     264:	0f c0       	rjmp	.+30     	; 0x284 <__vector_1+0x1a0>
				break;

			case UNI_MINUTES:
				minutes++;
     266:	80 91 40 02 	lds	r24, 0x0240
     26a:	8f 5f       	subi	r24, 0xFF	; 255
     26c:	80 93 40 02 	sts	0x0240, r24
				if((minutes) % 10 == 0)
     270:	80 91 40 02 	lds	r24, 0x0240
     274:	6a e0       	ldi	r22, 0x0A	; 10
     276:	0e 94 c8 07 	call	0xf90	; 0xf90 <__udivmodqi4>
     27a:	99 23       	and	r25, r25
     27c:	21 f5       	brne	.+72     	; 0x2c6 <__vector_1+0x1e2>
					minutes-=10;
     27e:	80 91 40 02 	lds	r24, 0x0240
     282:	8a 50       	subi	r24, 0x0A	; 10
     284:	80 93 40 02 	sts	0x0240, r24
     288:	1e c0       	rjmp	.+60     	; 0x2c6 <__vector_1+0x1e2>
				break;

			case  DEC_SECONDS:
				seconds+=10;
     28a:	80 91 3f 02 	lds	r24, 0x023F
     28e:	86 5f       	subi	r24, 0xF6	; 246
     290:	80 93 3f 02 	sts	0x023F, r24
				if(seconds > 59)
     294:	80 91 3f 02 	lds	r24, 0x023F
     298:	8c 33       	cpi	r24, 0x3C	; 60
     29a:	a8 f0       	brcs	.+42     	; 0x2c6 <__vector_1+0x1e2>
					seconds-=60;
     29c:	80 91 3f 02 	lds	r24, 0x023F
     2a0:	8c 53       	subi	r24, 0x3C	; 60
     2a2:	0f c0       	rjmp	.+30     	; 0x2c2 <__vector_1+0x1de>
				break;

			case  UNI_SECONDS:
				seconds++;
     2a4:	80 91 3f 02 	lds	r24, 0x023F
     2a8:	8f 5f       	subi	r24, 0xFF	; 255
     2aa:	80 93 3f 02 	sts	0x023F, r24
				if((seconds) % 10 == 0)
     2ae:	80 91 3f 02 	lds	r24, 0x023F
     2b2:	6a e0       	ldi	r22, 0x0A	; 10
     2b4:	0e 94 c8 07 	call	0xf90	; 0xf90 <__udivmodqi4>
     2b8:	99 23       	and	r25, r25
     2ba:	29 f4       	brne	.+10     	; 0x2c6 <__vector_1+0x1e2>
					seconds-=10;
     2bc:	80 91 3f 02 	lds	r24, 0x023F
     2c0:	8a 50       	subi	r24, 0x0A	; 10
     2c2:	80 93 3f 02 	sts	0x023F, r24

			}	//switch

		}	//else (short)
	
	update = 1;
     2c6:	81 e0       	ldi	r24, 0x01	; 1
     2c8:	80 93 42 02 	sts	0x0242, r24

	}	//else (released)

}	//ISR
     2cc:	ff 91       	pop	r31
     2ce:	ef 91       	pop	r30
     2d0:	bf 91       	pop	r27
     2d2:	af 91       	pop	r26
     2d4:	9f 91       	pop	r25
     2d6:	8f 91       	pop	r24
     2d8:	7f 91       	pop	r23
     2da:	6f 91       	pop	r22
     2dc:	5f 91       	pop	r21
     2de:	4f 91       	pop	r20
     2e0:	3f 91       	pop	r19
     2e2:	2f 91       	pop	r18
     2e4:	0f 90       	pop	r0
     2e6:	0f be       	out	0x3f, r0	; 63
     2e8:	0f 90       	pop	r0
     2ea:	1f 90       	pop	r1
     2ec:	18 95       	reti

000002ee <main>:
volatile uint8 state = 0;
volatile uint8 update = 1;

// Main function
int main()
{
     2ee:	5f 92       	push	r5
     2f0:	6f 92       	push	r6
     2f2:	7f 92       	push	r7
     2f4:	8f 92       	push	r8
     2f6:	9f 92       	push	r9
     2f8:	af 92       	push	r10
     2fa:	bf 92       	push	r11
     2fc:	cf 92       	push	r12
     2fe:	df 92       	push	r13
     300:	ef 92       	push	r14
     302:	ff 92       	push	r15
     304:	0f 93       	push	r16
     306:	1f 93       	push	r17
     308:	cf 93       	push	r28
     30a:	df 93       	push	r29
	
	
	//LCD configuration
	lcdInit();
     30c:	0e 94 c2 06 	call	0xd84	; 0xd84 <lcdInit>
	lcdStdio();
     310:	81 e5       	ldi	r24, 0x51	; 81
     312:	92 e0       	ldi	r25, 0x02	; 2
     314:	90 93 a7 02 	sts	0x02A7, r25
     318:	80 93 a6 02 	sts	0x02A6, r24
     31c:	90 93 a5 02 	sts	0x02A5, r25
     320:	80 93 a4 02 	sts	0x02A4, r24
     324:	90 93 a3 02 	sts	0x02A3, r25
     328:	80 93 a2 02 	sts	0x02A2, r24
	printf("  Atividade 2  \n  Leonardo S.  ");
     32c:	00 d0       	rcall	.+0      	; 0x32e <main+0x40>
     32e:	80 e0       	ldi	r24, 0x00	; 0
     330:	91 e0       	ldi	r25, 0x01	; 1
     332:	ad b7       	in	r26, 0x3d	; 61
     334:	be b7       	in	r27, 0x3e	; 62
     336:	12 96       	adiw	r26, 0x02	; 2
     338:	9c 93       	st	X, r25
     33a:	8e 93       	st	-X, r24
     33c:	11 97       	sbiw	r26, 0x01	; 1
     33e:	0e 94 f6 07 	call	0xfec	; 0xfec <printf>
     342:	28 e8       	ldi	r18, 0x88	; 136
     344:	33 e1       	ldi	r19, 0x13	; 19
     346:	0f 90       	pop	r0
     348:	0f 90       	pop	r0
    milliseconds can be achieved.
 */
void
_delay_loop_2(uint16_t __count)
{
	__asm__ volatile (
     34a:	40 e9       	ldi	r20, 0x90	; 144
     34c:	51 e0       	ldi	r21, 0x01	; 1
     34e:	ca 01       	movw	r24, r20
     350:	01 97       	sbiw	r24, 0x01	; 1
     352:	f1 f7       	brne	.-4      	; 0x350 <main+0x62>
		__ticks = (uint16_t) (__ms * 10.0);
		while(__ticks)
		{
			// wait 1/10 ms
			_delay_loop_2(((F_CPU) / 4e3) / 10);
			__ticks --;
     354:	21 50       	subi	r18, 0x01	; 1
     356:	30 40       	sbci	r19, 0x00	; 0
		__ticks = 1;
	else if (__tmp > 65535)
	{
		//	__ticks = requested delay in 1/10 ms
		__ticks = (uint16_t) (__ms * 10.0);
		while(__ticks)
     358:	d1 f7       	brne	.-12     	; 0x34e <main+0x60>
	_delay_ms(500);
	lcdClearScreen();
     35a:	10 92 a0 02 	sts	0x02A0, r1
     35e:	81 e0       	ldi	r24, 0x01	; 1
     360:	0e 94 9b 06 	call	0xd36	; 0xd36 <lcdCommand>
	
	int0PullUpEnable();
     364:	5a 9a       	sbi	0x0b, 2	; 11
	int0DDRConfigure();
     366:	52 98       	cbi	0x0a, 2	; 10
	int0SenseAnyEdge();
     368:	80 91 69 00 	lds	r24, 0x0069
     36c:	8d 7f       	andi	r24, 0xFD	; 253
     36e:	80 93 69 00 	sts	0x0069, r24
     372:	80 91 69 00 	lds	r24, 0x0069
     376:	81 60       	ori	r24, 0x01	; 1
     378:	80 93 69 00 	sts	0x0069, r24
	int0ClearInterruptRequest();
     37c:	e0 9a       	sbi	0x1c, 0	; 28
	int0ActivateInterrupt();
     37e:	e8 9a       	sbi	0x1d, 0	; 29
	
	//Timer 0 configuration
	timer0CTCMode();
     380:	85 b5       	in	r24, 0x25	; 37
     382:	87 7f       	andi	r24, 0xF7	; 247
     384:	85 bd       	out	0x25, r24	; 37
     386:	84 b5       	in	r24, 0x24	; 36
     388:	82 60       	ori	r24, 0x02	; 2
     38a:	84 bd       	out	0x24, r24	; 36
     38c:	84 b5       	in	r24, 0x24	; 36
     38e:	8e 7f       	andi	r24, 0xFE	; 254
     390:	84 bd       	out	0x24, r24	; 36
	timer0ClockPrescaller1024();
     392:	85 b5       	in	r24, 0x25	; 37
     394:	84 60       	ori	r24, 0x04	; 4
     396:	85 bd       	out	0x25, r24	; 37
     398:	85 b5       	in	r24, 0x25	; 37
     39a:	8d 7f       	andi	r24, 0xFD	; 253
     39c:	85 bd       	out	0x25, r24	; 37
     39e:	85 b5       	in	r24, 0x25	; 37
     3a0:	81 60       	ori	r24, 0x01	; 1
     3a2:	85 bd       	out	0x25, r24	; 37
	timer0SetCompareAValue(155);
     3a4:	8b e9       	ldi	r24, 0x9B	; 155
     3a6:	87 bd       	out	0x27, r24	; 39
	timer0ClearCompareAInterruptRequest();
     3a8:	a9 9a       	sbi	0x15, 1	; 21
	timer0ActivateCompareAInterrupt();
     3aa:	80 91 6e 00 	lds	r24, 0x006E
     3ae:	82 60       	ori	r24, 0x02	; 2
     3b0:	80 93 6e 00 	sts	0x006E, r24
	
	//Timer 1 configuration
	timer1ClockDisable();
     3b4:	80 91 81 00 	lds	r24, 0x0081
     3b8:	8b 7f       	andi	r24, 0xFB	; 251
     3ba:	80 93 81 00 	sts	0x0081, r24
     3be:	80 91 81 00 	lds	r24, 0x0081
     3c2:	8d 7f       	andi	r24, 0xFD	; 253
     3c4:	80 93 81 00 	sts	0x0081, r24
     3c8:	80 91 81 00 	lds	r24, 0x0081
     3cc:	8e 7f       	andi	r24, 0xFE	; 254
     3ce:	80 93 81 00 	sts	0x0081, r24
	timer1CTCMode();
     3d2:	80 91 81 00 	lds	r24, 0x0081
     3d6:	8f 7e       	andi	r24, 0xEF	; 239
     3d8:	80 93 81 00 	sts	0x0081, r24
     3dc:	80 91 81 00 	lds	r24, 0x0081
     3e0:	88 60       	ori	r24, 0x08	; 8
     3e2:	80 93 81 00 	sts	0x0081, r24
     3e6:	80 91 80 00 	lds	r24, 0x0080
     3ea:	8d 7f       	andi	r24, 0xFD	; 253
     3ec:	80 93 80 00 	sts	0x0080, r24
     3f0:	80 91 80 00 	lds	r24, 0x0080
     3f4:	8e 7f       	andi	r24, 0xFE	; 254
     3f6:	80 93 80 00 	sts	0x0080, r24
	//timer1SetCompareAValue(31249);
	timer1SetCompareAValue(15000);
     3fa:	88 e9       	ldi	r24, 0x98	; 152
     3fc:	9a e3       	ldi	r25, 0x3A	; 58
     3fe:	0e 94 75 03 	call	0x6ea	; 0x6ea <timer1SetCompareAValue>

	//Global interrupts configuration
	sei();
     402:	78 94       	sei
				break;
			case UNI_HOURS:
				printf(" Fit Unit Hours \n    %u%u:%u%u:%u%u    \n", hours / 10, hours % 10, minutes / 10, minutes % 10, seconds / 10, seconds % 10);
				break;
			case DEC_MINUTES:
				printf("Fit Dec. minutes\n    %u%u:%u%u:%u%u    \n", hours / 10, hours % 10, minutes / 10, minutes % 10, seconds / 10, seconds % 10);
     404:	42 e7       	ldi	r20, 0x72	; 114
     406:	c4 2e       	mov	r12, r20
     408:	41 e0       	ldi	r20, 0x01	; 1
     40a:	d4 2e       	mov	r13, r20
				break;
			case UNI_MINUTES:
				printf("Fit Unit minutes\n    %u%u:%u%u:%u%u    \n", hours / 10, hours % 10, minutes / 10, minutes % 10, seconds / 10, seconds % 10);
				break;
			case  DEC_SECONDS:
				printf("Fit Dec. Seconds\n    %u%u:%u%u:%u%u    \n", hours / 10, hours % 10, minutes / 10, minutes % 10, seconds / 10, seconds % 10);
     40c:	34 ec       	ldi	r19, 0xC4	; 196
     40e:	a3 2e       	mov	r10, r19
     410:	31 e0       	ldi	r19, 0x01	; 1
     412:	b3 2e       	mov	r11, r19
				break;
			case DEC_MINUTES:
				printf("Fit Dec. minutes\n    %u%u:%u%u:%u%u    \n", hours / 10, hours % 10, minutes / 10, minutes % 10, seconds / 10, seconds % 10);
				break;
			case UNI_MINUTES:
				printf("Fit Unit minutes\n    %u%u:%u%u:%u%u    \n", hours / 10, hours % 10, minutes / 10, minutes % 10, seconds / 10, seconds % 10);
     414:	2b e9       	ldi	r18, 0x9B	; 155
     416:	82 2e       	mov	r8, r18
     418:	21 e0       	ldi	r18, 0x01	; 1
     41a:	92 2e       	mov	r9, r18
				break;
			case  DEC_SECONDS:
				printf("Fit Dec. Seconds\n    %u%u:%u%u:%u%u    \n", hours / 10, hours % 10, minutes / 10, minutes % 10, seconds / 10, seconds % 10);
				break;
			case  UNI_SECONDS:
				printf("Fit Unit Seconds\n    %u%u:%u%u:%u%u    \n", hours / 10, hours % 10, minutes / 10, minutes % 10, seconds / 10, seconds % 10);
     41c:	9d ee       	ldi	r25, 0xED	; 237
     41e:	69 2e       	mov	r6, r25
     420:	91 e0       	ldi	r25, 0x01	; 1
     422:	79 2e       	mov	r7, r25
			if(hours==24)
				hours = 0;

			switch(state){
			case DEC_HOURS:
				printf(" Fit Dec. Hours \n    %u%u:%u%u:%u%u    \n", hours / 10, hours % 10, minutes / 10, minutes % 10, seconds / 10, seconds % 10);
     424:	c0 e2       	ldi	r28, 0x20	; 32
     426:	d1 e0       	ldi	r29, 0x01	; 1
				break;
			case UNI_HOURS:
				printf(" Fit Unit Hours \n    %u%u:%u%u:%u%u    \n", hours / 10, hours % 10, minutes / 10, minutes % 10, seconds / 10, seconds % 10);
     428:	09 e4       	ldi	r16, 0x49	; 73
     42a:	11 e0       	ldi	r17, 0x01	; 1
				break;
			case  UNI_SECONDS:
				printf("Fit Unit Seconds\n    %u%u:%u%u:%u%u    \n", hours / 10, hours % 10, minutes / 10, minutes % 10, seconds / 10, seconds % 10);
				break;
			case NORMAL_COUNT:
				printf("  Digital Clock \n    %u%u:%u%u:%u%u    \n", hours / 10, hours % 10, minutes / 10, minutes % 10, seconds / 10, seconds % 10);
     42c:	86 e1       	ldi	r24, 0x16	; 22
     42e:	e8 2e       	mov	r14, r24
     430:	82 e0       	ldi	r24, 0x02	; 2
     432:	f8 2e       	mov	r15, r24

	//Global interrupts configuration
	sei();
	
	while(1){
		if(update == 1){
     434:	80 91 42 02 	lds	r24, 0x0242
     438:	81 30       	cpi	r24, 0x01	; 1
     43a:	e1 f7       	brne	.-8      	; 0x434 <main+0x146>
			if (seconds==60){
     43c:	80 91 3f 02 	lds	r24, 0x023F
     440:	8c 33       	cpi	r24, 0x3C	; 60
     442:	39 f4       	brne	.+14     	; 0x452 <main+0x164>
				minutes++;
     444:	80 91 40 02 	lds	r24, 0x0240
     448:	8f 5f       	subi	r24, 0xFF	; 255
     44a:	80 93 40 02 	sts	0x0240, r24
				seconds=0;
     44e:	10 92 3f 02 	sts	0x023F, r1
			}

				if(minutes==60){
     452:	80 91 40 02 	lds	r24, 0x0240
     456:	8c 33       	cpi	r24, 0x3C	; 60
     458:	39 f4       	brne	.+14     	; 0x468 <main+0x17a>
				hours++;
     45a:	80 91 41 02 	lds	r24, 0x0241
     45e:	8f 5f       	subi	r24, 0xFF	; 255
     460:	80 93 41 02 	sts	0x0241, r24
				minutes=0;
     464:	10 92 40 02 	sts	0x0240, r1
			}

			if(hours==24)
     468:	80 91 41 02 	lds	r24, 0x0241
     46c:	88 31       	cpi	r24, 0x18	; 24
     46e:	11 f4       	brne	.+4      	; 0x474 <main+0x186>
				hours = 0;
     470:	10 92 41 02 	sts	0x0241, r1

			switch(state){
     474:	80 91 61 02 	lds	r24, 0x0261
     478:	84 30       	cpi	r24, 0x04	; 4
     47a:	09 f4       	brne	.+2      	; 0x47e <main+0x190>
     47c:	4f c0       	rjmp	.+158    	; 0x51c <main+0x22e>
     47e:	85 30       	cpi	r24, 0x05	; 5
     480:	40 f4       	brcc	.+16     	; 0x492 <main+0x1a4>
     482:	82 30       	cpi	r24, 0x02	; 2
     484:	81 f0       	breq	.+32     	; 0x4a6 <main+0x1b8>
     486:	83 30       	cpi	r24, 0x03	; 3
     488:	50 f5       	brcc	.+84     	; 0x4de <main+0x1f0>
     48a:	88 23       	and	r24, r24
     48c:	09 f4       	brne	.+2      	; 0x490 <main+0x1a2>
     48e:	c2 c0       	rjmp	.+388    	; 0x614 <main+0x326>
     490:	07 c1       	rjmp	.+526    	; 0x6a0 <main+0x3b2>
     492:	86 30       	cpi	r24, 0x06	; 6
     494:	09 f4       	brne	.+2      	; 0x498 <main+0x1aa>
     496:	80 c0       	rjmp	.+256    	; 0x598 <main+0x2aa>
     498:	86 30       	cpi	r24, 0x06	; 6
     49a:	08 f4       	brcc	.+2      	; 0x49e <main+0x1b0>
     49c:	5e c0       	rjmp	.+188    	; 0x55a <main+0x26c>
     49e:	87 30       	cpi	r24, 0x07	; 7
     4a0:	09 f0       	breq	.+2      	; 0x4a4 <main+0x1b6>
     4a2:	fe c0       	rjmp	.+508    	; 0x6a0 <main+0x3b2>
     4a4:	98 c0       	rjmp	.+304    	; 0x5d6 <main+0x2e8>
			case DEC_HOURS:
				printf(" Fit Dec. Hours \n    %u%u:%u%u:%u%u    \n", hours / 10, hours % 10, minutes / 10, minutes % 10, seconds / 10, seconds % 10);
     4a6:	80 91 41 02 	lds	r24, 0x0241
     4aa:	20 91 41 02 	lds	r18, 0x0241
     4ae:	30 91 40 02 	lds	r19, 0x0240
     4b2:	40 91 40 02 	lds	r20, 0x0240
     4b6:	50 91 3f 02 	lds	r21, 0x023F
     4ba:	50 90 3f 02 	lds	r5, 0x023F
     4be:	ed b7       	in	r30, 0x3d	; 61
     4c0:	fe b7       	in	r31, 0x3e	; 62
     4c2:	3e 97       	sbiw	r30, 0x0e	; 14
     4c4:	0f b6       	in	r0, 0x3f	; 63
     4c6:	f8 94       	cli
     4c8:	fe bf       	out	0x3e, r31	; 62
     4ca:	0f be       	out	0x3f, r0	; 63
     4cc:	ed bf       	out	0x3d, r30	; 61
     4ce:	31 96       	adiw	r30, 0x01	; 1
     4d0:	ad b7       	in	r26, 0x3d	; 61
     4d2:	be b7       	in	r27, 0x3e	; 62
     4d4:	12 96       	adiw	r26, 0x02	; 2
     4d6:	dc 93       	st	X, r29
     4d8:	ce 93       	st	-X, r28
     4da:	11 97       	sbiw	r26, 0x01	; 1
     4dc:	b9 c0       	rjmp	.+370    	; 0x650 <main+0x362>
				break;
			case UNI_HOURS:
				printf(" Fit Unit Hours \n    %u%u:%u%u:%u%u    \n", hours / 10, hours % 10, minutes / 10, minutes % 10, seconds / 10, seconds % 10);
     4de:	80 91 41 02 	lds	r24, 0x0241
     4e2:	20 91 41 02 	lds	r18, 0x0241
     4e6:	30 91 40 02 	lds	r19, 0x0240
     4ea:	40 91 40 02 	lds	r20, 0x0240
     4ee:	50 91 3f 02 	lds	r21, 0x023F
     4f2:	50 90 3f 02 	lds	r5, 0x023F
     4f6:	6d b7       	in	r22, 0x3d	; 61
     4f8:	7e b7       	in	r23, 0x3e	; 62
     4fa:	6e 50       	subi	r22, 0x0E	; 14
     4fc:	70 40       	sbci	r23, 0x00	; 0
     4fe:	0f b6       	in	r0, 0x3f	; 63
     500:	f8 94       	cli
     502:	7e bf       	out	0x3e, r23	; 62
     504:	0f be       	out	0x3f, r0	; 63
     506:	6d bf       	out	0x3d, r22	; 61
     508:	ed b7       	in	r30, 0x3d	; 61
     50a:	fe b7       	in	r31, 0x3e	; 62
     50c:	31 96       	adiw	r30, 0x01	; 1
     50e:	ad b7       	in	r26, 0x3d	; 61
     510:	be b7       	in	r27, 0x3e	; 62
     512:	12 96       	adiw	r26, 0x02	; 2
     514:	1c 93       	st	X, r17
     516:	0e 93       	st	-X, r16
     518:	11 97       	sbiw	r26, 0x01	; 1
     51a:	9a c0       	rjmp	.+308    	; 0x650 <main+0x362>
				break;
			case DEC_MINUTES:
				printf("Fit Dec. minutes\n    %u%u:%u%u:%u%u    \n", hours / 10, hours % 10, minutes / 10, minutes % 10, seconds / 10, seconds % 10);
     51c:	80 91 41 02 	lds	r24, 0x0241
     520:	20 91 41 02 	lds	r18, 0x0241
     524:	30 91 40 02 	lds	r19, 0x0240
     528:	40 91 40 02 	lds	r20, 0x0240
     52c:	50 91 3f 02 	lds	r21, 0x023F
     530:	50 90 3f 02 	lds	r5, 0x023F
     534:	6d b7       	in	r22, 0x3d	; 61
     536:	7e b7       	in	r23, 0x3e	; 62
     538:	6e 50       	subi	r22, 0x0E	; 14
     53a:	70 40       	sbci	r23, 0x00	; 0
     53c:	0f b6       	in	r0, 0x3f	; 63
     53e:	f8 94       	cli
     540:	7e bf       	out	0x3e, r23	; 62
     542:	0f be       	out	0x3f, r0	; 63
     544:	6d bf       	out	0x3d, r22	; 61
     546:	ed b7       	in	r30, 0x3d	; 61
     548:	fe b7       	in	r31, 0x3e	; 62
     54a:	31 96       	adiw	r30, 0x01	; 1
     54c:	ad b7       	in	r26, 0x3d	; 61
     54e:	be b7       	in	r27, 0x3e	; 62
     550:	12 96       	adiw	r26, 0x02	; 2
     552:	dc 92       	st	X, r13
     554:	ce 92       	st	-X, r12
     556:	11 97       	sbiw	r26, 0x01	; 1
     558:	7b c0       	rjmp	.+246    	; 0x650 <main+0x362>
				break;
			case UNI_MINUTES:
				printf("Fit Unit minutes\n    %u%u:%u%u:%u%u    \n", hours / 10, hours % 10, minutes / 10, minutes % 10, seconds / 10, seconds % 10);
     55a:	80 91 41 02 	lds	r24, 0x0241
     55e:	20 91 41 02 	lds	r18, 0x0241
     562:	30 91 40 02 	lds	r19, 0x0240
     566:	40 91 40 02 	lds	r20, 0x0240
     56a:	50 91 3f 02 	lds	r21, 0x023F
     56e:	50 90 3f 02 	lds	r5, 0x023F
     572:	6d b7       	in	r22, 0x3d	; 61
     574:	7e b7       	in	r23, 0x3e	; 62
     576:	6e 50       	subi	r22, 0x0E	; 14
     578:	70 40       	sbci	r23, 0x00	; 0
     57a:	0f b6       	in	r0, 0x3f	; 63
     57c:	f8 94       	cli
     57e:	7e bf       	out	0x3e, r23	; 62
     580:	0f be       	out	0x3f, r0	; 63
     582:	6d bf       	out	0x3d, r22	; 61
     584:	ed b7       	in	r30, 0x3d	; 61
     586:	fe b7       	in	r31, 0x3e	; 62
     588:	31 96       	adiw	r30, 0x01	; 1
     58a:	ad b7       	in	r26, 0x3d	; 61
     58c:	be b7       	in	r27, 0x3e	; 62
     58e:	12 96       	adiw	r26, 0x02	; 2
     590:	9c 92       	st	X, r9
     592:	8e 92       	st	-X, r8
     594:	11 97       	sbiw	r26, 0x01	; 1
     596:	5c c0       	rjmp	.+184    	; 0x650 <main+0x362>
				break;
			case  DEC_SECONDS:
				printf("Fit Dec. Seconds\n    %u%u:%u%u:%u%u    \n", hours / 10, hours % 10, minutes / 10, minutes % 10, seconds / 10, seconds % 10);
     598:	80 91 41 02 	lds	r24, 0x0241
     59c:	20 91 41 02 	lds	r18, 0x0241
     5a0:	30 91 40 02 	lds	r19, 0x0240
     5a4:	40 91 40 02 	lds	r20, 0x0240
     5a8:	50 91 3f 02 	lds	r21, 0x023F
     5ac:	50 90 3f 02 	lds	r5, 0x023F
     5b0:	6d b7       	in	r22, 0x3d	; 61
     5b2:	7e b7       	in	r23, 0x3e	; 62
     5b4:	6e 50       	subi	r22, 0x0E	; 14
     5b6:	70 40       	sbci	r23, 0x00	; 0
     5b8:	0f b6       	in	r0, 0x3f	; 63
     5ba:	f8 94       	cli
     5bc:	7e bf       	out	0x3e, r23	; 62
     5be:	0f be       	out	0x3f, r0	; 63
     5c0:	6d bf       	out	0x3d, r22	; 61
     5c2:	ed b7       	in	r30, 0x3d	; 61
     5c4:	fe b7       	in	r31, 0x3e	; 62
     5c6:	31 96       	adiw	r30, 0x01	; 1
     5c8:	ad b7       	in	r26, 0x3d	; 61
     5ca:	be b7       	in	r27, 0x3e	; 62
     5cc:	12 96       	adiw	r26, 0x02	; 2
     5ce:	bc 92       	st	X, r11
     5d0:	ae 92       	st	-X, r10
     5d2:	11 97       	sbiw	r26, 0x01	; 1
     5d4:	3d c0       	rjmp	.+122    	; 0x650 <main+0x362>
				break;
			case  UNI_SECONDS:
				printf("Fit Unit Seconds\n    %u%u:%u%u:%u%u    \n", hours / 10, hours % 10, minutes / 10, minutes % 10, seconds / 10, seconds % 10);
     5d6:	80 91 41 02 	lds	r24, 0x0241
     5da:	20 91 41 02 	lds	r18, 0x0241
     5de:	30 91 40 02 	lds	r19, 0x0240
     5e2:	40 91 40 02 	lds	r20, 0x0240
     5e6:	50 91 3f 02 	lds	r21, 0x023F
     5ea:	50 90 3f 02 	lds	r5, 0x023F
     5ee:	6d b7       	in	r22, 0x3d	; 61
     5f0:	7e b7       	in	r23, 0x3e	; 62
     5f2:	6e 50       	subi	r22, 0x0E	; 14
     5f4:	70 40       	sbci	r23, 0x00	; 0
     5f6:	0f b6       	in	r0, 0x3f	; 63
     5f8:	f8 94       	cli
     5fa:	7e bf       	out	0x3e, r23	; 62
     5fc:	0f be       	out	0x3f, r0	; 63
     5fe:	6d bf       	out	0x3d, r22	; 61
     600:	ed b7       	in	r30, 0x3d	; 61
     602:	fe b7       	in	r31, 0x3e	; 62
     604:	31 96       	adiw	r30, 0x01	; 1
     606:	ad b7       	in	r26, 0x3d	; 61
     608:	be b7       	in	r27, 0x3e	; 62
     60a:	12 96       	adiw	r26, 0x02	; 2
     60c:	7c 92       	st	X, r7
     60e:	6e 92       	st	-X, r6
     610:	11 97       	sbiw	r26, 0x01	; 1
     612:	1e c0       	rjmp	.+60     	; 0x650 <main+0x362>
				break;
			case NORMAL_COUNT:
				printf("  Digital Clock \n    %u%u:%u%u:%u%u    \n", hours / 10, hours % 10, minutes / 10, minutes % 10, seconds / 10, seconds % 10);
     614:	80 91 41 02 	lds	r24, 0x0241
     618:	20 91 41 02 	lds	r18, 0x0241
     61c:	30 91 40 02 	lds	r19, 0x0240
     620:	40 91 40 02 	lds	r20, 0x0240
     624:	50 91 3f 02 	lds	r21, 0x023F
     628:	50 90 3f 02 	lds	r5, 0x023F
     62c:	6d b7       	in	r22, 0x3d	; 61
     62e:	7e b7       	in	r23, 0x3e	; 62
     630:	6e 50       	subi	r22, 0x0E	; 14
     632:	70 40       	sbci	r23, 0x00	; 0
     634:	0f b6       	in	r0, 0x3f	; 63
     636:	f8 94       	cli
     638:	7e bf       	out	0x3e, r23	; 62
     63a:	0f be       	out	0x3f, r0	; 63
     63c:	6d bf       	out	0x3d, r22	; 61
     63e:	ed b7       	in	r30, 0x3d	; 61
     640:	fe b7       	in	r31, 0x3e	; 62
     642:	31 96       	adiw	r30, 0x01	; 1
     644:	ad b7       	in	r26, 0x3d	; 61
     646:	be b7       	in	r27, 0x3e	; 62
     648:	12 96       	adiw	r26, 0x02	; 2
     64a:	fc 92       	st	X, r15
     64c:	ee 92       	st	-X, r14
     64e:	11 97       	sbiw	r26, 0x01	; 1
     650:	6a e0       	ldi	r22, 0x0A	; 10
     652:	0e 94 c8 07 	call	0xf90	; 0xf90 <__udivmodqi4>
     656:	82 83       	std	Z+2, r24	; 0x02
     658:	13 82       	std	Z+3, r1	; 0x03
     65a:	82 2f       	mov	r24, r18
     65c:	0e 94 c8 07 	call	0xf90	; 0xf90 <__udivmodqi4>
     660:	94 83       	std	Z+4, r25	; 0x04
     662:	15 82       	std	Z+5, r1	; 0x05
     664:	83 2f       	mov	r24, r19
     666:	0e 94 c8 07 	call	0xf90	; 0xf90 <__udivmodqi4>
     66a:	86 83       	std	Z+6, r24	; 0x06
     66c:	17 82       	std	Z+7, r1	; 0x07
     66e:	84 2f       	mov	r24, r20
     670:	0e 94 c8 07 	call	0xf90	; 0xf90 <__udivmodqi4>
     674:	90 87       	std	Z+8, r25	; 0x08
     676:	11 86       	std	Z+9, r1	; 0x09
     678:	85 2f       	mov	r24, r21
     67a:	0e 94 c8 07 	call	0xf90	; 0xf90 <__udivmodqi4>
     67e:	82 87       	std	Z+10, r24	; 0x0a
     680:	13 86       	std	Z+11, r1	; 0x0b
     682:	85 2d       	mov	r24, r5
     684:	0e 94 c8 07 	call	0xf90	; 0xf90 <__udivmodqi4>
     688:	94 87       	std	Z+12, r25	; 0x0c
     68a:	15 86       	std	Z+13, r1	; 0x0d
     68c:	0e 94 f6 07 	call	0xfec	; 0xfec <printf>
     690:	ed b7       	in	r30, 0x3d	; 61
     692:	fe b7       	in	r31, 0x3e	; 62
     694:	3e 96       	adiw	r30, 0x0e	; 14
     696:	0f b6       	in	r0, 0x3f	; 63
     698:	f8 94       	cli
     69a:	fe bf       	out	0x3e, r31	; 62
     69c:	0f be       	out	0x3f, r0	; 63
     69e:	ed bf       	out	0x3d, r30	; 61
			}
			update = 0;
     6a0:	10 92 42 02 	sts	0x0242, r1
     6a4:	c7 ce       	rjmp	.-626    	; 0x434 <main+0x146>

000006a6 <eepromWrite>:
 * Writes a byte in the specified address in the EEPROM
 * -------------------------------------------------------------------------- */

void eepromWrite(uint8 data, uint16 address)
{
	waitUntilBitIsClear(EECR, EEPE);
     6a6:	f9 99       	sbic	0x1f, 1	; 31
     6a8:	fe cf       	rjmp	.-4      	; 0x6a6 <eepromWrite>
	EEAR = (address & 0x01FF);
     6aa:	71 70       	andi	r23, 0x01	; 1
     6ac:	72 bd       	out	0x22, r23	; 34
     6ae:	61 bd       	out	0x21, r22	; 33
	EEDR = data;
     6b0:	80 bd       	out	0x20, r24	; 32
	setBit(EECR, EEMPE);
     6b2:	fa 9a       	sbi	0x1f, 2	; 31
	setBit(EECR, EEPE);
     6b4:	f9 9a       	sbi	0x1f, 1	; 31
	return;
}
     6b6:	08 95       	ret

000006b8 <eepromRead>:
 * Reads a byte from the specified address in the EEPROM
 * -------------------------------------------------------------------------- */

uint8 eepromRead(uint16 address)
{
	waitUntilBitIsClear(EECR, EEPE);
     6b8:	f9 99       	sbic	0x1f, 1	; 31
     6ba:	fe cf       	rjmp	.-4      	; 0x6b8 <eepromRead>
	EEAR = (address & 0x01FF);
     6bc:	91 70       	andi	r25, 0x01	; 1
     6be:	92 bd       	out	0x22, r25	; 34
     6c0:	81 bd       	out	0x21, r24	; 33
	setBit(EECR, EERE);
     6c2:	f8 9a       	sbi	0x1f, 0	; 31
	return EEDR;
     6c4:	80 b5       	in	r24, 0x20	; 32
}
     6c6:	08 95       	ret

000006c8 <timer1SetCounterValue>:

void timer1SetCounterValue(uint16 value)
{
	uint8 sreg;

	sreg = SREG;
     6c8:	2f b7       	in	r18, 0x3f	; 63
	cli();
     6ca:	f8 94       	cli
	TCNT1 = value;
     6cc:	90 93 85 00 	sts	0x0085, r25
     6d0:	80 93 84 00 	sts	0x0084, r24
	SREG = sreg;
     6d4:	2f bf       	out	0x3f, r18	; 63

	return;
}
     6d6:	08 95       	ret

000006d8 <timer1GetCounterValue>:
uint16 timer1GetCounterValue(void)
{
	uint8 sreg;
	uint16 aux;

	sreg = SREG;
     6d8:	8f b7       	in	r24, 0x3f	; 63
	cli();
     6da:	f8 94       	cli
	aux = TCNT1;
     6dc:	20 91 84 00 	lds	r18, 0x0084
     6e0:	30 91 85 00 	lds	r19, 0x0085
	SREG = sreg;
     6e4:	8f bf       	out	0x3f, r24	; 63

	return aux;
}
     6e6:	c9 01       	movw	r24, r18
     6e8:	08 95       	ret

000006ea <timer1SetCompareAValue>:

void timer1SetCompareAValue(uint16 value)
{
	uint8 sreg;

	sreg = SREG;
     6ea:	2f b7       	in	r18, 0x3f	; 63
	cli();
     6ec:	f8 94       	cli
	OCR1A = value;
     6ee:	90 93 89 00 	sts	0x0089, r25
     6f2:	80 93 88 00 	sts	0x0088, r24
	SREG = sreg;
     6f6:	2f bf       	out	0x3f, r18	; 63

	return;
}
     6f8:	08 95       	ret

000006fa <timer1GetCompareAValue>:
uint16 timer1GetCompareAValue(void)
{
	uint8 sreg;
	uint16 aux;

	sreg = SREG;
     6fa:	8f b7       	in	r24, 0x3f	; 63
	cli();
     6fc:	f8 94       	cli
	aux = OCR1A;
     6fe:	20 91 88 00 	lds	r18, 0x0088
     702:	30 91 89 00 	lds	r19, 0x0089
	SREG = sreg;
     706:	8f bf       	out	0x3f, r24	; 63

	return aux;
}
     708:	c9 01       	movw	r24, r18
     70a:	08 95       	ret

0000070c <timer1SetCompareBValue>:

void timer1SetCompareBValue(uint16 value)
{
	uint8 sreg;

	sreg = SREG;
     70c:	2f b7       	in	r18, 0x3f	; 63
	cli();
     70e:	f8 94       	cli
	OCR1B = value;
     710:	90 93 8b 00 	sts	0x008B, r25
     714:	80 93 8a 00 	sts	0x008A, r24
	SREG = sreg;
     718:	2f bf       	out	0x3f, r18	; 63

	return;
}
     71a:	08 95       	ret

0000071c <timer1GetCompareBValue>:
uint16 timer1GetCompareBValue(void)
{
	uint8 sreg;
	uint16 aux;

	sreg = SREG;
     71c:	8f b7       	in	r24, 0x3f	; 63
	cli();
     71e:	f8 94       	cli
	aux = OCR1B;
     720:	20 91 8a 00 	lds	r18, 0x008A
     724:	30 91 8b 00 	lds	r19, 0x008B
	SREG = sreg;
     728:	8f bf       	out	0x3f, r24	; 63

	return aux;
}
     72a:	c9 01       	movw	r24, r18
     72c:	08 95       	ret

0000072e <timer1GetInputCaptureValue>:
uint16 timer1GetInputCaptureValue(void)
{
	uint8 sreg;
	uint16 aux;

	sreg = SREG;
     72e:	8f b7       	in	r24, 0x3f	; 63
	cli();
     730:	f8 94       	cli
	aux = ICR1;
     732:	20 91 86 00 	lds	r18, 0x0086
     736:	30 91 87 00 	lds	r19, 0x0087
	SREG = sreg;
     73a:	8f bf       	out	0x3f, r24	; 63

	return aux;
}
     73c:	c9 01       	movw	r24, r18
     73e:	08 95       	ret

00000740 <spiInit>:
 * Configures the SPI controller
 * -------------------------------------------------------------------------- */

void spiInit(void)
{
	if(spiConfiguration.masterSlave){
     740:	80 91 62 02 	lds	r24, 0x0262
     744:	81 ff       	sbrs	r24, 1
     746:	04 c0       	rjmp	.+8      	; 0x750 <spiInit+0x10>
		setBit(SPI_DDR, SPI_MOSI);
     748:	23 9a       	sbi	0x04, 3	; 4
		setBit(SPI_DDR, SPI_SCK);
     74a:	25 9a       	sbi	0x04, 5	; 4
		clrBit(SPI_DDR, SPI_MISO);
     74c:	24 98       	cbi	0x04, 4	; 4
     74e:	03 c0       	rjmp	.+6      	; 0x756 <spiInit+0x16>
	}else{
		clrBit(SPI_DDR, SPI_MOSI);
     750:	23 98       	cbi	0x04, 3	; 4
		clrBit(SPI_DDR, SPI_SCK);
     752:	25 98       	cbi	0x04, 5	; 4
		setBit(SPI_DDR, SPI_MISO);
     754:	24 9a       	sbi	0x04, 4	; 4
	}
	if(spiConfiguration.doubleSpeed)
     756:	80 91 63 02 	lds	r24, 0x0263
     75a:	81 ff       	sbrs	r24, 1
     75c:	03 c0       	rjmp	.+6      	; 0x764 <spiInit+0x24>
		setBit(SPSR, SPI2X);
     75e:	8d b5       	in	r24, 0x2d	; 45
     760:	81 60       	ori	r24, 0x01	; 1
     762:	02 c0       	rjmp	.+4      	; 0x768 <spiInit+0x28>
	else
		clrBit(SPSR, SPI2X);
     764:	8d b5       	in	r24, 0x2d	; 45
     766:	8e 7f       	andi	r24, 0xFE	; 254
     768:	8d bd       	out	0x2d, r24	; 45
	SPCR =	(spiConfiguration.interruptEnabled << SPIE) | 
     76a:	90 91 62 02 	lds	r25, 0x0262
     76e:	29 2f       	mov	r18, r25
     770:	26 95       	lsr	r18
     772:	26 95       	lsr	r18
     774:	27 95       	ror	r18
     776:	22 27       	eor	r18, r18
     778:	27 95       	ror	r18
     77a:	89 2f       	mov	r24, r25
     77c:	81 70       	andi	r24, 0x01	; 1
     77e:	82 95       	swap	r24
     780:	88 0f       	add	r24, r24
     782:	88 0f       	add	r24, r24
     784:	80 7c       	andi	r24, 0xC0	; 192
     786:	82 2b       	or	r24, r18
     788:	29 2f       	mov	r18, r25
     78a:	22 95       	swap	r18
     78c:	26 95       	lsr	r18
     78e:	26 95       	lsr	r18
     790:	23 70       	andi	r18, 0x03	; 3
     792:	82 2b       	or	r24, r18
     794:	29 2f       	mov	r18, r25
     796:	22 0f       	add	r18, r18
     798:	22 0f       	add	r18, r18
     79a:	20 72       	andi	r18, 0x20	; 32
     79c:	28 2b       	or	r18, r24
     79e:	89 2f       	mov	r24, r25
     7a0:	88 0f       	add	r24, r24
     7a2:	88 0f       	add	r24, r24
     7a4:	88 0f       	add	r24, r24
     7a6:	80 71       	andi	r24, 0x10	; 16
     7a8:	82 2b       	or	r24, r18
     7aa:	96 95       	lsr	r25
     7ac:	29 2f       	mov	r18, r25
     7ae:	28 70       	andi	r18, 0x08	; 8
     7b0:	28 2b       	or	r18, r24
     7b2:	96 95       	lsr	r25
     7b4:	96 95       	lsr	r25
     7b6:	94 70       	andi	r25, 0x04	; 4
     7b8:	92 2b       	or	r25, r18
     7ba:	9c bd       	out	0x2c, r25	; 44
			(spiConfiguration.sckIdleValue << CPOL) | 
			(spiConfiguration.leadingTrailingEdge << CPHA) | 
			(spiConfiguration.clockPrescaler & 0x03);

	return;
}
     7bc:	08 95       	ret

000007be <spiMasterTransmit>:
 * Transmit data at the SPI bus in master mode
 * -------------------------------------------------------------------------- */

uint8 spiMasterTransmit(uint8 data)
{
	SPDR = data;
     7be:	8e bd       	out	0x2e, r24	; 46
	waitUntilBitIsClear(SPSR, SPIF);
     7c0:	0d b4       	in	r0, 0x2d	; 45
     7c2:	07 fc       	sbrc	r0, 7
     7c4:	fd cf       	rjmp	.-6      	; 0x7c0 <spiMasterTransmit+0x2>
	return SPDR;
     7c6:	8e b5       	in	r24, 0x2e	; 46
}
     7c8:	08 95       	ret

000007ca <spiSlaveTransmit>:
 * Receives data from the SPI bus
 * -------------------------------------------------------------------------- */

uint8 spiSlaveTransmit(void)
{
	waitUntilBitIsClear(SPSR, SPIF);
     7ca:	0d b4       	in	r0, 0x2d	; 45
     7cc:	07 fc       	sbrc	r0, 7
     7ce:	fd cf       	rjmp	.-6      	; 0x7ca <spiSlaveTransmit>
	return SPDR;
     7d0:	8e b5       	in	r24, 0x2e	; 46
}
     7d2:	08 95       	ret

000007d4 <adcGetConfiguration>:
/* -----------------------------------------------------------------------------
 * Get the current ADC configuration
 * -------------------------------------------------------------------------- */

adcConfiguration_t adcGetConfiguration(void)
{
     7d4:	df 93       	push	r29
     7d6:	cf 93       	push	r28
     7d8:	00 d0       	rcall	.+0      	; 0x7da <adcGetConfiguration+0x6>
     7da:	0f 92       	push	r0
     7dc:	cd b7       	in	r28, 0x3d	; 61
     7de:	de b7       	in	r29, 0x3e	; 62
	return adcConfiguration;
     7e0:	de 01       	movw	r26, r28
     7e2:	11 96       	adiw	r26, 0x01	; 1
     7e4:	ea e9       	ldi	r30, 0x9A	; 154
     7e6:	f2 e0       	ldi	r31, 0x02	; 2
     7e8:	83 e0       	ldi	r24, 0x03	; 3
     7ea:	01 90       	ld	r0, Z+
     7ec:	0d 92       	st	X+, r0
     7ee:	81 50       	subi	r24, 0x01	; 1
     7f0:	e1 f7       	brne	.-8      	; 0x7ea <adcGetConfiguration+0x16>
     7f2:	69 81       	ldd	r22, Y+1	; 0x01
     7f4:	7a 81       	ldd	r23, Y+2	; 0x02
}
     7f6:	8b 81       	ldd	r24, Y+3	; 0x03
     7f8:	90 e0       	ldi	r25, 0x00	; 0
     7fa:	0f 90       	pop	r0
     7fc:	0f 90       	pop	r0
     7fe:	0f 90       	pop	r0
     800:	cf 91       	pop	r28
     802:	df 91       	pop	r29
     804:	08 95       	ret

00000806 <adcLoadConfiguration>:
/* -----------------------------------------------------------------------------
 * Load an ADC configuration
 * -------------------------------------------------------------------------- */

void adcLoadConfiguration(adcConfiguration_t config)
{
     806:	cf 92       	push	r12
     808:	df 92       	push	r13
     80a:	ef 92       	push	r14
     80c:	ff 92       	push	r15
     80e:	0f 93       	push	r16
     810:	1f 93       	push	r17
     812:	df 93       	push	r29
     814:	cf 93       	push	r28
     816:	00 d0       	rcall	.+0      	; 0x818 <adcLoadConfiguration+0x12>
     818:	0f 92       	push	r0
     81a:	cd b7       	in	r28, 0x3d	; 61
     81c:	de b7       	in	r29, 0x3e	; 62
     81e:	33 e0       	ldi	r19, 0x03	; 3
     820:	d3 2e       	mov	r13, r19
     822:	d6 22       	and	r13, r22
     824:	47 2f       	mov	r20, r23
     826:	46 95       	lsr	r20
     828:	41 70       	andi	r20, 0x01	; 1
     82a:	18 2f       	mov	r17, r24
     82c:	12 95       	swap	r17
     82e:	11 70       	andi	r17, 0x01	; 1
     830:	56 2f       	mov	r21, r22
     832:	52 95       	swap	r21
     834:	56 95       	lsr	r21
     836:	51 70       	andi	r21, 0x01	; 1
     838:	08 2f       	mov	r16, r24
     83a:	02 95       	swap	r16
     83c:	06 95       	lsr	r16
     83e:	01 70       	andi	r16, 0x01	; 1
     840:	a8 2f       	mov	r26, r24
     842:	a2 95       	swap	r26
     844:	a6 95       	lsr	r26
     846:	a6 95       	lsr	r26
     848:	a1 70       	andi	r26, 0x01	; 1
     84a:	96 2f       	mov	r25, r22
     84c:	92 95       	swap	r25
     84e:	96 95       	lsr	r25
     850:	96 95       	lsr	r25
     852:	93 70       	andi	r25, 0x03	; 3
     854:	ff 24       	eor	r15, r15
     856:	f3 94       	inc	r15
     858:	f7 22       	and	r15, r23
     85a:	ff 0c       	add	r15, r15
     85c:	ff 0c       	add	r15, r15
     85e:	f9 2a       	or	r15, r25
     860:	97 2f       	mov	r25, r23
     862:	92 95       	swap	r25
     864:	96 95       	lsr	r25
     866:	96 95       	lsr	r25
     868:	93 70       	andi	r25, 0x03	; 3
     86a:	b8 2f       	mov	r27, r24
     86c:	bf 70       	andi	r27, 0x0F	; 15
     86e:	bb 0f       	add	r27, r27
     870:	bb 0f       	add	r27, r27
     872:	b9 2b       	or	r27, r25
	adcConfiguration = config;
     874:	80 78       	andi	r24, 0x80	; 128
     876:	90 91 9c 02 	lds	r25, 0x029C
     87a:	90 77       	andi	r25, 0x70	; 112
     87c:	ec e9       	ldi	r30, 0x9C	; 156
     87e:	f2 e0       	ldi	r31, 0x02	; 2
     880:	3b 2f       	mov	r19, r27
     882:	32 95       	swap	r19
     884:	33 0f       	add	r19, r19
     886:	33 0f       	add	r19, r19
     888:	30 7c       	andi	r19, 0xC0	; 192
     88a:	22 91       	ld	r18, -Z
     88c:	2b 2f       	mov	r18, r27
     88e:	26 95       	lsr	r18
     890:	26 95       	lsr	r18
     892:	98 2b       	or	r25, r24
     894:	92 2b       	or	r25, r18
     896:	ef 2c       	mov	r14, r15
     898:	e2 94       	swap	r14
     89a:	ee 0c       	add	r14, r14
     89c:	ee 0c       	add	r14, r14
     89e:	20 ec       	ldi	r18, 0xC0	; 192
     8a0:	e2 22       	and	r14, r18
     8a2:	cf 2c       	mov	r12, r15
     8a4:	c6 94       	lsr	r12
     8a6:	c6 94       	lsr	r12
     8a8:	a2 95       	swap	r26
     8aa:	aa 0f       	add	r26, r26
     8ac:	aa 0f       	add	r26, r26
     8ae:	a0 7c       	andi	r26, 0xC0	; 192
     8b0:	9f 79       	andi	r25, 0x9F	; 159
/* -----------------------------------------------------------------------------
 * Load an ADC configuration
 * -------------------------------------------------------------------------- */

void adcLoadConfiguration(adcConfiguration_t config)
{
     8b2:	66 95       	lsr	r22
     8b4:	66 95       	lsr	r22
	adcConfiguration = config;
     8b6:	67 70       	andi	r22, 0x07	; 7
     8b8:	86 2f       	mov	r24, r22
     8ba:	88 0f       	add	r24, r24
     8bc:	88 0f       	add	r24, r24
     8be:	20 2f       	mov	r18, r16
     8c0:	22 95       	swap	r18
     8c2:	22 0f       	add	r18, r18
     8c4:	20 7e       	andi	r18, 0xE0	; 224
     8c6:	9a 2b       	or	r25, r26
     8c8:	92 2b       	or	r25, r18
     8ca:	52 95       	swap	r21
     8cc:	55 0f       	add	r21, r21
     8ce:	50 7e       	andi	r21, 0xE0	; 224
     8d0:	8e 29       	or	r24, r14
     8d2:	12 95       	swap	r17
     8d4:	10 7f       	andi	r17, 0xF0	; 240
     8d6:	9f 7e       	andi	r25, 0xEF	; 239
     8d8:	91 2b       	or	r25, r17
     8da:	90 93 9c 02 	sts	0x029C, r25
/* -----------------------------------------------------------------------------
 * Load an ADC configuration
 * -------------------------------------------------------------------------- */

void adcLoadConfiguration(adcConfiguration_t config)
{
     8de:	76 95       	lsr	r23
     8e0:	76 95       	lsr	r23
	adcConfiguration = config;
     8e2:	7f 70       	andi	r23, 0x0F	; 15
     8e4:	97 2f       	mov	r25, r23
     8e6:	99 0f       	add	r25, r25
     8e8:	99 0f       	add	r25, r25
     8ea:	3c 29       	or	r19, r12
     8ec:	44 0f       	add	r20, r20
     8ee:	39 2b       	or	r19, r25
     8f0:	34 2b       	or	r19, r20
     8f2:	30 83       	st	Z, r19
     8f4:	85 2b       	or	r24, r21
     8f6:	8d 29       	or	r24, r13
     8f8:	80 93 9a 02 	sts	0x029A, r24

	ADMUX =	((config.reference & 0x03) << 6) | 
     8fc:	d2 94       	swap	r13
     8fe:	dd 0c       	add	r13, r13
     900:	dd 0c       	add	r13, r13
     902:	80 ec       	ldi	r24, 0xC0	; 192
     904:	d8 22       	and	r13, r24
     906:	42 95       	swap	r20
     908:	40 7f       	andi	r20, 0xF0	; 240
     90a:	4d 29       	or	r20, r13
     90c:	47 2b       	or	r20, r23
     90e:	40 93 7c 00 	sts	0x007C, r20
			(config.leftAdjust << 5) | 
			(config.channel & 0x0F);
	ADCSRA =	(config.enabled << 7) |
     912:	11 0f       	add	r17, r17
     914:	11 0f       	add	r17, r17
     916:	11 0f       	add	r17, r17
     918:	51 2b       	or	r21, r17
     91a:	56 2b       	or	r21, r22
     91c:	00 0f       	add	r16, r16
     91e:	00 0f       	add	r16, r16
     920:	00 0f       	add	r16, r16
     922:	05 2b       	or	r16, r21
     924:	00 93 7a 00 	sts	0x007A, r16
				(config.automaticMode << 5) |
				(config.interruptEnabled << 3) |
				(config.clockPrescaller & 0x07);
	ADCSRB =	(config.analogComparator << 6) |
     928:	af 29       	or	r26, r15
     92a:	a0 93 7b 00 	sts	0x007B, r26
				(config.triggerSource & 0x07);
	DIDR0 =	config.digitalDisabled & 0x3F;
     92e:	bf 73       	andi	r27, 0x3F	; 63
     930:	b0 93 7e 00 	sts	0x007E, r27
	return;
}
     934:	0f 90       	pop	r0
     936:	0f 90       	pop	r0
     938:	0f 90       	pop	r0
     93a:	cf 91       	pop	r28
     93c:	df 91       	pop	r29
     93e:	1f 91       	pop	r17
     940:	0f 91       	pop	r16
     942:	ff 90       	pop	r15
     944:	ef 90       	pop	r14
     946:	df 90       	pop	r13
     948:	cf 90       	pop	r12
     94a:	08 95       	ret

0000094c <usartInit>:
/* -----------------------------------------------------------------------------
 * Configures the USART controller
 * -------------------------------------------------------------------------- */

void usartInit(uint32 baudRate)
{
     94c:	9b 01       	movw	r18, r22
     94e:	ac 01       	movw	r20, r24
	uint64 aux64;

	// Clear errors
	UCSR0A &= 0xE3;
     950:	80 91 c0 00 	lds	r24, 0x00C0
     954:	83 7e       	andi	r24, 0xE3	; 227
     956:	80 93 c0 00 	sts	0x00C0, r24
	usartConfiguration.frameError = 0;
     95a:	60 91 96 02 	lds	r22, 0x0296
	usartConfiguration.bufferOverflowError = 0;
	usartConfiguration.parityError = 0;
     95e:	86 2f       	mov	r24, r22
     960:	87 7c       	andi	r24, 0xC7	; 199
     962:	80 93 96 02 	sts	0x0296, r24

	// USART configuration
	switch(usartConfiguration.mode){
     966:	86 2f       	mov	r24, r22
     968:	83 70       	andi	r24, 0x03	; 3
     96a:	90 e0       	ldi	r25, 0x00	; 0
     96c:	81 30       	cpi	r24, 0x01	; 1
     96e:	91 05       	cpc	r25, r1
     970:	31 f1       	breq	.+76     	; 0x9be <usartInit+0x72>
     972:	82 30       	cpi	r24, 0x02	; 2
     974:	91 05       	cpc	r25, r1
     976:	1c f4       	brge	.+6      	; 0x97e <usartInit+0x32>
     978:	89 2b       	or	r24, r25
     97a:	41 f0       	breq	.+16     	; 0x98c <usartInit+0x40>
     97c:	80 c0       	rjmp	.+256    	; 0xa7e <usartInit+0x132>
     97e:	82 30       	cpi	r24, 0x02	; 2
     980:	91 05       	cpc	r25, r1
     982:	b1 f1       	breq	.+108    	; 0x9f0 <usartInit+0xa4>
     984:	03 97       	sbiw	r24, 0x03	; 3
     986:	09 f0       	breq	.+2      	; 0x98a <usartInit+0x3e>
     988:	7a c0       	rjmp	.+244    	; 0xa7e <usartInit+0x132>
     98a:	4d c0       	rjmp	.+154    	; 0xa26 <usartInit+0xda>
	case 0:
		clrBit(UCSR0A, U2X0);			// Normal speed
     98c:	80 91 c0 00 	lds	r24, 0x00C0
     990:	8d 7f       	andi	r24, 0xFD	; 253
     992:	80 93 c0 00 	sts	0x00C0, r24
		clrBit(UCSR0C, UCPOL0);			// Write zero in asynchronous mode
     996:	80 91 c2 00 	lds	r24, 0x00C2
     99a:	8e 7f       	andi	r24, 0xFE	; 254
     99c:	80 93 c2 00 	sts	0x00C2, r24
		clrBit(UCSR0C, UMSEL01);		// Asynchronous mode
     9a0:	80 91 c2 00 	lds	r24, 0x00C2
     9a4:	8f 77       	andi	r24, 0x7F	; 127
     9a6:	80 93 c2 00 	sts	0x00C2, r24
		clrBit(UCSR0C, UMSEL00);		// Asynchronous mode
     9aa:	80 91 c2 00 	lds	r24, 0x00C2
     9ae:	8f 7b       	andi	r24, 0xBF	; 191
     9b0:	80 93 c2 00 	sts	0x00C2, r24
		aux64 = F_CPU / 16 / baudRate;
		usartConfiguration.ubrr = (uint16)(aux64 - 1);
     9b4:	60 e4       	ldi	r22, 0x40	; 64
     9b6:	72 e4       	ldi	r23, 0x42	; 66
     9b8:	8f e0       	ldi	r24, 0x0F	; 15
     9ba:	90 e0       	ldi	r25, 0x00	; 0
     9bc:	52 c0       	rjmp	.+164    	; 0xa62 <usartInit+0x116>
		break;
	case 1:
		setBit(UCSR0A, U2X0);			// Double speed
     9be:	80 91 c0 00 	lds	r24, 0x00C0
     9c2:	82 60       	ori	r24, 0x02	; 2
     9c4:	80 93 c0 00 	sts	0x00C0, r24
		clrBit(UCSR0C, UCPOL0);			// Write zero in asynchronous mode
     9c8:	80 91 c2 00 	lds	r24, 0x00C2
     9cc:	8e 7f       	andi	r24, 0xFE	; 254
     9ce:	80 93 c2 00 	sts	0x00C2, r24
		clrBit(UCSR0C, UMSEL01);		// Asynchronous mode
     9d2:	80 91 c2 00 	lds	r24, 0x00C2
     9d6:	8f 77       	andi	r24, 0x7F	; 127
     9d8:	80 93 c2 00 	sts	0x00C2, r24
		clrBit(UCSR0C, UMSEL00);		// Asynchronous mode
     9dc:	80 91 c2 00 	lds	r24, 0x00C2
     9e0:	8f 7b       	andi	r24, 0xBF	; 191
     9e2:	80 93 c2 00 	sts	0x00C2, r24
		aux64 = F_CPU / 8 / baudRate;
		usartConfiguration.ubrr = (uint16)(aux64 - 1);
     9e6:	60 e8       	ldi	r22, 0x80	; 128
     9e8:	74 e8       	ldi	r23, 0x84	; 132
     9ea:	8e e1       	ldi	r24, 0x1E	; 30
     9ec:	90 e0       	ldi	r25, 0x00	; 0
     9ee:	39 c0       	rjmp	.+114    	; 0xa62 <usartInit+0x116>
		break;
	case 2:
		clrBit(UCSR0A, U2X0);			// Write zero in synchronous mode
     9f0:	80 91 c0 00 	lds	r24, 0x00C0
     9f4:	8d 7f       	andi	r24, 0xFD	; 253
     9f6:	80 93 c0 00 	sts	0x00C0, r24
		if(usartConfiguration.polarity)
     9fa:	62 ff       	sbrs	r22, 2
     9fc:	04 c0       	rjmp	.+8      	; 0xa06 <usartInit+0xba>
			setBit(UCSR0C, UCPOL0);		// XCK rising edge
     9fe:	80 91 c2 00 	lds	r24, 0x00C2
     a02:	81 60       	ori	r24, 0x01	; 1
     a04:	03 c0       	rjmp	.+6      	; 0xa0c <usartInit+0xc0>
		else
			clrBit(UCSR0C, UCPOL0);		// XCK falling edge
     a06:	80 91 c2 00 	lds	r24, 0x00C2
     a0a:	8e 7f       	andi	r24, 0xFE	; 254
     a0c:	80 93 c2 00 	sts	0x00C2, r24
		clrBit(UCSR0C, UMSEL01);		// Synchronous mode
     a10:	80 91 c2 00 	lds	r24, 0x00C2
     a14:	8f 77       	andi	r24, 0x7F	; 127
     a16:	80 93 c2 00 	sts	0x00C2, r24
		setBit(UCSR0C, UMSEL00);		// Synchronous mode
     a1a:	80 91 c2 00 	lds	r24, 0x00C2
     a1e:	80 64       	ori	r24, 0x40	; 64
     a20:	80 93 c2 00 	sts	0x00C2, r24
     a24:	2c c0       	rjmp	.+88     	; 0xa7e <usartInit+0x132>
		break;
	case 3:
		clrBit(UCSR0A, U2X0);			// Write zero in synchronous mode
     a26:	80 91 c0 00 	lds	r24, 0x00C0
     a2a:	8d 7f       	andi	r24, 0xFD	; 253
     a2c:	80 93 c0 00 	sts	0x00C0, r24
		if(usartConfiguration.polarity)
     a30:	62 ff       	sbrs	r22, 2
     a32:	04 c0       	rjmp	.+8      	; 0xa3c <usartInit+0xf0>
			setBit(UCSR0C, UCPOL0);		// XCK rising edge
     a34:	80 91 c2 00 	lds	r24, 0x00C2
     a38:	81 60       	ori	r24, 0x01	; 1
     a3a:	03 c0       	rjmp	.+6      	; 0xa42 <usartInit+0xf6>
		else
			clrBit(UCSR0C, UCPOL0);		// XCK falling edge
     a3c:	80 91 c2 00 	lds	r24, 0x00C2
     a40:	8e 7f       	andi	r24, 0xFE	; 254
     a42:	80 93 c2 00 	sts	0x00C2, r24
		setBit(UCSR0C, UMSEL01);		// Master SPI mode
     a46:	80 91 c2 00 	lds	r24, 0x00C2
     a4a:	80 68       	ori	r24, 0x80	; 128
     a4c:	80 93 c2 00 	sts	0x00C2, r24
		setBit(UCSR0C, UMSEL00);		// Master SPI mode
     a50:	80 91 c2 00 	lds	r24, 0x00C2
     a54:	80 64       	ori	r24, 0x40	; 64
     a56:	80 93 c2 00 	sts	0x00C2, r24
		aux64 = F_CPU / 2 / baudRate;
		usartConfiguration.ubrr = (uint16)(aux64 - 1);
     a5a:	60 e0       	ldi	r22, 0x00	; 0
     a5c:	72 e1       	ldi	r23, 0x12	; 18
     a5e:	8a e7       	ldi	r24, 0x7A	; 122
     a60:	90 e0       	ldi	r25, 0x00	; 0
     a62:	0e 94 d4 07 	call	0xfa8	; 0xfa8 <__udivmodsi4>
     a66:	21 50       	subi	r18, 0x01	; 1
     a68:	30 40       	sbci	r19, 0x00	; 0
     a6a:	20 93 98 02 	sts	0x0298, r18
     a6e:	93 2f       	mov	r25, r19
     a70:	9f 70       	andi	r25, 0x0F	; 15
     a72:	80 91 99 02 	lds	r24, 0x0299
     a76:	80 7f       	andi	r24, 0xF0	; 240
     a78:	89 2b       	or	r24, r25
     a7a:	80 93 99 02 	sts	0x0299, r24
		break;
	}

	// Sets the baud rate
	UBRR0H = (uint8)(usartConfiguration.ubrr >> 8);
     a7e:	80 91 98 02 	lds	r24, 0x0298
     a82:	40 91 99 02 	lds	r20, 0x0299
     a86:	94 2f       	mov	r25, r20
     a88:	9f 70       	andi	r25, 0x0F	; 15
     a8a:	29 2f       	mov	r18, r25
     a8c:	33 27       	eor	r19, r19
     a8e:	27 fd       	sbrc	r18, 7
     a90:	3a 95       	dec	r19
     a92:	20 93 c5 00 	sts	0x00C5, r18
	UBRR0L = (uint8)usartConfiguration.ubrr;
     a96:	80 93 c4 00 	sts	0x00C4, r24

	// Receiver buffer
	if(usartConfiguration.receiverBufferEnable)
     a9a:	45 ff       	sbrs	r20, 5
     a9c:	0a c0       	rjmp	.+20     	; 0xab2 <usartInit+0x166>
		usartActivateReceptionCompleteInterrupt();
     a9e:	80 91 c1 00 	lds	r24, 0x00C1
     aa2:	80 68       	ori	r24, 0x80	; 128
     aa4:	80 93 c1 00 	sts	0x00C1, r24
     aa8:	80 91 97 02 	lds	r24, 0x0297
     aac:	82 60       	ori	r24, 0x02	; 2
     aae:	80 93 97 02 	sts	0x0297, r24
     ab2:	08 95       	ret

00000ab4 <usartCheckError>:
 * Checks if an error occurred during transmission or reception
 * -------------------------------------------------------------------------- */

uint8 usartCheckError(void)
{
	usartConfiguration.frameError = isBitSet(UCSR0A, FE0);
     ab4:	e0 ec       	ldi	r30, 0xC0	; 192
     ab6:	f0 e0       	ldi	r31, 0x00	; 0
     ab8:	40 81       	ld	r20, Z
     aba:	42 95       	swap	r20
     abc:	41 70       	andi	r20, 0x01	; 1
     abe:	84 2f       	mov	r24, r20
     ac0:	88 0f       	add	r24, r24
     ac2:	88 0f       	add	r24, r24
     ac4:	88 0f       	add	r24, r24
     ac6:	90 91 96 02 	lds	r25, 0x0296
     aca:	97 7f       	andi	r25, 0xF7	; 247
     acc:	98 2b       	or	r25, r24
     ace:	90 93 96 02 	sts	0x0296, r25
	usartConfiguration.bufferOverflowError = isBitSet(UCSR0A, DOR0);
     ad2:	80 81       	ld	r24, Z
     ad4:	86 95       	lsr	r24
     ad6:	86 95       	lsr	r24
     ad8:	86 95       	lsr	r24
     ada:	81 70       	andi	r24, 0x01	; 1
     adc:	28 2f       	mov	r18, r24
     ade:	22 95       	swap	r18
     ae0:	20 7f       	andi	r18, 0xF0	; 240
     ae2:	9f 7e       	andi	r25, 0xEF	; 239
     ae4:	92 2b       	or	r25, r18
     ae6:	90 93 96 02 	sts	0x0296, r25
	usartConfiguration.parityError = isBitSet(UCSR0A, UPE0);
     aea:	20 81       	ld	r18, Z
     aec:	26 95       	lsr	r18
     aee:	26 95       	lsr	r18
     af0:	21 70       	andi	r18, 0x01	; 1
     af2:	32 2f       	mov	r19, r18
     af4:	32 95       	swap	r19
     af6:	33 0f       	add	r19, r19
     af8:	30 7e       	andi	r19, 0xE0	; 224
     afa:	9f 7d       	andi	r25, 0xDF	; 223
     afc:	93 2b       	or	r25, r19
     afe:	90 93 96 02 	sts	0x0296, r25
     b02:	82 2b       	or	r24, r18
	return (usartConfiguration.parityError | usartConfiguration.bufferOverflowError | usartConfiguration.frameError);
}
     b04:	84 2b       	or	r24, r20
     b06:	08 95       	ret

00000b08 <usartTransmit>:
/* -----------------------------------------------------------------------------
 * Transmits data in 5, 6, 7 or 8 bits modes using the USART controller
 * -------------------------------------------------------------------------- */

void usartTransmit(int8 data)
{
     b08:	98 2f       	mov	r25, r24
	
	while(!usartIsBufferEmpty())
     b0a:	80 91 c0 00 	lds	r24, 0x00C0
     b0e:	85 ff       	sbrs	r24, 5
     b10:	fc cf       	rjmp	.-8      	; 0xb0a <usartTransmit+0x2>
		;	// Waits until last transmission ends
	UDR0 = data;
     b12:	90 93 c6 00 	sts	0x00C6, r25
	return;
}
     b16:	08 95       	ret

00000b18 <usartTransmit9bits>:
/* -----------------------------------------------------------------------------
 * Transmits data in 9 bits mode using the USART controller
 * -------------------------------------------------------------------------- */

void usartTransmit9bits(uint16 data)
{
     b18:	9c 01       	movw	r18, r24
	uint8 aux;

	while(!usartIsBufferEmpty())
     b1a:	80 91 c0 00 	lds	r24, 0x00C0
     b1e:	85 ff       	sbrs	r24, 5
     b20:	fc cf       	rjmp	.-8      	; 0xb1a <usartTransmit9bits+0x2>
		;	// Waits until last transmission ends
	aux = ((data & 0x100) >> 8);
	if(aux)
     b22:	c9 01       	movw	r24, r18
     b24:	80 70       	andi	r24, 0x00	; 0
     b26:	91 70       	andi	r25, 0x01	; 1
     b28:	99 23       	and	r25, r25
     b2a:	21 f0       	breq	.+8      	; 0xb34 <usartTransmit9bits+0x1c>
		setBit(UCSR0B, TXB80);
     b2c:	80 91 c1 00 	lds	r24, 0x00C1
     b30:	81 60       	ori	r24, 0x01	; 1
     b32:	03 c0       	rjmp	.+6      	; 0xb3a <usartTransmit9bits+0x22>
	else
		clrBit(UCSR0B, TXB80);
     b34:	80 91 c1 00 	lds	r24, 0x00C1
     b38:	8e 7f       	andi	r24, 0xFE	; 254
     b3a:	80 93 c1 00 	sts	0x00C1, r24
	UDR0 = (uint8)data;
     b3e:	20 93 c6 00 	sts	0x00C6, r18
	return;
}
     b42:	08 95       	ret

00000b44 <usartTransmitStd>:
 * Transmits data in 5, 6, 7 or 8 bits modes using the USART controller and
 * standard output heandler
 * -------------------------------------------------------------------------- */

int16 usartTransmitStd(int8 data, FILE * stream)
{
     b44:	98 2f       	mov	r25, r24
	while(!usartIsBufferEmpty())
     b46:	80 91 c0 00 	lds	r24, 0x00C0
     b4a:	85 ff       	sbrs	r24, 5
     b4c:	fc cf       	rjmp	.-8      	; 0xb46 <usartTransmitStd+0x2>
		;	// Waits until last transmission ends
	UDR0 = data;
     b4e:	90 93 c6 00 	sts	0x00C6, r25
	return FALSE;
}
     b52:	80 e0       	ldi	r24, 0x00	; 0
     b54:	90 e0       	ldi	r25, 0x00	; 0
     b56:	08 95       	ret

00000b58 <usartReceive>:

uint8 usartReceive(void)
{
	uint8 status;

	while(!usartIsReceptionComplete())
     b58:	80 91 c0 00 	lds	r24, 0x00C0
     b5c:	87 ff       	sbrs	r24, 7
     b5e:	fc cf       	rjmp	.-8      	; 0xb58 <usartReceive>
		;	// Waits until last reception ends
	status = UCSR0A;
     b60:	90 91 c0 00 	lds	r25, 0x00C0
	usartConfiguration.frameError = isBitSet(status, FE0);
     b64:	29 2f       	mov	r18, r25
     b66:	26 95       	lsr	r18
     b68:	28 70       	andi	r18, 0x08	; 8
     b6a:	80 91 96 02 	lds	r24, 0x0296
     b6e:	87 7e       	andi	r24, 0xE7	; 231
	usartConfiguration.bufferOverflowError = isBitSet(status, DOR0);
     b70:	99 0f       	add	r25, r25
     b72:	39 2f       	mov	r19, r25
     b74:	30 71       	andi	r19, 0x10	; 16
     b76:	82 2b       	or	r24, r18
     b78:	83 2b       	or	r24, r19
	usartConfiguration.parityError = isBitSet(status, UPE0);
     b7a:	99 0f       	add	r25, r25
     b7c:	99 0f       	add	r25, r25
     b7e:	90 72       	andi	r25, 0x20	; 32
     b80:	8f 7d       	andi	r24, 0xDF	; 223
     b82:	89 2b       	or	r24, r25
     b84:	80 93 96 02 	sts	0x0296, r24
	return UDR0;
     b88:	80 91 c6 00 	lds	r24, 0x00C6
}
     b8c:	08 95       	ret

00000b8e <usartReceive9bits>:
	uint8 status;
	uint8 byteh;
	uint8 bytel;
	uint16 byte;

	while(!usartIsReceptionComplete())
     b8e:	80 91 c0 00 	lds	r24, 0x00C0
     b92:	87 ff       	sbrs	r24, 7
     b94:	fc cf       	rjmp	.-8      	; 0xb8e <usartReceive9bits>
		;	// Waits until last reception ends
	status = UCSR0A;
     b96:	90 91 c0 00 	lds	r25, 0x00C0
	byteh = UCSR0B;
     b9a:	20 91 c1 00 	lds	r18, 0x00C1
	bytel = UDR0;
     b9e:	60 91 c6 00 	lds	r22, 0x00C6

	usartConfiguration.frameError = isBitSet(status, FE0);
     ba2:	49 2f       	mov	r20, r25
     ba4:	46 95       	lsr	r20
     ba6:	48 70       	andi	r20, 0x08	; 8
     ba8:	80 91 96 02 	lds	r24, 0x0296
     bac:	87 7e       	andi	r24, 0xE7	; 231
	usartConfiguration.bufferOverflowError = isBitSet(status, DOR0);
     bae:	99 0f       	add	r25, r25
     bb0:	59 2f       	mov	r21, r25
     bb2:	50 71       	andi	r21, 0x10	; 16
     bb4:	84 2b       	or	r24, r20
     bb6:	85 2b       	or	r24, r21
	usartConfiguration.parityError = isBitSet(status, UPE0);
     bb8:	99 0f       	add	r25, r25
     bba:	99 0f       	add	r25, r25
     bbc:	90 72       	andi	r25, 0x20	; 32
     bbe:	8f 7d       	andi	r24, 0xDF	; 223
     bc0:	89 2b       	or	r24, r25
     bc2:	80 93 96 02 	sts	0x0296, r24

	byte = (uint16)(byteh & 0x02) << 7;
     bc6:	30 e0       	ldi	r19, 0x00	; 0
     bc8:	22 70       	andi	r18, 0x02	; 2
     bca:	30 70       	andi	r19, 0x00	; 0
     bcc:	36 95       	lsr	r19
     bce:	32 2f       	mov	r19, r18
     bd0:	22 27       	eor	r18, r18
     bd2:	37 95       	ror	r19
     bd4:	27 95       	ror	r18
     bd6:	70 e0       	ldi	r23, 0x00	; 0
     bd8:	26 2b       	or	r18, r22
     bda:	37 2b       	or	r19, r23
	byte |= bytel;
	return  byte;
}
     bdc:	c9 01       	movw	r24, r18
     bde:	08 95       	ret

00000be0 <usartReceiveStd>:
 * standard input heandler
 * -------------------------------------------------------------------------- */

int16 usartReceiveStd(FILE * stream)
{
	while(!usartIsReceptionComplete())
     be0:	80 91 c0 00 	lds	r24, 0x00C0
     be4:	87 ff       	sbrs	r24, 7
     be6:	fc cf       	rjmp	.-8      	; 0xbe0 <usartReceiveStd>
		;	// Waits until last reception ends
	return (int16)UDR0;
     be8:	80 91 c6 00 	lds	r24, 0x00C6
}
     bec:	90 e0       	ldi	r25, 0x00	; 0
     bee:	08 95       	ret

00000bf0 <usartClearReceptionBuffer>:
/* -----------------------------------------------------------------------------
 * Clears the receptor data buffer
 * -------------------------------------------------------------------------- */

void usartClearReceptionBuffer(void)
{
     bf0:	02 c0       	rjmp	.+4      	; 0xbf6 <usartClearReceptionBuffer+0x6>
	uint8 aux;
	while(usartIsReceptionComplete())
		aux = UDR0;
     bf2:	80 91 c6 00 	lds	r24, 0x00C6
 * -------------------------------------------------------------------------- */

void usartClearReceptionBuffer(void)
{
	uint8 aux;
	while(usartIsReceptionComplete())
     bf6:	80 91 c0 00 	lds	r24, 0x00C0
     bfa:	87 fd       	sbrc	r24, 7
     bfc:	fa cf       	rjmp	.-12     	; 0xbf2 <usartClearReceptionBuffer+0x2>
		aux = UDR0;
	return;
}
     bfe:	08 95       	ret

00000c00 <usartAddDataToReceiverBuffer>:
/* -----------------------------------------------------------------------------
 * Adds data to the reception buffer. The function has NO CONTROL of lost data.
 * -------------------------------------------------------------------------- */

void usartAddDataToReceiverBuffer(uint8 data)
{
     c00:	1f 93       	push	r17
     c02:	cf 93       	push	r28
     c04:	df 93       	push	r29
     c06:	18 2f       	mov	r17, r24
	if(((usartReceiverBufferNextWrite + 1) % USART_RECEIVER_BUFFER_SIZE) != usartReceiverBufferNextRead){
     c08:	80 91 9d 02 	lds	r24, 0x029D
     c0c:	c8 2f       	mov	r28, r24
     c0e:	d0 e0       	ldi	r29, 0x00	; 0
     c10:	21 96       	adiw	r28, 0x01	; 1
     c12:	be 01       	movw	r22, r28
     c14:	88 27       	eor	r24, r24
     c16:	77 fd       	sbrc	r23, 7
     c18:	80 95       	com	r24
     c1a:	98 2f       	mov	r25, r24
     c1c:	21 97       	sbiw	r28, 0x01	; 1
     c1e:	22 e3       	ldi	r18, 0x32	; 50
     c20:	30 e0       	ldi	r19, 0x00	; 0
     c22:	40 e0       	ldi	r20, 0x00	; 0
     c24:	50 e0       	ldi	r21, 0x00	; 0
     c26:	0e 94 d4 07 	call	0xfa8	; 0xfa8 <__udivmodsi4>
     c2a:	9b 01       	movw	r18, r22
     c2c:	ac 01       	movw	r20, r24
     c2e:	80 91 9f 02 	lds	r24, 0x029F
     c32:	90 e0       	ldi	r25, 0x00	; 0
     c34:	a0 e0       	ldi	r26, 0x00	; 0
     c36:	b0 e0       	ldi	r27, 0x00	; 0
     c38:	28 17       	cp	r18, r24
     c3a:	39 07       	cpc	r19, r25
     c3c:	4a 07       	cpc	r20, r26
     c3e:	5b 07       	cpc	r21, r27
     c40:	51 f0       	breq	.+20     	; 0xc56 <usartAddDataToReceiverBuffer+0x56>
		usartReceiverBuffer[usartReceiverBufferNextWrite] = data;
     c42:	cc 59       	subi	r28, 0x9C	; 156
     c44:	dd 4f       	sbci	r29, 0xFD	; 253
     c46:	18 83       	st	Y, r17
		usartReceiverBufferNextWrite = (usartReceiverBufferNextWrite + 1) % USART_RECEIVER_BUFFER_SIZE;
     c48:	20 93 9d 02 	sts	0x029D, r18
		usartReceiverBufferLength++;
     c4c:	80 91 9e 02 	lds	r24, 0x029E
     c50:	8f 5f       	subi	r24, 0xFF	; 255
     c52:	80 93 9e 02 	sts	0x029E, r24
	}
	return;
}
     c56:	df 91       	pop	r29
     c58:	cf 91       	pop	r28
     c5a:	1f 91       	pop	r17
     c5c:	08 95       	ret

00000c5e <usartGetDataFromReceiverBuffer>:
 * usartIsReceiverBufferEmpty() function must be called to check if there is new
 * data in the buffer.
 * -------------------------------------------------------------------------- */

uint8 usartGetDataFromReceiverBuffer(void)
{
     c5e:	0f 93       	push	r16
     c60:	1f 93       	push	r17
	uint8 data = usartReceiverBuffer[usartReceiverBufferNextRead];
     c62:	80 91 9f 02 	lds	r24, 0x029F
     c66:	28 2f       	mov	r18, r24
     c68:	30 e0       	ldi	r19, 0x00	; 0
     c6a:	f9 01       	movw	r30, r18
     c6c:	ec 59       	subi	r30, 0x9C	; 156
     c6e:	fd 4f       	sbci	r31, 0xFD	; 253
     c70:	00 81       	ld	r16, Z
	if(usartReceiverBufferLength > 0){
     c72:	10 91 9e 02 	lds	r17, 0x029E
     c76:	11 23       	and	r17, r17
     c78:	91 f0       	breq	.+36     	; 0xc9e <usartGetDataFromReceiverBuffer+0x40>
		usartReceiverBufferNextRead = (usartReceiverBufferNextRead + 1) % USART_RECEIVER_BUFFER_SIZE;
     c7a:	2f 5f       	subi	r18, 0xFF	; 255
     c7c:	3f 4f       	sbci	r19, 0xFF	; 255
     c7e:	b9 01       	movw	r22, r18
     c80:	88 27       	eor	r24, r24
     c82:	77 fd       	sbrc	r23, 7
     c84:	80 95       	com	r24
     c86:	98 2f       	mov	r25, r24
     c88:	22 e3       	ldi	r18, 0x32	; 50
     c8a:	30 e0       	ldi	r19, 0x00	; 0
     c8c:	40 e0       	ldi	r20, 0x00	; 0
     c8e:	50 e0       	ldi	r21, 0x00	; 0
     c90:	0e 94 d4 07 	call	0xfa8	; 0xfa8 <__udivmodsi4>
     c94:	60 93 9f 02 	sts	0x029F, r22
		usartReceiverBufferLength--;
     c98:	11 50       	subi	r17, 0x01	; 1
     c9a:	10 93 9e 02 	sts	0x029E, r17
	}
	return data;
}
     c9e:	80 2f       	mov	r24, r16
     ca0:	1f 91       	pop	r17
     ca2:	0f 91       	pop	r16
     ca4:	08 95       	ret

00000ca6 <usartIsReceiverBufferEmpty>:
 * Verifies if there is new data in the receiver buffer. Must be called before
 * reading the buffer.
 * -------------------------------------------------------------------------- */

uint8 usartIsReceiverBufferEmpty(void)
{
     ca6:	90 e0       	ldi	r25, 0x00	; 0
     ca8:	80 91 9e 02 	lds	r24, 0x029E
     cac:	88 23       	and	r24, r24
     cae:	09 f4       	brne	.+2      	; 0xcb2 <usartIsReceiverBufferEmpty+0xc>
     cb0:	91 e0       	ldi	r25, 0x01	; 1
	if(usartReceiverBufferLength == 0)
		return TRUE;
	return FALSE;
}
     cb2:	89 2f       	mov	r24, r25
     cb4:	08 95       	ret

00000cb6 <usartGetCurrentBaudRate>:

 uint32 usartGetCurrentBaudRate(void)
 {
	uint32 aux32 = 0;

	switch(usartConfiguration.mode){
     cb6:	80 91 96 02 	lds	r24, 0x0296
     cba:	83 70       	andi	r24, 0x03	; 3
     cbc:	90 e0       	ldi	r25, 0x00	; 0
     cbe:	81 30       	cpi	r24, 0x01	; 1
     cc0:	91 05       	cpc	r25, r1
     cc2:	b9 f0       	breq	.+46     	; 0xcf2 <usartGetCurrentBaudRate+0x3c>
     cc4:	82 30       	cpi	r24, 0x02	; 2
     cc6:	91 05       	cpc	r25, r1
     cc8:	09 f1       	breq	.+66     	; 0xd0c <usartGetCurrentBaudRate+0x56>
     cca:	89 2b       	or	r24, r25
     ccc:	29 f0       	breq	.+10     	; 0xcd8 <usartGetCurrentBaudRate+0x22>
     cce:	20 e0       	ldi	r18, 0x00	; 0
     cd0:	30 e0       	ldi	r19, 0x00	; 0
     cd2:	40 e0       	ldi	r20, 0x00	; 0
     cd4:	50 e0       	ldi	r21, 0x00	; 0
     cd6:	2c c0       	rjmp	.+88     	; 0xd30 <usartGetCurrentBaudRate+0x7a>
	case 0:
		aux32 = F_CPU / 16 / (UBRR0 + 1);
     cd8:	20 91 c4 00 	lds	r18, 0x00C4
     cdc:	30 91 c5 00 	lds	r19, 0x00C5
     ce0:	2f 5f       	subi	r18, 0xFF	; 255
     ce2:	3f 4f       	sbci	r19, 0xFF	; 255
     ce4:	40 e0       	ldi	r20, 0x00	; 0
     ce6:	50 e0       	ldi	r21, 0x00	; 0
     ce8:	60 e4       	ldi	r22, 0x40	; 64
     cea:	72 e4       	ldi	r23, 0x42	; 66
     cec:	8f e0       	ldi	r24, 0x0F	; 15
     cee:	90 e0       	ldi	r25, 0x00	; 0
     cf0:	19 c0       	rjmp	.+50     	; 0xd24 <usartGetCurrentBaudRate+0x6e>
		break;
	case 1:
		aux32 = F_CPU / 8 / (UBRR0 + 1);
     cf2:	20 91 c4 00 	lds	r18, 0x00C4
     cf6:	30 91 c5 00 	lds	r19, 0x00C5
     cfa:	2f 5f       	subi	r18, 0xFF	; 255
     cfc:	3f 4f       	sbci	r19, 0xFF	; 255
     cfe:	40 e0       	ldi	r20, 0x00	; 0
     d00:	50 e0       	ldi	r21, 0x00	; 0
     d02:	60 e8       	ldi	r22, 0x80	; 128
     d04:	74 e8       	ldi	r23, 0x84	; 132
     d06:	8e e1       	ldi	r24, 0x1E	; 30
     d08:	90 e0       	ldi	r25, 0x00	; 0
     d0a:	0c c0       	rjmp	.+24     	; 0xd24 <usartGetCurrentBaudRate+0x6e>
		break;
	case 2:
		aux32 = F_CPU / 2 / (UBRR0 + 1);
     d0c:	20 91 c4 00 	lds	r18, 0x00C4
     d10:	30 91 c5 00 	lds	r19, 0x00C5
     d14:	2f 5f       	subi	r18, 0xFF	; 255
     d16:	3f 4f       	sbci	r19, 0xFF	; 255
     d18:	40 e0       	ldi	r20, 0x00	; 0
     d1a:	50 e0       	ldi	r21, 0x00	; 0
     d1c:	60 e0       	ldi	r22, 0x00	; 0
     d1e:	72 e1       	ldi	r23, 0x12	; 18
     d20:	8a e7       	ldi	r24, 0x7A	; 122
     d22:	90 e0       	ldi	r25, 0x00	; 0
     d24:	0e 94 d4 07 	call	0xfa8	; 0xfa8 <__udivmodsi4>
     d28:	c9 01       	movw	r24, r18
     d2a:	da 01       	movw	r26, r20
     d2c:	9c 01       	movw	r18, r24
     d2e:	ad 01       	movw	r20, r26
		break;
	}
	return aux32;
 }
     d30:	b9 01       	movw	r22, r18
     d32:	ca 01       	movw	r24, r20
     d34:	08 95       	ret

00000d36 <lcdCommand>:
/* -----------------------------------------------------------------------------
 * Sends a command to the display module.
 * -------------------------------------------------------------------------- */

void lcdCommand(int8 command)
{
     d36:	38 2f       	mov	r19, r24
	uint8 i = 2;

	LCD_DATA_PORT = (LCD_DATA_PORT & (~(0x0F << LCD_DATA_D4))) | ((command >> 4) << LCD_DATA_D4);
     d38:	85 b1       	in	r24, 0x05	; 5
     d3a:	93 2f       	mov	r25, r19
     d3c:	92 95       	swap	r25
     d3e:	9f 70       	andi	r25, 0x0F	; 15
     d40:	80 7f       	andi	r24, 0xF0	; 240
     d42:	98 2b       	or	r25, r24
     d44:	95 b9       	out	0x05, r25	; 5
     d46:	22 e0       	ldi	r18, 0x02	; 2
    can be achieved.
*/
void
_delay_loop_1(uint8_t __count)
{
	__asm__ volatile (
     d48:	55 e0       	ldi	r21, 0x05	; 5
    milliseconds can be achieved.
 */
void
_delay_loop_2(uint16_t __count)
{
	__asm__ volatile (
     d4a:	e0 ef       	ldi	r30, 0xF0	; 240
     d4c:	60 e4       	ldi	r22, 0x40	; 64
     d4e:	7f e1       	ldi	r23, 0x1F	; 31
		_delay_us(1);
		clrBit(LCD_CONTROL_PORT, LCD_CONTROL_E);
		_delay_us(45);
		if(command < 4)
			_delay_ms(2);
		LCD_DATA_PORT = (LCD_DATA_PORT & (~(0x0F << LCD_DATA_D4))) | ((command & 0x0F) << LCD_DATA_D4);
     d50:	43 2f       	mov	r20, r19
     d52:	4f 70       	andi	r20, 0x0F	; 15
{
	uint8 i = 2;

	LCD_DATA_PORT = (LCD_DATA_PORT & (~(0x0F << LCD_DATA_D4))) | ((command >> 4) << LCD_DATA_D4);
	do{
		clrBit(LCD_CONTROL_PORT, LCD_CONTROL_RS);
     d54:	2d 98       	cbi	0x05, 5	; 5
    can be achieved.
*/
void
_delay_loop_1(uint8_t __count)
{
	__asm__ volatile (
     d56:	85 2f       	mov	r24, r21
     d58:	8a 95       	dec	r24
     d5a:	f1 f7       	brne	.-4      	; 0xd58 <lcdCommand+0x22>
		_delay_us(1);
		setBit(LCD_CONTROL_PORT, LCD_CONTROL_E);
     d5c:	2c 9a       	sbi	0x05, 4	; 5
     d5e:	85 2f       	mov	r24, r21
     d60:	8a 95       	dec	r24
     d62:	f1 f7       	brne	.-4      	; 0xd60 <lcdCommand+0x2a>
		_delay_us(1);
		clrBit(LCD_CONTROL_PORT, LCD_CONTROL_E);
     d64:	2c 98       	cbi	0x05, 4	; 5
     d66:	8e 2f       	mov	r24, r30
     d68:	8a 95       	dec	r24
     d6a:	f1 f7       	brne	.-4      	; 0xd68 <lcdCommand+0x32>
		_delay_us(45);
		if(command < 4)
     d6c:	34 30       	cpi	r19, 0x04	; 4
     d6e:	18 f4       	brcc	.+6      	; 0xd76 <lcdCommand+0x40>
    milliseconds can be achieved.
 */
void
_delay_loop_2(uint16_t __count)
{
	__asm__ volatile (
     d70:	cb 01       	movw	r24, r22
     d72:	01 97       	sbiw	r24, 0x01	; 1
     d74:	f1 f7       	brne	.-4      	; 0xd72 <lcdCommand+0x3c>
			_delay_ms(2);
		LCD_DATA_PORT = (LCD_DATA_PORT & (~(0x0F << LCD_DATA_D4))) | ((command & 0x0F) << LCD_DATA_D4);
     d76:	85 b1       	in	r24, 0x05	; 5
     d78:	80 7f       	andi	r24, 0xF0	; 240
     d7a:	84 2b       	or	r24, r20
     d7c:	85 b9       	out	0x05, r24	; 5
		i--;
     d7e:	21 50       	subi	r18, 0x01	; 1
	}while(i > 0);
     d80:	49 f7       	brne	.-46     	; 0xd54 <lcdCommand+0x1e>
	return;
}
     d82:	08 95       	ret

00000d84 <lcdInit>:
 * Performs LCD module initialization.
 * -------------------------------------------------------------------------- */

void lcdInit(void)
{
	lcdIOConfigure();
     d84:	85 b1       	in	r24, 0x05	; 5
     d86:	80 7f       	andi	r24, 0xF0	; 240
     d88:	85 b9       	out	0x05, r24	; 5
     d8a:	84 b1       	in	r24, 0x04	; 4
     d8c:	8f 60       	ori	r24, 0x0F	; 15
     d8e:	84 b9       	out	0x04, r24	; 4
     d90:	85 b1       	in	r24, 0x05	; 5
     d92:	8f 7c       	andi	r24, 0xCF	; 207
     d94:	85 b9       	out	0x05, r24	; 5
     d96:	84 b1       	in	r24, 0x04	; 4
     d98:	80 63       	ori	r24, 0x30	; 48
     d9a:	84 b9       	out	0x04, r24	; 4
	LCD_DATA_PORT = (LCD_DATA_PORT & (~(0x0F << LCD_DATA_D4))) | (0x03 << LCD_DATA_D4);
     d9c:	85 b1       	in	r24, 0x05	; 5
     d9e:	80 7f       	andi	r24, 0xF0	; 240
     da0:	83 60       	ori	r24, 0x03	; 3
     da2:	85 b9       	out	0x05, r24	; 5
    can be achieved.
*/
void
_delay_loop_1(uint8_t __count)
{
	__asm__ volatile (
     da4:	95 e0       	ldi	r25, 0x05	; 5
     da6:	89 2f       	mov	r24, r25
     da8:	8a 95       	dec	r24
     daa:	f1 f7       	brne	.-4      	; 0xda8 <lcdInit+0x24>
	_delay_us(1);
	setBit(LCD_CONTROL_PORT, LCD_CONTROL_E);
     dac:	2c 9a       	sbi	0x05, 4	; 5
     dae:	89 2f       	mov	r24, r25
     db0:	8a 95       	dec	r24
     db2:	f1 f7       	brne	.-4      	; 0xdb0 <lcdInit+0x2c>
	_delay_us(1);
	clrBit(LCD_CONTROL_PORT, LCD_CONTROL_E);
     db4:	2c 98       	cbi	0x05, 4	; 5
     db6:	20 ef       	ldi	r18, 0xF0	; 240
     db8:	82 2f       	mov	r24, r18
     dba:	8a 95       	dec	r24
     dbc:	f1 f7       	brne	.-4      	; 0xdba <lcdInit+0x36>
    milliseconds can be achieved.
 */
void
_delay_loop_2(uint16_t __count)
{
	__asm__ volatile (
     dbe:	e0 e2       	ldi	r30, 0x20	; 32
     dc0:	fe e4       	ldi	r31, 0x4E	; 78
     dc2:	31 97       	sbiw	r30, 0x01	; 1
     dc4:	f1 f7       	brne	.-4      	; 0xdc2 <lcdInit+0x3e>
    can be achieved.
*/
void
_delay_loop_1(uint8_t __count)
{
	__asm__ volatile (
     dc6:	89 2f       	mov	r24, r25
     dc8:	8a 95       	dec	r24
     dca:	f1 f7       	brne	.-4      	; 0xdc8 <lcdInit+0x44>
	_delay_us(45);
	_delay_ms(5);
	_delay_us(1);
	setBit(LCD_CONTROL_PORT, LCD_CONTROL_E);
     dcc:	2c 9a       	sbi	0x05, 4	; 5
     dce:	89 2f       	mov	r24, r25
     dd0:	8a 95       	dec	r24
     dd2:	f1 f7       	brne	.-4      	; 0xdd0 <lcdInit+0x4c>
	_delay_us(1);
	clrBit(LCD_CONTROL_PORT, LCD_CONTROL_E);
     dd4:	2c 98       	cbi	0x05, 4	; 5
     dd6:	82 2f       	mov	r24, r18
     dd8:	8a 95       	dec	r24
     dda:	f1 f7       	brne	.-4      	; 0xdd8 <lcdInit+0x54>
    milliseconds can be achieved.
 */
void
_delay_loop_2(uint16_t __count)
{
	__asm__ volatile (
     ddc:	e0 e2       	ldi	r30, 0x20	; 32
     dde:	f3 e0       	ldi	r31, 0x03	; 3
     de0:	31 97       	sbiw	r30, 0x01	; 1
     de2:	f1 f7       	brne	.-4      	; 0xde0 <lcdInit+0x5c>
    can be achieved.
*/
void
_delay_loop_1(uint8_t __count)
{
	__asm__ volatile (
     de4:	89 2f       	mov	r24, r25
     de6:	8a 95       	dec	r24
     de8:	f1 f7       	brne	.-4      	; 0xde6 <lcdInit+0x62>
	_delay_us(45);
	_delay_us(200);
	_delay_us(1);
	setBit(LCD_CONTROL_PORT, LCD_CONTROL_E);
     dea:	2c 9a       	sbi	0x05, 4	; 5
     dec:	89 2f       	mov	r24, r25
     dee:	8a 95       	dec	r24
     df0:	f1 f7       	brne	.-4      	; 0xdee <lcdInit+0x6a>
	_delay_us(1);
	clrBit(LCD_CONTROL_PORT, LCD_CONTROL_E);
     df2:	2c 98       	cbi	0x05, 4	; 5
     df4:	82 2f       	mov	r24, r18
     df6:	8a 95       	dec	r24
     df8:	f1 f7       	brne	.-4      	; 0xdf6 <lcdInit+0x72>
	_delay_us(45);
	LCD_DATA_PORT = (LCD_DATA_PORT & (~(0x0F << LCD_DATA_D4))) | (0x02 << LCD_DATA_D4);
     dfa:	85 b1       	in	r24, 0x05	; 5
     dfc:	80 7f       	andi	r24, 0xF0	; 240
     dfe:	82 60       	ori	r24, 0x02	; 2
     e00:	85 b9       	out	0x05, r24	; 5
     e02:	89 2f       	mov	r24, r25
     e04:	8a 95       	dec	r24
     e06:	f1 f7       	brne	.-4      	; 0xe04 <lcdInit+0x80>
	_delay_us(1);
	setBit(LCD_CONTROL_PORT, LCD_CONTROL_E);
     e08:	2c 9a       	sbi	0x05, 4	; 5
     e0a:	9a 95       	dec	r25
     e0c:	f1 f7       	brne	.-4      	; 0xe0a <lcdInit+0x86>
	_delay_us(1);
	clrBit(LCD_CONTROL_PORT, LCD_CONTROL_E);
     e0e:	2c 98       	cbi	0x05, 4	; 5
     e10:	2a 95       	dec	r18
     e12:	f1 f7       	brne	.-4      	; 0xe10 <lcdInit+0x8c>
	_delay_us(45);
	lcdCommand(0x28);
     e14:	88 e2       	ldi	r24, 0x28	; 40
     e16:	0e 94 9b 06 	call	0xd36	; 0xd36 <lcdCommand>
	lcdCommand(0x08);
     e1a:	88 e0       	ldi	r24, 0x08	; 8
     e1c:	0e 94 9b 06 	call	0xd36	; 0xd36 <lcdCommand>
   	lcdClearScreen();
     e20:	10 92 a0 02 	sts	0x02A0, r1
     e24:	81 e0       	ldi	r24, 0x01	; 1
     e26:	0e 94 9b 06 	call	0xd36	; 0xd36 <lcdCommand>
   	lcdDisplayOn();   
     e2a:	80 91 a1 02 	lds	r24, 0x02A1
     e2e:	81 60       	ori	r24, 0x01	; 1
     e30:	80 93 a1 02 	sts	0x02A1, r24
     e34:	98 2f       	mov	r25, r24
     e36:	96 95       	lsr	r25
     e38:	96 95       	lsr	r25
     e3a:	91 70       	andi	r25, 0x01	; 1
     e3c:	9c 60       	ori	r25, 0x0C	; 12
     e3e:	82 70       	andi	r24, 0x02	; 2
     e40:	89 2b       	or	r24, r25
     e42:	0e 94 9b 06 	call	0xd36	; 0xd36 <lcdCommand>
   	lcdCursorMoveFirstLine();
     e46:	84 e0       	ldi	r24, 0x04	; 4
     e48:	80 93 a0 02 	sts	0x02A0, r24
     e4c:	80 e8       	ldi	r24, 0x80	; 128
     e4e:	0e 94 9b 06 	call	0xd36	; 0xd36 <lcdCommand>
	return;
}
     e52:	08 95       	ret

00000e54 <lcdWrite>:
/* -----------------------------------------------------------------------------
 * Writes a character on the display.
 * -------------------------------------------------------------------------- */

void lcdWrite(int8 character)
{
     e54:	48 2f       	mov	r20, r24
	uint8 i = 2;

	if(character == '\n')
     e56:	8a 30       	cpi	r24, 0x0A	; 10
     e58:	b1 f4       	brne	.+44     	; 0xe86 <lcdWrite+0x32>
		lcdCursorMoveNextLine();
     e5a:	80 91 a0 02 	lds	r24, 0x02A0
     e5e:	98 2f       	mov	r25, r24
     e60:	9c 7f       	andi	r25, 0xFC	; 252
     e62:	83 70       	andi	r24, 0x03	; 3
     e64:	29 f4       	brne	.+10     	; 0xe70 <lcdWrite+0x1c>
     e66:	91 60       	ori	r25, 0x01	; 1
     e68:	90 93 a0 02 	sts	0x02A0, r25
     e6c:	80 ec       	ldi	r24, 0xC0	; 192
     e6e:	03 c0       	rjmp	.+6      	; 0xe76 <lcdWrite+0x22>
     e70:	90 93 a0 02 	sts	0x02A0, r25
     e74:	80 e8       	ldi	r24, 0x80	; 128
     e76:	0e 94 9b 06 	call	0xd36	; 0xd36 <lcdCommand>
     e7a:	80 91 a0 02 	lds	r24, 0x02A0
     e7e:	83 70       	andi	r24, 0x03	; 3
     e80:	80 93 a0 02 	sts	0x02A0, r24
     e84:	08 95       	ret
	else{
		LCD_DATA_PORT = (LCD_DATA_PORT & (~(0x0F << LCD_DATA_D4))) | ((character >> 4) << LCD_DATA_D4);
     e86:	85 b1       	in	r24, 0x05	; 5
     e88:	94 2f       	mov	r25, r20
     e8a:	92 95       	swap	r25
     e8c:	9f 70       	andi	r25, 0x0F	; 15
     e8e:	80 7f       	andi	r24, 0xF0	; 240
     e90:	98 2b       	or	r25, r24
     e92:	95 b9       	out	0x05, r25	; 5
		do{
			setBit(LCD_CONTROL_PORT, LCD_CONTROL_RS);
     e94:	2d 9a       	sbi	0x05, 5	; 5
     e96:	25 e0       	ldi	r18, 0x05	; 5
     e98:	82 2f       	mov	r24, r18
     e9a:	8a 95       	dec	r24
     e9c:	f1 f7       	brne	.-4      	; 0xe9a <lcdWrite+0x46>
			_delay_us(1);
			setBit(LCD_CONTROL_PORT, LCD_CONTROL_E);
     e9e:	2c 9a       	sbi	0x05, 4	; 5
     ea0:	82 2f       	mov	r24, r18
     ea2:	8a 95       	dec	r24
     ea4:	f1 f7       	brne	.-4      	; 0xea2 <lcdWrite+0x4e>
			_delay_us(1);
			clrBit(LCD_CONTROL_PORT, LCD_CONTROL_E);
     ea6:	2c 98       	cbi	0x05, 4	; 5
     ea8:	30 ef       	ldi	r19, 0xF0	; 240
     eaa:	83 2f       	mov	r24, r19
     eac:	8a 95       	dec	r24
     eae:	f1 f7       	brne	.-4      	; 0xeac <lcdWrite+0x58>
			_delay_us(45);
			LCD_DATA_PORT = (LCD_DATA_PORT & (~(0x0F << LCD_DATA_D4))) | ((character & 0x0F) << LCD_DATA_D4);
     eb0:	85 b1       	in	r24, 0x05	; 5
     eb2:	94 2f       	mov	r25, r20
     eb4:	9f 70       	andi	r25, 0x0F	; 15
     eb6:	80 7f       	andi	r24, 0xF0	; 240
     eb8:	89 2b       	or	r24, r25
     eba:	85 b9       	out	0x05, r24	; 5
	if(character == '\n')
		lcdCursorMoveNextLine();
	else{
		LCD_DATA_PORT = (LCD_DATA_PORT & (~(0x0F << LCD_DATA_D4))) | ((character >> 4) << LCD_DATA_D4);
		do{
			setBit(LCD_CONTROL_PORT, LCD_CONTROL_RS);
     ebc:	2d 9a       	sbi	0x05, 5	; 5
     ebe:	82 2f       	mov	r24, r18
     ec0:	8a 95       	dec	r24
     ec2:	f1 f7       	brne	.-4      	; 0xec0 <lcdWrite+0x6c>
			_delay_us(1);
			setBit(LCD_CONTROL_PORT, LCD_CONTROL_E);
     ec4:	2c 9a       	sbi	0x05, 4	; 5
     ec6:	2a 95       	dec	r18
     ec8:	f1 f7       	brne	.-4      	; 0xec6 <lcdWrite+0x72>
			_delay_us(1);
			clrBit(LCD_CONTROL_PORT, LCD_CONTROL_E);
     eca:	2c 98       	cbi	0x05, 4	; 5
     ecc:	3a 95       	dec	r19
     ece:	f1 f7       	brne	.-4      	; 0xecc <lcdWrite+0x78>
			_delay_us(45);
			LCD_DATA_PORT = (LCD_DATA_PORT & (~(0x0F << LCD_DATA_D4))) | ((character & 0x0F) << LCD_DATA_D4);
     ed0:	85 b1       	in	r24, 0x05	; 5
     ed2:	80 7f       	andi	r24, 0xF0	; 240
     ed4:	98 2b       	or	r25, r24
     ed6:	95 b9       	out	0x05, r25	; 5
     ed8:	08 95       	ret

00000eda <lcdWriteStd>:
/* -----------------------------------------------------------------------------
 * Writes a character on the display using the standard output handler.
 * -------------------------------------------------------------------------- */

int16 lcdWriteStd(int8 character, FILE * stream)
{
     eda:	1f 93       	push	r17
     edc:	48 2f       	mov	r20, r24
	uint8 i = 2;

	if(character == '\n'){
     ede:	8a 30       	cpi	r24, 0x0A	; 10
     ee0:	09 f5       	brne	.+66     	; 0xf24 <lcdWriteStd+0x4a>
		for(i = lcdConfiguration.column;i < (LCD_COLUMNS);i++)
     ee2:	10 91 a0 02 	lds	r17, 0x02A0
     ee6:	16 95       	lsr	r17
     ee8:	16 95       	lsr	r17
     eea:	04 c0       	rjmp	.+8      	; 0xef4 <lcdWriteStd+0x1a>
			lcdWrite(' ');
     eec:	80 e2       	ldi	r24, 0x20	; 32
     eee:	0e 94 2a 07 	call	0xe54	; 0xe54 <lcdWrite>
int16 lcdWriteStd(int8 character, FILE * stream)
{
	uint8 i = 2;

	if(character == '\n'){
		for(i = lcdConfiguration.column;i < (LCD_COLUMNS);i++)
     ef2:	1f 5f       	subi	r17, 0xFF	; 255
     ef4:	10 31       	cpi	r17, 0x10	; 16
     ef6:	d0 f3       	brcs	.-12     	; 0xeec <lcdWriteStd+0x12>
			lcdWrite(' ');
		lcdCursorMoveNextLine();
     ef8:	80 91 a0 02 	lds	r24, 0x02A0
     efc:	98 2f       	mov	r25, r24
     efe:	9c 7f       	andi	r25, 0xFC	; 252
     f00:	83 70       	andi	r24, 0x03	; 3
     f02:	29 f4       	brne	.+10     	; 0xf0e <lcdWriteStd+0x34>
     f04:	91 60       	ori	r25, 0x01	; 1
     f06:	90 93 a0 02 	sts	0x02A0, r25
     f0a:	80 ec       	ldi	r24, 0xC0	; 192
     f0c:	03 c0       	rjmp	.+6      	; 0xf14 <lcdWriteStd+0x3a>
     f0e:	90 93 a0 02 	sts	0x02A0, r25
     f12:	80 e8       	ldi	r24, 0x80	; 128
     f14:	0e 94 9b 06 	call	0xd36	; 0xd36 <lcdCommand>
     f18:	80 91 a0 02 	lds	r24, 0x02A0
     f1c:	83 70       	andi	r24, 0x03	; 3
     f1e:	80 93 a0 02 	sts	0x02A0, r24
     f22:	32 c0       	rjmp	.+100    	; 0xf88 <lcdWriteStd+0xae>
	}else{
		lcdConfiguration.column++;
     f24:	80 91 a0 02 	lds	r24, 0x02A0
     f28:	98 2f       	mov	r25, r24
     f2a:	9c 7f       	andi	r25, 0xFC	; 252
     f2c:	9c 5f       	subi	r25, 0xFC	; 252
     f2e:	83 70       	andi	r24, 0x03	; 3
     f30:	89 2b       	or	r24, r25
     f32:	80 93 a0 02 	sts	0x02A0, r24
		LCD_DATA_PORT = (LCD_DATA_PORT & (~(0x0F << LCD_DATA_D4))) | ((character >> 4) << LCD_DATA_D4);
     f36:	85 b1       	in	r24, 0x05	; 5
     f38:	94 2f       	mov	r25, r20
     f3a:	92 95       	swap	r25
     f3c:	9f 70       	andi	r25, 0x0F	; 15
     f3e:	80 7f       	andi	r24, 0xF0	; 240
     f40:	98 2b       	or	r25, r24
     f42:	95 b9       	out	0x05, r25	; 5
		do{
			setBit(LCD_CONTROL_PORT, LCD_CONTROL_RS);
     f44:	2d 9a       	sbi	0x05, 5	; 5
     f46:	25 e0       	ldi	r18, 0x05	; 5
     f48:	82 2f       	mov	r24, r18
     f4a:	8a 95       	dec	r24
     f4c:	f1 f7       	brne	.-4      	; 0xf4a <lcdWriteStd+0x70>
			_delay_us(1);
			setBit(LCD_CONTROL_PORT, LCD_CONTROL_E);
     f4e:	2c 9a       	sbi	0x05, 4	; 5
     f50:	82 2f       	mov	r24, r18
     f52:	8a 95       	dec	r24
     f54:	f1 f7       	brne	.-4      	; 0xf52 <lcdWriteStd+0x78>
			_delay_us(1);
			clrBit(LCD_CONTROL_PORT, LCD_CONTROL_E);
     f56:	2c 98       	cbi	0x05, 4	; 5
     f58:	30 ef       	ldi	r19, 0xF0	; 240
     f5a:	83 2f       	mov	r24, r19
     f5c:	8a 95       	dec	r24
     f5e:	f1 f7       	brne	.-4      	; 0xf5c <lcdWriteStd+0x82>
			_delay_us(45);
			LCD_DATA_PORT = (LCD_DATA_PORT & (~(0x0F << LCD_DATA_D4))) | ((character & 0x0F) << LCD_DATA_D4);
     f60:	85 b1       	in	r24, 0x05	; 5
     f62:	94 2f       	mov	r25, r20
     f64:	9f 70       	andi	r25, 0x0F	; 15
     f66:	80 7f       	andi	r24, 0xF0	; 240
     f68:	89 2b       	or	r24, r25
     f6a:	85 b9       	out	0x05, r24	; 5
		lcdCursorMoveNextLine();
	}else{
		lcdConfiguration.column++;
		LCD_DATA_PORT = (LCD_DATA_PORT & (~(0x0F << LCD_DATA_D4))) | ((character >> 4) << LCD_DATA_D4);
		do{
			setBit(LCD_CONTROL_PORT, LCD_CONTROL_RS);
     f6c:	2d 9a       	sbi	0x05, 5	; 5
     f6e:	82 2f       	mov	r24, r18
     f70:	8a 95       	dec	r24
     f72:	f1 f7       	brne	.-4      	; 0xf70 <lcdWriteStd+0x96>
			_delay_us(1);
			setBit(LCD_CONTROL_PORT, LCD_CONTROL_E);
     f74:	2c 9a       	sbi	0x05, 4	; 5
     f76:	2a 95       	dec	r18
     f78:	f1 f7       	brne	.-4      	; 0xf76 <lcdWriteStd+0x9c>
			_delay_us(1);
			clrBit(LCD_CONTROL_PORT, LCD_CONTROL_E);
     f7a:	2c 98       	cbi	0x05, 4	; 5
     f7c:	3a 95       	dec	r19
     f7e:	f1 f7       	brne	.-4      	; 0xf7c <lcdWriteStd+0xa2>
			_delay_us(45);
			LCD_DATA_PORT = (LCD_DATA_PORT & (~(0x0F << LCD_DATA_D4))) | ((character & 0x0F) << LCD_DATA_D4);
     f80:	85 b1       	in	r24, 0x05	; 5
     f82:	80 7f       	andi	r24, 0xF0	; 240
     f84:	98 2b       	or	r25, r24
     f86:	95 b9       	out	0x05, r25	; 5
			i--;
		}while(i > 0);
	}
	return 0;
}
     f88:	80 e0       	ldi	r24, 0x00	; 0
     f8a:	90 e0       	ldi	r25, 0x00	; 0
     f8c:	1f 91       	pop	r17
     f8e:	08 95       	ret

00000f90 <__udivmodqi4>:
     f90:	99 1b       	sub	r25, r25
     f92:	79 e0       	ldi	r23, 0x09	; 9
     f94:	04 c0       	rjmp	.+8      	; 0xf9e <__udivmodqi4_ep>

00000f96 <__udivmodqi4_loop>:
     f96:	99 1f       	adc	r25, r25
     f98:	96 17       	cp	r25, r22
     f9a:	08 f0       	brcs	.+2      	; 0xf9e <__udivmodqi4_ep>
     f9c:	96 1b       	sub	r25, r22

00000f9e <__udivmodqi4_ep>:
     f9e:	88 1f       	adc	r24, r24
     fa0:	7a 95       	dec	r23
     fa2:	c9 f7       	brne	.-14     	; 0xf96 <__udivmodqi4_loop>
     fa4:	80 95       	com	r24
     fa6:	08 95       	ret

00000fa8 <__udivmodsi4>:
     fa8:	a1 e2       	ldi	r26, 0x21	; 33
     faa:	1a 2e       	mov	r1, r26
     fac:	aa 1b       	sub	r26, r26
     fae:	bb 1b       	sub	r27, r27
     fb0:	fd 01       	movw	r30, r26
     fb2:	0d c0       	rjmp	.+26     	; 0xfce <__udivmodsi4_ep>

00000fb4 <__udivmodsi4_loop>:
     fb4:	aa 1f       	adc	r26, r26
     fb6:	bb 1f       	adc	r27, r27
     fb8:	ee 1f       	adc	r30, r30
     fba:	ff 1f       	adc	r31, r31
     fbc:	a2 17       	cp	r26, r18
     fbe:	b3 07       	cpc	r27, r19
     fc0:	e4 07       	cpc	r30, r20
     fc2:	f5 07       	cpc	r31, r21
     fc4:	20 f0       	brcs	.+8      	; 0xfce <__udivmodsi4_ep>
     fc6:	a2 1b       	sub	r26, r18
     fc8:	b3 0b       	sbc	r27, r19
     fca:	e4 0b       	sbc	r30, r20
     fcc:	f5 0b       	sbc	r31, r21

00000fce <__udivmodsi4_ep>:
     fce:	66 1f       	adc	r22, r22
     fd0:	77 1f       	adc	r23, r23
     fd2:	88 1f       	adc	r24, r24
     fd4:	99 1f       	adc	r25, r25
     fd6:	1a 94       	dec	r1
     fd8:	69 f7       	brne	.-38     	; 0xfb4 <__udivmodsi4_loop>
     fda:	60 95       	com	r22
     fdc:	70 95       	com	r23
     fde:	80 95       	com	r24
     fe0:	90 95       	com	r25
     fe2:	9b 01       	movw	r18, r22
     fe4:	ac 01       	movw	r20, r24
     fe6:	bd 01       	movw	r22, r26
     fe8:	cf 01       	movw	r24, r30
     fea:	08 95       	ret

00000fec <printf>:
     fec:	a0 e0       	ldi	r26, 0x00	; 0
     fee:	b0 e0       	ldi	r27, 0x00	; 0
     ff0:	ec ef       	ldi	r30, 0xFC	; 252
     ff2:	f7 e0       	ldi	r31, 0x07	; 7
     ff4:	0c 94 98 0a 	jmp	0x1530	; 0x1530 <__prologue_saves__+0x20>
     ff8:	fe 01       	movw	r30, r28
     ffa:	35 96       	adiw	r30, 0x05	; 5
     ffc:	61 91       	ld	r22, Z+
     ffe:	71 91       	ld	r23, Z+
    1000:	80 91 a4 02 	lds	r24, 0x02A4
    1004:	90 91 a5 02 	lds	r25, 0x02A5
    1008:	af 01       	movw	r20, r30
    100a:	0e 94 0b 08 	call	0x1016	; 0x1016 <vfprintf>
    100e:	20 96       	adiw	r28, 0x00	; 0
    1010:	e2 e0       	ldi	r30, 0x02	; 2
    1012:	0c 94 b4 0a 	jmp	0x1568	; 0x1568 <__epilogue_restores__+0x20>

00001016 <vfprintf>:
    1016:	ab e0       	ldi	r26, 0x0B	; 11
    1018:	b0 e0       	ldi	r27, 0x00	; 0
    101a:	e1 e1       	ldi	r30, 0x11	; 17
    101c:	f8 e0       	ldi	r31, 0x08	; 8
    101e:	0c 94 88 0a 	jmp	0x1510	; 0x1510 <__prologue_saves__>
    1022:	3c 01       	movw	r6, r24
    1024:	2b 01       	movw	r4, r22
    1026:	5a 01       	movw	r10, r20
    1028:	fc 01       	movw	r30, r24
    102a:	17 82       	std	Z+7, r1	; 0x07
    102c:	16 82       	std	Z+6, r1	; 0x06
    102e:	83 81       	ldd	r24, Z+3	; 0x03
    1030:	81 fd       	sbrc	r24, 1
    1032:	03 c0       	rjmp	.+6      	; 0x103a <vfprintf+0x24>
    1034:	6f ef       	ldi	r22, 0xFF	; 255
    1036:	7f ef       	ldi	r23, 0xFF	; 255
    1038:	c6 c1       	rjmp	.+908    	; 0x13c6 <vfprintf+0x3b0>
    103a:	9a e0       	ldi	r25, 0x0A	; 10
    103c:	89 2e       	mov	r8, r25
    103e:	1e 01       	movw	r2, r28
    1040:	08 94       	sec
    1042:	21 1c       	adc	r2, r1
    1044:	31 1c       	adc	r3, r1
    1046:	f3 01       	movw	r30, r6
    1048:	23 81       	ldd	r18, Z+3	; 0x03
    104a:	f2 01       	movw	r30, r4
    104c:	23 fd       	sbrc	r18, 3
    104e:	85 91       	lpm	r24, Z+
    1050:	23 ff       	sbrs	r18, 3
    1052:	81 91       	ld	r24, Z+
    1054:	2f 01       	movw	r4, r30
    1056:	88 23       	and	r24, r24
    1058:	09 f4       	brne	.+2      	; 0x105c <vfprintf+0x46>
    105a:	b2 c1       	rjmp	.+868    	; 0x13c0 <vfprintf+0x3aa>
    105c:	85 32       	cpi	r24, 0x25	; 37
    105e:	39 f4       	brne	.+14     	; 0x106e <vfprintf+0x58>
    1060:	23 fd       	sbrc	r18, 3
    1062:	85 91       	lpm	r24, Z+
    1064:	23 ff       	sbrs	r18, 3
    1066:	81 91       	ld	r24, Z+
    1068:	2f 01       	movw	r4, r30
    106a:	85 32       	cpi	r24, 0x25	; 37
    106c:	29 f4       	brne	.+10     	; 0x1078 <vfprintf+0x62>
    106e:	90 e0       	ldi	r25, 0x00	; 0
    1070:	b3 01       	movw	r22, r6
    1072:	0e 94 fe 09 	call	0x13fc	; 0x13fc <fputc>
    1076:	e7 cf       	rjmp	.-50     	; 0x1046 <vfprintf+0x30>
    1078:	98 2f       	mov	r25, r24
    107a:	ff 24       	eor	r15, r15
    107c:	ee 24       	eor	r14, r14
    107e:	99 24       	eor	r9, r9
    1080:	ff e1       	ldi	r31, 0x1F	; 31
    1082:	ff 15       	cp	r31, r15
    1084:	d0 f0       	brcs	.+52     	; 0x10ba <vfprintf+0xa4>
    1086:	9b 32       	cpi	r25, 0x2B	; 43
    1088:	69 f0       	breq	.+26     	; 0x10a4 <vfprintf+0x8e>
    108a:	9c 32       	cpi	r25, 0x2C	; 44
    108c:	28 f4       	brcc	.+10     	; 0x1098 <vfprintf+0x82>
    108e:	90 32       	cpi	r25, 0x20	; 32
    1090:	59 f0       	breq	.+22     	; 0x10a8 <vfprintf+0x92>
    1092:	93 32       	cpi	r25, 0x23	; 35
    1094:	91 f4       	brne	.+36     	; 0x10ba <vfprintf+0xa4>
    1096:	0e c0       	rjmp	.+28     	; 0x10b4 <vfprintf+0x9e>
    1098:	9d 32       	cpi	r25, 0x2D	; 45
    109a:	49 f0       	breq	.+18     	; 0x10ae <vfprintf+0x98>
    109c:	90 33       	cpi	r25, 0x30	; 48
    109e:	69 f4       	brne	.+26     	; 0x10ba <vfprintf+0xa4>
    10a0:	41 e0       	ldi	r20, 0x01	; 1
    10a2:	24 c0       	rjmp	.+72     	; 0x10ec <vfprintf+0xd6>
    10a4:	52 e0       	ldi	r21, 0x02	; 2
    10a6:	f5 2a       	or	r15, r21
    10a8:	84 e0       	ldi	r24, 0x04	; 4
    10aa:	f8 2a       	or	r15, r24
    10ac:	28 c0       	rjmp	.+80     	; 0x10fe <vfprintf+0xe8>
    10ae:	98 e0       	ldi	r25, 0x08	; 8
    10b0:	f9 2a       	or	r15, r25
    10b2:	25 c0       	rjmp	.+74     	; 0x10fe <vfprintf+0xe8>
    10b4:	e0 e1       	ldi	r30, 0x10	; 16
    10b6:	fe 2a       	or	r15, r30
    10b8:	22 c0       	rjmp	.+68     	; 0x10fe <vfprintf+0xe8>
    10ba:	f7 fc       	sbrc	r15, 7
    10bc:	29 c0       	rjmp	.+82     	; 0x1110 <vfprintf+0xfa>
    10be:	89 2f       	mov	r24, r25
    10c0:	80 53       	subi	r24, 0x30	; 48
    10c2:	8a 30       	cpi	r24, 0x0A	; 10
    10c4:	70 f4       	brcc	.+28     	; 0x10e2 <vfprintf+0xcc>
    10c6:	f6 fe       	sbrs	r15, 6
    10c8:	05 c0       	rjmp	.+10     	; 0x10d4 <vfprintf+0xbe>
    10ca:	98 9c       	mul	r9, r8
    10cc:	90 2c       	mov	r9, r0
    10ce:	11 24       	eor	r1, r1
    10d0:	98 0e       	add	r9, r24
    10d2:	15 c0       	rjmp	.+42     	; 0x10fe <vfprintf+0xe8>
    10d4:	e8 9c       	mul	r14, r8
    10d6:	e0 2c       	mov	r14, r0
    10d8:	11 24       	eor	r1, r1
    10da:	e8 0e       	add	r14, r24
    10dc:	f0 e2       	ldi	r31, 0x20	; 32
    10de:	ff 2a       	or	r15, r31
    10e0:	0e c0       	rjmp	.+28     	; 0x10fe <vfprintf+0xe8>
    10e2:	9e 32       	cpi	r25, 0x2E	; 46
    10e4:	29 f4       	brne	.+10     	; 0x10f0 <vfprintf+0xda>
    10e6:	f6 fc       	sbrc	r15, 6
    10e8:	6b c1       	rjmp	.+726    	; 0x13c0 <vfprintf+0x3aa>
    10ea:	40 e4       	ldi	r20, 0x40	; 64
    10ec:	f4 2a       	or	r15, r20
    10ee:	07 c0       	rjmp	.+14     	; 0x10fe <vfprintf+0xe8>
    10f0:	9c 36       	cpi	r25, 0x6C	; 108
    10f2:	19 f4       	brne	.+6      	; 0x10fa <vfprintf+0xe4>
    10f4:	50 e8       	ldi	r21, 0x80	; 128
    10f6:	f5 2a       	or	r15, r21
    10f8:	02 c0       	rjmp	.+4      	; 0x10fe <vfprintf+0xe8>
    10fa:	98 36       	cpi	r25, 0x68	; 104
    10fc:	49 f4       	brne	.+18     	; 0x1110 <vfprintf+0xfa>
    10fe:	f2 01       	movw	r30, r4
    1100:	23 fd       	sbrc	r18, 3
    1102:	95 91       	lpm	r25, Z+
    1104:	23 ff       	sbrs	r18, 3
    1106:	91 91       	ld	r25, Z+
    1108:	2f 01       	movw	r4, r30
    110a:	99 23       	and	r25, r25
    110c:	09 f0       	breq	.+2      	; 0x1110 <vfprintf+0xfa>
    110e:	b8 cf       	rjmp	.-144    	; 0x1080 <vfprintf+0x6a>
    1110:	89 2f       	mov	r24, r25
    1112:	85 54       	subi	r24, 0x45	; 69
    1114:	83 30       	cpi	r24, 0x03	; 3
    1116:	18 f0       	brcs	.+6      	; 0x111e <vfprintf+0x108>
    1118:	80 52       	subi	r24, 0x20	; 32
    111a:	83 30       	cpi	r24, 0x03	; 3
    111c:	38 f4       	brcc	.+14     	; 0x112c <vfprintf+0x116>
    111e:	44 e0       	ldi	r20, 0x04	; 4
    1120:	50 e0       	ldi	r21, 0x00	; 0
    1122:	a4 0e       	add	r10, r20
    1124:	b5 1e       	adc	r11, r21
    1126:	5f e3       	ldi	r21, 0x3F	; 63
    1128:	59 83       	std	Y+1, r21	; 0x01
    112a:	0f c0       	rjmp	.+30     	; 0x114a <vfprintf+0x134>
    112c:	93 36       	cpi	r25, 0x63	; 99
    112e:	31 f0       	breq	.+12     	; 0x113c <vfprintf+0x126>
    1130:	93 37       	cpi	r25, 0x73	; 115
    1132:	79 f0       	breq	.+30     	; 0x1152 <vfprintf+0x13c>
    1134:	93 35       	cpi	r25, 0x53	; 83
    1136:	09 f0       	breq	.+2      	; 0x113a <vfprintf+0x124>
    1138:	56 c0       	rjmp	.+172    	; 0x11e6 <vfprintf+0x1d0>
    113a:	20 c0       	rjmp	.+64     	; 0x117c <vfprintf+0x166>
    113c:	f5 01       	movw	r30, r10
    113e:	80 81       	ld	r24, Z
    1140:	89 83       	std	Y+1, r24	; 0x01
    1142:	42 e0       	ldi	r20, 0x02	; 2
    1144:	50 e0       	ldi	r21, 0x00	; 0
    1146:	a4 0e       	add	r10, r20
    1148:	b5 1e       	adc	r11, r21
    114a:	61 01       	movw	r12, r2
    114c:	01 e0       	ldi	r16, 0x01	; 1
    114e:	10 e0       	ldi	r17, 0x00	; 0
    1150:	12 c0       	rjmp	.+36     	; 0x1176 <vfprintf+0x160>
    1152:	f5 01       	movw	r30, r10
    1154:	c0 80       	ld	r12, Z
    1156:	d1 80       	ldd	r13, Z+1	; 0x01
    1158:	f6 fc       	sbrc	r15, 6
    115a:	03 c0       	rjmp	.+6      	; 0x1162 <vfprintf+0x14c>
    115c:	6f ef       	ldi	r22, 0xFF	; 255
    115e:	7f ef       	ldi	r23, 0xFF	; 255
    1160:	02 c0       	rjmp	.+4      	; 0x1166 <vfprintf+0x150>
    1162:	69 2d       	mov	r22, r9
    1164:	70 e0       	ldi	r23, 0x00	; 0
    1166:	42 e0       	ldi	r20, 0x02	; 2
    1168:	50 e0       	ldi	r21, 0x00	; 0
    116a:	a4 0e       	add	r10, r20
    116c:	b5 1e       	adc	r11, r21
    116e:	c6 01       	movw	r24, r12
    1170:	0e 94 f3 09 	call	0x13e6	; 0x13e6 <strnlen>
    1174:	8c 01       	movw	r16, r24
    1176:	5f e7       	ldi	r21, 0x7F	; 127
    1178:	f5 22       	and	r15, r21
    117a:	14 c0       	rjmp	.+40     	; 0x11a4 <vfprintf+0x18e>
    117c:	f5 01       	movw	r30, r10
    117e:	c0 80       	ld	r12, Z
    1180:	d1 80       	ldd	r13, Z+1	; 0x01
    1182:	f6 fc       	sbrc	r15, 6
    1184:	03 c0       	rjmp	.+6      	; 0x118c <vfprintf+0x176>
    1186:	6f ef       	ldi	r22, 0xFF	; 255
    1188:	7f ef       	ldi	r23, 0xFF	; 255
    118a:	02 c0       	rjmp	.+4      	; 0x1190 <vfprintf+0x17a>
    118c:	69 2d       	mov	r22, r9
    118e:	70 e0       	ldi	r23, 0x00	; 0
    1190:	42 e0       	ldi	r20, 0x02	; 2
    1192:	50 e0       	ldi	r21, 0x00	; 0
    1194:	a4 0e       	add	r10, r20
    1196:	b5 1e       	adc	r11, r21
    1198:	c6 01       	movw	r24, r12
    119a:	0e 94 e8 09 	call	0x13d0	; 0x13d0 <strnlen_P>
    119e:	8c 01       	movw	r16, r24
    11a0:	50 e8       	ldi	r21, 0x80	; 128
    11a2:	f5 2a       	or	r15, r21
    11a4:	f3 fe       	sbrs	r15, 3
    11a6:	07 c0       	rjmp	.+14     	; 0x11b6 <vfprintf+0x1a0>
    11a8:	1a c0       	rjmp	.+52     	; 0x11de <vfprintf+0x1c8>
    11aa:	80 e2       	ldi	r24, 0x20	; 32
    11ac:	90 e0       	ldi	r25, 0x00	; 0
    11ae:	b3 01       	movw	r22, r6
    11b0:	0e 94 fe 09 	call	0x13fc	; 0x13fc <fputc>
    11b4:	ea 94       	dec	r14
    11b6:	8e 2d       	mov	r24, r14
    11b8:	90 e0       	ldi	r25, 0x00	; 0
    11ba:	08 17       	cp	r16, r24
    11bc:	19 07       	cpc	r17, r25
    11be:	a8 f3       	brcs	.-22     	; 0x11aa <vfprintf+0x194>
    11c0:	0e c0       	rjmp	.+28     	; 0x11de <vfprintf+0x1c8>
    11c2:	f6 01       	movw	r30, r12
    11c4:	f7 fc       	sbrc	r15, 7
    11c6:	85 91       	lpm	r24, Z+
    11c8:	f7 fe       	sbrs	r15, 7
    11ca:	81 91       	ld	r24, Z+
    11cc:	6f 01       	movw	r12, r30
    11ce:	90 e0       	ldi	r25, 0x00	; 0
    11d0:	b3 01       	movw	r22, r6
    11d2:	0e 94 fe 09 	call	0x13fc	; 0x13fc <fputc>
    11d6:	e1 10       	cpse	r14, r1
    11d8:	ea 94       	dec	r14
    11da:	01 50       	subi	r16, 0x01	; 1
    11dc:	10 40       	sbci	r17, 0x00	; 0
    11de:	01 15       	cp	r16, r1
    11e0:	11 05       	cpc	r17, r1
    11e2:	79 f7       	brne	.-34     	; 0x11c2 <vfprintf+0x1ac>
    11e4:	ea c0       	rjmp	.+468    	; 0x13ba <vfprintf+0x3a4>
    11e6:	94 36       	cpi	r25, 0x64	; 100
    11e8:	11 f0       	breq	.+4      	; 0x11ee <vfprintf+0x1d8>
    11ea:	99 36       	cpi	r25, 0x69	; 105
    11ec:	69 f5       	brne	.+90     	; 0x1248 <vfprintf+0x232>
    11ee:	f7 fe       	sbrs	r15, 7
    11f0:	08 c0       	rjmp	.+16     	; 0x1202 <vfprintf+0x1ec>
    11f2:	f5 01       	movw	r30, r10
    11f4:	20 81       	ld	r18, Z
    11f6:	31 81       	ldd	r19, Z+1	; 0x01
    11f8:	42 81       	ldd	r20, Z+2	; 0x02
    11fa:	53 81       	ldd	r21, Z+3	; 0x03
    11fc:	84 e0       	ldi	r24, 0x04	; 4
    11fe:	90 e0       	ldi	r25, 0x00	; 0
    1200:	0a c0       	rjmp	.+20     	; 0x1216 <vfprintf+0x200>
    1202:	f5 01       	movw	r30, r10
    1204:	80 81       	ld	r24, Z
    1206:	91 81       	ldd	r25, Z+1	; 0x01
    1208:	9c 01       	movw	r18, r24
    120a:	44 27       	eor	r20, r20
    120c:	37 fd       	sbrc	r19, 7
    120e:	40 95       	com	r20
    1210:	54 2f       	mov	r21, r20
    1212:	82 e0       	ldi	r24, 0x02	; 2
    1214:	90 e0       	ldi	r25, 0x00	; 0
    1216:	a8 0e       	add	r10, r24
    1218:	b9 1e       	adc	r11, r25
    121a:	9f e6       	ldi	r25, 0x6F	; 111
    121c:	f9 22       	and	r15, r25
    121e:	57 ff       	sbrs	r21, 7
    1220:	09 c0       	rjmp	.+18     	; 0x1234 <vfprintf+0x21e>
    1222:	50 95       	com	r21
    1224:	40 95       	com	r20
    1226:	30 95       	com	r19
    1228:	21 95       	neg	r18
    122a:	3f 4f       	sbci	r19, 0xFF	; 255
    122c:	4f 4f       	sbci	r20, 0xFF	; 255
    122e:	5f 4f       	sbci	r21, 0xFF	; 255
    1230:	e0 e8       	ldi	r30, 0x80	; 128
    1232:	fe 2a       	or	r15, r30
    1234:	ca 01       	movw	r24, r20
    1236:	b9 01       	movw	r22, r18
    1238:	a1 01       	movw	r20, r2
    123a:	2a e0       	ldi	r18, 0x0A	; 10
    123c:	30 e0       	ldi	r19, 0x00	; 0
    123e:	0e 94 2a 0a 	call	0x1454	; 0x1454 <__ultoa_invert>
    1242:	d8 2e       	mov	r13, r24
    1244:	d2 18       	sub	r13, r2
    1246:	40 c0       	rjmp	.+128    	; 0x12c8 <vfprintf+0x2b2>
    1248:	95 37       	cpi	r25, 0x75	; 117
    124a:	29 f4       	brne	.+10     	; 0x1256 <vfprintf+0x240>
    124c:	1f 2d       	mov	r17, r15
    124e:	1f 7e       	andi	r17, 0xEF	; 239
    1250:	2a e0       	ldi	r18, 0x0A	; 10
    1252:	30 e0       	ldi	r19, 0x00	; 0
    1254:	1d c0       	rjmp	.+58     	; 0x1290 <vfprintf+0x27a>
    1256:	1f 2d       	mov	r17, r15
    1258:	19 7f       	andi	r17, 0xF9	; 249
    125a:	9f 36       	cpi	r25, 0x6F	; 111
    125c:	61 f0       	breq	.+24     	; 0x1276 <vfprintf+0x260>
    125e:	90 37       	cpi	r25, 0x70	; 112
    1260:	20 f4       	brcc	.+8      	; 0x126a <vfprintf+0x254>
    1262:	98 35       	cpi	r25, 0x58	; 88
    1264:	09 f0       	breq	.+2      	; 0x1268 <vfprintf+0x252>
    1266:	ac c0       	rjmp	.+344    	; 0x13c0 <vfprintf+0x3aa>
    1268:	0f c0       	rjmp	.+30     	; 0x1288 <vfprintf+0x272>
    126a:	90 37       	cpi	r25, 0x70	; 112
    126c:	39 f0       	breq	.+14     	; 0x127c <vfprintf+0x266>
    126e:	98 37       	cpi	r25, 0x78	; 120
    1270:	09 f0       	breq	.+2      	; 0x1274 <vfprintf+0x25e>
    1272:	a6 c0       	rjmp	.+332    	; 0x13c0 <vfprintf+0x3aa>
    1274:	04 c0       	rjmp	.+8      	; 0x127e <vfprintf+0x268>
    1276:	28 e0       	ldi	r18, 0x08	; 8
    1278:	30 e0       	ldi	r19, 0x00	; 0
    127a:	0a c0       	rjmp	.+20     	; 0x1290 <vfprintf+0x27a>
    127c:	10 61       	ori	r17, 0x10	; 16
    127e:	14 fd       	sbrc	r17, 4
    1280:	14 60       	ori	r17, 0x04	; 4
    1282:	20 e1       	ldi	r18, 0x10	; 16
    1284:	30 e0       	ldi	r19, 0x00	; 0
    1286:	04 c0       	rjmp	.+8      	; 0x1290 <vfprintf+0x27a>
    1288:	14 fd       	sbrc	r17, 4
    128a:	16 60       	ori	r17, 0x06	; 6
    128c:	20 e1       	ldi	r18, 0x10	; 16
    128e:	32 e0       	ldi	r19, 0x02	; 2
    1290:	17 ff       	sbrs	r17, 7
    1292:	08 c0       	rjmp	.+16     	; 0x12a4 <vfprintf+0x28e>
    1294:	f5 01       	movw	r30, r10
    1296:	60 81       	ld	r22, Z
    1298:	71 81       	ldd	r23, Z+1	; 0x01
    129a:	82 81       	ldd	r24, Z+2	; 0x02
    129c:	93 81       	ldd	r25, Z+3	; 0x03
    129e:	44 e0       	ldi	r20, 0x04	; 4
    12a0:	50 e0       	ldi	r21, 0x00	; 0
    12a2:	08 c0       	rjmp	.+16     	; 0x12b4 <vfprintf+0x29e>
    12a4:	f5 01       	movw	r30, r10
    12a6:	80 81       	ld	r24, Z
    12a8:	91 81       	ldd	r25, Z+1	; 0x01
    12aa:	bc 01       	movw	r22, r24
    12ac:	80 e0       	ldi	r24, 0x00	; 0
    12ae:	90 e0       	ldi	r25, 0x00	; 0
    12b0:	42 e0       	ldi	r20, 0x02	; 2
    12b2:	50 e0       	ldi	r21, 0x00	; 0
    12b4:	a4 0e       	add	r10, r20
    12b6:	b5 1e       	adc	r11, r21
    12b8:	a1 01       	movw	r20, r2
    12ba:	0e 94 2a 0a 	call	0x1454	; 0x1454 <__ultoa_invert>
    12be:	d8 2e       	mov	r13, r24
    12c0:	d2 18       	sub	r13, r2
    12c2:	8f e7       	ldi	r24, 0x7F	; 127
    12c4:	f8 2e       	mov	r15, r24
    12c6:	f1 22       	and	r15, r17
    12c8:	f6 fe       	sbrs	r15, 6
    12ca:	0b c0       	rjmp	.+22     	; 0x12e2 <vfprintf+0x2cc>
    12cc:	5e ef       	ldi	r21, 0xFE	; 254
    12ce:	f5 22       	and	r15, r21
    12d0:	d9 14       	cp	r13, r9
    12d2:	38 f4       	brcc	.+14     	; 0x12e2 <vfprintf+0x2cc>
    12d4:	f4 fe       	sbrs	r15, 4
    12d6:	07 c0       	rjmp	.+14     	; 0x12e6 <vfprintf+0x2d0>
    12d8:	f2 fc       	sbrc	r15, 2
    12da:	05 c0       	rjmp	.+10     	; 0x12e6 <vfprintf+0x2d0>
    12dc:	8f ee       	ldi	r24, 0xEF	; 239
    12de:	f8 22       	and	r15, r24
    12e0:	02 c0       	rjmp	.+4      	; 0x12e6 <vfprintf+0x2d0>
    12e2:	1d 2d       	mov	r17, r13
    12e4:	01 c0       	rjmp	.+2      	; 0x12e8 <vfprintf+0x2d2>
    12e6:	19 2d       	mov	r17, r9
    12e8:	f4 fe       	sbrs	r15, 4
    12ea:	0d c0       	rjmp	.+26     	; 0x1306 <vfprintf+0x2f0>
    12ec:	fe 01       	movw	r30, r28
    12ee:	ed 0d       	add	r30, r13
    12f0:	f1 1d       	adc	r31, r1
    12f2:	80 81       	ld	r24, Z
    12f4:	80 33       	cpi	r24, 0x30	; 48
    12f6:	19 f4       	brne	.+6      	; 0x12fe <vfprintf+0x2e8>
    12f8:	99 ee       	ldi	r25, 0xE9	; 233
    12fa:	f9 22       	and	r15, r25
    12fc:	08 c0       	rjmp	.+16     	; 0x130e <vfprintf+0x2f8>
    12fe:	1f 5f       	subi	r17, 0xFF	; 255
    1300:	f2 fe       	sbrs	r15, 2
    1302:	05 c0       	rjmp	.+10     	; 0x130e <vfprintf+0x2f8>
    1304:	03 c0       	rjmp	.+6      	; 0x130c <vfprintf+0x2f6>
    1306:	8f 2d       	mov	r24, r15
    1308:	86 78       	andi	r24, 0x86	; 134
    130a:	09 f0       	breq	.+2      	; 0x130e <vfprintf+0x2f8>
    130c:	1f 5f       	subi	r17, 0xFF	; 255
    130e:	0f 2d       	mov	r16, r15
    1310:	f3 fc       	sbrc	r15, 3
    1312:	14 c0       	rjmp	.+40     	; 0x133c <vfprintf+0x326>
    1314:	f0 fe       	sbrs	r15, 0
    1316:	0f c0       	rjmp	.+30     	; 0x1336 <vfprintf+0x320>
    1318:	1e 15       	cp	r17, r14
    131a:	10 f0       	brcs	.+4      	; 0x1320 <vfprintf+0x30a>
    131c:	9d 2c       	mov	r9, r13
    131e:	0b c0       	rjmp	.+22     	; 0x1336 <vfprintf+0x320>
    1320:	9d 2c       	mov	r9, r13
    1322:	9e 0c       	add	r9, r14
    1324:	91 1a       	sub	r9, r17
    1326:	1e 2d       	mov	r17, r14
    1328:	06 c0       	rjmp	.+12     	; 0x1336 <vfprintf+0x320>
    132a:	80 e2       	ldi	r24, 0x20	; 32
    132c:	90 e0       	ldi	r25, 0x00	; 0
    132e:	b3 01       	movw	r22, r6
    1330:	0e 94 fe 09 	call	0x13fc	; 0x13fc <fputc>
    1334:	1f 5f       	subi	r17, 0xFF	; 255
    1336:	1e 15       	cp	r17, r14
    1338:	c0 f3       	brcs	.-16     	; 0x132a <vfprintf+0x314>
    133a:	04 c0       	rjmp	.+8      	; 0x1344 <vfprintf+0x32e>
    133c:	1e 15       	cp	r17, r14
    133e:	10 f4       	brcc	.+4      	; 0x1344 <vfprintf+0x32e>
    1340:	e1 1a       	sub	r14, r17
    1342:	01 c0       	rjmp	.+2      	; 0x1346 <vfprintf+0x330>
    1344:	ee 24       	eor	r14, r14
    1346:	04 ff       	sbrs	r16, 4
    1348:	0f c0       	rjmp	.+30     	; 0x1368 <vfprintf+0x352>
    134a:	80 e3       	ldi	r24, 0x30	; 48
    134c:	90 e0       	ldi	r25, 0x00	; 0
    134e:	b3 01       	movw	r22, r6
    1350:	0e 94 fe 09 	call	0x13fc	; 0x13fc <fputc>
    1354:	02 ff       	sbrs	r16, 2
    1356:	1d c0       	rjmp	.+58     	; 0x1392 <vfprintf+0x37c>
    1358:	01 fd       	sbrc	r16, 1
    135a:	03 c0       	rjmp	.+6      	; 0x1362 <vfprintf+0x34c>
    135c:	88 e7       	ldi	r24, 0x78	; 120
    135e:	90 e0       	ldi	r25, 0x00	; 0
    1360:	0e c0       	rjmp	.+28     	; 0x137e <vfprintf+0x368>
    1362:	88 e5       	ldi	r24, 0x58	; 88
    1364:	90 e0       	ldi	r25, 0x00	; 0
    1366:	0b c0       	rjmp	.+22     	; 0x137e <vfprintf+0x368>
    1368:	80 2f       	mov	r24, r16
    136a:	86 78       	andi	r24, 0x86	; 134
    136c:	91 f0       	breq	.+36     	; 0x1392 <vfprintf+0x37c>
    136e:	01 ff       	sbrs	r16, 1
    1370:	02 c0       	rjmp	.+4      	; 0x1376 <vfprintf+0x360>
    1372:	8b e2       	ldi	r24, 0x2B	; 43
    1374:	01 c0       	rjmp	.+2      	; 0x1378 <vfprintf+0x362>
    1376:	80 e2       	ldi	r24, 0x20	; 32
    1378:	f7 fc       	sbrc	r15, 7
    137a:	8d e2       	ldi	r24, 0x2D	; 45
    137c:	90 e0       	ldi	r25, 0x00	; 0
    137e:	b3 01       	movw	r22, r6
    1380:	0e 94 fe 09 	call	0x13fc	; 0x13fc <fputc>
    1384:	06 c0       	rjmp	.+12     	; 0x1392 <vfprintf+0x37c>
    1386:	80 e3       	ldi	r24, 0x30	; 48
    1388:	90 e0       	ldi	r25, 0x00	; 0
    138a:	b3 01       	movw	r22, r6
    138c:	0e 94 fe 09 	call	0x13fc	; 0x13fc <fputc>
    1390:	9a 94       	dec	r9
    1392:	d9 14       	cp	r13, r9
    1394:	c0 f3       	brcs	.-16     	; 0x1386 <vfprintf+0x370>
    1396:	da 94       	dec	r13
    1398:	f1 01       	movw	r30, r2
    139a:	ed 0d       	add	r30, r13
    139c:	f1 1d       	adc	r31, r1
    139e:	80 81       	ld	r24, Z
    13a0:	90 e0       	ldi	r25, 0x00	; 0
    13a2:	b3 01       	movw	r22, r6
    13a4:	0e 94 fe 09 	call	0x13fc	; 0x13fc <fputc>
    13a8:	dd 20       	and	r13, r13
    13aa:	a9 f7       	brne	.-22     	; 0x1396 <vfprintf+0x380>
    13ac:	06 c0       	rjmp	.+12     	; 0x13ba <vfprintf+0x3a4>
    13ae:	80 e2       	ldi	r24, 0x20	; 32
    13b0:	90 e0       	ldi	r25, 0x00	; 0
    13b2:	b3 01       	movw	r22, r6
    13b4:	0e 94 fe 09 	call	0x13fc	; 0x13fc <fputc>
    13b8:	ea 94       	dec	r14
    13ba:	ee 20       	and	r14, r14
    13bc:	c1 f7       	brne	.-16     	; 0x13ae <vfprintf+0x398>
    13be:	43 ce       	rjmp	.-890    	; 0x1046 <vfprintf+0x30>
    13c0:	f3 01       	movw	r30, r6
    13c2:	66 81       	ldd	r22, Z+6	; 0x06
    13c4:	77 81       	ldd	r23, Z+7	; 0x07
    13c6:	cb 01       	movw	r24, r22
    13c8:	2b 96       	adiw	r28, 0x0b	; 11
    13ca:	e2 e1       	ldi	r30, 0x12	; 18
    13cc:	0c 94 a4 0a 	jmp	0x1548	; 0x1548 <__epilogue_restores__>

000013d0 <strnlen_P>:
    13d0:	fc 01       	movw	r30, r24
    13d2:	05 90       	lpm	r0, Z+
    13d4:	61 50       	subi	r22, 0x01	; 1
    13d6:	70 40       	sbci	r23, 0x00	; 0
    13d8:	01 10       	cpse	r0, r1
    13da:	d8 f7       	brcc	.-10     	; 0x13d2 <strnlen_P+0x2>
    13dc:	80 95       	com	r24
    13de:	90 95       	com	r25
    13e0:	8e 0f       	add	r24, r30
    13e2:	9f 1f       	adc	r25, r31
    13e4:	08 95       	ret

000013e6 <strnlen>:
    13e6:	fc 01       	movw	r30, r24
    13e8:	61 50       	subi	r22, 0x01	; 1
    13ea:	70 40       	sbci	r23, 0x00	; 0
    13ec:	01 90       	ld	r0, Z+
    13ee:	01 10       	cpse	r0, r1
    13f0:	d8 f7       	brcc	.-10     	; 0x13e8 <strnlen+0x2>
    13f2:	80 95       	com	r24
    13f4:	90 95       	com	r25
    13f6:	8e 0f       	add	r24, r30
    13f8:	9f 1f       	adc	r25, r31
    13fa:	08 95       	ret

000013fc <fputc>:
    13fc:	0f 93       	push	r16
    13fe:	1f 93       	push	r17
    1400:	cf 93       	push	r28
    1402:	df 93       	push	r29
    1404:	8c 01       	movw	r16, r24
    1406:	eb 01       	movw	r28, r22
    1408:	8b 81       	ldd	r24, Y+3	; 0x03
    140a:	81 ff       	sbrs	r24, 1
    140c:	1b c0       	rjmp	.+54     	; 0x1444 <fputc+0x48>
    140e:	82 ff       	sbrs	r24, 2
    1410:	0d c0       	rjmp	.+26     	; 0x142c <fputc+0x30>
    1412:	2e 81       	ldd	r18, Y+6	; 0x06
    1414:	3f 81       	ldd	r19, Y+7	; 0x07
    1416:	8c 81       	ldd	r24, Y+4	; 0x04
    1418:	9d 81       	ldd	r25, Y+5	; 0x05
    141a:	28 17       	cp	r18, r24
    141c:	39 07       	cpc	r19, r25
    141e:	64 f4       	brge	.+24     	; 0x1438 <fputc+0x3c>
    1420:	e8 81       	ld	r30, Y
    1422:	f9 81       	ldd	r31, Y+1	; 0x01
    1424:	01 93       	st	Z+, r16
    1426:	f9 83       	std	Y+1, r31	; 0x01
    1428:	e8 83       	st	Y, r30
    142a:	06 c0       	rjmp	.+12     	; 0x1438 <fputc+0x3c>
    142c:	e8 85       	ldd	r30, Y+8	; 0x08
    142e:	f9 85       	ldd	r31, Y+9	; 0x09
    1430:	80 2f       	mov	r24, r16
    1432:	09 95       	icall
    1434:	89 2b       	or	r24, r25
    1436:	31 f4       	brne	.+12     	; 0x1444 <fputc+0x48>
    1438:	8e 81       	ldd	r24, Y+6	; 0x06
    143a:	9f 81       	ldd	r25, Y+7	; 0x07
    143c:	01 96       	adiw	r24, 0x01	; 1
    143e:	9f 83       	std	Y+7, r25	; 0x07
    1440:	8e 83       	std	Y+6, r24	; 0x06
    1442:	02 c0       	rjmp	.+4      	; 0x1448 <fputc+0x4c>
    1444:	0f ef       	ldi	r16, 0xFF	; 255
    1446:	1f ef       	ldi	r17, 0xFF	; 255
    1448:	c8 01       	movw	r24, r16
    144a:	df 91       	pop	r29
    144c:	cf 91       	pop	r28
    144e:	1f 91       	pop	r17
    1450:	0f 91       	pop	r16
    1452:	08 95       	ret

00001454 <__ultoa_invert>:
    1454:	fa 01       	movw	r30, r20
    1456:	aa 27       	eor	r26, r26
    1458:	28 30       	cpi	r18, 0x08	; 8
    145a:	51 f1       	breq	.+84     	; 0x14b0 <__ultoa_invert+0x5c>
    145c:	20 31       	cpi	r18, 0x10	; 16
    145e:	81 f1       	breq	.+96     	; 0x14c0 <__ultoa_invert+0x6c>
    1460:	e8 94       	clt
    1462:	6f 93       	push	r22
    1464:	6e 7f       	andi	r22, 0xFE	; 254
    1466:	6e 5f       	subi	r22, 0xFE	; 254
    1468:	7f 4f       	sbci	r23, 0xFF	; 255
    146a:	8f 4f       	sbci	r24, 0xFF	; 255
    146c:	9f 4f       	sbci	r25, 0xFF	; 255
    146e:	af 4f       	sbci	r26, 0xFF	; 255
    1470:	b1 e0       	ldi	r27, 0x01	; 1
    1472:	3e d0       	rcall	.+124    	; 0x14f0 <__ultoa_invert+0x9c>
    1474:	b4 e0       	ldi	r27, 0x04	; 4
    1476:	3c d0       	rcall	.+120    	; 0x14f0 <__ultoa_invert+0x9c>
    1478:	67 0f       	add	r22, r23
    147a:	78 1f       	adc	r23, r24
    147c:	89 1f       	adc	r24, r25
    147e:	9a 1f       	adc	r25, r26
    1480:	a1 1d       	adc	r26, r1
    1482:	68 0f       	add	r22, r24
    1484:	79 1f       	adc	r23, r25
    1486:	8a 1f       	adc	r24, r26
    1488:	91 1d       	adc	r25, r1
    148a:	a1 1d       	adc	r26, r1
    148c:	6a 0f       	add	r22, r26
    148e:	71 1d       	adc	r23, r1
    1490:	81 1d       	adc	r24, r1
    1492:	91 1d       	adc	r25, r1
    1494:	a1 1d       	adc	r26, r1
    1496:	20 d0       	rcall	.+64     	; 0x14d8 <__ultoa_invert+0x84>
    1498:	09 f4       	brne	.+2      	; 0x149c <__ultoa_invert+0x48>
    149a:	68 94       	set
    149c:	3f 91       	pop	r19
    149e:	2a e0       	ldi	r18, 0x0A	; 10
    14a0:	26 9f       	mul	r18, r22
    14a2:	11 24       	eor	r1, r1
    14a4:	30 19       	sub	r19, r0
    14a6:	30 5d       	subi	r19, 0xD0	; 208
    14a8:	31 93       	st	Z+, r19
    14aa:	de f6       	brtc	.-74     	; 0x1462 <__ultoa_invert+0xe>
    14ac:	cf 01       	movw	r24, r30
    14ae:	08 95       	ret
    14b0:	46 2f       	mov	r20, r22
    14b2:	47 70       	andi	r20, 0x07	; 7
    14b4:	40 5d       	subi	r20, 0xD0	; 208
    14b6:	41 93       	st	Z+, r20
    14b8:	b3 e0       	ldi	r27, 0x03	; 3
    14ba:	0f d0       	rcall	.+30     	; 0x14da <__ultoa_invert+0x86>
    14bc:	c9 f7       	brne	.-14     	; 0x14b0 <__ultoa_invert+0x5c>
    14be:	f6 cf       	rjmp	.-20     	; 0x14ac <__ultoa_invert+0x58>
    14c0:	46 2f       	mov	r20, r22
    14c2:	4f 70       	andi	r20, 0x0F	; 15
    14c4:	40 5d       	subi	r20, 0xD0	; 208
    14c6:	4a 33       	cpi	r20, 0x3A	; 58
    14c8:	18 f0       	brcs	.+6      	; 0x14d0 <__ultoa_invert+0x7c>
    14ca:	49 5d       	subi	r20, 0xD9	; 217
    14cc:	31 fd       	sbrc	r19, 1
    14ce:	40 52       	subi	r20, 0x20	; 32
    14d0:	41 93       	st	Z+, r20
    14d2:	02 d0       	rcall	.+4      	; 0x14d8 <__ultoa_invert+0x84>
    14d4:	a9 f7       	brne	.-22     	; 0x14c0 <__ultoa_invert+0x6c>
    14d6:	ea cf       	rjmp	.-44     	; 0x14ac <__ultoa_invert+0x58>
    14d8:	b4 e0       	ldi	r27, 0x04	; 4
    14da:	a6 95       	lsr	r26
    14dc:	97 95       	ror	r25
    14de:	87 95       	ror	r24
    14e0:	77 95       	ror	r23
    14e2:	67 95       	ror	r22
    14e4:	ba 95       	dec	r27
    14e6:	c9 f7       	brne	.-14     	; 0x14da <__ultoa_invert+0x86>
    14e8:	00 97       	sbiw	r24, 0x00	; 0
    14ea:	61 05       	cpc	r22, r1
    14ec:	71 05       	cpc	r23, r1
    14ee:	08 95       	ret
    14f0:	9b 01       	movw	r18, r22
    14f2:	ac 01       	movw	r20, r24
    14f4:	0a 2e       	mov	r0, r26
    14f6:	06 94       	lsr	r0
    14f8:	57 95       	ror	r21
    14fa:	47 95       	ror	r20
    14fc:	37 95       	ror	r19
    14fe:	27 95       	ror	r18
    1500:	ba 95       	dec	r27
    1502:	c9 f7       	brne	.-14     	; 0x14f6 <__ultoa_invert+0xa2>
    1504:	62 0f       	add	r22, r18
    1506:	73 1f       	adc	r23, r19
    1508:	84 1f       	adc	r24, r20
    150a:	95 1f       	adc	r25, r21
    150c:	a0 1d       	adc	r26, r0
    150e:	08 95       	ret

00001510 <__prologue_saves__>:
    1510:	2f 92       	push	r2
    1512:	3f 92       	push	r3
    1514:	4f 92       	push	r4
    1516:	5f 92       	push	r5
    1518:	6f 92       	push	r6
    151a:	7f 92       	push	r7
    151c:	8f 92       	push	r8
    151e:	9f 92       	push	r9
    1520:	af 92       	push	r10
    1522:	bf 92       	push	r11
    1524:	cf 92       	push	r12
    1526:	df 92       	push	r13
    1528:	ef 92       	push	r14
    152a:	ff 92       	push	r15
    152c:	0f 93       	push	r16
    152e:	1f 93       	push	r17
    1530:	cf 93       	push	r28
    1532:	df 93       	push	r29
    1534:	cd b7       	in	r28, 0x3d	; 61
    1536:	de b7       	in	r29, 0x3e	; 62
    1538:	ca 1b       	sub	r28, r26
    153a:	db 0b       	sbc	r29, r27
    153c:	0f b6       	in	r0, 0x3f	; 63
    153e:	f8 94       	cli
    1540:	de bf       	out	0x3e, r29	; 62
    1542:	0f be       	out	0x3f, r0	; 63
    1544:	cd bf       	out	0x3d, r28	; 61
    1546:	09 94       	ijmp

00001548 <__epilogue_restores__>:
    1548:	2a 88       	ldd	r2, Y+18	; 0x12
    154a:	39 88       	ldd	r3, Y+17	; 0x11
    154c:	48 88       	ldd	r4, Y+16	; 0x10
    154e:	5f 84       	ldd	r5, Y+15	; 0x0f
    1550:	6e 84       	ldd	r6, Y+14	; 0x0e
    1552:	7d 84       	ldd	r7, Y+13	; 0x0d
    1554:	8c 84       	ldd	r8, Y+12	; 0x0c
    1556:	9b 84       	ldd	r9, Y+11	; 0x0b
    1558:	aa 84       	ldd	r10, Y+10	; 0x0a
    155a:	b9 84       	ldd	r11, Y+9	; 0x09
    155c:	c8 84       	ldd	r12, Y+8	; 0x08
    155e:	df 80       	ldd	r13, Y+7	; 0x07
    1560:	ee 80       	ldd	r14, Y+6	; 0x06
    1562:	fd 80       	ldd	r15, Y+5	; 0x05
    1564:	0c 81       	ldd	r16, Y+4	; 0x04
    1566:	1b 81       	ldd	r17, Y+3	; 0x03
    1568:	aa 81       	ldd	r26, Y+2	; 0x02
    156a:	b9 81       	ldd	r27, Y+1	; 0x01
    156c:	ce 0f       	add	r28, r30
    156e:	d1 1d       	adc	r29, r1
    1570:	0f b6       	in	r0, 0x3f	; 63
    1572:	f8 94       	cli
    1574:	de bf       	out	0x3e, r29	; 62
    1576:	0f be       	out	0x3f, r0	; 63
    1578:	cd bf       	out	0x3d, r28	; 61
    157a:	ed 01       	movw	r28, r26
    157c:	08 95       	ret

0000157e <_exit>:
    157e:	f8 94       	cli

00001580 <__stop_program>:
    1580:	ff cf       	rjmp	.-2      	; 0x1580 <__stop_program>
