
teclado_adc.elf:     file format elf32-avr

Sections:
Idx Name          Size      VMA       LMA       File off  Algn
  0 .data         00000160  00800100  00002618  000026ac  2**0
                  CONTENTS, ALLOC, LOAD, DATA
  1 .text         00002618  00000000  00000000  00000094  2**1
                  CONTENTS, ALLOC, LOAD, READONLY, CODE
  2 .bss          0000005f  00800260  00800260  0000280c  2**0
                  ALLOC
  3 .debug_aranges 00000160  00000000  00000000  0000280c  2**0
                  CONTENTS, READONLY, DEBUGGING
  4 .debug_pubnames 000005ea  00000000  00000000  0000296c  2**0
                  CONTENTS, READONLY, DEBUGGING
  5 .debug_info   00002eca  00000000  00000000  00002f56  2**0
                  CONTENTS, READONLY, DEBUGGING
  6 .debug_abbrev 000012d2  00000000  00000000  00005e20  2**0
                  CONTENTS, READONLY, DEBUGGING
  7 .debug_line   00001d12  00000000  00000000  000070f2  2**0
                  CONTENTS, READONLY, DEBUGGING
  8 .debug_frame  00000390  00000000  00000000  00008e04  2**2
                  CONTENTS, READONLY, DEBUGGING
  9 .debug_str    00000a01  00000000  00000000  00009194  2**0
                  CONTENTS, READONLY, DEBUGGING
 10 .debug_loc    00000d86  00000000  00000000  00009b95  2**0
                  CONTENTS, READONLY, DEBUGGING
 11 .debug_ranges 00000320  00000000  00000000  0000a91b  2**0
                  CONTENTS, READONLY, DEBUGGING

Disassembly of section .text:

00000000 <__vectors>:
       0:	0c 94 34 00 	jmp	0x68	; 0x68 <__ctors_end>
       4:	0c 94 51 00 	jmp	0xa2	; 0xa2 <__bad_interrupt>
       8:	0c 94 51 00 	jmp	0xa2	; 0xa2 <__bad_interrupt>
       c:	0c 94 51 00 	jmp	0xa2	; 0xa2 <__bad_interrupt>
      10:	0c 94 51 00 	jmp	0xa2	; 0xa2 <__bad_interrupt>
      14:	0c 94 51 00 	jmp	0xa2	; 0xa2 <__bad_interrupt>
      18:	0c 94 51 00 	jmp	0xa2	; 0xa2 <__bad_interrupt>
      1c:	0c 94 51 00 	jmp	0xa2	; 0xa2 <__bad_interrupt>
      20:	0c 94 51 00 	jmp	0xa2	; 0xa2 <__bad_interrupt>
      24:	0c 94 51 00 	jmp	0xa2	; 0xa2 <__bad_interrupt>
      28:	0c 94 51 00 	jmp	0xa2	; 0xa2 <__bad_interrupt>
      2c:	0c 94 13 04 	jmp	0x826	; 0x826 <__vector_11>
      30:	0c 94 51 00 	jmp	0xa2	; 0xa2 <__bad_interrupt>
      34:	0c 94 51 00 	jmp	0xa2	; 0xa2 <__bad_interrupt>
      38:	0c 94 51 00 	jmp	0xa2	; 0xa2 <__bad_interrupt>
      3c:	0c 94 51 00 	jmp	0xa2	; 0xa2 <__bad_interrupt>
      40:	0c 94 51 00 	jmp	0xa2	; 0xa2 <__bad_interrupt>
      44:	0c 94 51 00 	jmp	0xa2	; 0xa2 <__bad_interrupt>
      48:	0c 94 51 00 	jmp	0xa2	; 0xa2 <__bad_interrupt>
      4c:	0c 94 51 00 	jmp	0xa2	; 0xa2 <__bad_interrupt>
      50:	0c 94 51 00 	jmp	0xa2	; 0xa2 <__bad_interrupt>
      54:	0c 94 53 00 	jmp	0xa6	; 0xa6 <__vector_21>
      58:	0c 94 51 00 	jmp	0xa2	; 0xa2 <__bad_interrupt>
      5c:	0c 94 51 00 	jmp	0xa2	; 0xa2 <__bad_interrupt>
      60:	0c 94 51 00 	jmp	0xa2	; 0xa2 <__bad_interrupt>
      64:	0c 94 51 00 	jmp	0xa2	; 0xa2 <__bad_interrupt>

00000068 <__ctors_end>:
      68:	11 24       	eor	r1, r1
      6a:	1f be       	out	0x3f, r1	; 63
      6c:	cf ef       	ldi	r28, 0xFF	; 255
      6e:	d8 e0       	ldi	r29, 0x08	; 8
      70:	de bf       	out	0x3e, r29	; 62
      72:	cd bf       	out	0x3d, r28	; 61

00000074 <__do_copy_data>:
      74:	12 e0       	ldi	r17, 0x02	; 2
      76:	a0 e0       	ldi	r26, 0x00	; 0
      78:	b1 e0       	ldi	r27, 0x01	; 1
      7a:	e8 e1       	ldi	r30, 0x18	; 24
      7c:	f6 e2       	ldi	r31, 0x26	; 38
      7e:	02 c0       	rjmp	.+4      	; 0x84 <.do_copy_data_start>

00000080 <.do_copy_data_loop>:
      80:	05 90       	lpm	r0, Z+
      82:	0d 92       	st	X+, r0

00000084 <.do_copy_data_start>:
      84:	a0 36       	cpi	r26, 0x60	; 96
      86:	b1 07       	cpc	r27, r17
      88:	d9 f7       	brne	.-10     	; 0x80 <.do_copy_data_loop>

0000008a <__do_clear_bss>:
      8a:	12 e0       	ldi	r17, 0x02	; 2
      8c:	a0 e6       	ldi	r26, 0x60	; 96
      8e:	b2 e0       	ldi	r27, 0x02	; 2
      90:	01 c0       	rjmp	.+2      	; 0x94 <.do_clear_bss_start>

00000092 <.do_clear_bss_loop>:
      92:	1d 92       	st	X+, r1

00000094 <.do_clear_bss_start>:
      94:	af 3b       	cpi	r26, 0xBF	; 191
      96:	b1 07       	cpc	r27, r17
      98:	e1 f7       	brne	.-8      	; 0x92 <.do_clear_bss_loop>
      9a:	0e 94 40 04 	call	0x880	; 0x880 <main>
      9e:	0c 94 0a 13 	jmp	0x2614	; 0x2614 <_exit>

000000a2 <__bad_interrupt>:
      a2:	0c 94 00 00 	jmp	0	; 0x0 <__vectors>

000000a6 <__vector_21>:

}


ISR(ADC_vect)
{
      a6:	1f 92       	push	r1
      a8:	0f 92       	push	r0
      aa:	0f b6       	in	r0, 0x3f	; 63
      ac:	0f 92       	push	r0
      ae:	11 24       	eor	r1, r1
      b0:	ef 92       	push	r14
      b2:	ff 92       	push	r15
      b4:	0f 93       	push	r16
      b6:	1f 93       	push	r17
      b8:	2f 93       	push	r18
      ba:	3f 93       	push	r19
      bc:	4f 93       	push	r20
      be:	5f 93       	push	r21
      c0:	6f 93       	push	r22
      c2:	7f 93       	push	r23
      c4:	8f 93       	push	r24
      c6:	9f 93       	push	r25
      c8:	af 93       	push	r26
      ca:	bf 93       	push	r27
      cc:	ef 93       	push	r30
      ce:	ff 93       	push	r31
	switch (adc_state){
      d0:	80 91 38 01 	lds	r24, 0x0138
      d4:	81 30       	cpi	r24, 0x01	; 1
      d6:	21 f0       	breq	.+8      	; 0xe0 <__vector_21+0x3a>
      d8:	82 30       	cpi	r24, 0x02	; 2
      da:	09 f0       	breq	.+2      	; 0xde <__vector_21+0x38>
      dc:	88 c3       	rjmp	.+1808   	; 0x7ee <__vector_21+0x748>
      de:	61 c3       	rjmp	.+1730   	; 0x7a2 <__vector_21+0x6fc>
	case READ_KEYPAD:
		if(ADC != last_read && state != MOVE_MOTOR){
      e0:	20 91 78 00 	lds	r18, 0x0078
      e4:	30 91 79 00 	lds	r19, 0x0079
      e8:	80 91 67 02 	lds	r24, 0x0267
      ec:	90 91 68 02 	lds	r25, 0x0268
      f0:	28 17       	cp	r18, r24
      f2:	39 07       	cpc	r19, r25
      f4:	09 f4       	brne	.+2      	; 0xf8 <__vector_21+0x52>
      f6:	49 c3       	rjmp	.+1682   	; 0x78a <__vector_21+0x6e4>
      f8:	80 91 37 01 	lds	r24, 0x0137
      fc:	83 30       	cpi	r24, 0x03	; 3
      fe:	09 f4       	brne	.+2      	; 0x102 <__vector_21+0x5c>
     100:	44 c3       	rjmp	.+1672   	; 0x78a <__vector_21+0x6e4>
			if (clear_angle == 1){
     102:	80 91 62 02 	lds	r24, 0x0262
     106:	81 30       	cpi	r24, 0x01	; 1
     108:	31 f4       	brne	.+12     	; 0x116 <__vector_21+0x70>
				angle = 0;
     10a:	10 92 61 02 	sts	0x0261, r1
     10e:	10 92 60 02 	sts	0x0260, r1
				clear_angle = 0;
     112:	10 92 62 02 	sts	0x0262, r1
			}

			if (labs((int16)ADC - 146) < TOLERANCE)
     116:	80 91 78 00 	lds	r24, 0x0078
     11a:	90 91 79 00 	lds	r25, 0x0079
     11e:	82 59       	subi	r24, 0x92	; 146
     120:	90 40       	sbci	r25, 0x00	; 0
     122:	9c 01       	movw	r18, r24
     124:	44 27       	eor	r20, r20
     126:	37 fd       	sbrc	r19, 7
     128:	40 95       	com	r20
     12a:	54 2f       	mov	r21, r20
     12c:	57 ff       	sbrs	r21, 7
     12e:	07 c0       	rjmp	.+14     	; 0x13e <__vector_21+0x98>
     130:	50 95       	com	r21
     132:	40 95       	com	r20
     134:	30 95       	com	r19
     136:	21 95       	neg	r18
     138:	3f 4f       	sbci	r19, 0xFF	; 255
     13a:	4f 4f       	sbci	r20, 0xFF	; 255
     13c:	5f 4f       	sbci	r21, 0xFF	; 255
     13e:	29 30       	cpi	r18, 0x09	; 9
     140:	31 05       	cpc	r19, r1
     142:	41 05       	cpc	r20, r1
     144:	51 05       	cpc	r21, r1
     146:	34 f5       	brge	.+76     	; 0x194 <__vector_21+0xee>
				angle = (labs(angle)*10+0)*module;
     148:	00 91 60 02 	lds	r16, 0x0260
     14c:	10 91 61 02 	lds	r17, 0x0261
     150:	60 91 39 01 	lds	r22, 0x0139
     154:	70 91 3a 01 	lds	r23, 0x013A
     158:	88 27       	eor	r24, r24
     15a:	77 fd       	sbrc	r23, 7
     15c:	80 95       	com	r24
     15e:	98 2f       	mov	r25, r24
     160:	2a e0       	ldi	r18, 0x0A	; 10
     162:	30 e0       	ldi	r19, 0x00	; 0
     164:	40 e0       	ldi	r20, 0x00	; 0
     166:	50 e0       	ldi	r21, 0x00	; 0
     168:	0e 94 cb 0f 	call	0x1f96	; 0x1f96 <__mulsi3>
     16c:	98 01       	movw	r18, r16
     16e:	44 27       	eor	r20, r20
     170:	37 fd       	sbrc	r19, 7
     172:	40 95       	com	r20
     174:	54 2f       	mov	r21, r20
     176:	57 ff       	sbrs	r21, 7
     178:	07 c0       	rjmp	.+14     	; 0x188 <__vector_21+0xe2>
     17a:	50 95       	com	r21
     17c:	40 95       	com	r20
     17e:	30 95       	com	r19
     180:	21 95       	neg	r18
     182:	3f 4f       	sbci	r19, 0xFF	; 255
     184:	4f 4f       	sbci	r20, 0xFF	; 255
     186:	5f 4f       	sbci	r21, 0xFF	; 255
     188:	0e 94 cb 0f 	call	0x1f96	; 0x1f96 <__mulsi3>
     18c:	70 93 61 02 	sts	0x0261, r23
     190:	60 93 60 02 	sts	0x0260, r22

			if (labs((int16)ADC - 371) < TOLERANCE)
     194:	80 91 78 00 	lds	r24, 0x0078
     198:	90 91 79 00 	lds	r25, 0x0079
     19c:	83 57       	subi	r24, 0x73	; 115
     19e:	91 40       	sbci	r25, 0x01	; 1
     1a0:	9c 01       	movw	r18, r24
     1a2:	44 27       	eor	r20, r20
     1a4:	37 fd       	sbrc	r19, 7
     1a6:	40 95       	com	r20
     1a8:	54 2f       	mov	r21, r20
     1aa:	57 ff       	sbrs	r21, 7
     1ac:	07 c0       	rjmp	.+14     	; 0x1bc <__vector_21+0x116>
     1ae:	50 95       	com	r21
     1b0:	40 95       	com	r20
     1b2:	30 95       	com	r19
     1b4:	21 95       	neg	r18
     1b6:	3f 4f       	sbci	r19, 0xFF	; 255
     1b8:	4f 4f       	sbci	r20, 0xFF	; 255
     1ba:	5f 4f       	sbci	r21, 0xFF	; 255
     1bc:	29 30       	cpi	r18, 0x09	; 9
     1be:	31 05       	cpc	r19, r1
     1c0:	41 05       	cpc	r20, r1
     1c2:	51 05       	cpc	r21, r1
     1c4:	6c f5       	brge	.+90     	; 0x220 <__vector_21+0x17a>
				angle = (labs(angle)*10+1)*module;
     1c6:	80 91 60 02 	lds	r24, 0x0260
     1ca:	90 91 61 02 	lds	r25, 0x0261
     1ce:	00 91 39 01 	lds	r16, 0x0139
     1d2:	10 91 3a 01 	lds	r17, 0x013A
     1d6:	9c 01       	movw	r18, r24
     1d8:	44 27       	eor	r20, r20
     1da:	37 fd       	sbrc	r19, 7
     1dc:	40 95       	com	r20
     1de:	54 2f       	mov	r21, r20
     1e0:	57 ff       	sbrs	r21, 7
     1e2:	07 c0       	rjmp	.+14     	; 0x1f2 <__vector_21+0x14c>
     1e4:	50 95       	com	r21
     1e6:	40 95       	com	r20
     1e8:	30 95       	com	r19
     1ea:	21 95       	neg	r18
     1ec:	3f 4f       	sbci	r19, 0xFF	; 255
     1ee:	4f 4f       	sbci	r20, 0xFF	; 255
     1f0:	5f 4f       	sbci	r21, 0xFF	; 255
     1f2:	ca 01       	movw	r24, r20
     1f4:	b9 01       	movw	r22, r18
     1f6:	2a e0       	ldi	r18, 0x0A	; 10
     1f8:	30 e0       	ldi	r19, 0x00	; 0
     1fa:	40 e0       	ldi	r20, 0x00	; 0
     1fc:	50 e0       	ldi	r21, 0x00	; 0
     1fe:	0e 94 cb 0f 	call	0x1f96	; 0x1f96 <__mulsi3>
     202:	6f 5f       	subi	r22, 0xFF	; 255
     204:	7f 4f       	sbci	r23, 0xFF	; 255
     206:	8f 4f       	sbci	r24, 0xFF	; 255
     208:	9f 4f       	sbci	r25, 0xFF	; 255
     20a:	98 01       	movw	r18, r16
     20c:	44 27       	eor	r20, r20
     20e:	37 fd       	sbrc	r19, 7
     210:	40 95       	com	r20
     212:	54 2f       	mov	r21, r20
     214:	0e 94 cb 0f 	call	0x1f96	; 0x1f96 <__mulsi3>
     218:	70 93 61 02 	sts	0x0261, r23
     21c:	60 93 60 02 	sts	0x0260, r22

			if (labs((int16)ADC - 334) < TOLERANCE)
     220:	80 91 78 00 	lds	r24, 0x0078
     224:	90 91 79 00 	lds	r25, 0x0079
     228:	8e 54       	subi	r24, 0x4E	; 78
     22a:	91 40       	sbci	r25, 0x01	; 1
     22c:	9c 01       	movw	r18, r24
     22e:	44 27       	eor	r20, r20
     230:	37 fd       	sbrc	r19, 7
     232:	40 95       	com	r20
     234:	54 2f       	mov	r21, r20
     236:	57 ff       	sbrs	r21, 7
     238:	07 c0       	rjmp	.+14     	; 0x248 <__vector_21+0x1a2>
     23a:	50 95       	com	r21
     23c:	40 95       	com	r20
     23e:	30 95       	com	r19
     240:	21 95       	neg	r18
     242:	3f 4f       	sbci	r19, 0xFF	; 255
     244:	4f 4f       	sbci	r20, 0xFF	; 255
     246:	5f 4f       	sbci	r21, 0xFF	; 255
     248:	29 30       	cpi	r18, 0x09	; 9
     24a:	31 05       	cpc	r19, r1
     24c:	41 05       	cpc	r20, r1
     24e:	51 05       	cpc	r21, r1
     250:	c4 f5       	brge	.+112    	; 0x2c2 <__vector_21+0x21c>
				angle = (labs(angle)*10+2)*module;
     252:	20 91 60 02 	lds	r18, 0x0260
     256:	30 91 61 02 	lds	r19, 0x0261
     25a:	80 91 39 01 	lds	r24, 0x0139
     25e:	90 91 3a 01 	lds	r25, 0x013A
     262:	7c 01       	movw	r14, r24
     264:	00 27       	eor	r16, r16
     266:	f7 fc       	sbrc	r15, 7
     268:	00 95       	com	r16
     26a:	10 2f       	mov	r17, r16
     26c:	ee 0c       	add	r14, r14
     26e:	ff 1c       	adc	r15, r15
     270:	00 1f       	adc	r16, r16
     272:	11 1f       	adc	r17, r17
     274:	c9 01       	movw	r24, r18
     276:	aa 27       	eor	r26, r26
     278:	97 fd       	sbrc	r25, 7
     27a:	a0 95       	com	r26
     27c:	ba 2f       	mov	r27, r26
     27e:	b7 ff       	sbrs	r27, 7
     280:	07 c0       	rjmp	.+14     	; 0x290 <__vector_21+0x1ea>
     282:	b0 95       	com	r27
     284:	a0 95       	com	r26
     286:	90 95       	com	r25
     288:	81 95       	neg	r24
     28a:	9f 4f       	sbci	r25, 0xFF	; 255
     28c:	af 4f       	sbci	r26, 0xFF	; 255
     28e:	bf 4f       	sbci	r27, 0xFF	; 255
     290:	9c 01       	movw	r18, r24
     292:	ad 01       	movw	r20, r26
     294:	62 e0       	ldi	r22, 0x02	; 2
     296:	22 0f       	add	r18, r18
     298:	33 1f       	adc	r19, r19
     29a:	44 1f       	adc	r20, r20
     29c:	55 1f       	adc	r21, r21
     29e:	6a 95       	dec	r22
     2a0:	d1 f7       	brne	.-12     	; 0x296 <__vector_21+0x1f0>
     2a2:	28 0f       	add	r18, r24
     2a4:	39 1f       	adc	r19, r25
     2a6:	4a 1f       	adc	r20, r26
     2a8:	5b 1f       	adc	r21, r27
     2aa:	2f 5f       	subi	r18, 0xFF	; 255
     2ac:	3f 4f       	sbci	r19, 0xFF	; 255
     2ae:	4f 4f       	sbci	r20, 0xFF	; 255
     2b0:	5f 4f       	sbci	r21, 0xFF	; 255
     2b2:	c8 01       	movw	r24, r16
     2b4:	b7 01       	movw	r22, r14
     2b6:	0e 94 cb 0f 	call	0x1f96	; 0x1f96 <__mulsi3>
     2ba:	70 93 61 02 	sts	0x0261, r23
     2be:	60 93 60 02 	sts	0x0260, r22

			if (labs((int16)ADC - 294) < TOLERANCE)
     2c2:	80 91 78 00 	lds	r24, 0x0078
     2c6:	90 91 79 00 	lds	r25, 0x0079
     2ca:	86 52       	subi	r24, 0x26	; 38
     2cc:	91 40       	sbci	r25, 0x01	; 1
     2ce:	9c 01       	movw	r18, r24
     2d0:	44 27       	eor	r20, r20
     2d2:	37 fd       	sbrc	r19, 7
     2d4:	40 95       	com	r20
     2d6:	54 2f       	mov	r21, r20
     2d8:	57 ff       	sbrs	r21, 7
     2da:	07 c0       	rjmp	.+14     	; 0x2ea <__vector_21+0x244>
     2dc:	50 95       	com	r21
     2de:	40 95       	com	r20
     2e0:	30 95       	com	r19
     2e2:	21 95       	neg	r18
     2e4:	3f 4f       	sbci	r19, 0xFF	; 255
     2e6:	4f 4f       	sbci	r20, 0xFF	; 255
     2e8:	5f 4f       	sbci	r21, 0xFF	; 255
     2ea:	29 30       	cpi	r18, 0x09	; 9
     2ec:	31 05       	cpc	r19, r1
     2ee:	41 05       	cpc	r20, r1
     2f0:	51 05       	cpc	r21, r1
     2f2:	6c f5       	brge	.+90     	; 0x34e <__vector_21+0x2a8>
				angle = (labs(angle)*10+3)*module;
     2f4:	80 91 60 02 	lds	r24, 0x0260
     2f8:	90 91 61 02 	lds	r25, 0x0261
     2fc:	00 91 39 01 	lds	r16, 0x0139
     300:	10 91 3a 01 	lds	r17, 0x013A
     304:	9c 01       	movw	r18, r24
     306:	44 27       	eor	r20, r20
     308:	37 fd       	sbrc	r19, 7
     30a:	40 95       	com	r20
     30c:	54 2f       	mov	r21, r20
     30e:	57 ff       	sbrs	r21, 7
     310:	07 c0       	rjmp	.+14     	; 0x320 <__vector_21+0x27a>
     312:	50 95       	com	r21
     314:	40 95       	com	r20
     316:	30 95       	com	r19
     318:	21 95       	neg	r18
     31a:	3f 4f       	sbci	r19, 0xFF	; 255
     31c:	4f 4f       	sbci	r20, 0xFF	; 255
     31e:	5f 4f       	sbci	r21, 0xFF	; 255
     320:	ca 01       	movw	r24, r20
     322:	b9 01       	movw	r22, r18
     324:	2a e0       	ldi	r18, 0x0A	; 10
     326:	30 e0       	ldi	r19, 0x00	; 0
     328:	40 e0       	ldi	r20, 0x00	; 0
     32a:	50 e0       	ldi	r21, 0x00	; 0
     32c:	0e 94 cb 0f 	call	0x1f96	; 0x1f96 <__mulsi3>
     330:	6d 5f       	subi	r22, 0xFD	; 253
     332:	7f 4f       	sbci	r23, 0xFF	; 255
     334:	8f 4f       	sbci	r24, 0xFF	; 255
     336:	9f 4f       	sbci	r25, 0xFF	; 255
     338:	98 01       	movw	r18, r16
     33a:	44 27       	eor	r20, r20
     33c:	37 fd       	sbrc	r19, 7
     33e:	40 95       	com	r20
     340:	54 2f       	mov	r21, r20
     342:	0e 94 cb 0f 	call	0x1f96	; 0x1f96 <__mulsi3>
     346:	70 93 61 02 	sts	0x0261, r23
     34a:	60 93 60 02 	sts	0x0260, r22

			if (labs((int16)ADC - 481) < TOLERANCE)
     34e:	80 91 78 00 	lds	r24, 0x0078
     352:	90 91 79 00 	lds	r25, 0x0079
     356:	81 5e       	subi	r24, 0xE1	; 225
     358:	91 40       	sbci	r25, 0x01	; 1
     35a:	9c 01       	movw	r18, r24
     35c:	44 27       	eor	r20, r20
     35e:	37 fd       	sbrc	r19, 7
     360:	40 95       	com	r20
     362:	54 2f       	mov	r21, r20
     364:	57 ff       	sbrs	r21, 7
     366:	07 c0       	rjmp	.+14     	; 0x376 <__vector_21+0x2d0>
     368:	50 95       	com	r21
     36a:	40 95       	com	r20
     36c:	30 95       	com	r19
     36e:	21 95       	neg	r18
     370:	3f 4f       	sbci	r19, 0xFF	; 255
     372:	4f 4f       	sbci	r20, 0xFF	; 255
     374:	5f 4f       	sbci	r21, 0xFF	; 255
     376:	29 30       	cpi	r18, 0x09	; 9
     378:	31 05       	cpc	r19, r1
     37a:	41 05       	cpc	r20, r1
     37c:	51 05       	cpc	r21, r1
     37e:	6c f5       	brge	.+90     	; 0x3da <__vector_21+0x334>
				angle = (labs(angle)*10+4)*module;
     380:	80 91 60 02 	lds	r24, 0x0260
     384:	90 91 61 02 	lds	r25, 0x0261
     388:	00 91 39 01 	lds	r16, 0x0139
     38c:	10 91 3a 01 	lds	r17, 0x013A
     390:	9c 01       	movw	r18, r24
     392:	44 27       	eor	r20, r20
     394:	37 fd       	sbrc	r19, 7
     396:	40 95       	com	r20
     398:	54 2f       	mov	r21, r20
     39a:	57 ff       	sbrs	r21, 7
     39c:	07 c0       	rjmp	.+14     	; 0x3ac <__vector_21+0x306>
     39e:	50 95       	com	r21
     3a0:	40 95       	com	r20
     3a2:	30 95       	com	r19
     3a4:	21 95       	neg	r18
     3a6:	3f 4f       	sbci	r19, 0xFF	; 255
     3a8:	4f 4f       	sbci	r20, 0xFF	; 255
     3aa:	5f 4f       	sbci	r21, 0xFF	; 255
     3ac:	ca 01       	movw	r24, r20
     3ae:	b9 01       	movw	r22, r18
     3b0:	2a e0       	ldi	r18, 0x0A	; 10
     3b2:	30 e0       	ldi	r19, 0x00	; 0
     3b4:	40 e0       	ldi	r20, 0x00	; 0
     3b6:	50 e0       	ldi	r21, 0x00	; 0
     3b8:	0e 94 cb 0f 	call	0x1f96	; 0x1f96 <__mulsi3>
     3bc:	6c 5f       	subi	r22, 0xFC	; 252
     3be:	7f 4f       	sbci	r23, 0xFF	; 255
     3c0:	8f 4f       	sbci	r24, 0xFF	; 255
     3c2:	9f 4f       	sbci	r25, 0xFF	; 255
     3c4:	98 01       	movw	r18, r16
     3c6:	44 27       	eor	r20, r20
     3c8:	37 fd       	sbrc	r19, 7
     3ca:	40 95       	com	r20
     3cc:	54 2f       	mov	r21, r20
     3ce:	0e 94 cb 0f 	call	0x1f96	; 0x1f96 <__mulsi3>
     3d2:	70 93 61 02 	sts	0x0261, r23
     3d6:	60 93 60 02 	sts	0x0260, r22

			if (labs((int16)ADC - 456) < TOLERANCE)
     3da:	80 91 78 00 	lds	r24, 0x0078
     3de:	90 91 79 00 	lds	r25, 0x0079
     3e2:	88 5c       	subi	r24, 0xC8	; 200
     3e4:	91 40       	sbci	r25, 0x01	; 1
     3e6:	9c 01       	movw	r18, r24
     3e8:	44 27       	eor	r20, r20
     3ea:	37 fd       	sbrc	r19, 7
     3ec:	40 95       	com	r20
     3ee:	54 2f       	mov	r21, r20
     3f0:	57 ff       	sbrs	r21, 7
     3f2:	07 c0       	rjmp	.+14     	; 0x402 <__vector_21+0x35c>
     3f4:	50 95       	com	r21
     3f6:	40 95       	com	r20
     3f8:	30 95       	com	r19
     3fa:	21 95       	neg	r18
     3fc:	3f 4f       	sbci	r19, 0xFF	; 255
     3fe:	4f 4f       	sbci	r20, 0xFF	; 255
     400:	5f 4f       	sbci	r21, 0xFF	; 255
     402:	29 30       	cpi	r18, 0x09	; 9
     404:	31 05       	cpc	r19, r1
     406:	41 05       	cpc	r20, r1
     408:	51 05       	cpc	r21, r1
     40a:	6c f5       	brge	.+90     	; 0x466 <__vector_21+0x3c0>
				angle = (labs(angle)*10+5)*module;
     40c:	80 91 60 02 	lds	r24, 0x0260
     410:	90 91 61 02 	lds	r25, 0x0261
     414:	00 91 39 01 	lds	r16, 0x0139
     418:	10 91 3a 01 	lds	r17, 0x013A
     41c:	9c 01       	movw	r18, r24
     41e:	44 27       	eor	r20, r20
     420:	37 fd       	sbrc	r19, 7
     422:	40 95       	com	r20
     424:	54 2f       	mov	r21, r20
     426:	57 ff       	sbrs	r21, 7
     428:	07 c0       	rjmp	.+14     	; 0x438 <__vector_21+0x392>
     42a:	50 95       	com	r21
     42c:	40 95       	com	r20
     42e:	30 95       	com	r19
     430:	21 95       	neg	r18
     432:	3f 4f       	sbci	r19, 0xFF	; 255
     434:	4f 4f       	sbci	r20, 0xFF	; 255
     436:	5f 4f       	sbci	r21, 0xFF	; 255
     438:	ca 01       	movw	r24, r20
     43a:	b9 01       	movw	r22, r18
     43c:	2a e0       	ldi	r18, 0x0A	; 10
     43e:	30 e0       	ldi	r19, 0x00	; 0
     440:	40 e0       	ldi	r20, 0x00	; 0
     442:	50 e0       	ldi	r21, 0x00	; 0
     444:	0e 94 cb 0f 	call	0x1f96	; 0x1f96 <__mulsi3>
     448:	6b 5f       	subi	r22, 0xFB	; 251
     44a:	7f 4f       	sbci	r23, 0xFF	; 255
     44c:	8f 4f       	sbci	r24, 0xFF	; 255
     44e:	9f 4f       	sbci	r25, 0xFF	; 255
     450:	98 01       	movw	r18, r16
     452:	44 27       	eor	r20, r20
     454:	37 fd       	sbrc	r19, 7
     456:	40 95       	com	r20
     458:	54 2f       	mov	r21, r20
     45a:	0e 94 cb 0f 	call	0x1f96	; 0x1f96 <__mulsi3>
     45e:	70 93 61 02 	sts	0x0261, r23
     462:	60 93 60 02 	sts	0x0260, r22

			if (labs((int16)ADC - 429) < TOLERANCE)
     466:	80 91 78 00 	lds	r24, 0x0078
     46a:	90 91 79 00 	lds	r25, 0x0079
     46e:	8d 5a       	subi	r24, 0xAD	; 173
     470:	91 40       	sbci	r25, 0x01	; 1
     472:	9c 01       	movw	r18, r24
     474:	44 27       	eor	r20, r20
     476:	37 fd       	sbrc	r19, 7
     478:	40 95       	com	r20
     47a:	54 2f       	mov	r21, r20
     47c:	57 ff       	sbrs	r21, 7
     47e:	07 c0       	rjmp	.+14     	; 0x48e <__vector_21+0x3e8>
     480:	50 95       	com	r21
     482:	40 95       	com	r20
     484:	30 95       	com	r19
     486:	21 95       	neg	r18
     488:	3f 4f       	sbci	r19, 0xFF	; 255
     48a:	4f 4f       	sbci	r20, 0xFF	; 255
     48c:	5f 4f       	sbci	r21, 0xFF	; 255
     48e:	29 30       	cpi	r18, 0x09	; 9
     490:	31 05       	cpc	r19, r1
     492:	41 05       	cpc	r20, r1
     494:	51 05       	cpc	r21, r1
     496:	6c f5       	brge	.+90     	; 0x4f2 <__vector_21+0x44c>
				angle = (labs(angle)*10+6)*module;
     498:	80 91 60 02 	lds	r24, 0x0260
     49c:	90 91 61 02 	lds	r25, 0x0261
     4a0:	00 91 39 01 	lds	r16, 0x0139
     4a4:	10 91 3a 01 	lds	r17, 0x013A
     4a8:	9c 01       	movw	r18, r24
     4aa:	44 27       	eor	r20, r20
     4ac:	37 fd       	sbrc	r19, 7
     4ae:	40 95       	com	r20
     4b0:	54 2f       	mov	r21, r20
     4b2:	57 ff       	sbrs	r21, 7
     4b4:	07 c0       	rjmp	.+14     	; 0x4c4 <__vector_21+0x41e>
     4b6:	50 95       	com	r21
     4b8:	40 95       	com	r20
     4ba:	30 95       	com	r19
     4bc:	21 95       	neg	r18
     4be:	3f 4f       	sbci	r19, 0xFF	; 255
     4c0:	4f 4f       	sbci	r20, 0xFF	; 255
     4c2:	5f 4f       	sbci	r21, 0xFF	; 255
     4c4:	ca 01       	movw	r24, r20
     4c6:	b9 01       	movw	r22, r18
     4c8:	2a e0       	ldi	r18, 0x0A	; 10
     4ca:	30 e0       	ldi	r19, 0x00	; 0
     4cc:	40 e0       	ldi	r20, 0x00	; 0
     4ce:	50 e0       	ldi	r21, 0x00	; 0
     4d0:	0e 94 cb 0f 	call	0x1f96	; 0x1f96 <__mulsi3>
     4d4:	6a 5f       	subi	r22, 0xFA	; 250
     4d6:	7f 4f       	sbci	r23, 0xFF	; 255
     4d8:	8f 4f       	sbci	r24, 0xFF	; 255
     4da:	9f 4f       	sbci	r25, 0xFF	; 255
     4dc:	98 01       	movw	r18, r16
     4de:	44 27       	eor	r20, r20
     4e0:	37 fd       	sbrc	r19, 7
     4e2:	40 95       	com	r20
     4e4:	54 2f       	mov	r21, r20
     4e6:	0e 94 cb 0f 	call	0x1f96	; 0x1f96 <__mulsi3>
     4ea:	70 93 61 02 	sts	0x0261, r23
     4ee:	60 93 60 02 	sts	0x0260, r22

			if (labs((int16)ADC - 560) < TOLERANCE)
     4f2:	80 91 78 00 	lds	r24, 0x0078
     4f6:	90 91 79 00 	lds	r25, 0x0079
     4fa:	80 53       	subi	r24, 0x30	; 48
     4fc:	92 40       	sbci	r25, 0x02	; 2
     4fe:	9c 01       	movw	r18, r24
     500:	44 27       	eor	r20, r20
     502:	37 fd       	sbrc	r19, 7
     504:	40 95       	com	r20
     506:	54 2f       	mov	r21, r20
     508:	57 ff       	sbrs	r21, 7
     50a:	07 c0       	rjmp	.+14     	; 0x51a <__vector_21+0x474>
     50c:	50 95       	com	r21
     50e:	40 95       	com	r20
     510:	30 95       	com	r19
     512:	21 95       	neg	r18
     514:	3f 4f       	sbci	r19, 0xFF	; 255
     516:	4f 4f       	sbci	r20, 0xFF	; 255
     518:	5f 4f       	sbci	r21, 0xFF	; 255
     51a:	29 30       	cpi	r18, 0x09	; 9
     51c:	31 05       	cpc	r19, r1
     51e:	41 05       	cpc	r20, r1
     520:	51 05       	cpc	r21, r1
     522:	6c f5       	brge	.+90     	; 0x57e <__vector_21+0x4d8>
				angle = (labs(angle)*10+7)*module;
     524:	80 91 60 02 	lds	r24, 0x0260
     528:	90 91 61 02 	lds	r25, 0x0261
     52c:	00 91 39 01 	lds	r16, 0x0139
     530:	10 91 3a 01 	lds	r17, 0x013A
     534:	9c 01       	movw	r18, r24
     536:	44 27       	eor	r20, r20
     538:	37 fd       	sbrc	r19, 7
     53a:	40 95       	com	r20
     53c:	54 2f       	mov	r21, r20
     53e:	57 ff       	sbrs	r21, 7
     540:	07 c0       	rjmp	.+14     	; 0x550 <__vector_21+0x4aa>
     542:	50 95       	com	r21
     544:	40 95       	com	r20
     546:	30 95       	com	r19
     548:	21 95       	neg	r18
     54a:	3f 4f       	sbci	r19, 0xFF	; 255
     54c:	4f 4f       	sbci	r20, 0xFF	; 255
     54e:	5f 4f       	sbci	r21, 0xFF	; 255
     550:	ca 01       	movw	r24, r20
     552:	b9 01       	movw	r22, r18
     554:	2a e0       	ldi	r18, 0x0A	; 10
     556:	30 e0       	ldi	r19, 0x00	; 0
     558:	40 e0       	ldi	r20, 0x00	; 0
     55a:	50 e0       	ldi	r21, 0x00	; 0
     55c:	0e 94 cb 0f 	call	0x1f96	; 0x1f96 <__mulsi3>
     560:	69 5f       	subi	r22, 0xF9	; 249
     562:	7f 4f       	sbci	r23, 0xFF	; 255
     564:	8f 4f       	sbci	r24, 0xFF	; 255
     566:	9f 4f       	sbci	r25, 0xFF	; 255
     568:	98 01       	movw	r18, r16
     56a:	44 27       	eor	r20, r20
     56c:	37 fd       	sbrc	r19, 7
     56e:	40 95       	com	r20
     570:	54 2f       	mov	r21, r20
     572:	0e 94 cb 0f 	call	0x1f96	; 0x1f96 <__mulsi3>
     576:	70 93 61 02 	sts	0x0261, r23
     57a:	60 93 60 02 	sts	0x0260, r22

			if (labs((int16)ADC - 542) < TOLERANCE)
     57e:	80 91 78 00 	lds	r24, 0x0078
     582:	90 91 79 00 	lds	r25, 0x0079
     586:	8e 51       	subi	r24, 0x1E	; 30
     588:	92 40       	sbci	r25, 0x02	; 2
     58a:	9c 01       	movw	r18, r24
     58c:	44 27       	eor	r20, r20
     58e:	37 fd       	sbrc	r19, 7
     590:	40 95       	com	r20
     592:	54 2f       	mov	r21, r20
     594:	57 ff       	sbrs	r21, 7
     596:	07 c0       	rjmp	.+14     	; 0x5a6 <__vector_21+0x500>
     598:	50 95       	com	r21
     59a:	40 95       	com	r20
     59c:	30 95       	com	r19
     59e:	21 95       	neg	r18
     5a0:	3f 4f       	sbci	r19, 0xFF	; 255
     5a2:	4f 4f       	sbci	r20, 0xFF	; 255
     5a4:	5f 4f       	sbci	r21, 0xFF	; 255
     5a6:	29 30       	cpi	r18, 0x09	; 9
     5a8:	31 05       	cpc	r19, r1
     5aa:	41 05       	cpc	r20, r1
     5ac:	51 05       	cpc	r21, r1
     5ae:	6c f5       	brge	.+90     	; 0x60a <__vector_21+0x564>
				angle = (labs(angle)*10+8)*module;
     5b0:	80 91 60 02 	lds	r24, 0x0260
     5b4:	90 91 61 02 	lds	r25, 0x0261
     5b8:	00 91 39 01 	lds	r16, 0x0139
     5bc:	10 91 3a 01 	lds	r17, 0x013A
     5c0:	9c 01       	movw	r18, r24
     5c2:	44 27       	eor	r20, r20
     5c4:	37 fd       	sbrc	r19, 7
     5c6:	40 95       	com	r20
     5c8:	54 2f       	mov	r21, r20
     5ca:	57 ff       	sbrs	r21, 7
     5cc:	07 c0       	rjmp	.+14     	; 0x5dc <__vector_21+0x536>
     5ce:	50 95       	com	r21
     5d0:	40 95       	com	r20
     5d2:	30 95       	com	r19
     5d4:	21 95       	neg	r18
     5d6:	3f 4f       	sbci	r19, 0xFF	; 255
     5d8:	4f 4f       	sbci	r20, 0xFF	; 255
     5da:	5f 4f       	sbci	r21, 0xFF	; 255
     5dc:	ca 01       	movw	r24, r20
     5de:	b9 01       	movw	r22, r18
     5e0:	2a e0       	ldi	r18, 0x0A	; 10
     5e2:	30 e0       	ldi	r19, 0x00	; 0
     5e4:	40 e0       	ldi	r20, 0x00	; 0
     5e6:	50 e0       	ldi	r21, 0x00	; 0
     5e8:	0e 94 cb 0f 	call	0x1f96	; 0x1f96 <__mulsi3>
     5ec:	68 5f       	subi	r22, 0xF8	; 248
     5ee:	7f 4f       	sbci	r23, 0xFF	; 255
     5f0:	8f 4f       	sbci	r24, 0xFF	; 255
     5f2:	9f 4f       	sbci	r25, 0xFF	; 255
     5f4:	98 01       	movw	r18, r16
     5f6:	44 27       	eor	r20, r20
     5f8:	37 fd       	sbrc	r19, 7
     5fa:	40 95       	com	r20
     5fc:	54 2f       	mov	r21, r20
     5fe:	0e 94 cb 0f 	call	0x1f96	; 0x1f96 <__mulsi3>
     602:	70 93 61 02 	sts	0x0261, r23
     606:	60 93 60 02 	sts	0x0260, r22

			if (labs((int16)ADC - 522) < TOLERANCE)
     60a:	80 91 78 00 	lds	r24, 0x0078
     60e:	90 91 79 00 	lds	r25, 0x0079
     612:	8a 50       	subi	r24, 0x0A	; 10
     614:	92 40       	sbci	r25, 0x02	; 2
     616:	9c 01       	movw	r18, r24
     618:	44 27       	eor	r20, r20
     61a:	37 fd       	sbrc	r19, 7
     61c:	40 95       	com	r20
     61e:	54 2f       	mov	r21, r20
     620:	57 ff       	sbrs	r21, 7
     622:	07 c0       	rjmp	.+14     	; 0x632 <__vector_21+0x58c>
     624:	50 95       	com	r21
     626:	40 95       	com	r20
     628:	30 95       	com	r19
     62a:	21 95       	neg	r18
     62c:	3f 4f       	sbci	r19, 0xFF	; 255
     62e:	4f 4f       	sbci	r20, 0xFF	; 255
     630:	5f 4f       	sbci	r21, 0xFF	; 255
     632:	29 30       	cpi	r18, 0x09	; 9
     634:	31 05       	cpc	r19, r1
     636:	41 05       	cpc	r20, r1
     638:	51 05       	cpc	r21, r1
     63a:	6c f5       	brge	.+90     	; 0x696 <__vector_21+0x5f0>
				angle = (labs(angle)*10+9)*module;
     63c:	80 91 60 02 	lds	r24, 0x0260
     640:	90 91 61 02 	lds	r25, 0x0261
     644:	00 91 39 01 	lds	r16, 0x0139
     648:	10 91 3a 01 	lds	r17, 0x013A
     64c:	9c 01       	movw	r18, r24
     64e:	44 27       	eor	r20, r20
     650:	37 fd       	sbrc	r19, 7
     652:	40 95       	com	r20
     654:	54 2f       	mov	r21, r20
     656:	57 ff       	sbrs	r21, 7
     658:	07 c0       	rjmp	.+14     	; 0x668 <__vector_21+0x5c2>
     65a:	50 95       	com	r21
     65c:	40 95       	com	r20
     65e:	30 95       	com	r19
     660:	21 95       	neg	r18
     662:	3f 4f       	sbci	r19, 0xFF	; 255
     664:	4f 4f       	sbci	r20, 0xFF	; 255
     666:	5f 4f       	sbci	r21, 0xFF	; 255
     668:	ca 01       	movw	r24, r20
     66a:	b9 01       	movw	r22, r18
     66c:	2a e0       	ldi	r18, 0x0A	; 10
     66e:	30 e0       	ldi	r19, 0x00	; 0
     670:	40 e0       	ldi	r20, 0x00	; 0
     672:	50 e0       	ldi	r21, 0x00	; 0
     674:	0e 94 cb 0f 	call	0x1f96	; 0x1f96 <__mulsi3>
     678:	67 5f       	subi	r22, 0xF7	; 247
     67a:	7f 4f       	sbci	r23, 0xFF	; 255
     67c:	8f 4f       	sbci	r24, 0xFF	; 255
     67e:	9f 4f       	sbci	r25, 0xFF	; 255
     680:	98 01       	movw	r18, r16
     682:	44 27       	eor	r20, r20
     684:	37 fd       	sbrc	r19, 7
     686:	40 95       	com	r20
     688:	54 2f       	mov	r21, r20
     68a:	0e 94 cb 0f 	call	0x1f96	; 0x1f96 <__mulsi3>
     68e:	70 93 61 02 	sts	0x0261, r23
     692:	60 93 60 02 	sts	0x0260, r22

			if (labs((int16)ADC - 248) < TOLERANCE){
     696:	80 91 78 00 	lds	r24, 0x0078
     69a:	90 91 79 00 	lds	r25, 0x0079
     69e:	88 5f       	subi	r24, 0xF8	; 248
     6a0:	90 40       	sbci	r25, 0x00	; 0
     6a2:	9c 01       	movw	r18, r24
     6a4:	44 27       	eor	r20, r20
     6a6:	37 fd       	sbrc	r19, 7
     6a8:	40 95       	com	r20
     6aa:	54 2f       	mov	r21, r20
     6ac:	57 ff       	sbrs	r21, 7
     6ae:	07 c0       	rjmp	.+14     	; 0x6be <__vector_21+0x618>
     6b0:	50 95       	com	r21
     6b2:	40 95       	com	r20
     6b4:	30 95       	com	r19
     6b6:	21 95       	neg	r18
     6b8:	3f 4f       	sbci	r19, 0xFF	; 255
     6ba:	4f 4f       	sbci	r20, 0xFF	; 255
     6bc:	5f 4f       	sbci	r21, 0xFF	; 255
     6be:	29 30       	cpi	r18, 0x09	; 9
     6c0:	31 05       	cpc	r19, r1
     6c2:	41 05       	cpc	r20, r1
     6c4:	51 05       	cpc	r21, r1
     6c6:	74 f4       	brge	.+28     	; 0x6e4 <__vector_21+0x63e>
				//module = (module == 1) ? -1 : 1;
				module *= -1;
     6c8:	80 91 39 01 	lds	r24, 0x0139
     6cc:	90 91 3a 01 	lds	r25, 0x013A
     6d0:	90 95       	com	r25
     6d2:	81 95       	neg	r24
     6d4:	9f 4f       	sbci	r25, 0xFF	; 255
     6d6:	90 93 3a 01 	sts	0x013A, r25
     6da:	80 93 39 01 	sts	0x0139, r24
				state = UPDATE_DISPLAY;
     6de:	82 e0       	ldi	r24, 0x02	; 2
     6e0:	80 93 37 01 	sts	0x0137, r24
					module = -1;
				else
					module = 1;*/
			}

			if (labs((int16)ADC - 79) < TOLERANCE)
     6e4:	80 91 78 00 	lds	r24, 0x0078
     6e8:	90 91 79 00 	lds	r25, 0x0079
     6ec:	8f 54       	subi	r24, 0x4F	; 79
     6ee:	90 40       	sbci	r25, 0x00	; 0
     6f0:	9c 01       	movw	r18, r24
     6f2:	44 27       	eor	r20, r20
     6f4:	37 fd       	sbrc	r19, 7
     6f6:	40 95       	com	r20
     6f8:	54 2f       	mov	r21, r20
     6fa:	57 ff       	sbrs	r21, 7
     6fc:	07 c0       	rjmp	.+14     	; 0x70c <__vector_21+0x666>
     6fe:	50 95       	com	r21
     700:	40 95       	com	r20
     702:	30 95       	com	r19
     704:	21 95       	neg	r18
     706:	3f 4f       	sbci	r19, 0xFF	; 255
     708:	4f 4f       	sbci	r20, 0xFF	; 255
     70a:	5f 4f       	sbci	r21, 0xFF	; 255
     70c:	29 30       	cpi	r18, 0x09	; 9
     70e:	31 05       	cpc	r19, r1
     710:	41 05       	cpc	r20, r1
     712:	51 05       	cpc	r21, r1
     714:	1c f4       	brge	.+6      	; 0x71c <__vector_21+0x676>
				state = MOVE_MOTOR;
     716:	83 e0       	ldi	r24, 0x03	; 3
     718:	80 93 37 01 	sts	0x0137, r24

			if (labs((int16)ADC - 204) < TOLERANCE)
     71c:	80 91 78 00 	lds	r24, 0x0078
     720:	90 91 79 00 	lds	r25, 0x0079
     724:	8c 5c       	subi	r24, 0xCC	; 204
     726:	90 40       	sbci	r25, 0x00	; 0
     728:	9c 01       	movw	r18, r24
     72a:	44 27       	eor	r20, r20
     72c:	37 fd       	sbrc	r19, 7
     72e:	40 95       	com	r20
     730:	54 2f       	mov	r21, r20
     732:	57 ff       	sbrs	r21, 7
     734:	07 c0       	rjmp	.+14     	; 0x744 <__vector_21+0x69e>
     736:	50 95       	com	r21
     738:	40 95       	com	r20
     73a:	30 95       	com	r19
     73c:	21 95       	neg	r18
     73e:	3f 4f       	sbci	r19, 0xFF	; 255
     740:	4f 4f       	sbci	r20, 0xFF	; 255
     742:	5f 4f       	sbci	r21, 0xFF	; 255
     744:	29 30       	cpi	r18, 0x09	; 9
     746:	31 05       	cpc	r19, r1
     748:	41 05       	cpc	r20, r1
     74a:	51 05       	cpc	r21, r1
     74c:	24 f4       	brge	.+8      	; 0x756 <__vector_21+0x6b0>
				angle = 0;
     74e:	10 92 61 02 	sts	0x0261, r1
     752:	10 92 60 02 	sts	0x0260, r1

			if (angle > 135)
     756:	80 91 60 02 	lds	r24, 0x0260
     75a:	90 91 61 02 	lds	r25, 0x0261
     75e:	88 38       	cpi	r24, 0x88	; 136
     760:	91 05       	cpc	r25, r1
     762:	34 f0       	brlt	.+12     	; 0x770 <__vector_21+0x6ca>
				angle = 135;
     764:	87 e8       	ldi	r24, 0x87	; 135
     766:	90 e0       	ldi	r25, 0x00	; 0
     768:	90 93 61 02 	sts	0x0261, r25
     76c:	80 93 60 02 	sts	0x0260, r24

			if (angle < -135)
     770:	80 91 60 02 	lds	r24, 0x0260
     774:	90 91 61 02 	lds	r25, 0x0261
     778:	89 57       	subi	r24, 0x79	; 121
     77a:	9f 4f       	sbci	r25, 0xFF	; 255
     77c:	34 f4       	brge	.+12     	; 0x78a <__vector_21+0x6e4>
				angle = -135;
     77e:	89 e7       	ldi	r24, 0x79	; 121
     780:	9f ef       	ldi	r25, 0xFF	; 255
     782:	90 93 61 02 	sts	0x0261, r25
     786:	80 93 60 02 	sts	0x0260, r24
		}
		
		adc_state = READ_MOTOR;
     78a:	82 e0       	ldi	r24, 0x02	; 2
     78c:	80 93 38 01 	sts	0x0138, r24
		last_read = ADC;
     790:	80 91 78 00 	lds	r24, 0x0078
     794:	90 91 79 00 	lds	r25, 0x0079
     798:	90 93 68 02 	sts	0x0268, r25
     79c:	80 93 67 02 	sts	0x0267, r24
     7a0:	26 c0       	rjmp	.+76     	; 0x7ee <__vector_21+0x748>
		break;

	case READ_MOTOR:
		motor_angle =	((((double)ADC*270)/1024.0)-135.0)*-1;
     7a2:	60 91 78 00 	lds	r22, 0x0078
     7a6:	70 91 79 00 	lds	r23, 0x0079
     7aa:	80 e0       	ldi	r24, 0x00	; 0
     7ac:	90 e0       	ldi	r25, 0x00	; 0
     7ae:	0e 94 b6 0d 	call	0x1b6c	; 0x1b6c <__floatunsisf>
     7b2:	20 e0       	ldi	r18, 0x00	; 0
     7b4:	30 e0       	ldi	r19, 0x00	; 0
     7b6:	47 e8       	ldi	r20, 0x87	; 135
     7b8:	53 e4       	ldi	r21, 0x43	; 67
     7ba:	0e 94 68 0c 	call	0x18d0	; 0x18d0 <__mulsf3>
     7be:	20 e0       	ldi	r18, 0x00	; 0
     7c0:	30 e0       	ldi	r19, 0x00	; 0
     7c2:	40 e8       	ldi	r20, 0x80	; 128
     7c4:	5a e3       	ldi	r21, 0x3A	; 58
     7c6:	0e 94 68 0c 	call	0x18d0	; 0x18d0 <__mulsf3>
     7ca:	20 e0       	ldi	r18, 0x00	; 0
     7cc:	30 e0       	ldi	r19, 0x00	; 0
     7ce:	47 e0       	ldi	r20, 0x07	; 7
     7d0:	53 e4       	ldi	r21, 0x43	; 67
     7d2:	0e 94 0a 0c 	call	0x1814	; 0x1814 <__subsf3>
     7d6:	90 58       	subi	r25, 0x80	; 128
     7d8:	60 93 63 02 	sts	0x0263, r22
     7dc:	70 93 64 02 	sts	0x0264, r23
     7e0:	80 93 65 02 	sts	0x0265, r24
     7e4:	90 93 66 02 	sts	0x0266, r25
		adc_state = READ_KEYPAD;
     7e8:	81 e0       	ldi	r24, 0x01	; 1
     7ea:	80 93 38 01 	sts	0x0138, r24
		break;
	}
	if (state != MOVE_MOTOR)
     7ee:	80 91 37 01 	lds	r24, 0x0137
     7f2:	83 30       	cpi	r24, 0x03	; 3
     7f4:	19 f0       	breq	.+6      	; 0x7fc <__vector_21+0x756>
		state = UPDATE_DISPLAY;
     7f6:	82 e0       	ldi	r24, 0x02	; 2
     7f8:	80 93 37 01 	sts	0x0137, r24
}	
     7fc:	ff 91       	pop	r31
     7fe:	ef 91       	pop	r30
     800:	bf 91       	pop	r27
     802:	af 91       	pop	r26
     804:	9f 91       	pop	r25
     806:	8f 91       	pop	r24
     808:	7f 91       	pop	r23
     80a:	6f 91       	pop	r22
     80c:	5f 91       	pop	r21
     80e:	4f 91       	pop	r20
     810:	3f 91       	pop	r19
     812:	2f 91       	pop	r18
     814:	1f 91       	pop	r17
     816:	0f 91       	pop	r16
     818:	ff 90       	pop	r15
     81a:	ef 90       	pop	r14
     81c:	0f 90       	pop	r0
     81e:	0f be       	out	0x3f, r0	; 63
     820:	0f 90       	pop	r0
     822:	1f 90       	pop	r1
     824:	18 95       	reti

00000826 <__vector_11>:

ISR(TIMER1_COMPA_vect)
{
     826:	1f 92       	push	r1
     828:	0f 92       	push	r0
     82a:	0f b6       	in	r0, 0x3f	; 63
     82c:	0f 92       	push	r0
     82e:	11 24       	eor	r1, r1
     830:	8f 93       	push	r24
	switch (adc_state){
     832:	80 91 38 01 	lds	r24, 0x0138
     836:	81 30       	cpi	r24, 0x01	; 1
     838:	19 f0       	breq	.+6      	; 0x840 <__vector_11+0x1a>
     83a:	82 30       	cpi	r24, 0x02	; 2
     83c:	b1 f4       	brne	.+44     	; 0x86a <__vector_11+0x44>
     83e:	09 c0       	rjmp	.+18     	; 0x852 <__vector_11+0x2c>
	case READ_KEYPAD:
		adcSelectChannel(ADC0);
     840:	80 91 7c 00 	lds	r24, 0x007C
     844:	80 7f       	andi	r24, 0xF0	; 240
     846:	80 93 7c 00 	sts	0x007C, r24
     84a:	80 91 b4 02 	lds	r24, 0x02B4
     84e:	83 7c       	andi	r24, 0xC3	; 195
     850:	0a c0       	rjmp	.+20     	; 0x866 <__vector_11+0x40>
		break;

	case READ_MOTOR:
		adcSelectChannel(ADC1);
     852:	80 91 7c 00 	lds	r24, 0x007C
     856:	80 7f       	andi	r24, 0xF0	; 240
     858:	81 60       	ori	r24, 0x01	; 1
     85a:	80 93 7c 00 	sts	0x007C, r24
     85e:	80 91 b4 02 	lds	r24, 0x02B4
     862:	83 7c       	andi	r24, 0xC3	; 195
     864:	84 60       	ori	r24, 0x04	; 4
     866:	80 93 b4 02 	sts	0x02B4, r24
		break;

	}

	adcStartConversion();
     86a:	80 91 7a 00 	lds	r24, 0x007A
     86e:	80 64       	ori	r24, 0x40	; 64
     870:	80 93 7a 00 	sts	0x007A, r24

}
     874:	8f 91       	pop	r24
     876:	0f 90       	pop	r0
     878:	0f be       	out	0x3f, r0	; 63
     87a:	0f 90       	pop	r0
     87c:	1f 90       	pop	r1
     87e:	18 95       	reti

00000880 <main>:
volatile int 	module = 1;


// Main function
int main()
{	
     880:	ef 92       	push	r14
     882:	ff 92       	push	r15
     884:	0f 93       	push	r16
     886:	1f 93       	push	r17
     888:	cf 93       	push	r28
     88a:	df 93       	push	r29
	//Port configuration
	setBit(DDRD, PD0);
     88c:	50 9a       	sbi	0x0a, 0	; 10
	setBit(MOTOR_DDR, MOTOR_1_PIN);
     88e:	3c 9a       	sbi	0x07, 4	; 7
	setBit(MOTOR_DDR, MOTOR_2_PIN);
     890:	3d 9a       	sbi	0x07, 5	; 7


	//LCD configuration
	lcdInit();
     892:	0e 94 ce 05 	call	0xb9c	; 0xb9c <lcdInit>
	lcdStdio();
     896:	8b e3       	ldi	r24, 0x3B	; 59
     898:	91 e0       	ldi	r25, 0x01	; 1
     89a:	90 93 be 02 	sts	0x02BE, r25
     89e:	80 93 bd 02 	sts	0x02BD, r24
     8a2:	90 93 bc 02 	sts	0x02BC, r25
     8a6:	80 93 bb 02 	sts	0x02BB, r24
     8aa:	90 93 ba 02 	sts	0x02BA, r25
     8ae:	80 93 b9 02 	sts	0x02B9, r24
	printf("  Atividade 2  \n  Leonardo S.  \n");
     8b2:	80 e0       	ldi	r24, 0x00	; 0
     8b4:	91 e0       	ldi	r25, 0x01	; 1
     8b6:	0e 94 58 10 	call	0x20b0	; 0x20b0 <puts>
     8ba:	88 e8       	ldi	r24, 0x88	; 136
     8bc:	93 e1       	ldi	r25, 0x13	; 19
    milliseconds can be achieved.
 */
void
_delay_loop_2(uint16_t __count)
{
	__asm__ volatile (
     8be:	20 e9       	ldi	r18, 0x90	; 144
     8c0:	31 e0       	ldi	r19, 0x01	; 1
     8c2:	f9 01       	movw	r30, r18
     8c4:	31 97       	sbiw	r30, 0x01	; 1
     8c6:	f1 f7       	brne	.-4      	; 0x8c4 <main+0x44>
		__ticks = (uint16_t) (__ms * 10.0);
		while(__ticks)
		{
			// wait 1/10 ms
			_delay_loop_2(((F_CPU) / 4e3) / 10);
			__ticks --;
     8c8:	01 97       	sbiw	r24, 0x01	; 1
		__ticks = 1;
	else if (__tmp > 65535)
	{
		//	__ticks = requested delay in 1/10 ms
		__ticks = (uint16_t) (__ms * 10.0);
		while(__ticks)
     8ca:	d9 f7       	brne	.-10     	; 0x8c2 <main+0x42>
	_delay_ms(500);
	lcdClearScreen();
     8cc:	10 92 69 02 	sts	0x0269, r1
     8d0:	81 e0       	ldi	r24, 0x01	; 1
     8d2:	0e 94 a7 05 	call	0xb4e	; 0xb4e <lcdCommand>
	

	//ADC configfuration 
	adcReferenceAvcc();
     8d6:	80 91 7c 00 	lds	r24, 0x007C
     8da:	8f 77       	andi	r24, 0x7F	; 127
     8dc:	80 93 7c 00 	sts	0x007C, r24
     8e0:	80 91 7c 00 	lds	r24, 0x007C
     8e4:	80 64       	ori	r24, 0x40	; 64
     8e6:	80 93 7c 00 	sts	0x007C, r24
     8ea:	90 91 b3 02 	lds	r25, 0x02B3
     8ee:	9c 7f       	andi	r25, 0xFC	; 252
     8f0:	89 2f       	mov	r24, r25
     8f2:	81 60       	ori	r24, 0x01	; 1
     8f4:	80 93 b3 02 	sts	0x02B3, r24
	adcClockPrescaler128();
     8f8:	80 91 7a 00 	lds	r24, 0x007A
     8fc:	84 60       	ori	r24, 0x04	; 4
     8fe:	80 93 7a 00 	sts	0x007A, r24
     902:	80 91 7a 00 	lds	r24, 0x007A
     906:	82 60       	ori	r24, 0x02	; 2
     908:	80 93 7a 00 	sts	0x007A, r24
     90c:	80 91 7a 00 	lds	r24, 0x007A
     910:	81 60       	ori	r24, 0x01	; 1
     912:	80 93 7a 00 	sts	0x007A, r24
     916:	9d 61       	ori	r25, 0x1D	; 29
     918:	90 93 b3 02 	sts	0x02B3, r25
	adcSelectChannel(ADC1);
     91c:	80 91 7c 00 	lds	r24, 0x007C
     920:	80 7f       	andi	r24, 0xF0	; 240
     922:	81 60       	ori	r24, 0x01	; 1
     924:	80 93 7c 00 	sts	0x007C, r24
     928:	90 91 b4 02 	lds	r25, 0x02B4
     92c:	93 7c       	andi	r25, 0xC3	; 195
     92e:	94 60       	ori	r25, 0x04	; 4
     930:	90 93 b4 02 	sts	0x02B4, r25
	adcDisableDigitalInput0();
     934:	80 91 7e 00 	lds	r24, 0x007E
     938:	81 60       	ori	r24, 0x01	; 1
     93a:	80 93 7e 00 	sts	0x007E, r24
     93e:	20 91 b5 02 	lds	r18, 0x02B5
	adcDisableDigitalInput1();
     942:	80 91 7e 00 	lds	r24, 0x007E
     946:	82 60       	ori	r24, 0x02	; 2
     948:	80 93 7e 00 	sts	0x007E, r24
     94c:	9f 73       	andi	r25, 0x3F	; 63
     94e:	90 6c       	ori	r25, 0xC0	; 192
     950:	90 93 b4 02 	sts	0x02B4, r25
	
	adcActivateInterrupt();
     954:	80 91 7a 00 	lds	r24, 0x007A
     958:	88 60       	ori	r24, 0x08	; 8
     95a:	80 93 7a 00 	sts	0x007A, r24
     95e:	82 2f       	mov	r24, r18
     960:	80 62       	ori	r24, 0x20	; 32
     962:	80 93 b5 02 	sts	0x02B5, r24
	adcEnable();
     966:	80 91 7a 00 	lds	r24, 0x007A
     96a:	80 68       	ori	r24, 0x80	; 128
     96c:	80 93 7a 00 	sts	0x007A, r24
     970:	20 63       	ori	r18, 0x30	; 48
     972:	20 93 b5 02 	sts	0x02B5, r18


	//Timer configuration
	timer1CTCMode();
     976:	80 91 81 00 	lds	r24, 0x0081
     97a:	8f 7e       	andi	r24, 0xEF	; 239
     97c:	80 93 81 00 	sts	0x0081, r24
     980:	80 91 81 00 	lds	r24, 0x0081
     984:	88 60       	ori	r24, 0x08	; 8
     986:	80 93 81 00 	sts	0x0081, r24
     98a:	80 91 80 00 	lds	r24, 0x0080
     98e:	8d 7f       	andi	r24, 0xFD	; 253
     990:	80 93 80 00 	sts	0x0080, r24
     994:	80 91 80 00 	lds	r24, 0x0080
     998:	8e 7f       	andi	r24, 0xFE	; 254
     99a:	80 93 80 00 	sts	0x0080, r24
	timer1ClockPrescaller8();
     99e:	80 91 81 00 	lds	r24, 0x0081
     9a2:	8b 7f       	andi	r24, 0xFB	; 251
     9a4:	80 93 81 00 	sts	0x0081, r24
     9a8:	80 91 81 00 	lds	r24, 0x0081
     9ac:	82 60       	ori	r24, 0x02	; 2
     9ae:	80 93 81 00 	sts	0x0081, r24
     9b2:	80 91 81 00 	lds	r24, 0x0081
     9b6:	8e 7f       	andi	r24, 0xFE	; 254
     9b8:	80 93 81 00 	sts	0x0081, r24
	timer1SetCompareAValue(10000);
     9bc:	80 e1       	ldi	r24, 0x10	; 16
     9be:	97 e2       	ldi	r25, 0x27	; 39
     9c0:	0e 94 90 07 	call	0xf20	; 0xf20 <timer1SetCompareAValue>
	timer1ClearCompareAInterruptRequest();
     9c4:	b1 9a       	sbi	0x16, 1	; 22
	timer1ActivateCompareAInterrupt();
     9c6:	80 91 6f 00 	lds	r24, 0x006F
     9ca:	82 60       	ori	r24, 0x02	; 2
     9cc:	80 93 6f 00 	sts	0x006F, r24
	timer0CTCMode();
	timer0ActivateCompareAInterrupt();
	timer0SetCompareAValue(155);*/


	sei();
     9d0:	78 94       	sei
			printf("Angle = %d\nMotor = %d\n", angle, (int)motor_angle);
			state = IDLE;
			break;

		case MOVE_MOTOR:
			printf("Angle = %d\nMotor = %d\n", angle, (int)motor_angle);
     9d2:	c0 e2       	ldi	r28, 0x20	; 32
     9d4:	d1 e0       	ldi	r29, 0x01	; 1
			if ((int)motor_angle - 2 < angle && (int)motor_angle + 2 > angle){
				clrBit(MOTOR_PORT, MOTOR_1_PIN);
				clrBit(MOTOR_PORT, MOTOR_2_PIN);

				clear_angle = 1;
     9d6:	ff 24       	eor	r15, r15
     9d8:	f3 94       	inc	r15

				setBit(PORTD, PD0);
				clrBit(PORTD, PD0);

				state = UPDATE_DISPLAY;
     9da:	e2 e0       	ldi	r30, 0x02	; 2
     9dc:	ee 2e       	mov	r14, r30


	sei();

	while(1){
		switch(state){
     9de:	80 91 37 01 	lds	r24, 0x0137
     9e2:	82 30       	cpi	r24, 0x02	; 2
     9e4:	39 f0       	breq	.+14     	; 0x9f4 <__stack+0xf5>
     9e6:	83 30       	cpi	r24, 0x03	; 3
     9e8:	89 f1       	breq	.+98     	; 0xa4c <__stack+0x14d>
     9ea:	81 30       	cpi	r24, 0x01	; 1
     9ec:	c1 f7       	brne	.-16     	; 0x9de <__stack+0xdf>
		case IDLE:
			setBit(PORTD, PD0);
     9ee:	58 9a       	sbi	0x0b, 0	; 11
			clrBit(PORTD, PD0);
     9f0:	58 98       	cbi	0x0b, 0	; 11
     9f2:	f5 cf       	rjmp	.-22     	; 0x9de <__stack+0xdf>
			break;
		
		case UPDATE_DISPLAY:
			printf("Angle = %d\nMotor = %d\n", angle, (int)motor_angle);
     9f4:	20 91 60 02 	lds	r18, 0x0260
     9f8:	30 91 61 02 	lds	r19, 0x0261
     9fc:	60 91 63 02 	lds	r22, 0x0263
     a00:	70 91 64 02 	lds	r23, 0x0264
     a04:	80 91 65 02 	lds	r24, 0x0265
     a08:	90 91 66 02 	lds	r25, 0x0266
     a0c:	00 d0       	rcall	.+0      	; 0xa0e <__stack+0x10f>
     a0e:	00 d0       	rcall	.+0      	; 0xa10 <__stack+0x111>
     a10:	00 d0       	rcall	.+0      	; 0xa12 <__stack+0x113>
     a12:	0d b7       	in	r16, 0x3d	; 61
     a14:	1e b7       	in	r17, 0x3e	; 62
     a16:	0f 5f       	subi	r16, 0xFF	; 255
     a18:	1f 4f       	sbci	r17, 0xFF	; 255
     a1a:	ed b7       	in	r30, 0x3d	; 61
     a1c:	fe b7       	in	r31, 0x3e	; 62
     a1e:	d2 83       	std	Z+2, r29	; 0x02
     a20:	c1 83       	std	Z+1, r28	; 0x01
     a22:	f8 01       	movw	r30, r16
     a24:	33 83       	std	Z+3, r19	; 0x03
     a26:	22 83       	std	Z+2, r18	; 0x02
     a28:	0e 94 62 0d 	call	0x1ac4	; 0x1ac4 <__fixsfsi>
     a2c:	f8 01       	movw	r30, r16
     a2e:	75 83       	std	Z+5, r23	; 0x05
     a30:	64 83       	std	Z+4, r22	; 0x04
     a32:	0e 94 43 10 	call	0x2086	; 0x2086 <printf>
			state = IDLE;
     a36:	f0 92 37 01 	sts	0x0137, r15
     a3a:	8d b7       	in	r24, 0x3d	; 61
     a3c:	9e b7       	in	r25, 0x3e	; 62
     a3e:	06 96       	adiw	r24, 0x06	; 6
     a40:	0f b6       	in	r0, 0x3f	; 63
     a42:	f8 94       	cli
     a44:	9e bf       	out	0x3e, r25	; 62
     a46:	0f be       	out	0x3f, r0	; 63
     a48:	8d bf       	out	0x3d, r24	; 61
     a4a:	c9 cf       	rjmp	.-110    	; 0x9de <__stack+0xdf>
			break;

		case MOVE_MOTOR:
			printf("Angle = %d\nMotor = %d\n", angle, (int)motor_angle);
     a4c:	20 91 60 02 	lds	r18, 0x0260
     a50:	30 91 61 02 	lds	r19, 0x0261
     a54:	60 91 63 02 	lds	r22, 0x0263
     a58:	70 91 64 02 	lds	r23, 0x0264
     a5c:	80 91 65 02 	lds	r24, 0x0265
     a60:	90 91 66 02 	lds	r25, 0x0266
     a64:	00 d0       	rcall	.+0      	; 0xa66 <__stack+0x167>
     a66:	00 d0       	rcall	.+0      	; 0xa68 <__stack+0x169>
     a68:	00 d0       	rcall	.+0      	; 0xa6a <__stack+0x16b>
     a6a:	0d b7       	in	r16, 0x3d	; 61
     a6c:	1e b7       	in	r17, 0x3e	; 62
     a6e:	0f 5f       	subi	r16, 0xFF	; 255
     a70:	1f 4f       	sbci	r17, 0xFF	; 255
     a72:	ed b7       	in	r30, 0x3d	; 61
     a74:	fe b7       	in	r31, 0x3e	; 62
     a76:	d2 83       	std	Z+2, r29	; 0x02
     a78:	c1 83       	std	Z+1, r28	; 0x01
     a7a:	f8 01       	movw	r30, r16
     a7c:	33 83       	std	Z+3, r19	; 0x03
     a7e:	22 83       	std	Z+2, r18	; 0x02
     a80:	0e 94 62 0d 	call	0x1ac4	; 0x1ac4 <__fixsfsi>
     a84:	f8 01       	movw	r30, r16
     a86:	75 83       	std	Z+5, r23	; 0x05
     a88:	64 83       	std	Z+4, r22	; 0x04
     a8a:	0e 94 43 10 	call	0x2086	; 0x2086 <printf>
			if ((int)motor_angle - 2 < angle && (int)motor_angle + 2 > angle){
     a8e:	60 91 63 02 	lds	r22, 0x0263
     a92:	70 91 64 02 	lds	r23, 0x0264
     a96:	80 91 65 02 	lds	r24, 0x0265
     a9a:	90 91 66 02 	lds	r25, 0x0266
     a9e:	00 91 60 02 	lds	r16, 0x0260
     aa2:	10 91 61 02 	lds	r17, 0x0261
     aa6:	0e 94 62 0d 	call	0x1ac4	; 0x1ac4 <__fixsfsi>
     aaa:	61 50       	subi	r22, 0x01	; 1
     aac:	70 40       	sbci	r23, 0x00	; 0
     aae:	8d b7       	in	r24, 0x3d	; 61
     ab0:	9e b7       	in	r25, 0x3e	; 62
     ab2:	06 96       	adiw	r24, 0x06	; 6
     ab4:	0f b6       	in	r0, 0x3f	; 63
     ab6:	f8 94       	cli
     ab8:	9e bf       	out	0x3e, r25	; 62
     aba:	0f be       	out	0x3f, r0	; 63
     abc:	8d bf       	out	0x3d, r24	; 61
     abe:	06 17       	cp	r16, r22
     ac0:	17 07       	cpc	r17, r23
     ac2:	e4 f0       	brlt	.+56     	; 0xafc <__stack+0x1fd>
     ac4:	60 91 63 02 	lds	r22, 0x0263
     ac8:	70 91 64 02 	lds	r23, 0x0264
     acc:	80 91 65 02 	lds	r24, 0x0265
     ad0:	90 91 66 02 	lds	r25, 0x0266
     ad4:	00 91 60 02 	lds	r16, 0x0260
     ad8:	10 91 61 02 	lds	r17, 0x0261
     adc:	0e 94 62 0d 	call	0x1ac4	; 0x1ac4 <__fixsfsi>
     ae0:	6f 5f       	subi	r22, 0xFF	; 255
     ae2:	7f 4f       	sbci	r23, 0xFF	; 255
     ae4:	60 17       	cp	r22, r16
     ae6:	71 07       	cpc	r23, r17
     ae8:	4c f0       	brlt	.+18     	; 0xafc <__stack+0x1fd>
				clrBit(MOTOR_PORT, MOTOR_1_PIN);
     aea:	44 98       	cbi	0x08, 4	; 8
				clrBit(MOTOR_PORT, MOTOR_2_PIN);
     aec:	45 98       	cbi	0x08, 5	; 8

				clear_angle = 1;
     aee:	f0 92 62 02 	sts	0x0262, r15

				setBit(PORTD, PD0);
     af2:	58 9a       	sbi	0x0b, 0	; 11
				clrBit(PORTD, PD0);
     af4:	58 98       	cbi	0x0b, 0	; 11

				state = UPDATE_DISPLAY;
     af6:	e0 92 37 01 	sts	0x0137, r14
     afa:	71 cf       	rjmp	.-286    	; 0x9de <__stack+0xdf>
			}
			else if ((int)motor_angle < angle){
     afc:	60 91 63 02 	lds	r22, 0x0263
     b00:	70 91 64 02 	lds	r23, 0x0264
     b04:	80 91 65 02 	lds	r24, 0x0265
     b08:	90 91 66 02 	lds	r25, 0x0266
     b0c:	00 91 60 02 	lds	r16, 0x0260
     b10:	10 91 61 02 	lds	r17, 0x0261
     b14:	0e 94 62 0d 	call	0x1ac4	; 0x1ac4 <__fixsfsi>
     b18:	60 17       	cp	r22, r16
     b1a:	71 07       	cpc	r23, r17
     b1c:	1c f4       	brge	.+6      	; 0xb24 <__stack+0x225>
				setBit(MOTOR_PORT, MOTOR_1_PIN);
     b1e:	44 9a       	sbi	0x08, 4	; 8
				clrBit(MOTOR_PORT, MOTOR_2_PIN);
     b20:	45 98       	cbi	0x08, 5	; 8
     b22:	5d cf       	rjmp	.-326    	; 0x9de <__stack+0xdf>
			}
			else if ((int)motor_angle > angle){
     b24:	60 91 63 02 	lds	r22, 0x0263
     b28:	70 91 64 02 	lds	r23, 0x0264
     b2c:	80 91 65 02 	lds	r24, 0x0265
     b30:	90 91 66 02 	lds	r25, 0x0266
     b34:	00 91 60 02 	lds	r16, 0x0260
     b38:	10 91 61 02 	lds	r17, 0x0261
     b3c:	0e 94 62 0d 	call	0x1ac4	; 0x1ac4 <__fixsfsi>
     b40:	06 17       	cp	r16, r22
     b42:	17 07       	cpc	r17, r23
     b44:	0c f0       	brlt	.+2      	; 0xb48 <__stack+0x249>
     b46:	4b cf       	rjmp	.-362    	; 0x9de <__stack+0xdf>
				setBit(MOTOR_PORT, MOTOR_2_PIN);
     b48:	45 9a       	sbi	0x08, 5	; 8
				clrBit(MOTOR_PORT, MOTOR_1_PIN);
     b4a:	44 98       	cbi	0x08, 4	; 8
     b4c:	48 cf       	rjmp	.-368    	; 0x9de <__stack+0xdf>

00000b4e <lcdCommand>:
/* -----------------------------------------------------------------------------
 * Sends a command to the display module.
 * -------------------------------------------------------------------------- */

void lcdCommand(int8 command)
{
     b4e:	38 2f       	mov	r19, r24
	uint8 i = 2;

	LCD_DATA_PORT = (LCD_DATA_PORT & (~(0x0F << LCD_DATA_D4))) | ((command >> 4) << LCD_DATA_D4);
     b50:	85 b1       	in	r24, 0x05	; 5
     b52:	93 2f       	mov	r25, r19
     b54:	92 95       	swap	r25
     b56:	9f 70       	andi	r25, 0x0F	; 15
     b58:	80 7f       	andi	r24, 0xF0	; 240
     b5a:	98 2b       	or	r25, r24
     b5c:	95 b9       	out	0x05, r25	; 5
     b5e:	22 e0       	ldi	r18, 0x02	; 2
    can be achieved.
*/
void
_delay_loop_1(uint8_t __count)
{
	__asm__ volatile (
     b60:	55 e0       	ldi	r21, 0x05	; 5
    milliseconds can be achieved.
 */
void
_delay_loop_2(uint16_t __count)
{
	__asm__ volatile (
     b62:	e0 ef       	ldi	r30, 0xF0	; 240
     b64:	60 e4       	ldi	r22, 0x40	; 64
     b66:	7f e1       	ldi	r23, 0x1F	; 31
		_delay_us(1);
		clrBit(LCD_CONTROL_PORT, LCD_CONTROL_E);
		_delay_us(45);
		if(command < 4)
			_delay_ms(2);
		LCD_DATA_PORT = (LCD_DATA_PORT & (~(0x0F << LCD_DATA_D4))) | ((command & 0x0F) << LCD_DATA_D4);
     b68:	43 2f       	mov	r20, r19
     b6a:	4f 70       	andi	r20, 0x0F	; 15
{
	uint8 i = 2;

	LCD_DATA_PORT = (LCD_DATA_PORT & (~(0x0F << LCD_DATA_D4))) | ((command >> 4) << LCD_DATA_D4);
	do{
		clrBit(LCD_CONTROL_PORT, LCD_CONTROL_RS);
     b6c:	2d 98       	cbi	0x05, 5	; 5
    can be achieved.
*/
void
_delay_loop_1(uint8_t __count)
{
	__asm__ volatile (
     b6e:	85 2f       	mov	r24, r21
     b70:	8a 95       	dec	r24
     b72:	f1 f7       	brne	.-4      	; 0xb70 <lcdCommand+0x22>
		_delay_us(1);
		setBit(LCD_CONTROL_PORT, LCD_CONTROL_E);
     b74:	2c 9a       	sbi	0x05, 4	; 5
     b76:	85 2f       	mov	r24, r21
     b78:	8a 95       	dec	r24
     b7a:	f1 f7       	brne	.-4      	; 0xb78 <lcdCommand+0x2a>
		_delay_us(1);
		clrBit(LCD_CONTROL_PORT, LCD_CONTROL_E);
     b7c:	2c 98       	cbi	0x05, 4	; 5
     b7e:	8e 2f       	mov	r24, r30
     b80:	8a 95       	dec	r24
     b82:	f1 f7       	brne	.-4      	; 0xb80 <lcdCommand+0x32>
		_delay_us(45);
		if(command < 4)
     b84:	34 30       	cpi	r19, 0x04	; 4
     b86:	18 f4       	brcc	.+6      	; 0xb8e <lcdCommand+0x40>
    milliseconds can be achieved.
 */
void
_delay_loop_2(uint16_t __count)
{
	__asm__ volatile (
     b88:	cb 01       	movw	r24, r22
     b8a:	01 97       	sbiw	r24, 0x01	; 1
     b8c:	f1 f7       	brne	.-4      	; 0xb8a <lcdCommand+0x3c>
			_delay_ms(2);
		LCD_DATA_PORT = (LCD_DATA_PORT & (~(0x0F << LCD_DATA_D4))) | ((command & 0x0F) << LCD_DATA_D4);
     b8e:	85 b1       	in	r24, 0x05	; 5
     b90:	80 7f       	andi	r24, 0xF0	; 240
     b92:	84 2b       	or	r24, r20
     b94:	85 b9       	out	0x05, r24	; 5
		i--;
     b96:	21 50       	subi	r18, 0x01	; 1
	}while(i > 0);
     b98:	49 f7       	brne	.-46     	; 0xb6c <lcdCommand+0x1e>
	return;
}
     b9a:	08 95       	ret

00000b9c <lcdInit>:
 * Performs LCD module initialization.
 * -------------------------------------------------------------------------- */

void lcdInit(void)
{
	lcdIOConfigure();
     b9c:	85 b1       	in	r24, 0x05	; 5
     b9e:	80 7f       	andi	r24, 0xF0	; 240
     ba0:	85 b9       	out	0x05, r24	; 5
     ba2:	84 b1       	in	r24, 0x04	; 4
     ba4:	8f 60       	ori	r24, 0x0F	; 15
     ba6:	84 b9       	out	0x04, r24	; 4
     ba8:	85 b1       	in	r24, 0x05	; 5
     baa:	8f 7c       	andi	r24, 0xCF	; 207
     bac:	85 b9       	out	0x05, r24	; 5
     bae:	84 b1       	in	r24, 0x04	; 4
     bb0:	80 63       	ori	r24, 0x30	; 48
     bb2:	84 b9       	out	0x04, r24	; 4
	LCD_DATA_PORT = (LCD_DATA_PORT & (~(0x0F << LCD_DATA_D4))) | (0x03 << LCD_DATA_D4);
     bb4:	85 b1       	in	r24, 0x05	; 5
     bb6:	80 7f       	andi	r24, 0xF0	; 240
     bb8:	83 60       	ori	r24, 0x03	; 3
     bba:	85 b9       	out	0x05, r24	; 5
    can be achieved.
*/
void
_delay_loop_1(uint8_t __count)
{
	__asm__ volatile (
     bbc:	95 e0       	ldi	r25, 0x05	; 5
     bbe:	89 2f       	mov	r24, r25
     bc0:	8a 95       	dec	r24
     bc2:	f1 f7       	brne	.-4      	; 0xbc0 <lcdInit+0x24>
	_delay_us(1);
	setBit(LCD_CONTROL_PORT, LCD_CONTROL_E);
     bc4:	2c 9a       	sbi	0x05, 4	; 5
     bc6:	89 2f       	mov	r24, r25
     bc8:	8a 95       	dec	r24
     bca:	f1 f7       	brne	.-4      	; 0xbc8 <lcdInit+0x2c>
	_delay_us(1);
	clrBit(LCD_CONTROL_PORT, LCD_CONTROL_E);
     bcc:	2c 98       	cbi	0x05, 4	; 5
     bce:	20 ef       	ldi	r18, 0xF0	; 240
     bd0:	82 2f       	mov	r24, r18
     bd2:	8a 95       	dec	r24
     bd4:	f1 f7       	brne	.-4      	; 0xbd2 <lcdInit+0x36>
    milliseconds can be achieved.
 */
void
_delay_loop_2(uint16_t __count)
{
	__asm__ volatile (
     bd6:	e0 e2       	ldi	r30, 0x20	; 32
     bd8:	fe e4       	ldi	r31, 0x4E	; 78
     bda:	31 97       	sbiw	r30, 0x01	; 1
     bdc:	f1 f7       	brne	.-4      	; 0xbda <lcdInit+0x3e>
    can be achieved.
*/
void
_delay_loop_1(uint8_t __count)
{
	__asm__ volatile (
     bde:	89 2f       	mov	r24, r25
     be0:	8a 95       	dec	r24
     be2:	f1 f7       	brne	.-4      	; 0xbe0 <lcdInit+0x44>
	_delay_us(45);
	_delay_ms(5);
	_delay_us(1);
	setBit(LCD_CONTROL_PORT, LCD_CONTROL_E);
     be4:	2c 9a       	sbi	0x05, 4	; 5
     be6:	89 2f       	mov	r24, r25
     be8:	8a 95       	dec	r24
     bea:	f1 f7       	brne	.-4      	; 0xbe8 <lcdInit+0x4c>
	_delay_us(1);
	clrBit(LCD_CONTROL_PORT, LCD_CONTROL_E);
     bec:	2c 98       	cbi	0x05, 4	; 5
     bee:	82 2f       	mov	r24, r18
     bf0:	8a 95       	dec	r24
     bf2:	f1 f7       	brne	.-4      	; 0xbf0 <lcdInit+0x54>
    milliseconds can be achieved.
 */
void
_delay_loop_2(uint16_t __count)
{
	__asm__ volatile (
     bf4:	e0 e2       	ldi	r30, 0x20	; 32
     bf6:	f3 e0       	ldi	r31, 0x03	; 3
     bf8:	31 97       	sbiw	r30, 0x01	; 1
     bfa:	f1 f7       	brne	.-4      	; 0xbf8 <lcdInit+0x5c>
    can be achieved.
*/
void
_delay_loop_1(uint8_t __count)
{
	__asm__ volatile (
     bfc:	89 2f       	mov	r24, r25
     bfe:	8a 95       	dec	r24
     c00:	f1 f7       	brne	.-4      	; 0xbfe <lcdInit+0x62>
	_delay_us(45);
	_delay_us(200);
	_delay_us(1);
	setBit(LCD_CONTROL_PORT, LCD_CONTROL_E);
     c02:	2c 9a       	sbi	0x05, 4	; 5
     c04:	89 2f       	mov	r24, r25
     c06:	8a 95       	dec	r24
     c08:	f1 f7       	brne	.-4      	; 0xc06 <lcdInit+0x6a>
	_delay_us(1);
	clrBit(LCD_CONTROL_PORT, LCD_CONTROL_E);
     c0a:	2c 98       	cbi	0x05, 4	; 5
     c0c:	82 2f       	mov	r24, r18
     c0e:	8a 95       	dec	r24
     c10:	f1 f7       	brne	.-4      	; 0xc0e <lcdInit+0x72>
	_delay_us(45);
	LCD_DATA_PORT = (LCD_DATA_PORT & (~(0x0F << LCD_DATA_D4))) | (0x02 << LCD_DATA_D4);
     c12:	85 b1       	in	r24, 0x05	; 5
     c14:	80 7f       	andi	r24, 0xF0	; 240
     c16:	82 60       	ori	r24, 0x02	; 2
     c18:	85 b9       	out	0x05, r24	; 5
     c1a:	89 2f       	mov	r24, r25
     c1c:	8a 95       	dec	r24
     c1e:	f1 f7       	brne	.-4      	; 0xc1c <lcdInit+0x80>
	_delay_us(1);
	setBit(LCD_CONTROL_PORT, LCD_CONTROL_E);
     c20:	2c 9a       	sbi	0x05, 4	; 5
     c22:	9a 95       	dec	r25
     c24:	f1 f7       	brne	.-4      	; 0xc22 <lcdInit+0x86>
	_delay_us(1);
	clrBit(LCD_CONTROL_PORT, LCD_CONTROL_E);
     c26:	2c 98       	cbi	0x05, 4	; 5
     c28:	2a 95       	dec	r18
     c2a:	f1 f7       	brne	.-4      	; 0xc28 <lcdInit+0x8c>
	_delay_us(45);
	lcdCommand(0x28);
     c2c:	88 e2       	ldi	r24, 0x28	; 40
     c2e:	0e 94 a7 05 	call	0xb4e	; 0xb4e <lcdCommand>
	lcdCommand(0x08);
     c32:	88 e0       	ldi	r24, 0x08	; 8
     c34:	0e 94 a7 05 	call	0xb4e	; 0xb4e <lcdCommand>
   	lcdClearScreen();
     c38:	10 92 69 02 	sts	0x0269, r1
     c3c:	81 e0       	ldi	r24, 0x01	; 1
     c3e:	0e 94 a7 05 	call	0xb4e	; 0xb4e <lcdCommand>
   	lcdDisplayOn();   
     c42:	80 91 6a 02 	lds	r24, 0x026A
     c46:	81 60       	ori	r24, 0x01	; 1
     c48:	80 93 6a 02 	sts	0x026A, r24
     c4c:	98 2f       	mov	r25, r24
     c4e:	96 95       	lsr	r25
     c50:	96 95       	lsr	r25
     c52:	91 70       	andi	r25, 0x01	; 1
     c54:	9c 60       	ori	r25, 0x0C	; 12
     c56:	82 70       	andi	r24, 0x02	; 2
     c58:	89 2b       	or	r24, r25
     c5a:	0e 94 a7 05 	call	0xb4e	; 0xb4e <lcdCommand>
   	lcdCursorMoveFirstLine();
     c5e:	84 e0       	ldi	r24, 0x04	; 4
     c60:	80 93 69 02 	sts	0x0269, r24
     c64:	80 e8       	ldi	r24, 0x80	; 128
     c66:	0e 94 a7 05 	call	0xb4e	; 0xb4e <lcdCommand>
	return;
}
     c6a:	08 95       	ret

00000c6c <lcdWrite>:
/* -----------------------------------------------------------------------------
 * Writes a character on the display.
 * -------------------------------------------------------------------------- */

void lcdWrite(int8 character)
{
     c6c:	48 2f       	mov	r20, r24
	uint8 i = 2;

	if(character == '\n')
     c6e:	8a 30       	cpi	r24, 0x0A	; 10
     c70:	b1 f4       	brne	.+44     	; 0xc9e <lcdWrite+0x32>
		lcdCursorMoveNextLine();
     c72:	80 91 69 02 	lds	r24, 0x0269
     c76:	98 2f       	mov	r25, r24
     c78:	9c 7f       	andi	r25, 0xFC	; 252
     c7a:	83 70       	andi	r24, 0x03	; 3
     c7c:	29 f4       	brne	.+10     	; 0xc88 <lcdWrite+0x1c>
     c7e:	91 60       	ori	r25, 0x01	; 1
     c80:	90 93 69 02 	sts	0x0269, r25
     c84:	80 ec       	ldi	r24, 0xC0	; 192
     c86:	03 c0       	rjmp	.+6      	; 0xc8e <lcdWrite+0x22>
     c88:	90 93 69 02 	sts	0x0269, r25
     c8c:	80 e8       	ldi	r24, 0x80	; 128
     c8e:	0e 94 a7 05 	call	0xb4e	; 0xb4e <lcdCommand>
     c92:	80 91 69 02 	lds	r24, 0x0269
     c96:	83 70       	andi	r24, 0x03	; 3
     c98:	80 93 69 02 	sts	0x0269, r24
     c9c:	08 95       	ret
	else{
		LCD_DATA_PORT = (LCD_DATA_PORT & (~(0x0F << LCD_DATA_D4))) | ((character >> 4) << LCD_DATA_D4);
     c9e:	85 b1       	in	r24, 0x05	; 5
     ca0:	94 2f       	mov	r25, r20
     ca2:	92 95       	swap	r25
     ca4:	9f 70       	andi	r25, 0x0F	; 15
     ca6:	80 7f       	andi	r24, 0xF0	; 240
     ca8:	98 2b       	or	r25, r24
     caa:	95 b9       	out	0x05, r25	; 5
		do{
			setBit(LCD_CONTROL_PORT, LCD_CONTROL_RS);
     cac:	2d 9a       	sbi	0x05, 5	; 5
     cae:	25 e0       	ldi	r18, 0x05	; 5
     cb0:	82 2f       	mov	r24, r18
     cb2:	8a 95       	dec	r24
     cb4:	f1 f7       	brne	.-4      	; 0xcb2 <lcdWrite+0x46>
			_delay_us(1);
			setBit(LCD_CONTROL_PORT, LCD_CONTROL_E);
     cb6:	2c 9a       	sbi	0x05, 4	; 5
     cb8:	82 2f       	mov	r24, r18
     cba:	8a 95       	dec	r24
     cbc:	f1 f7       	brne	.-4      	; 0xcba <lcdWrite+0x4e>
			_delay_us(1);
			clrBit(LCD_CONTROL_PORT, LCD_CONTROL_E);
     cbe:	2c 98       	cbi	0x05, 4	; 5
     cc0:	30 ef       	ldi	r19, 0xF0	; 240
     cc2:	83 2f       	mov	r24, r19
     cc4:	8a 95       	dec	r24
     cc6:	f1 f7       	brne	.-4      	; 0xcc4 <lcdWrite+0x58>
			_delay_us(45);
			LCD_DATA_PORT = (LCD_DATA_PORT & (~(0x0F << LCD_DATA_D4))) | ((character & 0x0F) << LCD_DATA_D4);
     cc8:	85 b1       	in	r24, 0x05	; 5
     cca:	94 2f       	mov	r25, r20
     ccc:	9f 70       	andi	r25, 0x0F	; 15
     cce:	80 7f       	andi	r24, 0xF0	; 240
     cd0:	89 2b       	or	r24, r25
     cd2:	85 b9       	out	0x05, r24	; 5
	if(character == '\n')
		lcdCursorMoveNextLine();
	else{
		LCD_DATA_PORT = (LCD_DATA_PORT & (~(0x0F << LCD_DATA_D4))) | ((character >> 4) << LCD_DATA_D4);
		do{
			setBit(LCD_CONTROL_PORT, LCD_CONTROL_RS);
     cd4:	2d 9a       	sbi	0x05, 5	; 5
     cd6:	82 2f       	mov	r24, r18
     cd8:	8a 95       	dec	r24
     cda:	f1 f7       	brne	.-4      	; 0xcd8 <lcdWrite+0x6c>
			_delay_us(1);
			setBit(LCD_CONTROL_PORT, LCD_CONTROL_E);
     cdc:	2c 9a       	sbi	0x05, 4	; 5
     cde:	2a 95       	dec	r18
     ce0:	f1 f7       	brne	.-4      	; 0xcde <lcdWrite+0x72>
			_delay_us(1);
			clrBit(LCD_CONTROL_PORT, LCD_CONTROL_E);
     ce2:	2c 98       	cbi	0x05, 4	; 5
     ce4:	3a 95       	dec	r19
     ce6:	f1 f7       	brne	.-4      	; 0xce4 <lcdWrite+0x78>
			_delay_us(45);
			LCD_DATA_PORT = (LCD_DATA_PORT & (~(0x0F << LCD_DATA_D4))) | ((character & 0x0F) << LCD_DATA_D4);
     ce8:	85 b1       	in	r24, 0x05	; 5
     cea:	80 7f       	andi	r24, 0xF0	; 240
     cec:	98 2b       	or	r25, r24
     cee:	95 b9       	out	0x05, r25	; 5
     cf0:	08 95       	ret

00000cf2 <lcdWriteStd>:
/* -----------------------------------------------------------------------------
 * Writes a character on the display using the standard output handler.
 * -------------------------------------------------------------------------- */

int16 lcdWriteStd(int8 character, FILE * stream)
{
     cf2:	1f 93       	push	r17
     cf4:	48 2f       	mov	r20, r24
	uint8 i = 2;

	if(character == '\n'){
     cf6:	8a 30       	cpi	r24, 0x0A	; 10
     cf8:	09 f5       	brne	.+66     	; 0xd3c <lcdWriteStd+0x4a>
		for(i = lcdConfiguration.column;i < (LCD_COLUMNS);i++)
     cfa:	10 91 69 02 	lds	r17, 0x0269
     cfe:	16 95       	lsr	r17
     d00:	16 95       	lsr	r17
     d02:	04 c0       	rjmp	.+8      	; 0xd0c <lcdWriteStd+0x1a>
			lcdWrite(' ');
     d04:	80 e2       	ldi	r24, 0x20	; 32
     d06:	0e 94 36 06 	call	0xc6c	; 0xc6c <lcdWrite>
int16 lcdWriteStd(int8 character, FILE * stream)
{
	uint8 i = 2;

	if(character == '\n'){
		for(i = lcdConfiguration.column;i < (LCD_COLUMNS);i++)
     d0a:	1f 5f       	subi	r17, 0xFF	; 255
     d0c:	10 31       	cpi	r17, 0x10	; 16
     d0e:	d0 f3       	brcs	.-12     	; 0xd04 <lcdWriteStd+0x12>
			lcdWrite(' ');
		lcdCursorMoveNextLine();
     d10:	80 91 69 02 	lds	r24, 0x0269
     d14:	98 2f       	mov	r25, r24
     d16:	9c 7f       	andi	r25, 0xFC	; 252
     d18:	83 70       	andi	r24, 0x03	; 3
     d1a:	29 f4       	brne	.+10     	; 0xd26 <lcdWriteStd+0x34>
     d1c:	91 60       	ori	r25, 0x01	; 1
     d1e:	90 93 69 02 	sts	0x0269, r25
     d22:	80 ec       	ldi	r24, 0xC0	; 192
     d24:	03 c0       	rjmp	.+6      	; 0xd2c <lcdWriteStd+0x3a>
     d26:	90 93 69 02 	sts	0x0269, r25
     d2a:	80 e8       	ldi	r24, 0x80	; 128
     d2c:	0e 94 a7 05 	call	0xb4e	; 0xb4e <lcdCommand>
     d30:	80 91 69 02 	lds	r24, 0x0269
     d34:	83 70       	andi	r24, 0x03	; 3
     d36:	80 93 69 02 	sts	0x0269, r24
     d3a:	32 c0       	rjmp	.+100    	; 0xda0 <lcdWriteStd+0xae>
	}else{
		lcdConfiguration.column++;
     d3c:	80 91 69 02 	lds	r24, 0x0269
     d40:	98 2f       	mov	r25, r24
     d42:	9c 7f       	andi	r25, 0xFC	; 252
     d44:	9c 5f       	subi	r25, 0xFC	; 252
     d46:	83 70       	andi	r24, 0x03	; 3
     d48:	89 2b       	or	r24, r25
     d4a:	80 93 69 02 	sts	0x0269, r24
		LCD_DATA_PORT = (LCD_DATA_PORT & (~(0x0F << LCD_DATA_D4))) | ((character >> 4) << LCD_DATA_D4);
     d4e:	85 b1       	in	r24, 0x05	; 5
     d50:	94 2f       	mov	r25, r20
     d52:	92 95       	swap	r25
     d54:	9f 70       	andi	r25, 0x0F	; 15
     d56:	80 7f       	andi	r24, 0xF0	; 240
     d58:	98 2b       	or	r25, r24
     d5a:	95 b9       	out	0x05, r25	; 5
		do{
			setBit(LCD_CONTROL_PORT, LCD_CONTROL_RS);
     d5c:	2d 9a       	sbi	0x05, 5	; 5
     d5e:	25 e0       	ldi	r18, 0x05	; 5
     d60:	82 2f       	mov	r24, r18
     d62:	8a 95       	dec	r24
     d64:	f1 f7       	brne	.-4      	; 0xd62 <lcdWriteStd+0x70>
			_delay_us(1);
			setBit(LCD_CONTROL_PORT, LCD_CONTROL_E);
     d66:	2c 9a       	sbi	0x05, 4	; 5
     d68:	82 2f       	mov	r24, r18
     d6a:	8a 95       	dec	r24
     d6c:	f1 f7       	brne	.-4      	; 0xd6a <lcdWriteStd+0x78>
			_delay_us(1);
			clrBit(LCD_CONTROL_PORT, LCD_CONTROL_E);
     d6e:	2c 98       	cbi	0x05, 4	; 5
     d70:	30 ef       	ldi	r19, 0xF0	; 240
     d72:	83 2f       	mov	r24, r19
     d74:	8a 95       	dec	r24
     d76:	f1 f7       	brne	.-4      	; 0xd74 <lcdWriteStd+0x82>
			_delay_us(45);
			LCD_DATA_PORT = (LCD_DATA_PORT & (~(0x0F << LCD_DATA_D4))) | ((character & 0x0F) << LCD_DATA_D4);
     d78:	85 b1       	in	r24, 0x05	; 5
     d7a:	94 2f       	mov	r25, r20
     d7c:	9f 70       	andi	r25, 0x0F	; 15
     d7e:	80 7f       	andi	r24, 0xF0	; 240
     d80:	89 2b       	or	r24, r25
     d82:	85 b9       	out	0x05, r24	; 5
		lcdCursorMoveNextLine();
	}else{
		lcdConfiguration.column++;
		LCD_DATA_PORT = (LCD_DATA_PORT & (~(0x0F << LCD_DATA_D4))) | ((character >> 4) << LCD_DATA_D4);
		do{
			setBit(LCD_CONTROL_PORT, LCD_CONTROL_RS);
     d84:	2d 9a       	sbi	0x05, 5	; 5
     d86:	82 2f       	mov	r24, r18
     d88:	8a 95       	dec	r24
     d8a:	f1 f7       	brne	.-4      	; 0xd88 <lcdWriteStd+0x96>
			_delay_us(1);
			setBit(LCD_CONTROL_PORT, LCD_CONTROL_E);
     d8c:	2c 9a       	sbi	0x05, 4	; 5
     d8e:	2a 95       	dec	r18
     d90:	f1 f7       	brne	.-4      	; 0xd8e <lcdWriteStd+0x9c>
			_delay_us(1);
			clrBit(LCD_CONTROL_PORT, LCD_CONTROL_E);
     d92:	2c 98       	cbi	0x05, 4	; 5
     d94:	3a 95       	dec	r19
     d96:	f1 f7       	brne	.-4      	; 0xd94 <lcdWriteStd+0xa2>
			_delay_us(45);
			LCD_DATA_PORT = (LCD_DATA_PORT & (~(0x0F << LCD_DATA_D4))) | ((character & 0x0F) << LCD_DATA_D4);
     d98:	85 b1       	in	r24, 0x05	; 5
     d9a:	80 7f       	andi	r24, 0xF0	; 240
     d9c:	98 2b       	or	r25, r24
     d9e:	95 b9       	out	0x05, r25	; 5
			i--;
		}while(i > 0);
	}
	return 0;
}
     da0:	80 e0       	ldi	r24, 0x00	; 0
     da2:	90 e0       	ldi	r25, 0x00	; 0
     da4:	1f 91       	pop	r17
     da6:	08 95       	ret

00000da8 <keypadRead>:
/* -----------------------------------------------------------------------------
 * Reads the keypad and returns the key pressed.
 * -------------------------------------------------------------------------- */

uint8 keypadRead(void)
{
     da8:	ef 92       	push	r14
     daa:	ff 92       	push	r15
     dac:	0f 93       	push	r16
     dae:	1f 93       	push	r17
     db0:	cf 93       	push	r28
     db2:	df 93       	push	r29
	uint8 i;
	uint8 j;
	uint8 aux;
	uint8 key = 0xFF;

	keypadIOConfigure();
     db4:	87 b1       	in	r24, 0x07	; 7
     db6:	8f 60       	ori	r24, 0x0F	; 15
     db8:	87 b9       	out	0x07, r24	; 7
     dba:	88 b1       	in	r24, 0x08	; 8
     dbc:	8f 60       	ori	r24, 0x0F	; 15
     dbe:	88 b9       	out	0x08, r24	; 8
     dc0:	84 b1       	in	r24, 0x04	; 4
     dc2:	80 7f       	andi	r24, 0xF0	; 240
     dc4:	84 b9       	out	0x04, r24	; 4
     dc6:	85 b1       	in	r24, 0x05	; 5
     dc8:	8f 60       	ori	r24, 0x0F	; 15
     dca:	85 b9       	out	0x05, r24	; 5
     dcc:	ef ef       	ldi	r30, 0xFF	; 255
     dce:	60 e0       	ldi	r22, 0x00	; 0
     dd0:	70 e0       	ldi	r23, 0x00	; 0
//printf("a");
	for(i = 0;i < KEYPAD_COLUMNS;i++){					// For each column
		clrBit(KEYPAD_COLUMNS_PORT, (i + KEYPAD_COLUMN_FIRST));	// Clear one columns
     dd2:	01 e0       	ldi	r16, 0x01	; 1
     dd4:	10 e0       	ldi	r17, 0x00	; 0
    milliseconds can be achieved.
 */
void
_delay_loop_2(uint16_t __count)
{
	__asm__ volatile (
     dd6:	90 e4       	ldi	r25, 0x40	; 64
     dd8:	e9 2e       	mov	r14, r25
     dda:	9c e9       	ldi	r25, 0x9C	; 156
     ddc:	f9 2e       	mov	r15, r25
     dde:	28 b1       	in	r18, 0x08	; 8
     de0:	c8 01       	movw	r24, r16
     de2:	06 2e       	mov	r0, r22
     de4:	02 c0       	rjmp	.+4      	; 0xdea <keypadRead+0x42>
     de6:	88 0f       	add	r24, r24
     de8:	99 1f       	adc	r25, r25
     dea:	0a 94       	dec	r0
     dec:	e2 f7       	brpl	.-8      	; 0xde6 <keypadRead+0x3e>
     dee:	a8 2f       	mov	r26, r24
     df0:	80 95       	com	r24
     df2:	82 23       	and	r24, r18
     df4:	88 b9       	out	0x08, r24	; 8
		noOperation(5);												// Wait for syncronization
     df6:	00 c0       	rjmp	.+0      	; 0xdf8 <keypadRead+0x50>
     df8:	00 c0       	rjmp	.+0      	; 0xdfa <keypadRead+0x52>
     dfa:	00 00       	nop
		aux = KEYPAD_LINES_PIN >> KEYPAD_LINE_FIRST;
     dfc:	83 b1       	in	r24, 0x03	; 3
     dfe:	20 e0       	ldi	r18, 0x00	; 0
     e00:	30 e0       	ldi	r19, 0x00	; 0
		for(j = 0;j < KEYPAD_LINES;j++){				// For each line
			if(isBitClr(aux, j)){					// Tests if the key is pressed
     e02:	c8 2f       	mov	r28, r24
     e04:	d0 e0       	ldi	r29, 0x00	; 0
     e06:	ce 01       	movw	r24, r28
     e08:	02 2e       	mov	r0, r18
     e0a:	02 c0       	rjmp	.+4      	; 0xe10 <keypadRead+0x68>
     e0c:	95 95       	asr	r25
     e0e:	87 95       	ror	r24
     e10:	0a 94       	dec	r0
     e12:	e2 f7       	brpl	.-8      	; 0xe0c <keypadRead+0x64>
     e14:	80 fd       	sbrc	r24, 0
     e16:	0d c0       	rjmp	.+26     	; 0xe32 <keypadRead+0x8a>
				key = keypadTable[j][i];			// Decodes the key using the table
     e18:	f9 01       	movw	r30, r18
     e1a:	ee 0f       	add	r30, r30
     e1c:	ff 1f       	adc	r31, r31
     e1e:	ee 0f       	add	r30, r30
     e20:	ff 1f       	adc	r31, r31
     e22:	e6 0f       	add	r30, r22
     e24:	f7 1f       	adc	r31, r23
     e26:	e5 59       	subi	r30, 0x95	; 149
     e28:	fd 4f       	sbci	r31, 0xFD	; 253
     e2a:	e0 81       	ld	r30, Z
     e2c:	c7 01       	movw	r24, r14
     e2e:	01 97       	sbiw	r24, 0x01	; 1
     e30:	f1 f7       	brne	.-4      	; 0xe2e <keypadRead+0x86>
     e32:	a8 01       	movw	r20, r16
     e34:	02 2e       	mov	r0, r18
     e36:	02 c0       	rjmp	.+4      	; 0xe3c <keypadRead+0x94>
     e38:	44 0f       	add	r20, r20
     e3a:	55 1f       	adc	r21, r21
     e3c:	0a 94       	dec	r0
     e3e:	e2 f7       	brpl	.-8      	; 0xe38 <keypadRead+0x90>
				_delay_ms(KEYPAD_DEBOUNCE_TIME);		// Debounce time
			}
			while(isBitClr(KEYPAD_LINES_PIN >> KEYPAD_LINE_FIRST,j)){
     e40:	83 b1       	in	r24, 0x03	; 3
     e42:	90 e0       	ldi	r25, 0x00	; 0
     e44:	84 23       	and	r24, r20
     e46:	95 23       	and	r25, r21
     e48:	89 2b       	or	r24, r25
     e4a:	d1 f3       	breq	.-12     	; 0xe40 <keypadRead+0x98>
     e4c:	2f 5f       	subi	r18, 0xFF	; 255
     e4e:	3f 4f       	sbci	r19, 0xFF	; 255
//printf("a");
	for(i = 0;i < KEYPAD_COLUMNS;i++){					// For each column
		clrBit(KEYPAD_COLUMNS_PORT, (i + KEYPAD_COLUMN_FIRST));	// Clear one columns
		noOperation(5);												// Wait for syncronization
		aux = KEYPAD_LINES_PIN >> KEYPAD_LINE_FIRST;
		for(j = 0;j < KEYPAD_LINES;j++){				// For each line
     e50:	24 30       	cpi	r18, 0x04	; 4
     e52:	31 05       	cpc	r19, r1
     e54:	c1 f6       	brne	.-80     	; 0xe06 <keypadRead+0x5e>
			}
			while(isBitClr(KEYPAD_LINES_PIN >> KEYPAD_LINE_FIRST,j)){
			}
				;	// Wait until key is released
		}
		setBit(KEYPAD_COLUMNS_PORT, (i + KEYPAD_COLUMN_FIRST));	// Restore column value
     e56:	88 b1       	in	r24, 0x08	; 8
     e58:	a8 2b       	or	r26, r24
     e5a:	a8 b9       	out	0x08, r26	; 8
     e5c:	6f 5f       	subi	r22, 0xFF	; 255
     e5e:	7f 4f       	sbci	r23, 0xFF	; 255
	uint8 aux;
	uint8 key = 0xFF;

	keypadIOConfigure();
//printf("a");
	for(i = 0;i < KEYPAD_COLUMNS;i++){					// For each column
     e60:	64 30       	cpi	r22, 0x04	; 4
     e62:	71 05       	cpc	r23, r1
     e64:	09 f0       	breq	.+2      	; 0xe68 <keypadRead+0xc0>
     e66:	bb cf       	rjmp	.-138    	; 0xdde <keypadRead+0x36>
			}
				;	// Wait until key is released
		}
		setBit(KEYPAD_COLUMNS_PORT, (i + KEYPAD_COLUMN_FIRST));	// Restore column value
	}
	keypadIORelease();
     e68:	87 b1       	in	r24, 0x07	; 7
     e6a:	80 7f       	andi	r24, 0xF0	; 240
     e6c:	87 b9       	out	0x07, r24	; 7
     e6e:	88 b1       	in	r24, 0x08	; 8
     e70:	80 7f       	andi	r24, 0xF0	; 240
     e72:	88 b9       	out	0x08, r24	; 8
     e74:	84 b1       	in	r24, 0x04	; 4
     e76:	80 7f       	andi	r24, 0xF0	; 240
     e78:	84 b9       	out	0x04, r24	; 4
     e7a:	85 b1       	in	r24, 0x05	; 5
     e7c:	80 7f       	andi	r24, 0xF0	; 240
     e7e:	85 b9       	out	0x05, r24	; 5
	return key;
}
     e80:	8e 2f       	mov	r24, r30
     e82:	df 91       	pop	r29
     e84:	cf 91       	pop	r28
     e86:	1f 91       	pop	r17
     e88:	0f 91       	pop	r16
     e8a:	ff 90       	pop	r15
     e8c:	ef 90       	pop	r14
     e8e:	08 95       	ret

00000e90 <keypadInit>:
/* -----------------------------------------------------------------------------
 * Performs the keypad initialization.
 * -------------------------------------------------------------------------- */

void keypadInit(uint8 firstKey, ...)
{
     e90:	df 93       	push	r29
     e92:	cf 93       	push	r28
     e94:	cd b7       	in	r28, 0x3d	; 61
     e96:	de b7       	in	r29, 0x3e	; 62
     e98:	de 01       	movw	r26, r28
     e9a:	15 96       	adiw	r26, 0x05	; 5
     e9c:	8d 91       	ld	r24, X+
	uint8 i;
	uint8 j;
	va_list args;

	va_start(args, firstKey);
	keypadTable[0][0] = firstKey;
     e9e:	80 93 6b 02 	sts	0x026B, r24
     ea2:	91 e0       	ldi	r25, 0x01	; 1
     ea4:	20 e0       	ldi	r18, 0x00	; 0
     ea6:	30 e0       	ldi	r19, 0x00	; 0
	j = 1;
	for(i = 0;i < KEYPAD_LINES;i++){
		for( ;j < KEYPAD_COLUMNS;j++){
			keypadTable[i][j] = (uint8)va_arg(args, int16);
     ea8:	12 96       	adiw	r26, 0x02	; 2
     eaa:	12 97       	sbiw	r26, 0x02	; 2
     eac:	8c 91       	ld	r24, X
     eae:	12 96       	adiw	r26, 0x02	; 2
     eb0:	f9 01       	movw	r30, r18
     eb2:	ee 0f       	add	r30, r30
     eb4:	ff 1f       	adc	r31, r31
     eb6:	ee 0f       	add	r30, r30
     eb8:	ff 1f       	adc	r31, r31
     eba:	e9 0f       	add	r30, r25
     ebc:	f1 1d       	adc	r31, r1
     ebe:	e5 59       	subi	r30, 0x95	; 149
     ec0:	fd 4f       	sbci	r31, 0xFD	; 253
     ec2:	80 83       	st	Z, r24

	va_start(args, firstKey);
	keypadTable[0][0] = firstKey;
	j = 1;
	for(i = 0;i < KEYPAD_LINES;i++){
		for( ;j < KEYPAD_COLUMNS;j++){
     ec4:	9f 5f       	subi	r25, 0xFF	; 255
     ec6:	94 30       	cpi	r25, 0x04	; 4
     ec8:	78 f3       	brcs	.-34     	; 0xea8 <keypadInit+0x18>
     eca:	2f 5f       	subi	r18, 0xFF	; 255
     ecc:	3f 4f       	sbci	r19, 0xFF	; 255
     ece:	90 e0       	ldi	r25, 0x00	; 0
	va_list args;

	va_start(args, firstKey);
	keypadTable[0][0] = firstKey;
	j = 1;
	for(i = 0;i < KEYPAD_LINES;i++){
     ed0:	24 30       	cpi	r18, 0x04	; 4
     ed2:	31 05       	cpc	r19, r1
     ed4:	49 f7       	brne	.-46     	; 0xea8 <keypadInit+0x18>
		}
		j = 0;
	}
	va_end(args);
	return;
}
     ed6:	cf 91       	pop	r28
     ed8:	df 91       	pop	r29
     eda:	08 95       	ret

00000edc <eepromWrite>:
 * Writes a byte in the specified address in the EEPROM
 * -------------------------------------------------------------------------- */

void eepromWrite(uint8 data, uint16 address)
{
	waitUntilBitIsClear(EECR, EEPE);
     edc:	f9 99       	sbic	0x1f, 1	; 31
     ede:	fe cf       	rjmp	.-4      	; 0xedc <eepromWrite>
	EEAR = (address & 0x01FF);
     ee0:	71 70       	andi	r23, 0x01	; 1
     ee2:	72 bd       	out	0x22, r23	; 34
     ee4:	61 bd       	out	0x21, r22	; 33
	EEDR = data;
     ee6:	80 bd       	out	0x20, r24	; 32
	setBit(EECR, EEMPE);
     ee8:	fa 9a       	sbi	0x1f, 2	; 31
	setBit(EECR, EEPE);
     eea:	f9 9a       	sbi	0x1f, 1	; 31
	return;
}
     eec:	08 95       	ret

00000eee <eepromRead>:
 * Reads a byte from the specified address in the EEPROM
 * -------------------------------------------------------------------------- */

uint8 eepromRead(uint16 address)
{
	waitUntilBitIsClear(EECR, EEPE);
     eee:	f9 99       	sbic	0x1f, 1	; 31
     ef0:	fe cf       	rjmp	.-4      	; 0xeee <eepromRead>
	EEAR = (address & 0x01FF);
     ef2:	91 70       	andi	r25, 0x01	; 1
     ef4:	92 bd       	out	0x22, r25	; 34
     ef6:	81 bd       	out	0x21, r24	; 33
	setBit(EECR, EERE);
     ef8:	f8 9a       	sbi	0x1f, 0	; 31
	return EEDR;
     efa:	80 b5       	in	r24, 0x20	; 32
}
     efc:	08 95       	ret

00000efe <timer1SetCounterValue>:

void timer1SetCounterValue(uint16 value)
{
	uint8 sreg;

	sreg = SREG;
     efe:	2f b7       	in	r18, 0x3f	; 63
	cli();
     f00:	f8 94       	cli
	TCNT1 = value;
     f02:	90 93 85 00 	sts	0x0085, r25
     f06:	80 93 84 00 	sts	0x0084, r24
	SREG = sreg;
     f0a:	2f bf       	out	0x3f, r18	; 63

	return;
}
     f0c:	08 95       	ret

00000f0e <timer1GetCounterValue>:
uint16 timer1GetCounterValue(void)
{
	uint8 sreg;
	uint16 aux;

	sreg = SREG;
     f0e:	8f b7       	in	r24, 0x3f	; 63
	cli();
     f10:	f8 94       	cli
	aux = TCNT1;
     f12:	20 91 84 00 	lds	r18, 0x0084
     f16:	30 91 85 00 	lds	r19, 0x0085
	SREG = sreg;
     f1a:	8f bf       	out	0x3f, r24	; 63

	return aux;
}
     f1c:	c9 01       	movw	r24, r18
     f1e:	08 95       	ret

00000f20 <timer1SetCompareAValue>:

void timer1SetCompareAValue(uint16 value)
{
	uint8 sreg;

	sreg = SREG;
     f20:	2f b7       	in	r18, 0x3f	; 63
	cli();
     f22:	f8 94       	cli
	OCR1A = value;
     f24:	90 93 89 00 	sts	0x0089, r25
     f28:	80 93 88 00 	sts	0x0088, r24
	SREG = sreg;
     f2c:	2f bf       	out	0x3f, r18	; 63

	return;
}
     f2e:	08 95       	ret

00000f30 <timer1GetCompareAValue>:
uint16 timer1GetCompareAValue(void)
{
	uint8 sreg;
	uint16 aux;

	sreg = SREG;
     f30:	8f b7       	in	r24, 0x3f	; 63
	cli();
     f32:	f8 94       	cli
	aux = OCR1A;
     f34:	20 91 88 00 	lds	r18, 0x0088
     f38:	30 91 89 00 	lds	r19, 0x0089
	SREG = sreg;
     f3c:	8f bf       	out	0x3f, r24	; 63

	return aux;
}
     f3e:	c9 01       	movw	r24, r18
     f40:	08 95       	ret

00000f42 <timer1SetCompareBValue>:

void timer1SetCompareBValue(uint16 value)
{
	uint8 sreg;

	sreg = SREG;
     f42:	2f b7       	in	r18, 0x3f	; 63
	cli();
     f44:	f8 94       	cli
	OCR1B = value;
     f46:	90 93 8b 00 	sts	0x008B, r25
     f4a:	80 93 8a 00 	sts	0x008A, r24
	SREG = sreg;
     f4e:	2f bf       	out	0x3f, r18	; 63

	return;
}
     f50:	08 95       	ret

00000f52 <timer1GetCompareBValue>:
uint16 timer1GetCompareBValue(void)
{
	uint8 sreg;
	uint16 aux;

	sreg = SREG;
     f52:	8f b7       	in	r24, 0x3f	; 63
	cli();
     f54:	f8 94       	cli
	aux = OCR1B;
     f56:	20 91 8a 00 	lds	r18, 0x008A
     f5a:	30 91 8b 00 	lds	r19, 0x008B
	SREG = sreg;
     f5e:	8f bf       	out	0x3f, r24	; 63

	return aux;
}
     f60:	c9 01       	movw	r24, r18
     f62:	08 95       	ret

00000f64 <timer1SetInputCaptureValue>:

void timer1SetInputCaptureValue(uint16 value)
{
	uint8 sreg;

	sreg = SREG;
     f64:	2f b7       	in	r18, 0x3f	; 63
	cli();
     f66:	f8 94       	cli
	ICR1 = value;
     f68:	90 93 87 00 	sts	0x0087, r25
     f6c:	80 93 86 00 	sts	0x0086, r24
	SREG = sreg;
     f70:	2f bf       	out	0x3f, r18	; 63

	return;
}
     f72:	08 95       	ret

00000f74 <timer1GetInputCaptureValue>:
uint16 timer1GetInputCaptureValue(void)
{
	uint8 sreg;
	uint16 aux;

	sreg = SREG;
     f74:	8f b7       	in	r24, 0x3f	; 63
	cli();
     f76:	f8 94       	cli
	aux = ICR1;
     f78:	20 91 86 00 	lds	r18, 0x0086
     f7c:	30 91 87 00 	lds	r19, 0x0087
	SREG = sreg;
     f80:	8f bf       	out	0x3f, r24	; 63

	return aux;
}
     f82:	c9 01       	movw	r24, r18
     f84:	08 95       	ret

00000f86 <spiInit>:
 * Configures the SPI controller
 * -------------------------------------------------------------------------- */

void spiInit(void)
{
	if(spiConfiguration.masterSlave){
     f86:	80 91 7b 02 	lds	r24, 0x027B
     f8a:	81 ff       	sbrs	r24, 1
     f8c:	04 c0       	rjmp	.+8      	; 0xf96 <spiInit+0x10>
		setBit(SPI_DDR, SPI_MOSI);
     f8e:	23 9a       	sbi	0x04, 3	; 4
		setBit(SPI_DDR, SPI_SCK);
     f90:	25 9a       	sbi	0x04, 5	; 4
		clrBit(SPI_DDR, SPI_MISO);
     f92:	24 98       	cbi	0x04, 4	; 4
     f94:	03 c0       	rjmp	.+6      	; 0xf9c <spiInit+0x16>
	}else{
		clrBit(SPI_DDR, SPI_MOSI);
     f96:	23 98       	cbi	0x04, 3	; 4
		clrBit(SPI_DDR, SPI_SCK);
     f98:	25 98       	cbi	0x04, 5	; 4
		setBit(SPI_DDR, SPI_MISO);
     f9a:	24 9a       	sbi	0x04, 4	; 4
	}
	if(spiConfiguration.doubleSpeed)
     f9c:	80 91 7c 02 	lds	r24, 0x027C
     fa0:	81 ff       	sbrs	r24, 1
     fa2:	03 c0       	rjmp	.+6      	; 0xfaa <spiInit+0x24>
		setBit(SPSR, SPI2X);
     fa4:	8d b5       	in	r24, 0x2d	; 45
     fa6:	81 60       	ori	r24, 0x01	; 1
     fa8:	02 c0       	rjmp	.+4      	; 0xfae <spiInit+0x28>
	else
		clrBit(SPSR, SPI2X);
     faa:	8d b5       	in	r24, 0x2d	; 45
     fac:	8e 7f       	andi	r24, 0xFE	; 254
     fae:	8d bd       	out	0x2d, r24	; 45
	SPCR =	(spiConfiguration.interruptEnabled << SPIE) | 
     fb0:	90 91 7b 02 	lds	r25, 0x027B
     fb4:	29 2f       	mov	r18, r25
     fb6:	26 95       	lsr	r18
     fb8:	26 95       	lsr	r18
     fba:	27 95       	ror	r18
     fbc:	22 27       	eor	r18, r18
     fbe:	27 95       	ror	r18
     fc0:	89 2f       	mov	r24, r25
     fc2:	81 70       	andi	r24, 0x01	; 1
     fc4:	82 95       	swap	r24
     fc6:	88 0f       	add	r24, r24
     fc8:	88 0f       	add	r24, r24
     fca:	80 7c       	andi	r24, 0xC0	; 192
     fcc:	82 2b       	or	r24, r18
     fce:	29 2f       	mov	r18, r25
     fd0:	22 95       	swap	r18
     fd2:	26 95       	lsr	r18
     fd4:	26 95       	lsr	r18
     fd6:	23 70       	andi	r18, 0x03	; 3
     fd8:	82 2b       	or	r24, r18
     fda:	29 2f       	mov	r18, r25
     fdc:	22 0f       	add	r18, r18
     fde:	22 0f       	add	r18, r18
     fe0:	20 72       	andi	r18, 0x20	; 32
     fe2:	28 2b       	or	r18, r24
     fe4:	89 2f       	mov	r24, r25
     fe6:	88 0f       	add	r24, r24
     fe8:	88 0f       	add	r24, r24
     fea:	88 0f       	add	r24, r24
     fec:	80 71       	andi	r24, 0x10	; 16
     fee:	82 2b       	or	r24, r18
     ff0:	96 95       	lsr	r25
     ff2:	29 2f       	mov	r18, r25
     ff4:	28 70       	andi	r18, 0x08	; 8
     ff6:	28 2b       	or	r18, r24
     ff8:	96 95       	lsr	r25
     ffa:	96 95       	lsr	r25
     ffc:	94 70       	andi	r25, 0x04	; 4
     ffe:	92 2b       	or	r25, r18
    1000:	9c bd       	out	0x2c, r25	; 44
			(spiConfiguration.sckIdleValue << CPOL) | 
			(spiConfiguration.leadingTrailingEdge << CPHA) | 
			(spiConfiguration.clockPrescaler & 0x03);

	return;
}
    1002:	08 95       	ret

00001004 <spiMasterTransmit>:
 * Transmit data at the SPI bus in master mode
 * -------------------------------------------------------------------------- */

uint8 spiMasterTransmit(uint8 data)
{
	SPDR = data;
    1004:	8e bd       	out	0x2e, r24	; 46
	waitUntilBitIsClear(SPSR, SPIF);
    1006:	0d b4       	in	r0, 0x2d	; 45
    1008:	07 fc       	sbrc	r0, 7
    100a:	fd cf       	rjmp	.-6      	; 0x1006 <spiMasterTransmit+0x2>
	return SPDR;
    100c:	8e b5       	in	r24, 0x2e	; 46
}
    100e:	08 95       	ret

00001010 <spiSlaveTransmit>:
 * Receives data from the SPI bus
 * -------------------------------------------------------------------------- */

uint8 spiSlaveTransmit(void)
{
	waitUntilBitIsClear(SPSR, SPIF);
    1010:	0d b4       	in	r0, 0x2d	; 45
    1012:	07 fc       	sbrc	r0, 7
    1014:	fd cf       	rjmp	.-6      	; 0x1010 <spiSlaveTransmit>
	return SPDR;
    1016:	8e b5       	in	r24, 0x2e	; 46
}
    1018:	08 95       	ret

0000101a <adcGetConfiguration>:
/* -----------------------------------------------------------------------------
 * Get the current ADC configuration
 * -------------------------------------------------------------------------- */

adcConfiguration_t adcGetConfiguration(void)
{
    101a:	df 93       	push	r29
    101c:	cf 93       	push	r28
    101e:	00 d0       	rcall	.+0      	; 0x1020 <adcGetConfiguration+0x6>
    1020:	0f 92       	push	r0
    1022:	cd b7       	in	r28, 0x3d	; 61
    1024:	de b7       	in	r29, 0x3e	; 62
	return adcConfiguration;
    1026:	de 01       	movw	r26, r28
    1028:	11 96       	adiw	r26, 0x01	; 1
    102a:	e3 eb       	ldi	r30, 0xB3	; 179
    102c:	f2 e0       	ldi	r31, 0x02	; 2
    102e:	83 e0       	ldi	r24, 0x03	; 3
    1030:	01 90       	ld	r0, Z+
    1032:	0d 92       	st	X+, r0
    1034:	81 50       	subi	r24, 0x01	; 1
    1036:	e1 f7       	brne	.-8      	; 0x1030 <adcGetConfiguration+0x16>
    1038:	69 81       	ldd	r22, Y+1	; 0x01
    103a:	7a 81       	ldd	r23, Y+2	; 0x02
}
    103c:	8b 81       	ldd	r24, Y+3	; 0x03
    103e:	90 e0       	ldi	r25, 0x00	; 0
    1040:	0f 90       	pop	r0
    1042:	0f 90       	pop	r0
    1044:	0f 90       	pop	r0
    1046:	cf 91       	pop	r28
    1048:	df 91       	pop	r29
    104a:	08 95       	ret

0000104c <adcLoadConfiguration>:
/* -----------------------------------------------------------------------------
 * Load an ADC configuration
 * -------------------------------------------------------------------------- */

void adcLoadConfiguration(adcConfiguration_t config)
{
    104c:	cf 92       	push	r12
    104e:	df 92       	push	r13
    1050:	ef 92       	push	r14
    1052:	ff 92       	push	r15
    1054:	0f 93       	push	r16
    1056:	1f 93       	push	r17
    1058:	df 93       	push	r29
    105a:	cf 93       	push	r28
    105c:	00 d0       	rcall	.+0      	; 0x105e <adcLoadConfiguration+0x12>
    105e:	0f 92       	push	r0
    1060:	cd b7       	in	r28, 0x3d	; 61
    1062:	de b7       	in	r29, 0x3e	; 62
    1064:	33 e0       	ldi	r19, 0x03	; 3
    1066:	d3 2e       	mov	r13, r19
    1068:	d6 22       	and	r13, r22
    106a:	47 2f       	mov	r20, r23
    106c:	46 95       	lsr	r20
    106e:	41 70       	andi	r20, 0x01	; 1
    1070:	18 2f       	mov	r17, r24
    1072:	12 95       	swap	r17
    1074:	11 70       	andi	r17, 0x01	; 1
    1076:	56 2f       	mov	r21, r22
    1078:	52 95       	swap	r21
    107a:	56 95       	lsr	r21
    107c:	51 70       	andi	r21, 0x01	; 1
    107e:	08 2f       	mov	r16, r24
    1080:	02 95       	swap	r16
    1082:	06 95       	lsr	r16
    1084:	01 70       	andi	r16, 0x01	; 1
    1086:	a8 2f       	mov	r26, r24
    1088:	a2 95       	swap	r26
    108a:	a6 95       	lsr	r26
    108c:	a6 95       	lsr	r26
    108e:	a1 70       	andi	r26, 0x01	; 1
    1090:	96 2f       	mov	r25, r22
    1092:	92 95       	swap	r25
    1094:	96 95       	lsr	r25
    1096:	96 95       	lsr	r25
    1098:	93 70       	andi	r25, 0x03	; 3
    109a:	ff 24       	eor	r15, r15
    109c:	f3 94       	inc	r15
    109e:	f7 22       	and	r15, r23
    10a0:	ff 0c       	add	r15, r15
    10a2:	ff 0c       	add	r15, r15
    10a4:	f9 2a       	or	r15, r25
    10a6:	97 2f       	mov	r25, r23
    10a8:	92 95       	swap	r25
    10aa:	96 95       	lsr	r25
    10ac:	96 95       	lsr	r25
    10ae:	93 70       	andi	r25, 0x03	; 3
    10b0:	b8 2f       	mov	r27, r24
    10b2:	bf 70       	andi	r27, 0x0F	; 15
    10b4:	bb 0f       	add	r27, r27
    10b6:	bb 0f       	add	r27, r27
    10b8:	b9 2b       	or	r27, r25
	adcConfiguration = config;
    10ba:	80 78       	andi	r24, 0x80	; 128
    10bc:	90 91 b5 02 	lds	r25, 0x02B5
    10c0:	90 77       	andi	r25, 0x70	; 112
    10c2:	e5 eb       	ldi	r30, 0xB5	; 181
    10c4:	f2 e0       	ldi	r31, 0x02	; 2
    10c6:	3b 2f       	mov	r19, r27
    10c8:	32 95       	swap	r19
    10ca:	33 0f       	add	r19, r19
    10cc:	33 0f       	add	r19, r19
    10ce:	30 7c       	andi	r19, 0xC0	; 192
    10d0:	22 91       	ld	r18, -Z
    10d2:	2b 2f       	mov	r18, r27
    10d4:	26 95       	lsr	r18
    10d6:	26 95       	lsr	r18
    10d8:	98 2b       	or	r25, r24
    10da:	92 2b       	or	r25, r18
    10dc:	ef 2c       	mov	r14, r15
    10de:	e2 94       	swap	r14
    10e0:	ee 0c       	add	r14, r14
    10e2:	ee 0c       	add	r14, r14
    10e4:	20 ec       	ldi	r18, 0xC0	; 192
    10e6:	e2 22       	and	r14, r18
    10e8:	cf 2c       	mov	r12, r15
    10ea:	c6 94       	lsr	r12
    10ec:	c6 94       	lsr	r12
    10ee:	a2 95       	swap	r26
    10f0:	aa 0f       	add	r26, r26
    10f2:	aa 0f       	add	r26, r26
    10f4:	a0 7c       	andi	r26, 0xC0	; 192
    10f6:	9f 79       	andi	r25, 0x9F	; 159
/* -----------------------------------------------------------------------------
 * Load an ADC configuration
 * -------------------------------------------------------------------------- */

void adcLoadConfiguration(adcConfiguration_t config)
{
    10f8:	66 95       	lsr	r22
    10fa:	66 95       	lsr	r22
	adcConfiguration = config;
    10fc:	67 70       	andi	r22, 0x07	; 7
    10fe:	86 2f       	mov	r24, r22
    1100:	88 0f       	add	r24, r24
    1102:	88 0f       	add	r24, r24
    1104:	20 2f       	mov	r18, r16
    1106:	22 95       	swap	r18
    1108:	22 0f       	add	r18, r18
    110a:	20 7e       	andi	r18, 0xE0	; 224
    110c:	9a 2b       	or	r25, r26
    110e:	92 2b       	or	r25, r18
    1110:	52 95       	swap	r21
    1112:	55 0f       	add	r21, r21
    1114:	50 7e       	andi	r21, 0xE0	; 224
    1116:	8e 29       	or	r24, r14
    1118:	12 95       	swap	r17
    111a:	10 7f       	andi	r17, 0xF0	; 240
    111c:	9f 7e       	andi	r25, 0xEF	; 239
    111e:	91 2b       	or	r25, r17
    1120:	90 93 b5 02 	sts	0x02B5, r25
/* -----------------------------------------------------------------------------
 * Load an ADC configuration
 * -------------------------------------------------------------------------- */

void adcLoadConfiguration(adcConfiguration_t config)
{
    1124:	76 95       	lsr	r23
    1126:	76 95       	lsr	r23
	adcConfiguration = config;
    1128:	7f 70       	andi	r23, 0x0F	; 15
    112a:	97 2f       	mov	r25, r23
    112c:	99 0f       	add	r25, r25
    112e:	99 0f       	add	r25, r25
    1130:	3c 29       	or	r19, r12
    1132:	44 0f       	add	r20, r20
    1134:	39 2b       	or	r19, r25
    1136:	34 2b       	or	r19, r20
    1138:	30 83       	st	Z, r19
    113a:	85 2b       	or	r24, r21
    113c:	8d 29       	or	r24, r13
    113e:	80 93 b3 02 	sts	0x02B3, r24

	ADMUX =	((config.reference & 0x03) << 6) | 
    1142:	d2 94       	swap	r13
    1144:	dd 0c       	add	r13, r13
    1146:	dd 0c       	add	r13, r13
    1148:	80 ec       	ldi	r24, 0xC0	; 192
    114a:	d8 22       	and	r13, r24
    114c:	42 95       	swap	r20
    114e:	40 7f       	andi	r20, 0xF0	; 240
    1150:	4d 29       	or	r20, r13
    1152:	47 2b       	or	r20, r23
    1154:	40 93 7c 00 	sts	0x007C, r20
			(config.leftAdjust << 5) | 
			(config.channel & 0x0F);
	ADCSRA =	(config.enabled << 7) |
    1158:	11 0f       	add	r17, r17
    115a:	11 0f       	add	r17, r17
    115c:	11 0f       	add	r17, r17
    115e:	51 2b       	or	r21, r17
    1160:	56 2b       	or	r21, r22
    1162:	00 0f       	add	r16, r16
    1164:	00 0f       	add	r16, r16
    1166:	00 0f       	add	r16, r16
    1168:	05 2b       	or	r16, r21
    116a:	00 93 7a 00 	sts	0x007A, r16
				(config.automaticMode << 5) |
				(config.interruptEnabled << 3) |
				(config.clockPrescaller & 0x07);
	ADCSRB =	(config.analogComparator << 6) |
    116e:	af 29       	or	r26, r15
    1170:	a0 93 7b 00 	sts	0x007B, r26
				(config.triggerSource & 0x07);
	DIDR0 =	config.digitalDisabled & 0x3F;
    1174:	bf 73       	andi	r27, 0x3F	; 63
    1176:	b0 93 7e 00 	sts	0x007E, r27
	return;
}
    117a:	0f 90       	pop	r0
    117c:	0f 90       	pop	r0
    117e:	0f 90       	pop	r0
    1180:	cf 91       	pop	r28
    1182:	df 91       	pop	r29
    1184:	1f 91       	pop	r17
    1186:	0f 91       	pop	r16
    1188:	ff 90       	pop	r15
    118a:	ef 90       	pop	r14
    118c:	df 90       	pop	r13
    118e:	cf 90       	pop	r12
    1190:	08 95       	ret

00001192 <usartInit>:
/* -----------------------------------------------------------------------------
 * Configures the USART controller
 * -------------------------------------------------------------------------- */

void usartInit(uint32 baudRate)
{
    1192:	9b 01       	movw	r18, r22
    1194:	ac 01       	movw	r20, r24
	uint64 aux64;

	// Clear errors
	UCSR0A &= 0xE3;
    1196:	80 91 c0 00 	lds	r24, 0x00C0
    119a:	83 7e       	andi	r24, 0xE3	; 227
    119c:	80 93 c0 00 	sts	0x00C0, r24
	usartConfiguration.frameError = 0;
    11a0:	60 91 af 02 	lds	r22, 0x02AF
	usartConfiguration.bufferOverflowError = 0;
	usartConfiguration.parityError = 0;
    11a4:	86 2f       	mov	r24, r22
    11a6:	87 7c       	andi	r24, 0xC7	; 199
    11a8:	80 93 af 02 	sts	0x02AF, r24

	// USART configuration
	switch(usartConfiguration.mode){
    11ac:	86 2f       	mov	r24, r22
    11ae:	83 70       	andi	r24, 0x03	; 3
    11b0:	90 e0       	ldi	r25, 0x00	; 0
    11b2:	81 30       	cpi	r24, 0x01	; 1
    11b4:	91 05       	cpc	r25, r1
    11b6:	31 f1       	breq	.+76     	; 0x1204 <usartInit+0x72>
    11b8:	82 30       	cpi	r24, 0x02	; 2
    11ba:	91 05       	cpc	r25, r1
    11bc:	1c f4       	brge	.+6      	; 0x11c4 <usartInit+0x32>
    11be:	89 2b       	or	r24, r25
    11c0:	41 f0       	breq	.+16     	; 0x11d2 <usartInit+0x40>
    11c2:	80 c0       	rjmp	.+256    	; 0x12c4 <usartInit+0x132>
    11c4:	82 30       	cpi	r24, 0x02	; 2
    11c6:	91 05       	cpc	r25, r1
    11c8:	b1 f1       	breq	.+108    	; 0x1236 <usartInit+0xa4>
    11ca:	03 97       	sbiw	r24, 0x03	; 3
    11cc:	09 f0       	breq	.+2      	; 0x11d0 <usartInit+0x3e>
    11ce:	7a c0       	rjmp	.+244    	; 0x12c4 <usartInit+0x132>
    11d0:	4d c0       	rjmp	.+154    	; 0x126c <usartInit+0xda>
	case 0:
		clrBit(UCSR0A, U2X0);			// Normal speed
    11d2:	80 91 c0 00 	lds	r24, 0x00C0
    11d6:	8d 7f       	andi	r24, 0xFD	; 253
    11d8:	80 93 c0 00 	sts	0x00C0, r24
		clrBit(UCSR0C, UCPOL0);			// Write zero in asynchronous mode
    11dc:	80 91 c2 00 	lds	r24, 0x00C2
    11e0:	8e 7f       	andi	r24, 0xFE	; 254
    11e2:	80 93 c2 00 	sts	0x00C2, r24
		clrBit(UCSR0C, UMSEL01);		// Asynchronous mode
    11e6:	80 91 c2 00 	lds	r24, 0x00C2
    11ea:	8f 77       	andi	r24, 0x7F	; 127
    11ec:	80 93 c2 00 	sts	0x00C2, r24
		clrBit(UCSR0C, UMSEL00);		// Asynchronous mode
    11f0:	80 91 c2 00 	lds	r24, 0x00C2
    11f4:	8f 7b       	andi	r24, 0xBF	; 191
    11f6:	80 93 c2 00 	sts	0x00C2, r24
		aux64 = F_CPU / 16 / baudRate;
		usartConfiguration.ubrr = (uint16)(aux64 - 1);
    11fa:	60 e4       	ldi	r22, 0x40	; 64
    11fc:	72 e4       	ldi	r23, 0x42	; 66
    11fe:	8f e0       	ldi	r24, 0x0F	; 15
    1200:	90 e0       	ldi	r25, 0x00	; 0
    1202:	52 c0       	rjmp	.+164    	; 0x12a8 <usartInit+0x116>
		break;
	case 1:
		setBit(UCSR0A, U2X0);			// Double speed
    1204:	80 91 c0 00 	lds	r24, 0x00C0
    1208:	82 60       	ori	r24, 0x02	; 2
    120a:	80 93 c0 00 	sts	0x00C0, r24
		clrBit(UCSR0C, UCPOL0);			// Write zero in asynchronous mode
    120e:	80 91 c2 00 	lds	r24, 0x00C2
    1212:	8e 7f       	andi	r24, 0xFE	; 254
    1214:	80 93 c2 00 	sts	0x00C2, r24
		clrBit(UCSR0C, UMSEL01);		// Asynchronous mode
    1218:	80 91 c2 00 	lds	r24, 0x00C2
    121c:	8f 77       	andi	r24, 0x7F	; 127
    121e:	80 93 c2 00 	sts	0x00C2, r24
		clrBit(UCSR0C, UMSEL00);		// Asynchronous mode
    1222:	80 91 c2 00 	lds	r24, 0x00C2
    1226:	8f 7b       	andi	r24, 0xBF	; 191
    1228:	80 93 c2 00 	sts	0x00C2, r24
		aux64 = F_CPU / 8 / baudRate;
		usartConfiguration.ubrr = (uint16)(aux64 - 1);
    122c:	60 e8       	ldi	r22, 0x80	; 128
    122e:	74 e8       	ldi	r23, 0x84	; 132
    1230:	8e e1       	ldi	r24, 0x1E	; 30
    1232:	90 e0       	ldi	r25, 0x00	; 0
    1234:	39 c0       	rjmp	.+114    	; 0x12a8 <usartInit+0x116>
		break;
	case 2:
		clrBit(UCSR0A, U2X0);			// Write zero in synchronous mode
    1236:	80 91 c0 00 	lds	r24, 0x00C0
    123a:	8d 7f       	andi	r24, 0xFD	; 253
    123c:	80 93 c0 00 	sts	0x00C0, r24
		if(usartConfiguration.polarity)
    1240:	62 ff       	sbrs	r22, 2
    1242:	04 c0       	rjmp	.+8      	; 0x124c <usartInit+0xba>
			setBit(UCSR0C, UCPOL0);		// XCK rising edge
    1244:	80 91 c2 00 	lds	r24, 0x00C2
    1248:	81 60       	ori	r24, 0x01	; 1
    124a:	03 c0       	rjmp	.+6      	; 0x1252 <usartInit+0xc0>
		else
			clrBit(UCSR0C, UCPOL0);		// XCK falling edge
    124c:	80 91 c2 00 	lds	r24, 0x00C2
    1250:	8e 7f       	andi	r24, 0xFE	; 254
    1252:	80 93 c2 00 	sts	0x00C2, r24
		clrBit(UCSR0C, UMSEL01);		// Synchronous mode
    1256:	80 91 c2 00 	lds	r24, 0x00C2
    125a:	8f 77       	andi	r24, 0x7F	; 127
    125c:	80 93 c2 00 	sts	0x00C2, r24
		setBit(UCSR0C, UMSEL00);		// Synchronous mode
    1260:	80 91 c2 00 	lds	r24, 0x00C2
    1264:	80 64       	ori	r24, 0x40	; 64
    1266:	80 93 c2 00 	sts	0x00C2, r24
    126a:	2c c0       	rjmp	.+88     	; 0x12c4 <usartInit+0x132>
		break;
	case 3:
		clrBit(UCSR0A, U2X0);			// Write zero in synchronous mode
    126c:	80 91 c0 00 	lds	r24, 0x00C0
    1270:	8d 7f       	andi	r24, 0xFD	; 253
    1272:	80 93 c0 00 	sts	0x00C0, r24
		if(usartConfiguration.polarity)
    1276:	62 ff       	sbrs	r22, 2
    1278:	04 c0       	rjmp	.+8      	; 0x1282 <usartInit+0xf0>
			setBit(UCSR0C, UCPOL0);		// XCK rising edge
    127a:	80 91 c2 00 	lds	r24, 0x00C2
    127e:	81 60       	ori	r24, 0x01	; 1
    1280:	03 c0       	rjmp	.+6      	; 0x1288 <usartInit+0xf6>
		else
			clrBit(UCSR0C, UCPOL0);		// XCK falling edge
    1282:	80 91 c2 00 	lds	r24, 0x00C2
    1286:	8e 7f       	andi	r24, 0xFE	; 254
    1288:	80 93 c2 00 	sts	0x00C2, r24
		setBit(UCSR0C, UMSEL01);		// Master SPI mode
    128c:	80 91 c2 00 	lds	r24, 0x00C2
    1290:	80 68       	ori	r24, 0x80	; 128
    1292:	80 93 c2 00 	sts	0x00C2, r24
		setBit(UCSR0C, UMSEL00);		// Master SPI mode
    1296:	80 91 c2 00 	lds	r24, 0x00C2
    129a:	80 64       	ori	r24, 0x40	; 64
    129c:	80 93 c2 00 	sts	0x00C2, r24
		aux64 = F_CPU / 2 / baudRate;
		usartConfiguration.ubrr = (uint16)(aux64 - 1);
    12a0:	60 e0       	ldi	r22, 0x00	; 0
    12a2:	72 e1       	ldi	r23, 0x12	; 18
    12a4:	8a e7       	ldi	r24, 0x7A	; 122
    12a6:	90 e0       	ldi	r25, 0x00	; 0
    12a8:	0e 94 ea 0f 	call	0x1fd4	; 0x1fd4 <__udivmodsi4>
    12ac:	21 50       	subi	r18, 0x01	; 1
    12ae:	30 40       	sbci	r19, 0x00	; 0
    12b0:	20 93 b1 02 	sts	0x02B1, r18
    12b4:	93 2f       	mov	r25, r19
    12b6:	9f 70       	andi	r25, 0x0F	; 15
    12b8:	80 91 b2 02 	lds	r24, 0x02B2
    12bc:	80 7f       	andi	r24, 0xF0	; 240
    12be:	89 2b       	or	r24, r25
    12c0:	80 93 b2 02 	sts	0x02B2, r24
		break;
	}

	// Sets the baud rate
	UBRR0H = (uint8)(usartConfiguration.ubrr >> 8);
    12c4:	80 91 b1 02 	lds	r24, 0x02B1
    12c8:	40 91 b2 02 	lds	r20, 0x02B2
    12cc:	94 2f       	mov	r25, r20
    12ce:	9f 70       	andi	r25, 0x0F	; 15
    12d0:	29 2f       	mov	r18, r25
    12d2:	33 27       	eor	r19, r19
    12d4:	27 fd       	sbrc	r18, 7
    12d6:	3a 95       	dec	r19
    12d8:	20 93 c5 00 	sts	0x00C5, r18
	UBRR0L = (uint8)usartConfiguration.ubrr;
    12dc:	80 93 c4 00 	sts	0x00C4, r24

	// Receiver buffer
	if(usartConfiguration.receiverBufferEnable)
    12e0:	45 ff       	sbrs	r20, 5
    12e2:	0a c0       	rjmp	.+20     	; 0x12f8 <usartInit+0x166>
		usartActivateReceptionCompleteInterrupt();
    12e4:	80 91 c1 00 	lds	r24, 0x00C1
    12e8:	80 68       	ori	r24, 0x80	; 128
    12ea:	80 93 c1 00 	sts	0x00C1, r24
    12ee:	80 91 b0 02 	lds	r24, 0x02B0
    12f2:	82 60       	ori	r24, 0x02	; 2
    12f4:	80 93 b0 02 	sts	0x02B0, r24
    12f8:	08 95       	ret

000012fa <usartCheckError>:
 * Checks if an error occurred during transmission or reception
 * -------------------------------------------------------------------------- */

uint8 usartCheckError(void)
{
	usartConfiguration.frameError = isBitSet(UCSR0A, FE0);
    12fa:	e0 ec       	ldi	r30, 0xC0	; 192
    12fc:	f0 e0       	ldi	r31, 0x00	; 0
    12fe:	40 81       	ld	r20, Z
    1300:	42 95       	swap	r20
    1302:	41 70       	andi	r20, 0x01	; 1
    1304:	84 2f       	mov	r24, r20
    1306:	88 0f       	add	r24, r24
    1308:	88 0f       	add	r24, r24
    130a:	88 0f       	add	r24, r24
    130c:	90 91 af 02 	lds	r25, 0x02AF
    1310:	97 7f       	andi	r25, 0xF7	; 247
    1312:	98 2b       	or	r25, r24
    1314:	90 93 af 02 	sts	0x02AF, r25
	usartConfiguration.bufferOverflowError = isBitSet(UCSR0A, DOR0);
    1318:	80 81       	ld	r24, Z
    131a:	86 95       	lsr	r24
    131c:	86 95       	lsr	r24
    131e:	86 95       	lsr	r24
    1320:	81 70       	andi	r24, 0x01	; 1
    1322:	28 2f       	mov	r18, r24
    1324:	22 95       	swap	r18
    1326:	20 7f       	andi	r18, 0xF0	; 240
    1328:	9f 7e       	andi	r25, 0xEF	; 239
    132a:	92 2b       	or	r25, r18
    132c:	90 93 af 02 	sts	0x02AF, r25
	usartConfiguration.parityError = isBitSet(UCSR0A, UPE0);
    1330:	20 81       	ld	r18, Z
    1332:	26 95       	lsr	r18
    1334:	26 95       	lsr	r18
    1336:	21 70       	andi	r18, 0x01	; 1
    1338:	32 2f       	mov	r19, r18
    133a:	32 95       	swap	r19
    133c:	33 0f       	add	r19, r19
    133e:	30 7e       	andi	r19, 0xE0	; 224
    1340:	9f 7d       	andi	r25, 0xDF	; 223
    1342:	93 2b       	or	r25, r19
    1344:	90 93 af 02 	sts	0x02AF, r25
    1348:	82 2b       	or	r24, r18
	return (usartConfiguration.parityError | usartConfiguration.bufferOverflowError | usartConfiguration.frameError);
}
    134a:	84 2b       	or	r24, r20
    134c:	08 95       	ret

0000134e <usartTransmit>:
/* -----------------------------------------------------------------------------
 * Transmits data in 5, 6, 7 or 8 bits modes using the USART controller
 * -------------------------------------------------------------------------- */

void usartTransmit(int8 data)
{
    134e:	98 2f       	mov	r25, r24
	
	while(!usartIsBufferEmpty())
    1350:	80 91 c0 00 	lds	r24, 0x00C0
    1354:	85 ff       	sbrs	r24, 5
    1356:	fc cf       	rjmp	.-8      	; 0x1350 <usartTransmit+0x2>
		;	// Waits until last transmission ends
	UDR0 = data;
    1358:	90 93 c6 00 	sts	0x00C6, r25
	return;
}
    135c:	08 95       	ret

0000135e <usartTransmit9bits>:
/* -----------------------------------------------------------------------------
 * Transmits data in 9 bits mode using the USART controller
 * -------------------------------------------------------------------------- */

void usartTransmit9bits(uint16 data)
{
    135e:	9c 01       	movw	r18, r24
	uint8 aux;

	while(!usartIsBufferEmpty())
    1360:	80 91 c0 00 	lds	r24, 0x00C0
    1364:	85 ff       	sbrs	r24, 5
    1366:	fc cf       	rjmp	.-8      	; 0x1360 <usartTransmit9bits+0x2>
		;	// Waits until last transmission ends
	aux = ((data & 0x100) >> 8);
	if(aux)
    1368:	c9 01       	movw	r24, r18
    136a:	80 70       	andi	r24, 0x00	; 0
    136c:	91 70       	andi	r25, 0x01	; 1
    136e:	99 23       	and	r25, r25
    1370:	21 f0       	breq	.+8      	; 0x137a <usartTransmit9bits+0x1c>
		setBit(UCSR0B, TXB80);
    1372:	80 91 c1 00 	lds	r24, 0x00C1
    1376:	81 60       	ori	r24, 0x01	; 1
    1378:	03 c0       	rjmp	.+6      	; 0x1380 <usartTransmit9bits+0x22>
	else
		clrBit(UCSR0B, TXB80);
    137a:	80 91 c1 00 	lds	r24, 0x00C1
    137e:	8e 7f       	andi	r24, 0xFE	; 254
    1380:	80 93 c1 00 	sts	0x00C1, r24
	UDR0 = (uint8)data;
    1384:	20 93 c6 00 	sts	0x00C6, r18
	return;
}
    1388:	08 95       	ret

0000138a <usartTransmitStd>:
 * Transmits data in 5, 6, 7 or 8 bits modes using the USART controller and
 * standard output heandler
 * -------------------------------------------------------------------------- */

int16 usartTransmitStd(int8 data, FILE * stream)
{
    138a:	98 2f       	mov	r25, r24
	while(!usartIsBufferEmpty())
    138c:	80 91 c0 00 	lds	r24, 0x00C0
    1390:	85 ff       	sbrs	r24, 5
    1392:	fc cf       	rjmp	.-8      	; 0x138c <usartTransmitStd+0x2>
		;	// Waits until last transmission ends
	UDR0 = data;
    1394:	90 93 c6 00 	sts	0x00C6, r25
	return FALSE;
}
    1398:	80 e0       	ldi	r24, 0x00	; 0
    139a:	90 e0       	ldi	r25, 0x00	; 0
    139c:	08 95       	ret

0000139e <usartReceive>:

uint8 usartReceive(void)
{
	uint8 status;

	while(!usartIsReceptionComplete())
    139e:	80 91 c0 00 	lds	r24, 0x00C0
    13a2:	87 ff       	sbrs	r24, 7
    13a4:	fc cf       	rjmp	.-8      	; 0x139e <usartReceive>
		;	// Waits until last reception ends
	status = UCSR0A;
    13a6:	90 91 c0 00 	lds	r25, 0x00C0
	usartConfiguration.frameError = isBitSet(status, FE0);
    13aa:	29 2f       	mov	r18, r25
    13ac:	26 95       	lsr	r18
    13ae:	28 70       	andi	r18, 0x08	; 8
    13b0:	80 91 af 02 	lds	r24, 0x02AF
    13b4:	87 7e       	andi	r24, 0xE7	; 231
	usartConfiguration.bufferOverflowError = isBitSet(status, DOR0);
    13b6:	99 0f       	add	r25, r25
    13b8:	39 2f       	mov	r19, r25
    13ba:	30 71       	andi	r19, 0x10	; 16
    13bc:	82 2b       	or	r24, r18
    13be:	83 2b       	or	r24, r19
	usartConfiguration.parityError = isBitSet(status, UPE0);
    13c0:	99 0f       	add	r25, r25
    13c2:	99 0f       	add	r25, r25
    13c4:	90 72       	andi	r25, 0x20	; 32
    13c6:	8f 7d       	andi	r24, 0xDF	; 223
    13c8:	89 2b       	or	r24, r25
    13ca:	80 93 af 02 	sts	0x02AF, r24
	return UDR0;
    13ce:	80 91 c6 00 	lds	r24, 0x00C6
}
    13d2:	08 95       	ret

000013d4 <usartReceive9bits>:
	uint8 status;
	uint8 byteh;
	uint8 bytel;
	uint16 byte;

	while(!usartIsReceptionComplete())
    13d4:	80 91 c0 00 	lds	r24, 0x00C0
    13d8:	87 ff       	sbrs	r24, 7
    13da:	fc cf       	rjmp	.-8      	; 0x13d4 <usartReceive9bits>
		;	// Waits until last reception ends
	status = UCSR0A;
    13dc:	90 91 c0 00 	lds	r25, 0x00C0
	byteh = UCSR0B;
    13e0:	20 91 c1 00 	lds	r18, 0x00C1
	bytel = UDR0;
    13e4:	60 91 c6 00 	lds	r22, 0x00C6

	usartConfiguration.frameError = isBitSet(status, FE0);
    13e8:	49 2f       	mov	r20, r25
    13ea:	46 95       	lsr	r20
    13ec:	48 70       	andi	r20, 0x08	; 8
    13ee:	80 91 af 02 	lds	r24, 0x02AF
    13f2:	87 7e       	andi	r24, 0xE7	; 231
	usartConfiguration.bufferOverflowError = isBitSet(status, DOR0);
    13f4:	99 0f       	add	r25, r25
    13f6:	59 2f       	mov	r21, r25
    13f8:	50 71       	andi	r21, 0x10	; 16
    13fa:	84 2b       	or	r24, r20
    13fc:	85 2b       	or	r24, r21
	usartConfiguration.parityError = isBitSet(status, UPE0);
    13fe:	99 0f       	add	r25, r25
    1400:	99 0f       	add	r25, r25
    1402:	90 72       	andi	r25, 0x20	; 32
    1404:	8f 7d       	andi	r24, 0xDF	; 223
    1406:	89 2b       	or	r24, r25
    1408:	80 93 af 02 	sts	0x02AF, r24

	byte = (uint16)(byteh & 0x02) << 7;
    140c:	30 e0       	ldi	r19, 0x00	; 0
    140e:	22 70       	andi	r18, 0x02	; 2
    1410:	30 70       	andi	r19, 0x00	; 0
    1412:	36 95       	lsr	r19
    1414:	32 2f       	mov	r19, r18
    1416:	22 27       	eor	r18, r18
    1418:	37 95       	ror	r19
    141a:	27 95       	ror	r18
    141c:	70 e0       	ldi	r23, 0x00	; 0
    141e:	26 2b       	or	r18, r22
    1420:	37 2b       	or	r19, r23
	byte |= bytel;
	return  byte;
}
    1422:	c9 01       	movw	r24, r18
    1424:	08 95       	ret

00001426 <usartReceiveStd>:
 * standard input heandler
 * -------------------------------------------------------------------------- */

int16 usartReceiveStd(FILE * stream)
{
	while(!usartIsReceptionComplete())
    1426:	80 91 c0 00 	lds	r24, 0x00C0
    142a:	87 ff       	sbrs	r24, 7
    142c:	fc cf       	rjmp	.-8      	; 0x1426 <usartReceiveStd>
		;	// Waits until last reception ends
	return (int16)UDR0;
    142e:	80 91 c6 00 	lds	r24, 0x00C6
}
    1432:	90 e0       	ldi	r25, 0x00	; 0
    1434:	08 95       	ret

00001436 <usartClearReceptionBuffer>:
/* -----------------------------------------------------------------------------
 * Clears the receptor data buffer
 * -------------------------------------------------------------------------- */

void usartClearReceptionBuffer(void)
{
    1436:	02 c0       	rjmp	.+4      	; 0x143c <usartClearReceptionBuffer+0x6>
	uint8 aux;
	while(usartIsReceptionComplete())
		aux = UDR0;
    1438:	80 91 c6 00 	lds	r24, 0x00C6
 * -------------------------------------------------------------------------- */

void usartClearReceptionBuffer(void)
{
	uint8 aux;
	while(usartIsReceptionComplete())
    143c:	80 91 c0 00 	lds	r24, 0x00C0
    1440:	87 fd       	sbrc	r24, 7
    1442:	fa cf       	rjmp	.-12     	; 0x1438 <usartClearReceptionBuffer+0x2>
		aux = UDR0;
	return;
}
    1444:	08 95       	ret

00001446 <usartAddDataToReceiverBuffer>:
/* -----------------------------------------------------------------------------
 * Adds data to the reception buffer. The function has NO CONTROL of lost data.
 * -------------------------------------------------------------------------- */

void usartAddDataToReceiverBuffer(uint8 data)
{
    1446:	1f 93       	push	r17
    1448:	cf 93       	push	r28
    144a:	df 93       	push	r29
    144c:	18 2f       	mov	r17, r24
	if(((usartReceiverBufferNextWrite + 1) % USART_RECEIVER_BUFFER_SIZE) != usartReceiverBufferNextRead){
    144e:	80 91 b6 02 	lds	r24, 0x02B6
    1452:	c8 2f       	mov	r28, r24
    1454:	d0 e0       	ldi	r29, 0x00	; 0
    1456:	21 96       	adiw	r28, 0x01	; 1
    1458:	be 01       	movw	r22, r28
    145a:	88 27       	eor	r24, r24
    145c:	77 fd       	sbrc	r23, 7
    145e:	80 95       	com	r24
    1460:	98 2f       	mov	r25, r24
    1462:	21 97       	sbiw	r28, 0x01	; 1
    1464:	22 e3       	ldi	r18, 0x32	; 50
    1466:	30 e0       	ldi	r19, 0x00	; 0
    1468:	40 e0       	ldi	r20, 0x00	; 0
    146a:	50 e0       	ldi	r21, 0x00	; 0
    146c:	0e 94 ea 0f 	call	0x1fd4	; 0x1fd4 <__udivmodsi4>
    1470:	9b 01       	movw	r18, r22
    1472:	ac 01       	movw	r20, r24
    1474:	80 91 b8 02 	lds	r24, 0x02B8
    1478:	90 e0       	ldi	r25, 0x00	; 0
    147a:	a0 e0       	ldi	r26, 0x00	; 0
    147c:	b0 e0       	ldi	r27, 0x00	; 0
    147e:	28 17       	cp	r18, r24
    1480:	39 07       	cpc	r19, r25
    1482:	4a 07       	cpc	r20, r26
    1484:	5b 07       	cpc	r21, r27
    1486:	51 f0       	breq	.+20     	; 0x149c <usartAddDataToReceiverBuffer+0x56>
		usartReceiverBuffer[usartReceiverBufferNextWrite] = data;
    1488:	c3 58       	subi	r28, 0x83	; 131
    148a:	dd 4f       	sbci	r29, 0xFD	; 253
    148c:	18 83       	st	Y, r17
		usartReceiverBufferNextWrite = (usartReceiverBufferNextWrite + 1) % USART_RECEIVER_BUFFER_SIZE;
    148e:	20 93 b6 02 	sts	0x02B6, r18
		usartReceiverBufferLength++;
    1492:	80 91 b7 02 	lds	r24, 0x02B7
    1496:	8f 5f       	subi	r24, 0xFF	; 255
    1498:	80 93 b7 02 	sts	0x02B7, r24
	}
	return;
}
    149c:	df 91       	pop	r29
    149e:	cf 91       	pop	r28
    14a0:	1f 91       	pop	r17
    14a2:	08 95       	ret

000014a4 <usartGetDataFromReceiverBuffer>:
 * usartIsReceiverBufferEmpty() function must be called to check if there is new
 * data in the buffer.
 * -------------------------------------------------------------------------- */

uint8 usartGetDataFromReceiverBuffer(void)
{
    14a4:	0f 93       	push	r16
    14a6:	1f 93       	push	r17
	uint8 data = usartReceiverBuffer[usartReceiverBufferNextRead];
    14a8:	80 91 b8 02 	lds	r24, 0x02B8
    14ac:	28 2f       	mov	r18, r24
    14ae:	30 e0       	ldi	r19, 0x00	; 0
    14b0:	f9 01       	movw	r30, r18
    14b2:	e3 58       	subi	r30, 0x83	; 131
    14b4:	fd 4f       	sbci	r31, 0xFD	; 253
    14b6:	00 81       	ld	r16, Z
	if(usartReceiverBufferLength > 0){
    14b8:	10 91 b7 02 	lds	r17, 0x02B7
    14bc:	11 23       	and	r17, r17
    14be:	91 f0       	breq	.+36     	; 0x14e4 <usartGetDataFromReceiverBuffer+0x40>
		usartReceiverBufferNextRead = (usartReceiverBufferNextRead + 1) % USART_RECEIVER_BUFFER_SIZE;
    14c0:	2f 5f       	subi	r18, 0xFF	; 255
    14c2:	3f 4f       	sbci	r19, 0xFF	; 255
    14c4:	b9 01       	movw	r22, r18
    14c6:	88 27       	eor	r24, r24
    14c8:	77 fd       	sbrc	r23, 7
    14ca:	80 95       	com	r24
    14cc:	98 2f       	mov	r25, r24
    14ce:	22 e3       	ldi	r18, 0x32	; 50
    14d0:	30 e0       	ldi	r19, 0x00	; 0
    14d2:	40 e0       	ldi	r20, 0x00	; 0
    14d4:	50 e0       	ldi	r21, 0x00	; 0
    14d6:	0e 94 ea 0f 	call	0x1fd4	; 0x1fd4 <__udivmodsi4>
    14da:	60 93 b8 02 	sts	0x02B8, r22
		usartReceiverBufferLength--;
    14de:	11 50       	subi	r17, 0x01	; 1
    14e0:	10 93 b7 02 	sts	0x02B7, r17
	}
	return data;
}
    14e4:	80 2f       	mov	r24, r16
    14e6:	1f 91       	pop	r17
    14e8:	0f 91       	pop	r16
    14ea:	08 95       	ret

000014ec <usartIsReceiverBufferEmpty>:
 * Verifies if there is new data in the receiver buffer. Must be called before
 * reading the buffer.
 * -------------------------------------------------------------------------- */

uint8 usartIsReceiverBufferEmpty(void)
{
    14ec:	90 e0       	ldi	r25, 0x00	; 0
    14ee:	80 91 b7 02 	lds	r24, 0x02B7
    14f2:	88 23       	and	r24, r24
    14f4:	09 f4       	brne	.+2      	; 0x14f8 <usartIsReceiverBufferEmpty+0xc>
    14f6:	91 e0       	ldi	r25, 0x01	; 1
	if(usartReceiverBufferLength == 0)
		return TRUE;
	return FALSE;
}
    14f8:	89 2f       	mov	r24, r25
    14fa:	08 95       	ret

000014fc <usartGetCurrentBaudRate>:

 uint32 usartGetCurrentBaudRate(void)
 {
	uint32 aux32 = 0;

	switch(usartConfiguration.mode){
    14fc:	80 91 af 02 	lds	r24, 0x02AF
    1500:	83 70       	andi	r24, 0x03	; 3
    1502:	90 e0       	ldi	r25, 0x00	; 0
    1504:	81 30       	cpi	r24, 0x01	; 1
    1506:	91 05       	cpc	r25, r1
    1508:	b9 f0       	breq	.+46     	; 0x1538 <usartGetCurrentBaudRate+0x3c>
    150a:	82 30       	cpi	r24, 0x02	; 2
    150c:	91 05       	cpc	r25, r1
    150e:	09 f1       	breq	.+66     	; 0x1552 <usartGetCurrentBaudRate+0x56>
    1510:	89 2b       	or	r24, r25
    1512:	29 f0       	breq	.+10     	; 0x151e <usartGetCurrentBaudRate+0x22>
    1514:	20 e0       	ldi	r18, 0x00	; 0
    1516:	30 e0       	ldi	r19, 0x00	; 0
    1518:	40 e0       	ldi	r20, 0x00	; 0
    151a:	50 e0       	ldi	r21, 0x00	; 0
    151c:	2c c0       	rjmp	.+88     	; 0x1576 <usartGetCurrentBaudRate+0x7a>
	case 0:
		aux32 = F_CPU / 16 / (UBRR0 + 1);
    151e:	20 91 c4 00 	lds	r18, 0x00C4
    1522:	30 91 c5 00 	lds	r19, 0x00C5
    1526:	2f 5f       	subi	r18, 0xFF	; 255
    1528:	3f 4f       	sbci	r19, 0xFF	; 255
    152a:	40 e0       	ldi	r20, 0x00	; 0
    152c:	50 e0       	ldi	r21, 0x00	; 0
    152e:	60 e4       	ldi	r22, 0x40	; 64
    1530:	72 e4       	ldi	r23, 0x42	; 66
    1532:	8f e0       	ldi	r24, 0x0F	; 15
    1534:	90 e0       	ldi	r25, 0x00	; 0
    1536:	19 c0       	rjmp	.+50     	; 0x156a <usartGetCurrentBaudRate+0x6e>
		break;
	case 1:
		aux32 = F_CPU / 8 / (UBRR0 + 1);
    1538:	20 91 c4 00 	lds	r18, 0x00C4
    153c:	30 91 c5 00 	lds	r19, 0x00C5
    1540:	2f 5f       	subi	r18, 0xFF	; 255
    1542:	3f 4f       	sbci	r19, 0xFF	; 255
    1544:	40 e0       	ldi	r20, 0x00	; 0
    1546:	50 e0       	ldi	r21, 0x00	; 0
    1548:	60 e8       	ldi	r22, 0x80	; 128
    154a:	74 e8       	ldi	r23, 0x84	; 132
    154c:	8e e1       	ldi	r24, 0x1E	; 30
    154e:	90 e0       	ldi	r25, 0x00	; 0
    1550:	0c c0       	rjmp	.+24     	; 0x156a <usartGetCurrentBaudRate+0x6e>
		break;
	case 2:
		aux32 = F_CPU / 2 / (UBRR0 + 1);
    1552:	20 91 c4 00 	lds	r18, 0x00C4
    1556:	30 91 c5 00 	lds	r19, 0x00C5
    155a:	2f 5f       	subi	r18, 0xFF	; 255
    155c:	3f 4f       	sbci	r19, 0xFF	; 255
    155e:	40 e0       	ldi	r20, 0x00	; 0
    1560:	50 e0       	ldi	r21, 0x00	; 0
    1562:	60 e0       	ldi	r22, 0x00	; 0
    1564:	72 e1       	ldi	r23, 0x12	; 18
    1566:	8a e7       	ldi	r24, 0x7A	; 122
    1568:	90 e0       	ldi	r25, 0x00	; 0
    156a:	0e 94 ea 0f 	call	0x1fd4	; 0x1fd4 <__udivmodsi4>
    156e:	c9 01       	movw	r24, r18
    1570:	da 01       	movw	r26, r20
    1572:	9c 01       	movw	r18, r24
    1574:	ad 01       	movw	r20, r26
		break;
	}
	return aux32;
    1576:	b9 01       	movw	r22, r18
    1578:	ca 01       	movw	r24, r20
    157a:	08 95       	ret

0000157c <_fpadd_parts>:
    157c:	a0 e0       	ldi	r26, 0x00	; 0
    157e:	b0 e0       	ldi	r27, 0x00	; 0
    1580:	e4 ec       	ldi	r30, 0xC4	; 196
    1582:	fa e0       	ldi	r31, 0x0A	; 10
    1584:	0c 94 0c 10 	jmp	0x2018	; 0x2018 <__prologue_saves__>
    1588:	dc 01       	movw	r26, r24
    158a:	2b 01       	movw	r4, r22
    158c:	fa 01       	movw	r30, r20
    158e:	9c 91       	ld	r25, X
    1590:	92 30       	cpi	r25, 0x02	; 2
    1592:	08 f4       	brcc	.+2      	; 0x1596 <_fpadd_parts+0x1a>
    1594:	39 c1       	rjmp	.+626    	; 0x1808 <_fpadd_parts+0x28c>
    1596:	eb 01       	movw	r28, r22
    1598:	88 81       	ld	r24, Y
    159a:	82 30       	cpi	r24, 0x02	; 2
    159c:	08 f4       	brcc	.+2      	; 0x15a0 <_fpadd_parts+0x24>
    159e:	33 c1       	rjmp	.+614    	; 0x1806 <_fpadd_parts+0x28a>
    15a0:	94 30       	cpi	r25, 0x04	; 4
    15a2:	69 f4       	brne	.+26     	; 0x15be <_fpadd_parts+0x42>
    15a4:	84 30       	cpi	r24, 0x04	; 4
    15a6:	09 f0       	breq	.+2      	; 0x15aa <_fpadd_parts+0x2e>
    15a8:	2f c1       	rjmp	.+606    	; 0x1808 <_fpadd_parts+0x28c>
    15aa:	11 96       	adiw	r26, 0x01	; 1
    15ac:	9c 91       	ld	r25, X
    15ae:	11 97       	sbiw	r26, 0x01	; 1
    15b0:	89 81       	ldd	r24, Y+1	; 0x01
    15b2:	98 17       	cp	r25, r24
    15b4:	09 f4       	brne	.+2      	; 0x15b8 <_fpadd_parts+0x3c>
    15b6:	28 c1       	rjmp	.+592    	; 0x1808 <_fpadd_parts+0x28c>
    15b8:	a7 e5       	ldi	r26, 0x57	; 87
    15ba:	b1 e0       	ldi	r27, 0x01	; 1
    15bc:	25 c1       	rjmp	.+586    	; 0x1808 <_fpadd_parts+0x28c>
    15be:	84 30       	cpi	r24, 0x04	; 4
    15c0:	09 f4       	brne	.+2      	; 0x15c4 <_fpadd_parts+0x48>
    15c2:	21 c1       	rjmp	.+578    	; 0x1806 <_fpadd_parts+0x28a>
    15c4:	82 30       	cpi	r24, 0x02	; 2
    15c6:	a9 f4       	brne	.+42     	; 0x15f2 <_fpadd_parts+0x76>
    15c8:	92 30       	cpi	r25, 0x02	; 2
    15ca:	09 f0       	breq	.+2      	; 0x15ce <_fpadd_parts+0x52>
    15cc:	1d c1       	rjmp	.+570    	; 0x1808 <_fpadd_parts+0x28c>
    15ce:	9a 01       	movw	r18, r20
    15d0:	ad 01       	movw	r20, r26
    15d2:	88 e0       	ldi	r24, 0x08	; 8
    15d4:	ea 01       	movw	r28, r20
    15d6:	09 90       	ld	r0, Y+
    15d8:	ae 01       	movw	r20, r28
    15da:	e9 01       	movw	r28, r18
    15dc:	09 92       	st	Y+, r0
    15de:	9e 01       	movw	r18, r28
    15e0:	81 50       	subi	r24, 0x01	; 1
    15e2:	c1 f7       	brne	.-16     	; 0x15d4 <_fpadd_parts+0x58>
    15e4:	e2 01       	movw	r28, r4
    15e6:	89 81       	ldd	r24, Y+1	; 0x01
    15e8:	11 96       	adiw	r26, 0x01	; 1
    15ea:	9c 91       	ld	r25, X
    15ec:	89 23       	and	r24, r25
    15ee:	81 83       	std	Z+1, r24	; 0x01
    15f0:	08 c1       	rjmp	.+528    	; 0x1802 <_fpadd_parts+0x286>
    15f2:	92 30       	cpi	r25, 0x02	; 2
    15f4:	09 f4       	brne	.+2      	; 0x15f8 <_fpadd_parts+0x7c>
    15f6:	07 c1       	rjmp	.+526    	; 0x1806 <_fpadd_parts+0x28a>
    15f8:	12 96       	adiw	r26, 0x02	; 2
    15fa:	2d 90       	ld	r2, X+
    15fc:	3c 90       	ld	r3, X
    15fe:	13 97       	sbiw	r26, 0x03	; 3
    1600:	eb 01       	movw	r28, r22
    1602:	8a 81       	ldd	r24, Y+2	; 0x02
    1604:	9b 81       	ldd	r25, Y+3	; 0x03
    1606:	14 96       	adiw	r26, 0x04	; 4
    1608:	ad 90       	ld	r10, X+
    160a:	bd 90       	ld	r11, X+
    160c:	cd 90       	ld	r12, X+
    160e:	dc 90       	ld	r13, X
    1610:	17 97       	sbiw	r26, 0x07	; 7
    1612:	ec 80       	ldd	r14, Y+4	; 0x04
    1614:	fd 80       	ldd	r15, Y+5	; 0x05
    1616:	0e 81       	ldd	r16, Y+6	; 0x06
    1618:	1f 81       	ldd	r17, Y+7	; 0x07
    161a:	91 01       	movw	r18, r2
    161c:	28 1b       	sub	r18, r24
    161e:	39 0b       	sbc	r19, r25
    1620:	b9 01       	movw	r22, r18
    1622:	37 ff       	sbrs	r19, 7
    1624:	04 c0       	rjmp	.+8      	; 0x162e <_fpadd_parts+0xb2>
    1626:	66 27       	eor	r22, r22
    1628:	77 27       	eor	r23, r23
    162a:	62 1b       	sub	r22, r18
    162c:	73 0b       	sbc	r23, r19
    162e:	60 32       	cpi	r22, 0x20	; 32
    1630:	71 05       	cpc	r23, r1
    1632:	0c f0       	brlt	.+2      	; 0x1636 <_fpadd_parts+0xba>
    1634:	61 c0       	rjmp	.+194    	; 0x16f8 <_fpadd_parts+0x17c>
    1636:	12 16       	cp	r1, r18
    1638:	13 06       	cpc	r1, r19
    163a:	6c f5       	brge	.+90     	; 0x1696 <_fpadd_parts+0x11a>
    163c:	37 01       	movw	r6, r14
    163e:	48 01       	movw	r8, r16
    1640:	06 2e       	mov	r0, r22
    1642:	04 c0       	rjmp	.+8      	; 0x164c <_fpadd_parts+0xd0>
    1644:	96 94       	lsr	r9
    1646:	87 94       	ror	r8
    1648:	77 94       	ror	r7
    164a:	67 94       	ror	r6
    164c:	0a 94       	dec	r0
    164e:	d2 f7       	brpl	.-12     	; 0x1644 <_fpadd_parts+0xc8>
    1650:	21 e0       	ldi	r18, 0x01	; 1
    1652:	30 e0       	ldi	r19, 0x00	; 0
    1654:	40 e0       	ldi	r20, 0x00	; 0
    1656:	50 e0       	ldi	r21, 0x00	; 0
    1658:	04 c0       	rjmp	.+8      	; 0x1662 <_fpadd_parts+0xe6>
    165a:	22 0f       	add	r18, r18
    165c:	33 1f       	adc	r19, r19
    165e:	44 1f       	adc	r20, r20
    1660:	55 1f       	adc	r21, r21
    1662:	6a 95       	dec	r22
    1664:	d2 f7       	brpl	.-12     	; 0x165a <_fpadd_parts+0xde>
    1666:	21 50       	subi	r18, 0x01	; 1
    1668:	30 40       	sbci	r19, 0x00	; 0
    166a:	40 40       	sbci	r20, 0x00	; 0
    166c:	50 40       	sbci	r21, 0x00	; 0
    166e:	2e 21       	and	r18, r14
    1670:	3f 21       	and	r19, r15
    1672:	40 23       	and	r20, r16
    1674:	51 23       	and	r21, r17
    1676:	21 15       	cp	r18, r1
    1678:	31 05       	cpc	r19, r1
    167a:	41 05       	cpc	r20, r1
    167c:	51 05       	cpc	r21, r1
    167e:	21 f0       	breq	.+8      	; 0x1688 <_fpadd_parts+0x10c>
    1680:	21 e0       	ldi	r18, 0x01	; 1
    1682:	30 e0       	ldi	r19, 0x00	; 0
    1684:	40 e0       	ldi	r20, 0x00	; 0
    1686:	50 e0       	ldi	r21, 0x00	; 0
    1688:	79 01       	movw	r14, r18
    168a:	8a 01       	movw	r16, r20
    168c:	e6 28       	or	r14, r6
    168e:	f7 28       	or	r15, r7
    1690:	08 29       	or	r16, r8
    1692:	19 29       	or	r17, r9
    1694:	3c c0       	rjmp	.+120    	; 0x170e <_fpadd_parts+0x192>
    1696:	23 2b       	or	r18, r19
    1698:	d1 f1       	breq	.+116    	; 0x170e <_fpadd_parts+0x192>
    169a:	26 0e       	add	r2, r22
    169c:	37 1e       	adc	r3, r23
    169e:	35 01       	movw	r6, r10
    16a0:	46 01       	movw	r8, r12
    16a2:	06 2e       	mov	r0, r22
    16a4:	04 c0       	rjmp	.+8      	; 0x16ae <_fpadd_parts+0x132>
    16a6:	96 94       	lsr	r9
    16a8:	87 94       	ror	r8
    16aa:	77 94       	ror	r7
    16ac:	67 94       	ror	r6
    16ae:	0a 94       	dec	r0
    16b0:	d2 f7       	brpl	.-12     	; 0x16a6 <_fpadd_parts+0x12a>
    16b2:	21 e0       	ldi	r18, 0x01	; 1
    16b4:	30 e0       	ldi	r19, 0x00	; 0
    16b6:	40 e0       	ldi	r20, 0x00	; 0
    16b8:	50 e0       	ldi	r21, 0x00	; 0
    16ba:	04 c0       	rjmp	.+8      	; 0x16c4 <_fpadd_parts+0x148>
    16bc:	22 0f       	add	r18, r18
    16be:	33 1f       	adc	r19, r19
    16c0:	44 1f       	adc	r20, r20
    16c2:	55 1f       	adc	r21, r21
    16c4:	6a 95       	dec	r22
    16c6:	d2 f7       	brpl	.-12     	; 0x16bc <_fpadd_parts+0x140>
    16c8:	21 50       	subi	r18, 0x01	; 1
    16ca:	30 40       	sbci	r19, 0x00	; 0
    16cc:	40 40       	sbci	r20, 0x00	; 0
    16ce:	50 40       	sbci	r21, 0x00	; 0
    16d0:	2a 21       	and	r18, r10
    16d2:	3b 21       	and	r19, r11
    16d4:	4c 21       	and	r20, r12
    16d6:	5d 21       	and	r21, r13
    16d8:	21 15       	cp	r18, r1
    16da:	31 05       	cpc	r19, r1
    16dc:	41 05       	cpc	r20, r1
    16de:	51 05       	cpc	r21, r1
    16e0:	21 f0       	breq	.+8      	; 0x16ea <_fpadd_parts+0x16e>
    16e2:	21 e0       	ldi	r18, 0x01	; 1
    16e4:	30 e0       	ldi	r19, 0x00	; 0
    16e6:	40 e0       	ldi	r20, 0x00	; 0
    16e8:	50 e0       	ldi	r21, 0x00	; 0
    16ea:	59 01       	movw	r10, r18
    16ec:	6a 01       	movw	r12, r20
    16ee:	a6 28       	or	r10, r6
    16f0:	b7 28       	or	r11, r7
    16f2:	c8 28       	or	r12, r8
    16f4:	d9 28       	or	r13, r9
    16f6:	0b c0       	rjmp	.+22     	; 0x170e <_fpadd_parts+0x192>
    16f8:	82 15       	cp	r24, r2
    16fa:	93 05       	cpc	r25, r3
    16fc:	2c f0       	brlt	.+10     	; 0x1708 <_fpadd_parts+0x18c>
    16fe:	1c 01       	movw	r2, r24
    1700:	aa 24       	eor	r10, r10
    1702:	bb 24       	eor	r11, r11
    1704:	65 01       	movw	r12, r10
    1706:	03 c0       	rjmp	.+6      	; 0x170e <_fpadd_parts+0x192>
    1708:	ee 24       	eor	r14, r14
    170a:	ff 24       	eor	r15, r15
    170c:	87 01       	movw	r16, r14
    170e:	11 96       	adiw	r26, 0x01	; 1
    1710:	9c 91       	ld	r25, X
    1712:	d2 01       	movw	r26, r4
    1714:	11 96       	adiw	r26, 0x01	; 1
    1716:	8c 91       	ld	r24, X
    1718:	98 17       	cp	r25, r24
    171a:	09 f4       	brne	.+2      	; 0x171e <_fpadd_parts+0x1a2>
    171c:	45 c0       	rjmp	.+138    	; 0x17a8 <_fpadd_parts+0x22c>
    171e:	99 23       	and	r25, r25
    1720:	39 f0       	breq	.+14     	; 0x1730 <_fpadd_parts+0x1b4>
    1722:	a8 01       	movw	r20, r16
    1724:	97 01       	movw	r18, r14
    1726:	2a 19       	sub	r18, r10
    1728:	3b 09       	sbc	r19, r11
    172a:	4c 09       	sbc	r20, r12
    172c:	5d 09       	sbc	r21, r13
    172e:	06 c0       	rjmp	.+12     	; 0x173c <_fpadd_parts+0x1c0>
    1730:	a6 01       	movw	r20, r12
    1732:	95 01       	movw	r18, r10
    1734:	2e 19       	sub	r18, r14
    1736:	3f 09       	sbc	r19, r15
    1738:	40 0b       	sbc	r20, r16
    173a:	51 0b       	sbc	r21, r17
    173c:	57 fd       	sbrc	r21, 7
    173e:	08 c0       	rjmp	.+16     	; 0x1750 <_fpadd_parts+0x1d4>
    1740:	11 82       	std	Z+1, r1	; 0x01
    1742:	33 82       	std	Z+3, r3	; 0x03
    1744:	22 82       	std	Z+2, r2	; 0x02
    1746:	24 83       	std	Z+4, r18	; 0x04
    1748:	35 83       	std	Z+5, r19	; 0x05
    174a:	46 83       	std	Z+6, r20	; 0x06
    174c:	57 83       	std	Z+7, r21	; 0x07
    174e:	1d c0       	rjmp	.+58     	; 0x178a <_fpadd_parts+0x20e>
    1750:	81 e0       	ldi	r24, 0x01	; 1
    1752:	81 83       	std	Z+1, r24	; 0x01
    1754:	33 82       	std	Z+3, r3	; 0x03
    1756:	22 82       	std	Z+2, r2	; 0x02
    1758:	88 27       	eor	r24, r24
    175a:	99 27       	eor	r25, r25
    175c:	dc 01       	movw	r26, r24
    175e:	82 1b       	sub	r24, r18
    1760:	93 0b       	sbc	r25, r19
    1762:	a4 0b       	sbc	r26, r20
    1764:	b5 0b       	sbc	r27, r21
    1766:	84 83       	std	Z+4, r24	; 0x04
    1768:	95 83       	std	Z+5, r25	; 0x05
    176a:	a6 83       	std	Z+6, r26	; 0x06
    176c:	b7 83       	std	Z+7, r27	; 0x07
    176e:	0d c0       	rjmp	.+26     	; 0x178a <_fpadd_parts+0x20e>
    1770:	22 0f       	add	r18, r18
    1772:	33 1f       	adc	r19, r19
    1774:	44 1f       	adc	r20, r20
    1776:	55 1f       	adc	r21, r21
    1778:	24 83       	std	Z+4, r18	; 0x04
    177a:	35 83       	std	Z+5, r19	; 0x05
    177c:	46 83       	std	Z+6, r20	; 0x06
    177e:	57 83       	std	Z+7, r21	; 0x07
    1780:	82 81       	ldd	r24, Z+2	; 0x02
    1782:	93 81       	ldd	r25, Z+3	; 0x03
    1784:	01 97       	sbiw	r24, 0x01	; 1
    1786:	93 83       	std	Z+3, r25	; 0x03
    1788:	82 83       	std	Z+2, r24	; 0x02
    178a:	24 81       	ldd	r18, Z+4	; 0x04
    178c:	35 81       	ldd	r19, Z+5	; 0x05
    178e:	46 81       	ldd	r20, Z+6	; 0x06
    1790:	57 81       	ldd	r21, Z+7	; 0x07
    1792:	da 01       	movw	r26, r20
    1794:	c9 01       	movw	r24, r18
    1796:	01 97       	sbiw	r24, 0x01	; 1
    1798:	a1 09       	sbc	r26, r1
    179a:	b1 09       	sbc	r27, r1
    179c:	8f 5f       	subi	r24, 0xFF	; 255
    179e:	9f 4f       	sbci	r25, 0xFF	; 255
    17a0:	af 4f       	sbci	r26, 0xFF	; 255
    17a2:	bf 43       	sbci	r27, 0x3F	; 63
    17a4:	28 f3       	brcs	.-54     	; 0x1770 <_fpadd_parts+0x1f4>
    17a6:	0b c0       	rjmp	.+22     	; 0x17be <_fpadd_parts+0x242>
    17a8:	91 83       	std	Z+1, r25	; 0x01
    17aa:	33 82       	std	Z+3, r3	; 0x03
    17ac:	22 82       	std	Z+2, r2	; 0x02
    17ae:	ea 0c       	add	r14, r10
    17b0:	fb 1c       	adc	r15, r11
    17b2:	0c 1d       	adc	r16, r12
    17b4:	1d 1d       	adc	r17, r13
    17b6:	e4 82       	std	Z+4, r14	; 0x04
    17b8:	f5 82       	std	Z+5, r15	; 0x05
    17ba:	06 83       	std	Z+6, r16	; 0x06
    17bc:	17 83       	std	Z+7, r17	; 0x07
    17be:	83 e0       	ldi	r24, 0x03	; 3
    17c0:	80 83       	st	Z, r24
    17c2:	24 81       	ldd	r18, Z+4	; 0x04
    17c4:	35 81       	ldd	r19, Z+5	; 0x05
    17c6:	46 81       	ldd	r20, Z+6	; 0x06
    17c8:	57 81       	ldd	r21, Z+7	; 0x07
    17ca:	57 ff       	sbrs	r21, 7
    17cc:	1a c0       	rjmp	.+52     	; 0x1802 <_fpadd_parts+0x286>
    17ce:	c9 01       	movw	r24, r18
    17d0:	aa 27       	eor	r26, r26
    17d2:	97 fd       	sbrc	r25, 7
    17d4:	a0 95       	com	r26
    17d6:	ba 2f       	mov	r27, r26
    17d8:	81 70       	andi	r24, 0x01	; 1
    17da:	90 70       	andi	r25, 0x00	; 0
    17dc:	a0 70       	andi	r26, 0x00	; 0
    17de:	b0 70       	andi	r27, 0x00	; 0
    17e0:	56 95       	lsr	r21
    17e2:	47 95       	ror	r20
    17e4:	37 95       	ror	r19
    17e6:	27 95       	ror	r18
    17e8:	82 2b       	or	r24, r18
    17ea:	93 2b       	or	r25, r19
    17ec:	a4 2b       	or	r26, r20
    17ee:	b5 2b       	or	r27, r21
    17f0:	84 83       	std	Z+4, r24	; 0x04
    17f2:	95 83       	std	Z+5, r25	; 0x05
    17f4:	a6 83       	std	Z+6, r26	; 0x06
    17f6:	b7 83       	std	Z+7, r27	; 0x07
    17f8:	82 81       	ldd	r24, Z+2	; 0x02
    17fa:	93 81       	ldd	r25, Z+3	; 0x03
    17fc:	01 96       	adiw	r24, 0x01	; 1
    17fe:	93 83       	std	Z+3, r25	; 0x03
    1800:	82 83       	std	Z+2, r24	; 0x02
    1802:	df 01       	movw	r26, r30
    1804:	01 c0       	rjmp	.+2      	; 0x1808 <_fpadd_parts+0x28c>
    1806:	d2 01       	movw	r26, r4
    1808:	cd 01       	movw	r24, r26
    180a:	cd b7       	in	r28, 0x3d	; 61
    180c:	de b7       	in	r29, 0x3e	; 62
    180e:	e2 e1       	ldi	r30, 0x12	; 18
    1810:	0c 94 28 10 	jmp	0x2050	; 0x2050 <__epilogue_restores__>

00001814 <__subsf3>:
    1814:	a0 e2       	ldi	r26, 0x20	; 32
    1816:	b0 e0       	ldi	r27, 0x00	; 0
    1818:	e0 e1       	ldi	r30, 0x10	; 16
    181a:	fc e0       	ldi	r31, 0x0C	; 12
    181c:	0c 94 18 10 	jmp	0x2030	; 0x2030 <__prologue_saves__+0x18>
    1820:	69 83       	std	Y+1, r22	; 0x01
    1822:	7a 83       	std	Y+2, r23	; 0x02
    1824:	8b 83       	std	Y+3, r24	; 0x03
    1826:	9c 83       	std	Y+4, r25	; 0x04
    1828:	2d 83       	std	Y+5, r18	; 0x05
    182a:	3e 83       	std	Y+6, r19	; 0x06
    182c:	4f 83       	std	Y+7, r20	; 0x07
    182e:	58 87       	std	Y+8, r21	; 0x08
    1830:	e9 e0       	ldi	r30, 0x09	; 9
    1832:	ee 2e       	mov	r14, r30
    1834:	f1 2c       	mov	r15, r1
    1836:	ec 0e       	add	r14, r28
    1838:	fd 1e       	adc	r15, r29
    183a:	ce 01       	movw	r24, r28
    183c:	01 96       	adiw	r24, 0x01	; 1
    183e:	b7 01       	movw	r22, r14
    1840:	0e 94 53 0f 	call	0x1ea6	; 0x1ea6 <__unpack_f>
    1844:	8e 01       	movw	r16, r28
    1846:	0f 5e       	subi	r16, 0xEF	; 239
    1848:	1f 4f       	sbci	r17, 0xFF	; 255
    184a:	ce 01       	movw	r24, r28
    184c:	05 96       	adiw	r24, 0x05	; 5
    184e:	b8 01       	movw	r22, r16
    1850:	0e 94 53 0f 	call	0x1ea6	; 0x1ea6 <__unpack_f>
    1854:	8a 89       	ldd	r24, Y+18	; 0x12
    1856:	91 e0       	ldi	r25, 0x01	; 1
    1858:	89 27       	eor	r24, r25
    185a:	8a 8b       	std	Y+18, r24	; 0x12
    185c:	c7 01       	movw	r24, r14
    185e:	b8 01       	movw	r22, r16
    1860:	ae 01       	movw	r20, r28
    1862:	47 5e       	subi	r20, 0xE7	; 231
    1864:	5f 4f       	sbci	r21, 0xFF	; 255
    1866:	0e 94 be 0a 	call	0x157c	; 0x157c <_fpadd_parts>
    186a:	0e 94 7e 0e 	call	0x1cfc	; 0x1cfc <__pack_f>
    186e:	a0 96       	adiw	r28, 0x20	; 32
    1870:	e6 e0       	ldi	r30, 0x06	; 6
    1872:	0c 94 34 10 	jmp	0x2068	; 0x2068 <__epilogue_restores__+0x18>

00001876 <__addsf3>:
    1876:	a0 e2       	ldi	r26, 0x20	; 32
    1878:	b0 e0       	ldi	r27, 0x00	; 0
    187a:	e1 e4       	ldi	r30, 0x41	; 65
    187c:	fc e0       	ldi	r31, 0x0C	; 12
    187e:	0c 94 18 10 	jmp	0x2030	; 0x2030 <__prologue_saves__+0x18>
    1882:	69 83       	std	Y+1, r22	; 0x01
    1884:	7a 83       	std	Y+2, r23	; 0x02
    1886:	8b 83       	std	Y+3, r24	; 0x03
    1888:	9c 83       	std	Y+4, r25	; 0x04
    188a:	2d 83       	std	Y+5, r18	; 0x05
    188c:	3e 83       	std	Y+6, r19	; 0x06
    188e:	4f 83       	std	Y+7, r20	; 0x07
    1890:	58 87       	std	Y+8, r21	; 0x08
    1892:	f9 e0       	ldi	r31, 0x09	; 9
    1894:	ef 2e       	mov	r14, r31
    1896:	f1 2c       	mov	r15, r1
    1898:	ec 0e       	add	r14, r28
    189a:	fd 1e       	adc	r15, r29
    189c:	ce 01       	movw	r24, r28
    189e:	01 96       	adiw	r24, 0x01	; 1
    18a0:	b7 01       	movw	r22, r14
    18a2:	0e 94 53 0f 	call	0x1ea6	; 0x1ea6 <__unpack_f>
    18a6:	8e 01       	movw	r16, r28
    18a8:	0f 5e       	subi	r16, 0xEF	; 239
    18aa:	1f 4f       	sbci	r17, 0xFF	; 255
    18ac:	ce 01       	movw	r24, r28
    18ae:	05 96       	adiw	r24, 0x05	; 5
    18b0:	b8 01       	movw	r22, r16
    18b2:	0e 94 53 0f 	call	0x1ea6	; 0x1ea6 <__unpack_f>
    18b6:	c7 01       	movw	r24, r14
    18b8:	b8 01       	movw	r22, r16
    18ba:	ae 01       	movw	r20, r28
    18bc:	47 5e       	subi	r20, 0xE7	; 231
    18be:	5f 4f       	sbci	r21, 0xFF	; 255
    18c0:	0e 94 be 0a 	call	0x157c	; 0x157c <_fpadd_parts>
    18c4:	0e 94 7e 0e 	call	0x1cfc	; 0x1cfc <__pack_f>
    18c8:	a0 96       	adiw	r28, 0x20	; 32
    18ca:	e6 e0       	ldi	r30, 0x06	; 6
    18cc:	0c 94 34 10 	jmp	0x2068	; 0x2068 <__epilogue_restores__+0x18>

000018d0 <__mulsf3>:
    18d0:	a0 e2       	ldi	r26, 0x20	; 32
    18d2:	b0 e0       	ldi	r27, 0x00	; 0
    18d4:	ee e6       	ldi	r30, 0x6E	; 110
    18d6:	fc e0       	ldi	r31, 0x0C	; 12
    18d8:	0c 94 0c 10 	jmp	0x2018	; 0x2018 <__prologue_saves__>
    18dc:	69 83       	std	Y+1, r22	; 0x01
    18de:	7a 83       	std	Y+2, r23	; 0x02
    18e0:	8b 83       	std	Y+3, r24	; 0x03
    18e2:	9c 83       	std	Y+4, r25	; 0x04
    18e4:	2d 83       	std	Y+5, r18	; 0x05
    18e6:	3e 83       	std	Y+6, r19	; 0x06
    18e8:	4f 83       	std	Y+7, r20	; 0x07
    18ea:	58 87       	std	Y+8, r21	; 0x08
    18ec:	ce 01       	movw	r24, r28
    18ee:	01 96       	adiw	r24, 0x01	; 1
    18f0:	be 01       	movw	r22, r28
    18f2:	67 5f       	subi	r22, 0xF7	; 247
    18f4:	7f 4f       	sbci	r23, 0xFF	; 255
    18f6:	0e 94 53 0f 	call	0x1ea6	; 0x1ea6 <__unpack_f>
    18fa:	ce 01       	movw	r24, r28
    18fc:	05 96       	adiw	r24, 0x05	; 5
    18fe:	be 01       	movw	r22, r28
    1900:	6f 5e       	subi	r22, 0xEF	; 239
    1902:	7f 4f       	sbci	r23, 0xFF	; 255
    1904:	0e 94 53 0f 	call	0x1ea6	; 0x1ea6 <__unpack_f>
    1908:	99 85       	ldd	r25, Y+9	; 0x09
    190a:	92 30       	cpi	r25, 0x02	; 2
    190c:	88 f0       	brcs	.+34     	; 0x1930 <__mulsf3+0x60>
    190e:	89 89       	ldd	r24, Y+17	; 0x11
    1910:	82 30       	cpi	r24, 0x02	; 2
    1912:	c8 f0       	brcs	.+50     	; 0x1946 <__mulsf3+0x76>
    1914:	94 30       	cpi	r25, 0x04	; 4
    1916:	19 f4       	brne	.+6      	; 0x191e <__mulsf3+0x4e>
    1918:	82 30       	cpi	r24, 0x02	; 2
    191a:	51 f4       	brne	.+20     	; 0x1930 <__mulsf3+0x60>
    191c:	04 c0       	rjmp	.+8      	; 0x1926 <__mulsf3+0x56>
    191e:	84 30       	cpi	r24, 0x04	; 4
    1920:	29 f4       	brne	.+10     	; 0x192c <__mulsf3+0x5c>
    1922:	92 30       	cpi	r25, 0x02	; 2
    1924:	81 f4       	brne	.+32     	; 0x1946 <__mulsf3+0x76>
    1926:	87 e5       	ldi	r24, 0x57	; 87
    1928:	91 e0       	ldi	r25, 0x01	; 1
    192a:	c6 c0       	rjmp	.+396    	; 0x1ab8 <__mulsf3+0x1e8>
    192c:	92 30       	cpi	r25, 0x02	; 2
    192e:	49 f4       	brne	.+18     	; 0x1942 <__mulsf3+0x72>
    1930:	20 e0       	ldi	r18, 0x00	; 0
    1932:	9a 85       	ldd	r25, Y+10	; 0x0a
    1934:	8a 89       	ldd	r24, Y+18	; 0x12
    1936:	98 13       	cpse	r25, r24
    1938:	21 e0       	ldi	r18, 0x01	; 1
    193a:	2a 87       	std	Y+10, r18	; 0x0a
    193c:	ce 01       	movw	r24, r28
    193e:	09 96       	adiw	r24, 0x09	; 9
    1940:	bb c0       	rjmp	.+374    	; 0x1ab8 <__mulsf3+0x1e8>
    1942:	82 30       	cpi	r24, 0x02	; 2
    1944:	49 f4       	brne	.+18     	; 0x1958 <__mulsf3+0x88>
    1946:	20 e0       	ldi	r18, 0x00	; 0
    1948:	9a 85       	ldd	r25, Y+10	; 0x0a
    194a:	8a 89       	ldd	r24, Y+18	; 0x12
    194c:	98 13       	cpse	r25, r24
    194e:	21 e0       	ldi	r18, 0x01	; 1
    1950:	2a 8b       	std	Y+18, r18	; 0x12
    1952:	ce 01       	movw	r24, r28
    1954:	41 96       	adiw	r24, 0x11	; 17
    1956:	b0 c0       	rjmp	.+352    	; 0x1ab8 <__mulsf3+0x1e8>
    1958:	2d 84       	ldd	r2, Y+13	; 0x0d
    195a:	3e 84       	ldd	r3, Y+14	; 0x0e
    195c:	4f 84       	ldd	r4, Y+15	; 0x0f
    195e:	58 88       	ldd	r5, Y+16	; 0x10
    1960:	6d 88       	ldd	r6, Y+21	; 0x15
    1962:	7e 88       	ldd	r7, Y+22	; 0x16
    1964:	8f 88       	ldd	r8, Y+23	; 0x17
    1966:	98 8c       	ldd	r9, Y+24	; 0x18
    1968:	ee 24       	eor	r14, r14
    196a:	ff 24       	eor	r15, r15
    196c:	87 01       	movw	r16, r14
    196e:	aa 24       	eor	r10, r10
    1970:	bb 24       	eor	r11, r11
    1972:	65 01       	movw	r12, r10
    1974:	40 e0       	ldi	r20, 0x00	; 0
    1976:	50 e0       	ldi	r21, 0x00	; 0
    1978:	60 e0       	ldi	r22, 0x00	; 0
    197a:	70 e0       	ldi	r23, 0x00	; 0
    197c:	e0 e0       	ldi	r30, 0x00	; 0
    197e:	f0 e0       	ldi	r31, 0x00	; 0
    1980:	c1 01       	movw	r24, r2
    1982:	81 70       	andi	r24, 0x01	; 1
    1984:	90 70       	andi	r25, 0x00	; 0
    1986:	89 2b       	or	r24, r25
    1988:	e9 f0       	breq	.+58     	; 0x19c4 <__mulsf3+0xf4>
    198a:	e6 0c       	add	r14, r6
    198c:	f7 1c       	adc	r15, r7
    198e:	08 1d       	adc	r16, r8
    1990:	19 1d       	adc	r17, r9
    1992:	9a 01       	movw	r18, r20
    1994:	ab 01       	movw	r20, r22
    1996:	2a 0d       	add	r18, r10
    1998:	3b 1d       	adc	r19, r11
    199a:	4c 1d       	adc	r20, r12
    199c:	5d 1d       	adc	r21, r13
    199e:	80 e0       	ldi	r24, 0x00	; 0
    19a0:	90 e0       	ldi	r25, 0x00	; 0
    19a2:	a0 e0       	ldi	r26, 0x00	; 0
    19a4:	b0 e0       	ldi	r27, 0x00	; 0
    19a6:	e6 14       	cp	r14, r6
    19a8:	f7 04       	cpc	r15, r7
    19aa:	08 05       	cpc	r16, r8
    19ac:	19 05       	cpc	r17, r9
    19ae:	20 f4       	brcc	.+8      	; 0x19b8 <__mulsf3+0xe8>
    19b0:	81 e0       	ldi	r24, 0x01	; 1
    19b2:	90 e0       	ldi	r25, 0x00	; 0
    19b4:	a0 e0       	ldi	r26, 0x00	; 0
    19b6:	b0 e0       	ldi	r27, 0x00	; 0
    19b8:	ba 01       	movw	r22, r20
    19ba:	a9 01       	movw	r20, r18
    19bc:	48 0f       	add	r20, r24
    19be:	59 1f       	adc	r21, r25
    19c0:	6a 1f       	adc	r22, r26
    19c2:	7b 1f       	adc	r23, r27
    19c4:	aa 0c       	add	r10, r10
    19c6:	bb 1c       	adc	r11, r11
    19c8:	cc 1c       	adc	r12, r12
    19ca:	dd 1c       	adc	r13, r13
    19cc:	97 fe       	sbrs	r9, 7
    19ce:	08 c0       	rjmp	.+16     	; 0x19e0 <__mulsf3+0x110>
    19d0:	81 e0       	ldi	r24, 0x01	; 1
    19d2:	90 e0       	ldi	r25, 0x00	; 0
    19d4:	a0 e0       	ldi	r26, 0x00	; 0
    19d6:	b0 e0       	ldi	r27, 0x00	; 0
    19d8:	a8 2a       	or	r10, r24
    19da:	b9 2a       	or	r11, r25
    19dc:	ca 2a       	or	r12, r26
    19de:	db 2a       	or	r13, r27
    19e0:	31 96       	adiw	r30, 0x01	; 1
    19e2:	e0 32       	cpi	r30, 0x20	; 32
    19e4:	f1 05       	cpc	r31, r1
    19e6:	49 f0       	breq	.+18     	; 0x19fa <__mulsf3+0x12a>
    19e8:	66 0c       	add	r6, r6
    19ea:	77 1c       	adc	r7, r7
    19ec:	88 1c       	adc	r8, r8
    19ee:	99 1c       	adc	r9, r9
    19f0:	56 94       	lsr	r5
    19f2:	47 94       	ror	r4
    19f4:	37 94       	ror	r3
    19f6:	27 94       	ror	r2
    19f8:	c3 cf       	rjmp	.-122    	; 0x1980 <__mulsf3+0xb0>
    19fa:	fa 85       	ldd	r31, Y+10	; 0x0a
    19fc:	ea 89       	ldd	r30, Y+18	; 0x12
    19fe:	2b 89       	ldd	r18, Y+19	; 0x13
    1a00:	3c 89       	ldd	r19, Y+20	; 0x14
    1a02:	8b 85       	ldd	r24, Y+11	; 0x0b
    1a04:	9c 85       	ldd	r25, Y+12	; 0x0c
    1a06:	28 0f       	add	r18, r24
    1a08:	39 1f       	adc	r19, r25
    1a0a:	2e 5f       	subi	r18, 0xFE	; 254
    1a0c:	3f 4f       	sbci	r19, 0xFF	; 255
    1a0e:	17 c0       	rjmp	.+46     	; 0x1a3e <__mulsf3+0x16e>
    1a10:	ca 01       	movw	r24, r20
    1a12:	81 70       	andi	r24, 0x01	; 1
    1a14:	90 70       	andi	r25, 0x00	; 0
    1a16:	89 2b       	or	r24, r25
    1a18:	61 f0       	breq	.+24     	; 0x1a32 <__mulsf3+0x162>
    1a1a:	16 95       	lsr	r17
    1a1c:	07 95       	ror	r16
    1a1e:	f7 94       	ror	r15
    1a20:	e7 94       	ror	r14
    1a22:	80 e0       	ldi	r24, 0x00	; 0
    1a24:	90 e0       	ldi	r25, 0x00	; 0
    1a26:	a0 e0       	ldi	r26, 0x00	; 0
    1a28:	b0 e8       	ldi	r27, 0x80	; 128
    1a2a:	e8 2a       	or	r14, r24
    1a2c:	f9 2a       	or	r15, r25
    1a2e:	0a 2b       	or	r16, r26
    1a30:	1b 2b       	or	r17, r27
    1a32:	76 95       	lsr	r23
    1a34:	67 95       	ror	r22
    1a36:	57 95       	ror	r21
    1a38:	47 95       	ror	r20
    1a3a:	2f 5f       	subi	r18, 0xFF	; 255
    1a3c:	3f 4f       	sbci	r19, 0xFF	; 255
    1a3e:	77 fd       	sbrc	r23, 7
    1a40:	e7 cf       	rjmp	.-50     	; 0x1a10 <__mulsf3+0x140>
    1a42:	0c c0       	rjmp	.+24     	; 0x1a5c <__mulsf3+0x18c>
    1a44:	44 0f       	add	r20, r20
    1a46:	55 1f       	adc	r21, r21
    1a48:	66 1f       	adc	r22, r22
    1a4a:	77 1f       	adc	r23, r23
    1a4c:	17 fd       	sbrc	r17, 7
    1a4e:	41 60       	ori	r20, 0x01	; 1
    1a50:	ee 0c       	add	r14, r14
    1a52:	ff 1c       	adc	r15, r15
    1a54:	00 1f       	adc	r16, r16
    1a56:	11 1f       	adc	r17, r17
    1a58:	21 50       	subi	r18, 0x01	; 1
    1a5a:	30 40       	sbci	r19, 0x00	; 0
    1a5c:	40 30       	cpi	r20, 0x00	; 0
    1a5e:	90 e0       	ldi	r25, 0x00	; 0
    1a60:	59 07       	cpc	r21, r25
    1a62:	90 e0       	ldi	r25, 0x00	; 0
    1a64:	69 07       	cpc	r22, r25
    1a66:	90 e4       	ldi	r25, 0x40	; 64
    1a68:	79 07       	cpc	r23, r25
    1a6a:	60 f3       	brcs	.-40     	; 0x1a44 <__mulsf3+0x174>
    1a6c:	2b 8f       	std	Y+27, r18	; 0x1b
    1a6e:	3c 8f       	std	Y+28, r19	; 0x1c
    1a70:	db 01       	movw	r26, r22
    1a72:	ca 01       	movw	r24, r20
    1a74:	8f 77       	andi	r24, 0x7F	; 127
    1a76:	90 70       	andi	r25, 0x00	; 0
    1a78:	a0 70       	andi	r26, 0x00	; 0
    1a7a:	b0 70       	andi	r27, 0x00	; 0
    1a7c:	80 34       	cpi	r24, 0x40	; 64
    1a7e:	91 05       	cpc	r25, r1
    1a80:	a1 05       	cpc	r26, r1
    1a82:	b1 05       	cpc	r27, r1
    1a84:	61 f4       	brne	.+24     	; 0x1a9e <__mulsf3+0x1ce>
    1a86:	47 fd       	sbrc	r20, 7
    1a88:	0a c0       	rjmp	.+20     	; 0x1a9e <__mulsf3+0x1ce>
    1a8a:	e1 14       	cp	r14, r1
    1a8c:	f1 04       	cpc	r15, r1
    1a8e:	01 05       	cpc	r16, r1
    1a90:	11 05       	cpc	r17, r1
    1a92:	29 f0       	breq	.+10     	; 0x1a9e <__mulsf3+0x1ce>
    1a94:	40 5c       	subi	r20, 0xC0	; 192
    1a96:	5f 4f       	sbci	r21, 0xFF	; 255
    1a98:	6f 4f       	sbci	r22, 0xFF	; 255
    1a9a:	7f 4f       	sbci	r23, 0xFF	; 255
    1a9c:	40 78       	andi	r20, 0x80	; 128
    1a9e:	1a 8e       	std	Y+26, r1	; 0x1a
    1aa0:	fe 17       	cp	r31, r30
    1aa2:	11 f0       	breq	.+4      	; 0x1aa8 <__mulsf3+0x1d8>
    1aa4:	81 e0       	ldi	r24, 0x01	; 1
    1aa6:	8a 8f       	std	Y+26, r24	; 0x1a
    1aa8:	4d 8f       	std	Y+29, r20	; 0x1d
    1aaa:	5e 8f       	std	Y+30, r21	; 0x1e
    1aac:	6f 8f       	std	Y+31, r22	; 0x1f
    1aae:	78 a3       	std	Y+32, r23	; 0x20
    1ab0:	83 e0       	ldi	r24, 0x03	; 3
    1ab2:	89 8f       	std	Y+25, r24	; 0x19
    1ab4:	ce 01       	movw	r24, r28
    1ab6:	49 96       	adiw	r24, 0x19	; 25
    1ab8:	0e 94 7e 0e 	call	0x1cfc	; 0x1cfc <__pack_f>
    1abc:	a0 96       	adiw	r28, 0x20	; 32
    1abe:	e2 e1       	ldi	r30, 0x12	; 18
    1ac0:	0c 94 28 10 	jmp	0x2050	; 0x2050 <__epilogue_restores__>

00001ac4 <__fixsfsi>:
    1ac4:	ac e0       	ldi	r26, 0x0C	; 12
    1ac6:	b0 e0       	ldi	r27, 0x00	; 0
    1ac8:	e8 e6       	ldi	r30, 0x68	; 104
    1aca:	fd e0       	ldi	r31, 0x0D	; 13
    1acc:	0c 94 1c 10 	jmp	0x2038	; 0x2038 <__prologue_saves__+0x20>
    1ad0:	69 83       	std	Y+1, r22	; 0x01
    1ad2:	7a 83       	std	Y+2, r23	; 0x02
    1ad4:	8b 83       	std	Y+3, r24	; 0x03
    1ad6:	9c 83       	std	Y+4, r25	; 0x04
    1ad8:	ce 01       	movw	r24, r28
    1ada:	01 96       	adiw	r24, 0x01	; 1
    1adc:	be 01       	movw	r22, r28
    1ade:	6b 5f       	subi	r22, 0xFB	; 251
    1ae0:	7f 4f       	sbci	r23, 0xFF	; 255
    1ae2:	0e 94 53 0f 	call	0x1ea6	; 0x1ea6 <__unpack_f>
    1ae6:	8d 81       	ldd	r24, Y+5	; 0x05
    1ae8:	82 30       	cpi	r24, 0x02	; 2
    1aea:	61 f1       	breq	.+88     	; 0x1b44 <__fixsfsi+0x80>
    1aec:	82 30       	cpi	r24, 0x02	; 2
    1aee:	50 f1       	brcs	.+84     	; 0x1b44 <__fixsfsi+0x80>
    1af0:	84 30       	cpi	r24, 0x04	; 4
    1af2:	21 f4       	brne	.+8      	; 0x1afc <__fixsfsi+0x38>
    1af4:	8e 81       	ldd	r24, Y+6	; 0x06
    1af6:	88 23       	and	r24, r24
    1af8:	51 f1       	breq	.+84     	; 0x1b4e <__fixsfsi+0x8a>
    1afa:	2e c0       	rjmp	.+92     	; 0x1b58 <__fixsfsi+0x94>
    1afc:	2f 81       	ldd	r18, Y+7	; 0x07
    1afe:	38 85       	ldd	r19, Y+8	; 0x08
    1b00:	37 fd       	sbrc	r19, 7
    1b02:	20 c0       	rjmp	.+64     	; 0x1b44 <__fixsfsi+0x80>
    1b04:	6e 81       	ldd	r22, Y+6	; 0x06
    1b06:	2f 31       	cpi	r18, 0x1F	; 31
    1b08:	31 05       	cpc	r19, r1
    1b0a:	1c f0       	brlt	.+6      	; 0x1b12 <__fixsfsi+0x4e>
    1b0c:	66 23       	and	r22, r22
    1b0e:	f9 f0       	breq	.+62     	; 0x1b4e <__fixsfsi+0x8a>
    1b10:	23 c0       	rjmp	.+70     	; 0x1b58 <__fixsfsi+0x94>
    1b12:	8e e1       	ldi	r24, 0x1E	; 30
    1b14:	90 e0       	ldi	r25, 0x00	; 0
    1b16:	82 1b       	sub	r24, r18
    1b18:	93 0b       	sbc	r25, r19
    1b1a:	29 85       	ldd	r18, Y+9	; 0x09
    1b1c:	3a 85       	ldd	r19, Y+10	; 0x0a
    1b1e:	4b 85       	ldd	r20, Y+11	; 0x0b
    1b20:	5c 85       	ldd	r21, Y+12	; 0x0c
    1b22:	04 c0       	rjmp	.+8      	; 0x1b2c <__fixsfsi+0x68>
    1b24:	56 95       	lsr	r21
    1b26:	47 95       	ror	r20
    1b28:	37 95       	ror	r19
    1b2a:	27 95       	ror	r18
    1b2c:	8a 95       	dec	r24
    1b2e:	d2 f7       	brpl	.-12     	; 0x1b24 <__fixsfsi+0x60>
    1b30:	66 23       	and	r22, r22
    1b32:	b1 f0       	breq	.+44     	; 0x1b60 <__fixsfsi+0x9c>
    1b34:	50 95       	com	r21
    1b36:	40 95       	com	r20
    1b38:	30 95       	com	r19
    1b3a:	21 95       	neg	r18
    1b3c:	3f 4f       	sbci	r19, 0xFF	; 255
    1b3e:	4f 4f       	sbci	r20, 0xFF	; 255
    1b40:	5f 4f       	sbci	r21, 0xFF	; 255
    1b42:	0e c0       	rjmp	.+28     	; 0x1b60 <__fixsfsi+0x9c>
    1b44:	20 e0       	ldi	r18, 0x00	; 0
    1b46:	30 e0       	ldi	r19, 0x00	; 0
    1b48:	40 e0       	ldi	r20, 0x00	; 0
    1b4a:	50 e0       	ldi	r21, 0x00	; 0
    1b4c:	09 c0       	rjmp	.+18     	; 0x1b60 <__fixsfsi+0x9c>
    1b4e:	2f ef       	ldi	r18, 0xFF	; 255
    1b50:	3f ef       	ldi	r19, 0xFF	; 255
    1b52:	4f ef       	ldi	r20, 0xFF	; 255
    1b54:	5f e7       	ldi	r21, 0x7F	; 127
    1b56:	04 c0       	rjmp	.+8      	; 0x1b60 <__fixsfsi+0x9c>
    1b58:	20 e0       	ldi	r18, 0x00	; 0
    1b5a:	30 e0       	ldi	r19, 0x00	; 0
    1b5c:	40 e0       	ldi	r20, 0x00	; 0
    1b5e:	50 e8       	ldi	r21, 0x80	; 128
    1b60:	b9 01       	movw	r22, r18
    1b62:	ca 01       	movw	r24, r20
    1b64:	2c 96       	adiw	r28, 0x0c	; 12
    1b66:	e2 e0       	ldi	r30, 0x02	; 2
    1b68:	0c 94 38 10 	jmp	0x2070	; 0x2070 <__epilogue_restores__+0x20>

00001b6c <__floatunsisf>:
    1b6c:	a8 e0       	ldi	r26, 0x08	; 8
    1b6e:	b0 e0       	ldi	r27, 0x00	; 0
    1b70:	ec eb       	ldi	r30, 0xBC	; 188
    1b72:	fd e0       	ldi	r31, 0x0D	; 13
    1b74:	0c 94 14 10 	jmp	0x2028	; 0x2028 <__prologue_saves__+0x10>
    1b78:	7b 01       	movw	r14, r22
    1b7a:	8c 01       	movw	r16, r24
    1b7c:	61 15       	cp	r22, r1
    1b7e:	71 05       	cpc	r23, r1
    1b80:	81 05       	cpc	r24, r1
    1b82:	91 05       	cpc	r25, r1
    1b84:	19 f4       	brne	.+6      	; 0x1b8c <__floatunsisf+0x20>
    1b86:	82 e0       	ldi	r24, 0x02	; 2
    1b88:	89 83       	std	Y+1, r24	; 0x01
    1b8a:	60 c0       	rjmp	.+192    	; 0x1c4c <__floatunsisf+0xe0>
    1b8c:	83 e0       	ldi	r24, 0x03	; 3
    1b8e:	89 83       	std	Y+1, r24	; 0x01
    1b90:	8e e1       	ldi	r24, 0x1E	; 30
    1b92:	c8 2e       	mov	r12, r24
    1b94:	d1 2c       	mov	r13, r1
    1b96:	dc 82       	std	Y+4, r13	; 0x04
    1b98:	cb 82       	std	Y+3, r12	; 0x03
    1b9a:	ed 82       	std	Y+5, r14	; 0x05
    1b9c:	fe 82       	std	Y+6, r15	; 0x06
    1b9e:	0f 83       	std	Y+7, r16	; 0x07
    1ba0:	18 87       	std	Y+8, r17	; 0x08
    1ba2:	c8 01       	movw	r24, r16
    1ba4:	b7 01       	movw	r22, r14
    1ba6:	0e 94 2f 0e 	call	0x1c5e	; 0x1c5e <__clzsi2>
    1baa:	fc 01       	movw	r30, r24
    1bac:	31 97       	sbiw	r30, 0x01	; 1
    1bae:	f7 ff       	sbrs	r31, 7
    1bb0:	3b c0       	rjmp	.+118    	; 0x1c28 <__floatunsisf+0xbc>
    1bb2:	22 27       	eor	r18, r18
    1bb4:	33 27       	eor	r19, r19
    1bb6:	2e 1b       	sub	r18, r30
    1bb8:	3f 0b       	sbc	r19, r31
    1bba:	57 01       	movw	r10, r14
    1bbc:	68 01       	movw	r12, r16
    1bbe:	02 2e       	mov	r0, r18
    1bc0:	04 c0       	rjmp	.+8      	; 0x1bca <__floatunsisf+0x5e>
    1bc2:	d6 94       	lsr	r13
    1bc4:	c7 94       	ror	r12
    1bc6:	b7 94       	ror	r11
    1bc8:	a7 94       	ror	r10
    1bca:	0a 94       	dec	r0
    1bcc:	d2 f7       	brpl	.-12     	; 0x1bc2 <__floatunsisf+0x56>
    1bce:	40 e0       	ldi	r20, 0x00	; 0
    1bd0:	50 e0       	ldi	r21, 0x00	; 0
    1bd2:	60 e0       	ldi	r22, 0x00	; 0
    1bd4:	70 e0       	ldi	r23, 0x00	; 0
    1bd6:	81 e0       	ldi	r24, 0x01	; 1
    1bd8:	90 e0       	ldi	r25, 0x00	; 0
    1bda:	a0 e0       	ldi	r26, 0x00	; 0
    1bdc:	b0 e0       	ldi	r27, 0x00	; 0
    1bde:	04 c0       	rjmp	.+8      	; 0x1be8 <__floatunsisf+0x7c>
    1be0:	88 0f       	add	r24, r24
    1be2:	99 1f       	adc	r25, r25
    1be4:	aa 1f       	adc	r26, r26
    1be6:	bb 1f       	adc	r27, r27
    1be8:	2a 95       	dec	r18
    1bea:	d2 f7       	brpl	.-12     	; 0x1be0 <__floatunsisf+0x74>
    1bec:	01 97       	sbiw	r24, 0x01	; 1
    1bee:	a1 09       	sbc	r26, r1
    1bf0:	b1 09       	sbc	r27, r1
    1bf2:	8e 21       	and	r24, r14
    1bf4:	9f 21       	and	r25, r15
    1bf6:	a0 23       	and	r26, r16
    1bf8:	b1 23       	and	r27, r17
    1bfa:	00 97       	sbiw	r24, 0x00	; 0
    1bfc:	a1 05       	cpc	r26, r1
    1bfe:	b1 05       	cpc	r27, r1
    1c00:	21 f0       	breq	.+8      	; 0x1c0a <__floatunsisf+0x9e>
    1c02:	41 e0       	ldi	r20, 0x01	; 1
    1c04:	50 e0       	ldi	r21, 0x00	; 0
    1c06:	60 e0       	ldi	r22, 0x00	; 0
    1c08:	70 e0       	ldi	r23, 0x00	; 0
    1c0a:	4a 29       	or	r20, r10
    1c0c:	5b 29       	or	r21, r11
    1c0e:	6c 29       	or	r22, r12
    1c10:	7d 29       	or	r23, r13
    1c12:	4d 83       	std	Y+5, r20	; 0x05
    1c14:	5e 83       	std	Y+6, r21	; 0x06
    1c16:	6f 83       	std	Y+7, r22	; 0x07
    1c18:	78 87       	std	Y+8, r23	; 0x08
    1c1a:	8e e1       	ldi	r24, 0x1E	; 30
    1c1c:	90 e0       	ldi	r25, 0x00	; 0
    1c1e:	8e 1b       	sub	r24, r30
    1c20:	9f 0b       	sbc	r25, r31
    1c22:	9c 83       	std	Y+4, r25	; 0x04
    1c24:	8b 83       	std	Y+3, r24	; 0x03
    1c26:	12 c0       	rjmp	.+36     	; 0x1c4c <__floatunsisf+0xe0>
    1c28:	30 97       	sbiw	r30, 0x00	; 0
    1c2a:	81 f0       	breq	.+32     	; 0x1c4c <__floatunsisf+0xe0>
    1c2c:	0e 2e       	mov	r0, r30
    1c2e:	04 c0       	rjmp	.+8      	; 0x1c38 <__floatunsisf+0xcc>
    1c30:	ee 0c       	add	r14, r14
    1c32:	ff 1c       	adc	r15, r15
    1c34:	00 1f       	adc	r16, r16
    1c36:	11 1f       	adc	r17, r17
    1c38:	0a 94       	dec	r0
    1c3a:	d2 f7       	brpl	.-12     	; 0x1c30 <__floatunsisf+0xc4>
    1c3c:	ed 82       	std	Y+5, r14	; 0x05
    1c3e:	fe 82       	std	Y+6, r15	; 0x06
    1c40:	0f 83       	std	Y+7, r16	; 0x07
    1c42:	18 87       	std	Y+8, r17	; 0x08
    1c44:	ce 1a       	sub	r12, r30
    1c46:	df 0a       	sbc	r13, r31
    1c48:	dc 82       	std	Y+4, r13	; 0x04
    1c4a:	cb 82       	std	Y+3, r12	; 0x03
    1c4c:	1a 82       	std	Y+2, r1	; 0x02
    1c4e:	ce 01       	movw	r24, r28
    1c50:	01 96       	adiw	r24, 0x01	; 1
    1c52:	0e 94 7e 0e 	call	0x1cfc	; 0x1cfc <__pack_f>
    1c56:	28 96       	adiw	r28, 0x08	; 8
    1c58:	ea e0       	ldi	r30, 0x0A	; 10
    1c5a:	0c 94 30 10 	jmp	0x2060	; 0x2060 <__epilogue_restores__+0x10>

00001c5e <__clzsi2>:
    1c5e:	ef 92       	push	r14
    1c60:	ff 92       	push	r15
    1c62:	0f 93       	push	r16
    1c64:	1f 93       	push	r17
    1c66:	7b 01       	movw	r14, r22
    1c68:	8c 01       	movw	r16, r24
    1c6a:	80 e0       	ldi	r24, 0x00	; 0
    1c6c:	e8 16       	cp	r14, r24
    1c6e:	80 e0       	ldi	r24, 0x00	; 0
    1c70:	f8 06       	cpc	r15, r24
    1c72:	81 e0       	ldi	r24, 0x01	; 1
    1c74:	08 07       	cpc	r16, r24
    1c76:	80 e0       	ldi	r24, 0x00	; 0
    1c78:	18 07       	cpc	r17, r24
    1c7a:	88 f4       	brcc	.+34     	; 0x1c9e <__clzsi2+0x40>
    1c7c:	8f ef       	ldi	r24, 0xFF	; 255
    1c7e:	e8 16       	cp	r14, r24
    1c80:	f1 04       	cpc	r15, r1
    1c82:	01 05       	cpc	r16, r1
    1c84:	11 05       	cpc	r17, r1
    1c86:	31 f0       	breq	.+12     	; 0x1c94 <__clzsi2+0x36>
    1c88:	28 f0       	brcs	.+10     	; 0x1c94 <__clzsi2+0x36>
    1c8a:	88 e0       	ldi	r24, 0x08	; 8
    1c8c:	90 e0       	ldi	r25, 0x00	; 0
    1c8e:	a0 e0       	ldi	r26, 0x00	; 0
    1c90:	b0 e0       	ldi	r27, 0x00	; 0
    1c92:	17 c0       	rjmp	.+46     	; 0x1cc2 <__clzsi2+0x64>
    1c94:	80 e0       	ldi	r24, 0x00	; 0
    1c96:	90 e0       	ldi	r25, 0x00	; 0
    1c98:	a0 e0       	ldi	r26, 0x00	; 0
    1c9a:	b0 e0       	ldi	r27, 0x00	; 0
    1c9c:	12 c0       	rjmp	.+36     	; 0x1cc2 <__clzsi2+0x64>
    1c9e:	80 e0       	ldi	r24, 0x00	; 0
    1ca0:	e8 16       	cp	r14, r24
    1ca2:	80 e0       	ldi	r24, 0x00	; 0
    1ca4:	f8 06       	cpc	r15, r24
    1ca6:	80 e0       	ldi	r24, 0x00	; 0
    1ca8:	08 07       	cpc	r16, r24
    1caa:	81 e0       	ldi	r24, 0x01	; 1
    1cac:	18 07       	cpc	r17, r24
    1cae:	28 f0       	brcs	.+10     	; 0x1cba <__clzsi2+0x5c>
    1cb0:	88 e1       	ldi	r24, 0x18	; 24
    1cb2:	90 e0       	ldi	r25, 0x00	; 0
    1cb4:	a0 e0       	ldi	r26, 0x00	; 0
    1cb6:	b0 e0       	ldi	r27, 0x00	; 0
    1cb8:	04 c0       	rjmp	.+8      	; 0x1cc2 <__clzsi2+0x64>
    1cba:	80 e1       	ldi	r24, 0x10	; 16
    1cbc:	90 e0       	ldi	r25, 0x00	; 0
    1cbe:	a0 e0       	ldi	r26, 0x00	; 0
    1cc0:	b0 e0       	ldi	r27, 0x00	; 0
    1cc2:	20 e2       	ldi	r18, 0x20	; 32
    1cc4:	30 e0       	ldi	r19, 0x00	; 0
    1cc6:	40 e0       	ldi	r20, 0x00	; 0
    1cc8:	50 e0       	ldi	r21, 0x00	; 0
    1cca:	28 1b       	sub	r18, r24
    1ccc:	39 0b       	sbc	r19, r25
    1cce:	4a 0b       	sbc	r20, r26
    1cd0:	5b 0b       	sbc	r21, r27
    1cd2:	04 c0       	rjmp	.+8      	; 0x1cdc <__clzsi2+0x7e>
    1cd4:	16 95       	lsr	r17
    1cd6:	07 95       	ror	r16
    1cd8:	f7 94       	ror	r15
    1cda:	e7 94       	ror	r14
    1cdc:	8a 95       	dec	r24
    1cde:	d2 f7       	brpl	.-12     	; 0x1cd4 <__clzsi2+0x76>
    1ce0:	f7 01       	movw	r30, r14
    1ce2:	e1 5a       	subi	r30, 0xA1	; 161
    1ce4:	fe 4f       	sbci	r31, 0xFE	; 254
    1ce6:	80 81       	ld	r24, Z
    1ce8:	28 1b       	sub	r18, r24
    1cea:	31 09       	sbc	r19, r1
    1cec:	41 09       	sbc	r20, r1
    1cee:	51 09       	sbc	r21, r1
    1cf0:	c9 01       	movw	r24, r18
    1cf2:	1f 91       	pop	r17
    1cf4:	0f 91       	pop	r16
    1cf6:	ff 90       	pop	r15
    1cf8:	ef 90       	pop	r14
    1cfa:	08 95       	ret

00001cfc <__pack_f>:
    1cfc:	df 92       	push	r13
    1cfe:	ef 92       	push	r14
    1d00:	ff 92       	push	r15
    1d02:	0f 93       	push	r16
    1d04:	1f 93       	push	r17
    1d06:	fc 01       	movw	r30, r24
    1d08:	e4 80       	ldd	r14, Z+4	; 0x04
    1d0a:	f5 80       	ldd	r15, Z+5	; 0x05
    1d0c:	06 81       	ldd	r16, Z+6	; 0x06
    1d0e:	17 81       	ldd	r17, Z+7	; 0x07
    1d10:	d1 80       	ldd	r13, Z+1	; 0x01
    1d12:	80 81       	ld	r24, Z
    1d14:	82 30       	cpi	r24, 0x02	; 2
    1d16:	48 f4       	brcc	.+18     	; 0x1d2a <__pack_f+0x2e>
    1d18:	80 e0       	ldi	r24, 0x00	; 0
    1d1a:	90 e0       	ldi	r25, 0x00	; 0
    1d1c:	a0 e1       	ldi	r26, 0x10	; 16
    1d1e:	b0 e0       	ldi	r27, 0x00	; 0
    1d20:	e8 2a       	or	r14, r24
    1d22:	f9 2a       	or	r15, r25
    1d24:	0a 2b       	or	r16, r26
    1d26:	1b 2b       	or	r17, r27
    1d28:	a5 c0       	rjmp	.+330    	; 0x1e74 <__pack_f+0x178>
    1d2a:	84 30       	cpi	r24, 0x04	; 4
    1d2c:	09 f4       	brne	.+2      	; 0x1d30 <__pack_f+0x34>
    1d2e:	9f c0       	rjmp	.+318    	; 0x1e6e <__pack_f+0x172>
    1d30:	82 30       	cpi	r24, 0x02	; 2
    1d32:	21 f4       	brne	.+8      	; 0x1d3c <__pack_f+0x40>
    1d34:	ee 24       	eor	r14, r14
    1d36:	ff 24       	eor	r15, r15
    1d38:	87 01       	movw	r16, r14
    1d3a:	05 c0       	rjmp	.+10     	; 0x1d46 <__pack_f+0x4a>
    1d3c:	e1 14       	cp	r14, r1
    1d3e:	f1 04       	cpc	r15, r1
    1d40:	01 05       	cpc	r16, r1
    1d42:	11 05       	cpc	r17, r1
    1d44:	19 f4       	brne	.+6      	; 0x1d4c <__pack_f+0x50>
    1d46:	e0 e0       	ldi	r30, 0x00	; 0
    1d48:	f0 e0       	ldi	r31, 0x00	; 0
    1d4a:	96 c0       	rjmp	.+300    	; 0x1e78 <__pack_f+0x17c>
    1d4c:	62 81       	ldd	r22, Z+2	; 0x02
    1d4e:	73 81       	ldd	r23, Z+3	; 0x03
    1d50:	9f ef       	ldi	r25, 0xFF	; 255
    1d52:	62 38       	cpi	r22, 0x82	; 130
    1d54:	79 07       	cpc	r23, r25
    1d56:	0c f0       	brlt	.+2      	; 0x1d5a <__pack_f+0x5e>
    1d58:	5b c0       	rjmp	.+182    	; 0x1e10 <__pack_f+0x114>
    1d5a:	22 e8       	ldi	r18, 0x82	; 130
    1d5c:	3f ef       	ldi	r19, 0xFF	; 255
    1d5e:	26 1b       	sub	r18, r22
    1d60:	37 0b       	sbc	r19, r23
    1d62:	2a 31       	cpi	r18, 0x1A	; 26
    1d64:	31 05       	cpc	r19, r1
    1d66:	2c f0       	brlt	.+10     	; 0x1d72 <__pack_f+0x76>
    1d68:	20 e0       	ldi	r18, 0x00	; 0
    1d6a:	30 e0       	ldi	r19, 0x00	; 0
    1d6c:	40 e0       	ldi	r20, 0x00	; 0
    1d6e:	50 e0       	ldi	r21, 0x00	; 0
    1d70:	2a c0       	rjmp	.+84     	; 0x1dc6 <__pack_f+0xca>
    1d72:	b8 01       	movw	r22, r16
    1d74:	a7 01       	movw	r20, r14
    1d76:	02 2e       	mov	r0, r18
    1d78:	04 c0       	rjmp	.+8      	; 0x1d82 <__pack_f+0x86>
    1d7a:	76 95       	lsr	r23
    1d7c:	67 95       	ror	r22
    1d7e:	57 95       	ror	r21
    1d80:	47 95       	ror	r20
    1d82:	0a 94       	dec	r0
    1d84:	d2 f7       	brpl	.-12     	; 0x1d7a <__pack_f+0x7e>
    1d86:	81 e0       	ldi	r24, 0x01	; 1
    1d88:	90 e0       	ldi	r25, 0x00	; 0
    1d8a:	a0 e0       	ldi	r26, 0x00	; 0
    1d8c:	b0 e0       	ldi	r27, 0x00	; 0
    1d8e:	04 c0       	rjmp	.+8      	; 0x1d98 <__pack_f+0x9c>
    1d90:	88 0f       	add	r24, r24
    1d92:	99 1f       	adc	r25, r25
    1d94:	aa 1f       	adc	r26, r26
    1d96:	bb 1f       	adc	r27, r27
    1d98:	2a 95       	dec	r18
    1d9a:	d2 f7       	brpl	.-12     	; 0x1d90 <__pack_f+0x94>
    1d9c:	01 97       	sbiw	r24, 0x01	; 1
    1d9e:	a1 09       	sbc	r26, r1
    1da0:	b1 09       	sbc	r27, r1
    1da2:	8e 21       	and	r24, r14
    1da4:	9f 21       	and	r25, r15
    1da6:	a0 23       	and	r26, r16
    1da8:	b1 23       	and	r27, r17
    1daa:	00 97       	sbiw	r24, 0x00	; 0
    1dac:	a1 05       	cpc	r26, r1
    1dae:	b1 05       	cpc	r27, r1
    1db0:	21 f0       	breq	.+8      	; 0x1dba <__pack_f+0xbe>
    1db2:	81 e0       	ldi	r24, 0x01	; 1
    1db4:	90 e0       	ldi	r25, 0x00	; 0
    1db6:	a0 e0       	ldi	r26, 0x00	; 0
    1db8:	b0 e0       	ldi	r27, 0x00	; 0
    1dba:	9a 01       	movw	r18, r20
    1dbc:	ab 01       	movw	r20, r22
    1dbe:	28 2b       	or	r18, r24
    1dc0:	39 2b       	or	r19, r25
    1dc2:	4a 2b       	or	r20, r26
    1dc4:	5b 2b       	or	r21, r27
    1dc6:	da 01       	movw	r26, r20
    1dc8:	c9 01       	movw	r24, r18
    1dca:	8f 77       	andi	r24, 0x7F	; 127
    1dcc:	90 70       	andi	r25, 0x00	; 0
    1dce:	a0 70       	andi	r26, 0x00	; 0
    1dd0:	b0 70       	andi	r27, 0x00	; 0
    1dd2:	80 34       	cpi	r24, 0x40	; 64
    1dd4:	91 05       	cpc	r25, r1
    1dd6:	a1 05       	cpc	r26, r1
    1dd8:	b1 05       	cpc	r27, r1
    1dda:	39 f4       	brne	.+14     	; 0x1dea <__pack_f+0xee>
    1ddc:	27 ff       	sbrs	r18, 7
    1dde:	09 c0       	rjmp	.+18     	; 0x1df2 <__pack_f+0xf6>
    1de0:	20 5c       	subi	r18, 0xC0	; 192
    1de2:	3f 4f       	sbci	r19, 0xFF	; 255
    1de4:	4f 4f       	sbci	r20, 0xFF	; 255
    1de6:	5f 4f       	sbci	r21, 0xFF	; 255
    1de8:	04 c0       	rjmp	.+8      	; 0x1df2 <__pack_f+0xf6>
    1dea:	21 5c       	subi	r18, 0xC1	; 193
    1dec:	3f 4f       	sbci	r19, 0xFF	; 255
    1dee:	4f 4f       	sbci	r20, 0xFF	; 255
    1df0:	5f 4f       	sbci	r21, 0xFF	; 255
    1df2:	e0 e0       	ldi	r30, 0x00	; 0
    1df4:	f0 e0       	ldi	r31, 0x00	; 0
    1df6:	20 30       	cpi	r18, 0x00	; 0
    1df8:	a0 e0       	ldi	r26, 0x00	; 0
    1dfa:	3a 07       	cpc	r19, r26
    1dfc:	a0 e0       	ldi	r26, 0x00	; 0
    1dfe:	4a 07       	cpc	r20, r26
    1e00:	a0 e4       	ldi	r26, 0x40	; 64
    1e02:	5a 07       	cpc	r21, r26
    1e04:	10 f0       	brcs	.+4      	; 0x1e0a <__pack_f+0x10e>
    1e06:	e1 e0       	ldi	r30, 0x01	; 1
    1e08:	f0 e0       	ldi	r31, 0x00	; 0
    1e0a:	79 01       	movw	r14, r18
    1e0c:	8a 01       	movw	r16, r20
    1e0e:	27 c0       	rjmp	.+78     	; 0x1e5e <__pack_f+0x162>
    1e10:	60 38       	cpi	r22, 0x80	; 128
    1e12:	71 05       	cpc	r23, r1
    1e14:	64 f5       	brge	.+88     	; 0x1e6e <__pack_f+0x172>
    1e16:	fb 01       	movw	r30, r22
    1e18:	e1 58       	subi	r30, 0x81	; 129
    1e1a:	ff 4f       	sbci	r31, 0xFF	; 255
    1e1c:	d8 01       	movw	r26, r16
    1e1e:	c7 01       	movw	r24, r14
    1e20:	8f 77       	andi	r24, 0x7F	; 127
    1e22:	90 70       	andi	r25, 0x00	; 0
    1e24:	a0 70       	andi	r26, 0x00	; 0
    1e26:	b0 70       	andi	r27, 0x00	; 0
    1e28:	80 34       	cpi	r24, 0x40	; 64
    1e2a:	91 05       	cpc	r25, r1
    1e2c:	a1 05       	cpc	r26, r1
    1e2e:	b1 05       	cpc	r27, r1
    1e30:	39 f4       	brne	.+14     	; 0x1e40 <__pack_f+0x144>
    1e32:	e7 fe       	sbrs	r14, 7
    1e34:	0d c0       	rjmp	.+26     	; 0x1e50 <__pack_f+0x154>
    1e36:	80 e4       	ldi	r24, 0x40	; 64
    1e38:	90 e0       	ldi	r25, 0x00	; 0
    1e3a:	a0 e0       	ldi	r26, 0x00	; 0
    1e3c:	b0 e0       	ldi	r27, 0x00	; 0
    1e3e:	04 c0       	rjmp	.+8      	; 0x1e48 <__pack_f+0x14c>
    1e40:	8f e3       	ldi	r24, 0x3F	; 63
    1e42:	90 e0       	ldi	r25, 0x00	; 0
    1e44:	a0 e0       	ldi	r26, 0x00	; 0
    1e46:	b0 e0       	ldi	r27, 0x00	; 0
    1e48:	e8 0e       	add	r14, r24
    1e4a:	f9 1e       	adc	r15, r25
    1e4c:	0a 1f       	adc	r16, r26
    1e4e:	1b 1f       	adc	r17, r27
    1e50:	17 ff       	sbrs	r17, 7
    1e52:	05 c0       	rjmp	.+10     	; 0x1e5e <__pack_f+0x162>
    1e54:	16 95       	lsr	r17
    1e56:	07 95       	ror	r16
    1e58:	f7 94       	ror	r15
    1e5a:	e7 94       	ror	r14
    1e5c:	31 96       	adiw	r30, 0x01	; 1
    1e5e:	87 e0       	ldi	r24, 0x07	; 7
    1e60:	16 95       	lsr	r17
    1e62:	07 95       	ror	r16
    1e64:	f7 94       	ror	r15
    1e66:	e7 94       	ror	r14
    1e68:	8a 95       	dec	r24
    1e6a:	d1 f7       	brne	.-12     	; 0x1e60 <__pack_f+0x164>
    1e6c:	05 c0       	rjmp	.+10     	; 0x1e78 <__pack_f+0x17c>
    1e6e:	ee 24       	eor	r14, r14
    1e70:	ff 24       	eor	r15, r15
    1e72:	87 01       	movw	r16, r14
    1e74:	ef ef       	ldi	r30, 0xFF	; 255
    1e76:	f0 e0       	ldi	r31, 0x00	; 0
    1e78:	6e 2f       	mov	r22, r30
    1e7a:	67 95       	ror	r22
    1e7c:	66 27       	eor	r22, r22
    1e7e:	67 95       	ror	r22
    1e80:	90 2f       	mov	r25, r16
    1e82:	9f 77       	andi	r25, 0x7F	; 127
    1e84:	d7 94       	ror	r13
    1e86:	dd 24       	eor	r13, r13
    1e88:	d7 94       	ror	r13
    1e8a:	8e 2f       	mov	r24, r30
    1e8c:	86 95       	lsr	r24
    1e8e:	49 2f       	mov	r20, r25
    1e90:	46 2b       	or	r20, r22
    1e92:	58 2f       	mov	r21, r24
    1e94:	5d 29       	or	r21, r13
    1e96:	b7 01       	movw	r22, r14
    1e98:	ca 01       	movw	r24, r20
    1e9a:	1f 91       	pop	r17
    1e9c:	0f 91       	pop	r16
    1e9e:	ff 90       	pop	r15
    1ea0:	ef 90       	pop	r14
    1ea2:	df 90       	pop	r13
    1ea4:	08 95       	ret

00001ea6 <__unpack_f>:
    1ea6:	fc 01       	movw	r30, r24
    1ea8:	db 01       	movw	r26, r22
    1eaa:	40 81       	ld	r20, Z
    1eac:	51 81       	ldd	r21, Z+1	; 0x01
    1eae:	22 81       	ldd	r18, Z+2	; 0x02
    1eb0:	62 2f       	mov	r22, r18
    1eb2:	6f 77       	andi	r22, 0x7F	; 127
    1eb4:	70 e0       	ldi	r23, 0x00	; 0
    1eb6:	22 1f       	adc	r18, r18
    1eb8:	22 27       	eor	r18, r18
    1eba:	22 1f       	adc	r18, r18
    1ebc:	93 81       	ldd	r25, Z+3	; 0x03
    1ebe:	89 2f       	mov	r24, r25
    1ec0:	88 0f       	add	r24, r24
    1ec2:	82 2b       	or	r24, r18
    1ec4:	28 2f       	mov	r18, r24
    1ec6:	30 e0       	ldi	r19, 0x00	; 0
    1ec8:	99 1f       	adc	r25, r25
    1eca:	99 27       	eor	r25, r25
    1ecc:	99 1f       	adc	r25, r25
    1ece:	11 96       	adiw	r26, 0x01	; 1
    1ed0:	9c 93       	st	X, r25
    1ed2:	11 97       	sbiw	r26, 0x01	; 1
    1ed4:	21 15       	cp	r18, r1
    1ed6:	31 05       	cpc	r19, r1
    1ed8:	a9 f5       	brne	.+106    	; 0x1f44 <__unpack_f+0x9e>
    1eda:	41 15       	cp	r20, r1
    1edc:	51 05       	cpc	r21, r1
    1ede:	61 05       	cpc	r22, r1
    1ee0:	71 05       	cpc	r23, r1
    1ee2:	11 f4       	brne	.+4      	; 0x1ee8 <__unpack_f+0x42>
    1ee4:	82 e0       	ldi	r24, 0x02	; 2
    1ee6:	37 c0       	rjmp	.+110    	; 0x1f56 <__unpack_f+0xb0>
    1ee8:	82 e8       	ldi	r24, 0x82	; 130
    1eea:	9f ef       	ldi	r25, 0xFF	; 255
    1eec:	13 96       	adiw	r26, 0x03	; 3
    1eee:	9c 93       	st	X, r25
    1ef0:	8e 93       	st	-X, r24
    1ef2:	12 97       	sbiw	r26, 0x02	; 2
    1ef4:	9a 01       	movw	r18, r20
    1ef6:	ab 01       	movw	r20, r22
    1ef8:	67 e0       	ldi	r22, 0x07	; 7
    1efa:	22 0f       	add	r18, r18
    1efc:	33 1f       	adc	r19, r19
    1efe:	44 1f       	adc	r20, r20
    1f00:	55 1f       	adc	r21, r21
    1f02:	6a 95       	dec	r22
    1f04:	d1 f7       	brne	.-12     	; 0x1efa <__unpack_f+0x54>
    1f06:	83 e0       	ldi	r24, 0x03	; 3
    1f08:	8c 93       	st	X, r24
    1f0a:	0d c0       	rjmp	.+26     	; 0x1f26 <__unpack_f+0x80>
    1f0c:	22 0f       	add	r18, r18
    1f0e:	33 1f       	adc	r19, r19
    1f10:	44 1f       	adc	r20, r20
    1f12:	55 1f       	adc	r21, r21
    1f14:	12 96       	adiw	r26, 0x02	; 2
    1f16:	8d 91       	ld	r24, X+
    1f18:	9c 91       	ld	r25, X
    1f1a:	13 97       	sbiw	r26, 0x03	; 3
    1f1c:	01 97       	sbiw	r24, 0x01	; 1
    1f1e:	13 96       	adiw	r26, 0x03	; 3
    1f20:	9c 93       	st	X, r25
    1f22:	8e 93       	st	-X, r24
    1f24:	12 97       	sbiw	r26, 0x02	; 2
    1f26:	20 30       	cpi	r18, 0x00	; 0
    1f28:	80 e0       	ldi	r24, 0x00	; 0
    1f2a:	38 07       	cpc	r19, r24
    1f2c:	80 e0       	ldi	r24, 0x00	; 0
    1f2e:	48 07       	cpc	r20, r24
    1f30:	80 e4       	ldi	r24, 0x40	; 64
    1f32:	58 07       	cpc	r21, r24
    1f34:	58 f3       	brcs	.-42     	; 0x1f0c <__unpack_f+0x66>
    1f36:	14 96       	adiw	r26, 0x04	; 4
    1f38:	2d 93       	st	X+, r18
    1f3a:	3d 93       	st	X+, r19
    1f3c:	4d 93       	st	X+, r20
    1f3e:	5c 93       	st	X, r21
    1f40:	17 97       	sbiw	r26, 0x07	; 7
    1f42:	08 95       	ret
    1f44:	2f 3f       	cpi	r18, 0xFF	; 255
    1f46:	31 05       	cpc	r19, r1
    1f48:	79 f4       	brne	.+30     	; 0x1f68 <__unpack_f+0xc2>
    1f4a:	41 15       	cp	r20, r1
    1f4c:	51 05       	cpc	r21, r1
    1f4e:	61 05       	cpc	r22, r1
    1f50:	71 05       	cpc	r23, r1
    1f52:	19 f4       	brne	.+6      	; 0x1f5a <__unpack_f+0xb4>
    1f54:	84 e0       	ldi	r24, 0x04	; 4
    1f56:	8c 93       	st	X, r24
    1f58:	08 95       	ret
    1f5a:	64 ff       	sbrs	r22, 4
    1f5c:	03 c0       	rjmp	.+6      	; 0x1f64 <__unpack_f+0xbe>
    1f5e:	81 e0       	ldi	r24, 0x01	; 1
    1f60:	8c 93       	st	X, r24
    1f62:	12 c0       	rjmp	.+36     	; 0x1f88 <__unpack_f+0xe2>
    1f64:	1c 92       	st	X, r1
    1f66:	10 c0       	rjmp	.+32     	; 0x1f88 <__unpack_f+0xe2>
    1f68:	2f 57       	subi	r18, 0x7F	; 127
    1f6a:	30 40       	sbci	r19, 0x00	; 0
    1f6c:	13 96       	adiw	r26, 0x03	; 3
    1f6e:	3c 93       	st	X, r19
    1f70:	2e 93       	st	-X, r18
    1f72:	12 97       	sbiw	r26, 0x02	; 2
    1f74:	83 e0       	ldi	r24, 0x03	; 3
    1f76:	8c 93       	st	X, r24
    1f78:	87 e0       	ldi	r24, 0x07	; 7
    1f7a:	44 0f       	add	r20, r20
    1f7c:	55 1f       	adc	r21, r21
    1f7e:	66 1f       	adc	r22, r22
    1f80:	77 1f       	adc	r23, r23
    1f82:	8a 95       	dec	r24
    1f84:	d1 f7       	brne	.-12     	; 0x1f7a <__unpack_f+0xd4>
    1f86:	70 64       	ori	r23, 0x40	; 64
    1f88:	14 96       	adiw	r26, 0x04	; 4
    1f8a:	4d 93       	st	X+, r20
    1f8c:	5d 93       	st	X+, r21
    1f8e:	6d 93       	st	X+, r22
    1f90:	7c 93       	st	X, r23
    1f92:	17 97       	sbiw	r26, 0x07	; 7
    1f94:	08 95       	ret

00001f96 <__mulsi3>:
    1f96:	62 9f       	mul	r22, r18
    1f98:	d0 01       	movw	r26, r0
    1f9a:	73 9f       	mul	r23, r19
    1f9c:	f0 01       	movw	r30, r0
    1f9e:	82 9f       	mul	r24, r18
    1fa0:	e0 0d       	add	r30, r0
    1fa2:	f1 1d       	adc	r31, r1
    1fa4:	64 9f       	mul	r22, r20
    1fa6:	e0 0d       	add	r30, r0
    1fa8:	f1 1d       	adc	r31, r1
    1faa:	92 9f       	mul	r25, r18
    1fac:	f0 0d       	add	r31, r0
    1fae:	83 9f       	mul	r24, r19
    1fb0:	f0 0d       	add	r31, r0
    1fb2:	74 9f       	mul	r23, r20
    1fb4:	f0 0d       	add	r31, r0
    1fb6:	65 9f       	mul	r22, r21
    1fb8:	f0 0d       	add	r31, r0
    1fba:	99 27       	eor	r25, r25
    1fbc:	72 9f       	mul	r23, r18
    1fbe:	b0 0d       	add	r27, r0
    1fc0:	e1 1d       	adc	r30, r1
    1fc2:	f9 1f       	adc	r31, r25
    1fc4:	63 9f       	mul	r22, r19
    1fc6:	b0 0d       	add	r27, r0
    1fc8:	e1 1d       	adc	r30, r1
    1fca:	f9 1f       	adc	r31, r25
    1fcc:	bd 01       	movw	r22, r26
    1fce:	cf 01       	movw	r24, r30
    1fd0:	11 24       	eor	r1, r1
    1fd2:	08 95       	ret

00001fd4 <__udivmodsi4>:
    1fd4:	a1 e2       	ldi	r26, 0x21	; 33
    1fd6:	1a 2e       	mov	r1, r26
    1fd8:	aa 1b       	sub	r26, r26
    1fda:	bb 1b       	sub	r27, r27
    1fdc:	fd 01       	movw	r30, r26
    1fde:	0d c0       	rjmp	.+26     	; 0x1ffa <__udivmodsi4_ep>

00001fe0 <__udivmodsi4_loop>:
    1fe0:	aa 1f       	adc	r26, r26
    1fe2:	bb 1f       	adc	r27, r27
    1fe4:	ee 1f       	adc	r30, r30
    1fe6:	ff 1f       	adc	r31, r31
    1fe8:	a2 17       	cp	r26, r18
    1fea:	b3 07       	cpc	r27, r19
    1fec:	e4 07       	cpc	r30, r20
    1fee:	f5 07       	cpc	r31, r21
    1ff0:	20 f0       	brcs	.+8      	; 0x1ffa <__udivmodsi4_ep>
    1ff2:	a2 1b       	sub	r26, r18
    1ff4:	b3 0b       	sbc	r27, r19
    1ff6:	e4 0b       	sbc	r30, r20
    1ff8:	f5 0b       	sbc	r31, r21

00001ffa <__udivmodsi4_ep>:
    1ffa:	66 1f       	adc	r22, r22
    1ffc:	77 1f       	adc	r23, r23
    1ffe:	88 1f       	adc	r24, r24
    2000:	99 1f       	adc	r25, r25
    2002:	1a 94       	dec	r1
    2004:	69 f7       	brne	.-38     	; 0x1fe0 <__udivmodsi4_loop>
    2006:	60 95       	com	r22
    2008:	70 95       	com	r23
    200a:	80 95       	com	r24
    200c:	90 95       	com	r25
    200e:	9b 01       	movw	r18, r22
    2010:	ac 01       	movw	r20, r24
    2012:	bd 01       	movw	r22, r26
    2014:	cf 01       	movw	r24, r30
    2016:	08 95       	ret

00002018 <__prologue_saves__>:
    2018:	2f 92       	push	r2
    201a:	3f 92       	push	r3
    201c:	4f 92       	push	r4
    201e:	5f 92       	push	r5
    2020:	6f 92       	push	r6
    2022:	7f 92       	push	r7
    2024:	8f 92       	push	r8
    2026:	9f 92       	push	r9
    2028:	af 92       	push	r10
    202a:	bf 92       	push	r11
    202c:	cf 92       	push	r12
    202e:	df 92       	push	r13
    2030:	ef 92       	push	r14
    2032:	ff 92       	push	r15
    2034:	0f 93       	push	r16
    2036:	1f 93       	push	r17
    2038:	cf 93       	push	r28
    203a:	df 93       	push	r29
    203c:	cd b7       	in	r28, 0x3d	; 61
    203e:	de b7       	in	r29, 0x3e	; 62
    2040:	ca 1b       	sub	r28, r26
    2042:	db 0b       	sbc	r29, r27
    2044:	0f b6       	in	r0, 0x3f	; 63
    2046:	f8 94       	cli
    2048:	de bf       	out	0x3e, r29	; 62
    204a:	0f be       	out	0x3f, r0	; 63
    204c:	cd bf       	out	0x3d, r28	; 61
    204e:	09 94       	ijmp

00002050 <__epilogue_restores__>:
    2050:	2a 88       	ldd	r2, Y+18	; 0x12
    2052:	39 88       	ldd	r3, Y+17	; 0x11
    2054:	48 88       	ldd	r4, Y+16	; 0x10
    2056:	5f 84       	ldd	r5, Y+15	; 0x0f
    2058:	6e 84       	ldd	r6, Y+14	; 0x0e
    205a:	7d 84       	ldd	r7, Y+13	; 0x0d
    205c:	8c 84       	ldd	r8, Y+12	; 0x0c
    205e:	9b 84       	ldd	r9, Y+11	; 0x0b
    2060:	aa 84       	ldd	r10, Y+10	; 0x0a
    2062:	b9 84       	ldd	r11, Y+9	; 0x09
    2064:	c8 84       	ldd	r12, Y+8	; 0x08
    2066:	df 80       	ldd	r13, Y+7	; 0x07
    2068:	ee 80       	ldd	r14, Y+6	; 0x06
    206a:	fd 80       	ldd	r15, Y+5	; 0x05
    206c:	0c 81       	ldd	r16, Y+4	; 0x04
    206e:	1b 81       	ldd	r17, Y+3	; 0x03
    2070:	aa 81       	ldd	r26, Y+2	; 0x02
    2072:	b9 81       	ldd	r27, Y+1	; 0x01
    2074:	ce 0f       	add	r28, r30
    2076:	d1 1d       	adc	r29, r1
    2078:	0f b6       	in	r0, 0x3f	; 63
    207a:	f8 94       	cli
    207c:	de bf       	out	0x3e, r29	; 62
    207e:	0f be       	out	0x3f, r0	; 63
    2080:	cd bf       	out	0x3d, r28	; 61
    2082:	ed 01       	movw	r28, r26
    2084:	08 95       	ret

00002086 <printf>:
    2086:	a0 e0       	ldi	r26, 0x00	; 0
    2088:	b0 e0       	ldi	r27, 0x00	; 0
    208a:	e9 e4       	ldi	r30, 0x49	; 73
    208c:	f0 e1       	ldi	r31, 0x10	; 16
    208e:	0c 94 1c 10 	jmp	0x2038	; 0x2038 <__prologue_saves__+0x20>
    2092:	fe 01       	movw	r30, r28
    2094:	35 96       	adiw	r30, 0x05	; 5
    2096:	61 91       	ld	r22, Z+
    2098:	71 91       	ld	r23, Z+
    209a:	80 91 bb 02 	lds	r24, 0x02BB
    209e:	90 91 bc 02 	lds	r25, 0x02BC
    20a2:	af 01       	movw	r20, r30
    20a4:	0e 94 8d 10 	call	0x211a	; 0x211a <vfprintf>
    20a8:	20 96       	adiw	r28, 0x00	; 0
    20aa:	e2 e0       	ldi	r30, 0x02	; 2
    20ac:	0c 94 38 10 	jmp	0x2070	; 0x2070 <__epilogue_restores__+0x20>

000020b0 <puts>:
    20b0:	0f 93       	push	r16
    20b2:	1f 93       	push	r17
    20b4:	cf 93       	push	r28
    20b6:	df 93       	push	r29
    20b8:	8c 01       	movw	r16, r24
    20ba:	e0 91 bb 02 	lds	r30, 0x02BB
    20be:	f0 91 bc 02 	lds	r31, 0x02BC
    20c2:	83 81       	ldd	r24, Z+3	; 0x03
    20c4:	81 ff       	sbrs	r24, 1
    20c6:	21 c0       	rjmp	.+66     	; 0x210a <puts+0x5a>
    20c8:	c0 e0       	ldi	r28, 0x00	; 0
    20ca:	d0 e0       	ldi	r29, 0x00	; 0
    20cc:	0d c0       	rjmp	.+26     	; 0x20e8 <puts+0x38>
    20ce:	e0 91 bb 02 	lds	r30, 0x02BB
    20d2:	f0 91 bc 02 	lds	r31, 0x02BC
    20d6:	20 85       	ldd	r18, Z+8	; 0x08
    20d8:	31 85       	ldd	r19, Z+9	; 0x09
    20da:	bf 01       	movw	r22, r30
    20dc:	f9 01       	movw	r30, r18
    20de:	09 95       	icall
    20e0:	89 2b       	or	r24, r25
    20e2:	11 f0       	breq	.+4      	; 0x20e8 <puts+0x38>
    20e4:	cf ef       	ldi	r28, 0xFF	; 255
    20e6:	df ef       	ldi	r29, 0xFF	; 255
    20e8:	f8 01       	movw	r30, r16
    20ea:	81 91       	ld	r24, Z+
    20ec:	8f 01       	movw	r16, r30
    20ee:	88 23       	and	r24, r24
    20f0:	71 f7       	brne	.-36     	; 0x20ce <puts+0x1e>
    20f2:	e0 91 bb 02 	lds	r30, 0x02BB
    20f6:	f0 91 bc 02 	lds	r31, 0x02BC
    20fa:	20 85       	ldd	r18, Z+8	; 0x08
    20fc:	31 85       	ldd	r19, Z+9	; 0x09
    20fe:	8a e0       	ldi	r24, 0x0A	; 10
    2100:	bf 01       	movw	r22, r30
    2102:	f9 01       	movw	r30, r18
    2104:	09 95       	icall
    2106:	89 2b       	or	r24, r25
    2108:	11 f0       	breq	.+4      	; 0x210e <puts+0x5e>
    210a:	cf ef       	ldi	r28, 0xFF	; 255
    210c:	df ef       	ldi	r29, 0xFF	; 255
    210e:	ce 01       	movw	r24, r28
    2110:	df 91       	pop	r29
    2112:	cf 91       	pop	r28
    2114:	1f 91       	pop	r17
    2116:	0f 91       	pop	r16
    2118:	08 95       	ret

0000211a <vfprintf>:
    211a:	ab e0       	ldi	r26, 0x0B	; 11
    211c:	b0 e0       	ldi	r27, 0x00	; 0
    211e:	e3 e9       	ldi	r30, 0x93	; 147
    2120:	f0 e1       	ldi	r31, 0x10	; 16
    2122:	0c 94 0c 10 	jmp	0x2018	; 0x2018 <__prologue_saves__>
    2126:	3c 01       	movw	r6, r24
    2128:	2b 01       	movw	r4, r22
    212a:	5a 01       	movw	r10, r20
    212c:	fc 01       	movw	r30, r24
    212e:	17 82       	std	Z+7, r1	; 0x07
    2130:	16 82       	std	Z+6, r1	; 0x06
    2132:	83 81       	ldd	r24, Z+3	; 0x03
    2134:	81 fd       	sbrc	r24, 1
    2136:	03 c0       	rjmp	.+6      	; 0x213e <vfprintf+0x24>
    2138:	6f ef       	ldi	r22, 0xFF	; 255
    213a:	7f ef       	ldi	r23, 0xFF	; 255
    213c:	c6 c1       	rjmp	.+908    	; 0x24ca <vfprintf+0x3b0>
    213e:	9a e0       	ldi	r25, 0x0A	; 10
    2140:	89 2e       	mov	r8, r25
    2142:	1e 01       	movw	r2, r28
    2144:	08 94       	sec
    2146:	21 1c       	adc	r2, r1
    2148:	31 1c       	adc	r3, r1
    214a:	f3 01       	movw	r30, r6
    214c:	23 81       	ldd	r18, Z+3	; 0x03
    214e:	f2 01       	movw	r30, r4
    2150:	23 fd       	sbrc	r18, 3
    2152:	85 91       	lpm	r24, Z+
    2154:	23 ff       	sbrs	r18, 3
    2156:	81 91       	ld	r24, Z+
    2158:	2f 01       	movw	r4, r30
    215a:	88 23       	and	r24, r24
    215c:	09 f4       	brne	.+2      	; 0x2160 <vfprintf+0x46>
    215e:	b2 c1       	rjmp	.+868    	; 0x24c4 <vfprintf+0x3aa>
    2160:	85 32       	cpi	r24, 0x25	; 37
    2162:	39 f4       	brne	.+14     	; 0x2172 <vfprintf+0x58>
    2164:	23 fd       	sbrc	r18, 3
    2166:	85 91       	lpm	r24, Z+
    2168:	23 ff       	sbrs	r18, 3
    216a:	81 91       	ld	r24, Z+
    216c:	2f 01       	movw	r4, r30
    216e:	85 32       	cpi	r24, 0x25	; 37
    2170:	29 f4       	brne	.+10     	; 0x217c <vfprintf+0x62>
    2172:	90 e0       	ldi	r25, 0x00	; 0
    2174:	b3 01       	movw	r22, r6
    2176:	0e 94 80 12 	call	0x2500	; 0x2500 <fputc>
    217a:	e7 cf       	rjmp	.-50     	; 0x214a <vfprintf+0x30>
    217c:	98 2f       	mov	r25, r24
    217e:	ff 24       	eor	r15, r15
    2180:	ee 24       	eor	r14, r14
    2182:	99 24       	eor	r9, r9
    2184:	ff e1       	ldi	r31, 0x1F	; 31
    2186:	ff 15       	cp	r31, r15
    2188:	d0 f0       	brcs	.+52     	; 0x21be <vfprintf+0xa4>
    218a:	9b 32       	cpi	r25, 0x2B	; 43
    218c:	69 f0       	breq	.+26     	; 0x21a8 <vfprintf+0x8e>
    218e:	9c 32       	cpi	r25, 0x2C	; 44
    2190:	28 f4       	brcc	.+10     	; 0x219c <vfprintf+0x82>
    2192:	90 32       	cpi	r25, 0x20	; 32
    2194:	59 f0       	breq	.+22     	; 0x21ac <vfprintf+0x92>
    2196:	93 32       	cpi	r25, 0x23	; 35
    2198:	91 f4       	brne	.+36     	; 0x21be <vfprintf+0xa4>
    219a:	0e c0       	rjmp	.+28     	; 0x21b8 <vfprintf+0x9e>
    219c:	9d 32       	cpi	r25, 0x2D	; 45
    219e:	49 f0       	breq	.+18     	; 0x21b2 <vfprintf+0x98>
    21a0:	90 33       	cpi	r25, 0x30	; 48
    21a2:	69 f4       	brne	.+26     	; 0x21be <vfprintf+0xa4>
    21a4:	41 e0       	ldi	r20, 0x01	; 1
    21a6:	24 c0       	rjmp	.+72     	; 0x21f0 <vfprintf+0xd6>
    21a8:	52 e0       	ldi	r21, 0x02	; 2
    21aa:	f5 2a       	or	r15, r21
    21ac:	84 e0       	ldi	r24, 0x04	; 4
    21ae:	f8 2a       	or	r15, r24
    21b0:	28 c0       	rjmp	.+80     	; 0x2202 <vfprintf+0xe8>
    21b2:	98 e0       	ldi	r25, 0x08	; 8
    21b4:	f9 2a       	or	r15, r25
    21b6:	25 c0       	rjmp	.+74     	; 0x2202 <vfprintf+0xe8>
    21b8:	e0 e1       	ldi	r30, 0x10	; 16
    21ba:	fe 2a       	or	r15, r30
    21bc:	22 c0       	rjmp	.+68     	; 0x2202 <vfprintf+0xe8>
    21be:	f7 fc       	sbrc	r15, 7
    21c0:	29 c0       	rjmp	.+82     	; 0x2214 <vfprintf+0xfa>
    21c2:	89 2f       	mov	r24, r25
    21c4:	80 53       	subi	r24, 0x30	; 48
    21c6:	8a 30       	cpi	r24, 0x0A	; 10
    21c8:	70 f4       	brcc	.+28     	; 0x21e6 <vfprintf+0xcc>
    21ca:	f6 fe       	sbrs	r15, 6
    21cc:	05 c0       	rjmp	.+10     	; 0x21d8 <vfprintf+0xbe>
    21ce:	98 9c       	mul	r9, r8
    21d0:	90 2c       	mov	r9, r0
    21d2:	11 24       	eor	r1, r1
    21d4:	98 0e       	add	r9, r24
    21d6:	15 c0       	rjmp	.+42     	; 0x2202 <vfprintf+0xe8>
    21d8:	e8 9c       	mul	r14, r8
    21da:	e0 2c       	mov	r14, r0
    21dc:	11 24       	eor	r1, r1
    21de:	e8 0e       	add	r14, r24
    21e0:	f0 e2       	ldi	r31, 0x20	; 32
    21e2:	ff 2a       	or	r15, r31
    21e4:	0e c0       	rjmp	.+28     	; 0x2202 <vfprintf+0xe8>
    21e6:	9e 32       	cpi	r25, 0x2E	; 46
    21e8:	29 f4       	brne	.+10     	; 0x21f4 <vfprintf+0xda>
    21ea:	f6 fc       	sbrc	r15, 6
    21ec:	6b c1       	rjmp	.+726    	; 0x24c4 <vfprintf+0x3aa>
    21ee:	40 e4       	ldi	r20, 0x40	; 64
    21f0:	f4 2a       	or	r15, r20
    21f2:	07 c0       	rjmp	.+14     	; 0x2202 <vfprintf+0xe8>
    21f4:	9c 36       	cpi	r25, 0x6C	; 108
    21f6:	19 f4       	brne	.+6      	; 0x21fe <vfprintf+0xe4>
    21f8:	50 e8       	ldi	r21, 0x80	; 128
    21fa:	f5 2a       	or	r15, r21
    21fc:	02 c0       	rjmp	.+4      	; 0x2202 <vfprintf+0xe8>
    21fe:	98 36       	cpi	r25, 0x68	; 104
    2200:	49 f4       	brne	.+18     	; 0x2214 <vfprintf+0xfa>
    2202:	f2 01       	movw	r30, r4
    2204:	23 fd       	sbrc	r18, 3
    2206:	95 91       	lpm	r25, Z+
    2208:	23 ff       	sbrs	r18, 3
    220a:	91 91       	ld	r25, Z+
    220c:	2f 01       	movw	r4, r30
    220e:	99 23       	and	r25, r25
    2210:	09 f0       	breq	.+2      	; 0x2214 <vfprintf+0xfa>
    2212:	b8 cf       	rjmp	.-144    	; 0x2184 <vfprintf+0x6a>
    2214:	89 2f       	mov	r24, r25
    2216:	85 54       	subi	r24, 0x45	; 69
    2218:	83 30       	cpi	r24, 0x03	; 3
    221a:	18 f0       	brcs	.+6      	; 0x2222 <vfprintf+0x108>
    221c:	80 52       	subi	r24, 0x20	; 32
    221e:	83 30       	cpi	r24, 0x03	; 3
    2220:	38 f4       	brcc	.+14     	; 0x2230 <vfprintf+0x116>
    2222:	44 e0       	ldi	r20, 0x04	; 4
    2224:	50 e0       	ldi	r21, 0x00	; 0
    2226:	a4 0e       	add	r10, r20
    2228:	b5 1e       	adc	r11, r21
    222a:	5f e3       	ldi	r21, 0x3F	; 63
    222c:	59 83       	std	Y+1, r21	; 0x01
    222e:	0f c0       	rjmp	.+30     	; 0x224e <vfprintf+0x134>
    2230:	93 36       	cpi	r25, 0x63	; 99
    2232:	31 f0       	breq	.+12     	; 0x2240 <vfprintf+0x126>
    2234:	93 37       	cpi	r25, 0x73	; 115
    2236:	79 f0       	breq	.+30     	; 0x2256 <vfprintf+0x13c>
    2238:	93 35       	cpi	r25, 0x53	; 83
    223a:	09 f0       	breq	.+2      	; 0x223e <vfprintf+0x124>
    223c:	56 c0       	rjmp	.+172    	; 0x22ea <vfprintf+0x1d0>
    223e:	20 c0       	rjmp	.+64     	; 0x2280 <vfprintf+0x166>
    2240:	f5 01       	movw	r30, r10
    2242:	80 81       	ld	r24, Z
    2244:	89 83       	std	Y+1, r24	; 0x01
    2246:	42 e0       	ldi	r20, 0x02	; 2
    2248:	50 e0       	ldi	r21, 0x00	; 0
    224a:	a4 0e       	add	r10, r20
    224c:	b5 1e       	adc	r11, r21
    224e:	61 01       	movw	r12, r2
    2250:	01 e0       	ldi	r16, 0x01	; 1
    2252:	10 e0       	ldi	r17, 0x00	; 0
    2254:	12 c0       	rjmp	.+36     	; 0x227a <vfprintf+0x160>
    2256:	f5 01       	movw	r30, r10
    2258:	c0 80       	ld	r12, Z
    225a:	d1 80       	ldd	r13, Z+1	; 0x01
    225c:	f6 fc       	sbrc	r15, 6
    225e:	03 c0       	rjmp	.+6      	; 0x2266 <vfprintf+0x14c>
    2260:	6f ef       	ldi	r22, 0xFF	; 255
    2262:	7f ef       	ldi	r23, 0xFF	; 255
    2264:	02 c0       	rjmp	.+4      	; 0x226a <vfprintf+0x150>
    2266:	69 2d       	mov	r22, r9
    2268:	70 e0       	ldi	r23, 0x00	; 0
    226a:	42 e0       	ldi	r20, 0x02	; 2
    226c:	50 e0       	ldi	r21, 0x00	; 0
    226e:	a4 0e       	add	r10, r20
    2270:	b5 1e       	adc	r11, r21
    2272:	c6 01       	movw	r24, r12
    2274:	0e 94 75 12 	call	0x24ea	; 0x24ea <strnlen>
    2278:	8c 01       	movw	r16, r24
    227a:	5f e7       	ldi	r21, 0x7F	; 127
    227c:	f5 22       	and	r15, r21
    227e:	14 c0       	rjmp	.+40     	; 0x22a8 <vfprintf+0x18e>
    2280:	f5 01       	movw	r30, r10
    2282:	c0 80       	ld	r12, Z
    2284:	d1 80       	ldd	r13, Z+1	; 0x01
    2286:	f6 fc       	sbrc	r15, 6
    2288:	03 c0       	rjmp	.+6      	; 0x2290 <vfprintf+0x176>
    228a:	6f ef       	ldi	r22, 0xFF	; 255
    228c:	7f ef       	ldi	r23, 0xFF	; 255
    228e:	02 c0       	rjmp	.+4      	; 0x2294 <vfprintf+0x17a>
    2290:	69 2d       	mov	r22, r9
    2292:	70 e0       	ldi	r23, 0x00	; 0
    2294:	42 e0       	ldi	r20, 0x02	; 2
    2296:	50 e0       	ldi	r21, 0x00	; 0
    2298:	a4 0e       	add	r10, r20
    229a:	b5 1e       	adc	r11, r21
    229c:	c6 01       	movw	r24, r12
    229e:	0e 94 6a 12 	call	0x24d4	; 0x24d4 <strnlen_P>
    22a2:	8c 01       	movw	r16, r24
    22a4:	50 e8       	ldi	r21, 0x80	; 128
    22a6:	f5 2a       	or	r15, r21
    22a8:	f3 fe       	sbrs	r15, 3
    22aa:	07 c0       	rjmp	.+14     	; 0x22ba <vfprintf+0x1a0>
    22ac:	1a c0       	rjmp	.+52     	; 0x22e2 <vfprintf+0x1c8>
    22ae:	80 e2       	ldi	r24, 0x20	; 32
    22b0:	90 e0       	ldi	r25, 0x00	; 0
    22b2:	b3 01       	movw	r22, r6
    22b4:	0e 94 80 12 	call	0x2500	; 0x2500 <fputc>
    22b8:	ea 94       	dec	r14
    22ba:	8e 2d       	mov	r24, r14
    22bc:	90 e0       	ldi	r25, 0x00	; 0
    22be:	08 17       	cp	r16, r24
    22c0:	19 07       	cpc	r17, r25
    22c2:	a8 f3       	brcs	.-22     	; 0x22ae <vfprintf+0x194>
    22c4:	0e c0       	rjmp	.+28     	; 0x22e2 <vfprintf+0x1c8>
    22c6:	f6 01       	movw	r30, r12
    22c8:	f7 fc       	sbrc	r15, 7
    22ca:	85 91       	lpm	r24, Z+
    22cc:	f7 fe       	sbrs	r15, 7
    22ce:	81 91       	ld	r24, Z+
    22d0:	6f 01       	movw	r12, r30
    22d2:	90 e0       	ldi	r25, 0x00	; 0
    22d4:	b3 01       	movw	r22, r6
    22d6:	0e 94 80 12 	call	0x2500	; 0x2500 <fputc>
    22da:	e1 10       	cpse	r14, r1
    22dc:	ea 94       	dec	r14
    22de:	01 50       	subi	r16, 0x01	; 1
    22e0:	10 40       	sbci	r17, 0x00	; 0
    22e2:	01 15       	cp	r16, r1
    22e4:	11 05       	cpc	r17, r1
    22e6:	79 f7       	brne	.-34     	; 0x22c6 <vfprintf+0x1ac>
    22e8:	ea c0       	rjmp	.+468    	; 0x24be <vfprintf+0x3a4>
    22ea:	94 36       	cpi	r25, 0x64	; 100
    22ec:	11 f0       	breq	.+4      	; 0x22f2 <vfprintf+0x1d8>
    22ee:	99 36       	cpi	r25, 0x69	; 105
    22f0:	69 f5       	brne	.+90     	; 0x234c <vfprintf+0x232>
    22f2:	f7 fe       	sbrs	r15, 7
    22f4:	08 c0       	rjmp	.+16     	; 0x2306 <vfprintf+0x1ec>
    22f6:	f5 01       	movw	r30, r10
    22f8:	20 81       	ld	r18, Z
    22fa:	31 81       	ldd	r19, Z+1	; 0x01
    22fc:	42 81       	ldd	r20, Z+2	; 0x02
    22fe:	53 81       	ldd	r21, Z+3	; 0x03
    2300:	84 e0       	ldi	r24, 0x04	; 4
    2302:	90 e0       	ldi	r25, 0x00	; 0
    2304:	0a c0       	rjmp	.+20     	; 0x231a <vfprintf+0x200>
    2306:	f5 01       	movw	r30, r10
    2308:	80 81       	ld	r24, Z
    230a:	91 81       	ldd	r25, Z+1	; 0x01
    230c:	9c 01       	movw	r18, r24
    230e:	44 27       	eor	r20, r20
    2310:	37 fd       	sbrc	r19, 7
    2312:	40 95       	com	r20
    2314:	54 2f       	mov	r21, r20
    2316:	82 e0       	ldi	r24, 0x02	; 2
    2318:	90 e0       	ldi	r25, 0x00	; 0
    231a:	a8 0e       	add	r10, r24
    231c:	b9 1e       	adc	r11, r25
    231e:	9f e6       	ldi	r25, 0x6F	; 111
    2320:	f9 22       	and	r15, r25
    2322:	57 ff       	sbrs	r21, 7
    2324:	09 c0       	rjmp	.+18     	; 0x2338 <vfprintf+0x21e>
    2326:	50 95       	com	r21
    2328:	40 95       	com	r20
    232a:	30 95       	com	r19
    232c:	21 95       	neg	r18
    232e:	3f 4f       	sbci	r19, 0xFF	; 255
    2330:	4f 4f       	sbci	r20, 0xFF	; 255
    2332:	5f 4f       	sbci	r21, 0xFF	; 255
    2334:	e0 e8       	ldi	r30, 0x80	; 128
    2336:	fe 2a       	or	r15, r30
    2338:	ca 01       	movw	r24, r20
    233a:	b9 01       	movw	r22, r18
    233c:	a1 01       	movw	r20, r2
    233e:	2a e0       	ldi	r18, 0x0A	; 10
    2340:	30 e0       	ldi	r19, 0x00	; 0
    2342:	0e 94 ac 12 	call	0x2558	; 0x2558 <__ultoa_invert>
    2346:	d8 2e       	mov	r13, r24
    2348:	d2 18       	sub	r13, r2
    234a:	40 c0       	rjmp	.+128    	; 0x23cc <vfprintf+0x2b2>
    234c:	95 37       	cpi	r25, 0x75	; 117
    234e:	29 f4       	brne	.+10     	; 0x235a <vfprintf+0x240>
    2350:	1f 2d       	mov	r17, r15
    2352:	1f 7e       	andi	r17, 0xEF	; 239
    2354:	2a e0       	ldi	r18, 0x0A	; 10
    2356:	30 e0       	ldi	r19, 0x00	; 0
    2358:	1d c0       	rjmp	.+58     	; 0x2394 <vfprintf+0x27a>
    235a:	1f 2d       	mov	r17, r15
    235c:	19 7f       	andi	r17, 0xF9	; 249
    235e:	9f 36       	cpi	r25, 0x6F	; 111
    2360:	61 f0       	breq	.+24     	; 0x237a <vfprintf+0x260>
    2362:	90 37       	cpi	r25, 0x70	; 112
    2364:	20 f4       	brcc	.+8      	; 0x236e <vfprintf+0x254>
    2366:	98 35       	cpi	r25, 0x58	; 88
    2368:	09 f0       	breq	.+2      	; 0x236c <vfprintf+0x252>
    236a:	ac c0       	rjmp	.+344    	; 0x24c4 <vfprintf+0x3aa>
    236c:	0f c0       	rjmp	.+30     	; 0x238c <vfprintf+0x272>
    236e:	90 37       	cpi	r25, 0x70	; 112
    2370:	39 f0       	breq	.+14     	; 0x2380 <vfprintf+0x266>
    2372:	98 37       	cpi	r25, 0x78	; 120
    2374:	09 f0       	breq	.+2      	; 0x2378 <vfprintf+0x25e>
    2376:	a6 c0       	rjmp	.+332    	; 0x24c4 <vfprintf+0x3aa>
    2378:	04 c0       	rjmp	.+8      	; 0x2382 <vfprintf+0x268>
    237a:	28 e0       	ldi	r18, 0x08	; 8
    237c:	30 e0       	ldi	r19, 0x00	; 0
    237e:	0a c0       	rjmp	.+20     	; 0x2394 <vfprintf+0x27a>
    2380:	10 61       	ori	r17, 0x10	; 16
    2382:	14 fd       	sbrc	r17, 4
    2384:	14 60       	ori	r17, 0x04	; 4
    2386:	20 e1       	ldi	r18, 0x10	; 16
    2388:	30 e0       	ldi	r19, 0x00	; 0
    238a:	04 c0       	rjmp	.+8      	; 0x2394 <vfprintf+0x27a>
    238c:	14 fd       	sbrc	r17, 4
    238e:	16 60       	ori	r17, 0x06	; 6
    2390:	20 e1       	ldi	r18, 0x10	; 16
    2392:	32 e0       	ldi	r19, 0x02	; 2
    2394:	17 ff       	sbrs	r17, 7
    2396:	08 c0       	rjmp	.+16     	; 0x23a8 <vfprintf+0x28e>
    2398:	f5 01       	movw	r30, r10
    239a:	60 81       	ld	r22, Z
    239c:	71 81       	ldd	r23, Z+1	; 0x01
    239e:	82 81       	ldd	r24, Z+2	; 0x02
    23a0:	93 81       	ldd	r25, Z+3	; 0x03
    23a2:	44 e0       	ldi	r20, 0x04	; 4
    23a4:	50 e0       	ldi	r21, 0x00	; 0
    23a6:	08 c0       	rjmp	.+16     	; 0x23b8 <vfprintf+0x29e>
    23a8:	f5 01       	movw	r30, r10
    23aa:	80 81       	ld	r24, Z
    23ac:	91 81       	ldd	r25, Z+1	; 0x01
    23ae:	bc 01       	movw	r22, r24
    23b0:	80 e0       	ldi	r24, 0x00	; 0
    23b2:	90 e0       	ldi	r25, 0x00	; 0
    23b4:	42 e0       	ldi	r20, 0x02	; 2
    23b6:	50 e0       	ldi	r21, 0x00	; 0
    23b8:	a4 0e       	add	r10, r20
    23ba:	b5 1e       	adc	r11, r21
    23bc:	a1 01       	movw	r20, r2
