
timer.elf:     file format elf32-avr

Sections:
Idx Name          Size      VMA       LMA       File off  Algn
  0 .text         000000b8  00000000  00000000  00000054  2**1
                  CONTENTS, ALLOC, LOAD, READONLY, CODE
  1 .debug_aranges 00000020  00000000  00000000  0000010c  2**0
                  CONTENTS, READONLY, DEBUGGING
  2 .debug_pubnames 0000001b  00000000  00000000  0000012c  2**0
                  CONTENTS, READONLY, DEBUGGING
  3 .debug_info   00000116  00000000  00000000  00000147  2**0
                  CONTENTS, READONLY, DEBUGGING
  4 .debug_abbrev 000000b0  00000000  00000000  0000025d  2**0
                  CONTENTS, READONLY, DEBUGGING
  5 .debug_line   00000165  00000000  00000000  0000030d  2**0
                  CONTENTS, READONLY, DEBUGGING
  6 .debug_frame  00000020  00000000  00000000  00000474  2**2
                  CONTENTS, READONLY, DEBUGGING
  7 .debug_str    000000b6  00000000  00000000  00000494  2**0
                  CONTENTS, READONLY, DEBUGGING
  8 .debug_loc    00000018  00000000  00000000  0000054a  2**0
                  CONTENTS, READONLY, DEBUGGING
  9 .debug_ranges 00000048  00000000  00000000  00000562  2**0
                  CONTENTS, READONLY, DEBUGGING

Disassembly of section .text:

00000000 <__vectors>:
   0:	0c 94 34 00 	jmp	0x68	; 0x68 <__ctors_end>
   4:	0c 94 3e 00 	jmp	0x7c	; 0x7c <__bad_interrupt>
   8:	0c 94 3e 00 	jmp	0x7c	; 0x7c <__bad_interrupt>
   c:	0c 94 3e 00 	jmp	0x7c	; 0x7c <__bad_interrupt>
  10:	0c 94 3e 00 	jmp	0x7c	; 0x7c <__bad_interrupt>
  14:	0c 94 3e 00 	jmp	0x7c	; 0x7c <__bad_interrupt>
  18:	0c 94 3e 00 	jmp	0x7c	; 0x7c <__bad_interrupt>
  1c:	0c 94 3e 00 	jmp	0x7c	; 0x7c <__bad_interrupt>
  20:	0c 94 3e 00 	jmp	0x7c	; 0x7c <__bad_interrupt>
  24:	0c 94 3e 00 	jmp	0x7c	; 0x7c <__bad_interrupt>
  28:	0c 94 3e 00 	jmp	0x7c	; 0x7c <__bad_interrupt>
  2c:	0c 94 3e 00 	jmp	0x7c	; 0x7c <__bad_interrupt>
  30:	0c 94 3e 00 	jmp	0x7c	; 0x7c <__bad_interrupt>
  34:	0c 94 3e 00 	jmp	0x7c	; 0x7c <__bad_interrupt>
  38:	0c 94 3e 00 	jmp	0x7c	; 0x7c <__bad_interrupt>
  3c:	0c 94 3e 00 	jmp	0x7c	; 0x7c <__bad_interrupt>
  40:	0c 94 3e 00 	jmp	0x7c	; 0x7c <__bad_interrupt>
  44:	0c 94 3e 00 	jmp	0x7c	; 0x7c <__bad_interrupt>
  48:	0c 94 3e 00 	jmp	0x7c	; 0x7c <__bad_interrupt>
  4c:	0c 94 3e 00 	jmp	0x7c	; 0x7c <__bad_interrupt>
  50:	0c 94 3e 00 	jmp	0x7c	; 0x7c <__bad_interrupt>
  54:	0c 94 3e 00 	jmp	0x7c	; 0x7c <__bad_interrupt>
  58:	0c 94 3e 00 	jmp	0x7c	; 0x7c <__bad_interrupt>
  5c:	0c 94 3e 00 	jmp	0x7c	; 0x7c <__bad_interrupt>
  60:	0c 94 3e 00 	jmp	0x7c	; 0x7c <__bad_interrupt>
  64:	0c 94 3e 00 	jmp	0x7c	; 0x7c <__bad_interrupt>

00000068 <__ctors_end>:
  68:	11 24       	eor	r1, r1
  6a:	1f be       	out	0x3f, r1	; 63
  6c:	cf ef       	ldi	r28, 0xFF	; 255
  6e:	d8 e0       	ldi	r29, 0x08	; 8
  70:	de bf       	out	0x3e, r29	; 62
  72:	cd bf       	out	0x3d, r28	; 61
  74:	0e 94 40 00 	call	0x80	; 0x80 <main>
  78:	0c 94 5a 00 	jmp	0xb4	; 0xb4 <_exit>

0000007c <__bad_interrupt>:
  7c:	0c 94 00 00 	jmp	0	; 0x0 <__vectors>

00000080 <main>:

// Main function
int main()
{

	setBit(DDRD, PD3);
  80:	53 9a       	sbi	0x0a, 3	; 10
	setBit(DDRD, PD4);
  82:	54 9a       	sbi	0x0a, 4	; 10
	setBit(PORTB, PB3);
  84:	2b 9a       	sbi	0x05, 3	; 5
	clrBit(DDRB, PB3);
  86:	23 98       	cbi	0x04, 3	; 4
		if(isBitClr(PINB, PB3)){

			while(isBitClr(PINB, PB3))
				;

			cplBit(PORTD, PD3);
  88:	58 e0       	ldi	r21, 0x08	; 8
    milliseconds can be achieved.
 */
void
_delay_loop_2(uint16_t __count)
{
	__asm__ volatile (
  8a:	20 e9       	ldi	r18, 0x90	; 144
  8c:	31 e0       	ldi	r19, 0x01	; 1
	
		}

		_delay_ms(500);
		cplBit(PORTD, PD4);
  8e:	40 e1       	ldi	r20, 0x10	; 16
	setBit(PORTB, PB3);
	clrBit(DDRB, PB3);

	while(1){

		if(isBitClr(PINB, PB3)){
  90:	1b 99       	sbic	0x03, 3	; 3
  92:	05 c0       	rjmp	.+10     	; 0x9e <main+0x1e>

			while(isBitClr(PINB, PB3))
  94:	1b 9b       	sbis	0x03, 3	; 3
  96:	fe cf       	rjmp	.-4      	; 0x94 <main+0x14>
				;

			cplBit(PORTD, PD3);
  98:	8b b1       	in	r24, 0x0b	; 11
  9a:	85 27       	eor	r24, r21
  9c:	8b b9       	out	0x0b, r24	; 11
  9e:	88 e8       	ldi	r24, 0x88	; 136
  a0:	93 e1       	ldi	r25, 0x13	; 19
  a2:	f9 01       	movw	r30, r18
  a4:	31 97       	sbiw	r30, 0x01	; 1
  a6:	f1 f7       	brne	.-4      	; 0xa4 <main+0x24>
		__ticks = (uint16_t) (__ms * 10.0);
		while(__ticks)
		{
			// wait 1/10 ms
			_delay_loop_2(((F_CPU) / 4e3) / 10);
			__ticks --;
  a8:	01 97       	sbiw	r24, 0x01	; 1
		__ticks = 1;
	else if (__tmp > 65535)
	{
		//	__ticks = requested delay in 1/10 ms
		__ticks = (uint16_t) (__ms * 10.0);
		while(__ticks)
  aa:	d9 f7       	brne	.-10     	; 0xa2 <main+0x22>
	
		}

		_delay_ms(500);
		cplBit(PORTD, PD4);
  ac:	8b b1       	in	r24, 0x0b	; 11
  ae:	84 27       	eor	r24, r20
  b0:	8b b9       	out	0x0b, r24	; 11
  b2:	ee cf       	rjmp	.-36     	; 0x90 <main+0x10>

000000b4 <_exit>:
  b4:	f8 94       	cli

000000b6 <__stop_program>:
  b6:	ff cf       	rjmp	.-2      	; 0xb6 <__stop_program>
