:100000000C9434000C9453000C9451000C94510047
:100010000C9451000C9451000C9451000C9451001C
:100020000C9451000C9451000C9451000C9451000C
:100030000C9451000C9451000C9451000C945100FC
:100040000C9451000C9451000C9451000C945100EC
:100050000C9451000C9451000C9451000C945100DC
:100060000C9451000C94510011241FBECFEFD8E026
:10007000DEBFCDBF11E0A0E0B1E0E8E9F0E102C0F1
:1000800005900D92A432B107D9F711E0A4E2B1E0D6
:1000900001C01D92AB36B107E1F70E9480000C94BD
:1000A0004A080C9400001F920F920FB60F92112471
:1000B0002F933F934F935F936F937F938F939F9370
:1000C000AF93BF93EF93FF9300D080E091E0EDB743
:1000D000FEB7928381830E9481050F900F90FF915C
:1000E000EF91BF91AF919F918F917F916F915F91B0
:1000F0004F913F912F910F900FBE0F901F90189529
:100100005A9A529880916900826080936900809128
:100110006900816080936900E09AE89A20915A0111
:10012000277030915C013F7E30935C012861209301
:100130005A018091C10080618093C1009091590162
:10014000892F8068809359018091C10088608093D5
:10015000C100906C9C7F909359018091C100806890
:100160008093C100226020935A01306230935C0179
:1001700087E091E090936A01809369019093680110
:1001800080936701909366018093650160E875E252
:1001900080E090E00E942F027894809124018130C9
:1001A000E1F710922401F9CFF999FECF717072BD79
:1001B00061BD80BDFA9AF99A0895F999FECF9170C0
:1001C00092BD81BDF89A80B508952FB7F8949093A9
:1001D0008500809384002FBF08958FB7F8942091F5
:1001E0008400309185008FBFC90108952FB7F8941E
:1001F00090938900809388002FBF08958FB7F8945B
:1002000020918800309189008FBFC90108952FB7D0
:10021000F89490938B0080938A002FBF08958FB736
:10022000F89420918A0030918B008FBFC901089506
:100230002FB7F89490938700809386002FBF08957E
:100240008FB7F89420918600309187008FBFC90145
:1002500008958091250181FF04C0239A259A24984E
:1002600003C023982598249A8091260181FF03C01A
:100270008DB5816002C08DB58E7F8DBD90912501B9
:10028000292F26952695279522272795892F817036
:100290008295880F880F807C822B292F22952695A6
:1002A00026952370822B292F220F220F2072282BB4
:1002B000892F880F880F880F8071822B9695292FA0
:1002C0002870282B969596959470922B9CBD089536
:1002D0008EBD0DB407FCFDCF8EB508950DB407FC9F
:1002E000FDCF8EB50895DF93CF9300D00F92CDB799
:1002F000DEB7DE011196EDE5F1E083E001900D92AD
:100300008150E1F769817A818B8190E00F900F90A5
:100310000F90CF91DF910895CF92DF92EF92FF92ED
:100320000F931F93DF93CF9300D00F92CDB7DEB71B
:1003300033E0D32ED622472F46954170182F1295C1
:100340001170562F529556955170082F02950695AB
:100350000170A82FA295A695A695A170962F9295AB
:10036000969596959370FF24F394F722FF0CFF0C5B
:10037000F92A972F9295969596959370B82FBF70FE
:10038000BB0FBB0FB92B807890915F019077EFE5A1
:10039000F1E03B2F3295330F330F307C22912B2F1E
:1003A00026952695982B922BEF2CE294EE0CEE0CD2
:1003B00020ECE222CF2CC694C694A295AA0FAA0FD5
:1003C000A07C9F79669566956770862F880F880F49
:1003D000202F2295220F207E9A2B922B5295550F7B
:1003E000507E8E291295107F9F7E912B90935F01F6
:1003F000769576957F70972F990F990F3C29440F2A
:10040000392B342B3083852B8D2980935D01D29439
:10041000DD0CDD0C80ECD8224295407F4D29472B26
:1004200040937C00110F110F110F512B562B000F11
:10043000000F000F052B00937A00AF29A0937B00DB
:10044000BF73B0937E000F900F900F90CF91DF910C
:100450001F910F91FF90EF90DF90CF9008959B0137
:10046000AC018091C000837E8093C00060915901EF
:10047000862F877C80935901862F837090E081308E
:10048000910531F1823091051CF4892B41F080C037
:1004900082309105B1F1039709F07AC04DC0809187
:1004A000C0008D7F8093C0008091C2008E7F8093BA
:1004B000C2008091C2008F778093C2008091C200F9
:1004C0008F7B8093C20060E472E48FE090E052C0C2
:1004D0008091C00082608093C0008091C2008E7FB6
:1004E0008093C2008091C2008F778093C200809178
:1004F000C2008F7B8093C20060E874E88EE190E0D8
:1005000039C08091C0008D7F8093C00062FF04C01D
:100510008091C200816003C08091C2008E7F809371
:10052000C2008091C2008F778093C2008091C20088
:1005300080648093C2002CC08091C0008D7F809326
:10054000C00062FF04C08091C200816003C080913E
:10055000C2008E7F8093C2008091C2008068809329
:10056000C2008091C20080648093C20060E072E1AA
:100570008AE790E00E945F052150304020935B01A4
:10058000932F9F7080915C01807F892B80935C0109
:1005900080915B0140915C01942F9F70292F33273C
:1005A00027FD3A952093C5008093C40045FF0AC0FB
:1005B0008091C10080688093C10080915A0182605F
:1005C00080935A010895E0ECF0E04081429541703B
:1005D000842F880F880F880F90915901977F982B4F
:1005E0009093590180818695869586958170282FF4
:1005F0002295207F9F7E922B9093590120812695F2
:1006000026952170322F3295330F307E9F7D932BAC
:1006100090935901822B842B0895982F8091C000CC
:1006200085FFFCCF9093C60008959C018091C00087
:1006300085FFFCCFC90180709170992321F08091D2
:10064000C100816003C08091C1008E7F8093C10092
:100650002093C6000895982F8091C00085FFFCCF9D
:100660009093C60080E090E008958091C00087FFDD
:10067000FCCF9091C000292F2695287080915901B8
:10068000877E990F392F3071822B832B990F990F09
:1006900090728F7D892B809359018091C6000895B7
:1006A0008091C00087FFFCCF9091C0002091C100D5
:1006B0006091C600492F4695487080915901877E08
:1006C000990F592F5071842B852B990F990F907288
:1006D0008F7D892B8093590130E0227030703695E0
:1006E000322F22273795279570E0262B372BC9010B
:1006F00008958091C00087FFFCCF8091C60090E0F4
:10070000089502C08091C6008091C00087FDFACF95
:1007100008951F93CF93DF93182F80916001C82F06
:10072000D0E02196BE01882777FD8095982F2197EC
:1007300022E330E040E050E00E945F059B01AC0105
:100740008091620190E0A0E0B0E0281739074A07E5
:100750005B0751F0C95DDE4F1883209360018091E3
:1007600061018F5F80936101DF91CF911F910895A7
:100770000F931F9380916201282F30E0F901E95D0A
:10078000FE4F008110916101112391F02F5F3F4FC7
:10079000B901882777FD8095982F22E330E040E06B
:1007A00050E00E945F056093620111501093610157
:1007B000802F1F910F91089590E08091610188230F
:1007C00009F491E0892F089580915901837090E098
:1007D00081309105B9F08230910509F1892B29F01A
:1007E00020E030E040E050E02CC02091C400309187
:1007F000C5002F5F3F4F40E050E060E472E48FE0BF
:1008000090E019C02091C4003091C5002F5F3F4F88
:1008100040E050E060E874E88EE190E00CC0209188
:10082000C4003091C5002F5F3F4F40E050E060E0D2
:1008300072E18AE790E00E945F05C901DA019C013C
:10084000AD01B901CA010895282F8BB1922F907F75
:100850008F70982B9BB9322F3295307F599885E055
:10086000982F9A95F1F7589A8A95F1F7589880EF52
:100870008A95F1F7243020F480E49FE10197F1F7A5
:100880008BB18F70832B8BB9599885E0982F9A95EF
:10089000F1F7589A8A95F1F7589880EF8A95F1F711
:1008A000243020F480E49FE10197F1F78BB18F7041
:1008B000382B3BB908958BB18F708BB98AB1806F9B
:1008C0008AB98BB18C7F8BB98AB183608AB98BB1BD
:1008D0008F7080638BB995E0892F8A95F1F7589ACC
:1008E000892F8A95F1F7589820EF822F8A95F1F792
:1008F000E0E2FEE43197F1F7892F8A95F1F7589AF3
:10090000892F8A95F1F75898822F8A95F1F7E0E2BE
:10091000F3E03197F1F7892F8A95F1F7589A892FEB
:100920008A95F1F75898822F8A95F1F78BB18F70DD
:1009300080628BB9892F8A95F1F7589A9A95F1F7C9
:1009400058982A95F1F788E20E94240488E00E94D2
:1009500024041092630181E00E94240480916401C8
:10096000816080936401982F9695969591709C6014
:100970008270892B0E94240484E08093630180E8C4
:100980000E9424040895282F8A30B1F480916301D5
:10099000982F9C7F837029F491609093630180EC81
:1009A00003C09093630180E80E9424048091630156
:1009B00083708093630108958BB1922F907F8F7025
:1009C000982B9BB92295207F599A95E0892F8A957B
:1009D000F1F7589A892F8A95F1F7589830EF832FBD
:1009E0008A95F1F78BB18F70822B8BB9599A892F29
:1009F0008A95F1F7589A9A95F1F758983A95F1F740
:100A00008BB18F70282B2BB908951F93282F8A3014
:100A100009F5109163011695169504C080E20E94B5
:100A2000C3041F5F1031D0F380916301982F9C7F26
:100A3000837029F491609093630180EC03C09093DC
:100A4000630180E80E942404809163018370809395
:100A5000630131C080916301982F9C7F9C5F8370FC
:100A6000892B809363018BB1922F907F8F70982B8D
:100A70009BB92295207F599A95E0892F8A95F1F7A5
:100A8000589A892F8A95F1F7589830EF832F8A95D5
:100A9000F1F78BB18F70822B8BB9599A892F8A9578
:100AA000F1F7589A9A95F1F758983A95F1F78BB172
:100AB0008F70282B2BB980E090E01F910895A1E260
:100AC0001A2EAA1BBB1BFD010DC0AA1FBB1FEE1FC8
:100AD000FF1FA217B307E407F50720F0A21BB30B13
:100AE000E40BF50B661F771F881F991F1A9469F78F
:100AF00060957095809590959B01AC01BD01CF01EB
:100B00000895A0E0B0E0E7E8F5E00C942308FE01CA
:100B10003596619171918091670190916801AF0163
:100B20000E9496052096E2E00C943F08ABE0B0E00E
:100B3000ECE9F5E00C9413083C012B015A01FC018F
:100B400017821682838181FD03C06FEF7FEFC6C1DC
:100B50009AE0892E1E010894211C311CF301238187
:100B6000F20123FD859123FF81912F01882309F450
:100B7000B2C1853239F423FD859123FF81912F0184
:100B8000853229F490E0B3010E948907E7CF982FBE
:100B9000FF24EE249924FFE1FF15D0F09B3269F089
:100BA0009C3228F4903259F0933291F40EC09D3269
:100BB00049F0903369F441E024C052E0F52A84E022
:100BC000F82A28C098E0F92A25C0E0E1FE2A22C0D0
:100BD000F7FC29C0892F80538A3070F4F6FE05C0D7
:100BE000989C902C1124980E15C0E89CE02C1124A0
:100BF000E80EF0E2FF2A0EC09E3229F4F6FC6BC12B
:100C000040E4F42A07C09C3619F450E8F52A02C0E3
:100C1000983649F4F20123FD959123FF91912F011C
:100C2000992309F0B8CF892F8554833018F080526A
:100C3000833038F444E050E0A40EB51E5FE35983DE
:100C40000FC0933631F0933779F0933509F056C0E1
:100C500020C0F5018081898342E050E0A40EB51EDA
:100C6000610101E010E012C0F501C080D180F6FC06
:100C700003C06FEF7FEF02C0692D70E042E050E0EB
:100C8000A40EB51EC6010E947E078C015FE7F52207
:100C900014C0F501C080D180F6FC03C06FEF7FEF78
:100CA00002C0692D70E042E050E0A40EB51EC601FE
:100CB0000E9473078C0150E8F52AF3FE07C01AC0A2
:100CC00080E290E0B3010E948907EA948E2D90E0C3
:100CD00008171907A8F30EC0F601F7FC8591F7FE77
:100CE00081916F0190E0B3010E948907E110EA94BD
:100CF000015010400115110579F7EAC0943611F042
:100D0000993669F5F7FE08C0F501208131814281ED
:100D1000538184E090E00AC0F501808191819C01BB
:100D2000442737FD4095542F82E090E0A80EB91E6D
:100D30009FE6F92257FF09C05095409530952195BF
:100D40003F4F4F4F5F4FE0E8FE2ACA01B901A101B2
:100D50002AE030E00E94B507D82ED21840C095375F
:100D600029F41F2D1F7E2AE030E01DC01F2D197FA2
:100D70009F3661F0903720F4983509F0ACC00FC071
:100D8000903739F0983709F0A6C004C028E030E069
:100D90000AC0106114FD146020E130E004C014FDAD
:100DA000166020E132E017FF08C0F5016081718113
:100DB0008281938144E050E008C0F50180819181F7
:100DC000BC0180E090E042E050E0A40EB51EA1011D
:100DD0000E94B507D82ED2188FE7F82EF122F6FE22
:100DE0000BC05EEFF522D91438F4F4FE07C0F2FC14
:100DF00005C08FEEF82202C01D2D01C0192DF4FE92
:100E00000DC0FE01ED0DF11D8081803319F499EEC6
:100E1000F92208C01F5FF2FE05C003C08F2D86783F
:100E200009F01F5F0F2DF3FC14C0F0FE0FC01E155C
:100E300010F09D2C0BC09D2C9E0C911A1E2D06C0EF
:100E400080E290E0B3010E9489071F5F1E15C0F386
:100E500004C01E1510F4E11A01C0EE2404FF0FC0F7
:100E600080E390E0B3010E94890702FF1DC001FDED
:100E700003C088E790E00EC088E590E00BC0802FAB
:100E8000867891F001FF02C08BE201C080E2F7FC9E
:100E90008DE290E0B3010E94890706C080E390E0F4
:100EA000B3010E9489079A94D914C0F3DA94F1012E
:100EB000ED0DF11D808190E0B3010E948907DD20D6
:100EC000A9F706C080E290E0B3010E948907EA9486
:100ED000EE20C1F743CEF30166817781CB012B96DB
:100EE000E2E10C942F08FC01059061507040011064
:100EF000D8F7809590958E0F9F1F0895FC01615043
:100F0000704001900110D8F7809590958E0F9F1F2B
:100F100008950F931F93CF93DF938C01EB018B8187
:100F200081FF1BC082FF0DC02E813F818C819D817E
:100F30002817390764F4E881F9810193F983E8837C
:100F400006C0E885F985802F0995892B31F48E81BB
:100F50009F8101969F838E8302C00FEF1FEFC80110
:100F6000DF91CF911F910F910895FA01AA272830A0
:100F700051F1203181F1E8946F936E7F6E5F7F4F66
:100F80008F4F9F4FAF4FB1E03ED0B4E03CD0670FE2
:100F9000781F891F9A1FA11D680F791F8A1F911D35
:100FA000A11D6A0F711D811D911DA11D20D009F485
:100FB00068943F912AE0269F11243019305D3193C7
:100FC000DEF6CF010895462F4770405D4193B3E0B0
:100FD0000FD0C9F7F6CF462F4F70405D4A3318F057
:100FE000495D31FD4052419302D0A9F7EACFB4E008
:100FF000A6959795879577956795BA95C9F70097C0
:101000006105710508959B01AC010A2E0694579560
:10101000479537952795BA95C9F7620F731F841FB7
:10102000951FA01D08952F923F924F925F926F924D
:101030007F928F929F92AF92BF92CF92DF92EF9268
:10104000FF920F931F93CF93DF93CDB7DEB7CA1BE9
:10105000DB0B0FB6F894DEBF0FBECDBF09942A8814
:10106000398848885F846E847D848C849B84AA84BC
:10107000B984C884DF80EE80FD800C811B81AA8149
:10108000B981CE0FD11D0FB6F894DEBF0FBECDBF14
:08109000ED010895F894FFCF73
:1010980053544152540D0000000003000000002B7F
:1010A80003790300000000000200000000050500AD
:0410B8000000000034
:00000001FF
