:100000000C9434000C9451000C9451000C94510049
:100010000C9451000C9451000C9451000C947900F4
:100020000C9451000C9451000C9451000C9451000C
:100030000C9451000C9451000C9451000C945100FC
:100040000C9451000C9451000C9451000C945100EC
:100050000C9451000C9453000C9451000C945100DA
:100060000C9451000C94510011241FBECFEFD8E026
:10007000DEBFCDBF11E0A0E0B1E0E8E5F9E002C0ED
:1000800005900D92AE30B107D9F711E0AEE0B1E0C6
:1000900001C01D92A035B107E1F70E9483000C94C6
:1000A000AA040C9400001F920F920FB60F92112415
:1000B0008F939F93EF93FF93B29A809178009091E2
:1000C000790090930F0180930E011092B200B99ABB
:1000D000E0E7F0E0808182608083109211015A98FD
:1000E000FF91EF919F918F910F900FBE0F901F90F6
:1000F00018951F920F920FB60F9211240F900FBEFA
:100100000F901F901895529A5A9A809181008F7E75
:10011000809381008091810088608093810080912C
:1001200080008D7F80938000809180008E7F8093FF
:1001300080008091810084608093810080918100A3
:100140008D7F809381008091810081608093810008
:10015000B29A89E196E00E946B0189E196E00E94E3
:100160005A0180917C008F7780937C0080917C0085
:10017000806480937C0090914A019C7F892F8160EC
:1001800080934A0180917A00846080937A00809104
:100190007A00826080937A0080917A0081608093F7
:1001A0007A00892F8D6180934A0180917A00806264
:1001B00080937A009D6390934A0180917B008460D4
:1001C00080937B0080917B008D7F80937B0080916A
:1001D0007B00816080937B009F73906490934A01C1
:1001E00090914B01916090934B0180917C00807FB6
:1001F00080937C00392F337C30934B0180917E00BB
:10020000816080937E0032953695369533702091CB
:100210004C01822F8F70880F880F832B8160382FBD
:100220003295330F330F307C9370932B90934B01A7
:1002300086958695207F282B20934C0180917A000B
:10024000806180937A0080917A00886080937A0040
:10025000822F806280934C0180917A008068809325
:100260007A00206320934C01789480911001FDCF97
:10027000F999FECF717072BD61BD80BDFA9AF99A8D
:100280000895F999FECF917092BD81BDF89A80B51D
:1002900008952FB7F89490938500809384002FBF22
:1002A00008958FB7F89420918400309185008FBF16
:1002B000C90108952FB7F89490938900809388001E
:1002C0002FBF08958FB7F89420918800309189004E
:1002D0008FBFC90108952FB7F89490938B00809336
:1002E0008A002FBF08958FB7F89420918A0030912B
:1002F0008B008FBFC90108952FB7F89490938700A2
:10030000809386002FBF08958FB7F89420918600C0
:10031000309187008FBFC90108958091120181FF3C
:1003200004C0239A259A249803C023982598249AD8
:100330008091130181FF03C08DB5816002C08DB52E
:100340008E7F8DBD90911201292F26952695279598
:1003500022272795892F81708295880F880F807CAE
:10036000822B292F2295269526952370822B292FC3
:10037000220F220F2072282B892F880F880F880FB9
:100380008071822B9695292F2870282B969596950B
:100390009470922B9CBD08958EBD0DB407FCFDCFCB
:1003A0008EB508950DB407FCFDCF8EB50895DF938B
:1003B000CF9300D00F92CDB7DEB7DE011196EAE4FD
:1003C000F1E083E001900D928150E1F769817A813B
:1003D0008B8190E00F900F900F90CF91DF91089557
:1003E000CF92DF92EF92FF920F931F93DF93CF9301
:1003F00000D00F92CDB7DEB733E0D32ED622472FF1
:1004000046954170182F12951170562F529556959A
:100410005170082F029506950170A82FA295A695F8
:10042000A695A170962F9295969596959370FF2418
:10043000F394F722FF0CFF0CF92A972F92959695CB
:1004400096959370B82FBF70BB0FBB0FB92B8078F8
:1004500090914C019077ECE4F1E03B2F3295330F13
:10046000330F307C22912B2F26952695982B922B9B
:10047000EF2CE294EE0CEE0C20ECE222CF2CC69492
:10048000C694A295AA0FAA0FA07C9F79669566953F
:100490006770862F880F880F202F2295220F207ECD
:1004A0009A2B922B5295550F507E8E291295107FC4
:1004B0009F7E912B90934C01769576957F70972F28
:1004C000990F990F3C29440F392B342B3083852BFE
:1004D0008D2980934A01D294DD0CDD0C80ECD8226A
:1004E0004295407F4D29472B40937C00110F110FFF
:1004F000110F512B562B000F000F000F052B0093EF
:100500007A00AF29A0937B00BF73B0937E000F9059
:100510000F900F90CF91DF911F910F91FF90EF906F
:10052000DF90CF9008959B01AC018091C000837E45
:100530008093C00060914601862F877C809346019E
:10054000862F837090E08130910531F182309105E2
:100550001CF4892B41F080C082309105B1F10397E2
:1005600009F07AC04DC08091C0008D7F8093C0009B
:100570008091C2008E7F8093C2008091C2008F77ED
:100580008093C2008091C2008F7B8093C20060E4A0
:1005900072E48FE090E052C08091C000826080934E
:1005A000C0008091C2008E7F8093C2008091C20003
:1005B0008F778093C2008091C2008F7B8093C200AE
:1005C00060E874E88EE190E039C08091C0008D7FD2
:1005D0008093C00062FF04C08091C200816003C0AC
:1005E0008091C2008E7F8093C2008091C2008F777D
:1005F0008093C2008091C20080648093C2002CC0AE
:100600008091C0008D7F8093C00062FF04C0809104
:10061000C200816003C08091C2008E7F8093C200BF
:100620008091C20080688093C2008091C200806483
:100630008093C20060E072E18AE790E00E94880443
:100640002150304020934801932F9F7080914901A1
:10065000807F892B80934901809148014091490115
:10066000942F9F70292F332727FD3A952093C5009B
:100670008093C40045FF0AC08091C10080688093C8
:10068000C100809147018260809347010895E0ECAA
:10069000F0E0408142954170842F880F880F880FC9
:1006A00090914601977F982B909346018081869583
:1006B000869586958170282F2295207F9F7E922B8C
:1006C000909346012081269526952170322F3295F0
:1006D000330F307E9F7D932B90934601822B842B8A
:1006E0000895982F8091C00085FFFCCF9093C6009D
:1006F00008959C018091C00085FFFCCFC9018070E6
:100700009170992321F08091C100816003C0809194
:10071000C1008E7F8093C1002093C6000895982F5A
:100720008091C00085FFFCCF9093C60080E090E0F0
:1007300008958091C00087FFFCCF9091C000292FC1
:100740002695287080914601877E990F392F307148
:10075000822B832B990F990F90728F7D892B809319
:1007600046018091C60008958091C00087FFFCCFAC
:100770009091C0002091C1006091C600492F46951C
:10078000487080914601877E990F592F5071842BB4
:10079000852B990F990F90728F7D892B809346013D
:1007A00030E0227030703695322F2227379527950A
:1007B00070E0262B372BC90108958091C00087FF78
:1007C000FCCF8091C60090E0089502C08091C600E1
:1007D0008091C00087FDFACF08951F93CF93DF93D8
:1007E000182F80914D01C82FD0E02196BE01882797
:1007F00077FD8095982F219722E330E040E050E08C
:100800000E9488049B01AC0180914F0190E0A0E020
:10081000B0E0281739074A075B0751F0CC5EDE4F7E
:10082000188320934D0180914E018F5F80934E017C
:10083000DF91CF911F9108950F931F9380914F01E6
:10084000282F30E0F901EC5EFE4F008110914E013F
:10085000112391F02F5F3F4FB901882777FD8095D5
:10086000982F22E330E040E050E00E94880460933B
:100870004F01115010934E01802F1F910F91089539
:1008800090E080914E01882309F491E0892F08952A
:1008900080914601837090E081309105B9F08230FB
:1008A000910509F1892B29F020E030E040E050E08B
:1008B0002CC02091C4003091C5002F5F3F4F40E015
:1008C00050E060E472E48FE090E019C02091C40031
:1008D0003091C5002F5F3F4F40E050E060E874E882
:1008E0008EE190E00CC02091C4003091C5002F5FD4
:1008F0003F4F40E050E060E072E18AE790E00E9404
:100900008804C901DA019C01AD01B901CA01089549
:10091000A1E21A2EAA1BBB1BFD010DC0AA1FBB1F03
:10092000EE1FFF1FA217B307E407F50720F0A21B75
:10093000B30BE40BF50B661F771F881F991F1A94E2
:1009400069F760957095809590959B01AC01BD010C
:08095000CF010895F894FFCFD8
:0E09580000000003000000008F03DD0300001C
:00000001FF
