
servo.elf:     file format elf32-avr

Sections:
Idx Name          Size      VMA       LMA       File off  Algn
  0 .data         0000000e  00800100  0000080e  000008a2  2**0
                  CONTENTS, ALLOC, LOAD, DATA
  1 .text         0000080e  00000000  00000000  00000094  2**1
                  CONTENTS, ALLOC, LOAD, READONLY, CODE
  2 .bss          0000003e  0080010e  0080010e  000008b0  2**0
                  ALLOC
  3 .debug_aranges 00000040  00000000  00000000  000008b0  2**0
                  CONTENTS, READONLY, DEBUGGING
  4 .debug_pubnames 00000373  00000000  00000000  000008f0  2**0
                  CONTENTS, READONLY, DEBUGGING
  5 .debug_info   00000b04  00000000  00000000  00000c63  2**0
                  CONTENTS, READONLY, DEBUGGING
  6 .debug_abbrev 000002fd  00000000  00000000  00001767  2**0
                  CONTENTS, READONLY, DEBUGGING
  7 .debug_line   000007f6  00000000  00000000  00001a64  2**0
                  CONTENTS, READONLY, DEBUGGING
  8 .debug_frame  000001e0  00000000  00000000  0000225c  2**2
                  CONTENTS, READONLY, DEBUGGING
  9 .debug_str    00000613  00000000  00000000  0000243c  2**0
                  CONTENTS, READONLY, DEBUGGING
 10 .debug_loc    000002b1  00000000  00000000  00002a4f  2**0
                  CONTENTS, READONLY, DEBUGGING
 11 .debug_ranges 00000048  00000000  00000000  00002d00  2**0
                  CONTENTS, READONLY, DEBUGGING

Disassembly of section .text:

00000000 <__vectors>:
   0:	0c 94 34 00 	jmp	0x68	; 0x68 <__ctors_end>
   4:	0c 94 51 00 	jmp	0xa2	; 0xa2 <__bad_interrupt>
   8:	0c 94 51 00 	jmp	0xa2	; 0xa2 <__bad_interrupt>
   c:	0c 94 51 00 	jmp	0xa2	; 0xa2 <__bad_interrupt>
  10:	0c 94 51 00 	jmp	0xa2	; 0xa2 <__bad_interrupt>
  14:	0c 94 51 00 	jmp	0xa2	; 0xa2 <__bad_interrupt>
  18:	0c 94 51 00 	jmp	0xa2	; 0xa2 <__bad_interrupt>
  1c:	0c 94 51 00 	jmp	0xa2	; 0xa2 <__bad_interrupt>
  20:	0c 94 51 00 	jmp	0xa2	; 0xa2 <__bad_interrupt>
  24:	0c 94 51 00 	jmp	0xa2	; 0xa2 <__bad_interrupt>
  28:	0c 94 51 00 	jmp	0xa2	; 0xa2 <__bad_interrupt>
  2c:	0c 94 51 00 	jmp	0xa2	; 0xa2 <__bad_interrupt>
  30:	0c 94 51 00 	jmp	0xa2	; 0xa2 <__bad_interrupt>
  34:	0c 94 51 00 	jmp	0xa2	; 0xa2 <__bad_interrupt>
  38:	0c 94 51 00 	jmp	0xa2	; 0xa2 <__bad_interrupt>
  3c:	0c 94 51 00 	jmp	0xa2	; 0xa2 <__bad_interrupt>
  40:	0c 94 51 00 	jmp	0xa2	; 0xa2 <__bad_interrupt>
  44:	0c 94 51 00 	jmp	0xa2	; 0xa2 <__bad_interrupt>
  48:	0c 94 51 00 	jmp	0xa2	; 0xa2 <__bad_interrupt>
  4c:	0c 94 51 00 	jmp	0xa2	; 0xa2 <__bad_interrupt>
  50:	0c 94 51 00 	jmp	0xa2	; 0xa2 <__bad_interrupt>
  54:	0c 94 51 00 	jmp	0xa2	; 0xa2 <__bad_interrupt>
  58:	0c 94 51 00 	jmp	0xa2	; 0xa2 <__bad_interrupt>
  5c:	0c 94 51 00 	jmp	0xa2	; 0xa2 <__bad_interrupt>
  60:	0c 94 51 00 	jmp	0xa2	; 0xa2 <__bad_interrupt>
  64:	0c 94 51 00 	jmp	0xa2	; 0xa2 <__bad_interrupt>

00000068 <__ctors_end>:
  68:	11 24       	eor	r1, r1
  6a:	1f be       	out	0x3f, r1	; 63
  6c:	cf ef       	ldi	r28, 0xFF	; 255
  6e:	d8 e0       	ldi	r29, 0x08	; 8
  70:	de bf       	out	0x3e, r29	; 62
  72:	cd bf       	out	0x3d, r28	; 61

00000074 <__do_copy_data>:
  74:	11 e0       	ldi	r17, 0x01	; 1
  76:	a0 e0       	ldi	r26, 0x00	; 0
  78:	b1 e0       	ldi	r27, 0x01	; 1
  7a:	ee e0       	ldi	r30, 0x0E	; 14
  7c:	f8 e0       	ldi	r31, 0x08	; 8
  7e:	02 c0       	rjmp	.+4      	; 0x84 <.do_copy_data_start>

00000080 <.do_copy_data_loop>:
  80:	05 90       	lpm	r0, Z+
  82:	0d 92       	st	X+, r0

00000084 <.do_copy_data_start>:
  84:	ae 30       	cpi	r26, 0x0E	; 14
  86:	b1 07       	cpc	r27, r17
  88:	d9 f7       	brne	.-10     	; 0x80 <.do_copy_data_loop>

0000008a <__do_clear_bss>:
  8a:	11 e0       	ldi	r17, 0x01	; 1
  8c:	ae e0       	ldi	r26, 0x0E	; 14
  8e:	b1 e0       	ldi	r27, 0x01	; 1
  90:	01 c0       	rjmp	.+2      	; 0x94 <.do_clear_bss_start>

00000092 <.do_clear_bss_loop>:
  92:	1d 92       	st	X+, r1

00000094 <.do_clear_bss_start>:
  94:	ac 34       	cpi	r26, 0x4C	; 76
  96:	b1 07       	cpc	r27, r17
  98:	e1 f7       	brne	.-8      	; 0x92 <.do_clear_bss_loop>
  9a:	0e 94 53 00 	call	0xa6	; 0xa6 <main>
  9e:	0c 94 05 04 	jmp	0x80a	; 0x80a <_exit>

000000a2 <__bad_interrupt>:
  a2:	0c 94 00 00 	jmp	0	; 0x0 <__vectors>

000000a6 <main>:
#define CLOCKWISE	0
#define CCLOCKWISE	1

// Main Function
int main()
{
  a6:	cf 93       	push	r28
  a8:	df 93       	push	r29
	uint16 value = 1000;
	uint8 direction = CLOCKWISE;

	// Port Configuration
	setBit(DDRB, PB1);
  aa:	21 9a       	sbi	0x04, 1	; 4

	// Timer1 Configuration
	timer1ClockPrescaller8();
  ac:	80 91 81 00 	lds	r24, 0x0081
  b0:	8b 7f       	andi	r24, 0xFB	; 251
  b2:	80 93 81 00 	sts	0x0081, r24
  b6:	80 91 81 00 	lds	r24, 0x0081
  ba:	82 60       	ori	r24, 0x02	; 2
  bc:	80 93 81 00 	sts	0x0081, r24
  c0:	80 91 81 00 	lds	r24, 0x0081
  c4:	8e 7f       	andi	r24, 0xFE	; 254
  c6:	80 93 81 00 	sts	0x0081, r24
	timer1PhaseFrequencyCorrectPWMICR1Mode();
  ca:	80 91 81 00 	lds	r24, 0x0081
  ce:	80 61       	ori	r24, 0x10	; 16
  d0:	80 93 81 00 	sts	0x0081, r24
  d4:	80 91 81 00 	lds	r24, 0x0081
  d8:	87 7f       	andi	r24, 0xF7	; 247
  da:	80 93 81 00 	sts	0x0081, r24
  de:	80 91 80 00 	lds	r24, 0x0080
  e2:	8d 7f       	andi	r24, 0xFD	; 253
  e4:	80 93 80 00 	sts	0x0080, r24
  e8:	80 91 80 00 	lds	r24, 0x0080
  ec:	8e 7f       	andi	r24, 0xFE	; 254
  ee:	80 93 80 00 	sts	0x0080, r24
	timer1OC1ANonInvertedMode();
  f2:	80 91 80 00 	lds	r24, 0x0080
  f6:	80 68       	ori	r24, 0x80	; 128
  f8:	80 93 80 00 	sts	0x0080, r24
  fc:	80 91 80 00 	lds	r24, 0x0080
 100:	8f 7b       	andi	r24, 0xBF	; 191
 102:	80 93 80 00 	sts	0x0080, r24
	ICR1 = 20000;
 106:	80 e2       	ldi	r24, 0x20	; 32
 108:	9e e4       	ldi	r25, 0x4E	; 78
 10a:	90 93 87 00 	sts	0x0087, r25
 10e:	80 93 86 00 	sts	0x0086, r24
	timer1SetCompareAValue(value);
 112:	88 ee       	ldi	r24, 0xE8	; 232
 114:	93 e0       	ldi	r25, 0x03	; 3
 116:	0e 94 bd 00 	call	0x17a	; 0x17a <timer1SetCompareAValue>
    milliseconds can be achieved.
 */
void
_delay_loop_2(uint16_t __count)
{
	__asm__ volatile (
 11a:	c0 e9       	ldi	r28, 0x90	; 144
 11c:	d1 e0       	ldi	r29, 0x01	; 1
				direction = CLOCKWISE;
			}
		}
		timer1SetCompareAValue(value);
		*/
		timer1SetCompareAValue(2000);
 11e:	80 ed       	ldi	r24, 0xD0	; 208
 120:	97 e0       	ldi	r25, 0x07	; 7
 122:	0e 94 bd 00 	call	0x17a	; 0x17a <timer1SetCompareAValue>
 126:	8c e2       	ldi	r24, 0x2C	; 44
 128:	91 e0       	ldi	r25, 0x01	; 1
 12a:	fe 01       	movw	r30, r28
 12c:	31 97       	sbiw	r30, 0x01	; 1
 12e:	f1 f7       	brne	.-4      	; 0x12c <main+0x86>
		__ticks = (uint16_t) (__ms * 10.0);
		while(__ticks)
		{
			// wait 1/10 ms
			_delay_loop_2(((F_CPU) / 4e3) / 10);
			__ticks --;
 130:	01 97       	sbiw	r24, 0x01	; 1
		__ticks = 1;
	else if (__tmp > 65535)
	{
		//	__ticks = requested delay in 1/10 ms
		__ticks = (uint16_t) (__ms * 10.0);
		while(__ticks)
 132:	d9 f7       	brne	.-10     	; 0x12a <main+0x84>
 134:	f4 cf       	rjmp	.-24     	; 0x11e <main+0x78>

00000136 <eepromWrite>:
 * Writes a byte in the specified address in the EEPROM
 * -------------------------------------------------------------------------- */

void eepromWrite(uint8 data, uint16 address)
{
	waitUntilBitIsClear(EECR, EEPE);
 136:	f9 99       	sbic	0x1f, 1	; 31
 138:	fe cf       	rjmp	.-4      	; 0x136 <eepromWrite>
	EEAR = (address & 0x01FF);
 13a:	71 70       	andi	r23, 0x01	; 1
 13c:	72 bd       	out	0x22, r23	; 34
 13e:	61 bd       	out	0x21, r22	; 33
	EEDR = data;
 140:	80 bd       	out	0x20, r24	; 32
	setBit(EECR, EEMPE);
 142:	fa 9a       	sbi	0x1f, 2	; 31
	setBit(EECR, EEPE);
 144:	f9 9a       	sbi	0x1f, 1	; 31
	return;
}
 146:	08 95       	ret

00000148 <eepromRead>:
 * Reads a byte from the specified address in the EEPROM
 * -------------------------------------------------------------------------- */

uint8 eepromRead(uint16 address)
{
	waitUntilBitIsClear(EECR, EEPE);
 148:	f9 99       	sbic	0x1f, 1	; 31
 14a:	fe cf       	rjmp	.-4      	; 0x148 <eepromRead>
	EEAR = (address & 0x01FF);
 14c:	91 70       	andi	r25, 0x01	; 1
 14e:	92 bd       	out	0x22, r25	; 34
 150:	81 bd       	out	0x21, r24	; 33
	setBit(EECR, EERE);
 152:	f8 9a       	sbi	0x1f, 0	; 31
	return EEDR;
 154:	80 b5       	in	r24, 0x20	; 32
}
 156:	08 95       	ret

00000158 <timer1SetCounterValue>:

void timer1SetCounterValue(uint16 value)
{
	uint8 sreg;

	sreg = SREG;
 158:	2f b7       	in	r18, 0x3f	; 63
	cli();
 15a:	f8 94       	cli
	TCNT1 = value;
 15c:	90 93 85 00 	sts	0x0085, r25
 160:	80 93 84 00 	sts	0x0084, r24
	SREG = sreg;
 164:	2f bf       	out	0x3f, r18	; 63

	return;
}
 166:	08 95       	ret

00000168 <timer1GetCounterValue>:
uint16 timer1GetCounterValue(void)
{
	uint8 sreg;
	uint16 aux;

	sreg = SREG;
 168:	8f b7       	in	r24, 0x3f	; 63
	cli();
 16a:	f8 94       	cli
	aux = TCNT1;
 16c:	20 91 84 00 	lds	r18, 0x0084
 170:	30 91 85 00 	lds	r19, 0x0085
	SREG = sreg;
 174:	8f bf       	out	0x3f, r24	; 63

	return aux;
}
 176:	c9 01       	movw	r24, r18
 178:	08 95       	ret

0000017a <timer1SetCompareAValue>:

void timer1SetCompareAValue(uint16 value)
{
	uint8 sreg;

	sreg = SREG;
 17a:	2f b7       	in	r18, 0x3f	; 63
	cli();
 17c:	f8 94       	cli
	OCR1A = value;
 17e:	90 93 89 00 	sts	0x0089, r25
 182:	80 93 88 00 	sts	0x0088, r24
	SREG = sreg;
 186:	2f bf       	out	0x3f, r18	; 63

	return;
}
 188:	08 95       	ret

0000018a <timer1GetCompareAValue>:
uint16 timer1GetCompareAValue(void)
{
	uint8 sreg;
	uint16 aux;

	sreg = SREG;
 18a:	8f b7       	in	r24, 0x3f	; 63
	cli();
 18c:	f8 94       	cli
	aux = OCR1A;
 18e:	20 91 88 00 	lds	r18, 0x0088
 192:	30 91 89 00 	lds	r19, 0x0089
	SREG = sreg;
 196:	8f bf       	out	0x3f, r24	; 63

	return aux;
}
 198:	c9 01       	movw	r24, r18
 19a:	08 95       	ret

0000019c <timer1SetCompareBValue>:

void timer1SetCompareBValue(uint16 value)
{
	uint8 sreg;

	sreg = SREG;
 19c:	2f b7       	in	r18, 0x3f	; 63
	cli();
 19e:	f8 94       	cli
	OCR1B = value;
 1a0:	90 93 8b 00 	sts	0x008B, r25
 1a4:	80 93 8a 00 	sts	0x008A, r24
	SREG = sreg;
 1a8:	2f bf       	out	0x3f, r18	; 63

	return;
}
 1aa:	08 95       	ret

000001ac <timer1GetCompareBValue>:
uint16 timer1GetCompareBValue(void)
{
	uint8 sreg;
	uint16 aux;

	sreg = SREG;
 1ac:	8f b7       	in	r24, 0x3f	; 63
	cli();
 1ae:	f8 94       	cli
	aux = OCR1B;
 1b0:	20 91 8a 00 	lds	r18, 0x008A
 1b4:	30 91 8b 00 	lds	r19, 0x008B
	SREG = sreg;
 1b8:	8f bf       	out	0x3f, r24	; 63

	return aux;
}
 1ba:	c9 01       	movw	r24, r18
 1bc:	08 95       	ret

000001be <timer1GetInputCaptureValue>:
uint16 timer1GetInputCaptureValue(void)
{
	uint8 sreg;
	uint16 aux;

	sreg = SREG;
 1be:	8f b7       	in	r24, 0x3f	; 63
	cli();
 1c0:	f8 94       	cli
	aux = ICR1;
 1c2:	20 91 86 00 	lds	r18, 0x0086
 1c6:	30 91 87 00 	lds	r19, 0x0087
	SREG = sreg;
 1ca:	8f bf       	out	0x3f, r24	; 63

	return aux;
}
 1cc:	c9 01       	movw	r24, r18
 1ce:	08 95       	ret

000001d0 <spiInit>:
 * Configures the SPI controller
 * -------------------------------------------------------------------------- */

void spiInit(void)
{
	if(spiConfiguration.masterSlave){
 1d0:	80 91 0e 01 	lds	r24, 0x010E
 1d4:	81 ff       	sbrs	r24, 1
 1d6:	04 c0       	rjmp	.+8      	; 0x1e0 <spiInit+0x10>
		setBit(SPI_DDR, SPI_MOSI);
 1d8:	23 9a       	sbi	0x04, 3	; 4
		setBit(SPI_DDR, SPI_SCK);
 1da:	25 9a       	sbi	0x04, 5	; 4
		clrBit(SPI_DDR, SPI_MISO);
 1dc:	24 98       	cbi	0x04, 4	; 4
 1de:	03 c0       	rjmp	.+6      	; 0x1e6 <spiInit+0x16>
	}else{
		clrBit(SPI_DDR, SPI_MOSI);
 1e0:	23 98       	cbi	0x04, 3	; 4
		clrBit(SPI_DDR, SPI_SCK);
 1e2:	25 98       	cbi	0x04, 5	; 4
		setBit(SPI_DDR, SPI_MISO);
 1e4:	24 9a       	sbi	0x04, 4	; 4
	}
	if(spiConfiguration.doubleSpeed)
 1e6:	80 91 0f 01 	lds	r24, 0x010F
 1ea:	81 ff       	sbrs	r24, 1
 1ec:	03 c0       	rjmp	.+6      	; 0x1f4 <spiInit+0x24>
		setBit(SPSR, SPI2X);
 1ee:	8d b5       	in	r24, 0x2d	; 45
 1f0:	81 60       	ori	r24, 0x01	; 1
 1f2:	02 c0       	rjmp	.+4      	; 0x1f8 <spiInit+0x28>
	else
		clrBit(SPSR, SPI2X);
 1f4:	8d b5       	in	r24, 0x2d	; 45
 1f6:	8e 7f       	andi	r24, 0xFE	; 254
 1f8:	8d bd       	out	0x2d, r24	; 45
	SPCR =	(spiConfiguration.interruptEnabled << SPIE) | 
 1fa:	90 91 0e 01 	lds	r25, 0x010E
 1fe:	29 2f       	mov	r18, r25
 200:	26 95       	lsr	r18
 202:	26 95       	lsr	r18
 204:	27 95       	ror	r18
 206:	22 27       	eor	r18, r18
 208:	27 95       	ror	r18
 20a:	89 2f       	mov	r24, r25
 20c:	81 70       	andi	r24, 0x01	; 1
 20e:	82 95       	swap	r24
 210:	88 0f       	add	r24, r24
 212:	88 0f       	add	r24, r24
 214:	80 7c       	andi	r24, 0xC0	; 192
 216:	82 2b       	or	r24, r18
 218:	29 2f       	mov	r18, r25
 21a:	22 95       	swap	r18
 21c:	26 95       	lsr	r18
 21e:	26 95       	lsr	r18
 220:	23 70       	andi	r18, 0x03	; 3
 222:	82 2b       	or	r24, r18
 224:	29 2f       	mov	r18, r25
 226:	22 0f       	add	r18, r18
 228:	22 0f       	add	r18, r18
 22a:	20 72       	andi	r18, 0x20	; 32
 22c:	28 2b       	or	r18, r24
 22e:	89 2f       	mov	r24, r25
 230:	88 0f       	add	r24, r24
 232:	88 0f       	add	r24, r24
 234:	88 0f       	add	r24, r24
 236:	80 71       	andi	r24, 0x10	; 16
 238:	82 2b       	or	r24, r18
 23a:	96 95       	lsr	r25
 23c:	29 2f       	mov	r18, r25
 23e:	28 70       	andi	r18, 0x08	; 8
 240:	28 2b       	or	r18, r24
 242:	96 95       	lsr	r25
 244:	96 95       	lsr	r25
 246:	94 70       	andi	r25, 0x04	; 4
 248:	92 2b       	or	r25, r18
 24a:	9c bd       	out	0x2c, r25	; 44
			(spiConfiguration.sckIdleValue << CPOL) | 
			(spiConfiguration.leadingTrailingEdge << CPHA) | 
			(spiConfiguration.clockPrescaler & 0x03);

	return;
}
 24c:	08 95       	ret

0000024e <spiMasterTransmit>:
 * Transmit data at the SPI bus in master mode
 * -------------------------------------------------------------------------- */

uint8 spiMasterTransmit(uint8 data)
{
	SPDR = data;
 24e:	8e bd       	out	0x2e, r24	; 46
	waitUntilBitIsClear(SPSR, SPIF);
 250:	0d b4       	in	r0, 0x2d	; 45
 252:	07 fc       	sbrc	r0, 7
 254:	fd cf       	rjmp	.-6      	; 0x250 <spiMasterTransmit+0x2>
	return SPDR;
 256:	8e b5       	in	r24, 0x2e	; 46
}
 258:	08 95       	ret

0000025a <spiSlaveTransmit>:
 * Receives data from the SPI bus
 * -------------------------------------------------------------------------- */

uint8 spiSlaveTransmit(void)
{
	waitUntilBitIsClear(SPSR, SPIF);
 25a:	0d b4       	in	r0, 0x2d	; 45
 25c:	07 fc       	sbrc	r0, 7
 25e:	fd cf       	rjmp	.-6      	; 0x25a <spiSlaveTransmit>
	return SPDR;
 260:	8e b5       	in	r24, 0x2e	; 46
}
 262:	08 95       	ret

00000264 <adcGetConfiguration>:
/* -----------------------------------------------------------------------------
 * Get the current ADC configuration
 * -------------------------------------------------------------------------- */

adcConfiguration_t adcGetConfiguration(void)
{
 264:	df 93       	push	r29
 266:	cf 93       	push	r28
 268:	00 d0       	rcall	.+0      	; 0x26a <adcGetConfiguration+0x6>
 26a:	0f 92       	push	r0
 26c:	cd b7       	in	r28, 0x3d	; 61
 26e:	de b7       	in	r29, 0x3e	; 62
	return adcConfiguration;
 270:	de 01       	movw	r26, r28
 272:	11 96       	adiw	r26, 0x01	; 1
 274:	e6 e4       	ldi	r30, 0x46	; 70
 276:	f1 e0       	ldi	r31, 0x01	; 1
 278:	83 e0       	ldi	r24, 0x03	; 3
 27a:	01 90       	ld	r0, Z+
 27c:	0d 92       	st	X+, r0
 27e:	81 50       	subi	r24, 0x01	; 1
 280:	e1 f7       	brne	.-8      	; 0x27a <adcGetConfiguration+0x16>
 282:	69 81       	ldd	r22, Y+1	; 0x01
 284:	7a 81       	ldd	r23, Y+2	; 0x02
}
 286:	8b 81       	ldd	r24, Y+3	; 0x03
 288:	90 e0       	ldi	r25, 0x00	; 0
 28a:	0f 90       	pop	r0
 28c:	0f 90       	pop	r0
 28e:	0f 90       	pop	r0
 290:	cf 91       	pop	r28
 292:	df 91       	pop	r29
 294:	08 95       	ret

00000296 <adcLoadConfiguration>:
/* -----------------------------------------------------------------------------
 * Load an ADC configuration
 * -------------------------------------------------------------------------- */

void adcLoadConfiguration(adcConfiguration_t config)
{
 296:	cf 92       	push	r12
 298:	df 92       	push	r13
 29a:	ef 92       	push	r14
 29c:	ff 92       	push	r15
 29e:	0f 93       	push	r16
 2a0:	1f 93       	push	r17
 2a2:	df 93       	push	r29
 2a4:	cf 93       	push	r28
 2a6:	00 d0       	rcall	.+0      	; 0x2a8 <adcLoadConfiguration+0x12>
 2a8:	0f 92       	push	r0
 2aa:	cd b7       	in	r28, 0x3d	; 61
 2ac:	de b7       	in	r29, 0x3e	; 62
 2ae:	33 e0       	ldi	r19, 0x03	; 3
 2b0:	d3 2e       	mov	r13, r19
 2b2:	d6 22       	and	r13, r22
 2b4:	47 2f       	mov	r20, r23
 2b6:	46 95       	lsr	r20
 2b8:	41 70       	andi	r20, 0x01	; 1
 2ba:	18 2f       	mov	r17, r24
 2bc:	12 95       	swap	r17
 2be:	11 70       	andi	r17, 0x01	; 1
 2c0:	56 2f       	mov	r21, r22
 2c2:	52 95       	swap	r21
 2c4:	56 95       	lsr	r21
 2c6:	51 70       	andi	r21, 0x01	; 1
 2c8:	08 2f       	mov	r16, r24
 2ca:	02 95       	swap	r16
 2cc:	06 95       	lsr	r16
 2ce:	01 70       	andi	r16, 0x01	; 1
 2d0:	a8 2f       	mov	r26, r24
 2d2:	a2 95       	swap	r26
 2d4:	a6 95       	lsr	r26
 2d6:	a6 95       	lsr	r26
 2d8:	a1 70       	andi	r26, 0x01	; 1
 2da:	96 2f       	mov	r25, r22
 2dc:	92 95       	swap	r25
 2de:	96 95       	lsr	r25
 2e0:	96 95       	lsr	r25
 2e2:	93 70       	andi	r25, 0x03	; 3
 2e4:	ff 24       	eor	r15, r15
 2e6:	f3 94       	inc	r15
 2e8:	f7 22       	and	r15, r23
 2ea:	ff 0c       	add	r15, r15
 2ec:	ff 0c       	add	r15, r15
 2ee:	f9 2a       	or	r15, r25
 2f0:	97 2f       	mov	r25, r23
 2f2:	92 95       	swap	r25
 2f4:	96 95       	lsr	r25
 2f6:	96 95       	lsr	r25
 2f8:	93 70       	andi	r25, 0x03	; 3
 2fa:	b8 2f       	mov	r27, r24
 2fc:	bf 70       	andi	r27, 0x0F	; 15
 2fe:	bb 0f       	add	r27, r27
 300:	bb 0f       	add	r27, r27
 302:	b9 2b       	or	r27, r25
	adcConfiguration = config;
 304:	80 78       	andi	r24, 0x80	; 128
 306:	90 91 48 01 	lds	r25, 0x0148
 30a:	90 77       	andi	r25, 0x70	; 112
 30c:	e8 e4       	ldi	r30, 0x48	; 72
 30e:	f1 e0       	ldi	r31, 0x01	; 1
 310:	3b 2f       	mov	r19, r27
 312:	32 95       	swap	r19
 314:	33 0f       	add	r19, r19
 316:	33 0f       	add	r19, r19
 318:	30 7c       	andi	r19, 0xC0	; 192
 31a:	22 91       	ld	r18, -Z
 31c:	2b 2f       	mov	r18, r27
 31e:	26 95       	lsr	r18
 320:	26 95       	lsr	r18
 322:	98 2b       	or	r25, r24
 324:	92 2b       	or	r25, r18
 326:	ef 2c       	mov	r14, r15
 328:	e2 94       	swap	r14
 32a:	ee 0c       	add	r14, r14
 32c:	ee 0c       	add	r14, r14
 32e:	20 ec       	ldi	r18, 0xC0	; 192
 330:	e2 22       	and	r14, r18
 332:	cf 2c       	mov	r12, r15
 334:	c6 94       	lsr	r12
 336:	c6 94       	lsr	r12
 338:	a2 95       	swap	r26
 33a:	aa 0f       	add	r26, r26
 33c:	aa 0f       	add	r26, r26
 33e:	a0 7c       	andi	r26, 0xC0	; 192
 340:	9f 79       	andi	r25, 0x9F	; 159
/* -----------------------------------------------------------------------------
 * Load an ADC configuration
 * -------------------------------------------------------------------------- */

void adcLoadConfiguration(adcConfiguration_t config)
{
 342:	66 95       	lsr	r22
 344:	66 95       	lsr	r22
	adcConfiguration = config;
 346:	67 70       	andi	r22, 0x07	; 7
 348:	86 2f       	mov	r24, r22
 34a:	88 0f       	add	r24, r24
 34c:	88 0f       	add	r24, r24
 34e:	20 2f       	mov	r18, r16
 350:	22 95       	swap	r18
 352:	22 0f       	add	r18, r18
 354:	20 7e       	andi	r18, 0xE0	; 224
 356:	9a 2b       	or	r25, r26
 358:	92 2b       	or	r25, r18
 35a:	52 95       	swap	r21
 35c:	55 0f       	add	r21, r21
 35e:	50 7e       	andi	r21, 0xE0	; 224
 360:	8e 29       	or	r24, r14
 362:	12 95       	swap	r17
 364:	10 7f       	andi	r17, 0xF0	; 240
 366:	9f 7e       	andi	r25, 0xEF	; 239
 368:	91 2b       	or	r25, r17
 36a:	90 93 48 01 	sts	0x0148, r25
/* -----------------------------------------------------------------------------
 * Load an ADC configuration
 * -------------------------------------------------------------------------- */

void adcLoadConfiguration(adcConfiguration_t config)
{
 36e:	76 95       	lsr	r23
 370:	76 95       	lsr	r23
	adcConfiguration = config;
 372:	7f 70       	andi	r23, 0x0F	; 15
 374:	97 2f       	mov	r25, r23
 376:	99 0f       	add	r25, r25
 378:	99 0f       	add	r25, r25
 37a:	3c 29       	or	r19, r12
 37c:	44 0f       	add	r20, r20
 37e:	39 2b       	or	r19, r25
 380:	34 2b       	or	r19, r20
 382:	30 83       	st	Z, r19
 384:	85 2b       	or	r24, r21
 386:	8d 29       	or	r24, r13
 388:	80 93 46 01 	sts	0x0146, r24

	ADMUX =	((config.reference & 0x03) << 6) | 
 38c:	d2 94       	swap	r13
 38e:	dd 0c       	add	r13, r13
 390:	dd 0c       	add	r13, r13
 392:	80 ec       	ldi	r24, 0xC0	; 192
 394:	d8 22       	and	r13, r24
 396:	42 95       	swap	r20
 398:	40 7f       	andi	r20, 0xF0	; 240
 39a:	4d 29       	or	r20, r13
 39c:	47 2b       	or	r20, r23
 39e:	40 93 7c 00 	sts	0x007C, r20
			(config.leftAdjust << 5) | 
			(config.channel & 0x0F);
	ADCSRA =	(config.enabled << 7) |
 3a2:	11 0f       	add	r17, r17
 3a4:	11 0f       	add	r17, r17
 3a6:	11 0f       	add	r17, r17
 3a8:	51 2b       	or	r21, r17
 3aa:	56 2b       	or	r21, r22
 3ac:	00 0f       	add	r16, r16
 3ae:	00 0f       	add	r16, r16
 3b0:	00 0f       	add	r16, r16
 3b2:	05 2b       	or	r16, r21
 3b4:	00 93 7a 00 	sts	0x007A, r16
				(config.automaticMode << 5) |
				(config.interruptEnabled << 3) |
				(config.clockPrescaller & 0x07);
	ADCSRB =	(config.analogComparator << 6) |
 3b8:	af 29       	or	r26, r15
 3ba:	a0 93 7b 00 	sts	0x007B, r26
				(config.triggerSource & 0x07);
	DIDR0 =	config.digitalDisabled & 0x3F;
 3be:	bf 73       	andi	r27, 0x3F	; 63
 3c0:	b0 93 7e 00 	sts	0x007E, r27
	return;
}
 3c4:	0f 90       	pop	r0
 3c6:	0f 90       	pop	r0
 3c8:	0f 90       	pop	r0
 3ca:	cf 91       	pop	r28
 3cc:	df 91       	pop	r29
 3ce:	1f 91       	pop	r17
 3d0:	0f 91       	pop	r16
 3d2:	ff 90       	pop	r15
 3d4:	ef 90       	pop	r14
 3d6:	df 90       	pop	r13
 3d8:	cf 90       	pop	r12
 3da:	08 95       	ret

000003dc <usartInit>:
/* -----------------------------------------------------------------------------
 * Configures the USART controller
 * -------------------------------------------------------------------------- */

void usartInit(uint32 baudRate)
{
 3dc:	9b 01       	movw	r18, r22
 3de:	ac 01       	movw	r20, r24
	uint64 aux64;

	// Clear errors
	UCSR0A &= 0xE3;
 3e0:	80 91 c0 00 	lds	r24, 0x00C0
 3e4:	83 7e       	andi	r24, 0xE3	; 227
 3e6:	80 93 c0 00 	sts	0x00C0, r24
	usartConfiguration.frameError = 0;
 3ea:	60 91 42 01 	lds	r22, 0x0142
	usartConfiguration.bufferOverflowError = 0;
	usartConfiguration.parityError = 0;
 3ee:	86 2f       	mov	r24, r22
 3f0:	87 7c       	andi	r24, 0xC7	; 199
 3f2:	80 93 42 01 	sts	0x0142, r24

	// USART configuration
	switch(usartConfiguration.mode){
 3f6:	86 2f       	mov	r24, r22
 3f8:	83 70       	andi	r24, 0x03	; 3
 3fa:	90 e0       	ldi	r25, 0x00	; 0
 3fc:	81 30       	cpi	r24, 0x01	; 1
 3fe:	91 05       	cpc	r25, r1
 400:	31 f1       	breq	.+76     	; 0x44e <usartInit+0x72>
 402:	82 30       	cpi	r24, 0x02	; 2
 404:	91 05       	cpc	r25, r1
 406:	1c f4       	brge	.+6      	; 0x40e <usartInit+0x32>
 408:	89 2b       	or	r24, r25
 40a:	41 f0       	breq	.+16     	; 0x41c <usartInit+0x40>
 40c:	80 c0       	rjmp	.+256    	; 0x50e <usartInit+0x132>
 40e:	82 30       	cpi	r24, 0x02	; 2
 410:	91 05       	cpc	r25, r1
 412:	b1 f1       	breq	.+108    	; 0x480 <usartInit+0xa4>
 414:	03 97       	sbiw	r24, 0x03	; 3
 416:	09 f0       	breq	.+2      	; 0x41a <usartInit+0x3e>
 418:	7a c0       	rjmp	.+244    	; 0x50e <usartInit+0x132>
 41a:	4d c0       	rjmp	.+154    	; 0x4b6 <usartInit+0xda>
	case 0:
		clrBit(UCSR0A, U2X0);			// Normal speed
 41c:	80 91 c0 00 	lds	r24, 0x00C0
 420:	8d 7f       	andi	r24, 0xFD	; 253
 422:	80 93 c0 00 	sts	0x00C0, r24
		clrBit(UCSR0C, UCPOL0);			// Write zero in asynchronous mode
 426:	80 91 c2 00 	lds	r24, 0x00C2
 42a:	8e 7f       	andi	r24, 0xFE	; 254
 42c:	80 93 c2 00 	sts	0x00C2, r24
		clrBit(UCSR0C, UMSEL01);		// Asynchronous mode
 430:	80 91 c2 00 	lds	r24, 0x00C2
 434:	8f 77       	andi	r24, 0x7F	; 127
 436:	80 93 c2 00 	sts	0x00C2, r24
		clrBit(UCSR0C, UMSEL00);		// Asynchronous mode
 43a:	80 91 c2 00 	lds	r24, 0x00C2
 43e:	8f 7b       	andi	r24, 0xBF	; 191
 440:	80 93 c2 00 	sts	0x00C2, r24
		aux64 = F_CPU / 16 / baudRate;
		usartConfiguration.ubrr = (uint16)(aux64 - 1);
 444:	60 e4       	ldi	r22, 0x40	; 64
 446:	72 e4       	ldi	r23, 0x42	; 66
 448:	8f e0       	ldi	r24, 0x0F	; 15
 44a:	90 e0       	ldi	r25, 0x00	; 0
 44c:	52 c0       	rjmp	.+164    	; 0x4f2 <usartInit+0x116>
		break;
	case 1:
		setBit(UCSR0A, U2X0);			// Double speed
 44e:	80 91 c0 00 	lds	r24, 0x00C0
 452:	82 60       	ori	r24, 0x02	; 2
 454:	80 93 c0 00 	sts	0x00C0, r24
		clrBit(UCSR0C, UCPOL0);			// Write zero in asynchronous mode
 458:	80 91 c2 00 	lds	r24, 0x00C2
 45c:	8e 7f       	andi	r24, 0xFE	; 254
 45e:	80 93 c2 00 	sts	0x00C2, r24
		clrBit(UCSR0C, UMSEL01);		// Asynchronous mode
 462:	80 91 c2 00 	lds	r24, 0x00C2
 466:	8f 77       	andi	r24, 0x7F	; 127
 468:	80 93 c2 00 	sts	0x00C2, r24
		clrBit(UCSR0C, UMSEL00);		// Asynchronous mode
 46c:	80 91 c2 00 	lds	r24, 0x00C2
 470:	8f 7b       	andi	r24, 0xBF	; 191
 472:	80 93 c2 00 	sts	0x00C2, r24
		aux64 = F_CPU / 8 / baudRate;
		usartConfiguration.ubrr = (uint16)(aux64 - 1);
 476:	60 e8       	ldi	r22, 0x80	; 128
 478:	74 e8       	ldi	r23, 0x84	; 132
 47a:	8e e1       	ldi	r24, 0x1E	; 30
 47c:	90 e0       	ldi	r25, 0x00	; 0
 47e:	39 c0       	rjmp	.+114    	; 0x4f2 <usartInit+0x116>
		break;
	case 2:
		clrBit(UCSR0A, U2X0);			// Write zero in synchronous mode
 480:	80 91 c0 00 	lds	r24, 0x00C0
 484:	8d 7f       	andi	r24, 0xFD	; 253
 486:	80 93 c0 00 	sts	0x00C0, r24
		if(usartConfiguration.polarity)
 48a:	62 ff       	sbrs	r22, 2
 48c:	04 c0       	rjmp	.+8      	; 0x496 <usartInit+0xba>
			setBit(UCSR0C, UCPOL0);		// XCK rising edge
 48e:	80 91 c2 00 	lds	r24, 0x00C2
 492:	81 60       	ori	r24, 0x01	; 1
 494:	03 c0       	rjmp	.+6      	; 0x49c <usartInit+0xc0>
		else
			clrBit(UCSR0C, UCPOL0);		// XCK falling edge
 496:	80 91 c2 00 	lds	r24, 0x00C2
 49a:	8e 7f       	andi	r24, 0xFE	; 254
 49c:	80 93 c2 00 	sts	0x00C2, r24
		clrBit(UCSR0C, UMSEL01);		// Synchronous mode
 4a0:	80 91 c2 00 	lds	r24, 0x00C2
 4a4:	8f 77       	andi	r24, 0x7F	; 127
 4a6:	80 93 c2 00 	sts	0x00C2, r24
		setBit(UCSR0C, UMSEL00);		// Synchronous mode
 4aa:	80 91 c2 00 	lds	r24, 0x00C2
 4ae:	80 64       	ori	r24, 0x40	; 64
 4b0:	80 93 c2 00 	sts	0x00C2, r24
 4b4:	2c c0       	rjmp	.+88     	; 0x50e <usartInit+0x132>
		break;
	case 3:
		clrBit(UCSR0A, U2X0);			// Write zero in synchronous mode
 4b6:	80 91 c0 00 	lds	r24, 0x00C0
 4ba:	8d 7f       	andi	r24, 0xFD	; 253
 4bc:	80 93 c0 00 	sts	0x00C0, r24
		if(usartConfiguration.polarity)
 4c0:	62 ff       	sbrs	r22, 2
 4c2:	04 c0       	rjmp	.+8      	; 0x4cc <usartInit+0xf0>
			setBit(UCSR0C, UCPOL0);		// XCK rising edge
 4c4:	80 91 c2 00 	lds	r24, 0x00C2
 4c8:	81 60       	ori	r24, 0x01	; 1
 4ca:	03 c0       	rjmp	.+6      	; 0x4d2 <usartInit+0xf6>
		else
			clrBit(UCSR0C, UCPOL0);		// XCK falling edge
 4cc:	80 91 c2 00 	lds	r24, 0x00C2
 4d0:	8e 7f       	andi	r24, 0xFE	; 254
 4d2:	80 93 c2 00 	sts	0x00C2, r24
		setBit(UCSR0C, UMSEL01);		// Master SPI mode
 4d6:	80 91 c2 00 	lds	r24, 0x00C2
 4da:	80 68       	ori	r24, 0x80	; 128
 4dc:	80 93 c2 00 	sts	0x00C2, r24
		setBit(UCSR0C, UMSEL00);		// Master SPI mode
 4e0:	80 91 c2 00 	lds	r24, 0x00C2
 4e4:	80 64       	ori	r24, 0x40	; 64
 4e6:	80 93 c2 00 	sts	0x00C2, r24
		aux64 = F_CPU / 2 / baudRate;
		usartConfiguration.ubrr = (uint16)(aux64 - 1);
 4ea:	60 e0       	ldi	r22, 0x00	; 0
 4ec:	72 e1       	ldi	r23, 0x12	; 18
 4ee:	8a e7       	ldi	r24, 0x7A	; 122
 4f0:	90 e0       	ldi	r25, 0x00	; 0
 4f2:	0e 94 e3 03 	call	0x7c6	; 0x7c6 <__udivmodsi4>
 4f6:	21 50       	subi	r18, 0x01	; 1
 4f8:	30 40       	sbci	r19, 0x00	; 0
 4fa:	20 93 44 01 	sts	0x0144, r18
 4fe:	93 2f       	mov	r25, r19
 500:	9f 70       	andi	r25, 0x0F	; 15
 502:	80 91 45 01 	lds	r24, 0x0145
 506:	80 7f       	andi	r24, 0xF0	; 240
 508:	89 2b       	or	r24, r25
 50a:	80 93 45 01 	sts	0x0145, r24
		break;
	}

	// Sets the baud rate
	UBRR0H = (uint8)(usartConfiguration.ubrr >> 8);
 50e:	80 91 44 01 	lds	r24, 0x0144
 512:	40 91 45 01 	lds	r20, 0x0145
 516:	94 2f       	mov	r25, r20
 518:	9f 70       	andi	r25, 0x0F	; 15
 51a:	29 2f       	mov	r18, r25
 51c:	33 27       	eor	r19, r19
 51e:	27 fd       	sbrc	r18, 7
 520:	3a 95       	dec	r19
 522:	20 93 c5 00 	sts	0x00C5, r18
	UBRR0L = (uint8)usartConfiguration.ubrr;
 526:	80 93 c4 00 	sts	0x00C4, r24

	// Receiver buffer
	if(usartConfiguration.receiverBufferEnable)
 52a:	45 ff       	sbrs	r20, 5
 52c:	0a c0       	rjmp	.+20     	; 0x542 <usartInit+0x166>
		usartActivateReceptionCompleteInterrupt();
 52e:	80 91 c1 00 	lds	r24, 0x00C1
 532:	80 68       	ori	r24, 0x80	; 128
 534:	80 93 c1 00 	sts	0x00C1, r24
 538:	80 91 43 01 	lds	r24, 0x0143
 53c:	82 60       	ori	r24, 0x02	; 2
 53e:	80 93 43 01 	sts	0x0143, r24
 542:	08 95       	ret

00000544 <usartCheckError>:
 * Checks if an error occurred during transmission or reception
 * -------------------------------------------------------------------------- */

uint8 usartCheckError(void)
{
	usartConfiguration.frameError = isBitSet(UCSR0A, FE0);
 544:	e0 ec       	ldi	r30, 0xC0	; 192
 546:	f0 e0       	ldi	r31, 0x00	; 0
 548:	40 81       	ld	r20, Z
 54a:	42 95       	swap	r20
 54c:	41 70       	andi	r20, 0x01	; 1
 54e:	84 2f       	mov	r24, r20
 550:	88 0f       	add	r24, r24
 552:	88 0f       	add	r24, r24
 554:	88 0f       	add	r24, r24
 556:	90 91 42 01 	lds	r25, 0x0142
 55a:	97 7f       	andi	r25, 0xF7	; 247
 55c:	98 2b       	or	r25, r24
 55e:	90 93 42 01 	sts	0x0142, r25
	usartConfiguration.bufferOverflowError = isBitSet(UCSR0A, DOR0);
 562:	80 81       	ld	r24, Z
 564:	86 95       	lsr	r24
 566:	86 95       	lsr	r24
 568:	86 95       	lsr	r24
 56a:	81 70       	andi	r24, 0x01	; 1
 56c:	28 2f       	mov	r18, r24
 56e:	22 95       	swap	r18
 570:	20 7f       	andi	r18, 0xF0	; 240
 572:	9f 7e       	andi	r25, 0xEF	; 239
 574:	92 2b       	or	r25, r18
 576:	90 93 42 01 	sts	0x0142, r25
	usartConfiguration.parityError = isBitSet(UCSR0A, UPE0);
 57a:	20 81       	ld	r18, Z
 57c:	26 95       	lsr	r18
 57e:	26 95       	lsr	r18
 580:	21 70       	andi	r18, 0x01	; 1
 582:	32 2f       	mov	r19, r18
 584:	32 95       	swap	r19
 586:	33 0f       	add	r19, r19
 588:	30 7e       	andi	r19, 0xE0	; 224
 58a:	9f 7d       	andi	r25, 0xDF	; 223
 58c:	93 2b       	or	r25, r19
 58e:	90 93 42 01 	sts	0x0142, r25
 592:	82 2b       	or	r24, r18
	return (usartConfiguration.parityError | usartConfiguration.bufferOverflowError | usartConfiguration.frameError);
}
 594:	84 2b       	or	r24, r20
 596:	08 95       	ret

00000598 <usartTransmit>:
/* -----------------------------------------------------------------------------
 * Transmits data in 5, 6, 7 or 8 bits modes using the USART controller
 * -------------------------------------------------------------------------- */

void usartTransmit(int8 data)
{
 598:	98 2f       	mov	r25, r24
	
	while(!usartIsBufferEmpty())
 59a:	80 91 c0 00 	lds	r24, 0x00C0
 59e:	85 ff       	sbrs	r24, 5
 5a0:	fc cf       	rjmp	.-8      	; 0x59a <usartTransmit+0x2>
		;	// Waits until last transmission ends
	UDR0 = data;
 5a2:	90 93 c6 00 	sts	0x00C6, r25
	return;
}
 5a6:	08 95       	ret

000005a8 <usartTransmit9bits>:
/* -----------------------------------------------------------------------------
 * Transmits data in 9 bits mode using the USART controller
 * -------------------------------------------------------------------------- */

void usartTransmit9bits(uint16 data)
{
 5a8:	9c 01       	movw	r18, r24
	uint8 aux;

	while(!usartIsBufferEmpty())
 5aa:	80 91 c0 00 	lds	r24, 0x00C0
 5ae:	85 ff       	sbrs	r24, 5
 5b0:	fc cf       	rjmp	.-8      	; 0x5aa <usartTransmit9bits+0x2>
		;	// Waits until last transmission ends
	aux = ((data & 0x100) >> 8);
	if(aux)
 5b2:	c9 01       	movw	r24, r18
 5b4:	80 70       	andi	r24, 0x00	; 0
 5b6:	91 70       	andi	r25, 0x01	; 1
 5b8:	99 23       	and	r25, r25
 5ba:	21 f0       	breq	.+8      	; 0x5c4 <usartTransmit9bits+0x1c>
		setBit(UCSR0B, TXB80);
 5bc:	80 91 c1 00 	lds	r24, 0x00C1
 5c0:	81 60       	ori	r24, 0x01	; 1
 5c2:	03 c0       	rjmp	.+6      	; 0x5ca <usartTransmit9bits+0x22>
	else
		clrBit(UCSR0B, TXB80);
 5c4:	80 91 c1 00 	lds	r24, 0x00C1
 5c8:	8e 7f       	andi	r24, 0xFE	; 254
 5ca:	80 93 c1 00 	sts	0x00C1, r24
	UDR0 = (uint8)data;
 5ce:	20 93 c6 00 	sts	0x00C6, r18
	return;
}
 5d2:	08 95       	ret

000005d4 <usartTransmitStd>:
 * Transmits data in 5, 6, 7 or 8 bits modes using the USART controller and
 * standard output heandler
 * -------------------------------------------------------------------------- */

int16 usartTransmitStd(int8 data, FILE * stream)
{
 5d4:	98 2f       	mov	r25, r24
	while(!usartIsBufferEmpty())
 5d6:	80 91 c0 00 	lds	r24, 0x00C0
 5da:	85 ff       	sbrs	r24, 5
 5dc:	fc cf       	rjmp	.-8      	; 0x5d6 <usartTransmitStd+0x2>
		;	// Waits until last transmission ends
	UDR0 = data;
 5de:	90 93 c6 00 	sts	0x00C6, r25
	return FALSE;
}
 5e2:	80 e0       	ldi	r24, 0x00	; 0
 5e4:	90 e0       	ldi	r25, 0x00	; 0
 5e6:	08 95       	ret

000005e8 <usartReceive>:

uint8 usartReceive(void)
{
	uint8 status;

	while(!usartIsReceptionComplete())
 5e8:	80 91 c0 00 	lds	r24, 0x00C0
 5ec:	87 ff       	sbrs	r24, 7
 5ee:	fc cf       	rjmp	.-8      	; 0x5e8 <usartReceive>
		;	// Waits until last reception ends
	status = UCSR0A;
 5f0:	90 91 c0 00 	lds	r25, 0x00C0
	usartConfiguration.frameError = isBitSet(status, FE0);
 5f4:	29 2f       	mov	r18, r25
 5f6:	26 95       	lsr	r18
 5f8:	28 70       	andi	r18, 0x08	; 8
 5fa:	80 91 42 01 	lds	r24, 0x0142
 5fe:	87 7e       	andi	r24, 0xE7	; 231
	usartConfiguration.bufferOverflowError = isBitSet(status, DOR0);
 600:	99 0f       	add	r25, r25
 602:	39 2f       	mov	r19, r25
 604:	30 71       	andi	r19, 0x10	; 16
 606:	82 2b       	or	r24, r18
 608:	83 2b       	or	r24, r19
	usartConfiguration.parityError = isBitSet(status, UPE0);
 60a:	99 0f       	add	r25, r25
 60c:	99 0f       	add	r25, r25
 60e:	90 72       	andi	r25, 0x20	; 32
 610:	8f 7d       	andi	r24, 0xDF	; 223
 612:	89 2b       	or	r24, r25
 614:	80 93 42 01 	sts	0x0142, r24
	return UDR0;
 618:	80 91 c6 00 	lds	r24, 0x00C6
}
 61c:	08 95       	ret

0000061e <usartReceive9bits>:
	uint8 status;
	uint8 byteh;
	uint8 bytel;
	uint16 byte;

	while(!usartIsReceptionComplete())
 61e:	80 91 c0 00 	lds	r24, 0x00C0
 622:	87 ff       	sbrs	r24, 7
 624:	fc cf       	rjmp	.-8      	; 0x61e <usartReceive9bits>
		;	// Waits until last reception ends
	status = UCSR0A;
 626:	90 91 c0 00 	lds	r25, 0x00C0
	byteh = UCSR0B;
 62a:	20 91 c1 00 	lds	r18, 0x00C1
	bytel = UDR0;
 62e:	60 91 c6 00 	lds	r22, 0x00C6

	usartConfiguration.frameError = isBitSet(status, FE0);
 632:	49 2f       	mov	r20, r25
 634:	46 95       	lsr	r20
 636:	48 70       	andi	r20, 0x08	; 8
 638:	80 91 42 01 	lds	r24, 0x0142
 63c:	87 7e       	andi	r24, 0xE7	; 231
	usartConfiguration.bufferOverflowError = isBitSet(status, DOR0);
 63e:	99 0f       	add	r25, r25
 640:	59 2f       	mov	r21, r25
 642:	50 71       	andi	r21, 0x10	; 16
 644:	84 2b       	or	r24, r20
 646:	85 2b       	or	r24, r21
	usartConfiguration.parityError = isBitSet(status, UPE0);
 648:	99 0f       	add	r25, r25
 64a:	99 0f       	add	r25, r25
 64c:	90 72       	andi	r25, 0x20	; 32
 64e:	8f 7d       	andi	r24, 0xDF	; 223
 650:	89 2b       	or	r24, r25
 652:	80 93 42 01 	sts	0x0142, r24

	byte = (uint16)(byteh & 0x02) << 7;
 656:	30 e0       	ldi	r19, 0x00	; 0
 658:	22 70       	andi	r18, 0x02	; 2
 65a:	30 70       	andi	r19, 0x00	; 0
 65c:	36 95       	lsr	r19
 65e:	32 2f       	mov	r19, r18
 660:	22 27       	eor	r18, r18
 662:	37 95       	ror	r19
 664:	27 95       	ror	r18
 666:	70 e0       	ldi	r23, 0x00	; 0
 668:	26 2b       	or	r18, r22
 66a:	37 2b       	or	r19, r23
	byte |= bytel;
	return  byte;
}
 66c:	c9 01       	movw	r24, r18
 66e:	08 95       	ret

00000670 <usartReceiveStd>:
 * standard input heandler
 * -------------------------------------------------------------------------- */

int16 usartReceiveStd(FILE * stream)
{
	while(!usartIsReceptionComplete())
 670:	80 91 c0 00 	lds	r24, 0x00C0
 674:	87 ff       	sbrs	r24, 7
 676:	fc cf       	rjmp	.-8      	; 0x670 <usartReceiveStd>
		;	// Waits until last reception ends
	return (int16)UDR0;
 678:	80 91 c6 00 	lds	r24, 0x00C6
}
 67c:	90 e0       	ldi	r25, 0x00	; 0
 67e:	08 95       	ret

00000680 <usartClearReceptionBuffer>:
/* -----------------------------------------------------------------------------
 * Clears the receptor data buffer
 * -------------------------------------------------------------------------- */

void usartClearReceptionBuffer(void)
{
 680:	02 c0       	rjmp	.+4      	; 0x686 <usartClearReceptionBuffer+0x6>
	uint8 aux;
	while(usartIsReceptionComplete())
		aux = UDR0;
 682:	80 91 c6 00 	lds	r24, 0x00C6
 * -------------------------------------------------------------------------- */

void usartClearReceptionBuffer(void)
{
	uint8 aux;
	while(usartIsReceptionComplete())
 686:	80 91 c0 00 	lds	r24, 0x00C0
 68a:	87 fd       	sbrc	r24, 7
 68c:	fa cf       	rjmp	.-12     	; 0x682 <usartClearReceptionBuffer+0x2>
		aux = UDR0;
	return;
}
 68e:	08 95       	ret

00000690 <usartAddDataToReceiverBuffer>:
/* -----------------------------------------------------------------------------
 * Adds data to the reception buffer. The function has NO CONTROL of lost data.
 * -------------------------------------------------------------------------- */

void usartAddDataToReceiverBuffer(uint8 data)
{
 690:	1f 93       	push	r17
 692:	cf 93       	push	r28
 694:	df 93       	push	r29
 696:	18 2f       	mov	r17, r24
	if(((usartReceiverBufferNextWrite + 1) % USART_RECEIVER_BUFFER_SIZE) != usartReceiverBufferNextRead){
 698:	80 91 49 01 	lds	r24, 0x0149
 69c:	c8 2f       	mov	r28, r24
 69e:	d0 e0       	ldi	r29, 0x00	; 0
 6a0:	21 96       	adiw	r28, 0x01	; 1
 6a2:	be 01       	movw	r22, r28
 6a4:	88 27       	eor	r24, r24
 6a6:	77 fd       	sbrc	r23, 7
 6a8:	80 95       	com	r24
 6aa:	98 2f       	mov	r25, r24
 6ac:	21 97       	sbiw	r28, 0x01	; 1
 6ae:	22 e3       	ldi	r18, 0x32	; 50
 6b0:	30 e0       	ldi	r19, 0x00	; 0
 6b2:	40 e0       	ldi	r20, 0x00	; 0
 6b4:	50 e0       	ldi	r21, 0x00	; 0
 6b6:	0e 94 e3 03 	call	0x7c6	; 0x7c6 <__udivmodsi4>
 6ba:	9b 01       	movw	r18, r22
 6bc:	ac 01       	movw	r20, r24
 6be:	80 91 4b 01 	lds	r24, 0x014B
 6c2:	90 e0       	ldi	r25, 0x00	; 0
 6c4:	a0 e0       	ldi	r26, 0x00	; 0
 6c6:	b0 e0       	ldi	r27, 0x00	; 0
 6c8:	28 17       	cp	r18, r24
 6ca:	39 07       	cpc	r19, r25
 6cc:	4a 07       	cpc	r20, r26
 6ce:	5b 07       	cpc	r21, r27
 6d0:	51 f0       	breq	.+20     	; 0x6e6 <usartAddDataToReceiverBuffer+0x56>
		usartReceiverBuffer[usartReceiverBufferNextWrite] = data;
 6d2:	c0 5f       	subi	r28, 0xF0	; 240
 6d4:	de 4f       	sbci	r29, 0xFE	; 254
 6d6:	18 83       	st	Y, r17
		usartReceiverBufferNextWrite = (usartReceiverBufferNextWrite + 1) % USART_RECEIVER_BUFFER_SIZE;
 6d8:	20 93 49 01 	sts	0x0149, r18
		usartReceiverBufferLength++;
 6dc:	80 91 4a 01 	lds	r24, 0x014A
 6e0:	8f 5f       	subi	r24, 0xFF	; 255
 6e2:	80 93 4a 01 	sts	0x014A, r24
	}
	return;
}
 6e6:	df 91       	pop	r29
 6e8:	cf 91       	pop	r28
 6ea:	1f 91       	pop	r17
 6ec:	08 95       	ret

000006ee <usartGetDataFromReceiverBuffer>:
 * usartIsReceiverBufferEmpty() function must be called to check if there is new
 * data in the buffer.
 * -------------------------------------------------------------------------- */

uint8 usartGetDataFromReceiverBuffer(void)
{
 6ee:	0f 93       	push	r16
 6f0:	1f 93       	push	r17
	uint8 data = usartReceiverBuffer[usartReceiverBufferNextRead];
 6f2:	80 91 4b 01 	lds	r24, 0x014B
 6f6:	28 2f       	mov	r18, r24
 6f8:	30 e0       	ldi	r19, 0x00	; 0
 6fa:	f9 01       	movw	r30, r18
 6fc:	e0 5f       	subi	r30, 0xF0	; 240
 6fe:	fe 4f       	sbci	r31, 0xFE	; 254
 700:	00 81       	ld	r16, Z
	if(usartReceiverBufferLength > 0){
 702:	10 91 4a 01 	lds	r17, 0x014A
 706:	11 23       	and	r17, r17
 708:	91 f0       	breq	.+36     	; 0x72e <usartGetDataFromReceiverBuffer+0x40>
		usartReceiverBufferNextRead = (usartReceiverBufferNextRead + 1) % USART_RECEIVER_BUFFER_SIZE;
 70a:	2f 5f       	subi	r18, 0xFF	; 255
 70c:	3f 4f       	sbci	r19, 0xFF	; 255
 70e:	b9 01       	movw	r22, r18
 710:	88 27       	eor	r24, r24
 712:	77 fd       	sbrc	r23, 7
 714:	80 95       	com	r24
 716:	98 2f       	mov	r25, r24
 718:	22 e3       	ldi	r18, 0x32	; 50
 71a:	30 e0       	ldi	r19, 0x00	; 0
 71c:	40 e0       	ldi	r20, 0x00	; 0
 71e:	50 e0       	ldi	r21, 0x00	; 0
 720:	0e 94 e3 03 	call	0x7c6	; 0x7c6 <__udivmodsi4>
 724:	60 93 4b 01 	sts	0x014B, r22
		usartReceiverBufferLength--;
 728:	11 50       	subi	r17, 0x01	; 1
 72a:	10 93 4a 01 	sts	0x014A, r17
	}
	return data;
}
 72e:	80 2f       	mov	r24, r16
 730:	1f 91       	pop	r17
 732:	0f 91       	pop	r16
 734:	08 95       	ret

00000736 <usartIsReceiverBufferEmpty>:
 * Verifies if there is new data in the receiver buffer. Must be called before
 * reading the buffer.
 * -------------------------------------------------------------------------- */

uint8 usartIsReceiverBufferEmpty(void)
{
 736:	90 e0       	ldi	r25, 0x00	; 0
 738:	80 91 4a 01 	lds	r24, 0x014A
 73c:	88 23       	and	r24, r24
 73e:	09 f4       	brne	.+2      	; 0x742 <usartIsReceiverBufferEmpty+0xc>
 740:	91 e0       	ldi	r25, 0x01	; 1
	if(usartReceiverBufferLength == 0)
		return TRUE;
	return FALSE;
}
 742:	89 2f       	mov	r24, r25
 744:	08 95       	ret

00000746 <usartGetCurrentBaudRate>:

 uint32 usartGetCurrentBaudRate(void)
 {
	uint32 aux32 = 0;

	switch(usartConfiguration.mode){
 746:	80 91 42 01 	lds	r24, 0x0142
 74a:	83 70       	andi	r24, 0x03	; 3
 74c:	90 e0       	ldi	r25, 0x00	; 0
 74e:	81 30       	cpi	r24, 0x01	; 1
 750:	91 05       	cpc	r25, r1
 752:	b9 f0       	breq	.+46     	; 0x782 <usartGetCurrentBaudRate+0x3c>
 754:	82 30       	cpi	r24, 0x02	; 2
 756:	91 05       	cpc	r25, r1
 758:	09 f1       	breq	.+66     	; 0x79c <usartGetCurrentBaudRate+0x56>
 75a:	89 2b       	or	r24, r25
 75c:	29 f0       	breq	.+10     	; 0x768 <usartGetCurrentBaudRate+0x22>
 75e:	20 e0       	ldi	r18, 0x00	; 0
 760:	30 e0       	ldi	r19, 0x00	; 0
 762:	40 e0       	ldi	r20, 0x00	; 0
 764:	50 e0       	ldi	r21, 0x00	; 0
 766:	2c c0       	rjmp	.+88     	; 0x7c0 <usartGetCurrentBaudRate+0x7a>
	case 0:
		aux32 = F_CPU / 16 / (UBRR0 + 1);
 768:	20 91 c4 00 	lds	r18, 0x00C4
 76c:	30 91 c5 00 	lds	r19, 0x00C5
 770:	2f 5f       	subi	r18, 0xFF	; 255
 772:	3f 4f       	sbci	r19, 0xFF	; 255
 774:	40 e0       	ldi	r20, 0x00	; 0
 776:	50 e0       	ldi	r21, 0x00	; 0
 778:	60 e4       	ldi	r22, 0x40	; 64
 77a:	72 e4       	ldi	r23, 0x42	; 66
 77c:	8f e0       	ldi	r24, 0x0F	; 15
 77e:	90 e0       	ldi	r25, 0x00	; 0
 780:	19 c0       	rjmp	.+50     	; 0x7b4 <usartGetCurrentBaudRate+0x6e>
		break;
	case 1:
		aux32 = F_CPU / 8 / (UBRR0 + 1);
 782:	20 91 c4 00 	lds	r18, 0x00C4
 786:	30 91 c5 00 	lds	r19, 0x00C5
 78a:	2f 5f       	subi	r18, 0xFF	; 255
 78c:	3f 4f       	sbci	r19, 0xFF	; 255
 78e:	40 e0       	ldi	r20, 0x00	; 0
 790:	50 e0       	ldi	r21, 0x00	; 0
 792:	60 e8       	ldi	r22, 0x80	; 128
 794:	74 e8       	ldi	r23, 0x84	; 132
 796:	8e e1       	ldi	r24, 0x1E	; 30
 798:	90 e0       	ldi	r25, 0x00	; 0
 79a:	0c c0       	rjmp	.+24     	; 0x7b4 <usartGetCurrentBaudRate+0x6e>
		break;
	case 2:
		aux32 = F_CPU / 2 / (UBRR0 + 1);
 79c:	20 91 c4 00 	lds	r18, 0x00C4
 7a0:	30 91 c5 00 	lds	r19, 0x00C5
 7a4:	2f 5f       	subi	r18, 0xFF	; 255
 7a6:	3f 4f       	sbci	r19, 0xFF	; 255
 7a8:	40 e0       	ldi	r20, 0x00	; 0
 7aa:	50 e0       	ldi	r21, 0x00	; 0
 7ac:	60 e0       	ldi	r22, 0x00	; 0
 7ae:	72 e1       	ldi	r23, 0x12	; 18
 7b0:	8a e7       	ldi	r24, 0x7A	; 122
 7b2:	90 e0       	ldi	r25, 0x00	; 0
 7b4:	0e 94 e3 03 	call	0x7c6	; 0x7c6 <__udivmodsi4>
 7b8:	c9 01       	movw	r24, r18
 7ba:	da 01       	movw	r26, r20
 7bc:	9c 01       	movw	r18, r24
 7be:	ad 01       	movw	r20, r26
		break;
	}
	return aux32;
 }
 7c0:	b9 01       	movw	r22, r18
 7c2:	ca 01       	movw	r24, r20
 7c4:	08 95       	ret

000007c6 <__udivmodsi4>:
 7c6:	a1 e2       	ldi	r26, 0x21	; 33
 7c8:	1a 2e       	mov	r1, r26
 7ca:	aa 1b       	sub	r26, r26
 7cc:	bb 1b       	sub	r27, r27
 7ce:	fd 01       	movw	r30, r26
 7d0:	0d c0       	rjmp	.+26     	; 0x7ec <__udivmodsi4_ep>

000007d2 <__udivmodsi4_loop>:
 7d2:	aa 1f       	adc	r26, r26
 7d4:	bb 1f       	adc	r27, r27
 7d6:	ee 1f       	adc	r30, r30
 7d8:	ff 1f       	adc	r31, r31
 7da:	a2 17       	cp	r26, r18
 7dc:	b3 07       	cpc	r27, r19
 7de:	e4 07       	cpc	r30, r20
 7e0:	f5 07       	cpc	r31, r21
 7e2:	20 f0       	brcs	.+8      	; 0x7ec <__udivmodsi4_ep>
 7e4:	a2 1b       	sub	r26, r18
 7e6:	b3 0b       	sbc	r27, r19
 7e8:	e4 0b       	sbc	r30, r20
 7ea:	f5 0b       	sbc	r31, r21

000007ec <__udivmodsi4_ep>:
 7ec:	66 1f       	adc	r22, r22
 7ee:	77 1f       	adc	r23, r23
 7f0:	88 1f       	adc	r24, r24
 7f2:	99 1f       	adc	r25, r25
 7f4:	1a 94       	dec	r1
 7f6:	69 f7       	brne	.-38     	; 0x7d2 <__udivmodsi4_loop>
 7f8:	60 95       	com	r22
 7fa:	70 95       	com	r23
 7fc:	80 95       	com	r24
 7fe:	90 95       	com	r25
 800:	9b 01       	movw	r18, r22
 802:	ac 01       	movw	r20, r24
 804:	bd 01       	movw	r22, r26
 806:	cf 01       	movw	r24, r30
 808:	08 95       	ret

0000080a <_exit>:
 80a:	f8 94       	cli

0000080c <__stop_program>:
 80c:	ff cf       	rjmp	.-2      	; 0x80c <__stop_program>
