
ds1307.elf:     file format elf32-avr

Sections:
Idx Name          Size      VMA       LMA       File off  Algn
  0 .data         00000084  00800100  00001b98  00001c2c  2**0
                  CONTENTS, ALLOC, LOAD, DATA
  1 .text         00001b98  00000000  00000000  00000094  2**1
                  CONTENTS, ALLOC, LOAD, READONLY, CODE
  2 .bss          00000055  00800184  00800184  00001cb0  2**0
                  ALLOC
  3 .debug_aranges 000000a0  00000000  00000000  00001cb0  2**0
                  CONTENTS, READONLY, DEBUGGING
  4 .debug_pubnames 000005c7  00000000  00000000  00001d50  2**0
                  CONTENTS, READONLY, DEBUGGING
  5 .debug_info   00001e14  00000000  00000000  00002317  2**0
                  CONTENTS, READONLY, DEBUGGING
  6 .debug_abbrev 00000803  00000000  00000000  0000412b  2**0
                  CONTENTS, READONLY, DEBUGGING
  7 .debug_line   000013e0  00000000  00000000  0000492e  2**0
                  CONTENTS, READONLY, DEBUGGING
  8 .debug_frame  00000380  00000000  00000000  00005d10  2**2
                  CONTENTS, READONLY, DEBUGGING
  9 .debug_str    000009da  00000000  00000000  00006090  2**0
                  CONTENTS, READONLY, DEBUGGING
 10 .debug_loc    00000942  00000000  00000000  00006a6a  2**0
                  CONTENTS, READONLY, DEBUGGING
 11 .debug_ranges 00000288  00000000  00000000  000073ac  2**0
                  CONTENTS, READONLY, DEBUGGING

Disassembly of section .text:

00000000 <__vectors>:
       0:	0c 94 34 00 	jmp	0x68	; 0x68 <__ctors_end>
       4:	0c 94 7e 00 	jmp	0xfc	; 0xfc <__vector_1>
       8:	0c 94 51 00 	jmp	0xa2	; 0xa2 <__bad_interrupt>
       c:	0c 94 51 00 	jmp	0xa2	; 0xa2 <__bad_interrupt>
      10:	0c 94 51 00 	jmp	0xa2	; 0xa2 <__bad_interrupt>
      14:	0c 94 51 00 	jmp	0xa2	; 0xa2 <__bad_interrupt>
      18:	0c 94 51 00 	jmp	0xa2	; 0xa2 <__bad_interrupt>
      1c:	0c 94 51 00 	jmp	0xa2	; 0xa2 <__bad_interrupt>
      20:	0c 94 51 00 	jmp	0xa2	; 0xa2 <__bad_interrupt>
      24:	0c 94 51 00 	jmp	0xa2	; 0xa2 <__bad_interrupt>
      28:	0c 94 51 00 	jmp	0xa2	; 0xa2 <__bad_interrupt>
      2c:	0c 94 51 00 	jmp	0xa2	; 0xa2 <__bad_interrupt>
      30:	0c 94 51 00 	jmp	0xa2	; 0xa2 <__bad_interrupt>
      34:	0c 94 51 00 	jmp	0xa2	; 0xa2 <__bad_interrupt>
      38:	0c 94 51 00 	jmp	0xa2	; 0xa2 <__bad_interrupt>
      3c:	0c 94 51 00 	jmp	0xa2	; 0xa2 <__bad_interrupt>
      40:	0c 94 51 00 	jmp	0xa2	; 0xa2 <__bad_interrupt>
      44:	0c 94 51 00 	jmp	0xa2	; 0xa2 <__bad_interrupt>
      48:	0c 94 51 00 	jmp	0xa2	; 0xa2 <__bad_interrupt>
      4c:	0c 94 51 00 	jmp	0xa2	; 0xa2 <__bad_interrupt>
      50:	0c 94 51 00 	jmp	0xa2	; 0xa2 <__bad_interrupt>
      54:	0c 94 51 00 	jmp	0xa2	; 0xa2 <__bad_interrupt>
      58:	0c 94 51 00 	jmp	0xa2	; 0xa2 <__bad_interrupt>
      5c:	0c 94 51 00 	jmp	0xa2	; 0xa2 <__bad_interrupt>
      60:	0c 94 aa 05 	jmp	0xb54	; 0xb54 <__vector_24>
      64:	0c 94 51 00 	jmp	0xa2	; 0xa2 <__bad_interrupt>

00000068 <__ctors_end>:
      68:	11 24       	eor	r1, r1
      6a:	1f be       	out	0x3f, r1	; 63
      6c:	cf ef       	ldi	r28, 0xFF	; 255
      6e:	d8 e0       	ldi	r29, 0x08	; 8
      70:	de bf       	out	0x3e, r29	; 62
      72:	cd bf       	out	0x3d, r28	; 61

00000074 <__do_copy_data>:
      74:	11 e0       	ldi	r17, 0x01	; 1
      76:	a0 e0       	ldi	r26, 0x00	; 0
      78:	b1 e0       	ldi	r27, 0x01	; 1
      7a:	e8 e9       	ldi	r30, 0x98	; 152
      7c:	fb e1       	ldi	r31, 0x1B	; 27
      7e:	02 c0       	rjmp	.+4      	; 0x84 <.do_copy_data_start>

00000080 <.do_copy_data_loop>:
      80:	05 90       	lpm	r0, Z+
      82:	0d 92       	st	X+, r0

00000084 <.do_copy_data_start>:
      84:	a4 38       	cpi	r26, 0x84	; 132
      86:	b1 07       	cpc	r27, r17
      88:	d9 f7       	brne	.-10     	; 0x80 <.do_copy_data_loop>

0000008a <__do_clear_bss>:
      8a:	11 e0       	ldi	r17, 0x01	; 1
      8c:	a4 e8       	ldi	r26, 0x84	; 132
      8e:	b1 e0       	ldi	r27, 0x01	; 1
      90:	01 c0       	rjmp	.+2      	; 0x94 <.do_clear_bss_start>

00000092 <.do_clear_bss_loop>:
      92:	1d 92       	st	X+, r1

00000094 <.do_clear_bss_start>:
      94:	a9 3d       	cpi	r26, 0xD9	; 217
      96:	b1 07       	cpc	r27, r17
      98:	e1 f7       	brne	.-8      	; 0x92 <.do_clear_bss_loop>
      9a:	0e 94 8f 00 	call	0x11e	; 0x11e <main>
      9e:	0c 94 ca 0d 	jmp	0x1b94	; 0x1b94 <_exit>

000000a2 <__bad_interrupt>:
      a2:	0c 94 00 00 	jmp	0	; 0x0 <__vectors>

000000a6 <nomeDiaSemana>:
	return 0;
}

char * nomeDiaSemana(uint8 dia)
{
	switch(dia){
      a6:	84 30       	cpi	r24, 0x04	; 4
      a8:	c9 f0       	breq	.+50     	; 0xdc <nomeDiaSemana+0x36>
      aa:	85 30       	cpi	r24, 0x05	; 5
      ac:	38 f4       	brcc	.+14     	; 0xbc <nomeDiaSemana+0x16>
      ae:	82 30       	cpi	r24, 0x02	; 2
      b0:	61 f0       	breq	.+24     	; 0xca <nomeDiaSemana+0x24>
      b2:	83 30       	cpi	r24, 0x03	; 3
      b4:	80 f4       	brcc	.+32     	; 0xd6 <nomeDiaSemana+0x30>
      b6:	81 30       	cpi	r24, 0x01	; 1
      b8:	e9 f4       	brne	.+58     	; 0xf4 <nomeDiaSemana+0x4e>
      ba:	0a c0       	rjmp	.+20     	; 0xd0 <nomeDiaSemana+0x2a>
      bc:	86 30       	cpi	r24, 0x06	; 6
      be:	a1 f0       	breq	.+40     	; 0xe8 <nomeDiaSemana+0x42>
      c0:	86 30       	cpi	r24, 0x06	; 6
      c2:	78 f0       	brcs	.+30     	; 0xe2 <nomeDiaSemana+0x3c>
      c4:	87 30       	cpi	r24, 0x07	; 7
      c6:	b1 f4       	brne	.+44     	; 0xf4 <nomeDiaSemana+0x4e>
      c8:	12 c0       	rjmp	.+36     	; 0xee <nomeDiaSemana+0x48>
      ca:	20 e0       	ldi	r18, 0x00	; 0
      cc:	31 e0       	ldi	r19, 0x01	; 1
      ce:	14 c0       	rjmp	.+40     	; 0xf8 <nomeDiaSemana+0x52>
      d0:	24 e0       	ldi	r18, 0x04	; 4
      d2:	31 e0       	ldi	r19, 0x01	; 1
      d4:	11 c0       	rjmp	.+34     	; 0xf8 <nomeDiaSemana+0x52>
      d6:	28 e0       	ldi	r18, 0x08	; 8
      d8:	31 e0       	ldi	r19, 0x01	; 1
      da:	0e c0       	rjmp	.+28     	; 0xf8 <nomeDiaSemana+0x52>
		case 1: return "dom";
		case 2: return "seg";
		case 3: return "ter";
      dc:	2c e0       	ldi	r18, 0x0C	; 12
      de:	31 e0       	ldi	r19, 0x01	; 1
      e0:	0b c0       	rjmp	.+22     	; 0xf8 <nomeDiaSemana+0x52>
		case 4: return "qua";
      e2:	20 e1       	ldi	r18, 0x10	; 16
      e4:	31 e0       	ldi	r19, 0x01	; 1
      e6:	08 c0       	rjmp	.+16     	; 0xf8 <nomeDiaSemana+0x52>
		case 5: return "qui";
      e8:	24 e1       	ldi	r18, 0x14	; 20
      ea:	31 e0       	ldi	r19, 0x01	; 1
      ec:	05 c0       	rjmp	.+10     	; 0xf8 <nomeDiaSemana+0x52>
		case 6: return "sex";
      ee:	28 e1       	ldi	r18, 0x18	; 24
      f0:	31 e0       	ldi	r19, 0x01	; 1
      f2:	02 c0       	rjmp	.+4      	; 0xf8 <nomeDiaSemana+0x52>
		case 7: return "sab";
      f4:	20 e0       	ldi	r18, 0x00	; 0
      f6:	30 e0       	ldi	r19, 0x00	; 0
	}
	return NULL;
}
      f8:	c9 01       	movw	r24, r18
      fa:	08 95       	ret

000000fc <__vector_1>:

ISR(INT0_vect)
{
      fc:	1f 92       	push	r1
      fe:	0f 92       	push	r0
     100:	0f b6       	in	r0, 0x3f	; 63
     102:	0f 92       	push	r0
     104:	11 24       	eor	r1, r1
     106:	8f 93       	push	r24
	systemFlags.updateRtc = 1;
     108:	80 91 8b 01 	lds	r24, 0x018B
     10c:	81 60       	ori	r24, 0x01	; 1
     10e:	80 93 8b 01 	sts	0x018B, r24
}
     112:	8f 91       	pop	r24
     114:	0f 90       	pop	r0
     116:	0f be       	out	0x3f, r0	; 63
     118:	0f 90       	pop	r0
     11a:	1f 90       	pop	r1
     11c:	18 95       	reti

0000011e <main>:
// Global variables
volatile systemFlags_t systemFlags;

// main function
int main()
{
     11e:	2f 92       	push	r2
     120:	3f 92       	push	r3
     122:	4f 92       	push	r4
     124:	5f 92       	push	r5
     126:	6f 92       	push	r6
     128:	7f 92       	push	r7
     12a:	8f 92       	push	r8
     12c:	9f 92       	push	r9
     12e:	af 92       	push	r10
     130:	bf 92       	push	r11
     132:	cf 92       	push	r12
     134:	df 92       	push	r13
     136:	ef 92       	push	r14
     138:	ff 92       	push	r15
     13a:	0f 93       	push	r16
     13c:	1f 93       	push	r17
     13e:	df 93       	push	r29
     140:	cf 93       	push	r28
     142:	cd b7       	in	r28, 0x3d	; 61
     144:	de b7       	in	r29, 0x3e	; 62
     146:	28 97       	sbiw	r28, 0x08	; 8
     148:	0f b6       	in	r0, 0x3f	; 63
     14a:	f8 94       	cli
     14c:	de bf       	out	0x3e, r29	; 62
     14e:	0f be       	out	0x3f, r0	; 63
     150:	cd bf       	out	0x3d, r28	; 61
	// Variable declaration
	uint8 hora, minuto, segundo, dia, mes, ano, diaSemana, modo;

	// VAriable initialization
	systemFlags.updateRtc = 0;
     152:	80 91 8b 01 	lds	r24, 0x018B
     156:	8e 7f       	andi	r24, 0xFE	; 254
     158:	80 93 8b 01 	sts	0x018B, r24

	// LCD configuration
	lcdInit();
     15c:	0e 94 98 09 	call	0x1330	; 0x1330 <lcdInit>
	lcdStdio();
     160:	86 e7       	ldi	r24, 0x76	; 118
     162:	91 e0       	ldi	r25, 0x01	; 1
     164:	90 93 d8 01 	sts	0x01D8, r25
     168:	80 93 d7 01 	sts	0x01D7, r24
     16c:	90 93 d6 01 	sts	0x01D6, r25
     170:	80 93 d5 01 	sts	0x01D5, r24
     174:	90 93 d4 01 	sts	0x01D4, r25
     178:	80 93 d3 01 	sts	0x01D3, r24
	printf("  DS1307 - RTC  \n");
     17c:	8c e1       	ldi	r24, 0x1C	; 28
     17e:	91 e0       	ldi	r25, 0x01	; 1
     180:	0e 94 e1 0a 	call	0x15c2	; 0x15c2 <puts>
	printf("v1.0 sei la o que\n");
     184:	8d e2       	ldi	r24, 0x2D	; 45
     186:	91 e0       	ldi	r25, 0x01	; 1
     188:	0e 94 e1 0a 	call	0x15c2	; 0x15c2 <puts>

	// DS1307 configuration
	setBit(DDRC, PC4);
     18c:	3c 9a       	sbi	0x07, 4	; 7
	setBit(DDRC, PC5);
     18e:	3d 9a       	sbi	0x07, 5	; 7
	i2cMasterInit();
     190:	0e 94 39 05 	call	0xa72	; 0xa72 <i2cMasterInit>
	sei();
     194:	78 94       	sei
	ds1307EnableClock();
     196:	80 e0       	ldi	r24, 0x00	; 0
     198:	0e 94 a1 02 	call	0x542	; 0x542 <ds1307Read>
     19c:	80 91 8c 01 	lds	r24, 0x018C
     1a0:	80 61       	ori	r24, 0x10	; 16
     1a2:	80 93 8c 01 	sts	0x018C, r24
     1a6:	90 91 8e 01 	lds	r25, 0x018E
     1aa:	99 1f       	adc	r25, r25
     1ac:	99 27       	eor	r25, r25
     1ae:	99 1f       	adc	r25, r25
     1b0:	80 91 8f 01 	lds	r24, 0x018F
     1b4:	8f 71       	andi	r24, 0x1F	; 31
     1b6:	88 0f       	add	r24, r24
     1b8:	89 2b       	or	r24, r25
     1ba:	60 e0       	ldi	r22, 0x00	; 0
     1bc:	0e 94 9d 01 	call	0x33a	; 0x33a <ds1307Write>
	ds1307SquareWave1Hz();
     1c0:	87 e0       	ldi	r24, 0x07	; 7
     1c2:	0e 94 a1 02 	call	0x542	; 0x542 <ds1307Read>
     1c6:	80 91 8c 01 	lds	r24, 0x018C
     1ca:	81 60       	ori	r24, 0x01	; 1
     1cc:	83 7f       	andi	r24, 0xF3	; 243
     1ce:	80 93 8c 01 	sts	0x018C, r24
     1d2:	86 95       	lsr	r24
     1d4:	81 70       	andi	r24, 0x01	; 1
     1d6:	90 e0       	ldi	r25, 0x00	; 0
     1d8:	96 95       	lsr	r25
     1da:	98 2f       	mov	r25, r24
     1dc:	88 27       	eor	r24, r24
     1de:	97 95       	ror	r25
     1e0:	87 95       	ror	r24
     1e2:	80 61       	ori	r24, 0x10	; 16
     1e4:	67 e0       	ldi	r22, 0x07	; 7
     1e6:	0e 94 9d 01 	call	0x33a	; 0x33a <ds1307Write>

	// INT0 configuration
	int0PullUpEnable();
     1ea:	5a 9a       	sbi	0x0b, 2	; 11
	int0DDRConfigure();
     1ec:	52 98       	cbi	0x0a, 2	; 10
	int0SenseRisingEdge();
     1ee:	80 91 69 00 	lds	r24, 0x0069
     1f2:	82 60       	ori	r24, 0x02	; 2
     1f4:	80 93 69 00 	sts	0x0069, r24
     1f8:	80 91 69 00 	lds	r24, 0x0069
     1fc:	81 60       	ori	r24, 0x01	; 1
     1fe:	80 93 69 00 	sts	0x0069, r24
	int0ClearInterruptRequest();
     202:	e0 9a       	sbi	0x1c, 0	; 28
	int0ActivateInterrupt();
     204:	e8 9a       	sbi	0x1d, 0	; 29

	// Button configuration
	setBit(PORTD, PD6);
     206:	5e 9a       	sbi	0x0b, 6	; 11
	clrBit(DDRD, PD6);
     208:	56 98       	cbi	0x0a, 6	; 10

	while(1){

		// Update RTC
		if(systemFlags.updateRtc){
			ds1307GetDate(&ano, &mes, &dia, &diaSemana);
     20a:	54 e0       	ldi	r21, 0x04	; 4
     20c:	25 2e       	mov	r2, r21
     20e:	31 2c       	mov	r3, r1
     210:	2c 0e       	add	r2, r28
     212:	3d 1e       	adc	r3, r29
     214:	47 e0       	ldi	r20, 0x07	; 7
     216:	44 2e       	mov	r4, r20
     218:	51 2c       	mov	r5, r1
     21a:	4c 0e       	add	r4, r28
     21c:	5d 1e       	adc	r5, r29
			ds1307GetTime(&hora, &minuto, &segundo, &modo);
     21e:	32 e0       	ldi	r19, 0x02	; 2
     220:	63 2e       	mov	r6, r19
     222:	71 2c       	mov	r7, r1
     224:	6c 0e       	add	r6, r28
     226:	7d 1e       	adc	r7, r29
     228:	23 e0       	ldi	r18, 0x03	; 3
     22a:	82 2e       	mov	r8, r18
     22c:	91 2c       	mov	r9, r1
     22e:	8c 0e       	add	r8, r28
     230:	9d 1e       	adc	r9, r29
     232:	98 e0       	ldi	r25, 0x08	; 8
     234:	a9 2e       	mov	r10, r25
     236:	b1 2c       	mov	r11, r1
     238:	ac 0e       	add	r10, r28
     23a:	bd 1e       	adc	r11, r29
     23c:	6e 01       	movw	r12, r28
     23e:	08 94       	sec
     240:	c1 1c       	adc	r12, r1
     242:	d1 1c       	adc	r13, r1
			lcdClearScreen();
			printf("%02d/%02d/20%02d %s\n", dia, mes, ano, nomeDiaSemana(diaSemana));
     244:	8f e3       	ldi	r24, 0x3F	; 63
     246:	e8 2e       	mov	r14, r24
     248:	81 e0       	ldi	r24, 0x01	; 1
     24a:	f8 2e       	mov	r15, r24
			printf("%02d:%02d:%02d %d\n", hora, minuto, segundo, modo);
     24c:	04 e5       	ldi	r16, 0x54	; 84
     24e:	11 e0       	ldi	r17, 0x01	; 1
	clrBit(DDRD, PD6);

	while(1){

		// Update RTC
		if(systemFlags.updateRtc){
     250:	80 91 8b 01 	lds	r24, 0x018B
     254:	80 ff       	sbrs	r24, 0
     256:	5b c0       	rjmp	.+182    	; 0x30e <main+0x1f0>
			ds1307GetDate(&ano, &mes, &dia, &diaSemana);
     258:	ce 01       	movw	r24, r28
     25a:	06 96       	adiw	r24, 0x06	; 6
     25c:	be 01       	movw	r22, r28
     25e:	6b 5f       	subi	r22, 0xFB	; 251
     260:	7f 4f       	sbci	r23, 0xFF	; 255
     262:	a1 01       	movw	r20, r2
     264:	92 01       	movw	r18, r4
     266:	0e 94 6d 04 	call	0x8da	; 0x8da <ds1307GetDate>
			ds1307GetTime(&hora, &minuto, &segundo, &modo);
     26a:	c6 01       	movw	r24, r12
     26c:	b3 01       	movw	r22, r6
     26e:	a4 01       	movw	r20, r8
     270:	95 01       	movw	r18, r10
     272:	0e 94 33 04 	call	0x866	; 0x866 <ds1307GetTime>
			lcdClearScreen();
     276:	10 92 d1 01 	sts	0x01D1, r1
     27a:	81 e0       	ldi	r24, 0x01	; 1
     27c:	0e 94 71 09 	call	0x12e2	; 0x12e2 <lcdCommand>
			printf("%02d/%02d/20%02d %s\n", dia, mes, ano, nomeDiaSemana(diaSemana));
     280:	8f 81       	ldd	r24, Y+7	; 0x07
     282:	0e 94 53 00 	call	0xa6	; 0xa6 <nomeDiaSemana>
     286:	2d b7       	in	r18, 0x3d	; 61
     288:	3e b7       	in	r19, 0x3e	; 62
     28a:	2a 50       	subi	r18, 0x0A	; 10
     28c:	30 40       	sbci	r19, 0x00	; 0
     28e:	0f b6       	in	r0, 0x3f	; 63
     290:	f8 94       	cli
     292:	3e bf       	out	0x3e, r19	; 62
     294:	0f be       	out	0x3f, r0	; 63
     296:	2d bf       	out	0x3d, r18	; 61
     298:	ed b7       	in	r30, 0x3d	; 61
     29a:	fe b7       	in	r31, 0x3e	; 62
     29c:	31 96       	adiw	r30, 0x01	; 1
     29e:	ad b7       	in	r26, 0x3d	; 61
     2a0:	be b7       	in	r27, 0x3e	; 62
     2a2:	12 96       	adiw	r26, 0x02	; 2
     2a4:	fc 92       	st	X, r15
     2a6:	ee 92       	st	-X, r14
     2a8:	11 97       	sbiw	r26, 0x01	; 1
     2aa:	2c 81       	ldd	r18, Y+4	; 0x04
     2ac:	22 83       	std	Z+2, r18	; 0x02
     2ae:	13 82       	std	Z+3, r1	; 0x03
     2b0:	2d 81       	ldd	r18, Y+5	; 0x05
     2b2:	24 83       	std	Z+4, r18	; 0x04
     2b4:	15 82       	std	Z+5, r1	; 0x05
     2b6:	2e 81       	ldd	r18, Y+6	; 0x06
     2b8:	26 83       	std	Z+6, r18	; 0x06
     2ba:	17 82       	std	Z+7, r1	; 0x07
     2bc:	91 87       	std	Z+9, r25	; 0x09
     2be:	80 87       	std	Z+8, r24	; 0x08
     2c0:	0e 94 cc 0a 	call	0x1598	; 0x1598 <printf>
			printf("%02d:%02d:%02d %d\n", hora, minuto, segundo, modo);
     2c4:	ed b7       	in	r30, 0x3d	; 61
     2c6:	fe b7       	in	r31, 0x3e	; 62
     2c8:	31 96       	adiw	r30, 0x01	; 1
     2ca:	ad b7       	in	r26, 0x3d	; 61
     2cc:	be b7       	in	r27, 0x3e	; 62
     2ce:	12 96       	adiw	r26, 0x02	; 2
     2d0:	1c 93       	st	X, r17
     2d2:	0e 93       	st	-X, r16
     2d4:	11 97       	sbiw	r26, 0x01	; 1
     2d6:	89 81       	ldd	r24, Y+1	; 0x01
     2d8:	82 83       	std	Z+2, r24	; 0x02
     2da:	13 82       	std	Z+3, r1	; 0x03
     2dc:	8a 81       	ldd	r24, Y+2	; 0x02
     2de:	84 83       	std	Z+4, r24	; 0x04
     2e0:	15 82       	std	Z+5, r1	; 0x05
     2e2:	8b 81       	ldd	r24, Y+3	; 0x03
     2e4:	86 83       	std	Z+6, r24	; 0x06
     2e6:	17 82       	std	Z+7, r1	; 0x07
     2e8:	88 85       	ldd	r24, Y+8	; 0x08
     2ea:	80 87       	std	Z+8, r24	; 0x08
     2ec:	11 86       	std	Z+9, r1	; 0x09
     2ee:	0e 94 cc 0a 	call	0x1598	; 0x1598 <printf>
			systemFlags.updateRtc = 0;
     2f2:	80 91 8b 01 	lds	r24, 0x018B
     2f6:	8e 7f       	andi	r24, 0xFE	; 254
     2f8:	80 93 8b 01 	sts	0x018B, r24
     2fc:	2d b7       	in	r18, 0x3d	; 61
     2fe:	3e b7       	in	r19, 0x3e	; 62
     300:	26 5f       	subi	r18, 0xF6	; 246
     302:	3f 4f       	sbci	r19, 0xFF	; 255
     304:	0f b6       	in	r0, 0x3f	; 63
     306:	f8 94       	cli
     308:	3e bf       	out	0x3e, r19	; 62
     30a:	0f be       	out	0x3f, r0	; 63
     30c:	2d bf       	out	0x3d, r18	; 61
		}
		// Read button
		if(isBitClr(PIND, PD6)){
     30e:	4e 99       	sbic	0x09, 6	; 9
     310:	9f cf       	rjmp	.-194    	; 0x250 <main+0x132>
			ds1307SetDate(2, 2, 18, 2);
     312:	82 e0       	ldi	r24, 0x02	; 2
     314:	62 e0       	ldi	r22, 0x02	; 2
     316:	42 e1       	ldi	r20, 0x12	; 18
     318:	22 e0       	ldi	r18, 0x02	; 2
     31a:	0e 94 5e 02 	call	0x4bc	; 0x4bc <ds1307SetDate>
			ds1307SetTime(15, 23, 41, DS1307_24);
     31e:	8f e0       	ldi	r24, 0x0F	; 15
     320:	67 e1       	ldi	r22, 0x17	; 23
     322:	49 e2       	ldi	r20, 0x29	; 41
     324:	20 e0       	ldi	r18, 0x00	; 0
     326:	0e 94 ae 04 	call	0x95c	; 0x95c <ds1307SetTime>
			waitUntilBitIsSet(PIND, PD6);
     32a:	4e 9b       	sbis	0x09, 6	; 9
     32c:	fe cf       	rjmp	.-4      	; 0x32a <main+0x20c>
			systemFlags.updateRtc = 1;
     32e:	80 91 8b 01 	lds	r24, 0x018B
     332:	81 60       	ori	r24, 0x01	; 1
     334:	80 93 8b 01 	sts	0x018B, r24
     338:	8b cf       	rjmp	.-234    	; 0x250 <main+0x132>

0000033a <ds1307Write>:
/* -----------------------------------------------------------------------------
 * Writes the data at the given address.
 * -------------------------------------------------------------------------- */

void ds1307Write(uint8 data, uint8 address)
{
     33a:	df 93       	push	r29
     33c:	cf 93       	push	r28
     33e:	00 d0       	rcall	.+0      	; 0x340 <ds1307Write+0x6>
     340:	cd b7       	in	r28, 0x3d	; 61
     342:	de b7       	in	r29, 0x3e	; 62
     344:	48 2f       	mov	r20, r24
     346:	56 2f       	mov	r21, r22
	uint8 aux[2];

	// Codifies the data to be written
	switch(address){
     348:	63 30       	cpi	r22, 0x03	; 3
     34a:	09 f4       	brne	.+2      	; 0x34e <ds1307Write+0x14>
     34c:	63 c0       	rjmp	.+198    	; 0x414 <ds1307Write+0xda>
     34e:	64 30       	cpi	r22, 0x04	; 4
     350:	38 f4       	brcc	.+14     	; 0x360 <ds1307Write+0x26>
     352:	61 30       	cpi	r22, 0x01	; 1
     354:	b1 f1       	breq	.+108    	; 0x3c2 <ds1307Write+0x88>
     356:	e0 91 8c 01 	lds	r30, 0x018C
     35a:	62 30       	cpi	r22, 0x02	; 2
     35c:	d8 f5       	brcc	.+118    	; 0x3d4 <ds1307Write+0x9a>
     35e:	0a c0       	rjmp	.+20     	; 0x374 <ds1307Write+0x3a>
     360:	65 30       	cpi	r22, 0x05	; 5
     362:	09 f4       	brne	.+2      	; 0x366 <ds1307Write+0x2c>
     364:	6a c0       	rjmp	.+212    	; 0x43a <ds1307Write+0x100>
     366:	65 30       	cpi	r22, 0x05	; 5
     368:	08 f4       	brcc	.+2      	; 0x36c <ds1307Write+0x32>
     36a:	5f c0       	rjmp	.+190    	; 0x42a <ds1307Write+0xf0>
     36c:	66 30       	cpi	r22, 0x06	; 6
     36e:	09 f0       	breq	.+2      	; 0x372 <ds1307Write+0x38>
     370:	92 c0       	rjmp	.+292    	; 0x496 <ds1307Write+0x15c>
     372:	6c c0       	rjmp	.+216    	; 0x44c <ds1307Write+0x112>
	case DS1307_ADDRESS_SECONDS:
		ds1307Data.seconds = data;
     374:	98 2f       	mov	r25, r24
     376:	97 95       	ror	r25
     378:	99 27       	eor	r25, r25
     37a:	97 95       	ror	r25
     37c:	80 91 8e 01 	lds	r24, 0x018E
     380:	8f 77       	andi	r24, 0x7F	; 127
     382:	89 2b       	or	r24, r25
     384:	80 93 8e 01 	sts	0x018E, r24
     388:	94 2f       	mov	r25, r20
     38a:	96 95       	lsr	r25
     38c:	9f 71       	andi	r25, 0x1F	; 31
     38e:	80 91 8f 01 	lds	r24, 0x018F
     392:	80 7e       	andi	r24, 0xE0	; 224
     394:	89 2b       	or	r24, r25
     396:	80 93 8f 01 	sts	0x018F, r24
		data = ((data / 10) << 4) | (data % 10);
     39a:	84 2f       	mov	r24, r20
     39c:	6a e0       	ldi	r22, 0x0A	; 10
     39e:	0e 94 9e 0a 	call	0x153c	; 0x153c <__udivmodqi4>
     3a2:	28 2f       	mov	r18, r24
     3a4:	30 e0       	ldi	r19, 0x00	; 0
     3a6:	74 e0       	ldi	r23, 0x04	; 4
     3a8:	22 0f       	add	r18, r18
     3aa:	33 1f       	adc	r19, r19
     3ac:	7a 95       	dec	r23
     3ae:	e1 f7       	brne	.-8      	; 0x3a8 <ds1307Write+0x6e>
     3b0:	84 2f       	mov	r24, r20
     3b2:	0e 94 9e 0a 	call	0x153c	; 0x153c <__udivmodqi4>
     3b6:	49 2f       	mov	r20, r25
     3b8:	42 2b       	or	r20, r18
		if(ds1307Control.oscillatorEnable == 0)
     3ba:	e4 fd       	sbrc	r30, 4
     3bc:	6c c0       	rjmp	.+216    	; 0x496 <ds1307Write+0x15c>
			data |= 0x80;
     3be:	40 68       	ori	r20, 0x80	; 128
     3c0:	6a c0       	rjmp	.+212    	; 0x496 <ds1307Write+0x15c>
		break;
	case DS1307_ADDRESS_MINUTES:
		ds1307Data.minutes = data;
     3c2:	8f 73       	andi	r24, 0x3F	; 63
     3c4:	88 0f       	add	r24, r24
     3c6:	90 91 8e 01 	lds	r25, 0x018E
     3ca:	91 78       	andi	r25, 0x81	; 129
     3cc:	98 2b       	or	r25, r24
     3ce:	90 93 8e 01 	sts	0x018E, r25
     3d2:	51 c0       	rjmp	.+162    	; 0x476 <ds1307Write+0x13c>
		data = ((data / 10) << 4) | (data % 10);
		break;
	case DS1307_ADDRESS_HOURS:
		ds1307Data.hours = data;
     3d4:	8f 71       	andi	r24, 0x1F	; 31
     3d6:	90 91 8d 01 	lds	r25, 0x018D
     3da:	90 7e       	andi	r25, 0xE0	; 224
     3dc:	98 2b       	or	r25, r24
     3de:	90 93 8d 01 	sts	0x018D, r25
		data = ((data / 10) << 4) | (data % 10);
     3e2:	84 2f       	mov	r24, r20
     3e4:	6a e0       	ldi	r22, 0x0A	; 10
     3e6:	0e 94 9e 0a 	call	0x153c	; 0x153c <__udivmodqi4>
     3ea:	28 2f       	mov	r18, r24
     3ec:	30 e0       	ldi	r19, 0x00	; 0
     3ee:	94 e0       	ldi	r25, 0x04	; 4
     3f0:	22 0f       	add	r18, r18
     3f2:	33 1f       	adc	r19, r19
     3f4:	9a 95       	dec	r25
     3f6:	e1 f7       	brne	.-8      	; 0x3f0 <ds1307Write+0xb6>
     3f8:	84 2f       	mov	r24, r20
     3fa:	0e 94 9e 0a 	call	0x153c	; 0x153c <__udivmodqi4>
     3fe:	49 2f       	mov	r20, r25
     400:	42 2b       	or	r20, r18
		if(ds1307Control.mode12h24h == 1)	// 12 hour-mode
     402:	e5 ff       	sbrs	r30, 5
     404:	48 c0       	rjmp	.+144    	; 0x496 <ds1307Write+0x15c>
		{
			data |= 0x40;
     406:	40 64       	ori	r20, 0x40	; 64
			if(ds1307Data.amPm == 1)	// PM
     408:	80 91 8e 01 	lds	r24, 0x018E
     40c:	80 ff       	sbrs	r24, 0
     40e:	43 c0       	rjmp	.+134    	; 0x496 <ds1307Write+0x15c>
				data |= 0x20;
     410:	40 62       	ori	r20, 0x20	; 32
     412:	41 c0       	rjmp	.+130    	; 0x496 <ds1307Write+0x15c>
		}
		break;
	case DS1307_ADDRESS_WEEK_DAY:
		ds1307Data.weekDay = data;
     414:	98 2f       	mov	r25, r24
     416:	92 95       	swap	r25
     418:	99 0f       	add	r25, r25
     41a:	90 7e       	andi	r25, 0xE0	; 224
     41c:	80 91 8d 01 	lds	r24, 0x018D
     420:	8f 71       	andi	r24, 0x1F	; 31
     422:	89 2b       	or	r24, r25
     424:	80 93 8d 01 	sts	0x018D, r24
     428:	36 c0       	rjmp	.+108    	; 0x496 <ds1307Write+0x15c>
		break;
	case DS1307_ADDRESS_MONTH_DAY:
		ds1307Data.monthDay = data;
     42a:	8f 71       	andi	r24, 0x1F	; 31
     42c:	90 91 91 01 	lds	r25, 0x0191
     430:	90 7e       	andi	r25, 0xE0	; 224
     432:	98 2b       	or	r25, r24
     434:	90 93 91 01 	sts	0x0191, r25
     438:	1e c0       	rjmp	.+60     	; 0x476 <ds1307Write+0x13c>
		data = ((data / 10) << 4) | (data % 10);
		break;
	case DS1307_ADDRESS_MONTH:
		ds1307Data.month = data;
     43a:	82 95       	swap	r24
     43c:	80 7f       	andi	r24, 0xF0	; 240
     43e:	90 91 90 01 	lds	r25, 0x0190
     442:	9f 70       	andi	r25, 0x0F	; 15
     444:	98 2b       	or	r25, r24
     446:	90 93 90 01 	sts	0x0190, r25
     44a:	15 c0       	rjmp	.+42     	; 0x476 <ds1307Write+0x13c>
		data = ((data / 10) << 4) | (data % 10);
		break;
	case DS1307_ADDRESS_YEAR:
		ds1307Data.year = data;
     44c:	98 2f       	mov	r25, r24
     44e:	92 95       	swap	r25
     450:	99 0f       	add	r25, r25
     452:	90 7e       	andi	r25, 0xE0	; 224
     454:	80 91 8f 01 	lds	r24, 0x018F
     458:	8f 71       	andi	r24, 0x1F	; 31
     45a:	89 2b       	or	r24, r25
     45c:	80 93 8f 01 	sts	0x018F, r24
     460:	94 2f       	mov	r25, r20
     462:	96 95       	lsr	r25
     464:	96 95       	lsr	r25
     466:	96 95       	lsr	r25
     468:	9f 70       	andi	r25, 0x0F	; 15
     46a:	80 91 90 01 	lds	r24, 0x0190
     46e:	80 7f       	andi	r24, 0xF0	; 240
     470:	89 2b       	or	r24, r25
     472:	80 93 90 01 	sts	0x0190, r24
		data = ((data / 10) << 4) | (data % 10);
     476:	84 2f       	mov	r24, r20
     478:	6a e0       	ldi	r22, 0x0A	; 10
     47a:	0e 94 9e 0a 	call	0x153c	; 0x153c <__udivmodqi4>
     47e:	28 2f       	mov	r18, r24
     480:	30 e0       	ldi	r19, 0x00	; 0
     482:	84 e0       	ldi	r24, 0x04	; 4
     484:	22 0f       	add	r18, r18
     486:	33 1f       	adc	r19, r19
     488:	8a 95       	dec	r24
     48a:	e1 f7       	brne	.-8      	; 0x484 <ds1307Write+0x14a>
     48c:	84 2f       	mov	r24, r20
     48e:	0e 94 9e 0a 	call	0x153c	; 0x153c <__udivmodqi4>
     492:	49 2f       	mov	r20, r25
     494:	42 2b       	or	r20, r18
		break;
	}

	aux[0] = address;
     496:	59 83       	std	Y+1, r21	; 0x01
	aux[1] = data;
     498:	4a 83       	std	Y+2, r20	; 0x02
	i2cMasterSendData(DS1307_I2C_ADDRESS, I2C_WRITE, aux, 2);
     49a:	88 e6       	ldi	r24, 0x68	; 104
     49c:	60 e0       	ldi	r22, 0x00	; 0
     49e:	ae 01       	movw	r20, r28
     4a0:	4f 5f       	subi	r20, 0xFF	; 255
     4a2:	5f 4f       	sbci	r21, 0xFF	; 255
     4a4:	22 e0       	ldi	r18, 0x02	; 2
     4a6:	0e 94 4f 05 	call	0xa9e	; 0xa9e <i2cMasterSendData>
	return;
}
     4aa:	0f 90       	pop	r0
     4ac:	0f 90       	pop	r0
     4ae:	cf 91       	pop	r28
     4b0:	df 91       	pop	r29
     4b2:	08 95       	ret

000004b4 <ds1307SetRamData>:
 * Writes the given data at the posion of the internal RAM.
 * -------------------------------------------------------------------------- */

void ds1307SetRamData(uint8 data, uint8 position)
{
	ds1307Write(data, DS1307_ADDRESS_RAM + position);
     4b4:	68 5f       	subi	r22, 0xF8	; 248
     4b6:	0e 94 9d 01 	call	0x33a	; 0x33a <ds1307Write>
	return;
}
     4ba:	08 95       	ret

000004bc <ds1307SetDate>:
/* -----------------------------------------------------------------------------
 * Sets the given date.
 * -------------------------------------------------------------------------- */

void ds1307SetDate(uint8 year, uint8 month, uint8 monthDay, uint8 weekDay)
{
     4bc:	0f 93       	push	r16
     4be:	1f 93       	push	r17
	ds1307Data.year = year;
     4c0:	38 2f       	mov	r19, r24
     4c2:	3f 77       	andi	r19, 0x7F	; 127
     4c4:	82 95       	swap	r24
     4c6:	88 0f       	add	r24, r24
     4c8:	80 7e       	andi	r24, 0xE0	; 224
     4ca:	90 91 8f 01 	lds	r25, 0x018F
     4ce:	9f 71       	andi	r25, 0x1F	; 31
     4d0:	98 2b       	or	r25, r24
     4d2:	90 93 8f 01 	sts	0x018F, r25
	ds1307Data.month = month;
     4d6:	62 95       	swap	r22
     4d8:	60 7f       	andi	r22, 0xF0	; 240
     4da:	83 2f       	mov	r24, r19
     4dc:	86 95       	lsr	r24
     4de:	86 95       	lsr	r24
     4e0:	86 95       	lsr	r24
     4e2:	86 2b       	or	r24, r22
     4e4:	80 93 90 01 	sts	0x0190, r24
	ds1307Data.monthDay = monthDay;
     4e8:	4f 71       	andi	r20, 0x1F	; 31
     4ea:	80 91 91 01 	lds	r24, 0x0191
     4ee:	80 7e       	andi	r24, 0xE0	; 224
     4f0:	84 2b       	or	r24, r20
     4f2:	80 93 91 01 	sts	0x0191, r24
	ds1307Data.weekDay = weekDay;
     4f6:	0d e8       	ldi	r16, 0x8D	; 141
     4f8:	11 e0       	ldi	r17, 0x01	; 1
     4fa:	22 95       	swap	r18
     4fc:	22 0f       	add	r18, r18
     4fe:	20 7e       	andi	r18, 0xE0	; 224
     500:	f8 01       	movw	r30, r16
     502:	80 81       	ld	r24, Z
     504:	8f 71       	andi	r24, 0x1F	; 31
     506:	82 2b       	or	r24, r18
     508:	80 83       	st	Z, r24
	ds1307Write(ds1307Data.year, DS1307_ADDRESS_YEAR);
     50a:	83 2f       	mov	r24, r19
     50c:	66 e0       	ldi	r22, 0x06	; 6
     50e:	0e 94 9d 01 	call	0x33a	; 0x33a <ds1307Write>
	ds1307Write(ds1307Data.month, DS1307_ADDRESS_MONTH);
     512:	80 91 90 01 	lds	r24, 0x0190
     516:	82 95       	swap	r24
     518:	8f 70       	andi	r24, 0x0F	; 15
     51a:	65 e0       	ldi	r22, 0x05	; 5
     51c:	0e 94 9d 01 	call	0x33a	; 0x33a <ds1307Write>
	ds1307Write(ds1307Data.monthDay, DS1307_ADDRESS_MONTH_DAY);
     520:	80 91 91 01 	lds	r24, 0x0191
     524:	8f 71       	andi	r24, 0x1F	; 31
     526:	64 e0       	ldi	r22, 0x04	; 4
     528:	0e 94 9d 01 	call	0x33a	; 0x33a <ds1307Write>
	ds1307Write(ds1307Data.weekDay, DS1307_ADDRESS_WEEK_DAY);
     52c:	f8 01       	movw	r30, r16
     52e:	80 81       	ld	r24, Z
     530:	82 95       	swap	r24
     532:	86 95       	lsr	r24
     534:	87 70       	andi	r24, 0x07	; 7
     536:	63 e0       	ldi	r22, 0x03	; 3
     538:	0e 94 9d 01 	call	0x33a	; 0x33a <ds1307Write>
	return;
}
     53c:	1f 91       	pop	r17
     53e:	0f 91       	pop	r16
     540:	08 95       	ret

00000542 <ds1307Read>:
/* -----------------------------------------------------------------------------
 * Reads the data at the DS1307, returns it and stores at DS1307_data bitfield.
 * -------------------------------------------------------------------------- */

uint8 ds1307Read(uint8 address)
{
     542:	ef 92       	push	r14
     544:	ff 92       	push	r15
     546:	0f 93       	push	r16
     548:	1f 93       	push	r17
     54a:	df 93       	push	r29
     54c:	cf 93       	push	r28
     54e:	00 d0       	rcall	.+0      	; 0x550 <ds1307Read+0xe>
     550:	00 d0       	rcall	.+0      	; 0x552 <ds1307Read+0x10>
     552:	cd b7       	in	r28, 0x3d	; 61
     554:	de b7       	in	r29, 0x3e	; 62
     556:	08 2f       	mov	r16, r24
	uint8 data[4];

	data[0] = address;
     558:	89 83       	std	Y+1, r24	; 0x01
	i2cMasterSendData(DS1307_I2C_ADDRESS, I2C_WRITE, data, 1);
     55a:	88 e6       	ldi	r24, 0x68	; 104
     55c:	60 e0       	ldi	r22, 0x00	; 0
     55e:	7e 01       	movw	r14, r28
     560:	08 94       	sec
     562:	e1 1c       	adc	r14, r1
     564:	f1 1c       	adc	r15, r1
     566:	a7 01       	movw	r20, r14
     568:	21 e0       	ldi	r18, 0x01	; 1
     56a:	0e 94 4f 05 	call	0xa9e	; 0xa9e <i2cMasterSendData>
	i2cMasterSendData(DS1307_I2C_ADDRESS, I2C_READ, data, 1);
     56e:	88 e6       	ldi	r24, 0x68	; 104
     570:	61 e0       	ldi	r22, 0x01	; 1
     572:	a7 01       	movw	r20, r14
     574:	21 e0       	ldi	r18, 0x01	; 1
     576:	0e 94 4f 05 	call	0xa9e	; 0xa9e <i2cMasterSendData>
	i2cMasterReadFromBuffer(data, 1);
     57a:	c7 01       	movw	r24, r14
     57c:	61 e0       	ldi	r22, 0x01	; 1
     57e:	0e 94 72 05 	call	0xae4	; 0xae4 <i2cMasterReadFromBuffer>

	// Decodes the data
	switch(address){
     582:	03 30       	cpi	r16, 0x03	; 3
     584:	09 f4       	brne	.+2      	; 0x588 <ds1307Read+0x46>
     586:	a4 c0       	rjmp	.+328    	; 0x6d0 <ds1307Read+0x18e>
     588:	04 30       	cpi	r16, 0x04	; 4
     58a:	38 f4       	brcc	.+14     	; 0x59a <ds1307Read+0x58>
     58c:	01 30       	cpi	r16, 0x01	; 1
     58e:	d9 f1       	breq	.+118    	; 0x606 <ds1307Read+0xc4>
     590:	59 81       	ldd	r21, Y+1	; 0x01
     592:	02 30       	cpi	r16, 0x02	; 2
     594:	08 f0       	brcs	.+2      	; 0x598 <ds1307Read+0x56>
     596:	54 c0       	rjmp	.+168    	; 0x640 <ds1307Read+0xfe>
     598:	0d c0       	rjmp	.+26     	; 0x5b4 <ds1307Read+0x72>
     59a:	05 30       	cpi	r16, 0x05	; 5
     59c:	09 f4       	brne	.+2      	; 0x5a0 <ds1307Read+0x5e>
     59e:	c1 c0       	rjmp	.+386    	; 0x722 <ds1307Read+0x1e0>
     5a0:	05 30       	cpi	r16, 0x05	; 5
     5a2:	08 f4       	brcc	.+2      	; 0x5a6 <ds1307Read+0x64>
     5a4:	a0 c0       	rjmp	.+320    	; 0x6e6 <ds1307Read+0x1a4>
     5a6:	06 30       	cpi	r16, 0x06	; 6
     5a8:	09 f4       	brne	.+2      	; 0x5ac <ds1307Read+0x6a>
     5aa:	d6 c0       	rjmp	.+428    	; 0x758 <ds1307Read+0x216>
     5ac:	07 30       	cpi	r16, 0x07	; 7
     5ae:	09 f0       	breq	.+2      	; 0x5b2 <ds1307Read+0x70>
     5b0:	4a c1       	rjmp	.+660    	; 0x846 <ds1307Read+0x304>
     5b2:	f8 c0       	rjmp	.+496    	; 0x7a4 <ds1307Read+0x262>
	case DS1307_ADDRESS_SECONDS:
		ds1307Data.seconds = (((0x70 & data[0]) >> 4) * 10) + (0x0F & data[0]);
     5b4:	85 2f       	mov	r24, r21
     5b6:	90 e0       	ldi	r25, 0x00	; 0
     5b8:	80 77       	andi	r24, 0x70	; 112
     5ba:	90 70       	andi	r25, 0x00	; 0
     5bc:	f4 e0       	ldi	r31, 0x04	; 4
     5be:	95 95       	asr	r25
     5c0:	87 95       	ror	r24
     5c2:	fa 95       	dec	r31
     5c4:	e1 f7       	brne	.-8      	; 0x5be <ds1307Read+0x7c>
     5c6:	9c 01       	movw	r18, r24
     5c8:	e3 e0       	ldi	r30, 0x03	; 3
     5ca:	22 0f       	add	r18, r18
     5cc:	33 1f       	adc	r19, r19
     5ce:	ea 95       	dec	r30
     5d0:	e1 f7       	brne	.-8      	; 0x5ca <ds1307Read+0x88>
     5d2:	88 0f       	add	r24, r24
     5d4:	99 1f       	adc	r25, r25
     5d6:	28 0f       	add	r18, r24
     5d8:	39 1f       	adc	r19, r25
     5da:	95 2f       	mov	r25, r21
     5dc:	9f 70       	andi	r25, 0x0F	; 15
     5de:	92 0f       	add	r25, r18
     5e0:	29 2f       	mov	r18, r25
     5e2:	27 95       	ror	r18
     5e4:	22 27       	eor	r18, r18
     5e6:	27 95       	ror	r18
     5e8:	80 91 8e 01 	lds	r24, 0x018E
     5ec:	8f 77       	andi	r24, 0x7F	; 127
     5ee:	82 2b       	or	r24, r18
     5f0:	80 93 8e 01 	sts	0x018E, r24
     5f4:	96 95       	lsr	r25
     5f6:	9f 71       	andi	r25, 0x1F	; 31
     5f8:	80 91 8f 01 	lds	r24, 0x018F
     5fc:	80 7e       	andi	r24, 0xE0	; 224
     5fe:	89 2b       	or	r24, r25
     600:	80 93 8f 01 	sts	0x018F, r24
     604:	20 c1       	rjmp	.+576    	; 0x846 <ds1307Read+0x304>
		break;
	case DS1307_ADDRESS_MINUTES:
		ds1307Data.minutes = (((0x70 & data[0]) >> 4) * 10) + (0x0F & data[0]);
     606:	49 81       	ldd	r20, Y+1	; 0x01
     608:	84 2f       	mov	r24, r20
     60a:	90 e0       	ldi	r25, 0x00	; 0
     60c:	80 77       	andi	r24, 0x70	; 112
     60e:	90 70       	andi	r25, 0x00	; 0
     610:	64 e0       	ldi	r22, 0x04	; 4
     612:	95 95       	asr	r25
     614:	87 95       	ror	r24
     616:	6a 95       	dec	r22
     618:	e1 f7       	brne	.-8      	; 0x612 <ds1307Read+0xd0>
     61a:	9c 01       	movw	r18, r24
     61c:	53 e0       	ldi	r21, 0x03	; 3
     61e:	22 0f       	add	r18, r18
     620:	33 1f       	adc	r19, r19
     622:	5a 95       	dec	r21
     624:	e1 f7       	brne	.-8      	; 0x61e <ds1307Read+0xdc>
     626:	88 0f       	add	r24, r24
     628:	99 1f       	adc	r25, r25
     62a:	28 0f       	add	r18, r24
     62c:	39 1f       	adc	r19, r25
     62e:	4f 70       	andi	r20, 0x0F	; 15
     630:	42 0f       	add	r20, r18
     632:	4f 73       	andi	r20, 0x3F	; 63
     634:	44 0f       	add	r20, r20
     636:	80 91 8e 01 	lds	r24, 0x018E
     63a:	81 78       	andi	r24, 0x81	; 129
     63c:	84 2b       	or	r24, r20
     63e:	2c c0       	rjmp	.+88     	; 0x698 <ds1307Read+0x156>
		break;
	case DS1307_ADDRESS_HOURS:
		if(isBitSet(data[0], 6)){	// 12 hour-mode
     640:	85 2f       	mov	r24, r21
     642:	82 95       	swap	r24
     644:	86 95       	lsr	r24
     646:	86 95       	lsr	r24
     648:	83 70       	andi	r24, 0x03	; 3
     64a:	25 2f       	mov	r18, r21
     64c:	30 e0       	ldi	r19, 0x00	; 0
     64e:	45 2f       	mov	r20, r21
     650:	4f 70       	andi	r20, 0x0F	; 15
     652:	80 ff       	sbrs	r24, 0
     654:	24 c0       	rjmp	.+72     	; 0x69e <ds1307Read+0x15c>
			ds1307Data.hours = (((0x10 & data[0]) >> 4) * 10) + (0x0F & data[0]);
     656:	c9 01       	movw	r24, r18
     658:	80 71       	andi	r24, 0x10	; 16
     65a:	90 70       	andi	r25, 0x00	; 0
     65c:	14 e0       	ldi	r17, 0x04	; 4
     65e:	95 95       	asr	r25
     660:	87 95       	ror	r24
     662:	1a 95       	dec	r17
     664:	e1 f7       	brne	.-8      	; 0x65e <ds1307Read+0x11c>
     666:	9c 01       	movw	r18, r24
     668:	b3 e0       	ldi	r27, 0x03	; 3
     66a:	22 0f       	add	r18, r18
     66c:	33 1f       	adc	r19, r19
     66e:	ba 95       	dec	r27
     670:	e1 f7       	brne	.-8      	; 0x66a <ds1307Read+0x128>
     672:	88 0f       	add	r24, r24
     674:	99 1f       	adc	r25, r25
     676:	28 0f       	add	r18, r24
     678:	39 1f       	adc	r19, r25
     67a:	42 0f       	add	r20, r18
     67c:	4f 71       	andi	r20, 0x1F	; 31
     67e:	80 91 8d 01 	lds	r24, 0x018D
     682:	80 7e       	andi	r24, 0xE0	; 224
     684:	84 2b       	or	r24, r20
     686:	80 93 8d 01 	sts	0x018D, r24
			ds1307Data.amPm = isBitSet(data[0], 5);
     68a:	52 95       	swap	r21
     68c:	56 95       	lsr	r21
     68e:	51 70       	andi	r21, 0x01	; 1
     690:	80 91 8e 01 	lds	r24, 0x018E
     694:	8e 7f       	andi	r24, 0xFE	; 254
     696:	85 2b       	or	r24, r21
     698:	80 93 8e 01 	sts	0x018E, r24
     69c:	d4 c0       	rjmp	.+424    	; 0x846 <ds1307Read+0x304>
		}else				// 24 hour-mode
			ds1307Data.hours = (((0x30 & data[0]) >> 4) * 10) + (0x0F & data[0]);
     69e:	c9 01       	movw	r24, r18
     6a0:	80 73       	andi	r24, 0x30	; 48
     6a2:	90 70       	andi	r25, 0x00	; 0
     6a4:	f4 e0       	ldi	r31, 0x04	; 4
     6a6:	95 95       	asr	r25
     6a8:	87 95       	ror	r24
     6aa:	fa 95       	dec	r31
     6ac:	e1 f7       	brne	.-8      	; 0x6a6 <ds1307Read+0x164>
     6ae:	9c 01       	movw	r18, r24
     6b0:	e3 e0       	ldi	r30, 0x03	; 3
     6b2:	22 0f       	add	r18, r18
     6b4:	33 1f       	adc	r19, r19
     6b6:	ea 95       	dec	r30
     6b8:	e1 f7       	brne	.-8      	; 0x6b2 <ds1307Read+0x170>
     6ba:	88 0f       	add	r24, r24
     6bc:	99 1f       	adc	r25, r25
     6be:	28 0f       	add	r18, r24
     6c0:	39 1f       	adc	r19, r25
     6c2:	42 0f       	add	r20, r18
     6c4:	4f 71       	andi	r20, 0x1F	; 31
     6c6:	80 91 8d 01 	lds	r24, 0x018D
     6ca:	80 7e       	andi	r24, 0xE0	; 224
     6cc:	84 2b       	or	r24, r20
     6ce:	08 c0       	rjmp	.+16     	; 0x6e0 <ds1307Read+0x19e>
		break;
	case DS1307_ADDRESS_WEEK_DAY:
		ds1307Data.weekDay = 0x07 & data[0];
     6d0:	99 81       	ldd	r25, Y+1	; 0x01
     6d2:	92 95       	swap	r25
     6d4:	99 0f       	add	r25, r25
     6d6:	90 7e       	andi	r25, 0xE0	; 224
     6d8:	80 91 8d 01 	lds	r24, 0x018D
     6dc:	8f 71       	andi	r24, 0x1F	; 31
     6de:	89 2b       	or	r24, r25
     6e0:	80 93 8d 01 	sts	0x018D, r24
     6e4:	b0 c0       	rjmp	.+352    	; 0x846 <ds1307Read+0x304>
		break;
	case DS1307_ADDRESS_MONTH_DAY:
		ds1307Data.monthDay = (((0x30 & data[0]) >> 4) * 10) + (0x0F & data[0]);
     6e6:	49 81       	ldd	r20, Y+1	; 0x01
     6e8:	84 2f       	mov	r24, r20
     6ea:	90 e0       	ldi	r25, 0x00	; 0
     6ec:	80 73       	andi	r24, 0x30	; 48
     6ee:	90 70       	andi	r25, 0x00	; 0
     6f0:	64 e0       	ldi	r22, 0x04	; 4
     6f2:	95 95       	asr	r25
     6f4:	87 95       	ror	r24
     6f6:	6a 95       	dec	r22
     6f8:	e1 f7       	brne	.-8      	; 0x6f2 <ds1307Read+0x1b0>
     6fa:	9c 01       	movw	r18, r24
     6fc:	53 e0       	ldi	r21, 0x03	; 3
     6fe:	22 0f       	add	r18, r18
     700:	33 1f       	adc	r19, r19
     702:	5a 95       	dec	r21
     704:	e1 f7       	brne	.-8      	; 0x6fe <ds1307Read+0x1bc>
     706:	88 0f       	add	r24, r24
     708:	99 1f       	adc	r25, r25
     70a:	28 0f       	add	r18, r24
     70c:	39 1f       	adc	r19, r25
     70e:	4f 70       	andi	r20, 0x0F	; 15
     710:	42 0f       	add	r20, r18
     712:	4f 71       	andi	r20, 0x1F	; 31
     714:	80 91 91 01 	lds	r24, 0x0191
     718:	80 7e       	andi	r24, 0xE0	; 224
     71a:	84 2b       	or	r24, r20
     71c:	80 93 91 01 	sts	0x0191, r24
     720:	92 c0       	rjmp	.+292    	; 0x846 <ds1307Read+0x304>
		break;
	case DS1307_ADDRESS_MONTH:
		ds1307Data.month = (((0x10 & data[0]) >> 4) * 10) + (0x0F & data[0]);
     722:	49 81       	ldd	r20, Y+1	; 0x01
     724:	84 2f       	mov	r24, r20
     726:	90 e0       	ldi	r25, 0x00	; 0
     728:	80 71       	andi	r24, 0x10	; 16
     72a:	90 70       	andi	r25, 0x00	; 0
     72c:	14 e0       	ldi	r17, 0x04	; 4
     72e:	95 95       	asr	r25
     730:	87 95       	ror	r24
     732:	1a 95       	dec	r17
     734:	e1 f7       	brne	.-8      	; 0x72e <ds1307Read+0x1ec>
     736:	9c 01       	movw	r18, r24
     738:	b3 e0       	ldi	r27, 0x03	; 3
     73a:	22 0f       	add	r18, r18
     73c:	33 1f       	adc	r19, r19
     73e:	ba 95       	dec	r27
     740:	e1 f7       	brne	.-8      	; 0x73a <ds1307Read+0x1f8>
     742:	88 0f       	add	r24, r24
     744:	99 1f       	adc	r25, r25
     746:	28 0f       	add	r18, r24
     748:	39 1f       	adc	r19, r25
     74a:	42 0f       	add	r20, r18
     74c:	42 95       	swap	r20
     74e:	40 7f       	andi	r20, 0xF0	; 240
     750:	80 91 90 01 	lds	r24, 0x0190
     754:	8f 70       	andi	r24, 0x0F	; 15
     756:	22 c0       	rjmp	.+68     	; 0x79c <ds1307Read+0x25a>
		break;
	case DS1307_ADDRESS_YEAR:
		ds1307Data.year = (((0xF0 & data[0]) >> 4) * 10) + (0x0F & data[0]);
     758:	49 81       	ldd	r20, Y+1	; 0x01
     75a:	84 2f       	mov	r24, r20
     75c:	82 95       	swap	r24
     75e:	8f 70       	andi	r24, 0x0F	; 15
     760:	90 e0       	ldi	r25, 0x00	; 0
     762:	9c 01       	movw	r18, r24
     764:	f3 e0       	ldi	r31, 0x03	; 3
     766:	22 0f       	add	r18, r18
     768:	33 1f       	adc	r19, r19
     76a:	fa 95       	dec	r31
     76c:	e1 f7       	brne	.-8      	; 0x766 <ds1307Read+0x224>
     76e:	88 0f       	add	r24, r24
     770:	99 1f       	adc	r25, r25
     772:	28 0f       	add	r18, r24
     774:	39 1f       	adc	r19, r25
     776:	4f 70       	andi	r20, 0x0F	; 15
     778:	42 0f       	add	r20, r18
     77a:	94 2f       	mov	r25, r20
     77c:	92 95       	swap	r25
     77e:	99 0f       	add	r25, r25
     780:	90 7e       	andi	r25, 0xE0	; 224
     782:	80 91 8f 01 	lds	r24, 0x018F
     786:	8f 71       	andi	r24, 0x1F	; 31
     788:	89 2b       	or	r24, r25
     78a:	80 93 8f 01 	sts	0x018F, r24
     78e:	46 95       	lsr	r20
     790:	46 95       	lsr	r20
     792:	46 95       	lsr	r20
     794:	4f 70       	andi	r20, 0x0F	; 15
     796:	80 91 90 01 	lds	r24, 0x0190
     79a:	80 7f       	andi	r24, 0xF0	; 240
     79c:	84 2b       	or	r24, r20
     79e:	80 93 90 01 	sts	0x0190, r24
     7a2:	51 c0       	rjmp	.+162    	; 0x846 <ds1307Read+0x304>
		break;
	case DS1307_ADDRESS_CONTROL:
		ds1307Control.squareWaveFrequency	= data[0] & 0x03;
     7a4:	99 81       	ldd	r25, Y+1	; 0x01
     7a6:	29 2f       	mov	r18, r25
     7a8:	23 70       	andi	r18, 0x03	; 3
     7aa:	22 0f       	add	r18, r18
     7ac:	22 0f       	add	r18, r18
     7ae:	80 91 8c 01 	lds	r24, 0x018C
     7b2:	82 7f       	andi	r24, 0xF2	; 242
		ds1307Control.squareWaveActivation	= isBitSet(data[0], 4);
     7b4:	92 95       	swap	r25
     7b6:	9f 70       	andi	r25, 0x0F	; 15
     7b8:	39 2f       	mov	r19, r25
     7ba:	31 70       	andi	r19, 0x01	; 1
     7bc:	82 2b       	or	r24, r18
     7be:	83 2b       	or	r24, r19
		ds1307Control.squareWaveOffValue	= isBitSet(data[0], 7);
     7c0:	96 95       	lsr	r25
     7c2:	96 95       	lsr	r25
     7c4:	96 95       	lsr	r25
     7c6:	99 0f       	add	r25, r25
     7c8:	8d 7f       	andi	r24, 0xFD	; 253
     7ca:	89 2b       	or	r24, r25
     7cc:	80 93 8c 01 	sts	0x018C, r24
		data[0] = DS1307_ADDRESS_SECONDS;
     7d0:	19 82       	std	Y+1, r1	; 0x01
		i2cMasterSendData(DS1307_I2C_ADDRESS, I2C_WRITE, data, 1);
     7d2:	88 e6       	ldi	r24, 0x68	; 104
     7d4:	60 e0       	ldi	r22, 0x00	; 0
     7d6:	a7 01       	movw	r20, r14
     7d8:	21 e0       	ldi	r18, 0x01	; 1
     7da:	0e 94 4f 05 	call	0xa9e	; 0xa9e <i2cMasterSendData>
		i2cMasterSendData(DS1307_I2C_ADDRESS, I2C_READ, data, 1);
     7de:	88 e6       	ldi	r24, 0x68	; 104
     7e0:	61 e0       	ldi	r22, 0x01	; 1
     7e2:	a7 01       	movw	r20, r14
     7e4:	21 e0       	ldi	r18, 0x01	; 1
     7e6:	0e 94 4f 05 	call	0xa9e	; 0xa9e <i2cMasterSendData>
		i2cMasterReadFromBuffer(data, 1);
     7ea:	c7 01       	movw	r24, r14
     7ec:	61 e0       	ldi	r22, 0x01	; 1
     7ee:	0e 94 72 05 	call	0xae4	; 0xae4 <i2cMasterReadFromBuffer>
		ds1307Control.oscillatorEnable = isBitClr(data[0], 7);
     7f2:	90 e0       	ldi	r25, 0x00	; 0
     7f4:	89 81       	ldd	r24, Y+1	; 0x01
     7f6:	87 ff       	sbrs	r24, 7
     7f8:	91 e0       	ldi	r25, 0x01	; 1
     7fa:	92 95       	swap	r25
     7fc:	90 7f       	andi	r25, 0xF0	; 240
     7fe:	80 91 8c 01 	lds	r24, 0x018C
     802:	8f 7e       	andi	r24, 0xEF	; 239
     804:	89 2b       	or	r24, r25
     806:	80 93 8c 01 	sts	0x018C, r24
		data[0] = DS1307_ADDRESS_HOURS;
     80a:	82 e0       	ldi	r24, 0x02	; 2
     80c:	89 83       	std	Y+1, r24	; 0x01
		i2cMasterSendData(DS1307_I2C_ADDRESS, I2C_WRITE, data, 1);
     80e:	88 e6       	ldi	r24, 0x68	; 104
     810:	60 e0       	ldi	r22, 0x00	; 0
     812:	8e 01       	movw	r16, r28
     814:	0f 5f       	subi	r16, 0xFF	; 255
     816:	1f 4f       	sbci	r17, 0xFF	; 255
     818:	a8 01       	movw	r20, r16
     81a:	21 e0       	ldi	r18, 0x01	; 1
     81c:	0e 94 4f 05 	call	0xa9e	; 0xa9e <i2cMasterSendData>
		i2cMasterSendData(DS1307_I2C_ADDRESS, I2C_READ, data, 1);
     820:	88 e6       	ldi	r24, 0x68	; 104
     822:	61 e0       	ldi	r22, 0x01	; 1
     824:	a8 01       	movw	r20, r16
     826:	21 e0       	ldi	r18, 0x01	; 1
     828:	0e 94 4f 05 	call	0xa9e	; 0xa9e <i2cMasterSendData>
		i2cMasterReadFromBuffer(data, 1);
     82c:	c8 01       	movw	r24, r16
     82e:	61 e0       	ldi	r22, 0x01	; 1
     830:	0e 94 72 05 	call	0xae4	; 0xae4 <i2cMasterReadFromBuffer>
		ds1307Control.mode12h24h = isBitSet(data[0],6);
     834:	99 81       	ldd	r25, Y+1	; 0x01
     836:	96 95       	lsr	r25
     838:	90 72       	andi	r25, 0x20	; 32
     83a:	80 91 8c 01 	lds	r24, 0x018C
     83e:	8f 7d       	andi	r24, 0xDF	; 223
     840:	89 2b       	or	r24, r25
     842:	80 93 8c 01 	sts	0x018C, r24
		break;
	}

	return data[0];
}
     846:	89 81       	ldd	r24, Y+1	; 0x01
     848:	0f 90       	pop	r0
     84a:	0f 90       	pop	r0
     84c:	0f 90       	pop	r0
     84e:	0f 90       	pop	r0
     850:	cf 91       	pop	r28
     852:	df 91       	pop	r29
     854:	1f 91       	pop	r17
     856:	0f 91       	pop	r16
     858:	ff 90       	pop	r15
     85a:	ef 90       	pop	r14
     85c:	08 95       	ret

0000085e <ds1307GetRamData>:
 * Returns the data at the posion of the internal RAM.
 * -------------------------------------------------------------------------- */

uint8 ds1307GetRamData(uint8 position)
{
	return ds1307Read(DS1307_ADDRESS_RAM + position);
     85e:	88 5f       	subi	r24, 0xF8	; 248
     860:	0e 94 a1 02 	call	0x542	; 0x542 <ds1307Read>
}
     864:	08 95       	ret

00000866 <ds1307GetTime>:
/* -----------------------------------------------------------------------------
 * Gets the time.
 * -------------------------------------------------------------------------- */

void ds1307GetTime(uint8 * hours, uint8 * minutes, uint8 * seconds, uint8 * mode)
{
     866:	af 92       	push	r10
     868:	bf 92       	push	r11
     86a:	cf 92       	push	r12
     86c:	df 92       	push	r13
     86e:	ef 92       	push	r14
     870:	ff 92       	push	r15
     872:	0f 93       	push	r16
     874:	1f 93       	push	r17
     876:	8c 01       	movw	r16, r24
     878:	7b 01       	movw	r14, r22
     87a:	6a 01       	movw	r12, r20
     87c:	59 01       	movw	r10, r18
	ds1307Read(DS1307_ADDRESS_HOURS);
     87e:	82 e0       	ldi	r24, 0x02	; 2
     880:	0e 94 a1 02 	call	0x542	; 0x542 <ds1307Read>
	ds1307Read(DS1307_ADDRESS_MINUTES);
     884:	81 e0       	ldi	r24, 0x01	; 1
     886:	0e 94 a1 02 	call	0x542	; 0x542 <ds1307Read>
	ds1307Read(DS1307_ADDRESS_SECONDS);
     88a:	80 e0       	ldi	r24, 0x00	; 0
     88c:	0e 94 a1 02 	call	0x542	; 0x542 <ds1307Read>
	*hours = ds1307Data.hours;
     890:	80 91 8d 01 	lds	r24, 0x018D
     894:	8f 71       	andi	r24, 0x1F	; 31
     896:	f8 01       	movw	r30, r16
     898:	80 83       	st	Z, r24
	*minutes = ds1307Data.minutes;
     89a:	80 91 8e 01 	lds	r24, 0x018E
     89e:	86 95       	lsr	r24
     8a0:	8f 73       	andi	r24, 0x3F	; 63
     8a2:	f7 01       	movw	r30, r14
     8a4:	80 83       	st	Z, r24
	*seconds = ds1307Data.seconds;
     8a6:	90 91 8e 01 	lds	r25, 0x018E
     8aa:	99 1f       	adc	r25, r25
     8ac:	99 27       	eor	r25, r25
     8ae:	99 1f       	adc	r25, r25
     8b0:	80 91 8f 01 	lds	r24, 0x018F
     8b4:	8f 71       	andi	r24, 0x1F	; 31
     8b6:	88 0f       	add	r24, r24
     8b8:	89 2b       	or	r24, r25
     8ba:	f6 01       	movw	r30, r12
     8bc:	80 83       	st	Z, r24
	*mode = ds1307Data.amPm;
     8be:	80 91 8e 01 	lds	r24, 0x018E
     8c2:	81 70       	andi	r24, 0x01	; 1
     8c4:	f5 01       	movw	r30, r10
     8c6:	80 83       	st	Z, r24
	return;
}
     8c8:	1f 91       	pop	r17
     8ca:	0f 91       	pop	r16
     8cc:	ff 90       	pop	r15
     8ce:	ef 90       	pop	r14
     8d0:	df 90       	pop	r13
     8d2:	cf 90       	pop	r12
     8d4:	bf 90       	pop	r11
     8d6:	af 90       	pop	r10
     8d8:	08 95       	ret

000008da <ds1307GetDate>:
/* -----------------------------------------------------------------------------
 * Gets the date.
 * -------------------------------------------------------------------------- */

void ds1307GetDate(uint8 * year, uint8 * month, uint8 * monthDay, uint8 * weekDay)
{
     8da:	af 92       	push	r10
     8dc:	bf 92       	push	r11
     8de:	cf 92       	push	r12
     8e0:	df 92       	push	r13
     8e2:	ef 92       	push	r14
     8e4:	ff 92       	push	r15
     8e6:	0f 93       	push	r16
     8e8:	1f 93       	push	r17
     8ea:	8c 01       	movw	r16, r24
     8ec:	7b 01       	movw	r14, r22
     8ee:	6a 01       	movw	r12, r20
     8f0:	59 01       	movw	r10, r18
	ds1307Read(DS1307_ADDRESS_YEAR);
     8f2:	86 e0       	ldi	r24, 0x06	; 6
     8f4:	0e 94 a1 02 	call	0x542	; 0x542 <ds1307Read>
	ds1307Read(DS1307_ADDRESS_MONTH);
     8f8:	85 e0       	ldi	r24, 0x05	; 5
     8fa:	0e 94 a1 02 	call	0x542	; 0x542 <ds1307Read>
	ds1307Read(DS1307_ADDRESS_MONTH_DAY);
     8fe:	84 e0       	ldi	r24, 0x04	; 4
     900:	0e 94 a1 02 	call	0x542	; 0x542 <ds1307Read>
	ds1307Read(DS1307_ADDRESS_WEEK_DAY);
     904:	83 e0       	ldi	r24, 0x03	; 3
     906:	0e 94 a1 02 	call	0x542	; 0x542 <ds1307Read>
	*year = ds1307Data.year;
     90a:	90 91 8f 01 	lds	r25, 0x018F
     90e:	92 95       	swap	r25
     910:	96 95       	lsr	r25
     912:	97 70       	andi	r25, 0x07	; 7
     914:	80 91 90 01 	lds	r24, 0x0190
     918:	8f 70       	andi	r24, 0x0F	; 15
     91a:	88 0f       	add	r24, r24
     91c:	88 0f       	add	r24, r24
     91e:	88 0f       	add	r24, r24
     920:	89 2b       	or	r24, r25
     922:	f8 01       	movw	r30, r16
     924:	80 83       	st	Z, r24
	*month = ds1307Data.month;
     926:	80 91 90 01 	lds	r24, 0x0190
     92a:	82 95       	swap	r24
     92c:	8f 70       	andi	r24, 0x0F	; 15
     92e:	f7 01       	movw	r30, r14
     930:	80 83       	st	Z, r24
	*monthDay = ds1307Data.monthDay;
     932:	80 91 91 01 	lds	r24, 0x0191
     936:	8f 71       	andi	r24, 0x1F	; 31
     938:	f6 01       	movw	r30, r12
     93a:	80 83       	st	Z, r24
	*weekDay = ds1307Data.weekDay;
     93c:	80 91 8d 01 	lds	r24, 0x018D
     940:	82 95       	swap	r24
     942:	86 95       	lsr	r24
     944:	87 70       	andi	r24, 0x07	; 7
     946:	f5 01       	movw	r30, r10
     948:	80 83       	st	Z, r24
	return;
}
     94a:	1f 91       	pop	r17
     94c:	0f 91       	pop	r16
     94e:	ff 90       	pop	r15
     950:	ef 90       	pop	r14
     952:	df 90       	pop	r13
     954:	cf 90       	pop	r12
     956:	bf 90       	pop	r11
     958:	af 90       	pop	r10
     95a:	08 95       	ret

0000095c <ds1307SetTime>:
/* -----------------------------------------------------------------------------
 * Sets the given time
 * -------------------------------------------------------------------------- */

void ds1307SetTime(uint8 hour, uint8 minute, uint8 second, uint8 mode)
{
     95c:	ef 92       	push	r14
     95e:	ff 92       	push	r15
     960:	0f 93       	push	r16
     962:	1f 93       	push	r17
     964:	18 2f       	mov	r17, r24
     966:	e6 2e       	mov	r14, r22
     968:	f4 2e       	mov	r15, r20
     96a:	02 2f       	mov	r16, r18
	ds1307Read(DS1307_ADDRESS_CONTROL);
     96c:	87 e0       	ldi	r24, 0x07	; 7
     96e:	0e 94 a1 02 	call	0x542	; 0x542 <ds1307Read>
	if(ds1307Control.mode12h24h == 1){	// 12-hour mode
     972:	80 91 8c 01 	lds	r24, 0x018C
     976:	85 ff       	sbrs	r24, 5
     978:	2b c0       	rjmp	.+86     	; 0x9d0 <ds1307SetTime+0x74>
		if(mode == DS1307_24){
     97a:	00 23       	and	r16, r16
     97c:	b1 f4       	brne	.+44     	; 0x9aa <ds1307SetTime+0x4e>
			hour++;
     97e:	91 2f       	mov	r25, r17
     980:	9f 5f       	subi	r25, 0xFF	; 255
			if(hour > 12){
     982:	9d 30       	cpi	r25, 0x0D	; 13
     984:	38 f0       	brcs	.+14     	; 0x994 <ds1307SetTime+0x38>
				ds1307Data.amPm = 1;
     986:	80 91 8e 01 	lds	r24, 0x018E
     98a:	81 60       	ori	r24, 0x01	; 1
     98c:	80 93 8e 01 	sts	0x018E, r24
				ds1307Data.hours = hour - 12;
     990:	1b 50       	subi	r17, 0x0B	; 11
     992:	20 c0       	rjmp	.+64     	; 0x9d4 <ds1307SetTime+0x78>
			}else{
				ds1307Data.amPm = 0;
     994:	80 91 8e 01 	lds	r24, 0x018E
     998:	8e 7f       	andi	r24, 0xFE	; 254
     99a:	80 93 8e 01 	sts	0x018E, r24
				ds1307Data.hours = hour;
     99e:	9f 71       	andi	r25, 0x1F	; 31
     9a0:	80 91 8d 01 	lds	r24, 0x018D
     9a4:	80 7e       	andi	r24, 0xE0	; 224
     9a6:	89 2b       	or	r24, r25
     9a8:	1a c0       	rjmp	.+52     	; 0x9de <ds1307SetTime+0x82>
			}
		}else{
			ds1307Data.hours = hour;
     9aa:	1f 71       	andi	r17, 0x1F	; 31
     9ac:	80 91 8d 01 	lds	r24, 0x018D
     9b0:	80 7e       	andi	r24, 0xE0	; 224
     9b2:	81 2b       	or	r24, r17
     9b4:	80 93 8d 01 	sts	0x018D, r24
			if(mode == DS1307_AM)
     9b8:	02 30       	cpi	r16, 0x02	; 2
     9ba:	21 f4       	brne	.+8      	; 0x9c4 <ds1307SetTime+0x68>
				ds1307Data.amPm = 0;
     9bc:	80 91 8e 01 	lds	r24, 0x018E
     9c0:	8e 7f       	andi	r24, 0xFE	; 254
     9c2:	03 c0       	rjmp	.+6      	; 0x9ca <ds1307SetTime+0x6e>
			else
				ds1307Data.amPm = 1;
     9c4:	80 91 8e 01 	lds	r24, 0x018E
     9c8:	81 60       	ori	r24, 0x01	; 1
     9ca:	80 93 8e 01 	sts	0x018E, r24
     9ce:	1b c0       	rjmp	.+54     	; 0xa06 <ds1307SetTime+0xaa>
		}
	}else{								// 24-hour mode
		if(mode == DS1307_24)
     9d0:	00 23       	and	r16, r16
     9d2:	41 f4       	brne	.+16     	; 0x9e4 <ds1307SetTime+0x88>
			ds1307Data.hours = hour;
     9d4:	1f 71       	andi	r17, 0x1F	; 31
     9d6:	80 91 8d 01 	lds	r24, 0x018D
     9da:	80 7e       	andi	r24, 0xE0	; 224
     9dc:	81 2b       	or	r24, r17
     9de:	80 93 8d 01 	sts	0x018D, r24
     9e2:	11 c0       	rjmp	.+34     	; 0xa06 <ds1307SetTime+0xaa>
		else{
			ds1307Data.hours = hour - 1;
     9e4:	81 2f       	mov	r24, r17
     9e6:	81 50       	subi	r24, 0x01	; 1
     9e8:	8f 71       	andi	r24, 0x1F	; 31
     9ea:	90 91 8d 01 	lds	r25, 0x018D
     9ee:	90 7e       	andi	r25, 0xE0	; 224
     9f0:	98 2b       	or	r25, r24
     9f2:	90 93 8d 01 	sts	0x018D, r25
			if(mode == DS1307_PM)
     9f6:	01 30       	cpi	r16, 0x01	; 1
     9f8:	31 f4       	brne	.+12     	; 0xa06 <ds1307SetTime+0xaa>
				ds1307Data.hours += 12;
     9fa:	84 5f       	subi	r24, 0xF4	; 244
     9fc:	8f 71       	andi	r24, 0x1F	; 31
     9fe:	90 7e       	andi	r25, 0xE0	; 224
     a00:	98 2b       	or	r25, r24
     a02:	90 93 8d 01 	sts	0x018D, r25
		}
	}
	ds1307Data.minutes = minute;
     a06:	8f e3       	ldi	r24, 0x3F	; 63
     a08:	e8 22       	and	r14, r24
     a0a:	ee 0c       	add	r14, r14
     a0c:	80 91 8e 01 	lds	r24, 0x018E
     a10:	81 70       	andi	r24, 0x01	; 1
	ds1307Data.seconds = second;
     a12:	9f 2d       	mov	r25, r15
     a14:	97 95       	ror	r25
     a16:	99 27       	eor	r25, r25
     a18:	97 95       	ror	r25
     a1a:	8e 29       	or	r24, r14
     a1c:	89 2b       	or	r24, r25
     a1e:	80 93 8e 01 	sts	0x018E, r24
     a22:	f6 94       	lsr	r15
     a24:	8f e1       	ldi	r24, 0x1F	; 31
     a26:	f8 22       	and	r15, r24
     a28:	80 91 8f 01 	lds	r24, 0x018F
     a2c:	80 7e       	andi	r24, 0xE0	; 224
     a2e:	8f 29       	or	r24, r15
     a30:	80 93 8f 01 	sts	0x018F, r24
	ds1307Write(ds1307Data.hours, DS1307_ADDRESS_HOURS);
     a34:	80 91 8d 01 	lds	r24, 0x018D
     a38:	8f 71       	andi	r24, 0x1F	; 31
     a3a:	62 e0       	ldi	r22, 0x02	; 2
     a3c:	0e 94 9d 01 	call	0x33a	; 0x33a <ds1307Write>
	ds1307Write(ds1307Data.minutes, DS1307_ADDRESS_MINUTES);
     a40:	80 91 8e 01 	lds	r24, 0x018E
     a44:	86 95       	lsr	r24
     a46:	8f 73       	andi	r24, 0x3F	; 63
     a48:	61 e0       	ldi	r22, 0x01	; 1
     a4a:	0e 94 9d 01 	call	0x33a	; 0x33a <ds1307Write>
	ds1307Write(ds1307Data.seconds, DS1307_ADDRESS_SECONDS);
     a4e:	90 91 8e 01 	lds	r25, 0x018E
     a52:	99 1f       	adc	r25, r25
     a54:	99 27       	eor	r25, r25
     a56:	99 1f       	adc	r25, r25
     a58:	80 91 8f 01 	lds	r24, 0x018F
     a5c:	8f 71       	andi	r24, 0x1F	; 31
     a5e:	88 0f       	add	r24, r24
     a60:	89 2b       	or	r24, r25
     a62:	60 e0       	ldi	r22, 0x00	; 0
     a64:	0e 94 9d 01 	call	0x33a	; 0x33a <ds1307Write>
	return;
}
     a68:	1f 91       	pop	r17
     a6a:	0f 91       	pop	r16
     a6c:	ff 90       	pop	r15
     a6e:	ef 90       	pop	r14
     a70:	08 95       	ret

00000a72 <i2cMasterInit>:
	uint32 aux;

	aux = (uint32)F_CPU / (uint32)I2C_BAUD_RATE;

	if(aux <= 526){		// Prescaler 1
		clrBit(TWSR, TWPS1);
     a72:	e9 eb       	ldi	r30, 0xB9	; 185
     a74:	f0 e0       	ldi	r31, 0x00	; 0
     a76:	80 81       	ld	r24, Z
     a78:	8d 7f       	andi	r24, 0xFD	; 253
     a7a:	80 83       	st	Z, r24
		clrBit(TWSR, TWPS0);
     a7c:	80 81       	ld	r24, Z
     a7e:	8e 7f       	andi	r24, 0xFE	; 254
     a80:	80 83       	st	Z, r24
		TWBR = (uint8)(((uint32)(F_CPU / 2) / (uint32)I2C_BAUD_RATE) - 8);
     a82:	88 e9       	ldi	r24, 0x98	; 152
     a84:	80 93 b8 00 	sts	0x00B8, r24
	}else if(aux <= 32656){	// Prescaler 64
		setBit(TWSR, TWPS1);
		setBit(TWSR, TWPS0);
		TWBR = (uint8)(((uint32)(F_CPU / 2) / (uint32)I2C_BAUD_RATE) / 64);
	}
	TWDR = 0xFF;		// Default content = SDA released
     a88:	8f ef       	ldi	r24, 0xFF	; 255
     a8a:	80 93 bb 00 	sts	0x00BB, r24
	TWCR = 1 << TWEN;	// Activates i2c interface
     a8e:	84 e0       	ldi	r24, 0x04	; 4
     a90:	80 93 bc 00 	sts	0x00BC, r24
	return;
}
     a94:	08 95       	ret

00000a96 <i2cIsTransceiverBusy>:
 * Tests if the i2c interruption is busy transmitting
 * -------------------------------------------------------------------------- */

uint8 i2cIsTransceiverBusy(void)
{
	return (TWCR & (1 << TWIE));
     a96:	80 91 bc 00 	lds	r24, 0x00BC
}
     a9a:	81 70       	andi	r24, 0x01	; 1
     a9c:	08 95       	ret

00000a9e <i2cMasterSendData>:
 * the i2c interruption has completed with the previous operation, then
 * initialize the next operation and return.
 * -------------------------------------------------------------------------- */

void i2cMasterSendData(uint8 address, uint8 readWrite, uint8 *msg, uint8 msgSize)
{
     a9e:	98 2f       	mov	r25, r24
     aa0:	72 2f       	mov	r23, r18
 * Tests if the i2c interruption is busy transmitting
 * -------------------------------------------------------------------------- */

uint8 i2cIsTransceiverBusy(void)
{
	return (TWCR & (1 << TWIE));
     aa2:	80 91 bc 00 	lds	r24, 0x00BC

void i2cMasterSendData(uint8 address, uint8 readWrite, uint8 *msg, uint8 msgSize)
{
	uint8 i;

	while(i2cIsTransceiverBusy())
     aa6:	80 fd       	sbrc	r24, 0
     aa8:	fc cf       	rjmp	.-8      	; 0xaa2 <i2cMasterSendData+0x4>
		;	// Wait until TWI is ready for next transmission.
	i2cMsgSize = msgSize + 1;
     aaa:	7f 5f       	subi	r23, 0xFF	; 255
     aac:	70 93 8a 01 	sts	0x018A, r23
     ab0:	71 50       	subi	r23, 0x01	; 1
	i2cBuffer[0] = (address << 1) |  readWrite;
     ab2:	99 0f       	add	r25, r25
     ab4:	96 2b       	or	r25, r22
     ab6:	90 93 86 01 	sts	0x0186, r25
	if(readWrite == I2C_WRITE){
     aba:	66 23       	and	r22, r22
     abc:	51 f4       	brne	.+20     	; 0xad2 <i2cMasterSendData+0x34>
     abe:	a7 e8       	ldi	r26, 0x87	; 135
     ac0:	b1 e0       	ldi	r27, 0x01	; 1
     ac2:	fa 01       	movw	r30, r20
     ac4:	02 c0       	rjmp	.+4      	; 0xaca <i2cMasterSendData+0x2c>
		for(i = 0;i < msgSize;i++)
			i2cBuffer[i + 1] = msg[i];
     ac6:	81 91       	ld	r24, Z+
     ac8:	8d 93       	st	X+, r24
	while(i2cIsTransceiverBusy())
		;	// Wait until TWI is ready for next transmission.
	i2cMsgSize = msgSize + 1;
	i2cBuffer[0] = (address << 1) |  readWrite;
	if(readWrite == I2C_WRITE){
		for(i = 0;i < msgSize;i++)
     aca:	8e 2f       	mov	r24, r30
     acc:	84 1b       	sub	r24, r20
     ace:	87 17       	cp	r24, r23
     ad0:	d0 f3       	brcs	.-12     	; 0xac6 <i2cMasterSendData+0x28>
			i2cBuffer[i + 1] = msg[i];
	}
	i2cStatusReg.all = 0;
     ad2:	10 92 84 01 	sts	0x0184, r1
	i2cState = I2C_NO_STATE;
     ad6:	88 ef       	ldi	r24, 0xF8	; 248
     ad8:	80 93 67 01 	sts	0x0167, r24
	TWCR = (1 << TWEN) | (1 << TWIE) | (1 << TWINT) | (1 << TWSTA);
     adc:	85 ea       	ldi	r24, 0xA5	; 165
     ade:	80 93 bc 00 	sts	0x00BC, r24
	return;
}
     ae2:	08 95       	ret

00000ae4 <i2cMasterReadFromBuffer>:
 * there was an error in the previous transmission the function will return the
 * i2c error code.
 * -------------------------------------------------------------------------- */

uint8 i2cMasterReadFromBuffer(uint8 *msg, uint8 msgSize)
{
     ae4:	9c 01       	movw	r18, r24
 * Tests if the i2c interruption is busy transmitting
 * -------------------------------------------------------------------------- */

uint8 i2cIsTransceiverBusy(void)
{
	return (TWCR & (1 << TWIE));
     ae6:	80 91 bc 00 	lds	r24, 0x00BC

uint8 i2cMasterReadFromBuffer(uint8 *msg, uint8 msgSize)
{
	uint8 i;

	while(i2cIsTransceiverBusy())
     aea:	80 fd       	sbrc	r24, 0
     aec:	fc cf       	rjmp	.-8      	; 0xae6 <i2cMasterReadFromBuffer+0x2>
		;	// Wait until TWI is ready for next transmission
	if(i2cStatusReg.lastTransOK){	// Last transmission competed successfully
     aee:	80 91 84 01 	lds	r24, 0x0184
     af2:	80 ff       	sbrs	r24, 0
     af4:	0c c0       	rjmp	.+24     	; 0xb0e <i2cMasterReadFromBuffer+0x2a>
     af6:	e7 e8       	ldi	r30, 0x87	; 135
     af8:	f1 e0       	ldi	r31, 0x01	; 1
     afa:	d9 01       	movw	r26, r18
		for(i = 0;i < msgSize;i++){	// Copy data from Transceiver buffer
     afc:	70 e0       	ldi	r23, 0x00	; 0
     afe:	6e 0f       	add	r22, r30
     b00:	7f 1f       	adc	r23, r31
     b02:	02 c0       	rjmp	.+4      	; 0xb08 <i2cMasterReadFromBuffer+0x24>
			msg[i] = i2cBuffer[i + 1];
     b04:	81 91       	ld	r24, Z+
     b06:	8d 93       	st	X+, r24
	uint8 i;

	while(i2cIsTransceiverBusy())
		;	// Wait until TWI is ready for next transmission
	if(i2cStatusReg.lastTransOK){	// Last transmission competed successfully
		for(i = 0;i < msgSize;i++){	// Copy data from Transceiver buffer
     b08:	e6 17       	cp	r30, r22
     b0a:	f7 07       	cpc	r31, r23
     b0c:	d9 f7       	brne	.-10     	; 0xb04 <i2cMasterReadFromBuffer+0x20>
     b0e:	80 91 84 01 	lds	r24, 0x0184
			msg[i] = i2cBuffer[i + 1];
		}
	}
	return(i2cStatusReg.lastTransOK);
}
     b12:	81 70       	andi	r24, 0x01	; 1
     b14:	08 95       	ret

00000b16 <i2cGetStatus>:
 * Tests if the i2c interruption is busy transmitting
 * -------------------------------------------------------------------------- */

uint8 i2cIsTransceiverBusy(void)
{
	return (TWCR & (1 << TWIE));
     b16:	80 91 bc 00 	lds	r24, 0x00BC
 * code.
 * -------------------------------------------------------------------------- */

uint8 i2cGetStatus(void)
{
	while(i2cIsTransceiverBusy())
     b1a:	80 fd       	sbrc	r24, 0
     b1c:	fc cf       	rjmp	.-8      	; 0xb16 <i2cGetStatus>
		;	// Wait until TWI has completed the transmission
	return(i2cState);
}
     b1e:	80 91 67 01 	lds	r24, 0x0167
     b22:	08 95       	ret

00000b24 <i2cMasterResendData>:
 * Tests if the i2c interruption is busy transmitting
 * -------------------------------------------------------------------------- */

uint8 i2cIsTransceiverBusy(void)
{
	return (TWCR & (1 << TWIE));
     b24:	80 91 bc 00 	lds	r24, 0x00BC
 * the next operation and return.
 * -------------------------------------------------------------------------- */

void i2cMasterResendData(void)
{
	while(i2cIsTransceiverBusy())
     b28:	80 fd       	sbrc	r24, 0
     b2a:	fc cf       	rjmp	.-8      	; 0xb24 <i2cMasterResendData>
		;	// Wait until TWI is ready for next transmission
	i2cStatusReg.all = 0;
     b2c:	10 92 84 01 	sts	0x0184, r1
	i2cState = I2C_NO_STATE;
     b30:	88 ef       	ldi	r24, 0xF8	; 248
     b32:	80 93 67 01 	sts	0x0167, r24
	TWCR = (1 << TWEN) | (1 << TWIE) | (1 << TWINT) | (1 << TWSTA);
     b36:	85 ea       	ldi	r24, 0xA5	; 165
     b38:	80 93 bc 00 	sts	0x00BC, r24
	return;
}
     b3c:	08 95       	ret

00000b3e <i2cMasterErrorHandler>:
 * received a NACK on the slave address, then a retransmission will be
 * initiated.
 * -------------------------------------------------------------------------- */

uint8 i2cMasterErrorHandler(uint8 i2cErrorCode)
{
     b3e:	1f 93       	push	r17
     b40:	18 2f       	mov	r17, r24
	if((i2cErrorCode == I2C_MTX_ADR_NACK) | (i2cErrorCode == I2C_MRX_ADR_NACK))
     b42:	80 32       	cpi	r24, 0x20	; 32
     b44:	11 f0       	breq	.+4      	; 0xb4a <i2cMasterErrorHandler+0xc>
     b46:	88 34       	cpi	r24, 0x48	; 72
     b48:	11 f4       	brne	.+4      	; 0xb4e <i2cMasterErrorHandler+0x10>
		i2cMasterResendData();
     b4a:	0e 94 92 05 	call	0xb24	; 0xb24 <i2cMasterResendData>
	return i2cErrorCode;
}
     b4e:	81 2f       	mov	r24, r17
     b50:	1f 91       	pop	r17
     b52:	08 95       	ret

00000b54 <__vector_24>:

// -----------------------------------------------------------------------------
// Interruption handler --------------------------------------------------------

ISR(TWI_vect)
{
     b54:	1f 92       	push	r1
     b56:	0f 92       	push	r0
     b58:	0f b6       	in	r0, 0x3f	; 63
     b5a:	0f 92       	push	r0
     b5c:	11 24       	eor	r1, r1
     b5e:	2f 93       	push	r18
     b60:	3f 93       	push	r19
     b62:	8f 93       	push	r24
     b64:	9f 93       	push	r25
     b66:	ef 93       	push	r30
     b68:	ff 93       	push	r31
	static uint8 i2cBufferPtr;

	switch(TWSR){
     b6a:	80 91 b9 00 	lds	r24, 0x00B9
     b6e:	88 32       	cpi	r24, 0x28	; 40
     b70:	d1 f0       	breq	.+52     	; 0xba6 <__vector_24+0x52>
     b72:	89 32       	cpi	r24, 0x29	; 41
     b74:	40 f4       	brcc	.+16     	; 0xb86 <__vector_24+0x32>
     b76:	80 31       	cpi	r24, 0x10	; 16
     b78:	a1 f0       	breq	.+40     	; 0xba2 <__vector_24+0x4e>
     b7a:	88 31       	cpi	r24, 0x18	; 24
     b7c:	a1 f0       	breq	.+40     	; 0xba6 <__vector_24+0x52>
     b7e:	88 30       	cpi	r24, 0x08	; 8
     b80:	09 f0       	breq	.+2      	; 0xb84 <__vector_24+0x30>
     b82:	4d c0       	rjmp	.+154    	; 0xc1e <__vector_24+0xca>
     b84:	0e c0       	rjmp	.+28     	; 0xba2 <__vector_24+0x4e>
     b86:	80 34       	cpi	r24, 0x40	; 64
     b88:	59 f1       	breq	.+86     	; 0xbe0 <__vector_24+0x8c>
     b8a:	81 34       	cpi	r24, 0x41	; 65
     b8c:	20 f4       	brcc	.+8      	; 0xb96 <__vector_24+0x42>
     b8e:	88 33       	cpi	r24, 0x38	; 56
     b90:	09 f0       	breq	.+2      	; 0xb94 <__vector_24+0x40>
     b92:	45 c0       	rjmp	.+138    	; 0xc1e <__vector_24+0xca>
     b94:	42 c0       	rjmp	.+132    	; 0xc1a <__vector_24+0xc6>
     b96:	80 35       	cpi	r24, 0x50	; 80
     b98:	b9 f0       	breq	.+46     	; 0xbc8 <__vector_24+0x74>
     b9a:	88 35       	cpi	r24, 0x58	; 88
     b9c:	09 f0       	breq	.+2      	; 0xba0 <__vector_24+0x4c>
     b9e:	3f c0       	rjmp	.+126    	; 0xc1e <__vector_24+0xca>
     ba0:	2d c0       	rjmp	.+90     	; 0xbfc <__vector_24+0xa8>
	case I2C_START:			// START has been transmitted
	case I2C_REP_START:		// Repeated START has been transmitted
		i2cBufferPtr = 0;	// Set buffer pointer to the TWI Address location
     ba2:	10 92 85 01 	sts	0x0185, r1
	case I2C_MTX_ADR_ACK:		// SLA+W has been tramsmitted and ACK received
	case I2C_MTX_DATA_ACK:		// Data byte has been tramsmitted and ACK received
		if(i2cBufferPtr < i2cMsgSize){
     ba6:	90 91 85 01 	lds	r25, 0x0185
     baa:	80 91 8a 01 	lds	r24, 0x018A
     bae:	98 17       	cp	r25, r24
     bb0:	68 f5       	brcc	.+90     	; 0xc0c <__vector_24+0xb8>
			TWDR = i2cBuffer[i2cBufferPtr++];
     bb2:	e9 2f       	mov	r30, r25
     bb4:	f0 e0       	ldi	r31, 0x00	; 0
     bb6:	ea 57       	subi	r30, 0x7A	; 122
     bb8:	fe 4f       	sbci	r31, 0xFE	; 254
     bba:	80 81       	ld	r24, Z
     bbc:	80 93 bb 00 	sts	0x00BB, r24
     bc0:	9f 5f       	subi	r25, 0xFF	; 255
     bc2:	90 93 85 01 	sts	0x0185, r25
     bc6:	18 c0       	rjmp	.+48     	; 0xbf8 <__vector_24+0xa4>
			i2cStatusReg.lastTransOK = TRUE;	// Set status bits to completed successfully
			TWCR = (1 << TWEN) | (1 << TWINT) | (1 << TWSTO);
		}
		break;
	case I2C_MRX_DATA_ACK:		// Data byte has been received and ACK tramsmitted
		i2cBuffer[i2cBufferPtr++] = TWDR;
     bc8:	80 91 85 01 	lds	r24, 0x0185
     bcc:	90 91 bb 00 	lds	r25, 0x00BB
     bd0:	e8 2f       	mov	r30, r24
     bd2:	f0 e0       	ldi	r31, 0x00	; 0
     bd4:	ea 57       	subi	r30, 0x7A	; 122
     bd6:	fe 4f       	sbci	r31, 0xFE	; 254
     bd8:	90 83       	st	Z, r25
     bda:	8f 5f       	subi	r24, 0xFF	; 255
     bdc:	80 93 85 01 	sts	0x0185, r24
	case I2C_MRX_ADR_ACK:		// SLA+R has been tramsmitted and ACK received
		if(i2cBufferPtr < (i2cMsgSize - 1))	// Detect the last byte to NACK it
     be0:	20 91 85 01 	lds	r18, 0x0185
     be4:	30 e0       	ldi	r19, 0x00	; 0
     be6:	80 91 8a 01 	lds	r24, 0x018A
     bea:	90 e0       	ldi	r25, 0x00	; 0
     bec:	01 97       	sbiw	r24, 0x01	; 1
     bee:	28 17       	cp	r18, r24
     bf0:	39 07       	cpc	r19, r25
     bf2:	14 f4       	brge	.+4      	; 0xbf8 <__vector_24+0xa4>
			TWCR = (1 << TWEN) | (1 << TWIE) | (1 << TWINT) | (1 << TWEA);
     bf4:	85 ec       	ldi	r24, 0xC5	; 197
     bf6:	18 c0       	rjmp	.+48     	; 0xc28 <__vector_24+0xd4>
		else			// Send NACK after next reception
			TWCR = (1 << TWEN) | (1 << TWIE) | (1 << TWINT);
     bf8:	85 e8       	ldi	r24, 0x85	; 133
     bfa:	16 c0       	rjmp	.+44     	; 0xc28 <__vector_24+0xd4>
		break;
	case I2C_MRX_DATA_NACK:		// Data byte has been received and NACK tramsmitted
		i2cBuffer[i2cBufferPtr] = TWDR;
     bfc:	80 91 bb 00 	lds	r24, 0x00BB
     c00:	e0 91 85 01 	lds	r30, 0x0185
     c04:	f0 e0       	ldi	r31, 0x00	; 0
     c06:	ea 57       	subi	r30, 0x7A	; 122
     c08:	fe 4f       	sbci	r31, 0xFE	; 254
     c0a:	80 83       	st	Z, r24
		i2cStatusReg.lastTransOK = TRUE;	// Set status bits to completed successfully
     c0c:	80 91 84 01 	lds	r24, 0x0184
     c10:	81 60       	ori	r24, 0x01	; 1
     c12:	80 93 84 01 	sts	0x0184, r24
		TWCR = (1 << TWEN) | (1 << TWINT) | (1 << TWSTO);
     c16:	84 e9       	ldi	r24, 0x94	; 148
     c18:	07 c0       	rjmp	.+14     	; 0xc28 <__vector_24+0xd4>
		break;
	case I2C_ARB_LOST:		// Arbitration lost
		TWCR = (1 << TWEN) | (1 << TWIE) | (1 << TWINT) | (1 << TWSTA);
     c1a:	85 ea       	ldi	r24, 0xA5	; 165
     c1c:	05 c0       	rjmp	.+10     	; 0xc28 <__vector_24+0xd4>
	case I2C_MTX_ADR_NACK:		// SLA+W has been tramsmitted and NACK received
	case I2C_MRX_ADR_NACK:		// SLA+R has been tramsmitted and NACK received    
	case I2C_MTX_DATA_NACK:		// Data byte has been tramsmitted and NACK received
	case I2C_BUS_ERROR:		// Bus error due to an illegal START or STOP condition
	default:
		i2cState = TWSR;	// Store TWSR and automatically sets clears noErrors bit
     c1e:	80 91 b9 00 	lds	r24, 0x00B9
     c22:	80 93 67 01 	sts	0x0167, r24
		TWCR = (1 << TWEN);	// Reset TWI Interface
     c26:	84 e0       	ldi	r24, 0x04	; 4
     c28:	80 93 bc 00 	sts	0x00BC, r24
		break;
	}
	return;
}
     c2c:	ff 91       	pop	r31
     c2e:	ef 91       	pop	r30
     c30:	9f 91       	pop	r25
     c32:	8f 91       	pop	r24
     c34:	3f 91       	pop	r19
     c36:	2f 91       	pop	r18
     c38:	0f 90       	pop	r0
     c3a:	0f be       	out	0x3f, r0	; 63
     c3c:	0f 90       	pop	r0
     c3e:	1f 90       	pop	r1
     c40:	18 95       	reti

00000c42 <eepromWrite>:
 * Writes a byte in the specified address in the EEPROM
 * -------------------------------------------------------------------------- */

void eepromWrite(uint8 data, uint16 address)
{
	waitUntilBitIsClear(EECR, EEPE);
     c42:	f9 99       	sbic	0x1f, 1	; 31
     c44:	fe cf       	rjmp	.-4      	; 0xc42 <eepromWrite>
	EEAR = (address & 0x01FF);
     c46:	71 70       	andi	r23, 0x01	; 1
     c48:	72 bd       	out	0x22, r23	; 34
     c4a:	61 bd       	out	0x21, r22	; 33
	EEDR = data;
     c4c:	80 bd       	out	0x20, r24	; 32
	setBit(EECR, EEMPE);
     c4e:	fa 9a       	sbi	0x1f, 2	; 31
	setBit(EECR, EEPE);
     c50:	f9 9a       	sbi	0x1f, 1	; 31
	return;
}
     c52:	08 95       	ret

00000c54 <eepromRead>:
 * Reads a byte from the specified address in the EEPROM
 * -------------------------------------------------------------------------- */

uint8 eepromRead(uint16 address)
{
	waitUntilBitIsClear(EECR, EEPE);
     c54:	f9 99       	sbic	0x1f, 1	; 31
     c56:	fe cf       	rjmp	.-4      	; 0xc54 <eepromRead>
	EEAR = (address & 0x01FF);
     c58:	91 70       	andi	r25, 0x01	; 1
     c5a:	92 bd       	out	0x22, r25	; 34
     c5c:	81 bd       	out	0x21, r24	; 33
	setBit(EECR, EERE);
     c5e:	f8 9a       	sbi	0x1f, 0	; 31
	return EEDR;
     c60:	80 b5       	in	r24, 0x20	; 32
}
     c62:	08 95       	ret

00000c64 <timer1SetCounterValue>:

void timer1SetCounterValue(uint16 value)
{
	uint8 sreg;

	sreg = SREG;
     c64:	2f b7       	in	r18, 0x3f	; 63
	cli();
     c66:	f8 94       	cli
	TCNT1 = value;
     c68:	90 93 85 00 	sts	0x0085, r25
     c6c:	80 93 84 00 	sts	0x0084, r24
	SREG = sreg;
     c70:	2f bf       	out	0x3f, r18	; 63

	return;
}
     c72:	08 95       	ret

00000c74 <timer1GetCounterValue>:
uint16 timer1GetCounterValue(void)
{
	uint8 sreg;
	uint16 aux;

	sreg = SREG;
     c74:	8f b7       	in	r24, 0x3f	; 63
	cli();
     c76:	f8 94       	cli
	aux = TCNT1;
     c78:	20 91 84 00 	lds	r18, 0x0084
     c7c:	30 91 85 00 	lds	r19, 0x0085
	SREG = sreg;
     c80:	8f bf       	out	0x3f, r24	; 63

	return aux;
}
     c82:	c9 01       	movw	r24, r18
     c84:	08 95       	ret

00000c86 <timer1SetCompareAValue>:

void timer1SetCompareAValue(uint16 value)
{
	uint8 sreg;

	sreg = SREG;
     c86:	2f b7       	in	r18, 0x3f	; 63
	cli();
     c88:	f8 94       	cli
	OCR1A = value;
     c8a:	90 93 89 00 	sts	0x0089, r25
     c8e:	80 93 88 00 	sts	0x0088, r24
	SREG = sreg;
     c92:	2f bf       	out	0x3f, r18	; 63

	return;
}
     c94:	08 95       	ret

00000c96 <timer1GetCompareAValue>:
uint16 timer1GetCompareAValue(void)
{
	uint8 sreg;
	uint16 aux;

	sreg = SREG;
     c96:	8f b7       	in	r24, 0x3f	; 63
	cli();
     c98:	f8 94       	cli
	aux = OCR1A;
     c9a:	20 91 88 00 	lds	r18, 0x0088
     c9e:	30 91 89 00 	lds	r19, 0x0089
	SREG = sreg;
     ca2:	8f bf       	out	0x3f, r24	; 63

	return aux;
}
     ca4:	c9 01       	movw	r24, r18
     ca6:	08 95       	ret

00000ca8 <timer1SetCompareBValue>:

void timer1SetCompareBValue(uint16 value)
{
	uint8 sreg;

	sreg = SREG;
     ca8:	2f b7       	in	r18, 0x3f	; 63
	cli();
     caa:	f8 94       	cli
	OCR1B = value;
     cac:	90 93 8b 00 	sts	0x008B, r25
     cb0:	80 93 8a 00 	sts	0x008A, r24
	SREG = sreg;
     cb4:	2f bf       	out	0x3f, r18	; 63

	return;
}
     cb6:	08 95       	ret

00000cb8 <timer1GetCompareBValue>:
uint16 timer1GetCompareBValue(void)
{
	uint8 sreg;
	uint16 aux;

	sreg = SREG;
     cb8:	8f b7       	in	r24, 0x3f	; 63
	cli();
     cba:	f8 94       	cli
	aux = OCR1B;
     cbc:	20 91 8a 00 	lds	r18, 0x008A
     cc0:	30 91 8b 00 	lds	r19, 0x008B
	SREG = sreg;
     cc4:	8f bf       	out	0x3f, r24	; 63

	return aux;
}
     cc6:	c9 01       	movw	r24, r18
     cc8:	08 95       	ret

00000cca <timer1SetInputCaptureValue>:

void timer1SetInputCaptureValue(uint16 value)
{
	uint8 sreg;

	sreg = SREG;
     cca:	2f b7       	in	r18, 0x3f	; 63
	cli();
     ccc:	f8 94       	cli
	ICR1 = value;
     cce:	90 93 87 00 	sts	0x0087, r25
     cd2:	80 93 86 00 	sts	0x0086, r24
	SREG = sreg;
     cd6:	2f bf       	out	0x3f, r18	; 63

	return;
}
     cd8:	08 95       	ret

00000cda <timer1GetInputCaptureValue>:
uint16 timer1GetInputCaptureValue(void)
{
	uint8 sreg;
	uint16 aux;

	sreg = SREG;
     cda:	8f b7       	in	r24, 0x3f	; 63
	cli();
     cdc:	f8 94       	cli
	aux = ICR1;
     cde:	20 91 86 00 	lds	r18, 0x0086
     ce2:	30 91 87 00 	lds	r19, 0x0087
	SREG = sreg;
     ce6:	8f bf       	out	0x3f, r24	; 63

	return aux;
}
     ce8:	c9 01       	movw	r24, r18
     cea:	08 95       	ret

00000cec <spiInit>:
 * Configures the SPI controller
 * -------------------------------------------------------------------------- */

void spiInit(void)
{
	if(spiConfiguration.masterSlave){
     cec:	80 91 93 01 	lds	r24, 0x0193
     cf0:	81 ff       	sbrs	r24, 1
     cf2:	04 c0       	rjmp	.+8      	; 0xcfc <spiInit+0x10>
		setBit(SPI_DDR, SPI_MOSI);
     cf4:	23 9a       	sbi	0x04, 3	; 4
		setBit(SPI_DDR, SPI_SCK);
     cf6:	25 9a       	sbi	0x04, 5	; 4
		clrBit(SPI_DDR, SPI_MISO);
     cf8:	24 98       	cbi	0x04, 4	; 4
     cfa:	03 c0       	rjmp	.+6      	; 0xd02 <spiInit+0x16>
	}else{
		clrBit(SPI_DDR, SPI_MOSI);
     cfc:	23 98       	cbi	0x04, 3	; 4
		clrBit(SPI_DDR, SPI_SCK);
     cfe:	25 98       	cbi	0x04, 5	; 4
		setBit(SPI_DDR, SPI_MISO);
     d00:	24 9a       	sbi	0x04, 4	; 4
	}
	if(spiConfiguration.doubleSpeed)
     d02:	80 91 94 01 	lds	r24, 0x0194
     d06:	81 ff       	sbrs	r24, 1
     d08:	03 c0       	rjmp	.+6      	; 0xd10 <spiInit+0x24>
		setBit(SPSR, SPI2X);
     d0a:	8d b5       	in	r24, 0x2d	; 45
     d0c:	81 60       	ori	r24, 0x01	; 1
     d0e:	02 c0       	rjmp	.+4      	; 0xd14 <spiInit+0x28>
	else
		clrBit(SPSR, SPI2X);
     d10:	8d b5       	in	r24, 0x2d	; 45
     d12:	8e 7f       	andi	r24, 0xFE	; 254
     d14:	8d bd       	out	0x2d, r24	; 45
	SPCR =	(spiConfiguration.interruptEnabled << SPIE) | 
     d16:	90 91 93 01 	lds	r25, 0x0193
     d1a:	29 2f       	mov	r18, r25
     d1c:	26 95       	lsr	r18
     d1e:	26 95       	lsr	r18
     d20:	27 95       	ror	r18
     d22:	22 27       	eor	r18, r18
     d24:	27 95       	ror	r18
     d26:	89 2f       	mov	r24, r25
     d28:	81 70       	andi	r24, 0x01	; 1
     d2a:	82 95       	swap	r24
     d2c:	88 0f       	add	r24, r24
     d2e:	88 0f       	add	r24, r24
     d30:	80 7c       	andi	r24, 0xC0	; 192
     d32:	82 2b       	or	r24, r18
     d34:	29 2f       	mov	r18, r25
     d36:	22 95       	swap	r18
     d38:	26 95       	lsr	r18
     d3a:	26 95       	lsr	r18
     d3c:	23 70       	andi	r18, 0x03	; 3
     d3e:	82 2b       	or	r24, r18
     d40:	29 2f       	mov	r18, r25
     d42:	22 0f       	add	r18, r18
     d44:	22 0f       	add	r18, r18
     d46:	20 72       	andi	r18, 0x20	; 32
     d48:	28 2b       	or	r18, r24
     d4a:	89 2f       	mov	r24, r25
     d4c:	88 0f       	add	r24, r24
     d4e:	88 0f       	add	r24, r24
     d50:	88 0f       	add	r24, r24
     d52:	80 71       	andi	r24, 0x10	; 16
     d54:	82 2b       	or	r24, r18
     d56:	96 95       	lsr	r25
     d58:	29 2f       	mov	r18, r25
     d5a:	28 70       	andi	r18, 0x08	; 8
     d5c:	28 2b       	or	r18, r24
     d5e:	96 95       	lsr	r25
     d60:	96 95       	lsr	r25
     d62:	94 70       	andi	r25, 0x04	; 4
     d64:	92 2b       	or	r25, r18
     d66:	9c bd       	out	0x2c, r25	; 44
			(spiConfiguration.sckIdleValue << CPOL) | 
			(spiConfiguration.leadingTrailingEdge << CPHA) | 
			(spiConfiguration.clockPrescaler & 0x03);

	return;
}
     d68:	08 95       	ret

00000d6a <spiMasterTransmit>:
 * Transmit data at the SPI bus in master mode
 * -------------------------------------------------------------------------- */

uint8 spiMasterTransmit(uint8 data)
{
	SPDR = data;
     d6a:	8e bd       	out	0x2e, r24	; 46
	waitUntilBitIsClear(SPSR, SPIF);
     d6c:	0d b4       	in	r0, 0x2d	; 45
     d6e:	07 fc       	sbrc	r0, 7
     d70:	fd cf       	rjmp	.-6      	; 0xd6c <spiMasterTransmit+0x2>
	return SPDR;
     d72:	8e b5       	in	r24, 0x2e	; 46
}
     d74:	08 95       	ret

00000d76 <spiSlaveTransmit>:
 * Receives data from the SPI bus
 * -------------------------------------------------------------------------- */

uint8 spiSlaveTransmit(void)
{
	waitUntilBitIsClear(SPSR, SPIF);
     d76:	0d b4       	in	r0, 0x2d	; 45
     d78:	07 fc       	sbrc	r0, 7
     d7a:	fd cf       	rjmp	.-6      	; 0xd76 <spiSlaveTransmit>
	return SPDR;
     d7c:	8e b5       	in	r24, 0x2e	; 46
}
     d7e:	08 95       	ret

00000d80 <adcGetConfiguration>:
/* -----------------------------------------------------------------------------
 * Get the current ADC configuration
 * -------------------------------------------------------------------------- */

adcConfiguration_t adcGetConfiguration(void)
{
     d80:	df 93       	push	r29
     d82:	cf 93       	push	r28
     d84:	00 d0       	rcall	.+0      	; 0xd86 <adcGetConfiguration+0x6>
     d86:	0f 92       	push	r0
     d88:	cd b7       	in	r28, 0x3d	; 61
     d8a:	de b7       	in	r29, 0x3e	; 62
	return adcConfiguration;
     d8c:	de 01       	movw	r26, r28
     d8e:	11 96       	adiw	r26, 0x01	; 1
     d90:	eb ec       	ldi	r30, 0xCB	; 203
     d92:	f1 e0       	ldi	r31, 0x01	; 1
     d94:	83 e0       	ldi	r24, 0x03	; 3
     d96:	01 90       	ld	r0, Z+
     d98:	0d 92       	st	X+, r0
     d9a:	81 50       	subi	r24, 0x01	; 1
     d9c:	e1 f7       	brne	.-8      	; 0xd96 <adcGetConfiguration+0x16>
     d9e:	69 81       	ldd	r22, Y+1	; 0x01
     da0:	7a 81       	ldd	r23, Y+2	; 0x02
}
     da2:	8b 81       	ldd	r24, Y+3	; 0x03
     da4:	90 e0       	ldi	r25, 0x00	; 0
     da6:	0f 90       	pop	r0
     da8:	0f 90       	pop	r0
     daa:	0f 90       	pop	r0
     dac:	cf 91       	pop	r28
     dae:	df 91       	pop	r29
     db0:	08 95       	ret

00000db2 <adcLoadConfiguration>:
/* -----------------------------------------------------------------------------
 * Load an ADC configuration
 * -------------------------------------------------------------------------- */

void adcLoadConfiguration(adcConfiguration_t config)
{
     db2:	cf 92       	push	r12
     db4:	df 92       	push	r13
     db6:	ef 92       	push	r14
     db8:	ff 92       	push	r15
     dba:	0f 93       	push	r16
     dbc:	1f 93       	push	r17
     dbe:	df 93       	push	r29
     dc0:	cf 93       	push	r28
     dc2:	00 d0       	rcall	.+0      	; 0xdc4 <adcLoadConfiguration+0x12>
     dc4:	0f 92       	push	r0
     dc6:	cd b7       	in	r28, 0x3d	; 61
     dc8:	de b7       	in	r29, 0x3e	; 62
     dca:	33 e0       	ldi	r19, 0x03	; 3
     dcc:	d3 2e       	mov	r13, r19
     dce:	d6 22       	and	r13, r22
     dd0:	47 2f       	mov	r20, r23
     dd2:	46 95       	lsr	r20
     dd4:	41 70       	andi	r20, 0x01	; 1
     dd6:	18 2f       	mov	r17, r24
     dd8:	12 95       	swap	r17
     dda:	11 70       	andi	r17, 0x01	; 1
     ddc:	56 2f       	mov	r21, r22
     dde:	52 95       	swap	r21
     de0:	56 95       	lsr	r21
     de2:	51 70       	andi	r21, 0x01	; 1
     de4:	08 2f       	mov	r16, r24
     de6:	02 95       	swap	r16
     de8:	06 95       	lsr	r16
     dea:	01 70       	andi	r16, 0x01	; 1
     dec:	a8 2f       	mov	r26, r24
     dee:	a2 95       	swap	r26
     df0:	a6 95       	lsr	r26
     df2:	a6 95       	lsr	r26
     df4:	a1 70       	andi	r26, 0x01	; 1
     df6:	96 2f       	mov	r25, r22
     df8:	92 95       	swap	r25
     dfa:	96 95       	lsr	r25
     dfc:	96 95       	lsr	r25
     dfe:	93 70       	andi	r25, 0x03	; 3
     e00:	ff 24       	eor	r15, r15
     e02:	f3 94       	inc	r15
     e04:	f7 22       	and	r15, r23
     e06:	ff 0c       	add	r15, r15
     e08:	ff 0c       	add	r15, r15
     e0a:	f9 2a       	or	r15, r25
     e0c:	97 2f       	mov	r25, r23
     e0e:	92 95       	swap	r25
     e10:	96 95       	lsr	r25
     e12:	96 95       	lsr	r25
     e14:	93 70       	andi	r25, 0x03	; 3
     e16:	b8 2f       	mov	r27, r24
     e18:	bf 70       	andi	r27, 0x0F	; 15
     e1a:	bb 0f       	add	r27, r27
     e1c:	bb 0f       	add	r27, r27
     e1e:	b9 2b       	or	r27, r25
	adcConfiguration = config;
     e20:	80 78       	andi	r24, 0x80	; 128
     e22:	90 91 cd 01 	lds	r25, 0x01CD
     e26:	90 77       	andi	r25, 0x70	; 112
     e28:	ed ec       	ldi	r30, 0xCD	; 205
     e2a:	f1 e0       	ldi	r31, 0x01	; 1
     e2c:	3b 2f       	mov	r19, r27
     e2e:	32 95       	swap	r19
     e30:	33 0f       	add	r19, r19
     e32:	33 0f       	add	r19, r19
     e34:	30 7c       	andi	r19, 0xC0	; 192
     e36:	22 91       	ld	r18, -Z
     e38:	2b 2f       	mov	r18, r27
     e3a:	26 95       	lsr	r18
     e3c:	26 95       	lsr	r18
     e3e:	98 2b       	or	r25, r24
     e40:	92 2b       	or	r25, r18
     e42:	ef 2c       	mov	r14, r15
     e44:	e2 94       	swap	r14
     e46:	ee 0c       	add	r14, r14
     e48:	ee 0c       	add	r14, r14
     e4a:	20 ec       	ldi	r18, 0xC0	; 192
     e4c:	e2 22       	and	r14, r18
     e4e:	cf 2c       	mov	r12, r15
     e50:	c6 94       	lsr	r12
     e52:	c6 94       	lsr	r12
     e54:	a2 95       	swap	r26
     e56:	aa 0f       	add	r26, r26
     e58:	aa 0f       	add	r26, r26
     e5a:	a0 7c       	andi	r26, 0xC0	; 192
     e5c:	9f 79       	andi	r25, 0x9F	; 159
/* -----------------------------------------------------------------------------
 * Load an ADC configuration
 * -------------------------------------------------------------------------- */

void adcLoadConfiguration(adcConfiguration_t config)
{
     e5e:	66 95       	lsr	r22
     e60:	66 95       	lsr	r22
	adcConfiguration = config;
     e62:	67 70       	andi	r22, 0x07	; 7
     e64:	86 2f       	mov	r24, r22
     e66:	88 0f       	add	r24, r24
     e68:	88 0f       	add	r24, r24
     e6a:	20 2f       	mov	r18, r16
     e6c:	22 95       	swap	r18
     e6e:	22 0f       	add	r18, r18
     e70:	20 7e       	andi	r18, 0xE0	; 224
     e72:	9a 2b       	or	r25, r26
     e74:	92 2b       	or	r25, r18
     e76:	52 95       	swap	r21
     e78:	55 0f       	add	r21, r21
     e7a:	50 7e       	andi	r21, 0xE0	; 224
     e7c:	8e 29       	or	r24, r14
     e7e:	12 95       	swap	r17
     e80:	10 7f       	andi	r17, 0xF0	; 240
     e82:	9f 7e       	andi	r25, 0xEF	; 239
     e84:	91 2b       	or	r25, r17
     e86:	90 93 cd 01 	sts	0x01CD, r25
/* -----------------------------------------------------------------------------
 * Load an ADC configuration
 * -------------------------------------------------------------------------- */

void adcLoadConfiguration(adcConfiguration_t config)
{
     e8a:	76 95       	lsr	r23
     e8c:	76 95       	lsr	r23
	adcConfiguration = config;
     e8e:	7f 70       	andi	r23, 0x0F	; 15
     e90:	97 2f       	mov	r25, r23
     e92:	99 0f       	add	r25, r25
     e94:	99 0f       	add	r25, r25
     e96:	3c 29       	or	r19, r12
     e98:	44 0f       	add	r20, r20
     e9a:	39 2b       	or	r19, r25
     e9c:	34 2b       	or	r19, r20
     e9e:	30 83       	st	Z, r19
     ea0:	85 2b       	or	r24, r21
     ea2:	8d 29       	or	r24, r13
     ea4:	80 93 cb 01 	sts	0x01CB, r24

	ADMUX =	((config.reference & 0x03) << 6) | 
     ea8:	d2 94       	swap	r13
     eaa:	dd 0c       	add	r13, r13
     eac:	dd 0c       	add	r13, r13
     eae:	80 ec       	ldi	r24, 0xC0	; 192
     eb0:	d8 22       	and	r13, r24
     eb2:	42 95       	swap	r20
     eb4:	40 7f       	andi	r20, 0xF0	; 240
     eb6:	4d 29       	or	r20, r13
     eb8:	47 2b       	or	r20, r23
     eba:	40 93 7c 00 	sts	0x007C, r20
			(config.leftAdjust << 5) | 
			(config.channel & 0x0F);
	ADCSRA =	(config.enabled << 7) |
     ebe:	11 0f       	add	r17, r17
     ec0:	11 0f       	add	r17, r17
     ec2:	11 0f       	add	r17, r17
     ec4:	51 2b       	or	r21, r17
     ec6:	56 2b       	or	r21, r22
     ec8:	00 0f       	add	r16, r16
     eca:	00 0f       	add	r16, r16
     ecc:	00 0f       	add	r16, r16
     ece:	05 2b       	or	r16, r21
     ed0:	00 93 7a 00 	sts	0x007A, r16
				(config.automaticMode << 5) |
				(config.interruptEnabled << 3) |
				(config.clockPrescaller & 0x07);
	ADCSRB =	(config.analogComparator << 6) |
     ed4:	af 29       	or	r26, r15
     ed6:	a0 93 7b 00 	sts	0x007B, r26
				(config.triggerSource & 0x07);
	DIDR0 =	config.digitalDisabled & 0x3F;
     eda:	bf 73       	andi	r27, 0x3F	; 63
     edc:	b0 93 7e 00 	sts	0x007E, r27
	return;
}
     ee0:	0f 90       	pop	r0
     ee2:	0f 90       	pop	r0
     ee4:	0f 90       	pop	r0
     ee6:	cf 91       	pop	r28
     ee8:	df 91       	pop	r29
     eea:	1f 91       	pop	r17
     eec:	0f 91       	pop	r16
     eee:	ff 90       	pop	r15
     ef0:	ef 90       	pop	r14
     ef2:	df 90       	pop	r13
     ef4:	cf 90       	pop	r12
     ef6:	08 95       	ret

00000ef8 <usartInit>:
/* -----------------------------------------------------------------------------
 * Configures the USART controller
 * -------------------------------------------------------------------------- */

void usartInit(uint32 baudRate)
{
     ef8:	9b 01       	movw	r18, r22
     efa:	ac 01       	movw	r20, r24
	uint64 aux64;

	// Clear errors
	UCSR0A &= 0xE3;
     efc:	80 91 c0 00 	lds	r24, 0x00C0
     f00:	83 7e       	andi	r24, 0xE3	; 227
     f02:	80 93 c0 00 	sts	0x00C0, r24
	usartConfiguration.frameError = 0;
     f06:	60 91 c7 01 	lds	r22, 0x01C7
	usartConfiguration.bufferOverflowError = 0;
	usartConfiguration.parityError = 0;
     f0a:	86 2f       	mov	r24, r22
     f0c:	87 7c       	andi	r24, 0xC7	; 199
     f0e:	80 93 c7 01 	sts	0x01C7, r24

	// USART configuration
	switch(usartConfiguration.mode){
     f12:	86 2f       	mov	r24, r22
     f14:	83 70       	andi	r24, 0x03	; 3
     f16:	90 e0       	ldi	r25, 0x00	; 0
     f18:	81 30       	cpi	r24, 0x01	; 1
     f1a:	91 05       	cpc	r25, r1
     f1c:	31 f1       	breq	.+76     	; 0xf6a <usartInit+0x72>
     f1e:	82 30       	cpi	r24, 0x02	; 2
     f20:	91 05       	cpc	r25, r1
     f22:	1c f4       	brge	.+6      	; 0xf2a <usartInit+0x32>
     f24:	89 2b       	or	r24, r25
     f26:	41 f0       	breq	.+16     	; 0xf38 <usartInit+0x40>
     f28:	80 c0       	rjmp	.+256    	; 0x102a <usartInit+0x132>
     f2a:	82 30       	cpi	r24, 0x02	; 2
     f2c:	91 05       	cpc	r25, r1
     f2e:	b1 f1       	breq	.+108    	; 0xf9c <usartInit+0xa4>
     f30:	03 97       	sbiw	r24, 0x03	; 3
     f32:	09 f0       	breq	.+2      	; 0xf36 <usartInit+0x3e>
     f34:	7a c0       	rjmp	.+244    	; 0x102a <usartInit+0x132>
     f36:	4d c0       	rjmp	.+154    	; 0xfd2 <usartInit+0xda>
	case 0:
		clrBit(UCSR0A, U2X0);			// Normal speed
     f38:	80 91 c0 00 	lds	r24, 0x00C0
     f3c:	8d 7f       	andi	r24, 0xFD	; 253
     f3e:	80 93 c0 00 	sts	0x00C0, r24
		clrBit(UCSR0C, UCPOL0);			// Write zero in asynchronous mode
     f42:	80 91 c2 00 	lds	r24, 0x00C2
     f46:	8e 7f       	andi	r24, 0xFE	; 254
     f48:	80 93 c2 00 	sts	0x00C2, r24
		clrBit(UCSR0C, UMSEL01);		// Asynchronous mode
     f4c:	80 91 c2 00 	lds	r24, 0x00C2
     f50:	8f 77       	andi	r24, 0x7F	; 127
     f52:	80 93 c2 00 	sts	0x00C2, r24
		clrBit(UCSR0C, UMSEL00);		// Asynchronous mode
     f56:	80 91 c2 00 	lds	r24, 0x00C2
     f5a:	8f 7b       	andi	r24, 0xBF	; 191
     f5c:	80 93 c2 00 	sts	0x00C2, r24
		aux64 = F_CPU / 16 / baudRate;
		usartConfiguration.ubrr = (uint16)(aux64 - 1);
     f60:	60 e4       	ldi	r22, 0x40	; 64
     f62:	72 e4       	ldi	r23, 0x42	; 66
     f64:	8f e0       	ldi	r24, 0x0F	; 15
     f66:	90 e0       	ldi	r25, 0x00	; 0
     f68:	52 c0       	rjmp	.+164    	; 0x100e <usartInit+0x116>
		break;
	case 1:
		setBit(UCSR0A, U2X0);			// Double speed
     f6a:	80 91 c0 00 	lds	r24, 0x00C0
     f6e:	82 60       	ori	r24, 0x02	; 2
     f70:	80 93 c0 00 	sts	0x00C0, r24
		clrBit(UCSR0C, UCPOL0);			// Write zero in asynchronous mode
     f74:	80 91 c2 00 	lds	r24, 0x00C2
     f78:	8e 7f       	andi	r24, 0xFE	; 254
     f7a:	80 93 c2 00 	sts	0x00C2, r24
		clrBit(UCSR0C, UMSEL01);		// Asynchronous mode
     f7e:	80 91 c2 00 	lds	r24, 0x00C2
     f82:	8f 77       	andi	r24, 0x7F	; 127
     f84:	80 93 c2 00 	sts	0x00C2, r24
		clrBit(UCSR0C, UMSEL00);		// Asynchronous mode
     f88:	80 91 c2 00 	lds	r24, 0x00C2
     f8c:	8f 7b       	andi	r24, 0xBF	; 191
     f8e:	80 93 c2 00 	sts	0x00C2, r24
		aux64 = F_CPU / 8 / baudRate;
		usartConfiguration.ubrr = (uint16)(aux64 - 1);
     f92:	60 e8       	ldi	r22, 0x80	; 128
     f94:	74 e8       	ldi	r23, 0x84	; 132
     f96:	8e e1       	ldi	r24, 0x1E	; 30
     f98:	90 e0       	ldi	r25, 0x00	; 0
     f9a:	39 c0       	rjmp	.+114    	; 0x100e <usartInit+0x116>
		break;
	case 2:
		clrBit(UCSR0A, U2X0);			// Write zero in synchronous mode
     f9c:	80 91 c0 00 	lds	r24, 0x00C0
     fa0:	8d 7f       	andi	r24, 0xFD	; 253
     fa2:	80 93 c0 00 	sts	0x00C0, r24
		if(usartConfiguration.polarity)
     fa6:	62 ff       	sbrs	r22, 2
     fa8:	04 c0       	rjmp	.+8      	; 0xfb2 <usartInit+0xba>
			setBit(UCSR0C, UCPOL0);		// XCK rising edge
     faa:	80 91 c2 00 	lds	r24, 0x00C2
     fae:	81 60       	ori	r24, 0x01	; 1
     fb0:	03 c0       	rjmp	.+6      	; 0xfb8 <usartInit+0xc0>
		else
			clrBit(UCSR0C, UCPOL0);		// XCK falling edge
     fb2:	80 91 c2 00 	lds	r24, 0x00C2
     fb6:	8e 7f       	andi	r24, 0xFE	; 254
     fb8:	80 93 c2 00 	sts	0x00C2, r24
		clrBit(UCSR0C, UMSEL01);		// Synchronous mode
     fbc:	80 91 c2 00 	lds	r24, 0x00C2
     fc0:	8f 77       	andi	r24, 0x7F	; 127
     fc2:	80 93 c2 00 	sts	0x00C2, r24
		setBit(UCSR0C, UMSEL00);		// Synchronous mode
     fc6:	80 91 c2 00 	lds	r24, 0x00C2
     fca:	80 64       	ori	r24, 0x40	; 64
     fcc:	80 93 c2 00 	sts	0x00C2, r24
     fd0:	2c c0       	rjmp	.+88     	; 0x102a <usartInit+0x132>
		break;
	case 3:
		clrBit(UCSR0A, U2X0);			// Write zero in synchronous mode
     fd2:	80 91 c0 00 	lds	r24, 0x00C0
     fd6:	8d 7f       	andi	r24, 0xFD	; 253
     fd8:	80 93 c0 00 	sts	0x00C0, r24
		if(usartConfiguration.polarity)
     fdc:	62 ff       	sbrs	r22, 2
     fde:	04 c0       	rjmp	.+8      	; 0xfe8 <usartInit+0xf0>
			setBit(UCSR0C, UCPOL0);		// XCK rising edge
     fe0:	80 91 c2 00 	lds	r24, 0x00C2
     fe4:	81 60       	ori	r24, 0x01	; 1
     fe6:	03 c0       	rjmp	.+6      	; 0xfee <usartInit+0xf6>
		else
			clrBit(UCSR0C, UCPOL0);		// XCK falling edge
     fe8:	80 91 c2 00 	lds	r24, 0x00C2
     fec:	8e 7f       	andi	r24, 0xFE	; 254
     fee:	80 93 c2 00 	sts	0x00C2, r24
		setBit(UCSR0C, UMSEL01);		// Master SPI mode
     ff2:	80 91 c2 00 	lds	r24, 0x00C2
     ff6:	80 68       	ori	r24, 0x80	; 128
     ff8:	80 93 c2 00 	sts	0x00C2, r24
		setBit(UCSR0C, UMSEL00);		// Master SPI mode
     ffc:	80 91 c2 00 	lds	r24, 0x00C2
    1000:	80 64       	ori	r24, 0x40	; 64
    1002:	80 93 c2 00 	sts	0x00C2, r24
		aux64 = F_CPU / 2 / baudRate;
		usartConfiguration.ubrr = (uint16)(aux64 - 1);
    1006:	60 e0       	ldi	r22, 0x00	; 0
    1008:	72 e1       	ldi	r23, 0x12	; 18
    100a:	8a e7       	ldi	r24, 0x7A	; 122
    100c:	90 e0       	ldi	r25, 0x00	; 0
    100e:	0e 94 aa 0a 	call	0x1554	; 0x1554 <__udivmodsi4>
    1012:	21 50       	subi	r18, 0x01	; 1
    1014:	30 40       	sbci	r19, 0x00	; 0
    1016:	20 93 c9 01 	sts	0x01C9, r18
    101a:	93 2f       	mov	r25, r19
    101c:	9f 70       	andi	r25, 0x0F	; 15
    101e:	80 91 ca 01 	lds	r24, 0x01CA
    1022:	80 7f       	andi	r24, 0xF0	; 240
    1024:	89 2b       	or	r24, r25
    1026:	80 93 ca 01 	sts	0x01CA, r24
		break;
	}

	// Sets the baud rate
	UBRR0H = (uint8)(usartConfiguration.ubrr >> 8);
    102a:	80 91 c9 01 	lds	r24, 0x01C9
    102e:	40 91 ca 01 	lds	r20, 0x01CA
    1032:	94 2f       	mov	r25, r20
    1034:	9f 70       	andi	r25, 0x0F	; 15
    1036:	29 2f       	mov	r18, r25
    1038:	33 27       	eor	r19, r19
    103a:	27 fd       	sbrc	r18, 7
    103c:	3a 95       	dec	r19
    103e:	20 93 c5 00 	sts	0x00C5, r18
	UBRR0L = (uint8)usartConfiguration.ubrr;
    1042:	80 93 c4 00 	sts	0x00C4, r24

	// Receiver buffer
	if(usartConfiguration.receiverBufferEnable)
    1046:	45 ff       	sbrs	r20, 5
    1048:	0a c0       	rjmp	.+20     	; 0x105e <usartInit+0x166>
		usartActivateReceptionCompleteInterrupt();
    104a:	80 91 c1 00 	lds	r24, 0x00C1
    104e:	80 68       	ori	r24, 0x80	; 128
    1050:	80 93 c1 00 	sts	0x00C1, r24
    1054:	80 91 c8 01 	lds	r24, 0x01C8
    1058:	82 60       	ori	r24, 0x02	; 2
    105a:	80 93 c8 01 	sts	0x01C8, r24
    105e:	08 95       	ret

00001060 <usartCheckError>:
 * Checks if an error occurred during transmission or reception
 * -------------------------------------------------------------------------- */

uint8 usartCheckError(void)
{
	usartConfiguration.frameError = isBitSet(UCSR0A, FE0);
    1060:	e0 ec       	ldi	r30, 0xC0	; 192
    1062:	f0 e0       	ldi	r31, 0x00	; 0
    1064:	40 81       	ld	r20, Z
    1066:	42 95       	swap	r20
    1068:	41 70       	andi	r20, 0x01	; 1
    106a:	84 2f       	mov	r24, r20
    106c:	88 0f       	add	r24, r24
    106e:	88 0f       	add	r24, r24
    1070:	88 0f       	add	r24, r24
    1072:	90 91 c7 01 	lds	r25, 0x01C7
    1076:	97 7f       	andi	r25, 0xF7	; 247
    1078:	98 2b       	or	r25, r24
    107a:	90 93 c7 01 	sts	0x01C7, r25
	usartConfiguration.bufferOverflowError = isBitSet(UCSR0A, DOR0);
    107e:	80 81       	ld	r24, Z
    1080:	86 95       	lsr	r24
    1082:	86 95       	lsr	r24
    1084:	86 95       	lsr	r24
    1086:	81 70       	andi	r24, 0x01	; 1
    1088:	28 2f       	mov	r18, r24
    108a:	22 95       	swap	r18
    108c:	20 7f       	andi	r18, 0xF0	; 240
    108e:	9f 7e       	andi	r25, 0xEF	; 239
    1090:	92 2b       	or	r25, r18
    1092:	90 93 c7 01 	sts	0x01C7, r25
	usartConfiguration.parityError = isBitSet(UCSR0A, UPE0);
    1096:	20 81       	ld	r18, Z
    1098:	26 95       	lsr	r18
    109a:	26 95       	lsr	r18
    109c:	21 70       	andi	r18, 0x01	; 1
    109e:	32 2f       	mov	r19, r18
    10a0:	32 95       	swap	r19
    10a2:	33 0f       	add	r19, r19
    10a4:	30 7e       	andi	r19, 0xE0	; 224
    10a6:	9f 7d       	andi	r25, 0xDF	; 223
    10a8:	93 2b       	or	r25, r19
    10aa:	90 93 c7 01 	sts	0x01C7, r25
    10ae:	82 2b       	or	r24, r18
	return (usartConfiguration.parityError | usartConfiguration.bufferOverflowError | usartConfiguration.frameError);
}
    10b0:	84 2b       	or	r24, r20
    10b2:	08 95       	ret

000010b4 <usartTransmit>:
/* -----------------------------------------------------------------------------
 * Transmits data in 5, 6, 7 or 8 bits modes using the USART controller
 * -------------------------------------------------------------------------- */

void usartTransmit(int8 data)
{
    10b4:	98 2f       	mov	r25, r24
	
	while(!usartIsBufferEmpty())
    10b6:	80 91 c0 00 	lds	r24, 0x00C0
    10ba:	85 ff       	sbrs	r24, 5
    10bc:	fc cf       	rjmp	.-8      	; 0x10b6 <usartTransmit+0x2>
		;	// Waits until last transmission ends
	UDR0 = data;
    10be:	90 93 c6 00 	sts	0x00C6, r25
	return;
}
    10c2:	08 95       	ret

000010c4 <usartTransmit9bits>:
/* -----------------------------------------------------------------------------
 * Transmits data in 9 bits mode using the USART controller
 * -------------------------------------------------------------------------- */

void usartTransmit9bits(uint16 data)
{
    10c4:	9c 01       	movw	r18, r24
	uint8 aux;

	while(!usartIsBufferEmpty())
    10c6:	80 91 c0 00 	lds	r24, 0x00C0
    10ca:	85 ff       	sbrs	r24, 5
    10cc:	fc cf       	rjmp	.-8      	; 0x10c6 <usartTransmit9bits+0x2>
		;	// Waits until last transmission ends
	aux = ((data & 0x100) >> 8);
	if(aux)
    10ce:	c9 01       	movw	r24, r18
    10d0:	80 70       	andi	r24, 0x00	; 0
    10d2:	91 70       	andi	r25, 0x01	; 1
    10d4:	99 23       	and	r25, r25
    10d6:	21 f0       	breq	.+8      	; 0x10e0 <usartTransmit9bits+0x1c>
		setBit(UCSR0B, TXB80);
    10d8:	80 91 c1 00 	lds	r24, 0x00C1
    10dc:	81 60       	ori	r24, 0x01	; 1
    10de:	03 c0       	rjmp	.+6      	; 0x10e6 <usartTransmit9bits+0x22>
	else
		clrBit(UCSR0B, TXB80);
    10e0:	80 91 c1 00 	lds	r24, 0x00C1
    10e4:	8e 7f       	andi	r24, 0xFE	; 254
    10e6:	80 93 c1 00 	sts	0x00C1, r24
	UDR0 = (uint8)data;
    10ea:	20 93 c6 00 	sts	0x00C6, r18
	return;
}
    10ee:	08 95       	ret

000010f0 <usartTransmitStd>:
 * Transmits data in 5, 6, 7 or 8 bits modes using the USART controller and
 * standard output heandler
 * -------------------------------------------------------------------------- */

int16 usartTransmitStd(int8 data, FILE * stream)
{
    10f0:	98 2f       	mov	r25, r24
	while(!usartIsBufferEmpty())
    10f2:	80 91 c0 00 	lds	r24, 0x00C0
    10f6:	85 ff       	sbrs	r24, 5
    10f8:	fc cf       	rjmp	.-8      	; 0x10f2 <usartTransmitStd+0x2>
		;	// Waits until last transmission ends
	UDR0 = data;
    10fa:	90 93 c6 00 	sts	0x00C6, r25
	return FALSE;
}
    10fe:	80 e0       	ldi	r24, 0x00	; 0
    1100:	90 e0       	ldi	r25, 0x00	; 0
    1102:	08 95       	ret

00001104 <usartReceive>:

uint8 usartReceive(void)
{
	uint8 status;

	while(!usartIsReceptionComplete())
    1104:	80 91 c0 00 	lds	r24, 0x00C0
    1108:	87 ff       	sbrs	r24, 7
    110a:	fc cf       	rjmp	.-8      	; 0x1104 <usartReceive>
		;	// Waits until last reception ends
	status = UCSR0A;
    110c:	90 91 c0 00 	lds	r25, 0x00C0
	usartConfiguration.frameError = isBitSet(status, FE0);
    1110:	29 2f       	mov	r18, r25
    1112:	26 95       	lsr	r18
    1114:	28 70       	andi	r18, 0x08	; 8
    1116:	80 91 c7 01 	lds	r24, 0x01C7
    111a:	87 7e       	andi	r24, 0xE7	; 231
	usartConfiguration.bufferOverflowError = isBitSet(status, DOR0);
    111c:	99 0f       	add	r25, r25
    111e:	39 2f       	mov	r19, r25
    1120:	30 71       	andi	r19, 0x10	; 16
    1122:	82 2b       	or	r24, r18
    1124:	83 2b       	or	r24, r19
	usartConfiguration.parityError = isBitSet(status, UPE0);
    1126:	99 0f       	add	r25, r25
    1128:	99 0f       	add	r25, r25
    112a:	90 72       	andi	r25, 0x20	; 32
    112c:	8f 7d       	andi	r24, 0xDF	; 223
    112e:	89 2b       	or	r24, r25
    1130:	80 93 c7 01 	sts	0x01C7, r24
	return UDR0;
    1134:	80 91 c6 00 	lds	r24, 0x00C6
}
    1138:	08 95       	ret

0000113a <usartReceive9bits>:
	uint8 status;
	uint8 byteh;
	uint8 bytel;
	uint16 byte;

	while(!usartIsReceptionComplete())
    113a:	80 91 c0 00 	lds	r24, 0x00C0
    113e:	87 ff       	sbrs	r24, 7
    1140:	fc cf       	rjmp	.-8      	; 0x113a <usartReceive9bits>
		;	// Waits until last reception ends
	status = UCSR0A;
    1142:	90 91 c0 00 	lds	r25, 0x00C0
	byteh = UCSR0B;
    1146:	20 91 c1 00 	lds	r18, 0x00C1
	bytel = UDR0;
    114a:	60 91 c6 00 	lds	r22, 0x00C6

	usartConfiguration.frameError = isBitSet(status, FE0);
    114e:	49 2f       	mov	r20, r25
    1150:	46 95       	lsr	r20
    1152:	48 70       	andi	r20, 0x08	; 8
    1154:	80 91 c7 01 	lds	r24, 0x01C7
    1158:	87 7e       	andi	r24, 0xE7	; 231
	usartConfiguration.bufferOverflowError = isBitSet(status, DOR0);
    115a:	99 0f       	add	r25, r25
    115c:	59 2f       	mov	r21, r25
    115e:	50 71       	andi	r21, 0x10	; 16
    1160:	84 2b       	or	r24, r20
    1162:	85 2b       	or	r24, r21
	usartConfiguration.parityError = isBitSet(status, UPE0);
    1164:	99 0f       	add	r25, r25
    1166:	99 0f       	add	r25, r25
    1168:	90 72       	andi	r25, 0x20	; 32
    116a:	8f 7d       	andi	r24, 0xDF	; 223
    116c:	89 2b       	or	r24, r25
    116e:	80 93 c7 01 	sts	0x01C7, r24

	byte = (uint16)(byteh & 0x02) << 7;
    1172:	30 e0       	ldi	r19, 0x00	; 0
    1174:	22 70       	andi	r18, 0x02	; 2
    1176:	30 70       	andi	r19, 0x00	; 0
    1178:	36 95       	lsr	r19
    117a:	32 2f       	mov	r19, r18
    117c:	22 27       	eor	r18, r18
    117e:	37 95       	ror	r19
    1180:	27 95       	ror	r18
    1182:	70 e0       	ldi	r23, 0x00	; 0
    1184:	26 2b       	or	r18, r22
    1186:	37 2b       	or	r19, r23
	byte |= bytel;
	return  byte;
}
    1188:	c9 01       	movw	r24, r18
    118a:	08 95       	ret

0000118c <usartReceiveStd>:
 * standard input heandler
 * -------------------------------------------------------------------------- */

int16 usartReceiveStd(FILE * stream)
{
	while(!usartIsReceptionComplete())
    118c:	80 91 c0 00 	lds	r24, 0x00C0
    1190:	87 ff       	sbrs	r24, 7
    1192:	fc cf       	rjmp	.-8      	; 0x118c <usartReceiveStd>
		;	// Waits until last reception ends
	return (int16)UDR0;
    1194:	80 91 c6 00 	lds	r24, 0x00C6
}
    1198:	90 e0       	ldi	r25, 0x00	; 0
    119a:	08 95       	ret

0000119c <usartClearReceptionBuffer>:
/* -----------------------------------------------------------------------------
 * Clears the receptor data buffer
 * -------------------------------------------------------------------------- */

void usartClearReceptionBuffer(void)
{
    119c:	02 c0       	rjmp	.+4      	; 0x11a2 <usartClearReceptionBuffer+0x6>
	uint8 aux;
	while(usartIsReceptionComplete())
		aux = UDR0;
    119e:	80 91 c6 00 	lds	r24, 0x00C6
 * -------------------------------------------------------------------------- */

void usartClearReceptionBuffer(void)
{
	uint8 aux;
	while(usartIsReceptionComplete())
    11a2:	80 91 c0 00 	lds	r24, 0x00C0
    11a6:	87 fd       	sbrc	r24, 7
    11a8:	fa cf       	rjmp	.-12     	; 0x119e <usartClearReceptionBuffer+0x2>
		aux = UDR0;
	return;
}
    11aa:	08 95       	ret

000011ac <usartAddDataToReceiverBuffer>:
/* -----------------------------------------------------------------------------
 * Adds data to the reception buffer. The function has NO CONTROL of lost data.
 * -------------------------------------------------------------------------- */

void usartAddDataToReceiverBuffer(uint8 data)
{
    11ac:	1f 93       	push	r17
    11ae:	cf 93       	push	r28
    11b0:	df 93       	push	r29
    11b2:	18 2f       	mov	r17, r24
	if(((usartReceiverBufferNextWrite + 1) % USART_RECEIVER_BUFFER_SIZE) != usartReceiverBufferNextRead){
    11b4:	80 91 ce 01 	lds	r24, 0x01CE
    11b8:	c8 2f       	mov	r28, r24
    11ba:	d0 e0       	ldi	r29, 0x00	; 0
    11bc:	21 96       	adiw	r28, 0x01	; 1
    11be:	be 01       	movw	r22, r28
    11c0:	88 27       	eor	r24, r24
    11c2:	77 fd       	sbrc	r23, 7
    11c4:	80 95       	com	r24
    11c6:	98 2f       	mov	r25, r24
    11c8:	21 97       	sbiw	r28, 0x01	; 1
    11ca:	22 e3       	ldi	r18, 0x32	; 50
    11cc:	30 e0       	ldi	r19, 0x00	; 0
    11ce:	40 e0       	ldi	r20, 0x00	; 0
    11d0:	50 e0       	ldi	r21, 0x00	; 0
    11d2:	0e 94 aa 0a 	call	0x1554	; 0x1554 <__udivmodsi4>
    11d6:	9b 01       	movw	r18, r22
    11d8:	ac 01       	movw	r20, r24
    11da:	80 91 d0 01 	lds	r24, 0x01D0
    11de:	90 e0       	ldi	r25, 0x00	; 0
    11e0:	a0 e0       	ldi	r26, 0x00	; 0
    11e2:	b0 e0       	ldi	r27, 0x00	; 0
    11e4:	28 17       	cp	r18, r24
    11e6:	39 07       	cpc	r19, r25
    11e8:	4a 07       	cpc	r20, r26
    11ea:	5b 07       	cpc	r21, r27
    11ec:	51 f0       	breq	.+20     	; 0x1202 <usartAddDataToReceiverBuffer+0x56>
		usartReceiverBuffer[usartReceiverBufferNextWrite] = data;
    11ee:	cb 56       	subi	r28, 0x6B	; 107
    11f0:	de 4f       	sbci	r29, 0xFE	; 254
    11f2:	18 83       	st	Y, r17
		usartReceiverBufferNextWrite = (usartReceiverBufferNextWrite + 1) % USART_RECEIVER_BUFFER_SIZE;
    11f4:	20 93 ce 01 	sts	0x01CE, r18
		usartReceiverBufferLength++;
    11f8:	80 91 cf 01 	lds	r24, 0x01CF
    11fc:	8f 5f       	subi	r24, 0xFF	; 255
    11fe:	80 93 cf 01 	sts	0x01CF, r24
	}
	return;
}
    1202:	df 91       	pop	r29
    1204:	cf 91       	pop	r28
    1206:	1f 91       	pop	r17
    1208:	08 95       	ret

0000120a <usartGetDataFromReceiverBuffer>:
 * usartIsReceiverBufferEmpty() function must be called to check if there is new
 * data in the buffer.
 * -------------------------------------------------------------------------- */

uint8 usartGetDataFromReceiverBuffer(void)
{
    120a:	0f 93       	push	r16
    120c:	1f 93       	push	r17
	uint8 data = usartReceiverBuffer[usartReceiverBufferNextRead];
    120e:	80 91 d0 01 	lds	r24, 0x01D0
    1212:	28 2f       	mov	r18, r24
    1214:	30 e0       	ldi	r19, 0x00	; 0
    1216:	f9 01       	movw	r30, r18
    1218:	eb 56       	subi	r30, 0x6B	; 107
    121a:	fe 4f       	sbci	r31, 0xFE	; 254
    121c:	00 81       	ld	r16, Z
	if(usartReceiverBufferLength > 0){
    121e:	10 91 cf 01 	lds	r17, 0x01CF
    1222:	11 23       	and	r17, r17
    1224:	91 f0       	breq	.+36     	; 0x124a <usartGetDataFromReceiverBuffer+0x40>
		usartReceiverBufferNextRead = (usartReceiverBufferNextRead + 1) % USART_RECEIVER_BUFFER_SIZE;
    1226:	2f 5f       	subi	r18, 0xFF	; 255
    1228:	3f 4f       	sbci	r19, 0xFF	; 255
    122a:	b9 01       	movw	r22, r18
    122c:	88 27       	eor	r24, r24
    122e:	77 fd       	sbrc	r23, 7
    1230:	80 95       	com	r24
    1232:	98 2f       	mov	r25, r24
    1234:	22 e3       	ldi	r18, 0x32	; 50
    1236:	30 e0       	ldi	r19, 0x00	; 0
    1238:	40 e0       	ldi	r20, 0x00	; 0
    123a:	50 e0       	ldi	r21, 0x00	; 0
    123c:	0e 94 aa 0a 	call	0x1554	; 0x1554 <__udivmodsi4>
    1240:	60 93 d0 01 	sts	0x01D0, r22
		usartReceiverBufferLength--;
    1244:	11 50       	subi	r17, 0x01	; 1
    1246:	10 93 cf 01 	sts	0x01CF, r17
	}
	return data;
}
    124a:	80 2f       	mov	r24, r16
    124c:	1f 91       	pop	r17
    124e:	0f 91       	pop	r16
    1250:	08 95       	ret

00001252 <usartIsReceiverBufferEmpty>:
 * Verifies if there is new data in the receiver buffer. Must be called before
 * reading the buffer.
 * -------------------------------------------------------------------------- */

uint8 usartIsReceiverBufferEmpty(void)
{
    1252:	90 e0       	ldi	r25, 0x00	; 0
    1254:	80 91 cf 01 	lds	r24, 0x01CF
    1258:	88 23       	and	r24, r24
    125a:	09 f4       	brne	.+2      	; 0x125e <usartIsReceiverBufferEmpty+0xc>
    125c:	91 e0       	ldi	r25, 0x01	; 1
	if(usartReceiverBufferLength == 0)
		return TRUE;
	return FALSE;
}
    125e:	89 2f       	mov	r24, r25
    1260:	08 95       	ret

00001262 <usartGetCurrentBaudRate>:

 uint32 usartGetCurrentBaudRate(void)
 {
	uint32 aux32 = 0;

	switch(usartConfiguration.mode){
    1262:	80 91 c7 01 	lds	r24, 0x01C7
    1266:	83 70       	andi	r24, 0x03	; 3
    1268:	90 e0       	ldi	r25, 0x00	; 0
    126a:	81 30       	cpi	r24, 0x01	; 1
    126c:	91 05       	cpc	r25, r1
    126e:	b9 f0       	breq	.+46     	; 0x129e <usartGetCurrentBaudRate+0x3c>
    1270:	82 30       	cpi	r24, 0x02	; 2
    1272:	91 05       	cpc	r25, r1
    1274:	09 f1       	breq	.+66     	; 0x12b8 <usartGetCurrentBaudRate+0x56>
    1276:	89 2b       	or	r24, r25
    1278:	29 f0       	breq	.+10     	; 0x1284 <usartGetCurrentBaudRate+0x22>
    127a:	20 e0       	ldi	r18, 0x00	; 0
    127c:	30 e0       	ldi	r19, 0x00	; 0
    127e:	40 e0       	ldi	r20, 0x00	; 0
    1280:	50 e0       	ldi	r21, 0x00	; 0
    1282:	2c c0       	rjmp	.+88     	; 0x12dc <usartGetCurrentBaudRate+0x7a>
	case 0:
		aux32 = F_CPU / 16 / (UBRR0 + 1);
    1284:	20 91 c4 00 	lds	r18, 0x00C4
    1288:	30 91 c5 00 	lds	r19, 0x00C5
    128c:	2f 5f       	subi	r18, 0xFF	; 255
    128e:	3f 4f       	sbci	r19, 0xFF	; 255
    1290:	40 e0       	ldi	r20, 0x00	; 0
    1292:	50 e0       	ldi	r21, 0x00	; 0
    1294:	60 e4       	ldi	r22, 0x40	; 64
    1296:	72 e4       	ldi	r23, 0x42	; 66
    1298:	8f e0       	ldi	r24, 0x0F	; 15
    129a:	90 e0       	ldi	r25, 0x00	; 0
    129c:	19 c0       	rjmp	.+50     	; 0x12d0 <usartGetCurrentBaudRate+0x6e>
		break;
	case 1:
		aux32 = F_CPU / 8 / (UBRR0 + 1);
    129e:	20 91 c4 00 	lds	r18, 0x00C4
    12a2:	30 91 c5 00 	lds	r19, 0x00C5
    12a6:	2f 5f       	subi	r18, 0xFF	; 255
    12a8:	3f 4f       	sbci	r19, 0xFF	; 255
    12aa:	40 e0       	ldi	r20, 0x00	; 0
    12ac:	50 e0       	ldi	r21, 0x00	; 0
    12ae:	60 e8       	ldi	r22, 0x80	; 128
    12b0:	74 e8       	ldi	r23, 0x84	; 132
    12b2:	8e e1       	ldi	r24, 0x1E	; 30
    12b4:	90 e0       	ldi	r25, 0x00	; 0
    12b6:	0c c0       	rjmp	.+24     	; 0x12d0 <usartGetCurrentBaudRate+0x6e>
		break;
	case 2:
		aux32 = F_CPU / 2 / (UBRR0 + 1);
    12b8:	20 91 c4 00 	lds	r18, 0x00C4
    12bc:	30 91 c5 00 	lds	r19, 0x00C5
    12c0:	2f 5f       	subi	r18, 0xFF	; 255
    12c2:	3f 4f       	sbci	r19, 0xFF	; 255
    12c4:	40 e0       	ldi	r20, 0x00	; 0
    12c6:	50 e0       	ldi	r21, 0x00	; 0
    12c8:	60 e0       	ldi	r22, 0x00	; 0
    12ca:	72 e1       	ldi	r23, 0x12	; 18
    12cc:	8a e7       	ldi	r24, 0x7A	; 122
    12ce:	90 e0       	ldi	r25, 0x00	; 0
    12d0:	0e 94 aa 0a 	call	0x1554	; 0x1554 <__udivmodsi4>
    12d4:	c9 01       	movw	r24, r18
    12d6:	da 01       	movw	r26, r20
    12d8:	9c 01       	movw	r18, r24
    12da:	ad 01       	movw	r20, r26
		break;
	}
	return aux32;
 }
    12dc:	b9 01       	movw	r22, r18
    12de:	ca 01       	movw	r24, r20
    12e0:	08 95       	ret

000012e2 <lcdCommand>:
/* -----------------------------------------------------------------------------
 * Sends a command to the display module.
 * -------------------------------------------------------------------------- */

void lcdCommand(int8 command)
{
    12e2:	38 2f       	mov	r19, r24
	uint8 i = 2;

	LCD_DATA_PORT = (LCD_DATA_PORT & (~(0x0F << LCD_DATA_D4))) | ((command >> 4) << LCD_DATA_D4);
    12e4:	85 b1       	in	r24, 0x05	; 5
    12e6:	93 2f       	mov	r25, r19
    12e8:	92 95       	swap	r25
    12ea:	9f 70       	andi	r25, 0x0F	; 15
    12ec:	80 7f       	andi	r24, 0xF0	; 240
    12ee:	98 2b       	or	r25, r24
    12f0:	95 b9       	out	0x05, r25	; 5
    12f2:	22 e0       	ldi	r18, 0x02	; 2
    can be achieved.
*/
void
_delay_loop_1(uint8_t __count)
{
	__asm__ volatile (
    12f4:	55 e0       	ldi	r21, 0x05	; 5
    milliseconds can be achieved.
 */
void
_delay_loop_2(uint16_t __count)
{
	__asm__ volatile (
    12f6:	e0 ef       	ldi	r30, 0xF0	; 240
    12f8:	60 e4       	ldi	r22, 0x40	; 64
    12fa:	7f e1       	ldi	r23, 0x1F	; 31
		_delay_us(1);
		clrBit(LCD_CONTROL_PORT, LCD_CONTROL_E);
		_delay_us(45);
		if(command < 4)
			_delay_ms(2);
		LCD_DATA_PORT = (LCD_DATA_PORT & (~(0x0F << LCD_DATA_D4))) | ((command & 0x0F) << LCD_DATA_D4);
    12fc:	43 2f       	mov	r20, r19
    12fe:	4f 70       	andi	r20, 0x0F	; 15
{
	uint8 i = 2;

	LCD_DATA_PORT = (LCD_DATA_PORT & (~(0x0F << LCD_DATA_D4))) | ((command >> 4) << LCD_DATA_D4);
	do{
		clrBit(LCD_CONTROL_PORT, LCD_CONTROL_RS);
    1300:	2d 98       	cbi	0x05, 5	; 5
    can be achieved.
*/
void
_delay_loop_1(uint8_t __count)
{
	__asm__ volatile (
    1302:	85 2f       	mov	r24, r21
    1304:	8a 95       	dec	r24
    1306:	f1 f7       	brne	.-4      	; 0x1304 <lcdCommand+0x22>
		_delay_us(1);
		setBit(LCD_CONTROL_PORT, LCD_CONTROL_E);
    1308:	2c 9a       	sbi	0x05, 4	; 5
    130a:	85 2f       	mov	r24, r21
    130c:	8a 95       	dec	r24
    130e:	f1 f7       	brne	.-4      	; 0x130c <lcdCommand+0x2a>
		_delay_us(1);
		clrBit(LCD_CONTROL_PORT, LCD_CONTROL_E);
    1310:	2c 98       	cbi	0x05, 4	; 5
    1312:	8e 2f       	mov	r24, r30
    1314:	8a 95       	dec	r24
    1316:	f1 f7       	brne	.-4      	; 0x1314 <lcdCommand+0x32>
		_delay_us(45);
		if(command < 4)
    1318:	34 30       	cpi	r19, 0x04	; 4
    131a:	18 f4       	brcc	.+6      	; 0x1322 <lcdCommand+0x40>
    milliseconds can be achieved.
 */
void
_delay_loop_2(uint16_t __count)
{
	__asm__ volatile (
    131c:	cb 01       	movw	r24, r22
    131e:	01 97       	sbiw	r24, 0x01	; 1
    1320:	f1 f7       	brne	.-4      	; 0x131e <lcdCommand+0x3c>
			_delay_ms(2);
		LCD_DATA_PORT = (LCD_DATA_PORT & (~(0x0F << LCD_DATA_D4))) | ((command & 0x0F) << LCD_DATA_D4);
    1322:	85 b1       	in	r24, 0x05	; 5
    1324:	80 7f       	andi	r24, 0xF0	; 240
    1326:	84 2b       	or	r24, r20
    1328:	85 b9       	out	0x05, r24	; 5
		i--;
    132a:	21 50       	subi	r18, 0x01	; 1
	}while(i > 0);
    132c:	49 f7       	brne	.-46     	; 0x1300 <lcdCommand+0x1e>
	return;
}
    132e:	08 95       	ret

00001330 <lcdInit>:
 * Performs LCD module initialization.
 * -------------------------------------------------------------------------- */

void lcdInit(void)
{
	lcdIOConfigure();
    1330:	85 b1       	in	r24, 0x05	; 5
    1332:	80 7f       	andi	r24, 0xF0	; 240
    1334:	85 b9       	out	0x05, r24	; 5
    1336:	84 b1       	in	r24, 0x04	; 4
    1338:	8f 60       	ori	r24, 0x0F	; 15
    133a:	84 b9       	out	0x04, r24	; 4
    133c:	85 b1       	in	r24, 0x05	; 5
    133e:	8f 7c       	andi	r24, 0xCF	; 207
    1340:	85 b9       	out	0x05, r24	; 5
    1342:	84 b1       	in	r24, 0x04	; 4
    1344:	80 63       	ori	r24, 0x30	; 48
    1346:	84 b9       	out	0x04, r24	; 4
	LCD_DATA_PORT = (LCD_DATA_PORT & (~(0x0F << LCD_DATA_D4))) | (0x03 << LCD_DATA_D4);
    1348:	85 b1       	in	r24, 0x05	; 5
    134a:	80 7f       	andi	r24, 0xF0	; 240
    134c:	83 60       	ori	r24, 0x03	; 3
    134e:	85 b9       	out	0x05, r24	; 5
    can be achieved.
*/
void
_delay_loop_1(uint8_t __count)
{
	__asm__ volatile (
    1350:	95 e0       	ldi	r25, 0x05	; 5
    1352:	89 2f       	mov	r24, r25
    1354:	8a 95       	dec	r24
    1356:	f1 f7       	brne	.-4      	; 0x1354 <lcdInit+0x24>
	_delay_us(1);
	setBit(LCD_CONTROL_PORT, LCD_CONTROL_E);
    1358:	2c 9a       	sbi	0x05, 4	; 5
    135a:	89 2f       	mov	r24, r25
    135c:	8a 95       	dec	r24
    135e:	f1 f7       	brne	.-4      	; 0x135c <lcdInit+0x2c>
	_delay_us(1);
	clrBit(LCD_CONTROL_PORT, LCD_CONTROL_E);
    1360:	2c 98       	cbi	0x05, 4	; 5
    1362:	20 ef       	ldi	r18, 0xF0	; 240
    1364:	82 2f       	mov	r24, r18
    1366:	8a 95       	dec	r24
    1368:	f1 f7       	brne	.-4      	; 0x1366 <lcdInit+0x36>
    milliseconds can be achieved.
 */
void
_delay_loop_2(uint16_t __count)
{
	__asm__ volatile (
    136a:	e0 e2       	ldi	r30, 0x20	; 32
    136c:	fe e4       	ldi	r31, 0x4E	; 78
    136e:	31 97       	sbiw	r30, 0x01	; 1
    1370:	f1 f7       	brne	.-4      	; 0x136e <lcdInit+0x3e>
    can be achieved.
*/
void
_delay_loop_1(uint8_t __count)
{
	__asm__ volatile (
    1372:	89 2f       	mov	r24, r25
    1374:	8a 95       	dec	r24
    1376:	f1 f7       	brne	.-4      	; 0x1374 <lcdInit+0x44>
	_delay_us(45);
	_delay_ms(5);
	_delay_us(1);
	setBit(LCD_CONTROL_PORT, LCD_CONTROL_E);
    1378:	2c 9a       	sbi	0x05, 4	; 5
    137a:	89 2f       	mov	r24, r25
    137c:	8a 95       	dec	r24
    137e:	f1 f7       	brne	.-4      	; 0x137c <lcdInit+0x4c>
	_delay_us(1);
	clrBit(LCD_CONTROL_PORT, LCD_CONTROL_E);
    1380:	2c 98       	cbi	0x05, 4	; 5
    1382:	82 2f       	mov	r24, r18
    1384:	8a 95       	dec	r24
    1386:	f1 f7       	brne	.-4      	; 0x1384 <lcdInit+0x54>
    milliseconds can be achieved.
 */
void
_delay_loop_2(uint16_t __count)
{
	__asm__ volatile (
    1388:	e0 e2       	ldi	r30, 0x20	; 32
    138a:	f3 e0       	ldi	r31, 0x03	; 3
    138c:	31 97       	sbiw	r30, 0x01	; 1
    138e:	f1 f7       	brne	.-4      	; 0x138c <lcdInit+0x5c>
    can be achieved.
*/
void
_delay_loop_1(uint8_t __count)
{
	__asm__ volatile (
    1390:	89 2f       	mov	r24, r25
    1392:	8a 95       	dec	r24
    1394:	f1 f7       	brne	.-4      	; 0x1392 <lcdInit+0x62>
	_delay_us(45);
	_delay_us(200);
	_delay_us(1);
	setBit(LCD_CONTROL_PORT, LCD_CONTROL_E);
    1396:	2c 9a       	sbi	0x05, 4	; 5
    1398:	89 2f       	mov	r24, r25
    139a:	8a 95       	dec	r24
    139c:	f1 f7       	brne	.-4      	; 0x139a <lcdInit+0x6a>
	_delay_us(1);
	clrBit(LCD_CONTROL_PORT, LCD_CONTROL_E);
    139e:	2c 98       	cbi	0x05, 4	; 5
    13a0:	82 2f       	mov	r24, r18
    13a2:	8a 95       	dec	r24
    13a4:	f1 f7       	brne	.-4      	; 0x13a2 <lcdInit+0x72>
	_delay_us(45);
	LCD_DATA_PORT = (LCD_DATA_PORT & (~(0x0F << LCD_DATA_D4))) | (0x02 << LCD_DATA_D4);
    13a6:	85 b1       	in	r24, 0x05	; 5
    13a8:	80 7f       	andi	r24, 0xF0	; 240
    13aa:	82 60       	ori	r24, 0x02	; 2
    13ac:	85 b9       	out	0x05, r24	; 5
    13ae:	89 2f       	mov	r24, r25
    13b0:	8a 95       	dec	r24
    13b2:	f1 f7       	brne	.-4      	; 0x13b0 <lcdInit+0x80>
	_delay_us(1);
	setBit(LCD_CONTROL_PORT, LCD_CONTROL_E);
    13b4:	2c 9a       	sbi	0x05, 4	; 5
    13b6:	9a 95       	dec	r25
    13b8:	f1 f7       	brne	.-4      	; 0x13b6 <lcdInit+0x86>
	_delay_us(1);
	clrBit(LCD_CONTROL_PORT, LCD_CONTROL_E);
    13ba:	2c 98       	cbi	0x05, 4	; 5
    13bc:	2a 95       	dec	r18
    13be:	f1 f7       	brne	.-4      	; 0x13bc <lcdInit+0x8c>
	_delay_us(45);
	lcdCommand(0x28);
    13c0:	88 e2       	ldi	r24, 0x28	; 40
    13c2:	0e 94 71 09 	call	0x12e2	; 0x12e2 <lcdCommand>
	lcdCommand(0x08);
    13c6:	88 e0       	ldi	r24, 0x08	; 8
    13c8:	0e 94 71 09 	call	0x12e2	; 0x12e2 <lcdCommand>
   	lcdClearScreen();
    13cc:	10 92 d1 01 	sts	0x01D1, r1
    13d0:	81 e0       	ldi	r24, 0x01	; 1
    13d2:	0e 94 71 09 	call	0x12e2	; 0x12e2 <lcdCommand>
   	lcdDisplayOn();   
    13d6:	80 91 d2 01 	lds	r24, 0x01D2
    13da:	81 60       	ori	r24, 0x01	; 1
    13dc:	80 93 d2 01 	sts	0x01D2, r24
    13e0:	98 2f       	mov	r25, r24
    13e2:	96 95       	lsr	r25
    13e4:	96 95       	lsr	r25
    13e6:	91 70       	andi	r25, 0x01	; 1
    13e8:	9c 60       	ori	r25, 0x0C	; 12
    13ea:	82 70       	andi	r24, 0x02	; 2
    13ec:	89 2b       	or	r24, r25
    13ee:	0e 94 71 09 	call	0x12e2	; 0x12e2 <lcdCommand>
   	lcdCursorMoveFirstLine();
    13f2:	84 e0       	ldi	r24, 0x04	; 4
    13f4:	80 93 d1 01 	sts	0x01D1, r24
    13f8:	80 e8       	ldi	r24, 0x80	; 128
    13fa:	0e 94 71 09 	call	0x12e2	; 0x12e2 <lcdCommand>
	return;
}
    13fe:	08 95       	ret

00001400 <lcdWrite>:
/* -----------------------------------------------------------------------------
 * Writes a character on the display.
 * -------------------------------------------------------------------------- */

void lcdWrite(int8 character)
{
    1400:	48 2f       	mov	r20, r24
	uint8 i = 2;

	if(character == '\n')
    1402:	8a 30       	cpi	r24, 0x0A	; 10
    1404:	b1 f4       	brne	.+44     	; 0x1432 <lcdWrite+0x32>
		lcdCursorMoveNextLine();
    1406:	80 91 d1 01 	lds	r24, 0x01D1
    140a:	98 2f       	mov	r25, r24
    140c:	9c 7f       	andi	r25, 0xFC	; 252
    140e:	83 70       	andi	r24, 0x03	; 3
    1410:	29 f4       	brne	.+10     	; 0x141c <lcdWrite+0x1c>
    1412:	91 60       	ori	r25, 0x01	; 1
    1414:	90 93 d1 01 	sts	0x01D1, r25
    1418:	80 ec       	ldi	r24, 0xC0	; 192
    141a:	03 c0       	rjmp	.+6      	; 0x1422 <lcdWrite+0x22>
    141c:	90 93 d1 01 	sts	0x01D1, r25
    1420:	80 e8       	ldi	r24, 0x80	; 128
    1422:	0e 94 71 09 	call	0x12e2	; 0x12e2 <lcdCommand>
    1426:	80 91 d1 01 	lds	r24, 0x01D1
    142a:	83 70       	andi	r24, 0x03	; 3
    142c:	80 93 d1 01 	sts	0x01D1, r24
    1430:	08 95       	ret
	else{
		LCD_DATA_PORT = (LCD_DATA_PORT & (~(0x0F << LCD_DATA_D4))) | ((character >> 4) << LCD_DATA_D4);
    1432:	85 b1       	in	r24, 0x05	; 5
    1434:	94 2f       	mov	r25, r20
    1436:	92 95       	swap	r25
    1438:	9f 70       	andi	r25, 0x0F	; 15
    143a:	80 7f       	andi	r24, 0xF0	; 240
    143c:	98 2b       	or	r25, r24
    143e:	95 b9       	out	0x05, r25	; 5
		do{
			setBit(LCD_CONTROL_PORT, LCD_CONTROL_RS);
    1440:	2d 9a       	sbi	0x05, 5	; 5
    1442:	25 e0       	ldi	r18, 0x05	; 5
    1444:	82 2f       	mov	r24, r18
    1446:	8a 95       	dec	r24
    1448:	f1 f7       	brne	.-4      	; 0x1446 <lcdWrite+0x46>
			_delay_us(1);
			setBit(LCD_CONTROL_PORT, LCD_CONTROL_E);
    144a:	2c 9a       	sbi	0x05, 4	; 5
    144c:	82 2f       	mov	r24, r18
    144e:	8a 95       	dec	r24
    1450:	f1 f7       	brne	.-4      	; 0x144e <lcdWrite+0x4e>
			_delay_us(1);
			clrBit(LCD_CONTROL_PORT, LCD_CONTROL_E);
    1452:	2c 98       	cbi	0x05, 4	; 5
    1454:	30 ef       	ldi	r19, 0xF0	; 240
    1456:	83 2f       	mov	r24, r19
    1458:	8a 95       	dec	r24
    145a:	f1 f7       	brne	.-4      	; 0x1458 <lcdWrite+0x58>
			_delay_us(45);
			LCD_DATA_PORT = (LCD_DATA_PORT & (~(0x0F << LCD_DATA_D4))) | ((character & 0x0F) << LCD_DATA_D4);
    145c:	85 b1       	in	r24, 0x05	; 5
    145e:	94 2f       	mov	r25, r20
    1460:	9f 70       	andi	r25, 0x0F	; 15
    1462:	80 7f       	andi	r24, 0xF0	; 240
    1464:	89 2b       	or	r24, r25
    1466:	85 b9       	out	0x05, r24	; 5
	if(character == '\n')
		lcdCursorMoveNextLine();
	else{
		LCD_DATA_PORT = (LCD_DATA_PORT & (~(0x0F << LCD_DATA_D4))) | ((character >> 4) << LCD_DATA_D4);
		do{
			setBit(LCD_CONTROL_PORT, LCD_CONTROL_RS);
    1468:	2d 9a       	sbi	0x05, 5	; 5
    146a:	82 2f       	mov	r24, r18
    146c:	8a 95       	dec	r24
    146e:	f1 f7       	brne	.-4      	; 0x146c <lcdWrite+0x6c>
			_delay_us(1);
			setBit(LCD_CONTROL_PORT, LCD_CONTROL_E);
    1470:	2c 9a       	sbi	0x05, 4	; 5
    1472:	2a 95       	dec	r18
    1474:	f1 f7       	brne	.-4      	; 0x1472 <lcdWrite+0x72>
			_delay_us(1);
			clrBit(LCD_CONTROL_PORT, LCD_CONTROL_E);
    1476:	2c 98       	cbi	0x05, 4	; 5
    1478:	3a 95       	dec	r19
    147a:	f1 f7       	brne	.-4      	; 0x1478 <lcdWrite+0x78>
			_delay_us(45);
			LCD_DATA_PORT = (LCD_DATA_PORT & (~(0x0F << LCD_DATA_D4))) | ((character & 0x0F) << LCD_DATA_D4);
    147c:	85 b1       	in	r24, 0x05	; 5
    147e:	80 7f       	andi	r24, 0xF0	; 240
    1480:	98 2b       	or	r25, r24
    1482:	95 b9       	out	0x05, r25	; 5
    1484:	08 95       	ret

00001486 <lcdWriteStd>:
/* -----------------------------------------------------------------------------
 * Writes a character on the display using the standard output handler.
 * -------------------------------------------------------------------------- */

int16 lcdWriteStd(int8 character, FILE * stream)
{
    1486:	1f 93       	push	r17
    1488:	48 2f       	mov	r20, r24
	uint8 i = 2;

	if(character == '\n'){
    148a:	8a 30       	cpi	r24, 0x0A	; 10
    148c:	09 f5       	brne	.+66     	; 0x14d0 <lcdWriteStd+0x4a>
		for(i = lcdConfiguration.column;i < (LCD_COLUMNS);i++)
    148e:	10 91 d1 01 	lds	r17, 0x01D1
    1492:	16 95       	lsr	r17
    1494:	16 95       	lsr	r17
    1496:	04 c0       	rjmp	.+8      	; 0x14a0 <lcdWriteStd+0x1a>
			lcdWrite(' ');
    1498:	80 e2       	ldi	r24, 0x20	; 32
    149a:	0e 94 00 0a 	call	0x1400	; 0x1400 <lcdWrite>
int16 lcdWriteStd(int8 character, FILE * stream)
{
	uint8 i = 2;

	if(character == '\n'){
		for(i = lcdConfiguration.column;i < (LCD_COLUMNS);i++)
    149e:	1f 5f       	subi	r17, 0xFF	; 255
    14a0:	10 31       	cpi	r17, 0x10	; 16
    14a2:	d0 f3       	brcs	.-12     	; 0x1498 <lcdWriteStd+0x12>
			lcdWrite(' ');
		lcdCursorMoveNextLine();
    14a4:	80 91 d1 01 	lds	r24, 0x01D1
    14a8:	98 2f       	mov	r25, r24
    14aa:	9c 7f       	andi	r25, 0xFC	; 252
    14ac:	83 70       	andi	r24, 0x03	; 3
    14ae:	29 f4       	brne	.+10     	; 0x14ba <lcdWriteStd+0x34>
    14b0:	91 60       	ori	r25, 0x01	; 1
    14b2:	90 93 d1 01 	sts	0x01D1, r25
    14b6:	80 ec       	ldi	r24, 0xC0	; 192
    14b8:	03 c0       	rjmp	.+6      	; 0x14c0 <lcdWriteStd+0x3a>
    14ba:	90 93 d1 01 	sts	0x01D1, r25
    14be:	80 e8       	ldi	r24, 0x80	; 128
    14c0:	0e 94 71 09 	call	0x12e2	; 0x12e2 <lcdCommand>
    14c4:	80 91 d1 01 	lds	r24, 0x01D1
    14c8:	83 70       	andi	r24, 0x03	; 3
    14ca:	80 93 d1 01 	sts	0x01D1, r24
    14ce:	32 c0       	rjmp	.+100    	; 0x1534 <lcdWriteStd+0xae>
	}else{
		lcdConfiguration.column++;
    14d0:	80 91 d1 01 	lds	r24, 0x01D1
    14d4:	98 2f       	mov	r25, r24
    14d6:	9c 7f       	andi	r25, 0xFC	; 252
    14d8:	9c 5f       	subi	r25, 0xFC	; 252
    14da:	83 70       	andi	r24, 0x03	; 3
    14dc:	89 2b       	or	r24, r25
    14de:	80 93 d1 01 	sts	0x01D1, r24
		LCD_DATA_PORT = (LCD_DATA_PORT & (~(0x0F << LCD_DATA_D4))) | ((character >> 4) << LCD_DATA_D4);
    14e2:	85 b1       	in	r24, 0x05	; 5
    14e4:	94 2f       	mov	r25, r20
    14e6:	92 95       	swap	r25
    14e8:	9f 70       	andi	r25, 0x0F	; 15
    14ea:	80 7f       	andi	r24, 0xF0	; 240
    14ec:	98 2b       	or	r25, r24
    14ee:	95 b9       	out	0x05, r25	; 5
		do{
			setBit(LCD_CONTROL_PORT, LCD_CONTROL_RS);
    14f0:	2d 9a       	sbi	0x05, 5	; 5
    14f2:	25 e0       	ldi	r18, 0x05	; 5
    14f4:	82 2f       	mov	r24, r18
    14f6:	8a 95       	dec	r24
    14f8:	f1 f7       	brne	.-4      	; 0x14f6 <lcdWriteStd+0x70>
			_delay_us(1);
			setBit(LCD_CONTROL_PORT, LCD_CONTROL_E);
    14fa:	2c 9a       	sbi	0x05, 4	; 5
    14fc:	82 2f       	mov	r24, r18
    14fe:	8a 95       	dec	r24
    1500:	f1 f7       	brne	.-4      	; 0x14fe <lcdWriteStd+0x78>
			_delay_us(1);
			clrBit(LCD_CONTROL_PORT, LCD_CONTROL_E);
    1502:	2c 98       	cbi	0x05, 4	; 5
    1504:	30 ef       	ldi	r19, 0xF0	; 240
    1506:	83 2f       	mov	r24, r19
    1508:	8a 95       	dec	r24
    150a:	f1 f7       	brne	.-4      	; 0x1508 <lcdWriteStd+0x82>
			_delay_us(45);
			LCD_DATA_PORT = (LCD_DATA_PORT & (~(0x0F << LCD_DATA_D4))) | ((character & 0x0F) << LCD_DATA_D4);
    150c:	85 b1       	in	r24, 0x05	; 5
    150e:	94 2f       	mov	r25, r20
    1510:	9f 70       	andi	r25, 0x0F	; 15
    1512:	80 7f       	andi	r24, 0xF0	; 240
    1514:	89 2b       	or	r24, r25
    1516:	85 b9       	out	0x05, r24	; 5
		lcdCursorMoveNextLine();
	}else{
		lcdConfiguration.column++;
		LCD_DATA_PORT = (LCD_DATA_PORT & (~(0x0F << LCD_DATA_D4))) | ((character >> 4) << LCD_DATA_D4);
		do{
			setBit(LCD_CONTROL_PORT, LCD_CONTROL_RS);
    1518:	2d 9a       	sbi	0x05, 5	; 5
    151a:	82 2f       	mov	r24, r18
    151c:	8a 95       	dec	r24
    151e:	f1 f7       	brne	.-4      	; 0x151c <lcdWriteStd+0x96>
			_delay_us(1);
			setBit(LCD_CONTROL_PORT, LCD_CONTROL_E);
    1520:	2c 9a       	sbi	0x05, 4	; 5
    1522:	2a 95       	dec	r18
    1524:	f1 f7       	brne	.-4      	; 0x1522 <lcdWriteStd+0x9c>
			_delay_us(1);
			clrBit(LCD_CONTROL_PORT, LCD_CONTROL_E);
    1526:	2c 98       	cbi	0x05, 4	; 5
    1528:	3a 95       	dec	r19
    152a:	f1 f7       	brne	.-4      	; 0x1528 <lcdWriteStd+0xa2>
			_delay_us(45);
			LCD_DATA_PORT = (LCD_DATA_PORT & (~(0x0F << LCD_DATA_D4))) | ((character & 0x0F) << LCD_DATA_D4);
    152c:	85 b1       	in	r24, 0x05	; 5
    152e:	80 7f       	andi	r24, 0xF0	; 240
    1530:	98 2b       	or	r25, r24
    1532:	95 b9       	out	0x05, r25	; 5
			i--;
		}while(i > 0);
	}
	return 0;
}
    1534:	80 e0       	ldi	r24, 0x00	; 0
    1536:	90 e0       	ldi	r25, 0x00	; 0
    1538:	1f 91       	pop	r17
    153a:	08 95       	ret

0000153c <__udivmodqi4>:
    153c:	99 1b       	sub	r25, r25
    153e:	79 e0       	ldi	r23, 0x09	; 9
    1540:	04 c0       	rjmp	.+8      	; 0x154a <__udivmodqi4_ep>

00001542 <__udivmodqi4_loop>:
    1542:	99 1f       	adc	r25, r25
    1544:	96 17       	cp	r25, r22
    1546:	08 f0       	brcs	.+2      	; 0x154a <__udivmodqi4_ep>
    1548:	96 1b       	sub	r25, r22

0000154a <__udivmodqi4_ep>:
    154a:	88 1f       	adc	r24, r24
    154c:	7a 95       	dec	r23
    154e:	c9 f7       	brne	.-14     	; 0x1542 <__udivmodqi4_loop>
    1550:	80 95       	com	r24
    1552:	08 95       	ret

00001554 <__udivmodsi4>:
    1554:	a1 e2       	ldi	r26, 0x21	; 33
    1556:	1a 2e       	mov	r1, r26
    1558:	aa 1b       	sub	r26, r26
    155a:	bb 1b       	sub	r27, r27
    155c:	fd 01       	movw	r30, r26
    155e:	0d c0       	rjmp	.+26     	; 0x157a <__udivmodsi4_ep>

00001560 <__udivmodsi4_loop>:
    1560:	aa 1f       	adc	r26, r26
    1562:	bb 1f       	adc	r27, r27
    1564:	ee 1f       	adc	r30, r30
    1566:	ff 1f       	adc	r31, r31
    1568:	a2 17       	cp	r26, r18
    156a:	b3 07       	cpc	r27, r19
    156c:	e4 07       	cpc	r30, r20
    156e:	f5 07       	cpc	r31, r21
    1570:	20 f0       	brcs	.+8      	; 0x157a <__udivmodsi4_ep>
    1572:	a2 1b       	sub	r26, r18
    1574:	b3 0b       	sbc	r27, r19
    1576:	e4 0b       	sbc	r30, r20
    1578:	f5 0b       	sbc	r31, r21

0000157a <__udivmodsi4_ep>:
    157a:	66 1f       	adc	r22, r22
    157c:	77 1f       	adc	r23, r23
    157e:	88 1f       	adc	r24, r24
    1580:	99 1f       	adc	r25, r25
    1582:	1a 94       	dec	r1
    1584:	69 f7       	brne	.-38     	; 0x1560 <__udivmodsi4_loop>
    1586:	60 95       	com	r22
    1588:	70 95       	com	r23
    158a:	80 95       	com	r24
    158c:	90 95       	com	r25
    158e:	9b 01       	movw	r18, r22
    1590:	ac 01       	movw	r20, r24
    1592:	bd 01       	movw	r22, r26
    1594:	cf 01       	movw	r24, r30
    1596:	08 95       	ret

00001598 <printf>:
    1598:	a0 e0       	ldi	r26, 0x00	; 0
    159a:	b0 e0       	ldi	r27, 0x00	; 0
    159c:	e2 ed       	ldi	r30, 0xD2	; 210
    159e:	fa e0       	ldi	r31, 0x0A	; 10
    15a0:	0c 94 a3 0d 	jmp	0x1b46	; 0x1b46 <__prologue_saves__+0x20>
    15a4:	fe 01       	movw	r30, r28
    15a6:	35 96       	adiw	r30, 0x05	; 5
    15a8:	61 91       	ld	r22, Z+
    15aa:	71 91       	ld	r23, Z+
    15ac:	80 91 d5 01 	lds	r24, 0x01D5
    15b0:	90 91 d6 01 	lds	r25, 0x01D6
    15b4:	af 01       	movw	r20, r30
    15b6:	0e 94 16 0b 	call	0x162c	; 0x162c <vfprintf>
    15ba:	20 96       	adiw	r28, 0x00	; 0
    15bc:	e2 e0       	ldi	r30, 0x02	; 2
    15be:	0c 94 bf 0d 	jmp	0x1b7e	; 0x1b7e <__epilogue_restores__+0x20>

000015c2 <puts>:
    15c2:	0f 93       	push	r16
    15c4:	1f 93       	push	r17
    15c6:	cf 93       	push	r28
    15c8:	df 93       	push	r29
    15ca:	8c 01       	movw	r16, r24
    15cc:	e0 91 d5 01 	lds	r30, 0x01D5
    15d0:	f0 91 d6 01 	lds	r31, 0x01D6
    15d4:	83 81       	ldd	r24, Z+3	; 0x03
    15d6:	81 ff       	sbrs	r24, 1
    15d8:	21 c0       	rjmp	.+66     	; 0x161c <puts+0x5a>
    15da:	c0 e0       	ldi	r28, 0x00	; 0
    15dc:	d0 e0       	ldi	r29, 0x00	; 0
    15de:	0d c0       	rjmp	.+26     	; 0x15fa <puts+0x38>
    15e0:	e0 91 d5 01 	lds	r30, 0x01D5
    15e4:	f0 91 d6 01 	lds	r31, 0x01D6
    15e8:	20 85       	ldd	r18, Z+8	; 0x08
    15ea:	31 85       	ldd	r19, Z+9	; 0x09
    15ec:	bf 01       	movw	r22, r30
    15ee:	f9 01       	movw	r30, r18
    15f0:	09 95       	icall
    15f2:	89 2b       	or	r24, r25
    15f4:	11 f0       	breq	.+4      	; 0x15fa <puts+0x38>
    15f6:	cf ef       	ldi	r28, 0xFF	; 255
    15f8:	df ef       	ldi	r29, 0xFF	; 255
    15fa:	f8 01       	movw	r30, r16
    15fc:	81 91       	ld	r24, Z+
    15fe:	8f 01       	movw	r16, r30
    1600:	88 23       	and	r24, r24
    1602:	71 f7       	brne	.-36     	; 0x15e0 <puts+0x1e>
    1604:	e0 91 d5 01 	lds	r30, 0x01D5
    1608:	f0 91 d6 01 	lds	r31, 0x01D6
    160c:	20 85       	ldd	r18, Z+8	; 0x08
    160e:	31 85       	ldd	r19, Z+9	; 0x09
    1610:	8a e0       	ldi	r24, 0x0A	; 10
    1612:	bf 01       	movw	r22, r30
    1614:	f9 01       	movw	r30, r18
    1616:	09 95       	icall
    1618:	89 2b       	or	r24, r25
    161a:	11 f0       	breq	.+4      	; 0x1620 <puts+0x5e>
    161c:	cf ef       	ldi	r28, 0xFF	; 255
    161e:	df ef       	ldi	r29, 0xFF	; 255
    1620:	ce 01       	movw	r24, r28
    1622:	df 91       	pop	r29
    1624:	cf 91       	pop	r28
    1626:	1f 91       	pop	r17
    1628:	0f 91       	pop	r16
    162a:	08 95       	ret

0000162c <vfprintf>:
    162c:	ab e0       	ldi	r26, 0x0B	; 11
    162e:	b0 e0       	ldi	r27, 0x00	; 0
    1630:	ec e1       	ldi	r30, 0x1C	; 28
    1632:	fb e0       	ldi	r31, 0x0B	; 11
    1634:	0c 94 93 0d 	jmp	0x1b26	; 0x1b26 <__prologue_saves__>
    1638:	3c 01       	movw	r6, r24
    163a:	2b 01       	movw	r4, r22
    163c:	5a 01       	movw	r10, r20
    163e:	fc 01       	movw	r30, r24
    1640:	17 82       	std	Z+7, r1	; 0x07
    1642:	16 82       	std	Z+6, r1	; 0x06
    1644:	83 81       	ldd	r24, Z+3	; 0x03
    1646:	81 fd       	sbrc	r24, 1
    1648:	03 c0       	rjmp	.+6      	; 0x1650 <vfprintf+0x24>
    164a:	6f ef       	ldi	r22, 0xFF	; 255
    164c:	7f ef       	ldi	r23, 0xFF	; 255
    164e:	c6 c1       	rjmp	.+908    	; 0x19dc <vfprintf+0x3b0>
    1650:	9a e0       	ldi	r25, 0x0A	; 10
    1652:	89 2e       	mov	r8, r25
    1654:	1e 01       	movw	r2, r28
    1656:	08 94       	sec
    1658:	21 1c       	adc	r2, r1
    165a:	31 1c       	adc	r3, r1
    165c:	f3 01       	movw	r30, r6
    165e:	23 81       	ldd	r18, Z+3	; 0x03
    1660:	f2 01       	movw	r30, r4
    1662:	23 fd       	sbrc	r18, 3
    1664:	85 91       	lpm	r24, Z+
    1666:	23 ff       	sbrs	r18, 3
    1668:	81 91       	ld	r24, Z+
    166a:	2f 01       	movw	r4, r30
    166c:	88 23       	and	r24, r24
    166e:	09 f4       	brne	.+2      	; 0x1672 <vfprintf+0x46>
    1670:	b2 c1       	rjmp	.+868    	; 0x19d6 <vfprintf+0x3aa>
    1672:	85 32       	cpi	r24, 0x25	; 37
    1674:	39 f4       	brne	.+14     	; 0x1684 <vfprintf+0x58>
    1676:	23 fd       	sbrc	r18, 3
    1678:	85 91       	lpm	r24, Z+
    167a:	23 ff       	sbrs	r18, 3
    167c:	81 91       	ld	r24, Z+
    167e:	2f 01       	movw	r4, r30
    1680:	85 32       	cpi	r24, 0x25	; 37
    1682:	29 f4       	brne	.+10     	; 0x168e <vfprintf+0x62>
    1684:	90 e0       	ldi	r25, 0x00	; 0
    1686:	b3 01       	movw	r22, r6
    1688:	0e 94 09 0d 	call	0x1a12	; 0x1a12 <fputc>
    168c:	e7 cf       	rjmp	.-50     	; 0x165c <vfprintf+0x30>
    168e:	98 2f       	mov	r25, r24
    1690:	ff 24       	eor	r15, r15
    1692:	ee 24       	eor	r14, r14
    1694:	99 24       	eor	r9, r9
    1696:	ff e1       	ldi	r31, 0x1F	; 31
    1698:	ff 15       	cp	r31, r15
    169a:	d0 f0       	brcs	.+52     	; 0x16d0 <vfprintf+0xa4>
    169c:	9b 32       	cpi	r25, 0x2B	; 43
    169e:	69 f0       	breq	.+26     	; 0x16ba <vfprintf+0x8e>
    16a0:	9c 32       	cpi	r25, 0x2C	; 44
    16a2:	28 f4       	brcc	.+10     	; 0x16ae <vfprintf+0x82>
    16a4:	90 32       	cpi	r25, 0x20	; 32
    16a6:	59 f0       	breq	.+22     	; 0x16be <vfprintf+0x92>
    16a8:	93 32       	cpi	r25, 0x23	; 35
    16aa:	91 f4       	brne	.+36     	; 0x16d0 <vfprintf+0xa4>
    16ac:	0e c0       	rjmp	.+28     	; 0x16ca <vfprintf+0x9e>
    16ae:	9d 32       	cpi	r25, 0x2D	; 45
    16b0:	49 f0       	breq	.+18     	; 0x16c4 <vfprintf+0x98>
    16b2:	90 33       	cpi	r25, 0x30	; 48
    16b4:	69 f4       	brne	.+26     	; 0x16d0 <vfprintf+0xa4>
    16b6:	41 e0       	ldi	r20, 0x01	; 1
    16b8:	24 c0       	rjmp	.+72     	; 0x1702 <vfprintf+0xd6>
    16ba:	52 e0       	ldi	r21, 0x02	; 2
    16bc:	f5 2a       	or	r15, r21
    16be:	84 e0       	ldi	r24, 0x04	; 4
    16c0:	f8 2a       	or	r15, r24
    16c2:	28 c0       	rjmp	.+80     	; 0x1714 <vfprintf+0xe8>
    16c4:	98 e0       	ldi	r25, 0x08	; 8
    16c6:	f9 2a       	or	r15, r25
    16c8:	25 c0       	rjmp	.+74     	; 0x1714 <vfprintf+0xe8>
    16ca:	e0 e1       	ldi	r30, 0x10	; 16
    16cc:	fe 2a       	or	r15, r30
    16ce:	22 c0       	rjmp	.+68     	; 0x1714 <vfprintf+0xe8>
    16d0:	f7 fc       	sbrc	r15, 7
    16d2:	29 c0       	rjmp	.+82     	; 0x1726 <vfprintf+0xfa>
    16d4:	89 2f       	mov	r24, r25
    16d6:	80 53       	subi	r24, 0x30	; 48
    16d8:	8a 30       	cpi	r24, 0x0A	; 10
    16da:	70 f4       	brcc	.+28     	; 0x16f8 <vfprintf+0xcc>
    16dc:	f6 fe       	sbrs	r15, 6
    16de:	05 c0       	rjmp	.+10     	; 0x16ea <vfprintf+0xbe>
    16e0:	98 9c       	mul	r9, r8
    16e2:	90 2c       	mov	r9, r0
    16e4:	11 24       	eor	r1, r1
    16e6:	98 0e       	add	r9, r24
    16e8:	15 c0       	rjmp	.+42     	; 0x1714 <vfprintf+0xe8>
    16ea:	e8 9c       	mul	r14, r8
    16ec:	e0 2c       	mov	r14, r0
    16ee:	11 24       	eor	r1, r1
    16f0:	e8 0e       	add	r14, r24
    16f2:	f0 e2       	ldi	r31, 0x20	; 32
    16f4:	ff 2a       	or	r15, r31
    16f6:	0e c0       	rjmp	.+28     	; 0x1714 <vfprintf+0xe8>
    16f8:	9e 32       	cpi	r25, 0x2E	; 46
    16fa:	29 f4       	brne	.+10     	; 0x1706 <vfprintf+0xda>
    16fc:	f6 fc       	sbrc	r15, 6
    16fe:	6b c1       	rjmp	.+726    	; 0x19d6 <vfprintf+0x3aa>
    1700:	40 e4       	ldi	r20, 0x40	; 64
    1702:	f4 2a       	or	r15, r20
    1704:	07 c0       	rjmp	.+14     	; 0x1714 <vfprintf+0xe8>
    1706:	9c 36       	cpi	r25, 0x6C	; 108
    1708:	19 f4       	brne	.+6      	; 0x1710 <vfprintf+0xe4>
    170a:	50 e8       	ldi	r21, 0x80	; 128
    170c:	f5 2a       	or	r15, r21
    170e:	02 c0       	rjmp	.+4      	; 0x1714 <vfprintf+0xe8>
    1710:	98 36       	cpi	r25, 0x68	; 104
    1712:	49 f4       	brne	.+18     	; 0x1726 <vfprintf+0xfa>
    1714:	f2 01       	movw	r30, r4
    1716:	23 fd       	sbrc	r18, 3
    1718:	95 91       	lpm	r25, Z+
    171a:	23 ff       	sbrs	r18, 3
    171c:	91 91       	ld	r25, Z+
    171e:	2f 01       	movw	r4, r30
    1720:	99 23       	and	r25, r25
    1722:	09 f0       	breq	.+2      	; 0x1726 <vfprintf+0xfa>
    1724:	b8 cf       	rjmp	.-144    	; 0x1696 <vfprintf+0x6a>
    1726:	89 2f       	mov	r24, r25
    1728:	85 54       	subi	r24, 0x45	; 69
    172a:	83 30       	cpi	r24, 0x03	; 3
    172c:	18 f0       	brcs	.+6      	; 0x1734 <vfprintf+0x108>
    172e:	80 52       	subi	r24, 0x20	; 32
    1730:	83 30       	cpi	r24, 0x03	; 3
    1732:	38 f4       	brcc	.+14     	; 0x1742 <vfprintf+0x116>
    1734:	44 e0       	ldi	r20, 0x04	; 4
    1736:	50 e0       	ldi	r21, 0x00	; 0
    1738:	a4 0e       	add	r10, r20
    173a:	b5 1e       	adc	r11, r21
    173c:	5f e3       	ldi	r21, 0x3F	; 63
    173e:	59 83       	std	Y+1, r21	; 0x01
    1740:	0f c0       	rjmp	.+30     	; 0x1760 <vfprintf+0x134>
    1742:	93 36       	cpi	r25, 0x63	; 99
    1744:	31 f0       	breq	.+12     	; 0x1752 <vfprintf+0x126>
    1746:	93 37       	cpi	r25, 0x73	; 115
    1748:	79 f0       	breq	.+30     	; 0x1768 <vfprintf+0x13c>
    174a:	93 35       	cpi	r25, 0x53	; 83
    174c:	09 f0       	breq	.+2      	; 0x1750 <vfprintf+0x124>
    174e:	56 c0       	rjmp	.+172    	; 0x17fc <vfprintf+0x1d0>
    1750:	20 c0       	rjmp	.+64     	; 0x1792 <vfprintf+0x166>
    1752:	f5 01       	movw	r30, r10
    1754:	80 81       	ld	r24, Z
    1756:	89 83       	std	Y+1, r24	; 0x01
    1758:	42 e0       	ldi	r20, 0x02	; 2
    175a:	50 e0       	ldi	r21, 0x00	; 0
    175c:	a4 0e       	add	r10, r20
    175e:	b5 1e       	adc	r11, r21
    1760:	61 01       	movw	r12, r2
    1762:	01 e0       	ldi	r16, 0x01	; 1
    1764:	10 e0       	ldi	r17, 0x00	; 0
    1766:	12 c0       	rjmp	.+36     	; 0x178c <vfprintf+0x160>
    1768:	f5 01       	movw	r30, r10
    176a:	c0 80       	ld	r12, Z
    176c:	d1 80       	ldd	r13, Z+1	; 0x01
    176e:	f6 fc       	sbrc	r15, 6
    1770:	03 c0       	rjmp	.+6      	; 0x1778 <vfprintf+0x14c>
    1772:	6f ef       	ldi	r22, 0xFF	; 255
    1774:	7f ef       	ldi	r23, 0xFF	; 255
    1776:	02 c0       	rjmp	.+4      	; 0x177c <vfprintf+0x150>
    1778:	69 2d       	mov	r22, r9
    177a:	70 e0       	ldi	r23, 0x00	; 0
    177c:	42 e0       	ldi	r20, 0x02	; 2
    177e:	50 e0       	ldi	r21, 0x00	; 0
    1780:	a4 0e       	add	r10, r20
    1782:	b5 1e       	adc	r11, r21
    1784:	c6 01       	movw	r24, r12
    1786:	0e 94 fe 0c 	call	0x19fc	; 0x19fc <strnlen>
    178a:	8c 01       	movw	r16, r24
    178c:	5f e7       	ldi	r21, 0x7F	; 127
    178e:	f5 22       	and	r15, r21
    1790:	14 c0       	rjmp	.+40     	; 0x17ba <vfprintf+0x18e>
    1792:	f5 01       	movw	r30, r10
    1794:	c0 80       	ld	r12, Z
    1796:	d1 80       	ldd	r13, Z+1	; 0x01
    1798:	f6 fc       	sbrc	r15, 6
    179a:	03 c0       	rjmp	.+6      	; 0x17a2 <vfprintf+0x176>
    179c:	6f ef       	ldi	r22, 0xFF	; 255
    179e:	7f ef       	ldi	r23, 0xFF	; 255
    17a0:	02 c0       	rjmp	.+4      	; 0x17a6 <vfprintf+0x17a>
    17a2:	69 2d       	mov	r22, r9
    17a4:	70 e0       	ldi	r23, 0x00	; 0
    17a6:	42 e0       	ldi	r20, 0x02	; 2
    17a8:	50 e0       	ldi	r21, 0x00	; 0
    17aa:	a4 0e       	add	r10, r20
    17ac:	b5 1e       	adc	r11, r21
    17ae:	c6 01       	movw	r24, r12
    17b0:	0e 94 f3 0c 	call	0x19e6	; 0x19e6 <strnlen_P>
    17b4:	8c 01       	movw	r16, r24
    17b6:	50 e8       	ldi	r21, 0x80	; 128
    17b8:	f5 2a       	or	r15, r21
    17ba:	f3 fe       	sbrs	r15, 3
    17bc:	07 c0       	rjmp	.+14     	; 0x17cc <vfprintf+0x1a0>
    17be:	1a c0       	rjmp	.+52     	; 0x17f4 <vfprintf+0x1c8>
    17c0:	80 e2       	ldi	r24, 0x20	; 32
    17c2:	90 e0       	ldi	r25, 0x00	; 0
    17c4:	b3 01       	movw	r22, r6
    17c6:	0e 94 09 0d 	call	0x1a12	; 0x1a12 <fputc>
    17ca:	ea 94       	dec	r14
    17cc:	8e 2d       	mov	r24, r14
    17ce:	90 e0       	ldi	r25, 0x00	; 0
    17d0:	08 17       	cp	r16, r24
    17d2:	19 07       	cpc	r17, r25
    17d4:	a8 f3       	brcs	.-22     	; 0x17c0 <vfprintf+0x194>
    17d6:	0e c0       	rjmp	.+28     	; 0x17f4 <vfprintf+0x1c8>
    17d8:	f6 01       	movw	r30, r12
    17da:	f7 fc       	sbrc	r15, 7
    17dc:	85 91       	lpm	r24, Z+
    17de:	f7 fe       	sbrs	r15, 7
    17e0:	81 91       	ld	r24, Z+
    17e2:	6f 01       	movw	r12, r30
    17e4:	90 e0       	ldi	r25, 0x00	; 0
    17e6:	b3 01       	movw	r22, r6
    17e8:	0e 94 09 0d 	call	0x1a12	; 0x1a12 <fputc>
    17ec:	e1 10       	cpse	r14, r1
    17ee:	ea 94       	dec	r14
    17f0:	01 50       	subi	r16, 0x01	; 1
    17f2:	10 40       	sbci	r17, 0x00	; 0
    17f4:	01 15       	cp	r16, r1
    17f6:	11 05       	cpc	r17, r1
    17f8:	79 f7       	brne	.-34     	; 0x17d8 <vfprintf+0x1ac>
    17fa:	ea c0       	rjmp	.+468    	; 0x19d0 <vfprintf+0x3a4>
    17fc:	94 36       	cpi	r25, 0x64	; 100
    17fe:	11 f0       	breq	.+4      	; 0x1804 <vfprintf+0x1d8>
    1800:	99 36       	cpi	r25, 0x69	; 105
    1802:	69 f5       	brne	.+90     	; 0x185e <vfprintf+0x232>
    1804:	f7 fe       	sbrs	r15, 7
    1806:	08 c0       	rjmp	.+16     	; 0x1818 <vfprintf+0x1ec>
    1808:	f5 01       	movw	r30, r10
    180a:	20 81       	ld	r18, Z
    180c:	31 81       	ldd	r19, Z+1	; 0x01
    180e:	42 81       	ldd	r20, Z+2	; 0x02
    1810:	53 81       	ldd	r21, Z+3	; 0x03
    1812:	84 e0       	ldi	r24, 0x04	; 4
    1814:	90 e0       	ldi	r25, 0x00	; 0
    1816:	0a c0       	rjmp	.+20     	; 0x182c <vfprintf+0x200>
    1818:	f5 01       	movw	r30, r10
    181a:	80 81       	ld	r24, Z
    181c:	91 81       	ldd	r25, Z+1	; 0x01
    181e:	9c 01       	movw	r18, r24
    1820:	44 27       	eor	r20, r20
    1822:	37 fd       	sbrc	r19, 7
    1824:	40 95       	com	r20
    1826:	54 2f       	mov	r21, r20
    1828:	82 e0       	ldi	r24, 0x02	; 2
    182a:	90 e0       	ldi	r25, 0x00	; 0
    182c:	a8 0e       	add	r10, r24
    182e:	b9 1e       	adc	r11, r25
    1830:	9f e6       	ldi	r25, 0x6F	; 111
    1832:	f9 22       	and	r15, r25
    1834:	57 ff       	sbrs	r21, 7
    1836:	09 c0       	rjmp	.+18     	; 0x184a <vfprintf+0x21e>
    1838:	50 95       	com	r21
    183a:	40 95       	com	r20
    183c:	30 95       	com	r19
    183e:	21 95       	neg	r18
    1840:	3f 4f       	sbci	r19, 0xFF	; 255
    1842:	4f 4f       	sbci	r20, 0xFF	; 255
    1844:	5f 4f       	sbci	r21, 0xFF	; 255
    1846:	e0 e8       	ldi	r30, 0x80	; 128
    1848:	fe 2a       	or	r15, r30
    184a:	ca 01       	movw	r24, r20
    184c:	b9 01       	movw	r22, r18
    184e:	a1 01       	movw	r20, r2
    1850:	2a e0       	ldi	r18, 0x0A	; 10
    1852:	30 e0       	ldi	r19, 0x00	; 0
    1854:	0e 94 35 0d 	call	0x1a6a	; 0x1a6a <__ultoa_invert>
    1858:	d8 2e       	mov	r13, r24
    185a:	d2 18       	sub	r13, r2
    185c:	40 c0       	rjmp	.+128    	; 0x18de <vfprintf+0x2b2>
    185e:	95 37       	cpi	r25, 0x75	; 117
    1860:	29 f4       	brne	.+10     	; 0x186c <vfprintf+0x240>
    1862:	1f 2d       	mov	r17, r15
    1864:	1f 7e       	andi	r17, 0xEF	; 239
    1866:	2a e0       	ldi	r18, 0x0A	; 10
    1868:	30 e0       	ldi	r19, 0x00	; 0
    186a:	1d c0       	rjmp	.+58     	; 0x18a6 <vfprintf+0x27a>
    186c:	1f 2d       	mov	r17, r15
    186e:	19 7f       	andi	r17, 0xF9	; 249
    1870:	9f 36       	cpi	r25, 0x6F	; 111
    1872:	61 f0       	breq	.+24     	; 0x188c <vfprintf+0x260>
    1874:	90 37       	cpi	r25, 0x70	; 112
    1876:	20 f4       	brcc	.+8      	; 0x1880 <vfprintf+0x254>
    1878:	98 35       	cpi	r25, 0x58	; 88
    187a:	09 f0       	breq	.+2      	; 0x187e <vfprintf+0x252>
    187c:	ac c0       	rjmp	.+344    	; 0x19d6 <vfprintf+0x3aa>
    187e:	0f c0       	rjmp	.+30     	; 0x189e <vfprintf+0x272>
    1880:	90 37       	cpi	r25, 0x70	; 112
    1882:	39 f0       	breq	.+14     	; 0x1892 <vfprintf+0x266>
    1884:	98 37       	cpi	r25, 0x78	; 120
    1886:	09 f0       	breq	.+2      	; 0x188a <vfprintf+0x25e>
    1888:	a6 c0       	rjmp	.+332    	; 0x19d6 <vfprintf+0x3aa>
    188a:	04 c0       	rjmp	.+8      	; 0x1894 <vfprintf+0x268>
    188c:	28 e0       	ldi	r18, 0x08	; 8
    188e:	30 e0       	ldi	r19, 0x00	; 0
    1890:	0a c0       	rjmp	.+20     	; 0x18a6 <vfprintf+0x27a>
    1892:	10 61       	ori	r17, 0x10	; 16
    1894:	14 fd       	sbrc	r17, 4
    1896:	14 60       	ori	r17, 0x04	; 4
    1898:	20 e1       	ldi	r18, 0x10	; 16
    189a:	30 e0       	ldi	r19, 0x00	; 0
    189c:	04 c0       	rjmp	.+8      	; 0x18a6 <vfprintf+0x27a>
    189e:	14 fd       	sbrc	r17, 4
    18a0:	16 60       	ori	r17, 0x06	; 6
    18a2:	20 e1       	ldi	r18, 0x10	; 16
    18a4:	32 e0       	ldi	r19, 0x02	; 2
    18a6:	17 ff       	sbrs	r17, 7
    18a8:	08 c0       	rjmp	.+16     	; 0x18ba <vfprintf+0x28e>
    18aa:	f5 01       	movw	r30, r10
    18ac:	60 81       	ld	r22, Z
    18ae:	71 81       	ldd	r23, Z+1	; 0x01
    18b0:	82 81       	ldd	r24, Z+2	; 0x02
    18b2:	93 81       	ldd	r25, Z+3	; 0x03
    18b4:	44 e0       	ldi	r20, 0x04	; 4
    18b6:	50 e0       	ldi	r21, 0x00	; 0
    18b8:	08 c0       	rjmp	.+16     	; 0x18ca <vfprintf+0x29e>
    18ba:	f5 01       	movw	r30, r10
    18bc:	80 81       	ld	r24, Z
    18be:	91 81       	ldd	r25, Z+1	; 0x01
    18c0:	bc 01       	movw	r22, r24
    18c2:	80 e0       	ldi	r24, 0x00	; 0
    18c4:	90 e0       	ldi	r25, 0x00	; 0
    18c6:	42 e0       	ldi	r20, 0x02	; 2
    18c8:	50 e0       	ldi	r21, 0x00	; 0
    18ca:	a4 0e       	add	r10, r20
    18cc:	b5 1e       	adc	r11, r21
    18ce:	a1 01       	movw	r20, r2
    18d0:	0e 94 35 0d 	call	0x1a6a	; 0x1a6a <__ultoa_invert>
    18d4:	d8 2e       	mov	r13, r24
    18d6:	d2 18       	sub	r13, r2
    18d8:	8f e7       	ldi	r24, 0x7F	; 127
    18da:	f8 2e       	mov	r15, r24
    18dc:	f1 22       	and	r15, r17
    18de:	f6 fe       	sbrs	r15, 6
    18e0:	0b c0       	rjmp	.+22     	; 0x18f8 <vfprintf+0x2cc>
    18e2:	5e ef       	ldi	r21, 0xFE	; 254
    18e4:	f5 22       	and	r15, r21
    18e6:	d9 14       	cp	r13, r9
    18e8:	38 f4       	brcc	.+14     	; 0x18f8 <vfprintf+0x2cc>
    18ea:	f4 fe       	sbrs	r15, 4
    18ec:	07 c0       	rjmp	.+14     	; 0x18fc <vfprintf+0x2d0>
    18ee:	f2 fc       	sbrc	r15, 2
    18f0:	05 c0       	rjmp	.+10     	; 0x18fc <vfprintf+0x2d0>
    18f2:	8f ee       	ldi	r24, 0xEF	; 239
    18f4:	f8 22       	and	r15, r24
    18f6:	02 c0       	rjmp	.+4      	; 0x18fc <vfprintf+0x2d0>
    18f8:	1d 2d       	mov	r17, r13
    18fa:	01 c0       	rjmp	.+2      	; 0x18fe <vfprintf+0x2d2>
    18fc:	19 2d       	mov	r17, r9
    18fe:	f4 fe       	sbrs	r15, 4
    1900:	0d c0       	rjmp	.+26     	; 0x191c <vfprintf+0x2f0>
    1902:	fe 01       	movw	r30, r28
    1904:	ed 0d       	add	r30, r13
    1906:	f1 1d       	adc	r31, r1
    1908:	80 81       	ld	r24, Z
    190a:	80 33       	cpi	r24, 0x30	; 48
    190c:	19 f4       	brne	.+6      	; 0x1914 <vfprintf+0x2e8>
    190e:	99 ee       	ldi	r25, 0xE9	; 233
    1910:	f9 22       	and	r15, r25
    1912:	08 c0       	rjmp	.+16     	; 0x1924 <vfprintf+0x2f8>
    1914:	1f 5f       	subi	r17, 0xFF	; 255
    1916:	f2 fe       	sbrs	r15, 2
    1918:	05 c0       	rjmp	.+10     	; 0x1924 <vfprintf+0x2f8>
    191a:	03 c0       	rjmp	.+6      	; 0x1922 <vfprintf+0x2f6>
    191c:	8f 2d       	mov	r24, r15
    191e:	86 78       	andi	r24, 0x86	; 134
    1920:	09 f0       	breq	.+2      	; 0x1924 <vfprintf+0x2f8>
    1922:	1f 5f       	subi	r17, 0xFF	; 255
    1924:	0f 2d       	mov	r16, r15
    1926:	f3 fc       	sbrc	r15, 3
    1928:	14 c0       	rjmp	.+40     	; 0x1952 <vfprintf+0x326>
    192a:	f0 fe       	sbrs	r15, 0
    192c:	0f c0       	rjmp	.+30     	; 0x194c <vfprintf+0x320>
    192e:	1e 15       	cp	r17, r14
    1930:	10 f0       	brcs	.+4      	; 0x1936 <vfprintf+0x30a>
    1932:	9d 2c       	mov	r9, r13
    1934:	0b c0       	rjmp	.+22     	; 0x194c <vfprintf+0x320>
    1936:	9d 2c       	mov	r9, r13
    1938:	9e 0c       	add	r9, r14
    193a:	91 1a       	sub	r9, r17
    193c:	1e 2d       	mov	r17, r14
    193e:	06 c0       	rjmp	.+12     	; 0x194c <vfprintf+0x320>
    1940:	80 e2       	ldi	r24, 0x20	; 32
    1942:	90 e0       	ldi	r25, 0x00	; 0
    1944:	b3 01       	movw	r22, r6
    1946:	0e 94 09 0d 	call	0x1a12	; 0x1a12 <fputc>
    194a:	1f 5f       	subi	r17, 0xFF	; 255
    194c:	1e 15       	cp	r17, r14
    194e:	c0 f3       	brcs	.-16     	; 0x1940 <vfprintf+0x314>
    1950:	04 c0       	rjmp	.+8      	; 0x195a <vfprintf+0x32e>
    1952:	1e 15       	cp	r17, r14
    1954:	10 f4       	brcc	.+4      	; 0x195a <vfprintf+0x32e>
    1956:	e1 1a       	sub	r14, r17
    1958:	01 c0       	rjmp	.+2      	; 0x195c <vfprintf+0x330>
    195a:	ee 24       	eor	r14, r14
    195c:	04 ff       	sbrs	r16, 4
    195e:	0f c0       	rjmp	.+30     	; 0x197e <vfprintf+0x352>
    1960:	80 e3       	ldi	r24, 0x30	; 48
    1962:	90 e0       	ldi	r25, 0x00	; 0
    1964:	b3 01       	movw	r22, r6
    1966:	0e 94 09 0d 	call	0x1a12	; 0x1a12 <fputc>
    196a:	02 ff       	sbrs	r16, 2
    196c:	1d c0       	rjmp	.+58     	; 0x19a8 <vfprintf+0x37c>
    196e:	01 fd       	sbrc	r16, 1
    1970:	03 c0       	rjmp	.+6      	; 0x1978 <vfprintf+0x34c>
    1972:	88 e7       	ldi	r24, 0x78	; 120
    1974:	90 e0       	ldi	r25, 0x00	; 0
    1976:	0e c0       	rjmp	.+28     	; 0x1994 <vfprintf+0x368>
    1978:	88 e5       	ldi	r24, 0x58	; 88
    197a:	90 e0       	ldi	r25, 0x00	; 0
    197c:	0b c0       	rjmp	.+22     	; 0x1994 <vfprintf+0x368>
    197e:	80 2f       	mov	r24, r16
    1980:	86 78       	andi	r24, 0x86	; 134
    1982:	91 f0       	breq	.+36     	; 0x19a8 <vfprintf+0x37c>
    1984:	01 ff       	sbrs	r16, 1
    1986:	02 c0       	rjmp	.+4      	; 0x198c <vfprintf+0x360>
    1988:	8b e2       	ldi	r24, 0x2B	; 43
    198a:	01 c0       	rjmp	.+2      	; 0x198e <vfprintf+0x362>
    198c:	80 e2       	ldi	r24, 0x20	; 32
    198e:	f7 fc       	sbrc	r15, 7
    1990:	8d e2       	ldi	r24, 0x2D	; 45
    1992:	90 e0       	ldi	r25, 0x00	; 0
    1994:	b3 01       	movw	r22, r6
    1996:	0e 94 09 0d 	call	0x1a12	; 0x1a12 <fputc>
    199a:	06 c0       	rjmp	.+12     	; 0x19a8 <vfprintf+0x37c>
    199c:	80 e3       	ldi	r24, 0x30	; 48
    199e:	90 e0       	ldi	r25, 0x00	; 0
    19a0:	b3 01       	movw	r22, r6
    19a2:	0e 94 09 0d 	call	0x1a12	; 0x1a12 <fputc>
    19a6:	9a 94       	dec	r9
    19a8:	d9 14       	cp	r13, r9
    19aa:	c0 f3       	brcs	.-16     	; 0x199c <vfprintf+0x370>
    19ac:	da 94       	dec	r13
    19ae:	f1 01       	movw	r30, r2
    19b0:	ed 0d       	add	r30, r13
    19b2:	f1 1d       	adc	r31, r1
    19b4:	80 81       	ld	r24, Z
    19b6:	90 e0       	ldi	r25, 0x00	; 0
    19b8:	b3 01       	movw	r22, r6
    19ba:	0e 94 09 0d 	call	0x1a12	; 0x1a12 <fputc>
    19be:	dd 20       	and	r13, r13
    19c0:	a9 f7       	brne	.-22     	; 0x19ac <vfprintf+0x380>
    19c2:	06 c0       	rjmp	.+12     	; 0x19d0 <vfprintf+0x3a4>
    19c4:	80 e2       	ldi	r24, 0x20	; 32
    19c6:	90 e0       	ldi	r25, 0x00	; 0
    19c8:	b3 01       	movw	r22, r6
    19ca:	0e 94 09 0d 	call	0x1a12	; 0x1a12 <fputc>
    19ce:	ea 94       	dec	r14
    19d0:	ee 20       	and	r14, r14
    19d2:	c1 f7       	brne	.-16     	; 0x19c4 <vfprintf+0x398>
    19d4:	43 ce       	rjmp	.-890    	; 0x165c <vfprintf+0x30>
    19d6:	f3 01       	movw	r30, r6
    19d8:	66 81       	ldd	r22, Z+6	; 0x06
    19da:	77 81       	ldd	r23, Z+7	; 0x07
    19dc:	cb 01       	movw	r24, r22
    19de:	2b 96       	adiw	r28, 0x0b	; 11
    19e0:	e2 e1       	ldi	r30, 0x12	; 18
    19e2:	0c 94 af 0d 	jmp	0x1b5e	; 0x1b5e <__epilogue_restores__>

000019e6 <strnlen_P>:
    19e6:	fc 01       	movw	r30, r24
    19e8:	05 90       	lpm	r0, Z+
    19ea:	61 50       	subi	r22, 0x01	; 1
    19ec:	70 40       	sbci	r23, 0x00	; 0
    19ee:	01 10       	cpse	r0, r1
    19f0:	d8 f7       	brcc	.-10     	; 0x19e8 <strnlen_P+0x2>
    19f2:	80 95       	com	r24
    19f4:	90 95       	com	r25
    19f6:	8e 0f       	add	r24, r30
    19f8:	9f 1f       	adc	r25, r31
    19fa:	08 95       	ret

000019fc <strnlen>:
    19fc:	fc 01       	movw	r30, r24
    19fe:	61 50       	subi	r22, 0x01	; 1
    1a00:	70 40       	sbci	r23, 0x00	; 0
    1a02:	01 90       	ld	r0, Z+
    1a04:	01 10       	cpse	r0, r1
    1a06:	d8 f7       	brcc	.-10     	; 0x19fe <strnlen+0x2>
    1a08:	80 95       	com	r24
    1a0a:	90 95       	com	r25
    1a0c:	8e 0f       	add	r24, r30
    1a0e:	9f 1f       	adc	r25, r31
    1a10:	08 95       	ret

00001a12 <fputc>:
    1a12:	0f 93       	push	r16
    1a14:	1f 93       	push	r17
    1a16:	cf 93       	push	r28
    1a18:	df 93       	push	r29
    1a1a:	8c 01       	movw	r16, r24
    1a1c:	eb 01       	movw	r28, r22
    1a1e:	8b 81       	ldd	r24, Y+3	; 0x03
    1a20:	81 ff       	sbrs	r24, 1
    1a22:	1b c0       	rjmp	.+54     	; 0x1a5a <fputc+0x48>
    1a24:	82 ff       	sbrs	r24, 2
    1a26:	0d c0       	rjmp	.+26     	; 0x1a42 <fputc+0x30>
    1a28:	2e 81       	ldd	r18, Y+6	; 0x06
    1a2a:	3f 81       	ldd	r19, Y+7	; 0x07
    1a2c:	8c 81       	ldd	r24, Y+4	; 0x04
    1a2e:	9d 81       	ldd	r25, Y+5	; 0x05
    1a30:	28 17       	cp	r18, r24
    1a32:	39 07       	cpc	r19, r25
    1a34:	64 f4       	brge	.+24     	; 0x1a4e <fputc+0x3c>
    1a36:	e8 81       	ld	r30, Y
    1a38:	f9 81       	ldd	r31, Y+1	; 0x01
    1a3a:	01 93       	st	Z+, r16
    1a3c:	f9 83       	std	Y+1, r31	; 0x01
    1a3e:	e8 83       	st	Y, r30
    1a40:	06 c0       	rjmp	.+12     	; 0x1a4e <fputc+0x3c>
    1a42:	e8 85       	ldd	r30, Y+8	; 0x08
    1a44:	f9 85       	ldd	r31, Y+9	; 0x09
    1a46:	80 2f       	mov	r24, r16
    1a48:	09 95       	icall
    1a4a:	89 2b       	or	r24, r25
    1a4c:	31 f4       	brne	.+12     	; 0x1a5a <fputc+0x48>
    1a4e:	8e 81       	ldd	r24, Y+6	; 0x06
    1a50:	9f 81       	ldd	r25, Y+7	; 0x07
    1a52:	01 96       	adiw	r24, 0x01	; 1
    1a54:	9f 83       	std	Y+7, r25	; 0x07
    1a56:	8e 83       	std	Y+6, r24	; 0x06
    1a58:	02 c0       	rjmp	.+4      	; 0x1a5e <fputc+0x4c>
    1a5a:	0f ef       	ldi	r16, 0xFF	; 255
    1a5c:	1f ef       	ldi	r17, 0xFF	; 255
    1a5e:	c8 01       	movw	r24, r16
    1a60:	df 91       	pop	r29
    1a62:	cf 91       	pop	r28
    1a64:	1f 91       	pop	r17
    1a66:	0f 91       	pop	r16
    1a68:	08 95       	ret

00001a6a <__ultoa_invert>:
    1a6a:	fa 01       	movw	r30, r20
    1a6c:	aa 27       	eor	r26, r26
    1a6e:	28 30       	cpi	r18, 0x08	; 8
    1a70:	51 f1       	breq	.+84     	; 0x1ac6 <__ultoa_invert+0x5c>
    1a72:	20 31       	cpi	r18, 0x10	; 16
    1a74:	81 f1       	breq	.+96     	; 0x1ad6 <__ultoa_invert+0x6c>
    1a76:	e8 94       	clt
    1a78:	6f 93       	push	r22
    1a7a:	6e 7f       	andi	r22, 0xFE	; 254
    1a7c:	6e 5f       	subi	r22, 0xFE	; 254
    1a7e:	7f 4f       	sbci	r23, 0xFF	; 255
    1a80:	8f 4f       	sbci	r24, 0xFF	; 255
    1a82:	9f 4f       	sbci	r25, 0xFF	; 255
    1a84:	af 4f       	sbci	r26, 0xFF	; 255
    1a86:	b1 e0       	ldi	r27, 0x01	; 1
    1a88:	3e d0       	rcall	.+124    	; 0x1b06 <__ultoa_invert+0x9c>
    1a8a:	b4 e0       	ldi	r27, 0x04	; 4
    1a8c:	3c d0       	rcall	.+120    	; 0x1b06 <__ultoa_invert+0x9c>
    1a8e:	67 0f       	add	r22, r23
    1a90:	78 1f       	adc	r23, r24
    1a92:	89 1f       	adc	r24, r25
    1a94:	9a 1f       	adc	r25, r26
    1a96:	a1 1d       	adc	r26, r1
    1a98:	68 0f       	add	r22, r24
    1a9a:	79 1f       	adc	r23, r25
    1a9c:	8a 1f       	adc	r24, r26
    1a9e:	91 1d       	adc	r25, r1
    1aa0:	a1 1d       	adc	r26, r1
    1aa2:	6a 0f       	add	r22, r26
    1aa4:	71 1d       	adc	r23, r1
    1aa6:	81 1d       	adc	r24, r1
    1aa8:	91 1d       	adc	r25, r1
    1aaa:	a1 1d       	adc	r26, r1
    1aac:	20 d0       	rcall	.+64     	; 0x1aee <__ultoa_invert+0x84>
    1aae:	09 f4       	brne	.+2      	; 0x1ab2 <__ultoa_invert+0x48>
    1ab0:	68 94       	set
    1ab2:	3f 91       	pop	r19
    1ab4:	2a e0       	ldi	r18, 0x0A	; 10
    1ab6:	26 9f       	mul	r18, r22
    1ab8:	11 24       	eor	r1, r1
    1aba:	30 19       	sub	r19, r0
    1abc:	30 5d       	subi	r19, 0xD0	; 208
    1abe:	31 93       	st	Z+, r19
    1ac0:	de f6       	brtc	.-74     	; 0x1a78 <__ultoa_invert+0xe>
    1ac2:	cf 01       	movw	r24, r30
    1ac4:	08 95       	ret
    1ac6:	46 2f       	mov	r20, r22
    1ac8:	47 70       	andi	r20, 0x07	; 7
    1aca:	40 5d       	subi	r20, 0xD0	; 208
    1acc:	41 93       	st	Z+, r20
    1ace:	b3 e0       	ldi	r27, 0x03	; 3
    1ad0:	0f d0       	rcall	.+30     	; 0x1af0 <__ultoa_invert+0x86>
    1ad2:	c9 f7       	brne	.-14     	; 0x1ac6 <__ultoa_invert+0x5c>
    1ad4:	f6 cf       	rjmp	.-20     	; 0x1ac2 <__ultoa_invert+0x58>
    1ad6:	46 2f       	mov	r20, r22
    1ad8:	4f 70       	andi	r20, 0x0F	; 15
    1ada:	40 5d       	subi	r20, 0xD0	; 208
    1adc:	4a 33       	cpi	r20, 0x3A	; 58
    1ade:	18 f0       	brcs	.+6      	; 0x1ae6 <__ultoa_invert+0x7c>
    1ae0:	49 5d       	subi	r20, 0xD9	; 217
    1ae2:	31 fd       	sbrc	r19, 1
    1ae4:	40 52       	subi	r20, 0x20	; 32
    1ae6:	41 93       	st	Z+, r20
    1ae8:	02 d0       	rcall	.+4      	; 0x1aee <__ultoa_invert+0x84>
    1aea:	a9 f7       	brne	.-22     	; 0x1ad6 <__ultoa_invert+0x6c>
    1aec:	ea cf       	rjmp	.-44     	; 0x1ac2 <__ultoa_invert+0x58>
    1aee:	b4 e0       	ldi	r27, 0x04	; 4
    1af0:	a6 95       	lsr	r26
    1af2:	97 95       	ror	r25
    1af4:	87 95       	ror	r24
    1af6:	77 95       	ror	r23
    1af8:	67 95       	ror	r22
    1afa:	ba 95       	dec	r27
    1afc:	c9 f7       	brne	.-14     	; 0x1af0 <__ultoa_invert+0x86>
    1afe:	00 97       	sbiw	r24, 0x00	; 0
    1b00:	61 05       	cpc	r22, r1
    1b02:	71 05       	cpc	r23, r1
    1b04:	08 95       	ret
    1b06:	9b 01       	movw	r18, r22
    1b08:	ac 01       	movw	r20, r24
    1b0a:	0a 2e       	mov	r0, r26
    1b0c:	06 94       	lsr	r0
    1b0e:	57 95       	ror	r21
    1b10:	47 95       	ror	r20
    1b12:	37 95       	ror	r19
    1b14:	27 95       	ror	r18
    1b16:	ba 95       	dec	r27
    1b18:	c9 f7       	brne	.-14     	; 0x1b0c <__ultoa_invert+0xa2>
    1b1a:	62 0f       	add	r22, r18
    1b1c:	73 1f       	adc	r23, r19
    1b1e:	84 1f       	adc	r24, r20
    1b20:	95 1f       	adc	r25, r21
    1b22:	a0 1d       	adc	r26, r0
    1b24:	08 95       	ret

00001b26 <__prologue_saves__>:
    1b26:	2f 92       	push	r2
    1b28:	3f 92       	push	r3
    1b2a:	4f 92       	push	r4
    1b2c:	5f 92       	push	r5
    1b2e:	6f 92       	push	r6
    1b30:	7f 92       	push	r7
    1b32:	8f 92       	push	r8
    1b34:	9f 92       	push	r9
    1b36:	af 92       	push	r10
    1b38:	bf 92       	push	r11
    1b3a:	cf 92       	push	r12
    1b3c:	df 92       	push	r13
    1b3e:	ef 92       	push	r14
    1b40:	ff 92       	push	r15
    1b42:	0f 93       	push	r16
    1b44:	1f 93       	push	r17
    1b46:	cf 93       	push	r28
    1b48:	df 93       	push	r29
    1b4a:	cd b7       	in	r28, 0x3d	; 61
    1b4c:	de b7       	in	r29, 0x3e	; 62
    1b4e:	ca 1b       	sub	r28, r26
    1b50:	db 0b       	sbc	r29, r27
    1b52:	0f b6       	in	r0, 0x3f	; 63
    1b54:	f8 94       	cli
    1b56:	de bf       	out	0x3e, r29	; 62
    1b58:	0f be       	out	0x3f, r0	; 63
    1b5a:	cd bf       	out	0x3d, r28	; 61
    1b5c:	09 94       	ijmp

00001b5e <__epilogue_restores__>:
    1b5e:	2a 88       	ldd	r2, Y+18	; 0x12
    1b60:	39 88       	ldd	r3, Y+17	; 0x11
    1b62:	48 88       	ldd	r4, Y+16	; 0x10
    1b64:	5f 84       	ldd	r5, Y+15	; 0x0f
    1b66:	6e 84       	ldd	r6, Y+14	; 0x0e
    1b68:	7d 84       	ldd	r7, Y+13	; 0x0d
    1b6a:	8c 84       	ldd	r8, Y+12	; 0x0c
    1b6c:	9b 84       	ldd	r9, Y+11	; 0x0b
    1b6e:	aa 84       	ldd	r10, Y+10	; 0x0a
    1b70:	b9 84       	ldd	r11, Y+9	; 0x09
    1b72:	c8 84       	ldd	r12, Y+8	; 0x08
    1b74:	df 80       	ldd	r13, Y+7	; 0x07
    1b76:	ee 80       	ldd	r14, Y+6	; 0x06
    1b78:	fd 80       	ldd	r15, Y+5	; 0x05
    1b7a:	0c 81       	ldd	r16, Y+4	; 0x04
    1b7c:	1b 81       	ldd	r17, Y+3	; 0x03
    1b7e:	aa 81       	ldd	r26, Y+2	; 0x02
    1b80:	b9 81       	ldd	r27, Y+1	; 0x01
    1b82:	ce 0f       	add	r28, r30
    1b84:	d1 1d       	adc	r29, r1
    1b86:	0f b6       	in	r0, 0x3f	; 63
    1b88:	f8 94       	cli
    1b8a:	de bf       	out	0x3e, r29	; 62
    1b8c:	0f be       	out	0x3f, r0	; 63
    1b8e:	cd bf       	out	0x3d, r28	; 61
    1b90:	ed 01       	movw	r28, r26
    1b92:	08 95       	ret

00001b94 <_exit>:
    1b94:	f8 94       	cli

00001b96 <__stop_program>:
    1b96:	ff cf       	rjmp	.-2      	; 0x1b96 <__stop_program>
